1160746948000112000100004048430000849            J.C.NETO COR.E ADM.SEGS LTDA291120163011201630112016V         Novo (previa)           JOICY SABOIA DE OLIVEIRA LUNAJXW5876     9BD17140A85019554              MANAUS6909031600000100354945   40,00AM
1160746948000112000100004052020000849          ROSAN E NUNES COR DE SEGS LTDA291120163011201630112016V         Novo (previa)                 TATYANNA DE MELO AFONSOOXM5755     8AP196271F4108139              MANAUS6902534000001020185669   40,00AM
1160746948000112000100004052030000840          A.A.BRAGA JR.ADM.COR.SEGS.LTDA291120163011201630112016V         Novo (previa) CARLOS RENATO COLARES DE CARVALHO FILHOPHA7107     93HFB9640FZ208746              MANAUS6907781500000100340553   40,00AM
1160746948000112000100004052060000849          BALMEK COR DE SEG VIDA LTDA ME291120163011201630112016V         Novo (previa)                 COMERCIAL VIA CATALOGOSNOL0100     9BWAA05W1DP081222              MANAUS6908311000000100651982   40,00AM
1160746948000112000100004048400000854           BJB CORRETORA DE SEGUROS LTDA291120163011201630112016V         Novo (previa)                  FABIO MARTINS DE SOUZANOW8601     8AJZX62G2E5006861              MANAUS6909377000000100558699   40,00AM
1160746948000112000100003901660000850             AZUNAV CORR DE SEGUROS LTDA261120163011201630112016V         Novo (previa)    R. LIMA SERVICOS E COMERCIO LTDA EPPQLN8700     8ajfy22g8f8023527              MACAPA6890300700000100611611   40,00AP
1160746948000112000100004048410000849            J.C.NETO COR.E ADM.SEGS LTDA291120163011201630112016V         Novo (previa)               HENRIQUE FREITAS PERREIRANOZ7362     9BG148EP0EC417202              MANAUS6905879000000100354945   40,00AM
1160746948000112000100004050280000849          ZONA FRANCA DAS AMERICAS-ASSES291120163011201630112016V         Novo (previa)                           ESTNER VARGASOXM3444     9BGKS48L0FG261061              MANAUS6903605000000100364789   40,00AM
1160746948000112000100003901700000850             AZUNAV CORR DE SEGUROS LTDA261120163011201630112016V         Novo (previa)    R. LIMA SERVICOS E COMERCIO LTDA EPPQLO5953     9BRK19BT1H2081326              MACAPA6890300700000100611611   40,00AP
1160746948000112000100004048450000840                  ELIENAI BRITO FAGUNDES291120163011201630112016V         Novo (previa)                      HI CONFECCOES LTDAPHG0448     94DFFUK13GB102327              MANAUS6903706300001020241348   40,00AM
1160746948000112000100004048460000849          TAMUZ CORRETORA DE SEGUROS S/S291120163011201630112016V         Novo (previa)                 ELIAS BENACHIO PUGLIESEPHJ0189     9BG148MK0HC415940              MANAUS6909341500000100580082   40,00AM
1160746948000112000100003901680000850             AZUNAV CORR DE SEGUROS LTDA261120163011201630112016V         Novo (previa)    R. LIMA SERVICOS E COMERCIO LTDA EPPQLN9822     9BVRG20D6GE836255              MACAPA6890300700000100611611   40,00AP
1160746948000112000100003901690000850             AZUNAV CORR DE SEGUROS LTDA261120163011201630112016V         Novo (previa)    R. LIMA SERVICOS E COMERCIO LTDA EPPNET5956     9BFYEAKDXDBS13144              MACAPA6890300700000100611611   40,00AP
1160746948000112000100003901670000850             AZUNAV CORR DE SEGUROS LTDA261120163011201630112016V         Novo (previa)    R. LIMA SERVICOS E COMERCIO LTDA EPPQLN9712     9A9B63020G3DF5001              MACAPA6890300700000100611611   40,00AP
1160746948000112000100004048150000849            J.C.NETO COR.E ADM.SEGS LTDA251120162811201629112016V         Novo (previa)                      JEAN C DA SILVA MEOAO1995     WMWSY3104DT562275              MANAUS6901023000000100354945   40,00AM
1160746948000112000100003913360000850          NIPPON HASEGAWA COR SG VIDA LT261120162911201629112016V         Novo (previa)     FRANCINALDO NONATO BARBOSA DA SILVAQDD8366     9531m62pxfr521216            ALTAMIRA6837000000000100504815   40,00PA
1160746948000112000100004047920000849            J.C.NETO COR.E ADM.SEGS LTDA281120162911201629112016V             Renovacao              VALDIR MAURICIO DOS SANTOSOAB7538     9BD373165C5004711              MANAUS6903706300000100354945   40,00AM
1160746948000112000100004047930000849          JAMF CORRETORA DE SEGUROS LTDA281120162911201629112016V             Renovacao                UMBERTO THOMAS CALDERAROPHY0307     NBAKU2100G0N29494              MANAUS6905729000000100409596   40,00AM
1160746948000112000100004047950000849          ROSAN E NUNES COR DE SEGS LTDA281120162911201629112016V         Novo (previa)            KATLEM ROGERIA ARAUJO PASSOSNOX4682     93XJRKB8TDCD79596              MANAUS6908458000001020185669   40,00AM
1160746948000112000100003901730000850             AZUNAV CORR DE SEGUROS LTDA281120162911201629112016V         Novo (previa)                          M S FREITAS MENEO7512     9BWDA45U1ET224455             SANTANA6892500000000100611611   40,00AP
1160746948000112000100004050170000849            SSG COR DE SEGS DE VIDA LTDA281120162911201629112016V         Novo (previa)           KASSEM ASSI ENGENHARIA EIRELIJXY0025     95PZBN7KPEB054998              MANAUS6901017000001020344899   40,00AM
1160746948000112000100004048250000849          G G MOURA CORRETORA DE SEGUROS281120162911201629112016V         Novo (previa)                   WESLEY CORREA GONZAGAOXM6579     93HFB9640FZ216244              MANAUS6904020000000100319783   40,00AM
1160746948000112000100004048270000849          G G MOURA CORRETORA DE SEGUROS281120162911201629112016V         Novo (previa)                  JOAO BOSCO PINTO ROCHANOV3292     8AFAR22FXEJ145631              MANAUS6903700000000100319783   40,00AM
1160746948000112000100004048290000854           BJB CORRETORA DE SEGUROS LTDA281120162911201629112016V         Novo (previa)            ELMA MARIA LAVAREDA NOGUEIRANOU0986     9BD118181B1137408              MANAUS6906522000000100558699   40,00AM
1160746948000112000100004048310000849          G G MOURA CORRETORA DE SEGUROS281120162911201629112016V         Novo (previa)                 RAIMUNDO LOPES OLIVEIRAPHD1850     9BD57837SF7957356              MANAUS6908512000000100319783   40,00AM
1160746948000112000100004048330000840             SMCS CORRETORA DE SEGS LTDA281120162911201629112016V         Novo (previa)        WENDELL ADRIANO FARIAS DE AQUINOPHC4366     9BD19627MF2259948              MANAUS6905842000000100677281   40,00AM
1160746948000112000100004047960000849          G G MOURA CORRETORA DE SEGUROS281120162911201629112016V         Novo (previa)    JEFFERSON ANDERSON DOS SANTOS MACEDOOAC3071     93YBSR86KEJ388977              MANAUS6908227200000100319783   40,00AM
1160746948000112000100003913180000628          CARDOSO E CRUVINEL ADM E COR S281120162911201629112016V         Novo (previa)                 EDIVAN MELO DE OLIVEIRAOTM9479     9BG148MK0EC418488SANTA ISABEL DO PARA6879000000000100534161   40,00PA
1160746948000112000100004047990000849          BALMEK COR DE SEG VIDA LTDA ME281120162911201629112016V         Novo (previa)            COMERCIAL VIA CATALOGOS LTDAOAA8028     9BWMF07X6CP003358              MANAUS6908311000000100651982   40,00AM
1160746948000112000100003904870000838          ESCRITTA CORRETORA DE SEGUROS 231120162911201629112016V         Novo (previa)                             POSTO AGUIAOLL4572     9AA21072GEC127306 OURILANDIA DO NORTE6839000000000100677515   40,00PA
1160746948000112000100003904950000851          UNIVERSO CORRETORA DE SEGS LTD281120162911201629112016V         Novo (previa)                   MARILEI JANETE FRIED QDM3238     9BGKT69R0FG474162              TUCUMA6838500000000100169684   40,00PA
1160746948000112000100003810340000843          ALVILLE ADMR E CORRET DE SEGS 281120162911201629112016V         Novo (previa)                   ADEWALDIR NEVES DUTRANCR8538     9BG148LP0DC427086              MARABA6850776500001020139390   40,00PA
1160746948000112000100003810360000643          BEM ACOMPANHADO CORR DE SEG LT291120162911201629112016V         Novo (previa)                TRANSPORTES MARINEL LTDAMIF2155     9BVAS02C9AE758102              MARABA6850730000001020325762   40,00PA
1160746948000112000100004051060000847          BGSB CORRETORA DE SEGUROS LTDA281120162911201629112016V         Novo (previa)                ANTONIA RODRIGUES VIEIRANSX9783     9BFZF54P4BB166123         PARAGOMINAS6862701800000100560171   40,00PA
1160746948000112000100003903660000937          SANTA CRUZ COR.DE SEGS.S/S LTD281120162911201629112016V         Novo (previa)                          ALCIDES ROSSO OXF8765     9BD578241E7807394            SAPUCAIA6854800000000100191604   40,00PA
1160746948000112000100004045890000256          MINUTO CORRETORA DE SEGUROS LT281120162911201629112016P         Novo (previa)                         ADAM LEAO SILVAOAO4357     9BWLB05U1DP087493              MANAUS6903700000000100230758   27,00AM
1160746948000112000100004047850000849          CONSULCOR ADM CORT SEGS  IMOVE251120162811201628112016V             Renovacao         ANTONIO HENRIQUE FONSECA ROMEROPHK9821     9BFZB55P7G8563617              MANAUS6903700000000100398250   40,00AM
1160746948000112000100004050040000849            J.C.NETO COR.E ADM.SEGS LTDA251120162811201628112016V         Novo (previa)          DMN ESTALEIRO DA AMAZONIA LTDAOAH3743     WV1DB42H9DA022171              MANAUS6905570500000100354945   40,00AM
1160746948000112000100004047890000849          ROSAN E NUNES COR DE SEGS LTDA261120162811201628112016V         Novo (previa)              FRUTPOLPA DA AMAZONIA LTDAOAI0199     8AJEZ39G3B2532541              MANAUS6907341000001020185669   40,00AM
1160746948000112000100004050080000840          MONAZITA SERV ADM E CORR DE SE251120162811201628112016V         Novo (previa)                 JORGE LUIZ MAIA MESSIASPHI3178     9BGKT69R0GG287994              MANAUS6906703000000100421995   40,00AM
1160746948000112000100004049180000964               COMPARA ADM. E CORR. LTDA251120162811201628112016V         Novo (previa)          LUIZ CLAUDIO DA SILVEIRA GOMESNOJ8008     9BWLB05U3EP042119              MANAUS6903611000001020169914   40,00AM
1160746948000112000100004049190000849          ZONA FRANCA DAS AMERICAS-ASSES251120162811201628112016V         Novo (previa)                    EMILIO PINTO ANDRADEOAI0846     93HGM2510DZ117512              MANAUS6905005500000100364789   40,00AM
1160746948000112000100004049200000975           HPE CORRETORA DE SEGUROS LTDA251120162811201628112016V                Outros        HELEN CAROLINE BRANDAO FERNANDESPHK9930     JMYXTGF2WGZA05050              MANAUS6904600000001020076053   40,00AM
1160746948000112000100003903620000841          MARCORR COR E ADM DE SEGS LTDA251120162811201628112016V             Renovacao                VALDILEIS ALMEIDA BARROSQEA1810     93YHSRAF5GJ164854            XINGUARA6855520500000100374130   40,00PA
1160746948000112000100003904900000841          AGIL CORRETORA DE SEGUROS LTDA251120162811201628112016V         Novo (previa)             KEITE PATRICIA BORBA CHAVESPAB4622     8AJDY22G1F7007361              TUCUMA6838500000001020134835   40,00PA
1160746948000112000100003904730000280          RODOBENS ADM E COR DE SEGS LTD241120162811201628112016V         Novo (previa)                         R R DOS REIS MEOSY3625     9BM695304DB911775  SAO FELIX DO XINGU6838000000000100204056   40,00PA
1160746948000112000100004048190000840          FROESPRESS CORRETORA DE SEGS L251120162811201628112016V         Novo (previa)                      JR TRANSPORTE LTDANOR8566     9534J8263AR023196              MANAUS6909550000000100673331   40,00AM
1160746948000112000100004048200000840          FROESPRESS CORRETORA DE SEGS L251120162811201628112016V         Novo (previa)                      JR TRANSPORTE LTDAAMB5199     9BSP6X4B043554343              MANAUS6909550000000100673331   40,00AM
1160746948000112000100004048240000849          G G MOURA CORRETORA DE SEGUROS251120162811201628112016V         Novo (previa)          HELIO PASCHOAL DE SOUZA JUNIOROAE6467     93HGE8890BZ105653              MANAUS6906066000000100319783   40,00AM
1160746948000112000100003809390000849          MAE DO RIO ADM.E COR.DE SEGS.L251120162811201628112016V         Novo (previa)                 IONE PEDRO DE ALCANTARAQDN2089     9BG148PK0GC412269             TRAIRAO6819800000000100320897   40,00PA
1160746948000112000100004049230000849            J.C.NETO COR.E ADM.SEGS LTDA261120162811201628112016V          Substituicao             LEONOR CRISTINA SILVA SOUZAPHC4276     9BD11818MG1324712              MANAUS6903751700000100354945   40,00AM
1160746948000112000100003913110000850           BRADESCOR COR DE SEGUROS LTDA261120162811201628112016V         Novo (previa)   MURILO VINICIUS DE ALBUQUERQUE JATENEOFI5922     9BWAB45Z6C4137007          ANANINDEUA6714370000000100058777   40,00PA
1160746948000112000100003912210000850          NIPPON HASEGAWA COR SG VIDA LT261120162811201628112016V         Novo (previa)                WILSON ALVES DE OLIVEIRAJVE4743     8AJFZ29G9A6101515            ALTAMIRA6837000000000100504815   40,00PA
1160746948000112000100003901720000850             AZUNAV CORR DE SEGUROS LTDA261120162811201628112016V         Novo (previa)                  MARCELO LUIZ SOLVESTRONET4496     9BRBD48E5B2524863              MACAPA6890007500000100611611   40,00AP
1160746948000112000100004045870000849          G G MOURA CORRETORA DE SEGUROS251120162811201628112016V         Novo (previa)              JOSE MARIA SANTOS DA SILVAPHG6261     9BGKS69R0GG123561              MANAUS6906748000000100319783   40,00AM
1160746948000112000100003913040000841          SANMAX CORR.SEGS.VIDA S/C LTDA251120162611201626112016V         Novo (previa)           ANTONIO FERREIRA SOARES NETTOJVE5693     9BGXM19808B275682               BELEM6661023000000100511919   40,00PA
1160746948000112000100039120000000849          TAMUZ CORRETORA DE SEGUROS S/S251120162611201626112016V         Novo (previa)                     JUCELY SOUZA COELHOQDG4214     9BRBDWHE0GO271594               BELEM6608565400000100580082   40,00PA
1160746948000112000100003913070000867                 GRAVATA COR DE SEG LTDA251120162611201626112016V         Novo (previa)         L M A COMERCIO DE PISCINAS LTDAOTI3820     9BD119409D1100723           BENEVIDES6879500000000100450537   40,00PA
1160746948000112000100003913020000867          FABIANO NASCIMENTO DA SILVA CO251120162611201626112016V         Novo (previa)  GIOVANNY ALMEIDA MOLATINHO DE OLIVEIRAOFI5656     KNAKU811DC5210266               BELEM6605000000001020180713   40,00PA
1160746948000112000100003913030000850          NIPPON HASEGAWA COR SG VIDA LT251120162611201626112016V         Novo (previa)               RUTH COSTA LIMA MEIRELES JUO2596     3FAHP08Z16R218237               BELEM6609531000000100504815   40,00PA
1160746948000112000100004049140000849          LESLEY ADM.COR.DE SEGS S/C LTD241120162511201625112016V             Renovacao                     JOSE FERREIRA MOURAOAM5131     9bfwea7b2ebs61883              MANAUS6904001000000100319252   40,00AM
1160746948000112000100004047790000840             SMCS CORRETORA DE SEGS LTDA241120162511201625112016V         Novo (previa)      ELAINE DO SOCORRO MAGALHAES PONTESOAO6707     9BWAA05ZXD4111197              MANAUS6908650000000100677281   40,00AM
1160746948000112000100004047780000849            J.C.NETO COR.E ADM.SEGS LTDA241120162511201625112016V         Novo (previa)                    INES PERREIRA DANTASPHE3284     9BFZB55H8F8520492              MANAUS6905327000000100354945   40,00AM
1160746948000112000100004047750000849            J.C.NETO COR.E ADM.SEGS LTDA241120162511201625112016V         Novo (previa)              HELEN SILVIA E DE OLIVEIRAPHF5069     3HGRM6870FG501277              MANAUS6905803000000100354945   40,00AM
1160746948000112000100004048130000840              TAKEDA COR.DE SEGS.SC LTDA241120162511201625112016V             Renovacao              JOAO MANOEL NUNES MENDONCAOXM3575     9BD578377F7886567              MANAUS6905811500000100338737   40,00AM
1160746948000112000100004047800000849            J.C.NETO COR.E ADM.SEGS LTDA241120162511201625112016V             Renovacao               RAIMUNDA SILVA DE ALENCAROAN9133     9BRBD48E3E2622570              MANAUS6907721000000100354945   40,00AM
1160746948000112000100004047830000849            J.C.NETO COR.E ADM.SEGS LTDA241120162511201625112016V         Novo (previa)           JOSE CARLOS DE MOURA FERREIRAOAM2054     93YBSR7RHEJ726605              MANAUS6908283500000100354945   40,00AM
1160746948000112000100003911910000841          MRFLSGB 10 CORRETORA SEGUROS L241120162511201625112016V         Novo (previa)           MARIO LEONARDO CAMPOS BRINGELOTO0517     95PJU81DBFB011397               BELEM6606006000000100667862   40,00PA
1160746948000112000100004049010000840          LESLEY ADM.COR.DE SEGS S/C LTD221120162511201625112016V             Renovacao                 ELIANE PEREIRA DE SOUZAOAA9826     9bfze55p5b8663702              MANAUS6905883000000100319252   40,00AM
1160746948000112000100003911930000850               JUCA CORR DE SEGS SC LTDA241120162511201625112016V         Novo (previa)         NOVA NORTE LOGISTICA EIRELI EPPQDZ6581     9BWAG45Z1G4035833               BELEM6661500500000100285684   40,00PA
1160746948000112000100004041400000840             SPIES E CAMPOS COR SEG LTDA241120162511201625112016V         Novo (previa)                          TIARAJU FACCIONUK5908     3C6UD5FL8CG205853           BOA VISTA6930529000000100280241   40,00RR
1160746948000112000100003911950000841          ALMEIDA E HOUNSELL ADM COR SEG241120162511201625112016V         Novo (previa)                     PAULO YUKIO NOGUCHIOTH9892     9BD255049D8951675           BENEVIDES6879500000000100636568   40,00PA
1160746948000112000100004010330000841          PARASUL ASSES.E COR.DE SEGS.LT241120162511201625112016V         Novo (previa)           THALLES BENTO D ALMEIDA LOPESPAI9405     9BGPN68N0FB224174      RONDON DO PARA6863800000000100340545   40,00PA
1160746948000112000100003711470000840          LESLEY ADM.COR.DE SEGS S/C LTD231120162511201625112016V         Novo (previa)          OBRAS MESTRAS CONSTRUCOES LTDANOU3802     9BG148FH0DC492090            SANTAREM6803000000000100319252   40,00PA
1160746948000112000100003904890000835          NOVA CAMELOT CORR DE SEGS LTDA241120162511201625112016V         Novo (previa)              BRAULIO SOARES ALBUQUERQUENWL7031     9BWAB45ZXB4163690 OURILANDIA DO NORTE6839000000000100582425   40,00PA
1160746948000112000100003903610000251          VOLVO COR.DE SEGS.ADM.E SERV.L241120162511201625112016V         Novo (previa)   LOURENCO DA SILVA E MARTINS NETO LTDAQDD5998     9BVRG20C9GE831058            XINGUARA6855622000000100410098   40,00PA
1160746948000112000100004049110000849            J.C.NETO COR.E ADM.SEGS LTDA231120162411201624112016V         Novo (previa)                   RONDINELE ARAUJO REISOAL9271     9BD11818LF1314050              MANAUS6905702100000100354945   40,00AM
1160746948000112000100003810280000841          PARASUL ASSES.E COR.DE SEGS.LT231120162411201624112016V         Novo (previa)             POSTO E HOTEL UNIAO ZR LTDAQDL7201     9BSP8X200F3868907     ABEL FIGUEIREDO6852700000000100340545   40,00PA
1160746948000112000100004045780000641                UNICOOB COR DE SEGS LTDA231120162411201624112016V      Reducao franquia         MICHELL ODAIR VALENZUELA GRANDIMGO1763     9BD27804D97141055 SAO MIGUEL DO GUAMA6866000000000100562670   40,00PA
1160746948000112000100004045800000850          PARABUCANO COR DE SEGS SS LTDA231120162411201624112016V         Novo (previa)          ARISTEU XIMENES DE ALBUQUERQUEQEG0360     9BRBDWHE2G0295816        CAPITAO POCO6865000000000100377244   40,00PA
1160746948000112000100004044960000849            J.C.NETO COR.E ADM.SEGS LTDA231120162411201624112016V         Novo (previa)        A MESQUITA DA SILVA COMERCIAL MEPHM3590     9UWSHX76AGN019977              MANAUS6905348000000100354945   40,00AM
1160746948000112000100003810310000847           BRADESCOR COR DE SEGUROS LTDA231120162411201624112016V         Novo (previa)             ANA CLAUDIA CARVALHO PASSOSQDL1278     9BD57834UGB046438              MARABA6850000500000100058777   40,00PA
1160746948000112000100004047710000849          TATIANE DA S S CORR DE SEG EPP231120162411201624112016V         Novo (previa)      ELCILANE ANDRADE DE CARVALHO SILVAPHA2117     9BWDA45U2FT014190              MANAUS6900525000001020330553   40,00AM
1160746948000112000100004045790000850          PARABUCANO COR DE SEGS SS LTDA231120162411201624112016V         Novo (previa)                 ANTONIO MARIA DOS ANJOSOXR7745     9BRBDWHE3F0207130        CAPITAO POCO6865000000000100377244   40,00PA
1160746948000112000100004045810000280          RODOBENS ADM E COR DE SEGS LTD231120162411201624112016V         Novo (previa)                           DAVID MOREIRAOTW4581     8AJFY22G1E8012576             IRITUIA6865500000000100204056   40,00PA
1160746948000112000100004048100000849          CONSULCOR ADM CORT SEGS  IMOVE231120162411201624112016V         Novo (previa)                     DENIZE CARDOSO MOTAPHL0768     988611101GK084150              MANAUS6904468000000100398250   40,00AM
1160746948000112000100004048110000840          FROESPRESS CORRETORA DE SEGS L231120162411201624112016V         Novo (previa)                 ROSANGELA BRANDAO RAMOSNOV0071     9BWDA45UXET183002              MANAUS6909776000000100673331   40,00AM
1160746948000112000100003810290000847          ITACAIUNAS ADM E CORR DE SEGS 231120162411201624112016V         Novo (previa)         LOTARIO HACKENHAR & CIA LTDA MEQDM4732     95365824XFR509927              MARABA6851139500000100243604   40,00PA
1160746948000112000100003810300000847          ITACAIUNAS ADM E CORR DE SEGS 231120162411201624112016V         Novo (previa)         LOTARIO HACKENHAR & CIA LTDA MENSS0304     9535W8270BR131100              MARABA6851430000000100243604   40,00PA
1160746948000112000100004048050000849          G G MOURA CORRETORA DE SEGUROS231120162411201624112016V         Novo (previa)                   RAISSA COELHO BARBOSAPHC9540     8AFSZZFFCFJ316272              MANAUS6905303000000100319783   40,00AM
1160746948000112000100004047740000854           BJB CORRETORA DE SEGUROS LTDA241120162411201624112016V             Renovacao                  CLIFF DOS SANTOS VIANAPHW1207     8AJHA8CD6G2580140              MANAUS6907700000000100558699   40,00AM
1160746948000112000100004048090000849            J.C.NETO COR.E ADM.SEGS LTDA231120162411201624112016V         Novo (previa)               HENRIQUE FREITAS PERREIRANOZ7362     9BG148EP0EC417202              MANAUS6907552000000100354945   40,00AM
1160746948000112000100004049080000840          TAUMATURGO E VEIGA COR DE SEGS231120162411201624112016V             Renovacao             HUGO LEANDRO AROUCA RIBEIROOAD5837     9BRBD48E4C2541638              MANAUS6905001000000100678473   40,00AM
1160746948000112000100003911870000841          COHEN CORRET DE SGRS EIRELI ME231120162411201624112016V         Novo (previa)            BORIS JOEL RODRIGUEZ VASQUEZQEC8412     988226117HKA55570               BELEM6609367700001020124228   40,00PA
1160746948000112000100003911880000850               JUCA CORR DE SEGS SC LTDA231120162411201624112016V         Novo (previa)                JOSINEY BARROS DE ARAUJOJGQ2691     8AJFY29G2D8530667               BELEM6663508500000100285684   40,00PA
1160746948000112000100004045860000851          UNIVERSO CORRETORA DE SEGS LTD231120162411201624112016V         Novo (previa)                  AGEMARIO PLACIDO COSTAOGZ5083     9BGJC69X0CB294710            REDENCAO6855000000000100169684   40,00PA
1160746948000112000100003810320000841          PARASUL ASSES.E COR.DE SEGS.LT231120162411201624112016V         Novo (previa)                EDMILSON DA SILVA BARROSOMS9891     9BD27804MD7629755      RONDON DO PARA6863800000000100340545   40,00PA
1160746948000112000100004042950000849            J.C.NETO COR.E ADM.SEGS LTDA211120162211201623112016V             Renovacao                 GILCIMAR GLORIA MARTINSOXM8319     9BWAB45Z1E4175442              MANAUS6909831000000100354945   40,00AM
1160746948000112000100004042940000639           LC MARINHO ADM E CORR SEGS SC211120162211201623112016V         Novo (previa)              LILIAN MARIA COSTA HOLANDAOAO7217     9BG148EP0DC446235              MANAUS6909449000000100266922   40,00AM
1160746948000112000100004044830000849          JAMF CORRETORA DE SEGUROS LTDA211120162211201623112016V         Novo (previa)                  SILVANA MIRANDA CORREANOJ8001     9BD13531CE2257491              MANAUS6905470000000100409596   40,00AM
1160746948000112000100003904820000841          CVK CORRETORA E ADM SEGUROS LT181120162211201623112016V             Renovacao                 VALDENIZA DOURADO SILVAOTR9798     9BG148MK0FC401348  SAO FELIX DO XINGU6838000000000100674702   40,00PA
1160746948000112000100004044870000840          FROESPRESS CORRETORA DE SEGS L221120162311201623112016V         Novo (previa)   MAQTECH MOTORES E ASSIST TECNICA LTDANPA7743     8AFDR10AXCJ457895              MANAUS6900504000000100673331   40,00AM
1160746948000112000100004047660000849          G G MOURA CORRETORA DE SEGUROS221120162311201623112016V             Renovacao   MARIA DO PERPETUO SOCORRO DACIO PAIVANOT0017     9BD197163E3144867              MANAUS6908659800000100319783   40,00AM
1160746948000112000100004049060000840          KANDASEG ELMATEK COR.DE SEGS.L221120162311201623112016V      Reducao franquia           FLAVIA KELEN DE ANDRADE SILVAOXM9836     KNAFZ414BF5319480              MANAUS6902836000000100416061   40,00AM
1160746948000112000100040476700000840          GABARITO COR.E ADM.DE SEGS.LTD221120162311201623112016V             Renovacao               JOSINO DA SILVA MALAGUETAPHA1995     93YHSR6P5FJ517018              MANAUS6907683000000100375012   40,00AM
1160746948000112000100004045760000835          SAGA CORRETORA DE SEGUROS LTDA221120162311201623112016V         Novo (previa)                RAIMUNDO OLIVEIRA SANTOSPQL0316     9BWDB45U5GT025845         PARAUAPEBAS6851500000000100138673   40,00PA
1160746948000112000100004044890000849           ABG CORR DE SEGS DE VIDA LTDA221120162311201623112016V         Novo (previa)          IONA VICENTE MONTEIRO CARNEIROOAF5498     9BGRP69X0CG230372              MANAUS6902007000001020341458   40,00AM
1160746948000112000100004044900000849          ZONA FRANCA DAS AMERICAS-ASSES221120162311201623112016V         Novo (previa)                EDINALDO PAIVA GUIMARAESPHK2937     988226175HKA69273              MANAUS6906700300000100364789   40,00AM
1160746948000112000100004044910000849          ZONA FRANCA DAS AMERICAS-ASSES221120162311201623112016V         Novo (previa)                ROSILENA PEREIRA BATISTAPHL4050     988611122GK094014              MANAUS6906700000000100364789   40,00AM
1160746948000112000100004044930000659          ZANONI CORRETORA DE SEGUROS LT221120162311201623112016V         Novo (previa)                  FABIO TAKEHIRO NISHIDAOAA8471     94DFCUK13FB108521              MANAUS6905704000001020334168   40,00AM
1160746948000112000100003711460000940          SEGURALTA OESTE COR DE SEGS LT221120162311201623112016V         Novo (previa)                 L C A BATISTA JUNIOR MEPHB5465     93XVNKB8TFCE00877            SANTAREM6804005000000100361011   40,00PA
1160746948000112000100003711450000838            M & K COR DE SEGUROS LTDA ME221120162311201623112016V         Novo (previa)              ELISANGELA FERNANDES SOUSAQDR1959     9BGKT48R0FG470930            SANTAREM6803054000001020123329   40,00PA
1160746948000112000100004048020000639           LC MARINHO ADM E CORR SEGS SC221120162311201623112016V         Novo (previa)           SHEILA REGINA GONDIM LIBERATOPHH7448     9BWJL45U3GP034861              MANAUS6905467500000100266922   40,00AM
1160746948000112000100004048030000840          ALCORR CORRETORES E AGENTES DE221120162311201623112016V         Novo (previa)                MAURICIO FELICIANO GOMESOAE8056     KNAFU411AB5913408              MANAUS6902841600001020057539   40,00AM
1160746948000112000100003911500000841          ALMEIDA E HOUNSELL ADM COR SEG221120162311201623112016V         Novo (previa)                 FERNANDO SOUZA DA COSTAQDF3527     9BD17122ZG7559278           BENEVIDES6879500000000100636568   40,00PA
1160746948000112000100004041270000849          S BORGES ALCANTARA COR.DE SEGS221120162311201623112016V         Novo (previa)      MARIA AUXILIADORA RODRIGUES CHAVESNPA9891     8AJFY29G2E8566098           BOA VISTA6930969500000100577685   40,00RR
1160746948000112000100003911520000851          UNIVERSO CORRETORA DE SEGS LTD221120162311201623112016V         Novo (previa)                  CASSIO CARNEIRO DUARTEQEP6290     9BGKT48R0GG235109               BELEM6661742000000100169684   40,00PA
1160746948000112000100003901630000841          LEAL F M CORR DE SEGS EIRELI M231120162311201623112016V         Novo (previa)                    RAFAEL FIALHO LEHNENQLN6737     3VWHJ6AU9FM073259              MACAPA6890807300001020339119   40,00AP
1160746948000112000100004046880000849            J.C.NETO COR.E ADM.SEGS LTDA191120162211201622112016V         Novo (previa)                     MARCELA ALVES LUCIOOAG6950     9BGRP48F0CG253717              MANAUS6905508000000100354945   40,00AM
1160746948000112000100004046990000849          ROSAN E NUNES COR DE SEGS LTDA211120162211201622112016V         Novo (previa)                  ANIEL MOREIRA DEMORAESPHJ6660     8AFAR20F0FJ341274              MANAUS6904402800001020185669   40,00AM
1160746948000112000100004042890000849          CONSULCOR ADM CORT SEGS  IMOVE191120162211201622112016V             Renovacao                   CRISTINA SILVA ARAUJOOXM3461     8AGSU19F0ER187645              MANAUS6904408000000100398250   40,00AM
1160746948000112000100004046940000849          LESLEY ADM.COR.DE SEGS S/C LTD211120162211201622112016V         Novo (previa)                    AER RESTAURANTE LTDAPHY0150     9BRBDWHE3G0292584              MANAUS6905879500000100319252   40,00AM
1160746948000112000100004044820000849            J.C.NETO COR.E ADM.SEGS LTDA211120162211201622112016V         Novo (previa)                 JOAO CANDIDO GOMES NETOOAB9022     3FAFP4WJ4EM118690              MANAUS6903300800000100354945   40,00AM
1160746948000112000100004042990000849          CONSULCOR ADM CORT SEGS  IMOVE211120162211201622112016V         Novo (previa)                 GISELE FRANCO DE CASTROOAL4064     9BG148FH0DC479191              MANAUS6902325000000100398250   40,00AM
1160746948000112000100004047670000840                   ARIPUANA COR SEG LTDA211120162211201622112016V         Novo (previa)              LOURDES MARIA MAIA ANDRADEPHA0672     9BD196263F2240663              MANAUS6908527500000100363600   40,00AM
1160746948000112000100004045590000849          CONSULCOR ADM CORT SEGS  IMOVE181120162211201622112016V         Novo (previa)            LINVIGNISTON FERREIRA FARIASPHI8955     988611152GK059790             CAREIRO6925000000000100398250   40,00AM
1160746948000112000100003903550000845          AGUIA BRANCA CORR DE SEGS EIRE191120162211201622112016V         Novo (previa)     DILSA APARECIDA DE OLIVEIRA ANDRADEOGL4495     9BWAA05W7DP033000            XINGUARA6855510300001020341083   40,00PA
1160746948000112000100004046960000613          SMARTIA ASSESS E COR DE SEGS S211120162211201622112016V         Novo (previa)                   FABIO AUGUSTO PERUCHINPB6144     9BGPN68M0DB247695              MANAUS6903704200000100677485   40,00AM
1160746948000112000100004046980000849          CONSULCOR ADM CORT SEGS  IMOVE211120162211201622112016V         Novo (previa)                SOCORRO DE CASTRO SANTOSFDI1840     9BWDA05U3DT065865              MANAUS6904737000000100398250   40,00AM
1160746948000112000100003803560000851          MARCORR COR E ADM DE SEGS LTDA211120162211201622112016V         Novo (previa)               ALMIR OLIVEIRA DOS SANTOSOXM7749     9BGKF69B0FG248743            XINGUARA6855501100000100374130   40,00PA
1160746948000112000100003911790000975           HPE CORRETORA DE SEGUROS LTDA211120162211201622112016V         Novo (previa)                 MARLIRIA CASTRO RIBEIROOTR7441     935SUNFNWEB535512               BELEM6606058500001020076053   40,00PA
1160746948000112000100003911840000850               JUCA CORR DE SEGS SC LTDA211120162211201622112016V         Novo (previa)                    JAMILE MAMEDE MENDESOTS9736     9BD11818LF1308590          ANANINDEUA6714010000000100285684   40,00PA
1160746948000112000100004045730000835          UNICERRADO CORR DE SEGUROS LTD211120162211201622112016V         Novo (previa)               HELENA DE ARAUJO CARVALHOOGN4379     9BG148FH0DC422711         PARAUAPEBAS6851500000000100686476   40,00PA
1160746948000112000100003904830000851          UNIVERSO CORRETORA DE SEGS LTD181120162211201622112016V         Novo (previa)                      OTAVIO ALVES COSTAOFN2049     9BG138SP0BC487454  SAO FELIX DO XINGU6838000000000100169684   40,00PA
1160746948000112000100004045530000624             COSTAMAR ADM CORR SEGS LTDA161120161811201621112016V         Novo (previa)                 RAMON MARCIO DE MIRANDAPWW6755     9BD11818MG1330059   CANAA DOS CARAJAS6853700000000100068187   40,00PA
1160746948000112000100003911700000967          LEGASILVA CORRETORA DE SEGUROS181120161911201621112016V         Novo (previa)               LEANDRO MARIANO GONCALVESNSU6076     93YBSR6RHBJ504765          ANANINDEUA6701523000000100681326   40,00PA
1160746948000112000100003911780000850          NIPPON HASEGAWA COR SG VIDA LT191120161911201621112016V         Novo (previa)          CEREALISTA CACAU PARA LTDA EPPNBG0084     WV1SD42H5CA022619        MEDICILANDIA6814500000000100504815   40,00PA
1160746948000112000100003911730000644          PROTECORR COR. DE SEGUROS LTDA171120161911201621112016V         Novo (previa)          WG LOCACOES E SERVICOS LTDA MEPHM4420     8AJBA3CD0H1582952            SANTAREM6802574000001020122616   40,00PA
1160746948000112000100003711440000870           BONSAI NORTE COR DE SEGS LTDA181120161911201621112016V                Outros                   ROBSON FERREIRA PINTOQDH9423     JMYLYV98WFJA00752            SANTAREM6803500000001020091117   40,00PA
1160746948000112000100004045610000838          CHAVES CAMPOS COR.E ADM.DE SEG181120161911201621112016V         Novo (previa)                    FABIO MARQUES TORRESMWJ0346     8AJFZ29G6B6137521         ULIANOPOLIS6863200000000100363391   40,00PA
1160746948000112000100037114100000850          NIPPON HASEGAWA COR SG VIDA LT171120161911201621112016V         Novo (previa)                   VALDENOR JOSE PEREIRAOFK2115     8AJFY22G3C8000295               ANAPU6836500000000100504815   40,00PA
1160746948000112000100004045620000842          ASCOLY CORRETORA DE SEGUROS LT171120161911201621112016V                Outros             CORINTTO MARCELYNO DA SILVAQKC9592     9BGKS69R0GG203317         PARAUAPEBAS6851500000000100302643   40,00PA
1160746948000112000100004045630000251          VOLVO COR.DE SEGS.ADM.E SERV.L181120161911201621112016V                Outros                          C V CORREIA MENLQ3270     9BVAS02C29E748412         PARAUAPEBAS6851500000000100410098   40,00PA
1160746948000112000100004045550000849          G G MOURA CORRETORA DE SEGUROS171120162111201621112016V         Novo (previa)AGUAS CLARAS SERV E TRANSP MARITIMO LTDAOAK1162     9BWDA45U5ET196112              MANAUS6903002000000100319783   40,00AM
1160746948000112000100004045660000838            M & K COR DE SEGUROS LTDA ME181120162111201621112016V         Novo (previa)                          ALTEMIR MANINIPSI3302     9531M62P8FR503720         PARAUAPEBAS6851500000001020123329   40,00PA
1160746948000112000100004045600000840          TAMUZ CORRETORA DE SEGUROS S/S171120162111201621112016V         Novo (previa)                 NUBIA BRAGA DA SILVEIRANOZ5922     8AD4D5FMYEG013792              MANAUS6903801500000100580082   40,00AM
1160746948000112000100004042770000849          ROSAN E NUNES COR DE SEGS LTDA171120162111201621112016V         Novo (previa)           JUCELINO VIEIRA DO NASCIMENTOOAA8344     9BD195162D0466883              MANAUS6907855100001020185669   40,00AM
1160746948000112000100004044760000849          MMA CORRETORA DE SEGUROS LTDA 181120162111201621112016V         Novo (previa)               VANILDA SIQUEIRA DA SILVAOAO0252     9BWAA45Z6E4113697              MANAUS6905757000001020171420   40,00AM
1160746948000112000100004044780000849          G G MOURA CORRETORA DE SEGUROS181120162111201621112016V         Novo (previa)  CACADOR COMERCIO VAREJISTA DE PRODUTOSJWU0026     9BM6881562B303336              MANAUS6907304000000100319783   40,00AM
1160746948000112000100004044810000849          G G MOURA CORRETORA DE SEGUROS181120162111201621112016V         Novo (previa)                  ADEVAIR VIEIRA DA CRUZNOQ3926     9533452R1AR040591              MANAUS6902501000000100319783   40,00AM
1160746948000112000100004046770000849          G G MOURA CORRETORA DE SEGUROS181120162111201621112016V         Novo (previa)             ELIELZA DE LIMA MAIA BASTOSPHK0750     93HGM6650GZ210289              MANAUS6904503000000100319783   40,00AM
1160746948000112000100004046790000849          G G MOURA CORRETORA DE SEGUROS181120162111201621112016V         Novo (previa)             ANDREIA FERREIRA CAVALCANTEOAD3237     8AP372111C6012613              MANAUS6907680000000100319783   40,00AM
1160746948000112000100004046800000840            NNV COR DE SEGS DE VIDA LTDA181120162111201621112016V         Novo (previa)            ANTONIO AUGUSTO DUARTE PENHANOV0771     WV1DB42H2EA001888              MANAUS6908306000001020282648   40,00AM
1160746948000112000100004042850000840          PARVI CORRETORA DE SEGUROS LTD181120162111201621112016V             Renovacao             LUIZ ALEX DE OLIVEIRA GOMESPHG8867     9BRBD3HE1G0282652              MANAUS6905804000000100538329   40,00AM
1160746948000112000100003901580000641                UNICOOB COR DE SEGS LTDA181120162111201621112016V         Novo (previa)                 MARTINS E LOURENCO LTDANEX1164     9BWA452R27R712359              MACAPA6890287000000100562670   40,00AP
1160746948000112000100004046840000849            J.C.NETO COR.E ADM.SEGS LTDA181120162111201621112016V          Substituicao              MISAEL SILVA SANTOS JUNIOROAI3355     8AFAR22F8DJ085671              MANAUS6906002000000100354945   40,00AM
1160746948000112000100004041130000849           BRADESCOR COR DE SEGUROS LTDA181120162111201621112016V         Novo (previa)                   LUANA DA SILVA MORAISNUJ7168     9BGKT48R0GG105439           BOA VISTA6931348800000100058777   40,00RR
1160746948000112000100004045580000851          UNIVERSO CORRETORA DE SEGS LTD171120162111201621112016V         Novo (previa)                BONFIM FERREIRA DA SILVAOTI3524     93XHYKB8TFCE90159            REDENCAO6855028500000100169684   40,00PA
1160746948000112000100003810250000873          FERNANDES SILVA CORR DE SEGS L211120162111201621112016V                Outros       ANTONIO ERINALDO COELHO RODRIGUESQDD3154     8AJFY29GXF8587847              MARABA6850009000001020169825   40,00PA
1160746948000112000100004045690000841          BGSB CORRETORA DE SEGUROS LTDA211120162111201621112016V         Novo (previa)            ALTERNATIVA SERVICOS LTDA MEAVI0000     9BWAG45U6HP056410         PARAGOMINAS6862503000000100560171   40,00PA
1160746948000112000100003809380000837          S V / PHOENIX COR.DE SEGS.LTDA191120162111201621112016V         Novo (previa)         KELLY DA SILVA OLIVEIRA FREITASQBL8569     8AJFX29GXF6606959            ITAITUBA6818054000000100330221   40,00PA
1160746948000112000100004045680000850          BGSB CORRETORA DE SEGUROS LTDA191120162111201621112016V             Renovacao        ANTONIO DOUGLAS SILVA DOS SANTOSOFV6431     9BFYEALE6DBL22546        CAPITAO POCO6865000000000100560171   40,00PA
1160746948000112000100004042710000659          ZANONI CORRETORA DE SEGUROS LT161120161711201618112016V         Novo (previa)                  FABIO TAKEHIRO NISHIDAPHZ0609     3FA6P0D91FR106552              MANAUS6905704000001020334168   40,00AM
1160746948000112000100004042800000866          INOVE INSURANCE CORR DE SEGS L171120161811201618112016V                Outros                       C S C MELO EIRELINAU5288     9BD26512ZF9023130              MANAUS6905709000001020304250   40,00AM
1160746948000112000100004046690000849          ZONA FRANCA DAS AMERICAS-ASSES171120161811201618112016V             Renovacao               JULIENE DA SILVA LOPES MEPHK0579     94DBCAN17HB105694              MANAUS6908223000000100364789   40,00AM
1160746948000112000100004045540000851           BRADESCOR COR DE SEGUROS LTDA171120161811201618112016V         Novo (previa)              LEONIRA APARECIDA AMBROSIOQDE5075     9BWAB45Z2G4006548            REDENCAO6855305200000100058777   40,00PA
1160746948000112000100000359920000639          PF2G OLIVEIRA CORR SEGS EIRELI171120161811201618112016V                Outros            JOSE R P DA SILVA E CIA LTDAOFR6706     9BFVEADS2DBS13363    VILA DOS CABANOS6844700000001020314531   40,00PA
1160746948000112000100004046720000840              TAKEDA COR.DE SEGS.SC LTDA171120161811201618112016V             Renovacao                 UBINATAM GALVAO REZENDENOW7092     93XJRKB8TDCD81550              MANAUS6904947000000100338737   40,00AM
1160746948000112000100003911570000843           GALTER ADM E COR DE SEGS LTDA171120161811201618112016V         Novo (previa)                    RILDO PEREIRA LISBOAEFO9271     9BSR6X400C3813577               BELEM6611500000000100729230   40,00PA
1160746948000112000100003912180000850           ZUITH AQUINO COR DE SEGS LTDA171120161811201618112016V         Novo (previa)      ADRIANA SOUZA UCHOA DA SILVA CARMOOTW6277     9BFZD55P5FB821631               BELEM6661517000000100634450   40,00PA
1160746948000112000100004046730000840          KANDASEG ELMATEK COR.DE SEGS.L171120161811201618112016V      Reducao franquia               SERGIO DA SILVA CERQUEIRANOU3368     935CHN6AVBB509624              MANAUS6907682000000100416061   40,00AM
1160746948000112000100004046750000840          FROESPRESS CORRETORA DE SEGS L171120161811201618112016V         Novo (previa)SESP SERVICOS ESPECIALIZADOS EM SEG LTDAPHS1870     9BHBG51CAGP536492              MANAUS6905883700000100673331   40,00AM
1160746948000112000100003911480000850           BRADESCOR COR DE SEGUROS LTDA171120161811201618112016V         Novo (previa)               FRANCIMEIRE JOSUE CARDOSOPVT8569     9BFZH55L2F8227982          ANANINDEUA6703300000000100058777   40,00PA
1160746948000112000100004042740000849          ZONA FRANCA DAS AMERICAS-ASSES171120161811201618112016V             Renovacao       FREUD VANDEMBERG PAIVA DOS SANTOSOAE0801     9BGKF69B0FG163723              MANAUS6909000100000100364789   40,00AM
1160746948000112000100003904780000643              RIO BRANCO COR DE SEG LTDA161120161711201617112016V         Novo (previa)                    ITACIR JOAO FRANSOZIQDJ1079     8AJFY29G7F8570813              TUCUMA6838500000000400006912   40,00PA
1160746948000112000100003904770000841          AGIL CORRETORA DE SEGUROS LTDA161120161711201617112016V         Novo (previa)                     KESIA TEXEIRA TELESOTY2219     9BGKT69L0EG241778 OURILANDIA DO NORTE6839000000001020134835   40,00PA
1160746948000112000100004046600000840          A. A DA ROCHA CORRETORA DE SEG161120161711201617112016V      Reducao franquia             ANDRE LUIZ ALBUQUERQUE LIMANOZ2562     SALVA2BG1DH827918              MANAUS6904033000001020257171   40,00AM
1160746948000112000100004046610000849            J.C.NETO COR.E ADM.SEGS LTDA161120161711201617112016V         Novo (previa)             HELMICIO JOSE VITOR DA CRUZPHB0538     9BFZH55L6F8163462              MANAUS6901732700000100354945   40,00AM
1160746948000112000100004044600000849            J.C.NETO COR.E ADM.SEGS LTDA161120161711201617112016V             Renovacao            ANA JACKELINE BEZERRA MENDESOXD0856     9BD195152E0570831              MANAUS6909079900000100354945   40,00AM
1160746948000112000100004047570000849            J.C.NETO COR.E ADM.SEGS LTDA161120161711201617112016V         Novo (previa)                DIANA DIBA BARBOSA ANTONNPA5863     3FAKP4BK3BM236836              MANAUS6905311000000100354945   40,00AM
1160746948000112000100004046660000849          LESLEY ADM.COR.DE SEGS S/C LTD161120161711201617112016V         Novo (previa)         FERNANADO MAQUINE DO NASCIMENTOPHL8830     9BGKL48U0HB141010              MANAUS6904360000000100319252   40,00AM
1160746948000112000100004044640000849          G G MOURA CORRETORA DE SEGUROS161120161711201617112016V         Novo (previa)               ANA LUCIA DA SILVA SANTOSOAK0762     9BGKS48B0EG315542              MANAUS6903559300000100319783   40,00AM
1160746948000112000100004044680000849           ABG CORR DE SEGS DE VIDA LTDA161120161711201617112016V         Novo (previa)                     PAULO ALVES CORREIAPHA6969     JTMDD4EV1ED048981              MANAUS6906512000001020341458   40,00AM
1160746948000112000100004040850000840          GAD CORRETORA E ADM DE SEGS LT161120161711201617112016V         Novo (previa)                      G L HINTERHOLZ EPPNOI6540     9BM9584519B621559              MANAUS6904105500001020192436   40,00AM
1160746948000112000100004040870000840          GAD CORRETORA E ADM DE SEGS LT161120161711201617112016V         Novo (previa)                      G L HINTERHOLZ EPPPHQ2810     8AJFY22G6F8025566           BOA VISTA6931615800001020192436   40,00RR
1160746948000112000100003911690000850          FERTY CORRET,ADM DE SEGUROS LT171120161711201617112016V         Novo (previa)                          EDMISON PAIXAOOFQ5058     8AJFY29G2D8513898             TUCURUI6845905000000100689271   40,00PA
1160746948000112000100003911550000850          NIPPON HASEGAWA COR SG VIDA LT141120161711201617112016V                Outros                       POSTO PARANA LTDANSO7806     9AA21082GAC093867            ALTAMIRA6837000000000100504815   40,00PA
1160746948000112000100003911540000850          NIPPON HASEGAWA COR SG VIDA LT161120161711201617112016V         Novo (previa)                       POSTO PARANA LTDANSO9316     9AA21102GAC093866            ALTAMIRA6837000000000100504815   40,00PA
1160746948000112000100003903430000125          VOLVO COR.DE SEGS.ADM.E SERV.L091120161011201616112016V         Novo (previa)                  IRMAOS MARIANO LTDA MEQDP3979     9ADG0752FGM398446            XINGUARA6855503000000100410098   40,00PA
1160746948000112000100004038290000851          MARCORR COR E ADM DE SEGS LTDA111120161611201616112016V         Novo (previa)                  A.C LOPES DA SILVA EPPFDF2549     9BD27855MD7583115 SANTANA DO ARAGUAIA6856000000000100374130   40,00PA
1160746948000112000100004038310000851          MARCORR COR E ADM DE SEGS LTDA111120161611201616112016V         Novo (previa)                   ALTARIZ TEIXEIRA REISQEV5970     9BWDG45U2HT022968 SANTANA DO ARAGUAIA6856000000000100374130   40,00PA
1160746948000112000100000359900000850           ZUITH AQUINO COR DE SEGS LTDA141120161611201616112016V             Renovacao           VERA ISALTINA SOUSA RODRIGUESOLX7647     93YHSR6P5DJ415942    VILA DOS CABANOS6844700000000100634450   40,00PA
1160746948000112000100000359910000850           ZUITH AQUINO COR DE SEGS LTDA111120161611201616112016V         Novo (previa)           CICERO ROBERTO BRAGA DE SOUSAQDQ8889     9BD17144ZG7566211               BELEM6664507000000100634450   40,00PA
1160746948000112000100003911630000850          NIPPON HASEGAWA COR SG VIDA LT161120161611201616112016V         Novo (previa)                  SANDRA REGINA ODORICIOOTT8944     9BGPB68M0EB224195            ALTAMIRA6837000000000100504815   40,00PA
1160746948000112000100004044580000849          TAMUZ CORRETORA DE SEGUROS S/S141120161611201616112016V         Novo (previa)                     ROMULO RISSI MALINIOXM9907     8AJFY29GXF8572880              MANAUS6902011000000100580082   40,00AM
1160746948000112000100004040840000841          MRFLSGB 10 CORRETORA SEGUROS L141120161611201616112016V         Novo (previa)                  HOTEL COLONIAL LTDA MENAU6075     9536E8236FR520009           BOA VISTA6930107000000100667862   40,00RR
1160746948000112000100003911530000850          NIPPON HASEGAWA COR SG VIDA LT141120161611201616112016V         Novo (previa)                       POSTO PARANA LTDANSO7976     9BVAS02D6AE760737            ALTAMIRA6837000000000100504815   40,00PA
1160746948000112000100004042670000849            J.C.NETO COR.E ADM.SEGS LTDA141120161611201616112016V         Novo (previa)             CESAR HENRIQUE SANTOS SILVAOAK4712     9BD197163E3164854              MANAUS6905464000000100354945   40,00AM
1160746948000112000100004042650000840          GAD CORRETORA E ADM DE SEGS LT141120161611201616112016V         Novo (previa)                      G L HINTERHOLZ EPPJXL2376     9BVAN60D66E720646              MANAUS6904105500001020192436   40,00AM
1160746948000112000100003903900000835          GB4 COR E ADM DE SEGUROS LTDA-141120161611201616112016V         Novo (previa)              FLAVIO BERNARDINO DE SOUZAQEV4490     9BD57834UGB025086            XINGUARA6855509300001020240171   40,00PA
1160746948000112000100003904740000851           BRADESCOR COR DE SEGUROS LTDA141120161611201616112016V                Outros                  ELIANE GRIEGER BURATTIFVN5060     94DVDUD40FJ725409              TUCUMA6838500000000100058777   40,00PA
1160746948000112000100003904760000841             AX CORRETA COR DE SEGS LTDA141120161611201616112016V         Novo (previa)                  ELVIS MARTINS DA SILVAOFT4980     8AJFZ29G1C6152218 OURILANDIA DO NORTE6839000000001020004206   40,00PA
1160746948000112000100004047550000849          JAMF CORRETORA DE SEGUROS LTDA141120161611201616112016V         Novo (previa)      ALBERTO NASCIMENTO DE HOLANDA LIMAOAC6690     8AJFZ22G5B5015491              MANAUS6906513000000100409596   40,00AM
1160746948000112000100004046570000849            J.C.NETO COR.E ADM.SEGS LTDA141120161611201616112016V          Substituicao             MARIO CESAR AGUIAR DE SOUZAPHK2320     9BRBLWHE2H0087228              MANAUS6905875000000100354945   40,00AM
1160746948000112000100003903500000851          SN CORRETORA DE SEGUROS LTDA M161120161611201616112016V         Novo (previa)                BALTAZAR MATEUS DOS REISQEB2080     93XSNKB8TGCF17049            XINGUARA6855735500001020305419   40,00PA
1160746948000112000100004045500000849          CONSULCOR ADM CORT SEGS  IMOVE141120161611201616112016V         Novo (previa)          ROMULO TORQUATO BEZERRA BARROSJXY3111     93XJNKB8TDCC64835PRESIDENTE FIGUEIRED6973500000000100398250   40,00AM
1160746948000112000100003333330000001               PB COR.E ADM.DE SEGS.LTDA10102016015112016P         Novo (previa)                 MARCUS MARCOS DE MARCOSKKK0000     9BF13561382074477              MANAUS6903700000000100169617   27,00AM
1160746948000112000100004047340000849          MMA CORRETORA DE SEGUROS LTDA 091120161011201614112016V         Novo (previa)           MARIA PELEGLINA LUCAS FURTADOPHE2766     9BGKS48G0FG437709              MANAUS6905010000001020171420   40,00AM
1160746948000112000100004047470000849          JAMF CORRETORA DE SEGUROS LTDA101120161111201614112016V         Novo (previa)                UMBERTO THOMAS CALDERAROPHY0307     WBAKU2100G0N29494              MANAUS6905729000000100409596   40,00AM
1160746948000112000100004046480000849          G G MOURA CORRETORA DE SEGUROS111120161411201614112016V         Novo (previa)      RAINHA DO PESCADO DO AMAZONAS LTDAOXM9439     9bg148lp0ec458605              MANAUS6904301000000100319783   40,00AM
1160746948000112000100004038300000851          UNIVERSO CORRETORA DE SEGS LTD121120161411201614112016V         Novo (previa)                A O DA SILVA CIA LTDA MEQKM4550     8AJBA3CDXG1567941            REDENCAO6855000000000100169684   40,00PA
1160746948000112000100004046500000849          G G MOURA CORRETORA DE SEGUROS111120161411201614112016V         Novo (previa)                  JOAO BOSCO PINTO ROCHANOM3621     WDDGF3BW4EA914274              MANAUS6903700000000100319783   40,00AM
1160746948000112000100004044540000849          CONSULCOR ADM CORT SEGS  IMOVE121120161411201614112016V         Novo (previa)                      ALVARO LUIZ MENDESNOP2251     9BD578341E7800794PRESIDENTE FIGUEIRED6973500000000100398250   40,00AM
1160746948000112000100003904720000850          NIPPON HASEGAWA COR SG VIDA LT111120161411201614112016V         Novo (previa)                     RAFAEL BEZERRA LIMAOLN8653     9BWAA45U1FP505300              TUCUMA6838500000000100504815   40,00PA
1160746948000112000100004040710000849          S BORGES ALCANTARA COR.DE SEGS111120161411201614112016V         Novo (previa)                     JOSE AGUIAR MACHADONAO5256     8AJHA8CD1G2574472  SAO JOAO DA BALIZA6937500000000100577685   40,00RR
1160746948000112000100004042580000849            J.C.NETO COR.E ADM.SEGS LTDA121120161411201614112016V         Novo (previa)                  JOSE ENIZAM DE AZEVEDONON4142     9BGPB69M0CB231136              MANAUS6902811300000100354945   40,00AM
1160746948000112000100004046580000849          ROSAN E NUNES COR DE SEGS LTDA141120161411201614112016V         Novo (previa)                  ALMIR JUNIOR DE ARAUJOOAH1312     3FA6P0D93ER180098              MANAUS6905000100001020185669   40,00AM
1160746948000112000100003912130000850           BRADESCOR COR DE SEGUROS LTDA121120161411201614112016V         Novo (previa)                   LUCAS MAGALHAES GOMESQDJ0332     9BGKE48R0FG351797               BELEM6605500000000100058777   40,00PA
1160746948000112000100004047440000639          LC MARINHO ADM.E COR.SEGS.SC L101120161411201614112016V         Novo (previa)                  HERMES GLORIA DE MELLOPHK4801     9BG148TP0GC422173              MANAUS6906502000000100266922   40,00AM
1160746948000112000100004038280000851          MARCORR COR E ADM DE SEGS LTDA111120161411201614112016V      Reducao franquia              JOAO WELL LOURENCO TOFALISOFN9956     JMYXTGA2WCZA12373 SANTANA DO ARAGUAIA6856000000000100374130   40,00PA
1160746948000112000100004038270000851          MARCORR COR E ADM DE SEGS LTDA111120161411201614112016V         Novo (previa)                 RUFINO PEREIRA DA SILVAQDP5318     9BWAB45U4HT020270 SANTANA DO ARAGUAIA6856000000000100374130   40,00PA
1160746948000112000100003911460000975           HPE CORRETORA DE SEGUROS LTDA111120161411201614112016V         Novo (previa)                  ADRIANA MATOS DA COSTAOTR7274     93xfrh77wfce90034         SALINOPOLIS6872100000001020076053   40,00PA
1160746948000112000100003912010000835          INFINITI PRIME CORR.ADM.DE SEG111120161411201614112016V         Novo (previa)      ANTONIO FRANCISCO DE ARAUJO MORAESNSV2032     9BWAB41J8B4015277  CACHOEIRA DO PIRIA6861700000000100579793   40,00PA
1160746948000112000100000359890000628                BONFIM COR. DE SEGS LTDA121120161411201614112016V                Outros                      SAFE DEUS LTDA EPPOXT2769     9533E7232ER422221           TAILANDIA6869500000001020156049   40,00PA
1160746948000112000100000359870000850           ZUITH AQUINO COR DE SEGS LTDA121120161411201614112016V         Novo (previa)  PID AUTOMACAO COMERCIO E REPRESENTACAONSR1834     9BWAA05U1BP178674    VILA DOS CABANOS6844700000000100634450   40,00PA
1160746948000112000100000359880000850          FERTY CORRET,ADM DE SEGUROS LT121120161411201614112016V         Novo (previa)                       FLAVIO LIMA BRITOQDT1510     9BRBDWHE1F0247545           TAILANDIA6869500000000100689271   40,00PA
1160746948000112000100004045480000010            J.C.NETO COR.E ADM.SEGS LTDA121120161411201614112016P         Novo (previa)            AGUA PURA ASSESS E SERV LTDAOAK2010     MMBGRKH80BF002232              MANAUS6903700000000100354945   27,00AM
1160746948000112000100003910780000975           HPE CORRETORA DE SEGUROS LTDA111120161211201612112016V         Novo (previa)               PAULO TOME DE LIMA BRONZENSM9252     93XJNKB8TACA19931          ANANINDEUA6713060000001020076053   40,00PA
1160746948000112000100003910770000850           ZUITH AQUINO COR DE SEGS LTDA111120161211201612112016V         Novo (previa)               MECENAS PANTOJA GONCALVESOFJ1020     93XJRKH8WCCB03290               BELEM6605519000000100634450   40,00PA
1160746948000112000100003904710000851          UNIVERSO CORRETORA DE SEGS LTD111120161211201612112016V             Renovacao                JOSE NASCIMENTO DA SILVAQEN6570     9BG148MA0HC405880              TUCUMA6838500000000100169684   40,00PA
1160746948000112000100004045470000841          BGSB CORRETORA DE SEGUROS LTDA111120161211201612112016V         Novo (previa)           GRAZIELA TEIXEIRA DE OLIVIERANTC0813     JMYXTGA2WBZA01713         PARAGOMINAS6863076400000100560171   40,00PA
1160746948000112000100004042530000849          TAMUZ CORRETORA DE SEGUROS S/S111120161211201612112016V         Novo (previa)          FABIANO HENRIQUE DO NASCIMENTOPHC7633     93HFB9640FZ230229              MANAUS6909525500000100580082   40,00AM
1160746948000112000100004044440000849          TAMUZ CORRETORA DE SEGUROS S/S111120161211201612112016V         Novo (previa)         CARLOS ALBERTO SILVA DOS SANTOSPHM7007     9bgpn68n0fb222213              MANAUS6906517500000100580082   40,00AM
1160746948000112000100004044470000840          NB LEITE CORRETORA DE SEGS EPP111120161211201612112016V             Renovacao                   ELIEGE DE MELO SOARESOXM5579     9BWAB45ZXF4005114              MANAUS6902924000001020327749   40,00AM
1160746948000112000100003903480000851          SN CORRETORA DE SEGUROS LTDA M101120161111201611112016V                Outros                  ADHEMAR PEREIRA TORRESQEZ5120     WV1DB22H4GA049643            XINGUARA6855501100001020305419   40,00PA
1160746948000112000100003904690000841          CVK CORRETORA E ADM SEGUROS LT101120161111201611112016V             Renovacao                       DAVI LEAL SANTANAQDA0719     9BG148LP0EC457167              TUCUMA6838500000000100674702   40,00PA
1160746948000112000100004047450000849           BRADESCOR COR DE SEGUROS LTDA101120161111201611112016V         Novo (previa)                     RAPHAEL REIS SANTOSPHL4600     9BWAG45U9HP040122              MANAUS6905879800000100058777   40,00AM
1160746948000112000100004046380000849          CONSULCOR ADM CORT SEGS  IMOVE101120161111201611112016V             Renovacao         ANTONIO HENRIQUE FONSECA ROMEROPHK9821     9BFZB55P7G8563617              MANAUS6903700000000100398250   40,00AM
1160746948000112000100004046400000849          LESLEY ADM.COR.DE SEGS S/C LTD101120161111201611112016V         Novo (previa)                    AER RESTAURANTE LTDAPHY0150     9BRBDWHE3G0292584              MANAUS6905879500000100319252   40,00AM
1160746948000112000100004047410000849            J.C.NETO COR.E ADM.SEGS LTDA101120161111201611112016V         Novo (previa)                             JAIRA ACRISOAF2601     9BD197132F3195496              MANAUS6902827000000100354945   40,00AM
1160746948000112000100004047420000849          JAMF CORRETORA DE SEGUROS LTDA101120161111201611112016V             Renovacao                     INARA FROTA DE LIMAOAI2897     9BWAA05U4DP029775              MANAUS6909725700000100409596   40,00AM
1160746948000112000100004045440000838          CHAVES CAMPOS COR.E ADM.DE SEG101120161111201611112016V                Outros                FRANCISCO ALVES DE SOUSANYX1370     9BD27802MC7392337         ULIANOPOLIS6863200000000100363391   40,00PA
1160746948000112000100004046430000840              TAKEDA COR.DE SEGS.SC LTDA101120161111201611112016V         Novo (previa)      ANTONIO CARLOS FERREIRA DOS SANTOSPHA7077     93XHYKB8TFCE96910              MANAUS6905001000000100338737   40,00AM
1160746948000112000100004044390000849          LESLEY ADM.COR.DE SEGS S/C LTD101120161111201611112016V             Renovacao           ADAMASTOR RODRIGUES CELESTINOPHC9010     9BWJB45U9FP184099              MANAUS6906500000000100319252   40,00AM
1160746948000112000100004044400000840          LESLEY ADM.COR.DE SEGS S/C LTD101120161111201611112016V         Novo (previa)                LUZIENE SILVA DOS SANTOSPHH0728     9BWJB45U3GP040663              MANAUS6902162500000100319252   40,00AM
1160746948000112000100004044420000849          ROSAN E NUNES COR DE SEGS LTDA101120161111201611112016V         Novo (previa)      MARISTELA BARBOSA SILVEIRA E SILVAPHF0512     9BFZD55P2FB816063              MANAUS6905724000001020185669   40,00AM
1160746948000112000100004044430000849          LESLEY ADM.COR.DE SEGS S/C LTD101120161111201611112016V         Novo (previa)                   ROCHAEL DA SILVA LIMANON8982     8AJFY22G0D8003544              MANAUS6909776000000100319252   40,00AM
1160746948000112000100004042510000849          G G MOURA CORRETORA DE SEGUROS101120161111201611112016V         Novo (previa)             ANA RAFAELA GUIMARAES NEVESOAL4031     9BG148LP0EC459138              MANAUS6902814000000100319783   40,00AM
1160746948000112000100004046440000950          RIBEIRO&MENDONCA C SEGS LTDA M101120161111201611112016V      Reducao franquia               MAURICIO ALMONDES RIBEIRONOV0963     9BD15844AB6556566              MANAUS6905011000001020295766   40,00AM
1160746948000112000100004046460000969          BIDU CORR DE SEGS E SERV DE IN101120161111201611112016V         Novo (previa)               LEANDRO COSTA DE OLIVEIRAOAC5532     9BWAA45U3EP094836              MANAUS6903300000000100227943   40,00AM
1160746948000112000100003903420000251          VOLVO COR.DE SEGS.ADM.E SERV.L091120161011201610112016V             Renovacao                  IRMAOS MARIANO LTDA MEQDK3978     9BVRG40D8GE832054            XINGUARA6855503000000100410098   40,00PA
1160746948000112000100003903450000851          SN CORRETORA DE SEGUROS LTDA M091120161011201610112016V         Novo (previa)                 ANTONIO MARCOS DA COSTAOMS2830     8AJFY29G1D8529235            XINGUARA6855509500001020305419   40,00PA
1160746948000112000100003903460000837          PERSONAE TREIN CON ASS COR SEG091120161011201610112016V             Renovacao            SEPCO1 CONSTRUCOES DO BRASILOAZ6069     WV1DD42H6DA055977            SAPUCAIA6854800000000100471348   40,00PA
1160746948000112000100004047300000849          SUANAM ADM DE CONS E COR DE SE091120161011201610112016V             Renovacao               RAIMUNDA MARINHO BELEM MEPHG9430     9BWAG4120GT506885              MANAUS6906501100000100691992   40,00AM
1160746948000112000100004047320000849          G G MOURA CORRETORA DE SEGUROS091120161011201610112016V         Novo (previa)         JUNIO ALBERT DA SILVA OLIVIEIRAPHG8430     9BD57834UGB036223              MANAUS6907781500000100319783   40,00AM
1160746948000112000100004047330000840          SUANAM ADM DE CONS E COR DE SE091120161011201610112016V         Novo (previa)                      JUCY NUNES DE SENAOAM4217     9BGRP48F0DG153675              MANAUS6907780800000100691992   40,00AM
1160746948000112000100004047350000849          TAMUZ CORRETORA DE SEGUROS S/S091120161011201610112016V             Renovacao               JAILTON GOMES DE OLIVEIRAPHI0613     93XSNKB8TGCF18626              MANAUS6904070000000100580082   40,00AM
1160746948000112000100004047370000979           ARRUDA & NASCIMENTO CORRETORA091120161011201610112016V         Novo (previa)                    RAFAEL LOPES BRANDAOPHE0114     9BG148LA0FC421328              MANAUS6902531000000100596931   40,00AM
1160746948000112000100003911330000967          APOLIX CORRETORA DE SEGUROS LT091120161011201610112016V         Novo (previa)                 CARLOS LERNER GONCALVESJWC1414     1J8HC58N08Y114240           BENEVIDES6879500000000100611832   40,00PA
1160746948000112000100004042370000840          FROESPRESS CORRETORA DE SEGS L091120161011201610112016V             Renovacao        EDNELZA ALENCAR ARRUDA DASSUNCAONON7326     KANKG812AA7719175              MANAUS6905804000000100673331   40,00AM
1160746948000112000100003911420000850          NIPPON HASEGAWA COR SG VIDA LT091120161011201610112016V         Novo (previa)             POLLYANA ANDRADE DOS SANTOSOTO2245     93XXNKB8TFCE91028               ANAPU6836500000000100504815   40,00PA
1160746948000112000100003711410000841          ROBERTO L B S CORR DE SEG LTDA091120161011201610112016V             Renovacao             INSTITUTO FLORESTA TROPICALJVY4233     93XPNK7408C844954            SANTAREM6803511000000100409197   40,00PA
1160746948000112000100000359850000850           ZUITH AQUINO COR DE SEGS LTDA091120161011201610112016V         Novo (previa)               SAMARA DE OLIVEIRA VILACAQDS6958     9BFZH55L5H8378396    VILA DOS CABANOS6844700000000100634450   40,00PA
1160746948000112000100003911370000853             PROSEG ADM COR SRGS LTDA ME091120161011201610112016V         Novo (previa)                  MARCILIO CALVO DE LIMAQDN2349     9BWAA45U4GP041369               BELEM6664017500000100110523   40,00PA
1160746948000112000100004042430000849          ZONA FRANCA DAS AMERICAS-ASSES091120161011201610112016V         Novo (previa)       ALUMINAM FABRICACAO DE ESQUADRIASMGF8367     9BSG6X400A3650949              MANAUS6903051000000100364789   40,00AM
1160746948000112000100003911430000850          NIPPON HASEGAWA COR SG VIDA LT091120161011201610112016V         Novo (previa)            POLLYANA ANADRADE DOS SANTOSOTR6053     93XXNKB8TECE86823               ANAPU6836500000000100504815   40,00PA
1160746948000112000100004045270000847          VALE CORRETORA DE SEGUROS EIRE051120160911201609112016V         Novo (previa)           PANIFICADORA CAPIXABA LTDA MEOSZ8018     9BD373175E5044167         PARAGOMINAS6862507000001020308230   40,00PA
1160746948000112000100004042300000849            J.C.NETO COR.E ADM.SEGS LTDA081120160911201609112016V         Novo (previa)                 RAIMUNDO TELES DA SILVANDJ7908     9BGSU19F0BB157191              MANAUS6904819100000100354945   40,00AM
1160746948000112000100004042310000849          ROSAN E NUNES COR DE SEGS LTDA081120160911201609112016V         Novo (previa)                   JONAS FRANCA DE PAULAOAO8000     KNAKU811BC5208963              MANAUS6905806000001020185669   40,00AM
1160746948000112000100004042320000840          TAHITI CORRETORA DE SEG LTDA M081120160911201609112016V         Novo (previa)              FANNE DE AQUINO DE ALMEIDANOS5097     KNAKU811BB5084588              MANAUS6909845500000100640638   40,00AM
1160746948000112000100004042340000849          LESLEY ADM.COR.DE SEGS S/C LTD081120160911201609112016V             Renovacao           RODIONE DAS GRACAS P SILVA MEPHW1782     93HFB9640GZ235126              MANAUS6904315000000100319252   40,00AM
1160746948000112000100004044300000849           BRADESCOR COR DE SEGUROS LTDA081120160911201609112016V         Novo (previa)      RAIMUNDO MARQUES DOS SANTOS JUNIORPHC9677     93Y5SRD6DFJ852501              MANAUS6906000000000100058777   40,00AM
1160746948000112000100004046270000849          ROSAN E NUNES COR DE SEGS LTDA081120160911201609112016V         Novo (previa)                CICERO DE SOUSA FERREIRAPHH9329     9BHBG51CAFP510504              MANAUS6902821000001020185669   40,00AM
1160746948000112000100004042330000840          ABBA CORRETORA DE SEGUROS LTDA081120160911201609112016V         Novo (previa)           ANTONIO CLEUDER LIMA DA SILVAPHK9020     8AFAR23L3HJ421480              MANAUS6905502100000100706990   40,00AM
1160746948000112000100004044280000849          TATIANE DA S S CORR DE SEG EPP081120160911201609112016V         Novo (previa)          VIVIANE PEREIRA DE VASCONCELOSOAB6239     9BWDB05U5CT089225              MANAUS6900514000001020330553   40,00AM
1160746948000112000100003903410000851          MARCORR COR E ADM DE SEGS LTDA081120160911201609112016V         Novo (previa)                    ROSA BORGES FERREIRAOKI2192     9BG148FH0DC417248            XINGUARA6855501100000100374130   40,00PA
1160746948000112000100003904650000841          AGIL CORRETORA DE SEGUROS LTDA081120160911201609112016V         Novo (previa)           EBIA REGINA MENDANHA DA COSTAQEA3190     9BRK29BT8G0070802              TUCUMA6838500000001020134835   40,00PA
1160746948000112000100003904640000842          VIP CENTER ADM. E CORR. SEGURO081120160911201609112016V         Novo (previa)                      KENYA FALCAO GOMESPQB6230     93Y5SRD6GGJ962577 OURILANDIA DO NORTE6839000000000100672238   40,00PA
1160746948000112000100004045300000838          CHAVES CAMPOS COR.E ADM.DE SEG071120160811201608112016V         Novo (previa)                FRANCISCO ALVES DE SOUSANYX1370     9BD27802MC7392337         ULIANOPOLIS6863200000000100363391   40,00PA
1160746948000112000100004045320000841          CVK CORRETORA E ADM SEGUROS LT071120160811201608112016V             Renovacao                OSMAR DOS SANTOS MARTINSOFV4160     9BG148FH0DC412679  SAO FELIX DO XINGU6838000000000100674702   40,00PA
1160746948000112000100003809350000837          S V / PHOENIX COR.DE SEGS.LTDA071120160811201608112016V                Outros         KELLY DA SILVA OLIVEIRA FREITASQBL8569     8AJFX29GXF6606959            ITAITUBA6818054000000100330221   40,00PA
1160746948000112000100004045350000847          VALE CORRETORA DE SEGUROS EIRE081120160811201608112016V         Novo (previa)                       ROBSON JOSE CONTIOTU9332     8AJFY29G8D8530964         PARAGOMINAS6862816000001020308230   40,00PA
1160746948000112000100003800980000962          SILVA E SALOMAO COR.DE SEGS.LT071120160811201608112016V         Novo (previa)                ARIANE BORGES DOS SANTOSDTB2898     9BW9J8248GR632600         PARAUAPEBAS6851500000000100575593   40,00PA
1160746948000112000100003800970000624          VEGA MINAS ADM.E CORR.SEGS.LTD041120160811201608112016V                Outros              TRANSPORTADORA BRETAS LTDAQDO8819     9BG148PK0GC405533         PARAUAPEBAS6851500000000100223531   40,00PA
1160746948000112000100004044200000849            J.C.NETO COR.E ADM.SEGS LTDA071120160811201608112016V         Novo (previa)     FABIO ALESSANDRO DE ARAUJO ANTONAIONOZ0707     9BRBB42E7B5145537              MANAUS6909201500000100354945   40,00AM
1160746948000112000100004044230000933             NN ADM.E COR. DE SEGS LTDA.071120160811201608112016V         Novo (previa)            ANTONIO AUGUSTO DUARTE PENHANOV0771     WV1DB42H2EA001888              MANAUS6908306000000100134350   40,00AM
1160746948000112000100004046200000849          ROSAN E NUNES COR DE SEGS LTDA071120160811201608112016V         Novo (previa)                     MOISES COSTA SANTOSPHF2327     9BD11940SF1129795          ITAPIRANGA6912000000001020185669   40,00AM
1160746948000112000100004047220000840          FROESPRESS CORRETORA DE SEGS L071120160811201608112016V             Renovacao                      MOSS QUATRO M LTDAPHH1959     9BD19716TG3276880              MANAUS6908830100000100673331   40,00AM
1160746948000112000100003904620000841          MARCORR COR E ADM DE SEGS LTDA071120160811201608112016V         Novo (previa)               ELISEU BATISTA CAVALCANTEOSW5955     9BWAB41JXE4000672 OURILANDIA DO NORTE6839000000000100374130   40,00PA
1160746948000112000100003904610000851           BRADESCOR COR DE SEGUROS LTDA071120160811201608112016V         Novo (previa)         EDMUNDO PIRES DE CARVALHO FILHOOGU7493     9BWAB45Z6D4050340  SAO FELIX DO XINGU6838000000000100058777   40,00PA
1160746948000112000100003810130000847          ITACAIUNAS ADM E CORR DE SEGS 081120160811201608112016V         Novo (previa)       LOTARIO HACHENHAAR E CIA LTDA EPPIPF6054     9BFYCAWYX9BB21285              MARABA6850125000000100243604   40,00PA
1160746948000112000100004045360000642          ELIVALE CORRETORA SEGS.S/C LTD081120160811201608112016V         Novo (previa)GENESIS ASSESSORIA PLANEJAMENTO E TREINAAZC1727     9BGCA80X0DB353910         PARAGOMINAS6862513000000100339679   40,00PA
1160746948000112000100003810070000841          MERCOSUL ADM COR DE SEG SC LTD031120160411201607112016V         Novo (previa)             EURIDIANNE DOS SANTOS SOUSAOTR4946     98G148EK0EC456787              MARABA6851303000000100165824   40,00PA
1160746948000112000100004046020000849            J.C.NETO COR.E ADM.SEGS LTDA031120160411201607112016V         Novo (previa)                    MUSSA MOHAMED HEMOUDOXM8289     9BHBG51DBFP326513              MANAUS6903679000000100354945   40,00AM
1160746948000112000100004045260000558           BRADESCOR COR DE SEGUROS LTDA051120160711201607112016P         Novo (previa)                ROMULO DE OLIVEIRA SILVAOXM1769     9BGKS48L0FG192518              MANAUS6903700000000100058777   27,00AM
1160746948000112000100004042200000870          TAVARES E MELO CORR DE SEGS LD041120160711201607112016V         Novo (previa)               TARCIO CAVALCANTI MACHADOPHH7487     WV1DB42H7GA003493              MANAUS6905705000001020276966   40,00AM
1160746948000112000100004042210000849          A R MENEZES JUNIOR COR DE SEGS041120160711201607112016V         Novo (previa)                 CINTHYA NOGUEIRA FRANCAOXM6203     9BGKS48L0FG272637              MANAUS6909054200000100116670   40,00AM
1160746948000112000100004046190000849          G G MOURA CORRETORA DE SEGUROS051120160711201607112016V                Outros         ANDRE LUIS DOS SANTOS GONCALVESPHA7834     9BHBG51CAFP322312              MANAUS6905370000000100319783   40,00AM
1160746948000112000100004047180000849           ABG CORR DE SEGS DE VIDA LTDA051120160711201607112016V         Novo (previa)                ANTONIO CRISPIM DA COSTAPHA5312     9BG148MK0EC468448              MANAUS6908848000001020341458   40,00AM
1160746948000112000100004047160000849          JAMF CORRETORA DE SEGUROS LTDA051120160711201607112016V         Novo (previa)                              JILSON ONOOAI2282     JMYLYV98WEJA00821              MANAUS6909700000000100409596   40,00AM
1160746948000112000100003911070000841          COHEN CORRET DE SGRS EIRELI ME051120160711201607112016V         Novo (previa)     JOAO PAULO ESTEVES DE OLIVEIRA MELOOTG0027     KNAGN412BE5427167               BELEM6609563200001020124228   40,00PA
1160746948000112000100004038260000849          ZONA FRANCA DAS AMERICAS-ASSES041120160711201607112016V         Novo (previa)      RSG COM ATAC DE ALIM EORG LOG LTDAJXY0871     9BGRP48F0DG198402              MANAUS6909723500000100364789   40,00AM
1160746948000112000100003901480000850             AZUNAV CORR DE SEGUROS LTDA051120160711201607112016V         Novo (previa)            MARCIO DE AZEVEDO MARTINS MENEO6642     9BWAA45U7FP518150              MACAPA6890011500000100611611   40,00AP
1160746948000112000100003901500000850           BRADESCOR COR DE SEGUROS LTDA071120160711201607112016V         Novo (previa)                 RAFAELA DA COSTA NUNES NEV5558     8AWAB05ZXBA002284              MACAPA6890004000000100058777   40,00AP
1160746948000112000100004040320000849           BRADESCOR COR DE SEGUROS LTDA041120160511201605112016V                Outros            REBECCA CRISTINA VAZ LUSTOSANUI4808     9BRK29BT5G0072670           BOA VISTA6930910500000100058777   40,00RR
1160746948000112000100004046130000849            J.C.NETO COR.E ADM.SEGS LTDA041120160511201605112016V             Renovacao      VALE DO RIO VERDE CONSTRUCOES LTDAPHE0929     9BHBG51CAFP476141              MANAUS6905001000000100354945   40,00AM
1160746948000112000100004046170000849          ZONA FRANCA DAS AMERICAS-ASSES041120160511201605112016V                Outros      RSG COM ATAC DE ALIM EORG LOG LTDANPA1674     9BD196283D2142463              MANAUS6909723500000100364789   40,00AM
1160746948000112000100004046160000933          FERREGUTTI SOUZA & VISCARDI CO041120160511201605112016V             Renovacao      AMARILES HELENA DE ARRUDA SALDANHAOAY5983     3n1dk3cd0dl212436              MANAUS6905508000000100546828   40,00AM
1160746948000112000100000359840000850           ZUITH AQUINO COR DE SEGS LTDA011120160311201604112016V         Novo (previa)  PID AUTOMACAO COMERCIO E REPRESENTACAONSR1834     9BWAA05U1BP178674    VILA DOS CABANOS6844700000000100634450   40,00PA
1160746948000112000100004044050000010          MMA CORRETORA DE SEGUROS LTDA 011120160311201604112016V         Novo (previa)   COUTO SERV TRANSP E LOC VEICULOS LTDAPHH0864     WV1DB42H9GA028346              MANAUS6905879000001020171420   40,00AM
1160746948000112000100004044060000010          MMA CORRETORA DE SEGUROS LTDA 011120160311201604112016V         Novo (previa)   COUTO SERV TRANSP E LOC VEICULOS LTDAPHG5854     WV1DB42HXGA028775              MANAUS6905879000001020171420   40,00AM
1160746948000112000100004044070000849          MMA CORRETORA DE SEGUROS LTDA 011120160311201604112016V         Novo (previa)   COUTO SERV TRANSP E LOC VEICULOS LTDAPHH1114     wv1db42h1ga030043              MANAUS6905879000001020171420   40,00AM
1160746948000112000100004044080000849          MMA CORRETORA DE SEGUROS LTDA 011120160311201604112016V         Novo (previa)   COUTO SERV TRANSP E LOC VEICULOS LTDAPHH1144     WV1DB42H0GA026470              MANAUS6905879000001020171420   40,00AM
1160746948000112000100004044090000849          MMA CORRETORA DE SEGUROS LTDA 011120160311201604112016V         Novo (previa)   COUTO SERV TRANSP E LOC VEICULOS LTDAPHG6004     wv1db42h7ga028023              MANAUS6905879000001020171420   40,00AM
1160746948000112000100004038250000849          G G MOURA CORRETORA DE SEGUROS011120160411201604112016V         Novo (previa)AGUAS CLARAS SERV E TRANSO MARITIMO LTDAOAK1162     9BWDA45U5ET196112              MANAUS6903002000000100319783   40,00AM
1160746948000112000100004038240000840          FROESPRESS CORRETORA DE SEGS L011120160411201604112016V         Novo (previa)                      ODNEIA LOPES SILVAJXV1352     8AJFY29G1E8547915              MANAUS6904312500000100673331   40,00AM
1160746948000112000100004047050000849            J.C.NETO COR.E ADM.SEGS LTDA031120160411201604112016V         Novo (previa)                  REJANE DE CASTRO SILVAOXM2687     9BFZH55LXF8139732              MANAUS6907476200000100354945   40,00AM
1160746948000112000100004046070000849          ATUANTE CENTER COR.DE SEGS.E G031120160411201604112016V         Novo (previa)                 RAPHAEL RIBEIRO MALCHERNOV8565     9BGCA80X0BB298758              MANAUS6905875500000100198528   40,00AM
1160746948000112000100004046090000849          ROSAN E NUNES COR DE SEGS LTDA031120160411201604112016V         Novo (previa)                 ROSA MARIA FERREIRA EPPNPA1041     9BD119707E1118572              MANAUS6907648000001020185669   40,00AM
1160746948000112000100003904550000836          MACHADO E MARQUES ADMR E CORRE011120160411201604112016V             Renovacao               VALDELY PEDRO CONSTANTINOOGI3100     WV1DB42H6CA009604              TUCUMA6838500000000100661406   40,00PA
1160746948000112000100003904560000851          UNIVERSO CORRETORA DE SEGS LTD031120160411201604112016V          Substituicao                     IDELVAN LOPES PIRESQDH2720     8AJFY29G7F8576000 OURILANDIA DO NORTE6839000000000100169684   40,00PA
1160746948000112000100003904530000851          UNIVERSO CORRETORA DE SEGS LTD031120160411201604112016V         Novo (previa)                ALESSANDRO JOSE DA CUNHAQEX1370     9BG148MA0HC415676              TUCUMA6838500000000100169684   40,00PA
1160746948000112000100004042140000849          ZONA FRANCA DAS AMERICAS-ASSES031120160411201604112016V                Outros      RSG COM ATAC DE ALIM EORG LOG LTDAJXX5731     9BGRP48F0DG197752              MANAUS6909723500000100364789   40,00AM
1160746948000112000100004042150000849          ZONA FRANCA DAS AMERICAS-ASSES031120160411201604112016V                Outros      RSG COM ATAC DE ALIM EORG LOG LTDAJXX5741     9BGRP48F0DG197461              MANAUS6909723500000100364789   40,00AM
1160746948000112000100004042160000849          ZONA FRANCA DAS AMERICAS-ASSES031120160411201604112016V                Outros      RSG COM ATAC DE ALIM EORG LOG LTDAJXX5751     9BGRP48F0DG197712              MANAUS6909723500000100364789   40,00AM
1160746948000112000100004042130000840           AMAZON DELTA COR.DE SEGS.LTDA031120160411201604112016V         Novo (previa)                      JULIA FERREIRA DIBOAG2081     9BRBD3HE6F0220937              MANAUS6902821300000100575984   40,00AM
1160746948000112000100004042120000849          JAMF CORRETORA DE SEGUROS LTDA031120160411201604112016V             Renovacao                   ELIANA SOUZA DA SILVAPHH8388     9BFZH55L5F8285794              MANAUS6905465000000100409596   40,00AM
1160746948000112000100004045240000847          MAKARIOS CORRETORA DE SEGUROS 031120160411201604112016V             Renovacao               FRANCISCO ANTONIO M GOMESNHK4480     9BGSA19908B250570            CAPANEMA6870160300001020327714   40,00PA
1160746948000112000100004047100000849          CONSULCOR ADM CORT SEGS  IMOVE031120160411201604112016V         Novo (previa)                 BRUNO DE AMORIM RIBEIROOXM4848     9BWAA45U0FP092950              MANAUS6909776000000100398250   40,00AM
1160746948000112000100004044180000975           HPE CORRETORA DE SEGUROS LTDA031120160411201604112016V         Novo (previa)      GUALTER FERREIRA DE ANDRADE JUNIOROFV8281     9BWAB45U4DT199873              MANAUS6908223000001020076053   40,00AM
1160746948000112000100004046110000849          CONSULCOR ADM CORT SEGS  IMOVE041120160411201604112016V         Novo (previa)                    EDIR GONCALVES GOMESNPB6435     3HGRM1830CG500582              MANAUS6905502100000100398250   40,00AM
1160746948000112000100003911010000617          THARDIEU CONS COR DE SEG LTDA 031120160411201604112016V         Novo (previa)     T MAIA COMERCIO DE MADEIRAS LTDA MEOWD7909     9BM934251CR659911           BENEVIDES6879500000000100604178   40,00PA
1160746948000112000100003911020000617          THARDIEU CONS COR DE SEG LTDA 031120160411201604112016V         Novo (previa)     T MAIA COMERCIO DE MADEIRAS LTDA MENSS9496     9ADG1243ABM314945           BENEVIDES6879500000000100604178   40,00PA
1160746948000112000100004046120000849            J.C.NETO COR.E ADM.SEGS LTDA041120160411201604112016V          Substituicao                   RODRIGO EZAGUI BARROSPHV2400     TRUAFBFV4F1014963              MANAUS6909414000000100354945   40,00AM
1160746948000112000100003904590000838       S?O BENTO TO COR E ADM DE S041120160411201604112016V             Renovacao            KARLOS EDUARDO DO NASCIMENTONEO9261     8AJFY22G8E8016186              TUCUMA6838500000000100727334   40,00PA
1160746948000112000100004038830000849          ZONA FRANCA DAS AMERICAS-ASSES281020163110201603112016V                Outros          SONIA MARIA FIGUEIRDO DE BRITOPHB4657     9BD195A62F0647084              MANAUS6905702000000100364789   40,00AM
1160746948000112000100003910980000841          PARAMAZON CORRETORA DE SEGUROS271020163110201603112016V                OutrosALTERRA TRANSP E SERV DE TERRAPLANAG LTDQDM0888     8AJFY29GXF8589825        QUATRO BOCAS6868200000000100691747   40,00PA
1160746948000112000100039014200000850             AZUNAV CORR DE SEGUROS LTDA291020160311201603112016V         Novo (previa)     PONTO NORTE COMERC TRANS E LOG LTDANES3123     9bd265122f9023399              MACAPA6890030100000100611611   40,00AP
1160746948000112000100004045220000851          UNIVERSO CORRETORA DE SEGS LTD311020160311201603112016V         Novo (previa)              HELVES BELMIRO DA SILVEIRAPQA6750     93XXNKB8TGCF12383CONCEICAO DO ARAGUAI6854000000000100169684   40,00PA
1160746948000112000100004038990000849          ROSAN E NUNES COR DE SEGS LTDA011120160311201603112016V         Novo (previa)                      E DA SILVA BETECELNOM2451     9bwda45u6et178251              MANAUS6909720700001020185669   40,00AM
1160746948000112000100004047010000849            J.C.NETO COR.E ADM.SEGS LTDA011120160311201603112016V         Novo (previa)                             JUNKO NISHIOAL4178     8AGCN48X0DR113184              MANAUS6906858000000100354945   40,00AM
1160746948000112000100003903290000835          GB4 COR E ADM DE SEGUROS LTDA-291020160311201603112016V         Novo (previa)              FLAVIO BERNARDINO DE SOUZAQEV4490     9BD57834UGB025086            XINGUARA6855509300001020240171   40,00PA
1160746948000112000100003810090000643              RIO BRANCO COR DE SEG LTDA031120160311201603112016V         Novo (previa)                   RENIA MOTA BRANQUINHOOTJ6255     8AGCN48X0DR219619              MARABA6850007000000400006912   40,00PA
1160746948000112000100004042070000849            J.C.NETO COR.E ADM.SEGS LTDA011120160311201603112016V         Novo (previa)                 RAIMUNDO TELES DA SILVANDJ7908     9BGSU19F0BB157191              MANAUS6904819100000100354945   40,00AM
1160746948000112000100003903300000851          MARCORR COR E ADM DE SEGS LTDA291020160311201603112016V         Novo (previa)                       ROBSON RAMOS DIASOTT1970     9BD195162D0401403            XINGUARA6855501100000100374130   40,00PA
1160746948000112000100004042090000849          LESLEY ADM.COR.DE SEGS S/C LTD011120160311201603112016V         Novo (previa)        MARIA ELISSAMIA QUADROS DA SILVAOAO0249     9BGRP48F0DG143454              MANAUS6901868400000100319252   40,00AM
1160746948000112000100003901440000850             AZUNAV CORR DE SEGUROS LTDA311020160311201603112016V         Novo (previa)              FRANCISCO JOSE CORREA REGOQDG9182     8AJYY59G8F6530231             SANTANA6892500000000100611611   40,00AP
1160746948000112000100004045230000851          MARCORR COR E ADM DE SEGS LTDA011120160311201603112016V         Novo (previa)       DIEOCESE DE CONCEICAO DO ARAGUAIAQDJ7436     9BWAA45U4GP004614 SANTANA DO ARAGUAIA6856000000000100374130   40,00PA
1160746948000112000100003911170000850           BRADESCOR COR DE SEGUROS LTDA011120160311201603112016V         Novo (previa)                 CAMILLA DA SILVA RAFAELOTV7608     9BHBG51CAFP319534               BELEM6602371000000100058777   40,00PA
1160746948000112000100004044100000849          ROSAN E NUNES COR DE SEGS LTDA011120160311201603112016V         Novo (previa)                  LIDIANE BARRONCAS GAMAOAE2378     knaku811bc5206043              MANAUS6903700000001020185669   40,00AM
1160746948000112000100004044120000849            J.C.NETO COR.E ADM.SEGS LTDA011120160311201603112016V         Novo (previa)              ADRIANO PIMENTEL ALVARENGAOAD5782     9BG148LP0EC411900              MANAUS6908910300000100354945   40,00AM
1160746948000112000100004044140000849          G G MOURA CORRETORA DE SEGUROS011120160311201603112016V         Novo (previa)                JONAS VASCONCELOS LASMAROAI1936     8AJFY29G2C8503290              MANAUS6903672000000100319783   40,00AM
1160746948000112000100003911160000850          DAROCHA CORRETORA DE SEGUROS L011120160311201603112016V         Novo (previa)            CARLA EUVIRA ARAUJO DA SILVAOTW6197     9BWAG4123GT505505               BELEM6667033000001020163851   40,00PA
1160746948000112000100004039960000840          FROESPRESS CORRETORA DE SEGS L011120160311201603112016V         Novo (previa)               HELEN PATRICIA CAVALCANTEPHZ0360     9BWAG4128FT568789              MANAUS6909321000000100673331   40,00AM
1160746948000112000100004042020000849          G G MOURA CORRETORA DE SEGUROS311020160111201601112016V         Novo (previa)                   INACIO MARIA DE ABREUPHH1829     9bd19627mg2270797              MANAUS6903020000000100319783   40,00AM
1160746948000112000100004038200000849            J.C.NETO COR.E ADM.SEGS LTDA311020160111201601112016V         Novo (previa)              RAIMUNDO MARQUES DE CASTROPHH7822     93HFB9640GZ229259              MANAUS6909753000000100354945   40,00AM
1160746948000112000100004042010000849          LESLEY ADM.COR.DE SEGS S/C LTD311020160111201601112016V             Renovacao                    AER RESTAURANTE LTDAPHY0150     9BRBDWHE3G0292584              MANAUS6905879500000100319252   40,00AM
1160746948000112000100004044010000849          ROSAN E NUNES COR DE SEGS LTDA311020160111201601112016V             Renovacao                   MARCOS SAMIAS DE MELOPHC3744     9BFZH55L5F8201683              MANAUS6901707000001020185669   40,00AM
1160746948000112000100004036000000849          LESLEY ADM.COR.DE SEGS S/C LTD311020160111201601112016V             Renovacao                      INALDO SEIXAS CRUZPHE1080     9BFZD55P8GB832897              MANAUS6906801000000100319252   40,00AM
1160746948000112000100004039900000849          JAMF CORRETORA DE SEGUROS LTDA311020160111201601112016V         Novo (previa)                 EDSON LUIZ BARROS MUNIZNOO1151     8AGCN48X0ER140046              MANAUS6905472900000100409596   40,00AM
1160746948000112000100004039910000849            J.C.NETO COR.E ADM.SEGS LTDA311020160111201601112016V         Novo (previa)                   MICAEL DIEGO DE SOUZAOAK3626     93YHSR6P5DJ347907              MANAUS6904565000000100354945   40,00AM
1160746948000112000100004039930000840          DIAFANO ASS ADM E CORR SEGS LT311020160111201601112016V         Novo (previa)     DINA CELLY DO VALLE PEREIRA FORMIGAOAH8377     3C4PFABB4CT286198              MANAUS6905502100000100437123   40,00AM
1160746948000112000100004038930000840          KANDASEG ELMATEK COR.DE SEGS.L311020160111201601112016V         Novo (previa)             LEIA DE ALMEIDA LIRA BOMFIMNOV6582     93HGE6750EZ114733              MANAUS6906002000000100416061   40,00AM
1160746948000112000100004044020000849          MMA CORRETORA DE SEGUROS LTDA 311020160111201601112016V          Substituicao                ALESSANDRA SILVA MACHADOPHA2464     9BWAA45U4FP517926              MANAUS6902302200001020171420   40,00AM
1160746948000112000100004038910000849          CONSULCOR ADM CORT SEGS  IMOVE311020160111201601112016V         Novo (previa)               SANDRO GARABED ISCHKANIANJXH2894     9BWGF07X67P010443              MANAUS6902940000000100398250   40,00AM
1160746948000112000100004038230000862          BEM VISTA CONSULT E COR DE SEG311020160111201601112016V             Renovacao             ARISVALDO SOUZA DE OLIVEIRAPHJ4860     9BG148MK0HC421040              MANAUS6904300000000100617792   40,00AM
1160746948000112000100003904440000841          MARCORR COR E ADM DE SEGS LTDA271020160111201601112016V         Novo (previa)                 ANTONIO VALQUIMAR COSTAQDX0149     9BGKE48R0GG116964              TUCUMA6838500000000100374130   40,00PA
