0660746948000112000100004601970000001           BRADESCOR COR DE SEGUROS LTDA070620170806201708062017P         Novo (previa)                   AMAURY VIEIRA MARINHOPHA4238     3GNCJ8EW4EL223536              MANAUS6903700000000100058777   27,00AM
0660746948000112000100004635040000001           BRADESCOR COR DE SEGUROS LTDA190620172006201720062017P         Novo (previa)                   THIAGO ALMEIDA STEVANPHF2930     8AGSU1920GR105351              MANAUS6903700000000100058777   27,00AM
0660746948000112000100004635070000969          MINUTO CORRETORA DE SEGUROS S 200620172106201721062017P          Substituicao                LUCIANO FREITAS DA SILVANPA1880     9bfzk53a4ab176239              MANAUS6903700000000100230758   27,00AM
0660746948000112000100004306000000628          FELICISSIMO CORRETORA DE SEG L300620173006201730062017V         Novo (previa)                          ROMULLO AMARALQDI9651     9BG148MA0FC416950  SAO FELIX DO XINGU6838000000000100725935   43,50PA
0660746948000112000100004305000000835          MELHOR OPCAO ADM E CORRR DE SE230620172306201723062017V         Novo (previa)           JANILTON JOSE BUENO FERNANDESPQC7180     WV1DB42H3GA023031  SAO FELIX DO XINGU6838000000001020144512   43,50PA
0660746948000112000100004800650000841          CVK CORRETORA E ADM SEGUROS LT050620170506201705062017V         Novo (previa)                WESLEY PEREIRA DE ARAUJOOTU4700     9BG148LP0DC487870  SAO FELIX DO XINGU6838000000000100674702   43,50PA
0660746948000112000100004109410000841          UNIVERSO CORRETORA DE SEGS LTD260620172706201727062017V         Novo (previa)                    MARIA JOSE DE ARAUJOQDM4029     9BG148MK0EC468504  SAO FELIX DO XINGU6838000000000100169684   43,50PA
0660746948000112000100004109260000850          NIPPON HASEGAWA COR SG VIDA LT190620172006201720062017V         Novo (previa)         CRISTOVAO ARCANGELO SOUSA SILVAOTT6593     93XFRH77WECE88607               ANAPU6836500000000100504815   43,50PA
0660746948000112000100004109250000850          NIPPON HASEGAWA COR SG VIDA LT170620171906201719062017V         Novo (previa)                    JOSE MANOEL DE BRITOQKF7643     9BD57834UGB095766               ANAPU6836500000000100504815   43,50PA
0660746948000112000100041009430000850          NIPPON HASEGAWA COR SG VIDA LT300620173006201730062017V         Novo (previa)               LIDIANE INGRID DOS SANTOSOTP6356     9BD196263F2237790               ANAPU6836500000000100504815   43,50PA
0660746948000112000100004109290000850          NIPPON HASEGAWA COR SG VIDA LT260620172706201727062017V         Novo (previa)          ANDRESSA POLIANA SILVA CASTELONSZ5186     93XJRKH8WCCB01013            ALTAMIRA6836500000000100504815   43,50PA
0660746948000112000100004109270000850          NIPPON HASEGAWA COR SG VIDA LT200620172106201721062017V         Novo (previa)                  RAIMUNDO DE LIMA LOPESOTM2264     9BWDB45U5FT004752    VITORIA DO XINGU6838390000000100504815   43,50PA
0660746948000112000100004109130000850          NIPPON HASEGAWA COR SG VIDA LT050620170506201705062017V         Novo (previa)                SERGIO FERREIRA DA SILVANSP6394     9BFHF21C1BB088141    VITORIA DO XINGU6838300000000100504815   43,50PA
0660746948000112000100004109180000850          NIPPON HASEGAWA COR SG VIDA LT030620170506201705062017V         Novo (previa)              LEONEL PEREIRA DE OLIVEIRAEKH5740     9BD373154E5049256    VITORIA DO XINGU6838300000000100504815   43,50PA
0660746948000112000100004109240000837          PERSONAE TREIN CON ASS COR SEG170620171906201719062017V         Novo (previa)       SEPCO1 CONSTRUCOES DO BRASIL LTDAOWT1069     9BG148EP0EC423243               ANAPU6852300000000100471348   43,50PA
0660746948000112000100004109300000850          NIPPON HASEGAWA COR SG VIDA LT260620172706201727062017V         Novo (previa)                    FLAVIA VIEL DE SOUSAQDD0467     9BGKT48R0FG470695               ANAPU6836500000000100504815   43,50PA
0660746948000112000100004109280000657          KIRTON CORRETORA DE SEGUROS S 220620172306201723062017V         Novo (previa)                    RUICY DA SILVA SOUSAOTI6833     3GNCJ8CW0EL146859            ALTAMIRA6837302000000100063860   43,50PA
0660746948000112000100004109200000850          NIPPON HASEGAWA COR SG VIDA LT170620171906201719062017V         Novo (previa)              MARIA AURI PRADO GONCALVESQDY0112     93XHYKB8TGCF20699    VITORIA DO XINGU6838300000000100504815   43,50PA
0660746948000112000100004109160000850          FERTY CORRET,ADM DE SEGUROS LT030620170506201705062017V         Novo (previa)                SEBASTIAO VAZ DOS SANTOSOTX4500     8AJDY22G4D7001843              PACAJA6848500000000100689271   43,50PA
0660746948000112000100041009340000969          MINUTO CORRETORA DE SEGUROS S 270620172806201728062017V         Novo (previa)       AURELIO MEIRELLES SOARES DA SILVAGIF2260     9UK2A3A27G0390884            ALTAMIRA6837111300000100230758   43,50PA
0660746948000112000100041009320000835          MEGA DIMENSAO COR DE SEGS LTDA270620172806201728062017V         Novo (previa)                  SINOMAR TEIXEIRA NEIVAQEK4792     8AJBA3CD8G1569851            ALTAMIRA6837100000000100672319   43,50PA
0660746948000112000100041009350000641          J ASSUNCAO ADM E CORRETORA SEG270620172806201728062017V         Novo (previa)              FRANCISCO ASSIS DE ALENCARQDG5113     94DVDUD40FJ835603            ALTAMIRA6837279500000400016144   43,50PA
0660746948000112000100004109330000836               MARTINS SEGUROS EIRELI ME290620173006201730062017V         Novo (previa)         OTALICIO AMERICO DE MELO JUNIORJKO3740     9BD197163E3142303            ALTAMIRA6837307000001020320582   43,50PA
0660746948000112000100004109150000850          NIPPON HASEGAWA COR SG VIDA LT030620170506201705062017V         Novo (previa)                     TIAGO GOMES PEREIRAOTJ7014     9BD578341E7808575            ALTAMIRA6837659000000100504815   43,50PA
0660746948000112000100004900170000850          NIPPON HASEGAWA COR SG VIDA LT130620171406201714062017V         Novo (previa)                   PATRICIA ROSA VARGENSQDF5965     93XFNKA5TGCF12933            ALTAMIRA6836500000000100504815   43,50PA
0660746948000112000100004109210000850          NIPPON HASEGAWA COR SG VIDA LT170620171906201719062017V         Novo (previa)           JOSE RONALDO TAVARES DE SOUZAOFQ7024     9BD27804MD7673955        MEDICILANDIA6814500000000100504815   43,50PA
0660746948000112000100041009390000850          NIPPON HASEGAWA COR SG VIDA LT280620173006201730062017P         Novo (previa)              ELENKELEM DA ROCHA MACHADOQEN0021     9BHGC813BHP011546              MANAUS6903700000000100504815   27,00AM
0660746948000112000100004109220000850          NIPPON HASEGAWA COR SG VIDA LT170620171906201719062017V         Novo (previa)            EDIVANILSON SOUSA DE ANDRADEQDI5706     9BRBDWHE4G0280637         BRASIL NOVO6814800000000100504815   43,50PA
0660746948000112000100041009380000850          NIPPON HASEGAWA COR SG VIDA LT280620172906201730062017V         Novo (previa)                      MARCIA SOUZA PINTOOPB4182     9BFXEB2B1DBS16711            ALTAMIRA6837471100000100504815   43,50PA
0660746948000112000100041094010000850          NIPPON HASEGAWA COR SG VIDA LT290620173006201730062017V         Novo (previa)          ANDRESSA POLIANA SILVA CASTELONSZ5186     93XJRKH8WCCB01013            ALTAMIRA6836500000000100504815   43,50PA
0660746948000112000100004412390000851           BRADESCOR COR DE SEGUROS LTDA260620172706201727062017V         Novo (previa)                 PATRICIA ROCHA DE PAULAOTG6019     JMYXTGF2WEZA00203         PARAUAPEBAS6851600000000100058777   43,50PA
0660746948000112000100004412250000842          VIP CENTER ADM. E CORR. SEGURO230620172406201725062017V         Novo (previa)                 IBANEZ SOARES DE QUELUZOTS8344     93XSNKB8TFCE91981        CURIONOPOLIS6852300000000100672238   43,50PA
0660746948000112000100004411320000851           MOURA E REBOUCAS CORR DE SEGS060620170706201707062017V         Novo (previa)  OMEGA SERVICOS E MONTAGENS INDUSTRIAISOTG5844     93YBSR7RHEJ348968         PARAUAPEBAS6851500000001020270100   43,50PA
0660746948000112000100004412490000851           MOURA E REBOUCAS CORR DE SEGS270620172806201728062017V         Novo (previa) SOCIEDADE DE ENSINO SUPERIOR MASTER S SQDX3473     988226117HKA90991         PARAUAPEBAS6851500000001020270100   43,50PA
0660746948000112000100004411720000841          ARAUJO-CORR ADM DE SEGS LTDA E140620171406201714062017V         Novo (previa)                       WENIA MALTA BRITOOFS1614     8AJFY29G7D8533032   CANAA DOS CARAJAS6853700000001020259280   43,50PA
0660746948000112000100004412800000842           SECURE SELL COR E ADM DE SEGS300620173006201730062017V         Novo (previa)              JOSE AILTON VAL DOS SANTOSMXE6149     8AJFY29G7C8506864ELDORADO DOS CARAJAS6852400000000100396931   43,50PA
0660746948000112000100004630590000849          ATUANTE CENTER COR.DE SEGS.E G280620172906201729062017V         Novo (previa)                    HELENA DIAS DA SILVAPHH2514     9BFZH55L2G8335651              MANAUS6904323000000100198528   43,50AM
0660746948000112000100004630120000840          PAULO OMENA ADM COR SEGS LTDA 070620170806201708062017V         Novo (previa)             JET TECH COM IMP E EXP LTDAPHJ5090     9BWLB45U6HP049027              MANAUS6904866200000100170704   43,50AM
0660746948000112000100004630410000840          VIA EGIDE COR.ADM.E CONSULT.DE230620172606201726062017V         Novo (previa)               LOREN GISELE LIMA NICACIOOAK0978     3c4pfabb1ct286031              MANAUS6903800400000100614645   43,50AM
0660746948000112000100004630270000849           ABG CORR DE SEGS DE VIDA LTDA160620171906201719062017V         Novo (previa)             DARA SIMONI MONTEIRO LEOBETOAF4707     KMHJU81BBCU280106              MANAUS6905000100001020341458   43,50AM
0660746948000112000100004630110000849          MMA CORRETORA DE SEGUROS LTDA 070620170806201708062017V         Novo (previa)              ANA MARIA PINHEIRO FEITOSAOAJ3083     9BG148FH0DC492666              MANAUS6904866200001020171420   43,50AM
0660746948000112000100004630290000849                P D A BARROSO E CIA LTDA160620171906201719062017V         Novo (previa)                ALCIMAR LEAO DE OLIVEIRANOY8184     8AJFY29G2C8500017              MANAUS6903700000001020317140   43,50AM
0660746948000112000100004630660000840          GAD CORRETORA E ADM DE SEGS LT300620173006201730062017V         Novo (previa)            ALDER XAVIER DA COSTA JUNIOROAC6552     93YHSR6P5EJ734176              MANAUS6904864000001020192436   43,50AM
0660746948000112000100004630160000840          KANDASEG ELMATEK COR.DE SEGS.L080620170906201709062017V         Novo (previa)     MEDICAO COMERCIO E CONSTRUCOES LTDAPHD0111     KNAPR817BJ7269931              MANAUS6904222100000100416061   43,50AM
0660746948000112000100004625890000849          ROSAN E NUNES COR DE SEGS LTDA010620170206201702062017V         Novo (previa)                      JOAO PAULO MARTINSPHI7845     93HGM6650GZ201761              MANAUS6904134500001020185669   43,50AM
0660746948000112000100004625880000849            J.C.NETO COR.E ADM.SEGS LTDA010620170606201706062017V         Novo (previa)             NEUZA MARIA DA COSTA CORREAOAL8371     8AFAR22F5FJ263846              MANAUS6904008000000100354945   43,50AM
0660746948000112000100004630450000840          LESLEY ADM.COR.DE SEGS S/C LTD230620172606201726062017V         Novo (previa)               VIA MARCONI VEICULOS LTDAAZX9574     9bd19627zg2269036              MANAUS6905503000000100319252   43,50AM
0660746948000112000100004630630000849          MMA CORRETORA DE SEGUROS LTDA 300620173006201730062017V         Novo (previa)                 J L GALVAO GONCALVES MEPHE1463     9BHBG51CAFP400509              MANAUS6903734000001020171420   43,50AM
0660746948000112000100004625850000849            J.C.NETO COR.E ADM.SEGS LTDA010620170206201702062017V         Novo (previa)              SUELY VASCONCELOS DA SILVAPHE3370     9BHBG51DAFP464845              MANAUS6905840400000100354945   43,50AM
0660746948000112000100004625920000613          SMARTIA ASSESS E COR DE SEGS S010620170206201702062017V         Novo (previa)                   FABIO AUGUSTO PERUCHIJXO3932     3CZRE28708G502591              MANAUS6903704200000100677485   43,50AM
0660746948000112000100004630470000849            J.C.NETO COR.E ADM.SEGS LTDA240620172606201726062017V         Novo (previa)        SENILDE DA SILVA SOUZA MONTANDONPHC4746     knabx514bet741926              MANAUS6903700000000100354945   43,50AM
0660746948000112000100004625940000849          LESLEY ADM.COR.DE SEGS S/C LTD020620170306201704062017V         Novo (previa)          RODIONE DAS GRACAS PAVON SILVAOAL5334     9BWLB05UXEP025091              MANAUS6904910700000100319252   43,50AM
0660746948000112000100004630460000840          LESLEY ADM.COR.DE SEGS S/C LTD230620172606201726062017V         Novo (previa)             RUBEM NELSON SANTOS PEDROSOOAO0861     knafz414bf5323721              MANAUS6904743000000100319252   43,50AM
0660746948000112000100004625910000853             PROSEG ADM COR SRGS LTDA ME010620170206201702062017V         Novo (previa)          AGATHA TAVARES PINHEIRO EMIDIOPWN5332     93Y5SRD64GJ974570              MANAUS6903073000000100110523   43,50AM
0660746948000112000100004630390000849          M S PINTO CORRETORA DE SEGUROS220620172306201723062017V         Novo (previa)                    ARINALDO SILVA MONTEOAN2408     93YBSR86HDJ466463              MANAUS6911700000001020393911   43,50AM
0660746948000112000100004630650000854           BJB CORRETORA DE SEGUROS LTDA300620173006201730062017V         Novo (previa)                 EBERVAL DE SOUZA DANTASOAO2750     KNAKU813BC5244024              MANAUS6904436000000100558699   43,50AM
0660746948000112000100004630560000840          AJURI CORRETORA DE SEGS LTDA-M280620172906201729062017V         Novo (previa)                  MICHELLE NERY PINHEIROPHL3031     9BGKL48U0HB144913              MANAUS6904417000001020092393   43,50AM
0660746948000112000100004630510000840          MONAZITA SERV ADM E CORR DE SE270620172806201728062017V         Novo (previa)MARIA DO PERPETUO SOCORRO TEIXEIRA ARRUDPHC2254     9BG148LA0FC425268              MANAUS6904315700000100421995   43,50AM
0660746948000112000100004626000000840          MLVS CORRETORA DE SEGUROS LTDA050620170606201706062017V         Novo (previa)                    JONATAS SOARES GOMESPHI2175     9BD57834UGB056901              MANAUS6904853000000100558354   43,50AM
0660746948000112000100004630020000849          CONSULCOR ADM CORT SEGS  IMOVE050620170606201706062017V         Novo (previa)                    JONATAN JARDIM SALESPHC5139     9BWDB45U6GT034604              MANAUS6904562000000100398250   43,50AM
0660746948000112000100004630010000849          A R MENEZES JUNIOR COR DE SEGS050620170606201706062017V         Novo (previa)JANETE AUXILIADORA ALEIXO SANTOS DA CRUZNOO6422     93HGE6750DZ218171              MANAUS6905701500000100116670   43,50AM
0660746948000112000100004630040000840          FROESPRESS CORRETORA DE SEGS L060620170706201707062017V         Novo (previa)               HAROLDO DE OLIVEIRA FROESNOW8875     KMHJU81BBCU247925              MANAUS6904250000000100673331   43,50AM
0660746948000112000100004630550000849          G G MOURA CORRETORA DE SEGUROS280620172906201729062017V         Novo (previa) CLIN DE FISIOTER E REABILI SPACOREVIVERNPA4544     9BGKS48B0DG263886              MANAUS6904840000000100319783   43,50AM
0660746948000112000100004630090000840            NNV COR DE SEGS DE VIDA LTDA070620170806201708062017V         Novo (previa)                     JOAO GOMES DA SILVANOR1779     8AFDR12A1AJ264173              MANAUS6904659000001020282648   43,50AM
0660746948000112000100004625830000840          MLVS CORRETORA DE SEGUROS LTDA310520170106201701062017V         Novo (previa)  COLORTEL COMERCIO E ASSIS TECNICA LTDANOL8431     9BD223153D2036426              MANAUS6901016000000100558354   43,50AM
0660746948000112000100004630360000849          A R MENEZES JUNIOR COR DE SEGS220620172306201723062017V         Novo (previa)MARIA DO PERPETUO SOCORRO MARINH DE LIMAOAE9699     9bfzf55a5c8250396              MANAUS6904550000000100116670   43,50AM
0660746948000112000100004630350000840          AJURI CORRETORA DE SEGS LTDA-M210620172206201722062017V         Novo (previa)                    SHELL NEVES DA SILVAOAK9992     9BGJD69X0EB235560              MANAUS6904008000001020092393   43,50AM
0660746948000112000100004630400000849          LESLEY ADM.COR.DE SEGS S/C LTD220620172306201723062017V         Novo (previa)            SORAIA NOGUEIRA MANSUR SOUZAPHF8544     WDCTG4DW1FJ109725              MANAUS6903700000000100319252   43,50AM
0660746948000112000100004630570000849          CONSULCOR ADM CORT SEGS  IMOVE280620172906201730062017V         Novo (previa)            ROSEANE DEMETRIO DE OLIVEIRAOAO3884     8A1FC1415EL672432              MANAUS6903856300000100398250   43,50AM
0660746948000112000100004630130000616          JVTURL CORRETORA DE SEGUROS LT080620170906201709062017V         Novo (previa)            ALINE WEBER DO ROSARIO SALESKQX7946     9BD11818MF1320864              MANAUS6903704200001020376944   43,50AM
0660746948000112000100004630420000849            J.C.NETO COR.E ADM.SEGS LTDA230620172606201726062017V         Novo (previa)Y A EMPREENDIMENTOS E PARTICIPACOES LTDAPHQ8950     SALLAAAG6FA759823              MANAUS6905470000000100354945   43,50AM
0660746948000112000100004630060000849          ATUANTE CENTER COR.DE SEGS.E G060620170706201707062017V         Novo (previa)              ANA MARIA BINDA DOS SANTOSOAF8552     8C3GM2620E1302033              MANAUS6904478200000100198528   43,50AM
0660746948000112000100004630240000840          PAULO OMENA ADM COR SEGS LTDA 140620171606201716062017V         Novo (previa)                   ANTONIO MARTINS FILHONPA1382     8AJEX32G4E4037614              MANAUS6904725000000100170704   43,50AM
0660746948000112000100004630580000840       AMAZONAS CONFIANï¿½?A CORR DE 280620172906201729062017V         Novo (previa)                    FERNANDA ALVES COSTAOAE0824     9BD17164LD5872685              MANAUS6904214000001020159307   43,50AM
0660746948000112000100004630070000835          ELLO FORTE ADM E CORR DE SEG L060620170706201707062017V         Novo (previa)                   DAYANNE DIAS OLIVEIRAOAC8836     knafu411bb5919032              MANAUS6904354000001020116080   43,50AM
0660746948000112000100004625810000290          MERCEDES-BENZ COR DE SEGS LTDA310520170106201701062017V         Novo (previa)          RODIONE DAS GRACAS PAVON SILVAOAG0093     9BM958094DB896504              MANAUS6908259000000100065803   43,50AM
0660746948000112000100004625820000290          MERCEDES-BENZ COR DE SEGS LTDA310520170106201701062017V         Novo (previa)          RODIONE DAS GRACAS PAVON SILVAOAF8843     9BM694000DB897143              MANAUS6908259000000100065803   43,50AM
0660746948000112000100004630370000854           BJB CORRETORA DE SEGUROS LTDA220620172306201723062017V         Novo (previa)               ELOY AMARAL VIEIRA JUNIORPHK3545     9BGKS69V0JG105888              MANAUS6905023000000100558699   43,50AM
0660746948000112000100004627880000849              WESLANY DE O FERNANDES EPP080620170906201709062017V         Novo (previa)          ELLEN CONCEICAO CHAVES MENDOCAOXM1094     9BGKS48L0FG268304              MANAUS6905841100001020347014   43,50AM
0660746948000112000100004627540000849          ROSAN E NUNES COR DE SEGS LTDA310520170106201701062017V         Novo (previa)                SERGIO DE CARVALHO ALVESNOM3795     9bgrm69f0ag307951              MANAUS6909308700001020185669   43,50AM
0660746948000112000100004636150000849          G G MOURA CORRETORA DE SEGUROS230620172406201726062017V         Novo (previa)  RAIMUNDA ELEN AMARAL RODRIGUES BEZERRANOO9471     9BD372110E4049598              MANAUS6906330000000100319783   43,50AM
0660746948000112000100004631680000849          MMA CORRETORA DE SEGUROS LTDA 300620173006201730062017V         Novo (previa)               NILTON CESAR SILVA FEIJAOPHC5369     8AFAR22F4FJ335779              MANAUS6907648000001020171420   43,50AM
0660746948000112000100004631120000840          A.A.BRAGA JR.ADM.COR.SEGS.LTDA160620171906201719062017V         Novo (previa)              FRANCISCO ROSALIO DE SOUZAOAF4361     9BWKB45UXFP051968              MANAUS6905361000000100340553   43,50AM
0660746948000112000100004627840000849          G G MOURA CORRETORA DE SEGUROS070620170806201708062017V         Novo (previa)             JOAO BATISTA ALVES DA SILVANOY0993     9BGRP48F0CG107446              MANAUS6909355300000100319783   43,50AM
0660746948000112000100004631600000840          FROESPRESS CORRETORA DE SEGS L290620173006201730062017V         Novo (previa)               EDINEY QUEIROZ DE ALMEIDAPHE3660     9BRBDWHE1G0273581              MANAUS6907314000000100673331   43,50AM
0660746948000112000100004631650000854           BJB CORRETORA DE SEGUROS LTDA300620173006201730062017V         Novo (previa)                                ELGIN SAJWZ2391     9BGAB69W06B164017              MANAUS6907501000000100558699   43,50AM
0660746948000112000100004631660000854           BJB CORRETORA DE SEGUROS LTDA300620173006201730062017V         Novo (previa)                                ELGIN SANOR1478     9BGXM19P0AC134984              MANAUS6907501000000100558699   43,50AM
0660746948000112000100004631440000840             SMCS CORRETORA DE SEGS LTDA260620172706201727062017V         Novo (previa)                 MARIA RAIMUNDA DE ASSISPHC2810     9bwag4127ft587186              MANAUS6905473800000100677281   43,50AM
0660746948000112000100004631420000849                ADICIONAL CORR SEGS LTDA240620172606201726062017V         Novo (previa)            ANDRE F DOS REIS COMERCIO MEMWJ8331     knafw612bc5524058              MANAUS6908847400000100447161   43,50AM
0660746948000112000100004631690000849          ROSAN E NUNES COR DE SEGS LTDA300620173006201730062017V         Novo (previa)               ROSIMAR BARROS FIGUEIREDONOO7181     9BGJB69X0EB264512              MANAUS6908244100001020185669   43,50AM
0660746948000112000100004627890000854           J S COR.E ADM.DE SEGUROS LTDA080620170906201709062017V         Novo (previa)       FRANCISCO DAS CHAGAS SILVA SANTOSPHH9168     9BD57837SGB046742              MANAUS6908705800000100099848   43,50AM
0660746948000112000100004631410000849                P D A BARROSO E CIA LTDA240620172606201726062017V         Novo (previa)                   SEBASTIAO ALVES PINTOPHK0744     9BFZB55P1H8640788              MANAUS6907309000001020317140   43,50AM
0660746948000112000100004627910000849            J.C.NETO COR.E ADM.SEGS LTDA080620170906201709062017V         Novo (previa)                FILIPE OLIVEIRA DE SOUZANOQ5457     9BD110585A1510588              MANAUS6907681000000100354945   43,50AM
0660746948000112000100004627990000849          MMA CORRETORA DE SEGUROS LTDA 100620171206201712062017V         Novo (previa)               EDSON CUNHA DE FIGUEIREDOPHC6646     8AJFY29G3F8586636              MANAUS6909919000001020171420   43,50AM
0660746948000112000100004633220000849          ZONA FRANCA DAS AMERICAS-ASSES140620171906201719062017V         Novo (previa)        OTILIA EMINY DE SOUZA NASCIMENTOOAL3226     9BWDA05U0DT184988              MANAUS6904821000000100364789   43,50AM
0660746948000112000100004631470000849            J.C.NETO COR.E ADM.SEGS LTDA260620172706201727062017V         Novo (previa)            ANTONIO JOSE INACIO DE SOUZANOP3595     9bd17201ma3553613              MANAUS6907473000000100354945   43,50AM
0660746948000112000100004631250000849           ABG CORR DE SEGS DE VIDA LTDA200620172106201721062017V         Novo (previa)             LIVIA REGIANE FROES LOURIDOPHJ1133     93y4srd04gj980238              MANAUS6905473600001020341458   43,50AM
0660746948000112000100004631340000256          MINUTO CORRETORA DE SEGUROS S 220620172306201723062017P         Novo (previa)                      ELIANA ALBUQUERQUEPHI1353     988611156GK057530              MANAUS6903700000000100230758   27,00AM
0660746948000112000100004631450000849                ADICIONAL CORR SEGS LTDA260620172706201727062017V         Novo (previa)           ISABELA COHEN DA COSTA SANTOSPHI5520     93HRV2850GZ147211              MANAUS6905467200000100447161   43,50AM
0660746948000112000100004627930000849          G G MOURA CORRETORA DE SEGUROS090620171206201712062017V         Novo (previa)  R S INDUSTRIA E COMERCIO DE EMBALAGENSPHD9052     9BHGC813BHP011736              MANAUS6908824000000100319783   43,50AM
0660746948000112000100004627690000849          MMA CORRETORA DE SEGUROS LTDA 050620170606201706062017V         Novo (previa)     DEMA IND C E R DE P DE LIM LTDA EPPJXM9352     9BD25504988834921              MANAUS6908724100001020171420   43,50AM
0660746948000112000100004627660000849          MMA CORRETORA DE SEGUROS LTDA 050620170606201706062017V         Novo (previa)     DEMA IND C E R DE P DE LIM LTDA EPPNON7240     9BWA932P18R825273              MANAUS6908724100001020171420   43,50AM
0660746948000112000100004627700000849          MMA CORRETORA DE SEGUROS LTDA 050620170606201706062017V         Novo (previa)     DEMA IND C E R DE P DE LIM LTDA EPPOAH5315     9531M52P0DR312235              MANAUS6908724100001020171420   43,50AM
0660746948000112000100004627670000849          MMA CORRETORA DE SEGUROS LTDA 050620170606201706062017V         Novo (previa)     DEMA IND C E R DE P DE LIM LTDA EPPOAD9595     9531M52PXDR311383              MANAUS6908724100001020171420   43,50AM
0660746948000112000100004627680000849          MMA CORRETORA DE SEGUROS LTDA 050620170606201706062017V         Novo (previa)     DEMA IND C E R DE P DE LIM LTDA EPPOAH5245     9531M52P1DR311420              MANAUS6908724100001020171420   43,50AM
0660746948000112000100004627710000849          MMA CORRETORA DE SEGUROS LTDA 050620170606201707062017V         Novo (previa)     DEMA IND C E R DE P DE LIM LTDA EPPPHD9812     9BD341A8XHY454244              MANAUS6908724100001020171420   43,50AM
0660746948000112000100004627980000840          A.A.BRAGA JR.ADM.COR.SEGS.LTDA100620171206201712062017V         Novo (previa)             LUIS CARLOS BARBOSA MACHADOOXM1643     9BRBLWHE0F0017885              MANAUS6908228500000100340553   43,50AM
0660746948000112000100004631480000840          KANDASEG ELMATEK COR.DE SEGS.L260620172706201727062017V         Novo (previa)                          KEITOKU TOYODAPHA8267     9BD197163F3215680              MANAUS6904659000000100416061   43,50AM
0660746948000112000100004627620000840           HILARIO R MARTINS CORR SEG ME020620170306201704062017V         Novo (previa)            RENATA CRISTIANE DE OLIVEIRAOAA3273     8AJEX32G1C4033131              MANAUS6905475200000100198137   43,50AM
0660746948000112000100004631280000849          ROSAN E NUNES COR DE SEGS LTDA210620172206201722062017V         Novo (previa)          GLAUCIO PINTO DO NASCIMENTO MEJXS7951     9BWDB05UXCT176702              MANAUS6905516100001020185669   43,50AM
0660746948000112000100004631630000849          CONSULCOR ADM CORT SEGS  IMOVE290620173006201730062017V         Novo (previa)                     FELIPE HADAD JUNIORPHC8440     8AP19627MF4131982              MANAUS6908300000000100398250   43,50AM
0660746948000112000100004627940000849          G G MOURA CORRETORA DE SEGUROS100620171206201712062017V         Novo (previa)                FABRICIO MORAES COSTA MENOP1192     9536E7230DR316412              MANAUS6907501000000100319783   43,50AM
0660746948000112000100004631550000840             SMCS CORRETORA DE SEGS LTDA280620172906201729062017V         Novo (previa)     ANA JULIA LUNAMAIA COREIA FERNANDESOAG5764     9BWLB05U6EP007123              MANAUS6907584800000100677281   43,50AM
0660746948000112000100004631510000849            J.C.NETO COR.E ADM.SEGS LTDA270620172806201728062017V         Novo (previa)          SEBASTIAO CEZAR DE SENA JUNIORPHB1130     8agsu19f0fr116814              MANAUS6907678100000100354945   43,50AM
0660746948000112000100004627750000849            J.C.NETO COR.E ADM.SEGS LTDA050620170606201706062017V         Novo (previa)         SAMANTHA HARRAQUIAN DE MEDEIROSPWU6645     9BHBG51CAFP511286              MANAUS6906002000000100354945   43,50AM
0660746948000112000100004631570000853             PROSEG ADM COR SRGS LTDA ME280620172906201729062017V         Novo (previa)                  LENILDO DE LIMA ARAUJOJWD0272     9BWJB09N08P047633              MANAUS6907424800000100110523   43,50AM
0660746948000112000100004631530000849          A R MENEZES JUNIOR COR DE SEGS280620172906201729062017V         Novo (previa)              CARLA MARIA SOARES MOREIRAPHJ4310     9BGKS48U0HG132184              MANAUS6905473300000100116670   43,50AM
0660746948000112000100004627790000849          G G MOURA CORRETORA DE SEGUROS060620170706201707062017V         Novo (previa)                 ELANE BEMERGUI CORDOVILPHF3245     93HRV2850GZ109043              MANAUS6903710200000100319783   43,50AM
0660746948000112000100004631320000849            J.C.NETO COR.E ADM.SEGS LTDA210620172206201722062017V         Novo (previa)                ALUISIO JOSE DAOU JUNIORPHO2510     9BMWF4AW4GM000295              MANAUS6905502100000100354945   43,50AM
0660746948000112000100004631390000849          CARANHA CORR DE SEGS VIDA LTDA230620172406201725062017V         Novo (previa)                EUDI AMOS DE LIMA BRASILOAE8113     9BGKS69L0DG256732              MANAUS6902100500001020399235   43,50AM
0660746948000112000100004631030000849            J.C.NETO COR.E ADM.SEGS LTDA130620171406201714062017V         Novo (previa)             TAMILA LUANA SILVA APARICIONPB3091     9BD196263F2229999              MANAUS6908250000000100354945   43,50AM
0660746948000112000100004627780000849          G G MOURA CORRETORA DE SEGUROS060620170706201707062017V         Novo (previa)                    PAULO SERGIO RIBEIRONSA0071     WAU9FD8T9DA016934              MANAUS6906006400000100319783   43,50AM
0660746948000112000100004631380000849                ADICIONAL CORR SEGS LTDA230620172406201725062017V         Novo (previa)                  MANAOS TRANSPORTE LTDAOTU3457     9BD11816FF1310752              MANAUS6908223000000100447161   43,50AM
0660746948000112000100004631330000854           BJB CORRETORA DE SEGUROS LTDA220620172306201723062017V         Novo (previa)   PRODIMAGEM CLINICA DE PROD POR IMAGEMPHD7786     9BG148LA0JC402349              MANAUS6902514000000100558699   43,50AM
0660746948000112000100004631540000840          L A DE SOUZA COSTA COR.DE SEGS280620172906201729062017V         Novo (previa)              DIEGO DAMON ROSAS DE VIDEAFNQ8593     9BWAB45U2ET177937              MANAUS6905001000000100146862   43,50AM
0660746948000112000100004627920000840          KANDASEG ELMATEK COR.DE SEGS.L090620171206201712062017V         Novo (previa)                            ANDREA IKEDAPHA5807     8C3GM2620E1307661              MANAUS6908300000000100416061   43,50AM
0660746948000112000100004631070000849          M S PINTO CORRETORA DE SEGUROS140620171606201716062017V         Novo (previa)              LINDA ELANE FELIX DE MOURAPWU2214     9BHBG41DAFP501506              MANAUS6906002000001020393911   43,50AM
0660746948000112000100004631370000849          ROSAN E NUNES COR DE SEGS LTDA230620172406201725062017V         Novo (previa)                      ROGER DUMAS AFONSONOO2714     KMHJM81BBAU155381              MANAUS6904008000001020185669   43,50AM
0660746948000112000100004627800000849            J.C.NETO COR.E ADM.SEGS LTDA070620170806201708062017V         Novo (previa)             JULIO AUGUSTO BARBOSA FILHOPHD0456     9BGKS48V0HG149442              MANAUS6904312500000100354945   43,50AM
0660746948000112000100004627900000849          CONSULCOR ADM CORT SEGS  IMOVE080620170906201709062017V         Novo (previa)                            CLOVIS ZONTANDA1386     9BM688159BB793060              MANAUS6900905500000100398250   43,50AM
0660746948000112000100004627830000840          L A DE SOUZA COSTA COR.DE SEGS070620170806201708062017V         Novo (previa)                REGINALDO FELIX DA SILVANOY2900     9BD17164LA5541116              MANAUS6907584200000100146862   43,50AM
0660746948000112000100004411130000847           BRADESCOR COR DE SEGUROS LTDA020620170206201702062017V         Novo (previa)        KLEISLER DANIEL DA CUNHA RIBEIROMWU0455     9BFZF54PXB8189616        NOVA IPIXUNA6858500000000100058777   43,50PA
0660746948000112000100004411070000652          SEG FORTE COR DE SEGS LTDA - M010620170106201701062017V                Outros                SULMAIS TRANSPORTES LTDAOTW2315     9BSR6X400E3856155              MARABA6850403400000100527416   43,50PA
0660746948000112000100004411080000652          SEG FORTE COR DE SEGS LTDA - M010620170106201701062017V                Outros                SULMAIS TRANSPORTES LTDAJVT0755     9BSG4X20093645378              MARABA6850403400000100527416   43,50PA
0660746948000112000100004411100000841          PARASUL ASSES.E COR.DE SEGS.LT010620170106201701062017V                Outros             JOSE RENATO DE ANGELO ROCHANSJ8654     8AJFZ29G0A6106103      RONDON DO PARA6863800000000100340545   43,50PA
0660746948000112000100004411090000841          PARASUL ASSES.E COR.DE SEGS.LT010620170106201701062017V                Outros         CARLOS ANDRE DUARTE DE OLIVEIRAPVF7436     93YHSR7P5FJ698583      RONDON DO PARA6863800000000100340545   43,50PA
0660746948000112000100004412460000251          VOLVO COR.DE SEGS.ADM.E SERV.L270620172706201727062017V         Novo (previa)                      JUACI VIANA SANTOSNSW5093     9BVAS02DXBE768860              MARABA6850773500000100410098   43,50PA
0660746948000112000100004412450000635          Y M C ADM E CORR DE SEGUROS EI270620172706201727062017V         Novo (previa)                CRISTIVAM DA SILVA COSTAQEH8990     93XHYKB8TGCF11672              MARABA6851341000001020272413   43,50PA
0660746948000112000100004412220000847          MARIA OLIVA CORR SEGS VIDA LTD230620172306201723062017V         Novo (previa)              SIDINEY ALMEIDA DOS SANTOSOTB8796     9BFZD55J6EB668400        NOVA IPIXUNA6858500000001020146930   43,50PA
0660746948000112000100004411330000841          MRFLSGB 10 CORRETORA SEGUROS L060620170706201707062017V         Novo (previa)             GABRIELLA ALMEIDA DE ARAUJOOTP0009     93XJRKB8TDCD69896            ITAITUBA6818003000000100667862   43,50PA
0660746948000112000100004412000000849                ADICIONAL CORR SEGS LTDA160620171906201719062017V         Novo (previa)                LAERCIO SEBASTIAO BONAMIOAG3191     8AJFY29G5E8566029            ITAITUBA6818069200000100447161   43,50PA
0660746948000112000100004412720000849          MAE DO RIO ADM.E COR.DE SEGS.L290620172906201729062017V                Outros                      CLEIBE BRITO SOUZAOTD6170     9BG148EP0DC451505            ITAITUBA6818134000000100320897   43,50PA
0660746948000112000100004412010000849          MAE DO RIO ADM.E COR.DE SEGS.L170620171906201719062017V         Novo (previa)                  BRUNO MIRANDA MILHOMENPHL6120     9BG148MA0HC425639            ITAITUBA6818023000000100320897   43,50PA
0660746948000112000100004412810000849          MAE DO RIO ADM.E COR.DE SEGS.L300620173006201730062017V                Outros                    IRENO FERREIRA BRITOONS0699     8AFAR23L9EJ231937            ITAITUBA6818220400000100320897   43,50PA
0660746948000112000100004411510000940          SEGURALTA OESTE COR DE SEGS LT090620170906201709062017V         Novo (previa)              ERIVALDO FORMIGA FERNANDESNOT3862     9BG148FK0EC404341            ITAITUBA6818063500000100361011   43,50PA
0660746948000112000100004412990000841          MRFLSGB 10 CORRETORA SEGUROS L300620173006201730062017V         Novo (previa)                  ALTRAM DE AGUIAR PRADOPHQ1420     8ajha8cd9g2579399            ITAITUBA6818019000000100667862   43,50PA
0660746948000112000100004412420000849          MAE DO RIO ADM.E COR.DE SEGS.L270620172706201727062017V         Novo (previa)        TONILDA ALDENISA DE AGUIAR PRADOPHD2256     8AJBA3FS1H0240068            ITAITUBA6818002000000100320897   43,50PA
0660746948000112000100004411660000838            M & K COR DE SEGUROS LTDA ME120620171206201712062017V         Novo (previa)                   ONOFRE PEREIRA BORGESOBE3944     8AJFY29G9D8527233            ITAITUBA6818000500001020123329   43,50PA
0660746948000112000100004412680000251          VOLVO COR.DE SEGS.ADM.E SERV.L280620172906201729062017V                Outros                       LEAL E COSTA LTDAOTP3795     93KP0R1F6EE150122            ITAITUBA6818114000000100410098   43,50PA
0660746948000112000100004412640000251          VOLVO COR.DE SEGS.ADM.E SERV.L280620172806201728062017V                Outros                       LEAL E COSTA LTDAOTR7365     9BVAG20DXEE820719            ITAITUBA6818114000000100410098   43,50PA
0660746948000112000100004412630000251          VOLVO COR.DE SEGS.ADM.E SERV.L280620172806201728062017V                Outros                       LEAL E COSTA LTDAOBT1229     9BM958094CB822219            ITAITUBA6818114000000100410098   43,50PA
0660746948000112000100004412710000251          VOLVO COR.DE SEGS.ADM.E SERV.L290620172906201729062017V         Novo (previa)                       LEAL E COSTA LTDAOTJ2877     9BM694000EB971398            ITAITUBA6818114000000100410098   43,50PA
0660746948000112000100004412620000251          VOLVO COR.DE SEGS.ADM.E SERV.L280620172806201728062017V                Outros                       LEAL E COSTA LTDAOFR1044     9BM693328D8901750            ITAITUBA6818114000000100410098   43,50PA
0660746948000112000100004412690000251          VOLVO COR.DE SEGS.ADM.E SERV.L290620172906201729062017V                Outros                       LEAL E COSTA LTDAOFP4414     953658268DR330526            ITAITUBA6818114000000100410098   43,50PA
0660746948000112000100004412650000251          VOLVO COR.DE SEGS.ADM.E SERV.L280620172806201728062017V                Outros                       LEAL E COSTA LTDAQDL6652     8AJYY59G0F6530062            ITAITUBA6818114000000100410098   43,50PA
0660746948000112000100004412700000630          ANTUNES XAVIER ADM E COR DE SE290620172906201729062017V                Outros                      CINARA SILVA NEDESNOV4402     9BG148FK0EC404903            ITAITUBA6818139000000100102148   43,50PA
0660746948000112000100004412090000849          MAE DO RIO ADM.E COR.DE SEGS.L210620172106201721062017V         Novo (previa)                       EVA NOGUEIRA LIMAPHL1543     8AJBA3FS4H0236564            ITAITUBA6818062000000100320897   43,50PA
0660746948000112000100004412660000870           BONSAI NORTE COR DE SEGS LTDA280620172806201728062017V         Novo (previa)    FRANCISCO DAS CHAGAS AGUIAR  E SOUZAQBH7581     8AJBA3FSXG0220643            ITAITUBA6818108000001020091117   43,50PA
0660746948000112000100004412670000849          MAE DO RIO ADM.E COR.DE SEGS.L280620172806201728062017V         Novo (previa)                     LUIZ GOMES DA SILVAPHZ3840     8AJHA8CD5G2572918            ITAITUBA6818012000000100320897   43,50PA
0660746948000112000100004411380000835               AGNUS CORRETORA SEG. LTDA070620170706201707062017V         Novo (previa)                  VANDEIR FRANCISCO ROSAOTL9058     8AJFY22G0E8011483 OURILANDIA DO NORTE6839000000000100397750   43,50PA
0660746948000112000100004411780000851          UNIVERSO CORRETORA DE SEGS LTD140620171406201714062017V         Novo (previa)            CLAUDIO TOMAZ FRANCISKIEVICZOSZ6425     9BFZB55P7E8864191              TUCUMA6838500000000100169684   43,50PA
0660746948000112000100004411350000841              MURILO DE CASTRO VITORIANO070620170706201707062017V         Novo (previa)                        KASSIA DE CASTROOTS2604     9BWAG412XFT519660              TUCUMA6838500000001020265239   43,50PA
0660746948000112000100004411860000841              MURILO DE CASTRO VITORIANO160620171606201716062017V         Novo (previa)COOPERATIVA MISTA AGROPECUARIA DE TUCUMAQEA8693     9ADG1353HHM387334              TUCUMA6838500000001020265239   43,50PA
0660746948000112000100004411360000841              MURILO DE CASTRO VITORIANO070620170706201707062017V         Novo (previa)                     MARCOS SANTANA DIASQEN6211     8AJHA8CD1H2590365 OURILANDIA DO NORTE6839000000001020265239   43,50PA
0660746948000112000100004412150000841              MURILO DE CASTRO VITORIANO220620172206201722062017V         Novo (previa)                        CLOVIS PELEGRINIOTU4134     8AJFY22G3E8014801              TUCUMA6838500000001020265239   43,50PA
0660746948000112000100004411910000841          MARIA OLIVA CORR SEGS VIDA LTD200620172006201720062017V         Novo (previa)              MARIA JOSE VIEIRA DA COSTAONZ6169     8AJYY59G2E6523449              TUCUMA6838500000001020146930   43,50PA
0660746948000112000100004411610000851          MARCORR COR E ADM DE SEGS LTDA100620171006201711062017V         Novo (previa)                 ERICA GOMES DE OLIVEIRAOFK3540     9BGSU19F0CB168437              TUCUMA6838500000000100374130   43,50PA
0660746948000112000100004412240000841          UNIVERSO CORRETORA DE SEGS LTD230620172306201723062017V         Novo (previa)                     ARI EUGENIO SCHMIDTJKE6977     93YBSR7RHDJ423743              TUCUMA6838500000000100169684   43,50PA
0660746948000112000100004412480000841          MARIA OLIVA CORR SEGS VIDA LTD270620172806201728062017V         Novo (previa)                           MAIKE ORECHIOQDQ2879     93HRV2870GZ135316 OURILANDIA DO NORTE6839000000001020146930   43,50PA
0660746948000112000100004412280000841          MARCORR COR E ADM DE SEGS LTDA240620172406201725062017V         Novo (previa)                     HARRY INACIO KONZEMQEI8990     93XHYKB8TGCF12183              TUCUMA6838500000000100374130   43,50PA
0660746948000112000100004411740000841              MURILO DE CASTRO VITORIANO140620171406201714062017V         Novo (previa)                        CLOVIS PELEGRINIDHP3219     9BFYCEJXX8BB13224              TUCUMA6838500000001020265239   43,50PA
0660746948000112000100004411260000851          UNIVERSO CORRETORA DE SEGS LTD050620170606201706062017V         Novo (previa)                  RAQUEL CAMARGO DA MATAQDX8001     9BGKT69R0GG140935 OURILANDIA DO NORTE6839000000000100169684   43,50PA
0660746948000112000100004411240000851          UNIVERSO CORRETORA DE SEGS LTD050620170506201705062017V         Novo (previa)                  ADESON GOMES DE AMORIMQDZ0600     8AJFY29G1F8591852              TUCUMA6838500000000100169684   43,50PA
0660746948000112000100004412120000624             SELTSEG COR DE SEGUROS LTDA210620172206201722062017V         Novo (previa)      MARIA DA CONCEICAO MURARI DE MOURAOMN3909     WV1DB22H0EA037745              TUCUMA6838500000000100386529   43,50PA
0660746948000112000100004469650000851          IDENTIDADE CORRETORA SEGUROS L140620171406201714062017V         Novo (previa) HIPERMERCDO SENNA DIST EXP E IMPORT LTDNES6965     8AJFY22G0F8018466              TUCUMA6838500000000100617814   43,50PA
0660746948000112000100004412530000851          IDENTIDADE CORRETORA SEGUROS L290620173006201730062017V         Novo (previa) HIPERMERCDO SENNA DIST EXP E IMPORT LTDNES6965     8AJFY22G0F8018466              TUCUMA6838500000000100617814   43,50PA
0660746948000112000100004412100000841          UNIVERSO CORRETORA DE SEGS LTD210620172206201722062017V         Novo (previa)              CENTRO DE MEDICINA LTDA MEJVY6041     9BFZE55P6A8577247 OURILANDIA DO NORTE6839000000000100169684   43,50PA
0660746948000112000100004412510000656          PEDRAZZA & ANZILIERO COR.SEGS.280620172806201728062017V         Novo (previa)                MARLUCI PAULA GASPARETTOEZA1999     93XFRH72WDCC75905 OURILANDIA DO NORTE6839000000000100374164   43,50PA
0660746948000112000100004412470000851           BRADESCOR COR DE SEGUROS LTDA270620172706201727062017V         Novo (previa)                  CLAITON DA SILVA SOUZAOTR0678     9BRBDWHE4F0219691            REDENCAO6855240000000100058777   43,50PA
0660746948000112000100004412210000851          SN CORRETORA DE SEGUROS LTDA M230620172306201723062017V         Novo (previa)                   JOAO CORREIA DA SILVAQEU8932     9BD57834FHY139515            XINGUARA6855501100001020305419   43,50PA
0660746948000112000100004411450000635              WALLERIUS COR DE SEGS LTDA080620170806201708062017V         Novo (previa)  ARAGUAIA IND DE OLEOS E PROTEINAS LTDAQEF8513     9BM934251HS042055            XINGUARA6855597000000100104353   43,50PA
0660746948000112000100004411440000635              WALLERIUS COR DE SEGS LTDA080620170806201708062017V         Novo (previa)  ARAGUAIA IND DE OLEOS E PROTEINAS LTDAQEF8443     9BM934251HS042071            XINGUARA6855597000000100104353   43,50PA
0660746948000112000100004411480000835          SANTA IZABEL ADM COR SEGS LTDA080620170906201709062017V         Novo (previa)             NASIOZENA GOMES DE OLIVEIRAOFT1159     8AJFY29G0D8514645            XINGUARA6855565000000100137413   43,50PA
0660746948000112000100004412790000841          CVK CORRETORA E ADM SEGUROS LT300620173006201730062017V         Novo (previa)                     ALINE ALVES LACERDAQDW3400     9BG148FA0FC429219            XINGUARA6853300000000100674702   43,50PA
0660746948000112000100004411600000841                 VERONA ADM COR SEG LTDA090620170906201709062017V         Novo (previa)          FRANCISCO WILSON FERREIRA LIMAQES6190     8AJBA3CDXG1566353            XINGUARA6855501100000100144801   43,50PA
0660746948000112000100004412520000851          SN CORRETORA DE SEGUROS LTDA M280620172806201728062017V         Novo (previa)               NORA NEY SETUBAL DE SOUZAOYC9195     9BWAL45U1GP007397            XINGUARA6855501100001020305419   43,50PA
0660746948000112000100004411790000937               ORLANDI CORR DE SEGS LTDA140620171406201714062017V         Novo (previa)        FERNANDO LUIZ QUAGLIATO E OUTROSBAH8460     8AJFY22G8F8027349            SAPUCAIA6854800000000100502430   43,50PA
0660746948000112000100004411250000841          CVK CORRETORA E ADM SEGUROS LT050620170606201706062017V         Novo (previa)             HORLANDO MESSIAS DOS SANTOSQDE1724     9BG148MK0FC427184            XINGUARA6855612000000100674702   43,50PA
0660746948000112000100004411810000835               CORBREVE COR DE SEGS LTDA140620171406201714062017V         Novo (previa)        MARIA BETANIA FONSECA DOS SANTOSQDB5544     9BD19713MF3257321       SAO FRANCISCO6855960000000100627348   43,50PA
0660746948000112000100004109400000850             AZUNAV CORR DE SEGUROS LTDA210620172206201722062017V         Novo (previa)                      LUZIMAR DIAS NUNESQLO8404     9BD341A5XHY455906              MACAPA6890126100000100611611   43,50AP
0660746948000112000100004109430000977           R.K.S. ADM.E COR.DE SEGS.LTDA260620172706201727062017V         Novo (previa)                LUIZ NUNES DO REGO FILHONEO4118     WV1DB42H8EA038007              MACAPA6890190100000100194930   43,50AP
0660746948000112000100004300230000837            BELGA CONS CORR DE SEGS LTDA300620173006201730062017V         Novo (previa)             PANTANAL LOGISTICA LTDA EPPQLN0965     9BRBD3HEXF0255108              MACAPA6890812600000100289175   43,50AP
0660746948000112000100004900310000850             AZUNAV CORR DE SEGUROS LTDA170620171906201719062017V         Novo (previa)                    JESUITA SANTOS BRAGANER7497     9BD135316A2145662             SANTANA6892602400000100611611   43,50AP
0660746948000112000100004800830000850           BRADESCOR COR DE SEGUROS LTDA020620170206201702062017V         Novo (previa)                 ZULEIDE MARQUES MARTINSNEQ9111     9BWDA45U4ET149671              MACAPA6890007400000100058777   43,50AP
0660746948000112000100004800820000841          NORTEFLEX CORR DE SEGS LTDA ME020620170206201702062017V         Novo (previa)           NESTOR RIBEIRO DE ALBUQUERQUEQLN3111     8AP37217MF6118879              MACAPA6890007000001020249616   43,50AP
0660746948000112000100004800840000850             AZUNAV CORR DE SEGUROS LTDA030620170306201704062017V         Novo (previa)               GILMAR SANTA ROSA BARBOSAQLO9549     9BD341A5XHY464099              MACAPA6890339000000100611611   43,50AP
0660746948000112000100004900120000850             AZUNAV CORR DE SEGUROS LTDA130620171306201713062017V         Novo (previa)                  ROSIANE DA SILVA COSTANEY4695     9BD578341F7925887              MACAPA6890427400000100611611   43,50AP
0660746948000112000100004109350000853             PROSEG ADM COR SRGS LTDA ME200620172006201720062017V         Novo (previa)  FABIO LUIS FIGUEIREDO FLORINDO MOREIRAJEN5008     935SDYFYYDB522679              MACAPA6890612800000100110523   43,50AP
0660746948000112000100004800660000850             AZUNAV CORR DE SEGUROS LTDA050620170506201705062017V         Novo (previa)                ELEN SAVIA MIRA DA SILVAQLN7138     9BGKS69G0FG460207              MACAPA6890833000000100611611   43,50AP
0660746948000112000100004302000000850             AZUNAV CORR DE SEGUROS LTDA220620172306201723062017V         Novo (previa)                MARCIO ANDRE SOUSA GOMESQLP0625     9BWAB45Z6H4046391              MACAPA6890351300000100611611   43,50AP
0660746948000112000100004104580000850          NIPPON HASEGAWA COR SG VIDA LT230620172606201726062017V         Novo (previa)                       ROSEMARY MAIORANAQDC4818     JMYXLGF4WFZA00703               BELEM6605528000000100504815   43,50PA
0660746948000112000100004104520000853             PROSEG ADM COR SRGS LTDA ME210620172206201722062017V         Novo (previa)              ISABELLA CAETANA DO AMARALKQK5268     9BHBG41DBEP127977               BELEM6611552000000100110523   43,50PA
0660746948000112000100004104410000850               JUCA CORR DE SEGS SC LTDA120620171206201712062017V         Novo (previa)                  P M G MATOS EIRELI EPPQDE5054     WV1DB42HXEA012248               BELEM6601300000000100285684   43,50PA
0660746948000112000100004103010000850               JUCA CORR DE SEGS SC LTDA230620172606201726062017V         Novo (previa)             GLEBSON CAVALCANTE DA SILVAQDC8846     9BHBH41DBFP455278               BELEM6664541500000100285684   43,50PA
0660746948000112000100004104050000841          LOJACORR S A REDE DE COR DE SE020620170306201704062017V         Novo (previa)               EVANDRO BATISTA RODRIGUESNBA8918     9BD119609D1096277               BELEM6603319000000100438502   43,50PA
0660746948000112000100004105730000841            ARAUJO NEVES COR SEGS S LTDA090620171006201711062017V         Novo (previa)             JOSE LUIZ LOURENCO CARNEIROOTI6547     9BG148LP0EC460612               BELEM6604514300000100424960   43,50PA
0660746948000112000100004104430000850          PARABUCANO COR DE SEGS SS LTDA140620171606201716062017V         Novo (previa)                         EMANOEL JESUINOQDW2324     9BHBH41DBHP774892               BELEM6682301000000100377244   43,50PA
0660746948000112000100004105700000850               JUCA CORR DE SEGS SC LTDA070620170806201708062017V         Novo (previa)                      JANE MARTINS GOMESOTQ2151     9BGRP48F0EG216475               BELEM6611001000000100285684   43,50PA
0660746948000112000100004104470000850          PARABUCANO COR DE SEGS SS LTDA140620171406201714062017V         Novo (previa)     EDRISIO CARNEIRO DE OLIVEIRA JUNIOROIT8667     9BGRP69X0CG414197               BELEM6663301000000100377244   43,50PA
0660746948000112000100004104560000835          KADYMA COR E ADMR DE SEGS LTDA230620172606201726062017V         Novo (previa)             STENIA RAQUEL ALVES DE MELONTC7005     93XJRKB8TCCB34411               BELEM6606526700000100649210   43,50PA
0660746948000112000100004104570000850          NIPPON HASEGAWA COR SG VIDA LT230620172606201726062017V         Novo (previa)                       ROSEMARY MAIORANAOSZ0175     3FA6P0D95DR286857               BELEM6605528000000100504815   43,50PA
0660746948000112000100004104660000850                          ZUITH AQUINO C160620171706201718062017V         Novo (previa)     ELCIONE THEREZINHA ZAHLUTH BARBALHOOTU0442     9BG148EP0DC472293               BELEM6606057500000100634450   43,50PA
0660746948000112000100004104720000850          NIPPON HASEGAWA COR SG VIDA LT170620171906201719062017V         Novo (previa)                  HILDEFRAN BORGES PAIVAOXM5361     93XFRKB9TFCE95504               BELEM6836000000000100504815   43,50PA
0660746948000112000100004106000000850          PARABUCANO COR DE SEGS SS LTDA020620170306201704062017V         Novo (previa)            JOAO PAULO DE OLIVEIRA PIRESOFU5323     93HGM2520DZ130613               BELEM6605008000000100377244   43,50PA
0660746948000112000100004104640000850          BRONI CORRETORA DE SEGUROS LTD140620171606201716062017V         Novo (previa)             ANTONIO FRANCISCO DE ARAUJOOTB1861     9536Y8264CR236908               BELEM6605324000000100419621   43,50PA
0660746948000112000100004104100000969          MINUTO CORRETORA DE SEGUROS S 210620172206201722062017V         Novo (previa)         ADNA DE NAZARE PEREIRA DA SILVAOFU6187     95PJN81BPDB046720            MARITUBA6720000000000100230758   43,50PA
0660746948000112000100004104700000850           BRADESCOR COR DE SEGUROS LTDA160620171706201718062017V         Novo (previa)               ODIVALDO PINHEIRO DE LEAOQDE1426     9BWAG4120FT510918               BELEM6609367400000100058777   43,50PA
0660746948000112000100004104670000850          BRONI CORRETORA DE SEGUROS LTD160620171706201718062017V         Novo (previa)      SOCORRO DE MARIA FERNANDES ALMEIDAOTC0737     3HGRM5870DG500393               BELEM6606016000000100419621   43,50PA
0660746948000112000100004104110000653          FRATE CORRETORA DE SEGUROS LTD210620172206201723062017V         Novo (previa)           ALINE DANIELE GASPAR DA SILVAQEJ9260     9UK64ED51G0092695            MARITUBA6720000000001020159749   43,50PA
0660746948000112000100004104070000840          TAUMATURGO E VEIGA COR DE SEGS030620170506201705062017V         Novo (previa)                JAINARA TAVARES DE SOUZANSL0210     935FCKFVYAB532245SANTA ISABEL DO PARA6879000000000100678473   43,50PA
0660746948000112000100004104040000844          STARLING ADM E COR DE SEGS LTD020620170306201704062017V         Novo (previa)                 DAGOBERTO PRAI VITALINOOTA7351     WV1DD42H2DA021499         PARAGOMINAS6862848600000100610364   43,50PA
0660746948000112000100004104860000850                          ZUITH AQUINO C220620172306201723062017V         Novo (previa)                 MARIA VIEIRA DE SANTANAPIF9301     3FA6P0D96FR100276               BELEM6663511000000100634450   43,50PA
0660746948000112000100004103270000850          PARABUCANO COR DE SEGS SS LTDA280620172806201728062017V         Novo (previa)                   CLIVIA ELAINE BENETTIOTI3258     9BWAB45Z3E4079831               BELEM6602566000000100377244   43,50PA
0660746948000112000100004104730000841          DAROCHA CORRETORA DE SEGUROS L240620172606201726062017V         Novo (previa)           CASSIANO JOSE RODRIGUES ALVESOBU1780     94DVDUD40CJ983781               BELEM6608732000001020163851   43,50PA
0660746948000112000100004104810000853             PROSEG ADM COR SRGS LTDA ME200620172106201721062017V         Novo (previa)            LUIS HENRIQUE G MAIA E SILVAJJW3129     93YHSR6P5DJ455003               BELEM6661375000000100110523   43,50PA
0660746948000112000100004104840000850                          ZUITH AQUINO C200620172106201721062017V         Novo (previa)                ALEXANDRE BARBOSA LISBOAOSX1196     2C3CCAEG8CH127325               BELEM6609304000000100634450   43,50PA
0660746948000112000100004104350000847          R.N.A. CORRETORA DE SEGUROS LT090620171006201711062017V         Novo (previa)               EDMILSON PINHEIRO NORONHAPSB5700     9BD197132F3203996          ANANINDEUA6711315000001020281358   43,50PA
0660746948000112000100004103200000850                          ZUITH AQUINO C270620172806201728062017V         Novo (previa)             ROGERIO AUGUSTO SOUZA LOPESQDL9380     93YHSR7P5FJ534813               BELEM6603013000000100634450   43,50PA
0660746948000112000100004104620000841          NOSSA CORRETORA E ADM DE SEGUR140620171606201716062017V         Novo (previa)              LUIS PEREIRA BARRETO FILHOQDK3236     9BD57834UGB032318               BELEM6868200000001020362110   43,50PA
0660746948000112000100004103240000850          DAROCHA CORRETORA DE SEGUROS L300620173006201730062017V         Novo (previa)              CLEICE ISACKSSON RODRIGUESQDI4813     9BRB29BT5F2081145               BELEM6661025000001020163851   43,50PA
0660746948000112000100004104820000854                JGS MAUAN CORR DE SEG SA200620172106201721062017V         Novo (previa)            ELIZABETE FONSECA DOS SANTOSJVD0761     9BD15822764801552          ANANINDEUA6714340000000100067601   43,50PA
0660746948000112000100004104920000850               JUCA CORR DE SEGS SC LTDA290620173006201730062017V         Novo (previa)            GILMAR ANTONIO ZOLETI JUNIORQDU5299     988611152GK032063               BELEM6663511000000100285684   43,50PA
0660746948000112000100004103340000841          DAROCHA CORRETORA DE SEGUROS L290620173006201730062017V         Novo (previa)           IDALINA MARCIA SILVA SANTIAGONTC2772     WMWMF7102BTZ95693          ANANINDEUA6701572000001020163851   43,50PA
0660746948000112000100004104280000931           BRADESCOR COR DE SEGUROS LTDA070620170806201708062017V         Novo (previa)           MICHELLE TOQUETON VIEIRA SANOGAS0614     9BFZH54J1G8279640               BELEM6604025500000100058777   43,50PA
0660746948000112000100004104870000850               JUCA CORR DE SEGS SC LTDA230620172606201726062017V         Novo (previa)           IVANA BRUNA NABOR TAMASAUSKASQDK1560     9BD195A62F0658668               BELEM6663521000000100285684   43,50PA
0660746948000112000100004105970000850               JUCA CORR DE SEGS SC LTDA010620170206201702062017V         Novo (previa)          JOSIANE MONTEIRO NEGRAO MACIELOTW6877     9BHBG41DAFP444517          ANANINDEUA6714063500000100285684   43,50PA
0660746948000112000100004104190000841          MRFLSGB 10 CORRETORA SEGUROS L060620170706201707062017V         Novo (previa)                HERNAN NASCIMENTO LOBATOOFR6149     95PJN81BPDB044847          ANANINDEUA6703000000000100667862   43,50PA
0660746948000112000100004104960000850               JUCA CORR DE SEGS SC LTDA300620173006201730062017V         Novo (previa)        JOAO EDUARDO DE SENA SOUZA PINTOFFO3050     WBA3A5103DJ393169               BELEM6606390400000100285684   43,50PA
0660746948000112000100004104630000850                          ZUITH AQUINO C140620171606201716062017V         Novo (previa)         IZAURO CELIO MAIA DA COSTA NETOOCA3265     94DVDUD40CJ833985          ANANINDEUA6712595100000100634450   43,50PA
0660746948000112000100003712280000841          MOACIRSEG ASSES COR SEGS S/S L140620171406201714062017V         Novo (previa)              ANA PAULA CANTO DE ALMEIDAOSY9500     JMYXTGA2WCZA05312            SANTAREM6804043000000100386871   43,50PA
0660746948000112000100004412300000849                ADICIONAL CORR SEGS LTDA220620172306201723062017V         Novo (previa)                    ADRIANE CUNHA CANEDOQDC6208     93XXNKB8TFCE02347            SANTAREM6800508000000100447161   43,50PA
0660746948000112000100003712270000870           BONSAI NORTE COR DE SEGS LTDA140620171406201714062017V         Novo (previa)                   ROBSON FERREIRA PINTOQDH8041     9BD578377F7899031            SANTAREM6803500000001020091117   43,50PA
0660746948000112000100037123200000870           BONSAI NORTE COR DE SEGS LTDA240620172906201729062017V         Novo (previa)            FABIO LUIZ BRAZILEIRO PAIXAONOY0261     93XHYKH8WFCE15618            SANTAREM6800559000001020091117   43,50PA
0660746948000112000100003712310000849                ADICIONAL CORR SEGS LTDA230620172406201725062017V         Novo (previa)        PAULO SERGIO TAVARES DA SILVEIRANTC8464     9BD195162C0176716            SANTAREM6802047000000100447161   43,50PA
0660746948000112000100003712300000940          SEGURALTA OESTE COR DE SEGS LT270620172806201728062017V                Outros               DANIEL TSUYOSHI SHINOZAKIOCA8569     9BG124HP0BC488542            SANTAREM6800553000000100361011   43,50PA
0660746948000112000100003712230000849                ADICIONAL CORR SEGS LTDA050620170606201706062017V         Novo (previa)         EMPRESA DE NAVEGACAO SOUSA LTDAOTY9983     8AJYY59G6E6519937            SANTAREM6804000000000100447161   43,50PA
0660746948000112000100037122900000649          NORTE SUL CORRETORA DE SEGUROS210620172206201722062017V         Novo (previa)                  ORIVANDRO GARCIA CUNHAOAI3983     8AJYY59GXD6511354            SANTAREM6804013000001020106661   43,50PA
0660746948000112000100003712260000849                ADICIONAL CORR SEGS LTDA130620171406201714062017V         Novo (previa)        PAULO SERGIO TAVARES DA SILVEIRANTC8464     9BD195162C0176716            SANTAREM6802047000000100447161   43,50PA
0660746948000112000100003712240000849                ADICIONAL CORR SEGS LTDA060620170706201707062017V         Novo (previa)               ESTACAO ESPETOS EIRELI MEMWZ0824     9BG156MH0DC483995            SANTAREM6800510000000100447161   43,50PA
0660746948000112000100003712290000849                ADICIONAL CORR SEGS LTDA140620171406201714062017V         Novo (previa)   PREVENCAO COMERECIO DE EQUIP SEG LTDAOAF1831     8AJFY29G2F8567219            SANTAREM6804007500000100447161   43,50PA
0660746948000112000100003712340000873            BR CORRETORA DE SEGUROS LTDA290620173006201730062017V         Novo (previa)                 EDIVAL ALVES DOS SANTOSNOL5662     8AJFZ29G9C6155836            SANTAREM6803000000000100147028   43,50PA
0660746948000112000100004109510000835                CONVIVA COR DE SEGS LTDA280620172906201729062017V         Novo (previa)      AO BARREIRINHAS JUNIOR EIRELLI EPPQDP8082     9BG148MK0FC427159             TUCURUI6845876000000100541672   43,50PA
0660746948000112000100004800800000841          MARCORR COR E ADM DE SEGS LTDA060620170606201706062017V         Novo (previa)                WELLIGTON VITOR DA SILVANSL1442     8AJFZ29G9A6101725             TUCURUI6845676000000100374130   43,50PA
0660746948000112000100004800790000835                CONVIVA COR DE SEGS LTDA310520170106201701062017V         Novo (previa)               JANE SHEILA VAZ RODRIGUESOTD6844     KNAKU811BE5485535               BELEM6606016000000100541672   43,50PA
0660746948000112000100004635130000849              CRISTIANE SANTANA NOGUEIRA270620172706201727062017V         Novo (previa)                EDILSON MARTINS FERREIRANOJ1276     9BD17202LA3508563              MANAUS6904215000001020200986   43,50AM
0660746948000112000100004635110000849            J.C.NETO COR.E ADM.SEGS LTDA240620172706201727062017V         Novo (previa)             DIEGO FERNANDES AYOUB BAZZIPHA1440     8H1BB7AE6FY202039              MANAUS6903706300000100354945   43,50AM
0660746948000112000100004635140000849          JAMF CORRETORA DE SEGUROS LTDA280620172906201729062017V         Novo (previa)           ROSANGELA SONIA DA SILVA CRUZNOZ0773     9BWAA05U5CP127115              MANAUS6903920500000100409596   43,50AM
0660746948000112000100004601940000001           BRADESCOR COR DE SEGUROS LTDA020620170306201704062017P         Novo (previa)               MICHEL DO NASCIMENTO LINSPHG7934     9BHBG51CAGP583111              MANAUS6903700000000100058777   27,00AM
0660746948000112000100004635060000849          G G MOURA CORRETORA DE SEGUROS200620172106201721062017V         Novo (previa)                     OCELIO MELO TAVARESPHK9838     93Y9SR3JAHJ476812              MANAUS6908527500000100319783   43,50AM
0660746948000112000100004635080000840          PAULO OMENA ADM COR SEGS LTDA 210620172206201722062017V         Novo (previa)             JOSE DJALMA DE SOUZA JUNIOROAM2864     WV1DB42H9DA029315              MANAUS6905509000000100170704   43,50AM
0660746948000112000100004601990000001           BRADESCOR COR DE SEGUROS LTDA100620171206201712062017P         Novo (previa)                 MARILDA MEDEIROS PACKERATV0474     9BD11812EB1154022              MANAUS6903700000000100058777   27,00AM
0660746948000112000100004636510000866          INOVE INSURANCE CORR DE SEGS L300620173006201730062017V         Novo (previa)                              C S C MELONUK4370     9BD197163F3227745              MANAUS6905709000001020304250   43,50AM
0660746948000112000100004629260000854          SEGCORP ADM E CORR DE SEGRS LT310520170106201701062017V         Novo (previa)       GLAUCO ANTONIO DE FARIAS NOGUEIRAJWW0334     93YBB01253J399188              MANAUS6901015000001020121334   43,50AM
0660746948000112000100004636470000849          MMA CORRETORA DE SEGUROS LTDA 290620173006201730062017V         Novo (previa)     KARLA ELEONORA GARCIA MONTE QUEIROZNOV2842     9BD197132E3140915              MANAUS6908450000001020171420   43,50AM
0660746948000112000100004636410000849          ZONA FRANCA DAS AMERICAS-ASSES280620172906201729062017V         Novo (previa)           FRANCISCO MACIEL DO NASCIMETOPHZ1616     SALCA2BE0GH585259              MANAUS6906002000000100364789   43,50AM
0660746948000112000100004636110000849          JAMF CORRETORA DE SEGUROS LTDA220620172306201723062017V         Novo (previa)                    TALITA SENA DE SOUZAPHE4958     9BG148FA0FC429332              MANAUS6973500000000100409596   43,50AM
0660746948000112000100004629490000840          PAULO OMENA ADM COR SEGS LTDA 070620170806201708062017V         Novo (previa)         CARLOS ALBERTO PEREIRA DE SOUZAPHT1110     9BG148MK0HC434272              MANAUS6905305000000100170704   43,50AM
0660746948000112000100004636500000849            J.C.NETO COR.E ADM.SEGS LTDA290620173006201730062017V         Novo (previa)               LUIZ ALBERTO BARBOSA LIMAPHE6804     93XSNKB8TFCF09610              MANAUS6907906000000100354945   43,50AM
0660746948000112000100004636550000849          NB LEITE CORRETORA DE SEGS EPP300620173006201730062017V         Novo (previa)           MARILIA LOPES PIMENTA MOREIRAOAE3409     935FLKFVYCB549049              MANAUS6903650000001020327749   43,50AM
0660746948000112000100004629500000854          AURECOSTA CORR SEGS VIDA LTDA 070620170806201708062017V         Novo (previa)          CARMEM VALERYA ROMERO SALVIOMIPHI3853     9brblwhe4g0061745              MANAUS6905097000001020314973   43,50AM
0660746948000112000100004629800000849          G G MOURA CORRETORA DE SEGUROS160620171906201719062017V         Novo (previa)     FERNANDO MONTGORY DOS SANTOS CABRALPHF6903     9BGKT48R0FG343068              MANAUS6906505000000100319783   43,50AM
0660746948000112000100004629280000969          BIDU CORR DE SEGS E SERV DE IN310520170206201702062017V         Novo (previa)                    ROGERIO MACHADO REISNOV4304     9362MKFWXBB077667              MANAUS6905712000000100227943   43,50AM
0660746948000112000100004636490000849            J.C.NETO COR.E ADM.SEGS LTDA290620173006201730062017V         Novo (previa)               LUIZ ALBERTO BARBOSA LIMAJXE6341     9BWGF07X27P010942              MANAUS6907906000000100354945   43,50AM
0660746948000112000100004629540000849          G G MOURA CORRETORA DE SEGUROS090620171206201712062017V         Novo (previa)          MARIA EUNICE DE MELO ALEXANDREPHJ1285     9BGKL48U0HB206795              MANAUS6905011000000100319783   43,50AM
0660746948000112000100004629870000849          G G MOURA CORRETORA DE SEGUROS190620172006201720062017V         Novo (previa)     FABIOLA KELLY ROCHA FERREIRA SANTOSPHE4605     93HRV2830GZ107595              MANAUS6903073000000100319783   43,50AM
0660746948000112000100004636560000849            J.C.NETO COR.E ADM.SEGS LTDA300620173006201730062017V         Novo (previa)                  FELIPE DE ANDRADE LIRANON7399     9BD135613A2132190              MANAUS6903508000000100354945   43,50AM
0660746948000112000100004636540000849              CRISTIANE SANTANA NOGUEIRA300620173006201730062017V         Novo (previa)                    JOSE MALVINO BATISTAOAI2412     9BGKS69B0EG305111              MANAUS6906507000001020200986   43,50AM
0660746948000112000100004629550000849          CONSULCOR ADM CORT SEGS  IMOVE090620171206201712062017V         Novo (previa)          CARLOS CESAR MOREIRA CUPERTINONOT7171     8AP196271E4082234              MANAUS6909328100000100398250   43,50AM
0660746948000112000100004630000000840          TAUMATURGO E VEIGA COR DE SEGS210620172206201722062017V         Novo (previa)          CILENE MARIA DE OLIVEIRA PRADOPHK9205     8AGBB69S0HR141735              MANAUS6905700200000100678473   43,50AM
0660746948000112000100004629610000849          G G MOURA CORRETORA DE SEGUROS100620171206201712062017V         Novo (previa)                   IANE MARIA SOUSA LIMAOAO0484     93HGE6850EZ106116              MANAUS6904631000000100319783   43,50AM
0660746948000112000100004629590000849          G G MOURA CORRETORA DE SEGUROS100620171206201712062017V         Novo (previa)            MARIA DE LOURDES DE CARVALHOPHG4412     9BGKR48G0GG192959              MANAUS6901038000000100319783   43,50AM
0660746948000112000100004629290000840            VALFREDO RAIMUNDO ALVES PAES010620170206201702062017V         Novo (previa)                   DISTRIBUIDORA MODERNAPHK0402     8AJHA8CDXH2592163              MANAUS6901009000000100087181   43,50AM
0660746948000112000100004629320000849           BRADESCOR COR DE SEGUROS LTDA020620170306201704062017V         Novo (previa)               RILSON PINHEIRO DO AMARALNOT6994     9BFZE55P8B8671566              MANAUS6905335500000100058777   43,50AM
0660746948000112000100004629570000849            J.C.NETO COR.E ADM.SEGS LTDA090620171206201712062017V         Novo (previa)                NAIARA CRIS SANCHES SAIFPHJ8055     93HFC1690HZ119556              MANAUS6902930000000100354945   43,50AM
0660746948000112000100004629640000849          M S PINTO CORRETORA DE SEGUROS120620171306201713062017V         Novo (previa)                  RANGEL DA SILVA SOARESPHG0483     94DFCUK13GB105522              MANAUS6903611000001020393911   43,50AM
0660746948000112000100004636270000853             PROSEG ADM COR SRGS LTDA ME260620172706201727062017V         Novo (previa)           FRANCINEIDE MONTEIRO DA SILVANOV2849     93HGE6840AZ109129              MANAUS6904283000000100110523   43,50AM
0660746948000112000100004636340000840          ARTE REAL CORRETORA DE SEGUROS280620172906201729062017V         Novo (previa)                  KLEBER BASTOS LOUREIROPHL8100     9BG148MA0HC420367              MANAUS6905705000000100644226   43,50AM
0660746948000112000100004629360000840             SMCS CORRETORA DE SEGS LTDA030620170506201705062017V         Novo (previa)           JUSTO ALEXANDER RAMOS RAMIREZPHH9065     9bwjl45u2gp112093              MANAUS6903756300000100677281   43,50AM
0660746948000112000100004633460000001           BRADESCOR COR DE SEGUROS LTDA230620172606201726062017P         Novo (previa)                    MARIA JEANINE NELBERNOO7013     94DVDUD40AJ388594              MANAUS6903700000000100058777   27,00AM
0660746948000112000100004636210000840          LESLEY ADM.COR.DE SEGS S/C LTD240620172606201726062017V         Novo (previa)     DEBORAH GUIOMAR BULCAO B DOS SANTOSPHH3016     9BHBG51DBGP591641              MANAUS6905702400000100319252   43,50AM
0660746948000112000100004636190000001           BRADESCOR COR DE SEGUROS LTDA240620172606201726062017P         Novo (previa)                     NUBIA ALENCAR PIRESNOW3914     9BGRP48F0CG354322              MANAUS6903700000000100058777   27,00AM
0660746948000112000100004636360000840          GAD CORRETORA E ADM DE SEGS LT280620172906201729062017V         Novo (previa)                   JOAB SOUSA DOS SANTOSOAH9452     9BWAA45U8ET191070              MANAUS6906300000001020192436   43,50AM
0660746948000112000100004629750000840          L A DE SOUZA COSTA COR.DE SEGS140620171706201718062017V         Novo (previa)             WILSA CARLA FREIRE DA SILVAPHC5156     9BRB29BTXF2081075              MANAUS6906003100000100146862   43,50AM
0660746948000112000100004636080000849           BRADESCOR COR DE SEGUROS LTDA220620172306201723062017V         Novo (previa)           ANY KAROLINE PEREIRA CASTILHOPHL8499     9bwdb45uxht051892              MANAUS6903364000000100058777   43,50AM
0660746948000112000100004629690000840          GAD CORRETORA E ADM DE SEGS LT130620171406201714062017V         Novo (previa)                 HELENA MAIA MACIEL - MENOP5197     9BM68815898659181              MANAUS6902721100001020192436   43,50AM
0660746948000112000100004629480000849          CONSULCOR ADM CORT SEGS  IMOVE070620170806201708062017V         Novo (previa)              J L F AGRO INDUSTRIAL LTDAPHK1596     94DBFAN17HB100603              MANAUS6900504000000100398250   43,50AM
0660746948000112000100004636160000849          M S PINTO CORRETORA DE SEGUROS230620172406201725062017V         Novo (previa)               SUELLYN SIQUEIRA DE SOUZANOP5204     9BD17164LA5599982              MANAUS6902522000001020393911   43,50AM
0660746948000112000100004629410000849          G G MOURA CORRETORA DE SEGUROS060620170706201707062017V         Novo (previa)            RUBENS EDUARDO LEITE PORTELAPHJ7328     9BWAG45Z0G4070699             MANANUS6906807000000100319783   43,50AM
0660746948000112000100004636050000853             PROSEG ADM COR SRGS LTDA ME210620172206201722062017V         Novo (previa)          ISABEL CRISTINA COSTA MONTEIRONPB5521     8AFAR23L7EJ221617              MANAUS6905001000000100110523   43,50AM
0660746948000112000100004629730000853             PROSEG ADM COR SRGS LTDA ME140620171706201718062017V         Novo (previa)           CRISTIANO DOS SANTOS FERREIRAKWC7151     KMHTC61CBDU095837              MANAUS6901007000000100110523   43,50AM
0660746948000112000100004629720000840          FROESPRESS CORRETORA DE SEGS L130620171406201714062017V         Novo (previa)            SOLANGE DE FREITAS GONCALVESPHG2911     9BD19627MG2286051              MANAUS6907023000000100673331   43,50AM
0660746948000112000100004800960000850                          ZUITH AQUINO C080620170906201709062017V         Novo (previa)                ALDENOR DOS REIS E SILVAQEN3851     9BWJL45U8HP081854          ABAETETUBA6844000000000100634450   43,50PA
0660746948000112000100004304010000841          SAMPAIO & MOREIRA ADM CORR SEG290620173006201730062017V         Novo (previa)                AMERICO ARISTEU PINHEIROQDP2623     9BGPN69N0GB162335    VILA DOS CABANOS6844700000000100515639   43,50PA
0660746948000112000100004300200000841          SAMPAIO & MOREIRA ADM CORR SEG300620173006201730062017V         Novo (previa)               RONALDO LOPES DE ASSUNCAOQDN9828     8AJBA3CD5H1579870    VILA DOS CABANOS6844700000000100515639   43,50PA
0660746948000112000100004900230000850                          ZUITH AQUINO C160620171706201718062017V         Novo (previa)                      ERIC TAVARES SOUZAQEG2253     9BFZB55P7H8648250           BARCARENA6844700000000100634450   43,50PA
0660746948000112000100004305100000850                          ZUITH AQUINO C230620172606201726062017V         Novo (previa)                CAMILA CRISTINA ZACARIASPXE0434     93Y5SRD64GJ236169          ABAETETUBA6844000000000100634450   43,50PA
0660746948000112000100004305120000625          AGIL ADM E CORR SGRS PREST LTD240620172606201726062017V         Novo (previa)               FABIO JUNIO SOARES ARRUDAOFT1395     KMHEC41CBDA426885    VILA DOS CABANOS6844700000000100118796   43,50PA
0660746948000112000100004109390000841            PAULO R LESSA COR. SEGS LTDA220620172206201722062017V         Novo (previa)               MARIA REGINA PEREIRA GOESQEA7273     8AJKA8CD7H3167273           TAILANDIA6869500000000100287539   43,50PA
0660746948000112000100004109340000850                          ZUITH AQUINO C200620172006201720062017V         Novo (previa)                    JOAO RIBEIRO DE MELOQEJ4772     988226175HKA54164          ABAETETUBA6844000000000100634450   43,50PA
0660746948000112000100004109440000850           BRADESCOR COR DE SEGUROS LTDA270620172706201727062017V         Novo (previa)           ANTONIA FABIANA DA SILVA LINSQEO5321     9BD341A5XHY452942           BARCARENA6844700000000100058777   43,50PA
0660746948000112000100004800980000850                          ZUITH AQUINO C090620170906201709062017V         Novo (previa)                 MESSIAS DANTAS DE SOUZAQEF2923     9BWAB45Z5H4016301           BARCARENA6844500000000100634450   43,50PA
0660746948000112000100004109490000850                          ZUITH AQUINO C270620172806201728062017V         Novo (previa)                            MIGUEL KOZAKQDJ0872     8AJYY59G2F6529818           BARCARENA6844700000000100634450   43,50PA
0660746948000112000100004304000000850                          ZUITH AQUINO C290620173006201730062017V         Novo (previa)             GEDENUILSON OLIVEIRA MATTOSOTK2270     8AJFY29GXD8519660          ABAETETUBA6844000000000100634450   43,50PA
0660746948000112000100004900030000615          RUZINALDO PINHEIRO DE PINHEIRO100620171206201712062017V         Novo (previa)               ENOQUE DE MIRANDA CARDOSOOTK1386     9BWLB45U4FP033843           BARCARENA6844700000001020167253   43,50PA
0660746948000112000100004800850000850                          ZUITH AQUINO C060620170606201706062017V         Novo (previa)       NATALINA DE JESUS PANTOJA MENEZESQDM7493     8AFAR22F2GJ373707           BARCARENA6844500000000100634450   43,50PA
0660746948000112000100004305130000839          DOURASEG ADM.CORR.DE SEGS.LTDA230620172606201726062017V         Novo (previa)                  TADEU LEMES DOS SANTOSNUZ2000     8AJFZ29G6B6118581           BARCARENA6844500000000100065251   43,50PA
0660746948000112000100004109380000612          LM CORRETAGEM DE SEGUROS LTDA 210620172206201722062017V         Novo (previa)   LM DE FARIA GABRIEL LOCACAO EIRELI MENSN8524     9BD195183B0064263           TAILANDIA6855113400001020269552   43,50PA
0660746948000112000100004900220000850                          ZUITH AQUINO C160620171606201716062017V         Novo (previa)                   D S DA SILVA SERVICOSQDQ7584     988226117HKA67763           BARCARENA6844700000000100634450   43,50PA
0660746948000112000100004305110000850                          ZUITH AQUINO C230620172606201726062017V         Novo (previa)                   CLOVES SILVA DE SOUSAOBU8835     9BGCA80X0CB123339          ABAETETUBA6844000000000100634450   43,50PA
0660746948000112000100004800920000850          ORCY ALVES CORR DE SEGS LTDA M070620170806201708062017V         Novo (previa)              MARCELINO BOTELHO DA SILVAQDL1468     95PJU81DBGB029689           BARCARENA6844500000001020269994   43,50PA
0660746948000112000100004412760000850          BGSB CORRETORA DE SEGUROS LTDA290620173006201730062017V         Novo (previa)              FELIPE JOSE LOPES DE SOUZAOTM7322     9BWAB45Z3D4141114             IRITUIA6865500000000100560171   43,50PA
0660746948000112000100004411370000866          PARIS DAKAR CORR DE SEGS LTDA 070620170706201707062017V         Novo (previa)            ATAIDE XAVIER DE LIMA JUNIOROTP2998     WV1DB42H5EA030897         PARAGOMINAS6862854500001020097131   43,50PA
0660746948000112000100004411970000847          BGSB CORRETORA DE SEGUROS LTDA150620171606201716062017V         Novo (previa)      LEONARDO FELIPE SOARES DE OLIVIERAPAX3425     98861112XHK108845         PARAGOMINAS6862852100000100560171   43,50PA
0660746948000112000100004411980000847          BGSB CORRETORA DE SEGUROS LTDA140620171606201719062017V         Novo (previa)    DISTRIBUIDORA DE BEBIDAS ENERGIA LTDAVI0000     9531M52PXJR804279         PARAGOMINAS6862509000000100560171   43,50PA
0660746948000112000100004412750000850          BGSB CORRETORA DE SEGUROS LTDA290620173006201730062017V         Novo (previa)         NAGILHA GOMES MATEUS DE ANDRADEOQB0156     9BWAA05U0ET039180          MAE DO RIO6867500000000100560171   43,50PA
0660746948000112000100004411990000841          BGSB CORRETORA DE SEGUROS LTDA160620171606201716062017V         Novo (previa)          SILVIO NORITOMO LINS TAKANASHIOTA4957     9BFZB55H5E8859337         PARAGOMINAS6862848700000100560171   43,50PA
0660746948000112000100004411580000847          BGSB CORRETORA DE SEGUROS LTDA080620170906201709062017V         Novo (previa)                     GABRIEL LOPES PERESOTJ2764     93HFB9670EZ180580         PARAGOMINAS6862745100000100560171   43,50PA
0660746948000112000100004412780000847          VALE CORRETORA DE SEGUROS EIRE300620173006201730062017V         Novo (previa)                  CAMILO RODRIGUES COSTAHFU0502     JMYLYV98WBJA00565         PARAGOMINAS6862514000001020308230   43,50PA
0660746948000112000100004412040000841          PARAMAZON CORRETORA DE SEGUROS190620172006201720062017V         Novo (previa)                  JOSE HENRIQUE PANCIERIQEP3300     8AJBA3CD0G1564742            TOME-ACU6868000000000100691747   43,50PA
0660746948000112000100004412070000841            AIMORES CORR DE SEGUROS LTDA200620172106201721062017V         Novo (previa)             BRENO FIGUEIREDO DE ALENCARQDD4577     8AJFY22G1F8026382             IRITUIA6865500000000100167550   43,50PA
0660746948000112000100004412370000847          BGSB CORRETORA DE SEGUROS LTDA260620172606201726062017V         Novo (previa)           ANTONIO SILVA FERNANDES FILHOHGZ1354     9BGCS80X0BB308325         PARAGOMINAS6862529500000100560171   43,50PA
0660746948000112000100004412730000850           BRADESCOR COR DE SEGUROS LTDA290620173006201730062017V         Novo (previa)              JOAO RENATO DE PAIVA PERESNSX0054     KNAKUB13BB5175071          MAE DO RIO6867500000000100058777   43,50PA
0660746948000112000100004411290000847          VALE CORRETORA DE SEGUROS EIRE050620170606201706062017V         Novo (previa)                   ANDRE CARVALHO ARAUJOOTX5673     8AJFY29G0E8557223         PARAGOMINAS6862524500001020308230   43,50PA
0660746948000112000100004411390000841          CARAJAS ADM E COR DE SEGS LTDA060620170806201708062017V         Novo (previa)                 JOSE MARTINS DE HOLANDAQEM3699     8AJBA3CD8H1592290             IRITUIA6865500000000100115860   43,50PA
0660746948000112000100004411300000644          CHICO ADM E CORRET DE SEGUROS 050620170606201706062017V         Novo (previa)         PAMELA MARGARIDA BUGNO DE SOUZAATB8819     9BM958461AB735697         PARAGOMINAS6862754200000100691224   43,50PA
0660746948000112000100004412440000847          BGSB CORRETORA DE SEGUROS LTDA230620172706201727062017V         Novo (previa)           ANTONIO EDNALDO LIMA DA SILVAOFV4165     9BG148MH0DC419006     IPIXUNA DO PARA6863700000000100560171   43,50PA
0660746948000112000100004412140000847          BGSB CORRETORA DE SEGUROS LTDA220620172206201722062017V         Novo (previa)          MARMOREAL INDUSTRIA E COMERCIOQDR4593     9BD57814UGB053297         PARAGOMINAS6862855300000100560171   43,50PA
0660746948000112000100004628900000849          MMA CORRETORA DE SEGUROS LTDA 080620170906201709062017V         Novo (previa)              VICTORIA BRAGA DE MENDONCAOAM2677     3C3BFFBR3CT195819              MANAUS6905575500001020171420   43,50AM
0660746948000112000100004633170000849          ZONA FRANCA DAS AMERICAS-ASSES140620171706201718062017V         Novo (previa)                   SHELLY MOUSE DE SOUZAPHD2455     9BHGC813BHP024378              MANAUS6905517000000100364789   43,50AM
0660746948000112000100004633210000853             PROSEG ADM COR SRGS LTDA ME170620171906201719062017V         Novo (previa)                 ARINALDO VITORINO GOMESIWC3233     9bfzd55p4fb766959              MANAUS6903551000000100110523   43,50AM
0660746948000112000100004633180000840          FROESPRESS CORRETORA DE SEGS L140620171706201718062017V         Novo (previa)                GILVAN SOARES NASCIMENTONOS8203     9BD27804MA7252312              MANAUS6905881300000100673331   43,50AM
0660746948000112000100004629760000849          ZONA FRANCA DAS AMERICAS-ASSES140620171706201718062017V         Novo (previa)               JOAO PAULO FERREIRA FILHOOAM3423     8AJFY29G6D8539176              MANAUS6905000100000100364789   43,50AM
0660746948000112000100004633480000840          KANDASEG ELMATEK COR.DE SEGS.L230620172606201726062017V         Novo (previa)                 CELIOMAR GOMES DA SILVAPHK9043     KNAPH814BG5181284              MANAUS6909845500000100416061   43,50AM
0660746948000112000100004633200000849          ZONA FRANCA DAS AMERICAS-ASSES140620171706201718062017V         Novo (previa)              SARAH PATRICIA COSTA MOURAOAL9881     94DFDUK13FB501434              MANAUS6905312000000100364789   43,50AM
0660746948000112000100004628490000840           CSU CORRETORA DE SEGUROS LTDA310520170106201701062017V         Novo (previa)                  PAOLA PACHECO BLEICKERPHH5354     935SUNFN2GB520775              MANAUS6904832500000100637157   43,50AM
0660746948000112000100004628840000849          JAMF CORRETORA DE SEGUROS LTDA080620170806201708062017V         Novo (previa)                     DELSON PINTO VILACAOAM1076     KNAFW411BC5954738              MANAUS6909508000000100409596   43,50AM
0660746948000112000100004633580000849          G G MOURA CORRETORA DE SEGUROS260620172706201727062017V         Novo (previa)            INDISTRIA E SERVICOS QUALITYOAA5764     9brbl42e7e4767384              MANAUS6904535000000100319783   43,50AM
0660746948000112000100004633250000840          MONAZITA SERV ADM E CORR DE SE190620172006201720062017V         Novo (previa)MARIA DO PERPETUO SOCORRO TEIXEIRA ARRUDPHC2254     9BG148LA0FC425268              MANAUS6904315700000100421995   43,50AM
0660746948000112000100004628860000840          ALCORR CORRETORES E AGENTES DE080620170906201709062017V         Novo (previa)            NARCISO CLAUDIO REBELO NUNESJXF2961     8AFER13P48J143736              MANAUS6904514000001020057539   43,50AM
0660746948000112000100004633750000849          JAMF CORRETORA DE SEGUROS LTDA290620173006201730062017V         Novo (previa)              IVAN CARLOS RUFINO BATISTAPHH0185     9BGKS48G0GG251540              MANAUS6909359200000100409596   43,50AM
0660746948000112000100004633070000849          JAMF CORRETORA DE SEGUROS LTDA100620171206201712062017V         Novo (previa)         MARIA MADALENA MARREIRA BARBOZAOAD9111     9BD197132F3202413              MANAUS6909732700000100409596   43,50AM
0660746948000112000100004633540000854           BJB CORRETORA DE SEGUROS LTDA260620172706201727062017V         Novo (previa)                     ELITA LIMA DE SOUZAPHH4274     9BD19626TG2284129              MANAUS6909718500000100558699   43,50AM
0660746948000112000100004633810000969          MINUTO CORRETORA DE SEGUROS S 300620173006201730062017V         Novo (previa)       SABRINA LINA BARREIRO CARNEIRO DAOAE4185     9BRK19BT8D2002860              MANAUS6904102500000100230758   43,50AM
0660746948000112000100004633280000840          LESLEY ADM.COR.DE SEGS S/C LTD200620172106201721062017V         Novo (previa)                   RICARDO NETO HATHERLYPHF3146     KNABX519BFT940512              MANAUS6905502100000100319252   43,50AM
0660746948000112000100004628890000840          A.A.BRAGA JR.ADM.COR.SEGS.LTDA080620170906201709062017V         Novo (previa)                     WILSON WOLTER FILHONPB5121     JTMDD4EV7ED051450              MANAUS6905571000000100340553   43,50AM
0660746948000112000100004633260000849          G G MOURA CORRETORA DE SEGUROS190620172006201720062017V         Novo (previa)              SAMUEL ALMEIDA DE OLIVEIRANOU4280     9bgrx4810ag174925              MANAUS6909377000000100319783   43,50AM
0660746948000112000100004633610000849            J.C.NETO COR.E ADM.SEGS LTDA260620172706201727062017V         Novo (previa)             MARIO CESAR AGUIAR DE SOUZAPHD5275     8ajba3fs4h0239237              MANAUS6905875000000100354945   43,50AM
0660746948000112000100004628610000849          LESLEY ADM.COR.DE SEGS S/C LTD010620170206201702062017V         Novo (previa)               ARTEIZA SOUSA DE CARVALHOOAD2030     KNCSHX73AB7599733              MANAUS6905012500000100319252   43,50AM
0660746948000112000100004633440000010          ATUANTE CENTER COR.DE SEGS.E G220620172306201723062017P         Novo (previa)                VANDERLAN PESSOA MOREIRAOAM9237     9BRBD48E6D2591006              MANAUS6903700000000100198528   27,00AM
0660746948000112000100004633530000840          ADONIS ADM E CORR DE SEGS LTDA240620172606201726062017V         Novo (previa)                   RITA DE LIMA NOGUEIRAPHE4366     93XHYKB8TGCF11623              MANAUS6905883000000100185825   43,50AM
0660746948000112000100004633010000969          MINUTO CORRETORA DE SEGUROS S 090620171206201712062017V         Novo (previa)                 ANDRE LEANDRO PREISSLERPHI1488     988226175HKA75005              MANAUS6909301800000100230758   43,50AM
0660746948000112000100004633430000849              CRISTIANE SANTANA NOGUEIRA220620172306201723062017V         Novo (previa)                 TANNER SILVA DE QUEIROZJXQ7735     9bg138tj08c406846              MANAUS6909827000001020200986   43,50AM
0660746948000112000100004628720000849          JAMF CORRETORA DE SEGUROS LTDA050620170606201706062017V         Novo (previa)               JECIMIEL DA SILVA SANTANAPHH7177     9bgkt48r0gg119940              MANAUS6909900000000100409596   43,50AM
0660746948000112000100004633640000840          LESLEY ADM.COR.DE SEGS S/C LTD270620172806201728062017V         Novo (previa)            THALITA DA SILVEIRA CASTILHOPHL1317     9BD19627ZH2296395              MANAUS6908623000000100319252   43,50AM
0660746948000112000100004633450000849          ATUANTE CENTER COR.DE SEGS.E G200620172306201723062017V         Novo (previa)                VANDERLAN PESSOA MOREIRAOAM9237     9BRBD48E6D2591006              MANAUS6905812500000100198528   43,50AM
0660746948000112000100004633020000840          ALCORR CORRETORES E AGENTES DE090620171206201712062017V         Novo (previa)           ANA LUCIA MONTEIRO DE ALENCARPHD2315     9BD341A5XHY463996              MANAUS6905522000001020057539   43,50AM
0660746948000112000100004628630000840          JACKSON KERGINALDO DE O. S. ME020620170306201704062017V         Novo (previa)            HORLANDO HALIX RIBEIRO BRITONAP5797     9BD195A9MF0681731              MANAUS6905066200000100686409   43,50AM
0660746948000112000100004633590000849          JAMF CORRETORA DE SEGUROS LTDA260620172706201727062017V         Novo (previa)               FRANCISCO MARTINS DE LIMAPHI0569     9bgjb69v0hb114205              MANAUS6902101000000100409596   43,50AM
0660746948000112000100004633560000840          ALCORR CORRETORES E AGENTES DE260620172706201727062017V         Novo (previa)             ANTONIO DE OLIVEIRA MACHADONOM8379     9bwaa05u09p015010              MANAUS6905416000001020057539   43,50AM
0660746948000112000100004633410000840          FROESPRESS CORRETORA DE SEGS L210620172206201722062017V         Novo (previa)               ELIVAN NASCIMENTO DE LIMAPHC8726     9BGKT48R0FG407480              MANAUS6901559500000100673331   43,50AM
0660746948000112000100004633130000849          M S PINTO CORRETORA DE SEGUROS130620171406201714062017V         Novo (previa)                  RANGEL DA SILVA SOARESPHI9823     9bd17122zg7583891              MANAUS6905803000001020393911   43,50AM
0660746948000112000100004633660000849          JAMF CORRETORA DE SEGUROS LTDA270620172806201728062017V         Novo (previa)            ROSILENE PEREIRA SALES ALVESJXV6961     9bd17201xc3591375              MANAUS6909251000000100409596   43,50AM
0660746948000112000100004628660000849            J.C.NETO COR.E ADM.SEGS LTDA050620170506201705062017V         Novo (previa)                  PALOAM CARDOSO DA NOVOPHE0020     93hfb9640gz202339              MANAUS6905502100000100354945   43,50AM
0660746948000112000100004633650000849          G G MOURA CORRETORA DE SEGUROS270620172806201728062017V         Novo (previa)                     IRAM ROCHA DA SILVAPHJ5125     9BGKL48U0HB206300              MANAUS6902303000000100319783   43,50AM
0660746948000112000100004628420000849          ZONA FRANCA DAS AMERICAS-ASSES310520170206201702062017V         Novo (previa)      RIPASA COM E REP DE ALIMENTOS LTDANOS8134     95PZBN7HPCB032437              MANAUS6905919000000100364789   43,50AM
0660746948000112000100004633320000849          ZONA FRANCA DAS AMERICAS-ASSES210620172206201722062017V         Novo (previa)       RIPASA COM E REP D ALIMENTOS LTDANOS8084     95PZBN7HPCB032438              MANAUS6905919000000100364789   43,50AM
0660746948000112000100004628880000854              SIEL ADM CORR DE SEGS LTDA080620170906201709062017V         Novo (previa)          LUIZ ANTONIO DE OLIVEIRA FEIJOPHH7507     9BWJB45U2GP053405              MANAUS6905031000000100308811   43,50AM
0660746948000112000100004633330000849          ZONA FRANCA DAS AMERICAS-ASSES210620172206201722062017V         Novo (previa)       RIPASA COM E REP D ALIMENTOS LTDANOS8134     95PZBN7HPCB032437              MANAUS6905919000000100364789   43,50AM
0660746948000112000100004633370000849          ZONA FRANCA DAS AMERICAS-ASSES210620172206201722062017V         Novo (previa)       RIPASA COM E REP D ALIMENTOS LTDANOV4768     95PZBN7HPBB023808              MANAUS6905919000000100364789   43,50AM
0660746948000112000100004633310000849          ZONA FRANCA DAS AMERICAS-ASSES210620172206201722062017V         Novo (previa)       RIPASA COM E REP D ALIMENTOS LTDANOL5106     95PZCN7HP9B014588              MANAUS6905919000000100364789   43,50AM
0660746948000112000100004633340000849          ZONA FRANCA DAS AMERICAS-ASSES210620172206201722062017V         Novo (previa)       RIPASA COM E REP D ALIMENTOS LTDAJXO0031     9BM6881589B692826              MANAUS6905919000000100364789   43,50AM
0660746948000112000100004633300000849          ZONA FRANCA DAS AMERICAS-ASSES210620172206201722062017V         Novo (previa)       RIPASA COM E REP D ALIMENTOS LTDAOAN7694     9531M52P0DR344893              MANAUS6905919000000100364789   43,50AM
0660746948000112000100004633350000849          ZONA FRANCA DAS AMERICAS-ASSES210620172206201722062017V         Novo (previa)       RIPASA COM E REP D ALIMENTOS LTDAOAN7704     9531M52P2DR344894              MANAUS6905919000000100364789   43,50AM
0660746948000112000100004633730000840          L A DE SOUZA COSTA COR.DE SEGS280620172906201729062017V         Novo (previa)               CLEDSON IRAN LOBATO NAHUMOXM9511     9BHBG51DBEP257330              MANAUS6905820400000100146862   43,50AM
0660746948000112000100004633290000849          ZONA FRANCA DAS AMERICAS-ASSES210620172206201722062017V         Novo (previa)       RIPASA COM E REP D ALIMENTOS LTDANOW9782     9531M52P6DR345031              MANAUS6905919000000100364789   43,50AM
0660746948000112000100004633380000849          ZONA FRANCA DAS AMERICAS-ASSES210620172206201722062017V         Novo (previa)       RIPASA COM E REP D ALIMENTOS LTDAOAI7973     9BWNF07X8EP006009              MANAUS6905919000000100364789   43,50AM
0660746948000112000100004633390000849          ZONA FRANCA DAS AMERICAS-ASSES210620172206201722062017V         Novo (previa)       RIPASA COM E REP D ALIMENTOS LTDAOAI7993     9BWNF07X5EP005996              MANAUS6905919000000100364789   43,50AM
0660746948000112000100004628690000639           LC MARINHO ADM E CORR SEGS SC030620170506201705062017V         Novo (previa)               EDUARDO MONTEIRO DA ROCHAPHB3237     9BG148MA0FC406276              MANAUS6909749200000100266922   43,50AM
0660746948000112000100004633360000849          ZONA FRANCA DAS AMERICAS-ASSES210620172206201722062017V         Novo (previa)       RIPASA COM E REP D ALIMENTOS LTDAOAI8003     9BWNF07X3EP005396              MANAUS6905919000000100364789   43,50AM
0660746948000112000100004636530000853             PROSEG ADM COR SRGS LTDA ME300620173006201730062017V         Novo (previa)                 RIMMAN ARANTES LOURENCOOAF9262     9BGJC69X0EB228637              MANAUS6905701500000100110523   43,50AM
0660746948000112000100004633140000840          LUIZ CARLOS DA SILVA RODRIGUES140620171706201718062017V         Novo (previa)       RAIMUNDO CLAUVANDIR BESERRA BESSANOY3062     9BD578141E7737796              MANAUS6902802000001020361947   43,50AM
0660746948000112000100004628730000849            J.C.NETO COR.E ADM.SEGS LTDA050620170606201706062017V         Novo (previa)                   ANTONIO FERREIRA LIMAOXM1988     93XFRH77WFCE91315              MANAUS6909078500000100354945   43,50AM
0660746948000112000100004628780000849          ROSAN E NUNES COR DE SEGS LTDA060620170706201707062017V         Novo (previa)                  LEIA PINHEIRO DE SOUZAPHI2365     9BGJC69E0GB165722              MANAUS6902300300001020185669   43,50AM
0660746948000112000100004628820000849            J.C.NETO COR.E ADM.SEGS LTDA070620170806201708062017V         Novo (previa)       ANA ELIZABETH MARTINIANO B BRANCOOAF6828     KNAPB811BC7170904              MANAUS6909401100000100354945   43,50AM
0660746948000112000100004633760000849            J.C.NETO COR.E ADM.SEGS LTDA290620173006201730062017V         Novo (previa)                    ELMO PONTES DA COSTAPHH2645     93HRV2850GZ155911              MANAUS6909008000000100354945   43,50AM
0660746948000112000100004628510000840           AMAZON DELTA COR.DE SEGS.LTDA310520170106201701062017V         Novo (previa)            LUCIMAR FERNANDES DOS SANTOSOAE0395     93hfb2650dz220494              MANAUS6905426000000100575984   43,50AM
0660746948000112000100004633740000849            J.C.NETO COR.E ADM.SEGS LTDA290620173006201730062017V         Novo (previa)             TRANSGATAO TRANSPORTES LTDANOM5646     9BSG6X40093648259              MANAUS6901561300000100354945   43,50AM
0660746948000112000100004633790000849            J.C.NETO COR.E ADM.SEGS LTDA300620173006201730062017V         Novo (previa)               EDIMILSON COSTA DE CASTROJXR8611     94DVCGD40CJ984379              MANAUS6905840000000100354945   43,50AM
0660746948000112000100004628530000849          ZONA FRANCA DAS AMERICAS-ASSES310520170106201701062017V         Novo (previa)        RIPASA COM E REP DE ALIMENTOS LTNOL5106     95PZCN7HP9B014588              MANAUS6905919000000100364789   43,50AM
0660746948000112000100004628550000849          ZONA FRANCA DAS AMERICAS-ASSES310520170106201701062017V         Novo (previa)        RIPASA COM E REP DE ALIMENTOS LTOAN7694     9531M52P0DR344893              MANAUS6905919000000100364789   43,50AM
0660746948000112000100004633160000849          G G MOURA CORRETORA DE SEGUROS140620171706201718062017V         Novo (previa)                     ELTON SOUZA DA CRUZPHK0705     9BG148MK0JC401156              MANAUS6905820400000100319783   43,50AM
0660746948000112000100004628570000849           BRADESCOR COR DE SEGUROS LTDA010620170206201702062017V         Novo (previa)                   DANNY DE ARRUDA GUEDEPHK5351     9bfzh55l7g8320644              MANAUS6904101000000100058777   43,50AM
0660746948000112000100004628540000849          ZONA FRANCA DAS AMERICAS-ASSES310520170106201701062017V         Novo (previa)        RIPASA COM E REP DE ALIMENTOS LTNOW9782     9531M52P6DR345031              MANAUS6905919000000100364789   43,50AM
0660746948000112000100004633150000840          LESLEY ADM.COR.DE SEGS S/C LTD140620171706201718062017V         Novo (previa)             JOSE DE ARIMATEIA MELQUIDESOAL5355     9BD27804MD7660813              MANAUS6909071500000100319252   43,50AM
0660746948000112000100004622410000853             PROSEG ADM COR SRGS LTDA ME010620170206201702062017V         Novo (previa)       LUIZ HENRIQUE FUJARRA PIRRONE VAZNTI2840     9BFZE55H5B8603329           BOA VISTA6930503000000100110523   43,50RR
0660746948000112000100004622960000849          S BORGES ALCANTARA COR.DE SEGS190620172006201720062017V         Novo (previa)     ROSIANE DE FATIMA ALMEIDA RODRIGUESNAU5537     9BG148LA0HC424744           BOA VISTA6930659500000100577685   43,50RR
