0460746948000112000100004407910000851          UNIVERSO CORRETORA DE SEGS LTD240420172604201726042017V         Novo (previa)                     SANDRA AZEVEDO LIMAOTX7460     3N1CN7ad2EK410651  SAO FELIX DO XINGU6838000000000100169684   43,50PA
0460746948000112000100004700810000841          CVK CORRETORA E ADM SEGUROS LT270420172804201728042017V             Renovacao                      JOSE NATAL MARIANOQET5000     9BG148FA0FC402201  SAO FELIX DO XINGU6838500000000100674702   43,50PA
0460746948000112000100004700340000862          BRUMADO ADM E CORR DE SEGS LTD110420171104201711042017V         Novo (previa)      JC LOCACAO DE VEIC AUTO SS LTDA MEJFQ0418     9BM6881566B450381               ANAPU6836500000000100249921   43,50PA
0460746948000112000100004700620000850           BRADESCOR COR DE SEGUROS LTDA210420172404201724042017V         Novo (previa)                 RENATA NEVES FIGUEIREDOQDU5933     9BWAB45Z0H4036505    VITORIA DO XINGU6838300000000100058777   43,50PA
0460746948000112000100004700270000850          NIPPON HASEGAWA COR SG VIDA LT060420170704201707042017V         Novo (previa)                     ROMILDO SILVA ROCHAOMN5579     8AJFY29GXE8561666            ALTAMIRA6836500000000100504815   43,50PA
0460746948000112000100004700510000866          ALEXANDRE MIRANDA COR DE SEGS 180420171804201718042017V         Novo (previa)                    VICTOR COSTA PORDEUSNUN7039     KNAFU411BB5898331    VITORIA DO XINGU6838390000000100605158   43,50PA
0460746948000112000100004700610000850          NIPPON HASEGAWA COR SG VIDA LT200420172404201724042017V         Novo (previa)                  MANOEL SILVA VALADARESOTW3325     8AJFY29G9E8565398               ANAPU6836500000000100504815   43,50PA
0460746948000112000100004700690000850          NIPPON HASEGAWA COR SG VIDA LT240420172504201725042017V         Novo (previa)                  FRANCISCO ALVES VIEIRAJIX0892     8AJFZ29G6C6149556            ALTAMIRA6836500000000100504815   43,50PA
0460746948000112000100004700310000850          NIPPON HASEGAWA COR SG VIDA LT080420170804201709042017V         Novo (previa)        JAIA MARIA MOREIRA DE JESUS LIMAQDE7828     9BGKS48R0FG470822            ALTAMIRA6836500000000100504815   43,50PA
0460746948000112000100004407450000835          SANTA IZABEL ADM COR SEGS LTDA110420171204201712042017V         Novo (previa)                MAYANNE DOS SANTOS SOUSAMWR9829     8AJFR22G084528758         PARAUAPEBAS6851500000000100137413   43,50PA
0460746948000112000100004407990000866                CAMED ADM CORR SEGS LTDA240420172504201725042017V         Novo (previa)                   P A DA COSTA LEITE MENWD6859     9BFVCE1N6CBB95236         PARAUAPEBAS6851500000000100098957   43,50PA
0460746948000112000100004407260000835          MARISTA CORRETORA DE SEGUROS L080420171004201710042017V         Novo (previa)               DIRCELIA PEREIRA DE PAULAOLI7080     8AJFY29G0D8528741         PARAUAPEBAS6851500000000100411914   43,50PA
0460746948000112000100004618960000849          ZONA FRANCA DAS AMERICAS-ASSES270420172804201728042017V         Novo (previa)                JOAO PAULO PEREIRA FILHOOAM3423     8AJFY29G6D8539176              MANAUS6905000100000100364789   43,50AM
0460746948000112000100004618460000969          BIDU CORR DE SEGS E SERV DE IN120420171304201713042017V         Novo (previa)    RAIMUNDO ROGERIO BANDEIRA DE ALMEIDAPGW3461     93YH3RAF5HJ535897              MANAUS6903700000000100227943   43,50AM
0460746948000112000100004618940000849          CONSULCOR ADM CORT SEGS  IMOVE270420172704201727042017V         Novo (previa)            LUIZA HELENA DE SOUZA VIEIRAJXY0291     9BHBH51DBDP030769              MANAUS6904729100000100398250   43,50AM
0460746948000112000100004618030000849          G G MOURA CORRETORA DE SEGUROS010420170304201703042017V         Novo (previa)              VERA LUCIA BEZERRA RAULINOPHC0391     9BD195A7MF0675468              MANAUS6904700000000100319783   43,50AM
0460746948000112000100004618040000849            J.C.NETO COR.E ADM.SEGS LTDA010420170304201703042017V         Novo (previa)             RAIMUNDO NONATO GOMES BAIMAPHG7851     9BD19713MG3283970              MANAUS6904208000000100354945   43,50AM
0460746948000112000100004618440000849          LESLEY ADM.COR.DE SEGS S/C LTD110420171204201712042017V         Novo (previa)          ANA FRANCISCA DE ABREU PEREIRAPCY6462     8AP372110F6113196              MANAUS6904314000000100319252   43,50AM
0460746948000112000100004618450000840           AMAZON DELTA COR.DE SEGS.LTDA120420171304201713042017V             Renovacao                     JOSE PEREIRA PONTESOAE1091     8AJEX32G2E4038731              MANAUS6904711000000100575984   43,50AM
0460746948000112000100004618130000849          MMA CORRETORA DE SEGUROS LTDA 040420170504201705042017V         Novo (previa) H P S TELECOMUNICACOES E AUTOMOCAO LTDAOAJ8672     KNAPC817BE7540035              MANAUS6904000300001020171420   43,50AM
0460746948000112000100004618110000849          G G MOURA CORRETORA DE SEGUROS040420170504201705042017V         Novo (previa)                    GESIEL CRISPIM SILVAPHG5927     9BGKT69R0FG439082              MANAUS6904846000000100319783   43,50AM
0460746948000112000100004618080000849          ATUANTE CENTER COR.DE SEGS.E G030420170404201705042017V         Novo (previa)              ALCYRLENE MONTEIRO WAUGHAMOAI3932     93yhsr6p5ej969949              MANAUS6904000000000100198528   43,50AM
0460746948000112000100004625010000849          ZONA FRANCA DAS AMERICAS-ASSES270420172804201728042017V         Novo (previa)               ADAO SERAFIM SALGADO NETOPHL8090     9BG148MK0HC427149              MANAUS6905882500000100364789   43,50AM
0460746948000112000100004618490000849          TAMUZ CORRETORA DE SEGUROS S/S130420171704201717042017V         Novo (previa)                 MANOEL FERREIRA DE LIMAJXR0992     93XJRKB8T9C910111              MANAUS6904574000000100580082   43,50AM
0460746948000112000100004618310000849            J.C.NETO COR.E ADM.SEGS LTDA070420170804201709042017V         Novo (previa)                      C A C SALGADO LTDANON4669     9BM6953049B662011              MANAUS6905882500000100354945   43,50AM
0460746948000112000100004618660000849            J.C.NETO COR.E ADM.SEGS LTDA190420172004201720042017V         Novo (previa)           JOAO BOSCO LIMA DO NASCIMENTOPWW0490     9BHBG41DBFP522127              MANAUS6909341500000100354945   43,50AM
0460746948000112000100004618720000849          G G MOURA CORRETORA DE SEGUROS200420172404201724042017V         Novo (previa)      INDUSTRIA DE SERVICOS QUALITY LTDAOAJ3673     8AJFY29G9D8538362              MANAUS6904535000000100319783   43,50AM
0460746948000112000100004625040000849          G G MOURA CORRETORA DE SEGUROS280420172804201728042017V         Novo (previa)    AGUAS CLARAS SERV E TRANS MARIT LTDAOAJ5577     8AJFZ29G4C6150804              MANAUS6903002000000100319783   43,50AM
0460746948000112000100004618680000849          LESLEY ADM.COR.DE SEGS S/C LTD200420172004201720042017V         Novo (previa)               ARTEIZA SOUSA DE CARVALHOOAA7086     KMHJU81BBCU247934              MANAUS6905012500000100319252   43,50AM
0460746948000112000100004618700000849          LESLEY ADM.COR.DE SEGS S/C LTD200420172004201720042017V         Novo (previa)         ANA FRANCISCA DE ABREU PERREIRAPCY6462     8AP372110F6113196              MANAUS6904314000000100319252   43,50AM
0460746948000112000100004618790000840          ANAUE ADM.E COR.DE SEGUROS LTD240420172504201725042017V         Novo (previa)                   ANDRE LUIZ DE ANDRADENPB1092     WDDGF3BW6EA912798              MANAUS6903703000000100478636   43,50AM
0460746948000112000100004618510000853             PROSEG ADM COR SRGS LTDA ME130420171704201717042017V         Novo (previa)           VANDERLEY GUILHERME FIGUEREDOFQU1783     935slyfyyfb509575              MANAUS6903068000000100110523   43,50AM
0460746948000112000100004618540000849            J.C.NETO COR.E ADM.SEGS LTDA170420171804201718042017V         Novo (previa)             LEONTINO IZIDORIO DE BARROSOAM4766     9BWDA05U4DT190406              MANAUS6907909000000100354945   43,50AM
0460746948000112000100004618200000849          MMA CORRETORA DE SEGUROS LTDA 060420170704201707042017V         Novo (previa)                     SAMANTHA PINHO NINAPHE1463     9BHBG51CAFP400509              MANAUS6903734000001020171420   43,50AM
0460746948000112000100004618550000849            J.C.NETO COR.E ADM.SEGS LTDA170420171804201718042017V         Novo (previa)                           ARJUN DAYARAMPHL8253     9BHBG51CAHP734441              MANAUS6902215500000100354945   43,50AM
0460746948000112000100004618250000840          FROESPRESS CORRETORA DE SEGS L070420170804201709042017V         Novo (previa)                 M DE FATIMA SANTIAGO MEPHE0765     9BD19716TF3254849              MANAUS6904300000000100673331   43,50AM
0460746948000112000100004618600000849          ZONA FRANCA DAS AMERICAS-ASSES180420171904201719042017V         Novo (previa)          HELENO LOPES DA ROCHA SEGUNDOONOS8768     9bfzf55a7b8096756              MANAUS6904470000000100364789   43,50AM
0460746948000112000100004618580000849          ZONA FRANCA DAS AMERICAS-ASSES170420171804201718042017V         Novo (previa)                   FELIPE DMES GONCALVESPHJ7439     93XHTCY4AGCF03639              MANAUS6904853000000100364789   43,50AM
0460746948000112000100004618920000849          ZONA FRANCA DAS AMERICAS-ASSES260420172704201727042017V         Novo (previa)                     PUNTO ADRIANOPOLIS PHL5591     99adj78v2g4003184              MANAUS6903700500000100364789   43,50AM
0460746948000112000100004618340000840          ABBA CORRETORA DE SEGUROS LTDA070420171004201710042017V         Novo (previa)               SAHMIA MARINHO ABDEL AZIZOAO2509     93HFB2680DZ204793              MANAUS6903650000000100706990   43,50AM
0460746948000112000100004618900000849           ABG CORR DE SEGS DE VIDA LTDA260420172704201727042017V         Novo (previa)                  GABRIEL NEVES MILHOMEMPHJ9803     3GNCJ8CZ4HL184318              MANAUS6905503800001020341458   43,50AM
0460746948000112000100004618990000849          G G MOURA CORRETORA DE SEGUROS270420172804201728042017V         Novo (previa)           LUIZ CARLOS DOS SANTOS JUNIOROAO5306     3G1J85CD0DS503981              MANAUS6905540000000100319783   43,50AM
0460746948000112000100004618910000849          LESLEY ADM.COR.DE SEGS S/C LTD260420172704201727042017V         Novo (previa)                LUCIANA ALMEIDA DE SOUZANOP8822     93HFB2630EZ100786              MANAUS6905883000000100319252   43,50AM
0460746948000112000100004618050000849          ATUANTE CENTER COR.DE SEGS.E G010420170304201703042017V         Novo (previa)                 SIMONE LIRA DE OLIVEIRAOAH6105     9BD17164LD5853795              MANAUS6904311000000100198528   43,50AM
0460746948000112000100004618370000840           AMAZON DELTA COR.DE SEGS.LTDA100420171104201711042017V         Novo (previa)             AMAZONAVEIS TAXI AEREO LTDAPHK0543     9BG148MA0GC432689              MANAUS6905803000000100575984   43,50AM
0460746948000112000100004618420000849          JAMF CORRETORA DE SEGUROS LTDA110420171204201712042017V         Novo (previa)              JAMILE PINTO DA SIL SOMBRAPHF3528     9BGKT48R0FG418423              MANAUS6904800000000100409596   43,50AM
0460746948000112000100004617610000840          ACAPU SERV E CORR DE SEGS LTDA110420171204201712042017V         Novo (previa)           JOAQUIM ANTONIO TEIXEIRA NETONOX7392     8AFAR23L4EJ138873              MANAUS6906002000000100188638   43,50AM
0460746948000112000100004617620000849          ZONA FRANCA DAS AMERICAS-ASSES110420171204201712042017V         Novo (previa)      GIOVANNA MARIA DE OLIVEIRA PEREIRAPHN0391     9BRK29BT5H0108679              MANAUS6901033000000100364789   43,50AM
0460746948000112000100004617240000849            SSG COR DE SEGS DE VIDA LTDA030420170404201704042017V         Novo (previa)                  THIAGO LITAIFF PADILHAOAC9602     9BGPN68M0EB215879              MANAUS6909313200001020344899   43,50AM
0460746948000112000100004617260000840          ZONA FRANCA DAS AMERICAS-ASSES030420170404201704042017V                Outros           RAIMUNDO EVANDRO ALVES DUARTEPHH4480     93HFB9640GZ223391              MANAUS6908600000000100364789   43,50AM
0460746948000112000100004623250000849          ROSAN E NUNES COR DE SEGS LTDA280420172804201728042017V         Novo (previa)        DIMITRI LEANDRO DE FREITAS MUNIZOAO3528     9BWDA05UXDT168605              MANAUS6906351000001020185669   43,50AM
0460746948000112000100004617650000849          MMA CORRETORA DE SEGUROS LTDA 130420171304201713042017V         Novo (previa) DAYANA APARECIDA MARINHO CASTELO BRANCOPHA3880     9BGKF69B0FG165750              MANAUS6905825000001020171420   43,50AM
0460746948000112000100004617920000849            J.C.NETO COR.E ADM.SEGS LTDA200420172404201724042017V         Novo (previa)          MARIA JUCINEILE DA SILVA ABREUOAM6407     9bwab05z0d4099445              MANAUS6907783800000100354945   43,50AM
0460746948000112000100004617280000840          FROESPRESS CORRETORA DE SEGS L040420170504201705042017V         Novo (previa)  BENDSTEEL DA AMAZONIA IND E COM DE ESTNON7921     9BFZB55H8E8876083              MANAUS6905518000000100673331   43,50AM
0460746948000112000100004623290000940          SEGURALTA OESTE COR DE SEGS LT280420172804201728042017V             Renovacao    KC JOBIM COMERCIO DE TINTAS LTDA EPPOAO3092     93ZC53C01E8454395              MANAUS6906001000000100361011   43,50AM
0460746948000112000100004617900000840          ALCORR CORRETORES E AGENTES DE200420172404201724042017V             Renovacao       JOSE MARCELO DE CASTRO LIMA FILHOPHO4040     3C6UR5FLXGG193552              MANAUS6906046000001020057539   43,50AM
0460746948000112000100004617640000849          G G MOURA CORRETORA DE SEGUROS120420171304201713042017V         Novo (previa)                LUCINETE VIEIRA DA SILVAOAJ3884     9BD27804MD7669670              MANAUS6908655500000100319783   43,50AM
0460746948000112000100004617960000639           LC MARINHO ADM E CORR SEGS SC200420172404201724042017V             Renovacao          SEBASTIAO DE OLIVEIRA DA SILVAPHB1915     93XHNKB8TFCE02715              MANAUS6908500000000100266922   43,50AM
0460746948000112000100004617450000849          MMA CORRETORA DE SEGUROS LTDA 070420170804201709042017V         Novo (previa)                LUCILENE FLORENCIO VIANAPHL4760     9BGKS48V0HG123856              MANAUS6906002000001020171420   43,50AM
0460746948000112000100004617360000840           CSU CORRETORA DE SEGUROS LTDA050420170604201706042017V         Novo (previa)       TEREZA CRISTINA SOUZA DE OLIVEIRAJXL0111     8AFER13PXAJ299592              MANAUS6906002000000100637157   43,50AM
0460746948000112000100004617710000849          JAMF CORRETORA DE SEGUROS LTDA170420171804201718042017V         Novo (previa)                    E BIANCA DA SILVA MEOAK7452     93YMAF4LAEJ224934              MANAUS6909073000000100409596   43,50AM
0460746948000112000100004623030000849           ABG CORR DE SEGS DE VIDA LTDA240420172504201725042017V         Novo (previa)               ROSILENE DE OLIVEIRA MOTAPHB6932     9BWJB45U7FP129523              MANAUS6908428000001020341458   43,50AM
0460746948000112000100004617380000849          JAMF CORRETORA DE SEGUROS LTDA060420170704201707042017V             Renovacao             EDNALDO MONTEIRO DOS SANTOSPHE9441     8AP372171F6113235              MANAUS6909776600000100409596   43,50AM
0460746948000112000100004617980000849          ZONA FRANCA DAS AMERICAS-ASSES240420172504201725042017V         Novo (previa)           RAIMUNDO EVANDRO ALVES DUARTEPHH4480     93HFB9640GZ223391              MANAUS6908600000000100364789   43,50AM
0460746948000112000100004623010000840          SUANAM ADM DE CONS E COR DE SE240420172504201725042017V         Novo (previa) BIOPLUS COM E REP MED SERV EQUIP H LTDAPHH6080     9BWAA45U8GT012612              MANAUS6908300000000100691992   43,50AM
0460746948000112000100004617870000657          KIRTON CORRETORA DE SEGUROS S 190420172004201720042017V          Substituicao              JANDERSON DOS SANTOS HORTAARI9731     9BGRX4810AG112104              MANAUS6906059000000100063860   43,50AM
0460746948000112000100004617780000840          ALCORR CORRETORES E AGENTES DE180420171904201719042017V         Novo (previa)                    ALADIA OLIVEIRA IZELPHA3887     9BRBDWHEXF0225124              MANAUS6906002000001020057539   43,50AM
0460746948000112000100004617410000849          TAMUZ CORRETORA DE SEGUROS S/S060420170704201707042017V         Novo (previa)    TRANSPORTES DE CARGAS ROMAKE LTDA MEMMH1519     9BFXEB2B8DBS50175              MANAUS6906801000000100580082   43,50AM
0460746948000112000100004617420000840          GAD CORRETORA E ADM DE SEGS LT060420170704201707042017V         Novo (previa)               MARCELA CARVALHO DE SOUZANOP1354     9BWAA05Z9B4010911              MANAUS6907774500001020192436   43,50AM
0460746948000112000100004617750000849          ZONA FRANCA DAS AMERICAS-ASSES170420171804201718042017V                Outros                 ALCILENE CASANOVA GOMESNOT0058     8AP196271E4051564              MANAUS6903005000000100364789   43,50AM
0460746948000112000100004623100000840          PARVI CORRETORA DE SEGUROS LTD260420172704201727042017V         Novo (previa)               HENRIQUE SAMPAIO CARVALHOPHI3863     9BRK19BT3G2068995              MANAUS6906058000000100538329   43,50AM
0460746948000112000100004623090000840          LESLEY ADM.COR.DE SEGS S/C LTD260420172704201727042017V         Novo (previa)            EDINBERGH CALDAS DE OLIVEIRANOR6392     9bhbg51cadp049998              MANAUS6907779800000100319252   43,50AM
0460746948000112000100004617190000966             AP & H CORRETORA DE SEGUROS010420170304201703042017V         Novo (previa)        TRANSIRE FABR DE COMP ELETR LTDAOAN1771     9BD265122F9030246              MANAUS6908903500000100677302   43,50AM
0460746948000112000100004617460000849           BRADESCOR COR DE SEGUROS LTDA070420171004201710042017V         Novo (previa)           ANA MARIA PEREIRA DE OLIVEIRANOY9461     8AGSU19F0ER187576              MANAUS6906000000000100058777   43,50AM
0460746948000112000100004623120000849          JAMF CORRETORA DE SEGUROS LTDA260420172704201727042017V         Novo (previa)      ANTONIO MARCOS CORDEIRO DE MENEZESPHH8960     9BWJB45UXGP053961              MANAUS6903747300000100409596   43,50AM
0460746948000112000100004617510000840          FROESPRESS CORRETORA DE SEGS L080420171004201710042017V                Outros        VITO EDUARDO DE AMORIM ANDRELINONOW0041     93HFB9670EZ182595              MANAUS6906026000000100673331   43,50AM
0460746948000112000100004623110000853             PROSEG ADM COR SRGS LTDA ME260420172704201727042017V         Novo (previa)          IVO FABIANO DE MESQUITA AMORIMPHJ4813     9BGKT48R0GG219411              MANAUS6907570500000100110523   43,50AM
0460746948000112000100004617530000840          ANAUE ADM.E COR.DE SEGUROS LTD100420171104201711042017V         Novo (previa)                   ANDRE LUIZ DE ANDRADENPB1092     WDDGF3BW6EA912798              MANAUS6903703000000100478636   43,50AM
0460746948000112000100004623130000849          G G MOURA CORRETORA DE SEGUROS260420172704201727042017V         Novo (previa)                  MIQUEIAS ARAUJO MACIELPHH8078     9BGKA48G0FG429453              MANAUS6903559000000100319783   43,50AM
0460746948000112000100004617840000854           J S COR.E ADM.DE SEGUROS LTDA190420172004201720042017V         Novo (previa)          ADRIANE UNAH GODINHO RODRIGUESPHE3361     94DFCUK13FB500007              MANAUS6906010300000100099848   43,50AM
0460746948000112000100004623170000849          ROSAN E NUNES COR DE SEGS LTDA260420172704201727042017V         Novo (previa)                            IRAN CARRIELNOS1902     9C2SC6910DR001457              MANAUS6900831000001020185669   43,50AM
0460746948000112000100004617560000840           SEGURAR SERV E COR DE SEGUROS100420171104201711042017V         Novo (previa)        FRANCISCO CIRILO ANUNCIACAO NETOPHD0601     WDCDA2EW5FA537645              MANAUS6906002000001020143575   43,50AM
0460746948000112000100004617270000849            J.C.NETO COR.E ADM.SEGS LTDA040420170504201705042017V         Novo (previa)                        IMAD CHARIF REDAOXM9188     93XXNKB8TFCE01109              MANAUS6905366000000100354945   43,50AM
0460746948000112000100004617580000849          LESLEY ADM.COR.DE SEGS S/C LTD100420171104201711042017V         Novo (previa)                 DANIEL ANDRADE DE SOUZAPHC6453     9BD578341F7912666              MANAUS6907355000000100319252   43,50AM
0460746948000112000100004407020000635               YMC ADM E COR DE SEG LTDA030420170404201704042017V         Novo (previa)                     JOSE PEREIRA ARAUJOOTP2793     8AGCN48X0ER143399              MARABA6851341000001020272413   43,50PA
0460746948000112000100004407860000847           BRADESCOR COR DE SEGUROS LTDA190420172004201720042017V         Novo (previa)              MARILENE ALVES DE MESQUITANSM5665     9BGRX48F0BG146588              MARABA6850617000000100058777   43,50PA
0460746948000112000100004407680000635               YMC ADM E COR DE SEG LTDA170420171804201718042017V         Novo (previa)                          MRS CASSINI MEJJV6908     9BWAB41J6D4006175              MARABA6851341000001020272413   43,50PA
0460746948000112000100004407170000847          C R S CORRETORA DE SEG EIRELI 070420171004201710042017V         Novo (previa)            MARIA ALICE CARDOSO DA SILVAQEM1098     9BFZH55L0J8463622              MARABA6850124000001020299222   43,50PA
0460746948000112000100004407410000841          CVK CORRETORA E ADM SEGUROS LT100420171104201711042017V         Novo (previa)                         ESMAEL DA SILVANSP3159     9BG138JJ0AC405995   GOIANESIA DO PARA6863900000000100674702   43,50PA
0460746948000112000100003809990000940          SEGURALTA OESTE COR DE SEGS LT120420171204201712042017V         Novo (previa)            ANTONIA NILZA CAJADO MACHADOOTB8401     9BGPB69M0CB329150            ITAITUBA6818025000000100361011   43,50PA
0460746948000112000100004407940000841          MRFLSGB 10 CORRETORA SEGUROS L240420172404201724042017V         Novo (previa)         ANA INACIA CARVALHO DE OLIVEIRAPHD0472     8AJKA8CD4H3165304            ITAITUBA6818100500000100667862   43,50PA
0460746948000112000100003809950000838            M & K COR DE SEGUROS LTDA ME070420171004201713042017V         Novo (previa)                  JESIELITA ROMA GOUVEIAQDT6808     9BG148MA0HC414736            ITAITUBA6818109000001020123329   43,50PA
0460746948000112000100004407560000851          UNIVERSO CORRETORA DE SEGS LTD120420171304201713042017V         Novo (previa)             TELMA VERAS QUEIROZ PARENTEOWS1622     9BWAA45U3ET148899 OURILANDIA DO NORTE6839000000000100169684   43,50PA
0460746948000112000100004407920000841              MURILO DE CASTRO VITORIANO200420172404201724042017V         Novo (previa)COOPERATIVA MISTA AGROPECUARIA DE TUCUMAOCA1162     9536T8270CR239425              TUCUMA6838500000001020265239   43,50PA
0460746948000112000100004407930000841              MURILO DE CASTRO VITORIANO200420172404201724042017V         Novo (previa)COOPERATIVA MISTA AGROPECUARIA DE TUCUMAOFP4632     9AA071336CC109216              TUCUMA6838500000001020265239   43,50PA
0460746948000112000100004407760000842          VIP CENTER ADM. E CORR. SEGURO190420172004201720042017V         Novo (previa)         TALLE KARLOS PEREIRA DOS SANTOSOLM4251     9BGKT69L0EG310477 OURILANDIA DO NORTE6839000000000100672238   43,50PA
0460746948000112000100004407810000841              MURILO DE CASTRO VITORIANO190420172004201720042017V         Novo (previa)          ANTONIO AUGUSTO MUNHOZ MARTINSQDF1357     9BGJC75E0GB109960  SAO FELIX DO XINGU6838000000001020265239   43,50PA
0460746948000112000100004408300000841          AGIL CORRETORA DE SEGUROS LTDA280420172804201728042017V         Novo (previa)                    CICERO MODESTO BRITOONS8046     9BG148EK0EC453044 OURILANDIA DO NORTE6839000000001020134835   43,50PA
0460746948000112000100004407530000929              NOIVA DA COLINA COR SEG LT120420171304201713042017V         Novo (previa)         HENRY MENDERSON MENDES DE SOUZAGHT3201     9BHBG51DBHP651961              TUCUMA6838500000000100458597   43,50PA
0460746948000112000100004408290000851          UNIVERSO CORRETORA DE SEGS LTD280420172804201728042017V         Novo (previa)    JACKLINY GRACIA DE OLIVEIRA MASSOLIOQDQ8923     9BWDB45U7HT008921 OURILANDIA DO NORTE6839000000000100169684   43,50PA
0460746948000112000100004700400000851          UNIVERSO CORRETORA DE SEGS LTD120420171204201717042017V         Novo (previa)               MARCIO FRANCISCO DA SILVAPXE7342     9BRBDWHE9G0296042              TUCUMA6838500000000100169684   43,50PA
0460746948000112000100004408340000851          UNIVERSO CORRETORA DE SEGS LTD280420172804201728042017V         Novo (previa)    SUPERMERCADO SERVILAR DE TUCUMA LTDAQEV9699     93XTYKL1THCG01950              TUCUMA6838500000000100169684   43,50PA
0460746948000112000100004407070000851           BRADESCOR COR DE SEGUROS LTDA040420170504201705042017V         Novo (previa)   LEONARDO AUGUSTO TRAVASSOS DOS SANTOSQEY8800     988611151GK018465              TUCUMA6838500000000100058777   43,50PA
0460746948000112000100004407080000851          UNIVERSO CORRETORA DE SEGS LTD040420170504201705042017V         Novo (previa)    SUPERMERCADO SERVILAR DE TUCUMA LTDAQEV9699     93XTYKL1THCG01950              TUCUMA6838500000000100169684   43,50PA
0460746948000112000100004408090000841          AGIL CORRETORA DE SEGUROS LTDA250420172604201726042017V         Novo (previa)                    DIOMARIO LOPES COSTAPQL8476     8AFAR23L6FJ309513              TUCUMA6838500000001020134835   43,50PA
0460746948000112000100004407140000851          UNIVERSO CORRETORA DE SEGS LTD060420170604201706042017V         Novo (previa)             RONALDO DE MOURA BRANQUINHOODA9506     8AJFZ29G6C6147886              TUCUMA6838500000000100169684   43,50PA
0460746948000112000100004407150000841          AGIL CORRETORA DE SEGUROS LTDA060420170604201706042017V         Novo (previa)                 CERAMICA MIILER LTDA MEOBX1344     93XJNKB8TCCC49154              TUCUMA6838500000001020134835   43,50PA
0460746948000112000100004408040000851          UNIVERSO CORRETORA DE SEGS LTD250420172604201726042017V      Reducao franquia                   ARISTEU JACOB KASPARYQDD5407     93XSNKB8TGCF17132              TUCUMA6838500000000100169684   43,50PA
0460746948000112000100004407880000835                  LIDER COR DE SEGS LTDA200420172004201720042017V             Renovacao               KENIA CRISTINA SILVA COTAOMI4769     8AJFY29GXE8547959  SAO FELIX DO XINGU6838000000000100145149   43,50PA
0460746948000112000100004408030000841              MURILO DE CASTRO VITORIANO250420172604201726042017V         Novo (previa)            LUSSANDRA CONCEICAO DA SAUSAONO7307     9BWAA45U1Ep118695              TUCUMA6838500000001020265239   43,50PA
0460746948000112000100004407330000841           RAYSEG COR E ADM DE SEGS LTDA100420171104201711042017V             Renovacao                  FLAVIANE TAVARES MATOSPQZ9516     93Y9SR0F5GJ354876 OURILANDIA DO NORTE6839000000001020004265   43,50PA
0460746948000112000100004407390000842          VIP CENTER ADM. E CORR. SEGURO110420171204201712042017V         Novo (previa)               MARCIA CRISTINA GONCALVESPHZ2829     8AJFY22G6F8017354  SAO FELIX DO XINGU6838000000000100672238   43,50PA
0460746948000112000100004407200000842          VIP CENTER ADM. E CORR. SEGURO070420171004201710042017V         Novo (previa)         TALLE KARLOS PEREIRA DOS SANTOSOLM4251     9BGKT69L0EG310477 OURILANDIA DO NORTE6839000000000100672238   43,50PA
0460746948000112000100004407870000842          VIP CENTER ADM. E CORR. SEGURO200420172004201720042017V             Renovacao                   DARLENE DA SILVA FIMAMWG4383     9BD17164LB5721379  SAO FELIX DO XINGU6838597000000100672238   43,50PA
0460746948000112000100004407890000841          MARCORR COR E ADM DE SEGS LTDA200420172404201724042017V         Novo (previa)                     ELIANE DIAS CORREIANTC2695     93XJNKB8TCCB35748  SAO FELIX DO XINGU6838000000000100374130   43,50PA
0460746948000112000100004407740000841          AGIL CORRETORA DE SEGUROS LTDA180420171904201719042017V         Novo (previa)                    DIOMARIO LOPES COSTAPQL8476     8AFAR23L6FJ309513              TUCUMA6838500000001020134835   43,50PA
0460746948000112000100004407210000851          UNIVERSO CORRETORA DE SEGS LTD080420171004201710042017V         Novo (previa)                   TEREZA FERREIRA RAMOSQEJ8991     9BD17144ZG7553678              TUCUMA6838500000000100169684   43,50PA
0460746948000112000100004408100000844          OUROECOELHO COR ADM SEG CON LT260420172604201726042017V         Novo (previa)                        BEROCI JOSE NERYJVK1257     8AJFZ29G586068278              TUCUMA6838500000001020045000   43,50PA
0460746948000112000100004407800000841             AX CORRETA COR DE SEGS LTDA190420172004201720042017V         Novo (previa)              ROSILDA MOREIRA DE MIRANDAOTS7868     9BFZB55H4F8987506 OURILANDIA DO NORTE6839000000001020004206   43,50PA
0460746948000112000100004408160000851          UNIVERSO CORRETORA DE SEGS LTD260420172704201727042017V         Novo (previa)                 EDIVALDO OLIVEIRA SILVAONC2528     9BG148FK0FC401249              TUCUMA6838500000000100169684   43,50PA
0460746948000112000100004408180000845          SERRA DA MESA  CORR DE SEGS LT270420172704201727042017V         Novo (previa)                       JOEL GOMES GUERRAONJ8419     9BG148FK0EC446734 OURILANDIA DO NORTE6839000000000100724076   43,50PA
0460746948000112000100004407900000657          KIRTON CORRETORA DE SEGUROS S 200420172404201724042017V         Novo (previa)                  VIVIANE CARLA GUARNERIPGT6306     9BHBG41DBEP189622            REDENCAO6855241200000100063860   43,50PA
0460746948000112000100004407130000835           CORASBEG CORRETORA DE SEGUROS040420170604201706042017V         Novo (previa)           JOAO CLAUDIO CAETANO LINHARESPQR3084     8AJFX29G0F6608543 SANTANA DO ARAGUAIA6856000000000100102636   43,50PA
0460746948000112000100004406980000851          MARCORR COR E ADM DE SEGS LTDA030420170404201704042017V         Novo (previa)            SEBASTIAO CIRQUEIRA DE ABREUOTZ4585     9bwag4128ft527627 SANTANA DO ARAGUAIA6856000000000100374130   43,50PA
0460746948000112000100004407300000837          BETRIA CORRETORA DE SEGUROS LT080420171004201710042017V         Novo (previa)                            OSCAR COELHOQDL0200     8AJFY29G7F8570536            REDENCAO6855100000000100544396   43,50PA
0460746948000112000100004407110000851          MARCORR COR E ADM DE SEGS LTDA050420170504201705042017V         Novo (previa)                TENILDA PEREIRA DE SOUZAPRM5690     95PJN81EPGB090275 SANTANA DO ARAGUAIA6856000000000100374130   43,50PA
0460746948000112000100004407440000835          GB4 COR E ADM DE SEGUROS LTDA-110420171204201712042017V         Novo (previa)              FERNANDO LIMA BARROS SILVANSB4943     9BWAA05U6EP063136            XINGUARA6855501500001020240171   43,50PA
0460746948000112000100004407510000851          SN CORRETORA DE SEGUROS LTDA M120420171204201712042017V         Novo (previa)                    JURACI ALVES DA CRUZOSZ3922     9BG148MH0DC461793            XINGUARA6855501100001020305419   43,50PA
0460746948000112000100004407600000835          MASTERCOR CORR ADM SEGS LTDA M130420171704201717042017V         Novo (previa)                   VERONICA PEREIRA LIMAOMJ3439     8AJFY29G7E8551726           RIO MARIA6853000000001020058713   43,50PA
0460746948000112000100004407590000835          WINDER CORRETORA DE SEGUROS LT130420171704201717042017V         Novo (previa)               ROGERIO BRUNO DE CARVALHOOMQ7619     8AJFY29G6F8568471            XINGUARA6855564000001020196113   43,50PA
0460746948000112000100004407250000851          SN CORRETORA DE SEGUROS LTDA M080420171004201710042017V         Novo (previa)      MARLENE APARECIDA GRISOTTO MELOTTOJVQ6643     9BWJB09NX8P052788            XINGUARA6853000000001020305419   43,50PA
0460746948000112000100004408060000841                 VERONA ADM COR SEG LTDA250420172604201726042017V         Novo (previa)                GILMAR GARCIA DE FREITASQER0070     9BD578341F7922765            XINGUARA6855501100000100144801   43,50PA
0460746948000112000100004408050000841          MARCORR COR E ADM DE SEGS LTDA250420172604201726042017V         Novo (previa)                 ANTONIO CANDIDO RIBEIROQDT3650     9BGKT69L0FG296320            XINGUARA6855501100000100374130   43,50PA
0460746948000112000100004408080000841                 VERONA ADM COR SEG LTDA250420172604201726042017V         Novo (previa)           DILENE RUBIA MARTINS DE BRITOOTL8996     9BGKS48B0FG153315            XINGUARA6855530000000100144801   43,50PA
0460746948000112000100004408140000851          SN CORRETORA DE SEGUROS LTDA M260420172704201727042017V         Novo (previa)                 JOSE RODRIGUES DA SILVAQEJ3180     8AJFY28G1F8590524            XINGUARA6855503100001020305419   43,50PA
0460746948000112000100004407490000851          SN CORRETORA DE SEGUROS LTDA M120420171204201712042017V         Novo (previa)                   HUGO ADNA SOUTO KOZAKOGR5327     3VWDJ2163CM047115            XINGUARA6855520100001020305419   43,50PA
0460746948000112000100004406930000835          WINDER CORRETORA DE SEGUROS LT030420170304201703042017V         Novo (previa)               ROGERIO BRUNO DE CARVALHOOMQ7619     8AJFY29G6F8568471            XINGUARA6855564000001020196113   43,50PA
0460746948000112000100004407370000835          MASTERCOR CORR ADM SEGS LTDA M110420171204201712042017V     Parcela em atraso                      JOSE MANOEL BASTOSQEK2862     9BWAA45U4GP515594           RIO MARIA6853000000001020058713   43,50PA
0460746948000112000100004406940000851          MARCORR COR E ADM DE SEGS LTDA030420170304201703042017V         Novo (previa)                W OLIVEIRA E CIA LTDA MEQDL3078     WV1SD42H6FA055861            XINGUARA6855501100000100374130   43,50PA
0460746948000112000100004700370000850             AZUNAV CORR DE SEGUROS LTDA110420171104201711042017V         Novo (previa)                  FABIANO TRINTADE COSTANEM2224     93YHSR6P5EJ780171              MACAPA6890127100000100611611   43,50AP
0460746948000112000100004700190000850             AZUNAV CORR DE SEGUROS LTDA040420170404201704042017V         Novo (previa)                           E T DE S LIRANEI1632     8AP196271D4026337             SANTANA6892506700000100611611   43,50AP
0460746948000112000100004700280000641                UNICOOB COR DE SEGS LTDA060420170704201707042017V         Novo (previa)                   A. G. ALVES ROCHA EPPNET9307     9BFXEB1B0DBS12022              MACAPA6890909400000100562670   43,50AP
0460746948000112000100004700290000850             AZUNAV CORR DE SEGUROS LTDA060420170804201709042017V         Novo (previa)              MAYANIE CAMPOS DE OLIVEIRANES2303     9BHBG41CAFP324011              MACAPA6890009700000100611611   43,50AP
0460746948000112000100004700530000661           BRADESCOR COR DE SEGUROS LTDA170420171804201718042017V         Novo (previa)             ANA CRISTINA CAMPOS DE LIMANEY4098     94DFDUK13FB501570             SANTANA6892507600000100058777   43,50AP
0460746948000112000100004700520000850             AZUNAV CORR DE SEGUROS LTDA170420171804201718042017V         Novo (previa)                         F S C SANTOS MENEQ9719     9BD578241E7759455              MACAPA6890932000000100611611   43,50AP
0460746948000112000100004700580000850             AZUNAV CORR DE SEGUROS LTDA190420172004201720042017V         Novo (previa)                  FABIANO TRINDADE COSTANEM2224     93YHSR6P5EJ780171              MACAPA6890127100000100611611   43,50AP
0460746948000112000100004700570000850             AZUNAV CORR DE SEGUROS LTDA190420172004201720042017V         Novo (previa)                  ALMIR PEREIRA DA SILVAQLO8584     8AJBA3CD3H1586686              MACAPA6890009700000100611611   43,50AP
0460746948000112000100004700790000850             AZUNAV CORR DE SEGUROS LTDA270420172704201727042017V         Novo (previa)             JOAO BOSCO DE SOUZA DA CRUZNEM6661     8AJFY29G6D8521549              MACAPA6890009700000100611611   43,50AP
0460746948000112000100004700780000850             AZUNAV CORR DE SEGUROS LTDA270420172704201727042017V         Novo (previa)                    NOE DA SILVA MENEZESNEP7611     3C4PFABBXCT259507              MACAPA6890988400000100611611   43,50AP
0460746948000112000100004108890000850          ORCY ALVES CORR DE SEGS LTDA M050420170604201706042017V         Novo (previa)       ANDERSON ENRIU MINORI DE CARVALHONSL0213     JMYLYV98WAJA00488               BELEM6605326000001020269994   43,50PA
0460746948000112000100004106270000984          LAZAM MDS COR E ADM DE SEGS SA110420171204201712042017V         Novo (previa)       MARIA DE LOURDES CARVALHO O BRIENQEH8082     9BHBG41CAGP553556               BELEM6609304700000100059188   43,50PA
0460746948000112000100004106010000850          DAROCHA CORRETORA DE SEGUROS L050420170604201706042017V         Novo (previa)                ELIZETE LOPES DOS SANTOSJHK1048     9BWAA05U19P000788            MARITUBA6720000000001020163851   43,50PA
0460746948000112000100004108810000853             PROSEG ADM COR SRGS LTDA ME120420171304201713042017V         Novo (previa)                 AURELIANA SILVA CARDOSOJVV0755     9BD17164LA5412388               BELEM6607322000000100110523   43,50PA
0460746948000112000100004106510000850          PARABUCANO COR DE SEGS SS LTDA200420172404201724042017V         Novo (previa)                HERALDO MARQUES NOGUEIRAOFR1257     9BGJC69Z0DB141441               BELEM6608771000000100377244   43,50PA
0460746948000112000100004106380000850          DAROCHA CORRETORA DE SEGUROS L170420171904201719042017V         Novo (previa)                  ISAIAS PEREIRA SARAIVAOBU0783     9BWAB45Z6D4002644          ANANINDEUA6714502700001020163851   43,50PA
0460746948000112000100004106100000850          DAROCHA CORRETORA DE SEGUROS L060420170704201707042017V         Novo (previa)                     JOAO MEIRA DE SOUZANSO8779     9BWDB09N4AP016131          ANANINDEUA6714057000001020163851   43,50PA
0460746948000112000100004106080000835          SANTA IZABEL ADM COR SEGS LTDA050420170604201706042017V         Novo (previa)       CASTANHEIRA COMERCIO DE CAFE LTDAJVX7995     93KP0E0C69E117761               BELEM6664500300000100137413   43,50PA
0460746948000112000100004106040000841          MRFLSGB 10 CORRETORA SEGUROS L050420170604201706042017V         Novo (previa)            ANTONIO ADENOR DE PAULA LIMAOFI9576     8AJFZ29GXB6139224           BENEVIDES6879500000000100667862   43,50PA
0460746948000112000100004106340000850          BRONI CORRETORA DE SEGUROS LTD130420171304201713042017V         Novo (previa)              DIEGO RODRIGO HABR DE LIMAOFW0880     KNAFW411BC5428098               BELEM6665000000000100419621   43,50PA
0460746948000112000100004106360000969          BIDU CORR DE SEGS E SERV DE IN170420171804201718042017V         Novo (previa)                    JOAQUIM JOSE DE LIMAOTK7972     9BGCA80X0DB281383          ANANINDEUA6703000000000100227943   43,50PA
0460746948000112000100004108770000280          RODOBENS ADM E COR DE SEGS LTD070420170804201709042017V         Novo (previa)      CAIO QUEIROZ DE BRITO EIRELI - EPPABC1234     9BM979028GS034622            MARITUBA6720000000000100204056   43,50PA
0460746948000112000100004106300000850           BRADESCOR COR DE SEGUROS LTDA130420171704201717042017V         Novo (previa)           MARCELINO TRINDADE DE FREITASOFO7789     93HGM2620DZ117085               BELEM6606028100000100058777   43,50PA
0460746948000112000100004106770000850          NIPPON HASEGAWA COR SG VIDA LT260420172704201727042017V         Novo (previa)                  MACKY SOUZA NASCIMENTOOPK8473     9BD195193D0442816          ANANINDEUA6701025000000100504815   43,50PA
0460746948000112000100004108790000251          VOLVO COR.DE SEGS.ADM.E SERV.L080420171004201711042017V         Novo (previa)                       XM LOGISTICA LTDANTC0825     9BVASW0D2BE772455            MARITUBA6720000000000100410098   43,50PA
0460746948000112000100004106470000850           BRADESCOR COR DE SEGUROS LTDA190420172004201720042017V         Novo (previa)          CARLA MAGNA AMARAL DE MESQUITAJVK5383     9BD17201M83431534           CASTANHAL6874362000000100058777   43,50PA
0460746948000112000100004106390000850           BRADESCOR COR DE SEGUROS LTDA180420171904201719042017V         Novo (previa)              JOAO VICTOR FREITAS GALVAOOTH5920     9BD196271D2117735               BELEM6601700000000100058777   43,50PA
0460746948000112000100004106070000859                      VIP CORR SGRS LTDA050420170604201706042017V             Renovacao              CARLOS RENATO GUEDES RAMOSFLH7384     9BGPB68M0DB345079            TOME-ACU6868200000000100116882   43,50PA
0460746948000112000100004106400000657          KIRTON CORRETORA DE SEGUROS S 180420171904201719042017V         Novo (previa)    MARIA DA CONCEICAO RODRIGUES MARTINSQDL5813     988611122GK068609               BELEM6611008000000100063860   43,50PA
0460746948000112000100004108780000841          PARABUCANO COR DE SEGS SS LTDA100420171004201711042017V         Novo (previa)                     LUCIA LIMA SARMENTOOTN5734     9BM958096DB941811               BELEM6683300000000100377244   43,50PA
0460746948000112000100041090000000841          MEGA NORTE CORR DE SEGS LTDA-E030420170404201704042017V         Novo (previa)             ANTONIO JOSE MALCHER GILLETOTS9797     WDDWF4AW7FF050800               BELEM6606300000001020242611   43,50PA
0460746948000112000100004106750000850           BRADESCOR COR DE SEGUROS LTDA260420172704201727042017V         Novo (previa)                         MAIARA NEVES SAQDS5348     9BWAG45Z6H4009827               BELEM6602516000000100058777   43,50PA
0460746948000112000100004106430000835          STOP CORRETORA DE SGRS LTDA ME190420172004201720042017V         Novo (previa)   MULTIMIX DIST DE PROD DE LIMPEZA LTDAOQA5105     9BSR6X400D3827199            MARITUBA6720000000000100100960   43,50PA
0460746948000112000100003712100000841          NORTE CORRETORA DE SEGUROS LTD190420172404201724042017V         Novo (previa)          ALESSANDRO DA SILVA NASCIMENTOQER9952     93XTYKL1THCH02473            SANTAREM6803800000000100707368   43,50PA
0460746948000112000100003712060000280          RODOBENS ADM E COR DE SEGS LTD120420171304201713042017V         Novo (previa)        SOUSA E CARMO TRANSPORTE LTDA MEJJB8047     9BM693028YB249318            SANTAREM6801038000000100204056   43,50PA
0460746948000112000100003712120000849                ADICIONAL CORR SEGS LTDA270420172804201728042017V         Novo (previa)                    R M S DE ALMEIDA EPPQDC7486     8AJYY59G8F6533033            SANTAREM6800509000000100447161   43,50PA
0460746948000112000100003712070000849                ADICIONAL CORR SEGS LTDA120420171304201713042017V         Novo (previa)          MANAOS TRANSP E LOGISTICA LTDAOTD8221     9BM694000CB882406            SANTAREM6804041000000100447161   43,50PA
0460746948000112000100003712030000280          RODOBENS ADM E COR DE SEGS LTD310320170304201703042017V         Novo (previa)        SOUSA E CARMO TRANSPORTE LTDA MEOFR8602     9BM688159CB846084            SANTAREM6801038000000100204056   43,50PA
0460746948000112000100003712080000849                ADICIONAL CORR SEGS LTDA180420171904201719042017V         Novo (previa)                 H N MURAKAMI E CIA LTDAOBU4238     KNAJU811BC5220680            SANTAREM6800533000000100447161   43,50PA
0460746948000112000100003712020000139          VOLKSWAGEN COR DE SEGUROS LTDA310320170304201703042017V         Novo (previa)  AUTOMIC COMERCIO DE IMP MAQ E TRA LTDAQEO8562     953658245GR604638            SANTAREM6803000000000100195995   43,50PA
0460746948000112000100003712130000849                ADICIONAL CORR SEGS LTDA270420172804201728042017V         Novo (previa)                      A R COMERCIAL LTDAQDF8041     9531M5ZP7FR504030            SANTAREM6801542000000100447161   43,50PA
0460746948000112000100004601630000001           BRADESCOR COR DE SEGUROS LTDA080420171004201711042017P         Novo (previa)                     ALINE ANDRADE CUNHAOXM8920     3FADP4YJ7FM118978              MANAUS6903700000000100058777   27,00AM
0460746948000112000100004601720000849          MMA CORRETORA DE SEGUROS LTDA 280420172804201728042017V          Substituicao             FRANCISCO DE ASSIS DA SILVAPHL1041     8A1BB8215GL908478              MANAUS6905809000001020171420   43,50AM
0460746948000112000100004601710000849          A R MENEZES JUNIOR COR DE SEGS270420172804201728042017V         Novo (previa)                ANA MARIA LOPES DE SOUSANOZ2062     8AP196272E4058882              MANAUS6909031300000100116670   43,50AM
0460746948000112000100004601670000849           ABG CORR DE SEGS DE VIDA LTDA200420172404201724042017V         Novo (previa)                B R DOS SANTOS EIRELI MEPHD7184     9BGCA8030HB122922              MANAUS6905803000001020341458   43,50AM
0460746948000112000100004601600000001           BRADESCOR COR DE SEGUROS LTDA040420170404201704042017P         Novo (previa)            MARIO JORGE ALENCAR MESQUITAOAA2791     9BG148LP0EC413370              MANAUS6903700000000100058777   27,00AM
0460746948000112000100004601730000840          LESLEY ADM.COR.DE SEGS S/C LTD280420172804201728042017V         Novo (previa)             RUI NILSON LOPES DOS SANTOSNOZ5202     3HGRM5870DG503237              MANAUS6906502000000100319252   43,50AM
0460746948000112000100004601640000849          CONSULCOR ADM CORT SEGS  IMOVE130420171704201717042017V         Novo (previa)                UILSON PINHEIRO DE SOUZAPHH8818     9BG148MK0GC411689              MANAUS6902836000000100398250   43,50AM
0460746948000112000100004601690000001           BRADESCOR COR DE SEGUROS LTDA240420172504201725042017P          Substituicao               ALDO VALE DE JESUS JUNIORNOT6115     9BD17170MB5747282              MANAUS6903700000000100058777   27,00AM
0460746948000112000100004615840000849            J.C.NETO COR.E ADM.SEGS LTDA030420170404201704042017V         Novo (previa)            LAURA MARIA DA COSTA PEREIRAPHB4225     9BD195A42F0628045              MANAUS6904075000000100354945   43,50AM
0460746948000112000100004620850000849           BRADESCOR COR DE SEGUROS LTDA270420172804201728042017V         Novo (previa)                  RONIELLE ALMEIDA GOMESOAL4708     93HFB2650DZ207095              MANAUS6907025000000100058777   43,50AM
0460746948000112000100004620830000840           HILARIO R MARTINS CORR SEG ME260420172704201727042017V         Novo (previa) RODRIGO JOSE RODRIGUES ALVES BRASILEIRONOY9262     8AJFY29G8D8545500              MANAUS6904907200000100198137   43,50AM
0460746948000112000100004620160000849          G G MOURA CORRETORA DE SEGUROS110420171204201712042017V         Novo (previa)          EDILAINE SAMARA AGUIAR RIBEIROOAM1340     93hge6750cz104723              MANAUS6909384300000100319783   43,50AM
0460746948000112000100004620190000840          AJURI CORRETORA DE SEGS LTDA-M110420171204201712042017V         Novo (previa)                        FJAP CIA LTDA MEOAO7254     WDDMH4DW0DN054543              MANAUS6905706000001020092393   43,50AM
0460746948000112000100004620950000849          ROSAN E NUNES COR DE SEGS LTDA280420172804201728042017V         Novo (previa)              LUIZ CARLOS DA COSTA PINTONON6741     9BD578341E7769242              MANAUS6907309000001020185669   43,50AM
0460746948000112000100004620690000840          AJURI CORRETORA DE SEGS LTDA-M240420172504201726042017V         Novo (previa)              VINICIUS DA SILVA MONTEIROPHH0591     9BHBH41DBFP511776              MANAUS6905570500001020092393   43,50AM
0460746948000112000100004620240000849            J.C.NETO COR.E ADM.SEGS LTDA120420171304201713042017V         Novo (previa)                DORIANE NEPOMUCEO SOARESNOW5781     93HGM2640EZ214923              MANAUS6907902000000100354945   43,50AM
0460746948000112000100004620910000840          LESLEY ADM.COR.DE SEGS S/C LTD280420172804201728042017V         Novo (previa)                   WALTER LOPES DA COSTAOAO9778     9BD196271D2097489              MANAUS6903321000000100319252   43,50AM
0460746948000112000100004620500000840             SMCS CORRETORA DE SEGS LTDA190420172004201720042017V         Novo (previa)         LUCAS NOBRE WANDERLEY MALAGUETANOM4692     8AJFZ29G2C6156147              MANAUS6905708400000100677281   43,50AM
0460746948000112000100004615940000849            J.C.NETO COR.E ADM.SEGS LTDA050420170604201706042017V         Novo (previa)SIGMA ASSES EMP SIMPLES LTDA ME ZONAFRANPHC0701     9BFZH54J6F8146712              MANAUS6902813000000100354945   43,50AM
0460746948000112000100004615880000849           BRADESCOR COR DE SEGUROS LTDA040420170504201705042017V         Novo (previa)                  GLAUCIO CARVALHO PAIVAPHK0323     9BGJE6920HB178611              MANAUS6902503000000100058777   43,50AM
0460746948000112000100004615890000849          LESLEY ADM.COR.DE SEGS S/C LTD040420170504201705042017V         Novo (previa)         KADIA MARIA GOMES BATALHA MOURAOAG8572     3HGRM6870DG501479              MANAUS6903758000000100319252   43,50AM
0460746948000112000100004620590000840          SOTTO MAYOR ADM E COR DE SEGS 200420172404201724042017V         Novo (previa)                     MARCOS CIRINO SERRAPHB3736     9BWLB45U7FP124041              MANAUS6907302000000100367842   43,50AM
0460746948000112000100004615900000849            SSG COR DE SEGS DE VIDA LTDA050420170604201706042017V         Novo (previa)                    MARISA FERREIRA NERYPHN3111     9BFZH55L1H8446385              MANAUS6901007000001020344899   43,50AM
0460746948000112000100004620300000840          L A DE SOUZA COSTA COR.DE SEGS130420171704201717042017V             Renovacao                CICLAUDIA ARAUJO CORREIANOP1041     9BHBH41DBEP201432              MANAUS6902703000000100146862   43,50AM
0460746948000112000100004620290000849            J.C.NETO COR.E ADM.SEGS LTDA130420171704201717042017V         Novo (previa)          ERWIN ROMMEL GODINHO RODRIGUESPHN5981     8AJJC8DD7H0250336              MANAUS6907025000000100354945   43,50AM
0460746948000112000100004620670000840          M DA C LIBORIO DOS SANTOS COR 240420172504201725042017V         Novo (previa)                       RAAD MOHAMAD RAADNOP3542     9BRBL42E5D4758049              MANAUS6903300000001020337582   43,50AM
0460746948000112000100004620610000840          LESLEY ADM.COR.DE SEGS S/C LTD200420172404201724042017V             Renovacao         EDCLEIA SILVA OLIVEIRA NOGUEIRAOXM7730     9BHBG41CAFP306847              MANAUS6909301800000100319252   43,50AM
0460746948000112000100004620310000854           BJB CORRETORA DE SEGUROS LTDA130420171704201717042017V         Novo (previa)                    JAYME MARTINS CHAVESGFW6394     WDDPK3JW4GF117073              MANAUS6905708000000100558699   43,50AM
0460746948000112000100004620630000849            J.C.NETO COR.E ADM.SEGS LTDA240420172504201725042017V         Novo (previa)            MARIO JORGE PAIXAO RODRIGUESOAK7522     94DVCGD40EJ915157              MANAUS6901856500000100354945   43,50AM
0460746948000112000100004615950000849          A R MENEZES JUNIOR COR DE SEGS050420170604201706042017V         Novo (previa)                          EDOARDO SBAFFIPHY7550     93HRV2830GZ137736              MANAUS6905701000000100116670   43,50AM
0460746948000112000100004620700000849          CONSULCOR ADM CORT SEGS  IMOVE240420172504201725042017V         Novo (previa)                  LAZARO MATOS DE ARAUJOOAG1677     9BD197132D3012479              MANAUS6902539000000100398250   43,50AM
0460746948000112000100004615960000840          TAUMATURGO E VEIGA COR DE SEGS060420170704201707042017V         Novo (previa)                MARCILENE PANTOJA MACIELOAF2738     KMHEC41CBCA289111              MANAUS6908643000000100678473   43,50AM
0460746948000112000100004620060000840          LESLEY ADM.COR.DE SEGS S/C LTD070420171004201710042017V         Novo (previa)            GILBERTO LUIZ SILVA DE PAULAPHB4083     93HFB9640FZ225847              MANAUS6906008100000100319252   43,50AM
0460746948000112000100004620390000849            J.C.NETO COR.E ADM.SEGS LTDA180420171904201719042017V         Novo (previa)                    MUSSA MOHAMED HEMOUDNOL4796     3czre28709g502234              MANAUS6903679000000100354945   43,50AM
0460746948000112000100004620070000849          MMA CORRETORA DE SEGUROS LTDA 070420171004201710042017V             Renovacao      FRANCISCO EDVANDRO SENA DOS SANTOSOAK8062     9BGKT69L0EG291341              MANAUS6907504500001020171420   43,50AM
0460746948000112000100004620050000642          PREVIEW ADM E COR DE SEGS SC L070420171004201710042017V          Substituicao                DANIELE SANCHEZ GARDIANOPHF7777     wdcda2ew5fa549424              MANAUS6905700200000100214507   43,50AM
0460746948000112000100004620360000849          CONSULCOR ADM CORT SEGS  IMOVE170420171804201718042017V         Novo (previa)          JOAO RAIMUNDO DE MELO CARNEIROOAM0471     8AP196271F4106258              MANAUS6908504000000100398250   43,50AM
0460746948000112000100004620350000840          LESLEY ADM.COR.DE SEGS S/C LTD170420171804201719042017V          Substituicao                    DELIA JULIANA CABRALPHH4067     9BTBLWHE7G0048889              MANAUS6905001000000100319252   43,50AM
0460746948000112000100004620040000840          REAL PLUS CORRETORA DE SEG LTD070420171004201710042017V         Novo (previa)                DANIELA FREITAS DA SILVANOZ3531     9BD196271F2232455              MANAUS6907314000001020152035   43,50AM
0460746948000112000100004620800000840          A.A.BRAGA JR.ADM.COR.SEGS.LTDA260420172704201727042017V         Novo (previa)       MARCOS AUGUSTO BARRETO SANTA RITAPHB2500     9BGKS48B0FG237233              MANAUS6905001000000100340553   43,50AM
0460746948000112000100004620780000849          ROSAN E NUNES COR DE SEGS LTDA260420172704201727042017V         Novo (previa)                         M E M SANTOS MEPHG4199     9BWAL45Z7G4025402              MANAUS6907500000001020185669   43,50AM
0460746948000112000100004615860000849            SSG COR DE SEGS DE VIDA LTDA040420170504201705042017V         Novo (previa)         LUIZ ANTONIO BERGAMIN HESPANHOLPHH9354     9BHBG51CAGP590608              MANAUS6902020500001020344899   43,50AM
0460746948000112000100004620090000849          A R MENEZES JUNIOR COR DE SEGS100420171104201711042017V         Novo (previa)                   WILSON CAMPOS RIBEIROOAG5665     9BRBD48E5D2597783              MANAUS6902836000000100116670   43,50AM
0460746948000112000100004620790000840          PAULO OMENA ADM COR SEGS LTDA 260420172704201728042017V         Novo (previa)                             SONIA FLECKOAK5618     JMYSTCY4ACU005881              MANAUS6905706000000100170704   43,50AM
0460746948000112000100004620540000849          JAMF CORRETORA DE SEGUROS LTDA200420172004201720042017V      Reducao franquia                 MIRIAN LIMA ALBUQUERQUENOQ0932     93YBSR8VNDJ496225              MANAUS6907328000000100409596   43,50AM
0460746948000112000100004620270000849           BRADESCOR COR DE SEGUROS LTDA120420171304201713042017V             Renovacao        GLAUCIA DANIELLY PAES DE ALMEIDAJXR6154     9BWKA05Z384084841              MANAUS6900514000000100058777   43,50AM
0460746948000112000100004620150000849          G G MOURA CORRETORA DE SEGUROS110420171204201712042017V             Renovacao                   ABDON JOSE MUSSA NETOOAN3592     9BD197132E3179200              MANAUS6906512000000100319783   43,50AM
0460746948000112000100004620480000849           ABG CORR DE SEGS DE VIDA LTDA190420172004201720042017V         Novo (previa)                     RAFAEL PAULO CABRALPHE9752     9BRBDWHEXF0254915              MANAUS6902912000001020341458   43,50AM
0460746948000112000100004620820000849          ROSAN E NUNES COR DE SEGS LTDA260420172704201727042017V         Novo (previa)          MANAUS TRANSPORTE EXPRESS LTDANOT0834     9BGXM19X0BC228116              MANAUS6907309000001020185669   43,50AM
0460746948000112000100000359950000977          BLUE BROKER CORRET DE SEGS LTD170420171704201717042017V         Novo (previa)                               MADPEROLAAPV3819     9BSG6X40083623419           BARCARENA6844700000001020244568   43,50PA
0460746948000112000100004700720000850                          ZUITH AQUINO C250420172504201725042017V             Renovacao         JOAO DE NAZARE MAGNO DE ALMEIDAOBZ2793     KNAFW411BC5954983           BARCARENA6844500000000100634450   43,50PA
0460746948000112000100000359940000845           SICARA COR DE SEGUROS LTDA ME130420171704201717042017V         Novo (previa)                     REGIANE SILVA SOUZAOTD2078     9BWKB05U1EP086678           TAILANDIA6869500000000100638234   43,50PA
0460746948000112000100004700710000615          RUZINALDO PINHEIRO DE PINHEIRO250420172504201725042017V         Novo (previa)                 NELCINA VIEIRA DA SILVAQEC0272     9BHBG51CAGP569900    VILA DOS CABANOS6844700000001020167253   43,50PA
0460746948000112000100004700700000850                          ZUITH AQUINO C250420172504201725042017V         Novo (previa)      ANDRESSA CRISTINA BASTOS GONCALVESQEP3041     9BHBG51DAHP691387    VILA DOS CABANOS6844700000000100634450   43,50PA
0460746948000112000100003509960000850                          ZUITH AQUINO C190420171904201719042017V         Novo (previa)                 MIRIAN RAMOS DE MENEZESNKY0769     8AJFZ29GXA6097197           BARCARENA6844700000000100634450   43,50PA
0460746948000112000100003509990000850          FERTY CORRET,ADM DE SEGUROS LT200420172404201724042017V         Novo (previa)          VIRGINIA SOUZA MARTINS FREITASOTM2388     93YBSR86KEJ206634           TAILANDIA6869500000000100689271   43,50PA
0460746948000112000100003509970000850                          ZUITH AQUINO C190420171904201719042017V         Novo (previa)        ROBERTO UILIANS LOPES DOS SANTOSQDJ3507     9BGKT69R0GG263867    VILA DOS CABANOS6844700000000100634450   43,50PA
0460746948000112000100000359930000969          BIDU CORR DE SEGS E SERV DE IN130420171704201717042017V         Novo (previa)                 REINALDO TELES VERDASCANMJ6720     9BGCS80X0BB241187           TAILANDIA6869500000000100227943   43,50PA
0460746948000112000100004407770000847          BGSB CORRETORA DE SEGUROS LTDA190420172004201720042017V         Novo (previa)              VANDERLEI SILVA DE ATAIDESOTA8864     93XHYKB8TFCE89122         PARAGOMINAS6863072000000100560171   43,50PA
0460746948000112000100004407030000841          BGSB CORRETORA DE SEGUROS LTDA040420170504201705042017V         Novo (previa)                        GIANN SILVA LIMAJWA3984     9BM6881563B333607         PARAGOMINAS6862848400000100560171   43,50PA
0460746948000112000100004408220000850          BGSB CORRETORA DE SEGUROS LTDA260420172704201727042017V                Outros                 FAGNER BARBOSA DA SILVAOFQ1227     9BWAB45Z9D4023908          MAE DO RIO6867500000000100560171   43,50PA
0460746948000112000100004407470000841          BGSB CORRETORA DE SEGUROS LTDA110420171304201713042017V         Novo (previa)                        GIANN SILVA LIMAJWA3984     9BM6881563B333607         PARAGOMINAS6862848400000100560171   43,50PA
0460746948000112000100004407950000850          BGSB CORRETORA DE SEGUROS LTDA200420172504201726042017V         Novo (previa)        TEREZINHA LUCIA NASCIMENTO MOURAQDU4829     8A1FC1605GL798913          MAE DO RIO6867500000000100560171   43,50PA
0460746948000112000100004408210000850          BGSB CORRETORA DE SEGUROS LTDA260420172704201727042017V         Novo (previa)                  RODRIGO NUNES PEDREIRAQEF2629     9BRBDWHEXH0311780             IRITUIA6865500000000100560171   43,50PA
0460746948000112000100004407750000625            OESTESEG ADM E COR SEGS LTDA190420171904201719042017V         Novo (previa)                 MARCOS JOSE DE OLIVEIRAPXT4916     8AJHA8CD6G2575715         PARAGOMINAS6865000000000100723312   43,50PA
0460746948000112000100004408110000847          VALE CORRETORA DE SEGUROS EIRE250420172704201727042017V         Novo (previa)                   RICK IGOR MARTILNELLIQEX2800     9BRBLWHE9G0059005         PARAGOMINAS6862518000001020308230   43,50PA
0460746948000112000100004408010000847          BGSB CORRETORA DE SEGUROS LTDA240420172604201726042017V         Novo (previa)                 RENATA RIBEIRO SIQUEIRANSY5417     8AJYZ59G3B3047707         PARAGOMINAS6862806500000100560171   43,50PA
0460746948000112000100004407430000847          BGSB CORRETORA DE SEGUROS LTDA110420171204201712042017V         Novo (previa)                 JANES OLIVEIRA DA SILVAOLQ0170     9BWDB05UMDT090268         PARAGOMINAS6862751700000100560171   43,50PA
0460746948000112000100004407620000850          BGSB CORRETORA DE SEGUROS LTDA120420171304201713042017V         Novo (previa)                  RODRIGO NUNES PEDREIRAQEF2629     9BRBDWHEXH0311780             IRITUIA6865500000000100560171   43,50PA
0460746948000112000100004616700000849          G G MOURA CORRETORA DE SEGUROS010420170304201703042017V         Novo (previa)             MICHELE FERREIRA DE ALENCAROAN2249     93XFRH77WCCB63491              MANAUS6902325000000100319783   43,50AM
0460746948000112000100004619130000840              ARANGA CORR SEGS VIDA LTDA110420171204201712042017V         Novo (previa)                ADONIAS PEREIRA DA SILVANON0849     9BD27808MA7184328              MANAUS6909613500001020157738   43,50AM
0460746948000112000100004619600000849          ZONA FRANCA DAS AMERICAS-ASSES190420172004201720042017V         Novo (previa)    F R COM E VAREJO DE PECAS E SEV MANUOAG0909     9BM958260CB831533              MANAUS6902938000000100364789   43,50AM
0460746948000112000100004619570000840            NNV COR DE SEGS DE VIDA LTDA190420172004201720042017V         Novo (previa)                 CLOVIS DA FROTA PACHECOOAB2412     93HGE6850EZ118050              MANAUS6909800000001020282648   43,50AM
0460746948000112000100004619100000840          SOLIMOES ADM E COR DE SEG LTDA110420171204201712042017V         Novo (previa)                     DEISE BARBOSA COSTANPA1100     9BD15822AB6526532              MANAUS6909826100000100640565   43,50AM
0460746948000112000100004619940000840          FROESPRESS CORRETORA DE SEGS L270420172804201728042017V         Novo (previa)                   EDIVAN RIBEIRO CORREAJXO1897     93YLB8B056J748295              MANAUS6905069000000100673331   43,50AM
0460746948000112000100004619610000840          LESLEY ADM.COR.DE SEGS S/C LTD200420172404201724042017V             Renovacao                   NATALIA MARQUES UCHOANOS5198     9BD195152B0021919              MANAUS6905416000000100319252   43,50AM
0460746948000112000100004619120000837            ATENNA RIOSUL CORR SEGS LTDA110420171204201712042017V          Substituicao                      JOAO RIBEIRO ALVESPHC3086     9BG148FK0FC415420              MANAUS6902152500000100301388   43,50AM
0460746948000112000100004619550000849          JAMF CORRETORA DE SEGUROS LTDA190420172004201720042017V         Novo (previa)                     A C DE O GOUVEIA MENCV6014     9BFWEA7D4FBS82624              MANAUS6909730500000100409596   43,50AM
0460746948000112000100004619990000849           BRADESCOR COR DE SEGUROS LTDA270420172804201728042017V         Novo (previa)                 GERALDO LIMA DE ANDRADEPHI6718     9BD19713MG3309609              MANAUS6909505000000100058777   43,50AM
0460746948000112000100004619970000849          JAMF CORRETORA DE SEGUROS LTDA270420172804201728042017V         Novo (previa)                IOLANDA LIMA DE ASSUNCAOOAL0680     8AFDR12A8CJ478595              MANAUS6909730600000100409596   43,50AM
0460746948000112000100004619660000849          JAMF CORRETORA DE SEGUROS LTDA200420172404201724042017V         Novo (previa)                     A C DE O GOUVEIA MEJXJ1856     9BEYCE7V06BB73855              MANAUS6909730500000100409596   43,50AM
0460746948000112000100004619560000849          JAMF CORRETORA DE SEGUROS LTDA190420172004201720042017V         Novo (previa)                     A C DE O GOUVEIA MEJXB4937     9BWBE72S85R523373              MANAUS6909730500000100409596   43,50AM
0460746948000112000100004616740000840          SEITO CORRETORA DE SEGUROS LTD030420170404201704042017V         Novo (previa)                       MONICA MOTA ARYCEOAM9692     93HGM2620EZ211497              MANAUS6905883800001020213549   43,50AM
0460746948000112000100004624020000849            J.C.NETO COR.E ADM.SEGS LTDA280420172804201728042017V         Novo (previa)                 ARI NASCIMENTO DA SILVAPHM0880     9BD57834UGB118587              MANAUS6904436000000100354945   43,50AM
0460746948000112000100004616760000849          JAMF CORRETORA DE SEGUROS LTDA040420170504201705042017V             Renovacao               LEANDRA VALADARES MOREIRAPHF7673     93HGM6670FZ118978              MANAUS6905820400000100409596   43,50AM
0460746948000112000100004619700000840           AMAZON DELTA COR.DE SEGS.LTDA240420172504201725042017V         Novo (previa)        ODINETE DE SOUZA MENDONCA FREIREPHG6224     8AJHA8CD2G2573993              MANAUS6903705700000100575984   43,50AM
0460746948000112000100004616770000840          SOTTO MAYOR ADM E COR DE SEGS 040420170504201705042017V         Novo (previa)            TEREZINHA MARLENE DE ANDRADENPB1092     WDDGF3BW6EA912798              MANAUS6903707100000100367842   43,50AM
0460746948000112000100004624040000849          JAMF CORRETORA DE SEGUROS LTDA280420172804201728042017V         Novo (previa)      KAREN PRICILA PACHECO STEMPOZESKASPHH4453     936CLYFY1GB035542              MANAUS6909716400000100409596   43,50AM
0460746948000112000100004616800000840          LESLEY ADM.COR.DE SEGS S/C LTD040420170504201705042017V         Novo (previa)     PAULO MOISES DE CARVALHO PORTELINHAOAJ1928     9BGPB69M0CB332019              MANAUS6909341500000100319252   43,50AM
0460746948000112000100004619220000849            J.C.NETO COR.E ADM.SEGS LTDA130420171704201717042017V         Novo (previa)           JOSILEIA ADRIANA BRAGA EFFGEMOAM0828     9BWAB05Z9D4073930              MANAUS6909510000000100354945   43,50AM
0460746948000112000100004616840000849          G G MOURA CORRETORA DE SEGUROS050420170604201706042017V         Novo (previa)             L M M DE LIMA CONFECCOES MENOZ5104     93XFRH77WDCD78724              MANAUS6908662400000100319783   43,50AM
0460746948000112000100004619390000849          JAMF CORRETORA DE SEGUROS LTDA170420171804201718042017V         Novo (previa)                 DENISILIA DUARTE ARAUJOOAH2207     9BG148LP0DC415098              MANAUS6909610000000100409596   43,50AM
0460746948000112000100004619380000840          M DA C LIBORIO DOS SANTOS COR 170420171804201718042017V         Novo (previa)              KARPEGEANE SILVA RODRIGUESPHF6261     9BM958096FB000233          ITAPIRANGA6912000000001020337582   43,50AM
0460746948000112000100004616850000840          LESLEY ADM.COR.DE SEGS S/C LTD050420170604201706042017V         Novo (previa)           MARLY FIGUEIRA GOMES DA COSTAAZH1076     9BWAA45UXFP097802              MANAUS6905883000000100319252   43,50AM
0460746948000112000100004619330000849          JAMF CORRETORA DE SEGUROS LTDA170420171804201718042017V         Novo (previa)             ALEXANDRE ELIAS ALVES COHENJXW8221     9BGCA80X0DB142991              MANAUS6905883300000100409596   43,50AM
0460746948000112000100004619250000840          FROESPRESS CORRETORA DE SEGS L130420171704201717042017V         Novo (previa)          JOSE LEONARDO SILVA DOS SANTOSOAM6954     9BGJB69X0FB110206              MANAUS6905466400000100673331   43,50AM
0460746948000112000100004619430000849          ATUANTE CENTER COR.DE SEGS.E G170420171804201718042017V         Novo (previa)                  FABIANO ANTUNES PASSOSPHL6879     9BG148MK0HC431109              MANAUS6904448000000100198528   43,50AM
0460746948000112000100004619350000840          A.A.BRAGA JR.ADM.COR.SEGS.LTDA170420171804201718042017V         Novo (previa)               LUCIANA BARRONCAS SANTANANOL5631     9BD578341F7900567              MANAUS6905840200000100340553   43,50AM
0460746948000112000100004619340000849          A R MENEZES JUNIOR COR DE SEGS170420171804201718042017V         Novo (previa)                LIGIA PORTELA DOS SANTOSPHM5311     9BGKT48V0HG204163              MANAUS6905565000000100116670   43,50AM
0460746948000112000100004619740000849           ABG CORR DE SEGS DE VIDA LTDA240420172504201725042017V         Novo (previa)          MARIA DO SOCORRO ALVES SAMPAIONOO9571     9BHBG51CAEP237748              MANAUS6902821000001020341458   43,50AM
0460746948000112000100004619780000849          LESLEY ADM.COR.DE SEGS S/C LTD250420172604201726042017V         Novo (previa)                JAIRTON PEREIRA DA SILVANOP1663     9BM6953029B695472              MANAUS6909772000000100319252   43,50AM
0460746948000112000100004619850000849          JAMF CORRETORA DE SEGUROS LTDA250420172604201726042017V         Novo (previa)                  DANIEL HENRIQUE BETIOLPHD1664     93Y5SRF84HJ739121              MANAUS6906002000000100409596   43,50AM
0460746948000112000100004619790000840          FROESPRESS CORRETORA DE SEGS L250420172604201726042017V         Novo (previa)          JOSE LEONARDO SILVA DOS SANTOSPHD2754     9BGKT48V0HG237566              MANAUS6905466400000100673331   43,50AM
0460746948000112000100004619470000849          ROSAN E NUNES COR DE SEGS LTDA180420171904201719042017V         Novo (previa)               RAIMUNDO NONATO FERNANDESPHK5017     8bcnf5gvugg511661              MANAUS6905502100001020185669   43,50AM
0460746948000112000100004619770000840          NEWLIFE SEG ADM E COR SEG EIRE250420172604201726042017V         Novo (previa)         RAIMUNDO NONATO DA COSTA SABOIAPHB3869     WV1DB42H4EA050476              MANAUS6905467200001020370245   43,50AM
0460746948000112000100004616970000840              TAKEDA COR.DE SEGS.SC LTDA070420171004201710042017V             Renovacao                  EDUARDO KAZUO NAKAMURAPHD5382     9BRB29BT1J2148428              MANAUS6908303000000100338737   43,50AM
0460746948000112000100004616950000965          OLIVEIRA E CHICAROLLI COR SEG 070420171004201711042017V         Novo (previa)                 LEONARDO AGUIRRE CAMPOSNOV8163     9BD195183B0119893              MANAUS6903828500000100560065   43,50AM
0460746948000112000100004619440000840          ANAUE ADM.E COR.DE SEGUROS LTD180420171904201719042017V         Novo (previa)W L COMERCIO DE PRODUTOS FARMACEUTICOS LOAO4002     8AJFY29G5E8556133              MANAUS6905507000000100478636   43,50AM
0460746948000112000100004619480000840          FROESPRESS CORRETORA DE SEGS L180420171904201719042017V         Novo (previa)                   FABIOLA FROES BOTELHONOZ2503     9BD135019C2207393              MANAUS6905035000000100673331   43,50AM
0460746948000112000100004619800000849          JAMF CORRETORA DE SEGUROS LTDA250420172604201726042017V         Novo (previa)           ANTONIO TAVARES DE FIGUEIREDONPB3989     9BGRX48F0BG173063              MANAUS6909500000000100409596   43,50AM
0460746948000112000100004624030000849          CONSULCOR ADM CORT SEGS  IMOVE280420172804201728042017V         Novo (previa)                  MAYARA MIRANDA DE SENAPHH0148     94DFFUK13FB103695              MANAUS6905858100000100398250   43,50AM
0460746948000112000100004619500000840          FROESPRESS CORRETORA DE SEGS L180420171904201719042017V         Novo (previa)                   EDIVAN RIBEIRO CORREAJXO1897     93YLB8B056J748295              MANAUS6905069000000100673331   43,50AM
0460746948000112000100004616670000849          G G MOURA CORRETORA DE SEGUROS010420170304201703042017V         Novo (previa)FRANCOISE PALOMA GONCALVES MAMED DE LIMAOXM8514     93Y4SRD6EFJ655675              MANAUS6909017000000100319783   43,50AM
0460746948000112000100004619060000849          A R MENEZES JUNIOR COR DE SEGS080420171004201711042017V         Novo (previa)             JOAO PAULO PICANCO NOGUEIRANOX3223     9BWAA05U4BP173405              MANAUS6905416000000100116670   43,50AM
0460746948000112000100004619860000849          MMA CORRETORA DE SEGUROS LTDA 260420172704201727042017V         Novo (previa)        R R DA SILVA DIST E PAPELARIA MEPHL9451     9BGKL48U0HB172618              MANAUS6909314900001020171420   43,50AM
0460746948000112000100004619020000840          VIA EGIDE COR.ADM.E CONSULT.DE080420171104201711042017V             Renovacao           ALVARO FRANCISCO GONCALVES MEOAC0718     9BD135019C2190744              MANAUS6903679000000100614645   43,50AM
0460746948000112000100004619920000840           CSU CORRETORA DE SEGUROS LTDA260420172704201727042017V         Novo (previa)          CLAUDIA REGINA DA SILVA SOARESNOO8521     9BGRP48F0EG335381              MANAUS6905883000000100637157   43,50AM
0460746948000112000100004619050000849            J.C.NETO COR.E ADM.SEGS LTDA080420171004201710042017V         Novo (previa)          ANTONIO DE A FIGUEIREDO JUNIORPHL8263     9BHBG51DAHP736497              MANAUS6905812500000100354945   43,50AM
0460746948000112000100004616690000849          ATUANTE CENTER COR.DE SEGS.E G010420170304201703042017V             Renovacao                         C B DE OLIVEIRAOAE3043     2fmdk4kc1dba65501              MANAUS6902300300000100198528   43,50AM
0460746948000112000100004619530000966          11PONTO11 COR SEG & PROTECAO E190420172004201720042017V         Novo (previa)              SANDRO ELIMAR ROCHA MENDESPHA1322     94DFDUK13FB500072              MANAUS6905880000000100731803   43,50AM
0460746948000112000100004619580000849          MMA CORRETORA DE SEGUROS LTDA 190420172004201720042017V         Novo (previa)                   JOSUE DA SILVA PESSOAPHG1812     8AGSU1920GR135040              MANAUS6909432000001020171420   43,50AM
0460746948000112000100004616660000849          G G MOURA CORRETORA DE SEGUROS010420170304201703042017V         Novo (previa)                   ALAN DE MOURA MACHADOPHD1820     9bwag4125ht532089              MANAUS6909751500000100319783   43,50AM
0460746948000112000100004616730000849          A R MENEZES JUNIOR COR DE SEGS030420170404201704042017V          Substituicao       SERGIO ALEXANDRE DE LIMA OLIVEIRANPB5191     9BGPN69M0EB270916              MANAUS6905821000000100116670   43,50AM
0460746948000112000100004619080000849          LESLEY ADM.COR.DE SEGS S/C LTD110420171204201712042017V         Novo (previa)              CLARISSE DE MENEZES CAMPOSOAJ1087     93HGM2520DZ102818              MANAUS6905471700000100319252   43,50AM
0460746948000112000100004614760000849          S BORGES ALCANTARA COR.DE SEGS180420171904201719042017V         Novo (previa)                   SOUZA E PIMENTEL LTDAPHC4748     8AJFY22G6F8023204           BOA VISTA6930334000000100577685   43,50RR
