1060746948000112                                        000100004038780000202BRADESCOR COR DE SEGUROS LTDA           281020163110201631102016VAvalaliação de Bem    MANOEL MONTEIRO HAIL                    OAL96949BFZD55P5EB662169     MANAUS              69043125100058777     00040,00AM
1060746948000112                                        000100003910960000202BRADESCOR COR DE SEGUROS LTDA           281020163110201631102016VSubstituição de Garan.WENDERSON DOS ANJOS SOUZA               OTE18099BWLB05U9DP059859     CONCORDIA DO PARA   68685000100058777     00040,00AM
1060746948000112                                        000100003910740000202BRADESCOR COR DE SEGUROS LTDA           281020163110201631102016VAvalaliação de Bem    RAMON DE SOUZA COSTA                    NEQ063994DVCUD40AJ305016     BELEM               66617090100058777     00040,00AM
1060746948000112                                        000100003810010000202BRADESCOR COR DE SEGUROS LTDA           281020163110201631102016VAvalaliação de Bem    TRANSPORTADORA MARIA EDUARDA LTDA       MIV46069BSR4X200B3692699     MARABA              68506670100058777     00040,00AM
1060746948000112                                        000100003901430000202BRADESCOR COR DE SEGUROS LTDA           291020163110201631102016VAvalaliação de Bem    MARIA RONILDA ALMEIDA DOS REIS          NEV48839BWLB05U5CP160833     MACAPA              68901336100058777     00040,00AM
1060746948000112                                        000100004045170000001BRADESCOR COR DE SEGUROS LTDA           281020163110201631102016VAvalaliação de Bem    RUFINO PEREIRA DA SILVA                 QDP53189BWAB45U4HT020270     SANTANA DO ARAGUAIA 68560000100058777     00040,00AM
1060746948000112                                        000100003912000000202BRADESCOR COR DE SEGUROS LTDA           271020162910201629102016VAvalaliação de Bem    ROBERTO DE LIMA SOUZA                   OFW42809BG148MH0DC407904     TUCURUI             68456760100058777     00040,00AM
1060746948000112                                        000100003910690000202BRADESCOR COR DE SEGUROS LTDA           261020162810201628102016VAvalaliação de Bem    TICIANE GHELLIONI                       OPN08249BD195152D0466966     ANANINDEUA          67035580100058777     00040,00AM
1060746948000112                                        000100004035940000202BRADESCOR COR DE SEGUROS LTDA           271020162810201628102016VAvalaliação de Bem    BASTOS CONSTRUCOES LTDA                 PHI53779BD341A5NHB420407     MANAUS              69043125100058777     00040,00AM
1060746948000112                                        000100003910680000202BRADESCOR COR DE SEGUROS LTDA           261020162810201628102016VSubstituição de Garan.ANA CRISTIANE LIMA OLIVEIRA             OFR2104JTMZD9EV0D5004661     ANANINDEUA          67120370100058777     00040,00AM
1060746948000112                                        000100003809300000558BRADESCOR COR DE SEGUROS LTDA           271020162810201628102016VAvalaliação de Bem    EDILSON MENDES                          QBR40698AJFY29G3F8592811     ITAITUBA            68180420100058777     00040,00AM
1060746948000112                                        000100003904480000202BRADESCOR COR DE SEGUROS LTDA           271020162810201628102016VAvalaliação de Bem    DANNIELE BARBALHO GOMES                 OML73798AJFX29G6E6605659     OURILANDIA DO NORTE 68390000100058777     00040,00AM
1060746948000112                                        000100004033720000202BRADESCOR COR DE SEGUROS LTDA           211020162610201627102016VAvalaliação de Bem    ACAI NAOKA LTDA                         NAU26458A1FC1605GL756796     BOA VISTA           69304300100058777     00040,00AM
1060746948000112                                        000100003910570000202BRADESCOR COR DE SEGUROS LTDA           251020162610201627102016VAvalaliação de Bem    FRANCISCO EVALDO FEITOSA SANTANA        NTA37659535N8242BR148425     BELEM               66610840100058777     00040,00AM
1060746948000112                                        000100003901370000202BRADESCOR COR DE SEGUROS LTDA           261020162710201627102016VAvalaliação de Bem    ERICK PACHECO FIGUEIRO                  NEI49179BD196272E2216539     MACAPA              68902110100058777     00040,00AM
1060746948000112                                        000100003903260000202BRADESCOR COR DE SEGUROS LTDA           261020162710201627102016VAvalaliação de Bem    CLAIR PASTRO                            OJD19549BGJC69X0DB322818     XINGUARA            68555010100058777     00040,00AM
1060746948000112                                        000100004036870000202BRADESCOR COR DE SEGUROS LTDA           261020162710201627102016VAvalaliação de Bem    LUCAS MARTINS CARDOSO                   OAM38368AJZX62G9D5002434     MANAUS              69043125100058777     00040,00AM
1060746948000112                                        000100003910610000202BRADESCOR COR DE SEGUROS LTDA           251020162710201627102016VAvalaliação de Bem    RONDINELE PEREIRA DA SILVA              QDJ51968AFSZZFFCGJ352226     BELEM               66050400100058777     00040,00AM
1060746948000112                                        000100004035840000202BRADESCOR COR DE SEGUROS LTDA           261020162710201627102016VAvalaliação de Bem    ALEXANDRE SILVA GOMES                   OAG61189BWMF07X1CP028166     MANAUS              69043125100058777     00040,00AM
1060746948000112                                        000100003910860000202BRADESCOR COR DE SEGUROS LTDA           261020162710201627102016VAvalaliação de Bem    EDMUNDO MOREIRA CAVALCANTE FILHO        OYU42159BWAA45U0FP505448     BELEM               66615170100058777     00040,00AM
1060746948000112                                        000100003809290000202BRADESCOR COR DE SEGUROS LTDA           271020162710201627102016VSubstituição de Garan.TACYANE PRISCILA AMORIM ARAUJO VERAS    OAN640493YHSR6P5EJ760973     ITAITUBA            68181000100058777     00040,00AM
1060746948000112                                        000100003809280000202BRADESCOR COR DE SEGUROS LTDA           211020162610201626102016VAvalaliação de Bem    ERINALDO BARBOSA DA SILVA               PHH19158AP19627MG4160876     ITAITUBA            66820310100058777     00040,00AM
1060746948000112                                        000100003910500000202BRADESCOR COR DE SEGUROS LTDA           211020162610201626102016VAvalaliação de Bem    GOIAS TRANSPORTES                       PHI8739988226175HKA76144     BELEM               66820310100058777     00040,00AM
1060746948000112                                        000100003800850000202BRADESCOR COR DE SEGUROS LTDA           211020162610201626102016VAvalaliação de Bem    PABLO WINCKLER ANTUNES                  QET99998AJFY29G8F8583747     PARAUAPEBAS         66820310100058777     00040,00AM
1060746948000112                                        000100004035640000202BRADESCOR COR DE SEGUROS LTDA           201020162510201625102016VAvalaliação de Bem    LEONARDO ROCHA ALVARES                  AYO835593YHSR2LAFJ464391     MANAUS              69043125100058777     00040,00AM
1060746948000112                                        000100004035690000202BRADESCOR COR DE SEGUROS LTDA           221020162510201625102016VAvalaliação de Bem    NT DISTRIBUIDORA DE PRODUTOS ALIMENTICIOPHB49869BGKT48L0FG293994     MANAUS              69043125100058777     00040,00AM
1060746948000112                                        000100004038350000202BRADESCOR COR DE SEGUROS LTDA           221020162510201625102016VAvalaliação de Bem    LUIZ FERNANDO MAFRA NEGREIROS           KYC2398WMEEK32WX9K323350     MANAUS              69043125100058777     00040,00AM
1060746948000112                                        000100004037910000202BRADESCOR COR DE SEGUROS LTDA           201020162110201621102016VAvalaliação de Bem    DAVID ANTONIO GARRIDO FLORES FILHO      PHF57129BGKE48R0FG357609     MANAUS              69043125100058777     00040,00AM
1060746948000112                                        000100004033600000202BRADESCOR COR DE SEGUROS LTDA           191020162010201620102016VSubstituição de Garan.ANTONIA CLEIVANI A BEZERRA              NAU6216WV1DB42H1FA016190     BOA VISTA           69304300100058777     00040,00AM
1060746948000112                                        000100003800830000202BRADESCOR COR DE SEGUROS LTDA           191020162010201620102016VAvalaliação de Bem    FRANCISCO ARAUJO BRAGA                  OFU68809BGPB69M0CB289171     PARAUAPEBAS         69000000100058777     00040,00AM
1060746948000112                                        000100004039250000202BRADESCOR COR DE SEGUROS LTDA           181020161910201619102016VAvalaliação de Bem    M N G ALIEMNTOS LTDA                    NOM48719BD265122E9000905     MANAUS              69043125100058777     00040,00AM
1060746948000112                                        000100004036560000202BRADESCOR COR DE SEGUROS LTDA           151020161810201618102016VAvalaliação de Bem    AGUIAR COM E REP DE MOVEIS LTDA         OAJ58439BRB29BT6D2018276     MANAUS              69043125100058777     00040,00AM
1060746948000112                                        000100003910030000202BRADESCOR COR DE SEGUROS LTDA           141020161710201617102016VAvalaliação de Bem    LHAMAS SERV DE CONST                    JVH148693W244M2392031447     BELEM               69000000100058777     00040,00AM
1060746948000112                                        000100003910040000202BRADESCOR COR DE SEGUROS LTDA           141020161710201617102016VSubstituição de Garan.SEBASTIAO MARIO DE OLIVEIRA             OSW440693HFB9640EZ132489     BELEM               69000000100058777     00040,00AM
1060746948000112                                        000100003910290000202BRADESCOR COR DE SEGUROS LTDA           151020161710201617102016VSubstituição de Garan.JONATHAN LOBO FRAZAO                    QDZ54319BD11816SG1334858     ANANINDEUA          69000000100058777     00040,00AM
1060746948000112                                        000100004037510000202BRADESCOR COR DE SEGUROS LTDA           131020161410201615102016VAvalaliação de Bem    MARCO ANTONIO LINS DE PAULA REZENDE     OAO29013VWLN6161CM145485     MANAUS              69043125100058777     00040,00AM
1060746948000112                                        000100003808850000202BRADESCOR COR DE SEGUROS LTDA           141020161410201615102016VAvalaliação de Bem    NAIARA AMARAL PERES                     OTI43039BHBH41DBEP212822     MARABA              69000000100058777     00040,00AM
1060746948000112                                        000100003901300000202BRADESCOR COR DE SEGUROS LTDA           141020161510201615102016VSubstituição de Garan.EXPRESSO RODOVIARIO DE CARGAS FERCALON  NEL74589BD255049B8903189     MACAPA              69000000100058777     00040,00AM
1060746948000112                                        000100004027940000202BRADESCOR COR DE SEGUROS LTDA           101020161010201613102016VAvalaliação de Bem    EINSTEIN REBOUCAS TOME PRACIANO         OXM65299BWAA45Z2E4175128     MANAUS              69058581100058777     00040,00AM
1060746948000112                                        000100003209920000202BRADESCOR COR DE SEGUROS LTDA           101020161310201613102016VAvalaliação de Bem    LEANDRO LOPES ANDRIANI                  QEO20408AJHA8CD0G2579341     ANANINDEUA          69000000100058777     00040,00AM
1060746948000112                                        000100003806990000202BRADESCOR COR DE SEGUROS LTDA           101020161310201613102016VAvalaliação de Bem    FRANCISCO GENUSLEIDO GOMES DE OLIVEIRA  OTZ18709BD27804MD7695308     REDENCAO            69000000100058777     00040,00AM
1060746948000112                                        000100003910160000202BRADESCOR COR DE SEGUROS LTDA           111020161310201613102016VAvalaliação de Bem    DANIEL AUGUSTO DA SILVA NASCIMENTO      OTO6281KNAFW411BD5664423     BELEM               69000000100058777     00040,00AM
1060746948000112                                        000100004037360000202BRADESCOR COR DE SEGUROS LTDA           101020161110201611102016VAvalaliação de Bem    Z W M TRANSPORES LTDA                   NOR314595PJM81BPBB006712     MANAUS              69043125100058777     00040,00AM
1060746948000112                                        000100003901230000202BRADESCOR COR DE SEGUROS LTDA           071020161110201611102016VAvalaliação de Bem    LAERCIO AZEVEDO PEREIRA                 NES86089BGKF69B0FG280542     MARABA              V,,21002100058777     00040,00AM
1060746948000112                                        000100004027950000202BRADESCOR COR DE SEGUROS LTDA           101020161110201611102016VAvalaliação de Bem    EINSTEIN REBOUCAS TOME PRACIANO         PHA31009BWAA45Z6F4043376     MANAUS              69043125100058777     00040,00AM
1060746948000112                                        000100003808780000202BRADESCOR COR DE SEGUROS LTDA           071020161010201610102016VAvalaliação de Bem    DIAMANTE EMPREENDIMENTOS LOCACOES E CONSQDT97869BWAG45U0HT035916     MARABA              68501570100058777     00040,00AM
1060746948000112                                        000100003904260000202BRADESCOR COR DE SEGUROS LTDA           061020160710201608102016VAvalaliação de Bem    MOREIRA DE SOUSA SILVA COMERCIO LTDA    MWZ53639BGKS48B0DG292243     OURILANDIA DO NORTE 68390000100058777     00040,00AM
1060746948000112                                        000100003711350000202BRADESCOR COR DE SEGUROS LTDA           051020160710201607102016VAvalaliação de Bem    MARIA GORETE COSTA DE CASRO             OAM28048AJFX29GXD6603248     SANTAREM            68010630100058777     00040,00AM
1060746948000112                                        000100004032000000202BRADESCOR COR DE SEGUROS LTDA           041020160510201605102016VAvalaliação de Bem    M L NASCIMENTO                          OAC7670WV1DB42H8B8005141     MANAUS              69095020100058777     00040,00AM
1060746948000112                                        000100003905840000202BRADESCOR COR DE SEGUROS LTDA           041020160510201605102016VAvalaliação de Bem    LINDOMAR ARAUJO CAVALCANTE              OFQ14979BD11818LD1218323     BELEM               66120000100058777     00040,00AM
1060746948000112                                        000100004036070000202BRADESCOR COR DE SEGUROS LTDA           031020160410201604102016VAvalaliação de Bem    EDIVAL VEICULOS E COMERCIO DE LATICINIOSNOS70009BG148MH0DC497251     MANAUS              69082230100058777     00040,00AM
1060746948000112                                        000100004035040000202BRADESCOR COR DE SEGUROS LTDA           031020160410201604102016VAvalaliação de Bem    TATIANNY ALECRIM PINTO                  OAH37239BWLB05UXEP013930     MANAUS              69020060100058777     00040,00AM
1060746948000112                                        000100003711340000202BRADESCOR COR DE SEGUROS LTDA           031020160410201604102016VAvalaliação de Bem    SILVA MARINHO COM E SERV LTDA           OBT67709BWAB41J4C4002902     SANTAREM            68010060100058777     00040,00AM
1060746948000112                                        000100003904120000202BRADESCOR COR DE SEGUROS LTDA           290920160310201603102016VAvalaliação de Bem    FABIO PEREIRA DA SILVA                  NEP99238AJFY22G1C8001154     TUCUMA              68385000100058777     00040,00AM
1060746948000112                                        000100003901120000202BRADESCOR COR DE SEGUROS LTDA           270920160310201603102016VAvalaliação de Bem    M S FREITAS ME                          NEO75129BWDA45U1ET224455     SANTANA             68925000100058777     00040,00AM
1060746948000112                                        000100004031770000202BRADESCOR COR DE SEGUROS LTDA           290920163009201601102016VAvalaliação de Bem    Z W M TRANSPORTE LTDA                   JXJ77519BFXCE2U69BB27669     MANAUS              69042210100058777     00040,00AM
1060746948000112                                        000100004034240000202BRADESCOR COR DE SEGUROS LTDA           290920163009201601102016VAvalaliação de Bem    TAZ CONSTRUCAO E COMERCIO DE MATERIAIS  PHM90709BRBDWHE8G0275652     MANAUS              69050001100058777     00040,00AM
1060746948000112                                        000100004027780000202BRADESCOR COR DE SEGUROS LTDA           290920163009201601102016VAvalaliação de Bem    LEILANE REBOUCAS LIRA                   OAF0131WBA3B1100EK095261     MANAUS              69065010100058777     00040,00AM
