0860746948000112000100004635310000969          MINUTO CORRETORA DE SEGUROS S 010820170208201702082017P         Novo (previa)                       JOSE ANTONIO DIASPHI5407     9BHBH51DBGP573670              MANAUS6903700000000100230758   27,00AM
0860746948000112000100048001880000851          PRIME RR CORRETORA DE SEGS EIR040820170508201706082017V         Novo (previa)                        DOUGLAS DA SILVAQET6370     8AJBA3CD1H1579882  SAO FELIX DO XINGU6838000000001020338848   43,50PA
0860746948000112000100004803360000851          PRIME RR CORRETORA DE SEGS EIR140820171608201716082017V         Novo (previa)        OLICIO CASSIMIRO DA SILVA JUNIOROBY6346     9BG138SP0BC448689  SAO FELIX DO XINGU6838000000001020338848   43,50PA
0860746948000112000100048001690000851          PRIME RR CORRETORA DE SEGS EIR010820170108201701082017V         Novo (previa)          JOSE ANTONIO BARBOSA DE AGUIARQEU8789     8AJHA8CD1H2599051  SAO FELIX DO XINGU6838000000001020338848   43,50PA
0860746948000112000100004802970000940          SEGURALTA OESTE COR DE SEGS LT240820172508201725082017V         Novo (previa)        WILMA COIMBRA DE CASTRO OLIVEIRAQEV2659     9BGKC48V0HG260454  SAO FELIX DO XINGU6838000000000100361011   43,50PA
0860746948000112000100048011080000835          TRIATTO CORRETORA DE SEGUROS L090820171008201710082017V         Novo (previa)              WILTON BATISTA COSTA FILHOPQH0757     8AJDY22G8F7008619  SAO FELIX DO XINGU6838000000000100566934   43,50PA
0860746948000112000100004802420000851          PRIME RR CORRETORA DE SEGS EIR170820171708201717082017V         Novo (previa)                 JOSIMAR DARQUE DE SOUSAOTP4174     9BD197132E3179763  SAO FELIX DO XINGU6838000000001020338848   43,50PA
0860746948000112000100004803800000842          VIP CENTER ADM. E CORR. SEGURO230820172308201723082017V         Novo (previa)MARIA AURINEIDE PEREIRA DE OLIVEIRA MELOOTW0690     9BG148FH0DC469352  SAO FELIX DO XINGU6838000000000100672238   43,50PA
0860746948000112000100048001790000836          EMITE CORRETORA DE SEGUROS LTD030820170308201703082017V         Novo (previa)           RENATA ALVES DA FONSECA SOUSANVP6290     WV1DB42H6B8019958  SAO FELIX DO XINGU6838000000000100494577   43,50PA
0860746948000112000100048001810000851          PRIME RR CORRETORA DE SEGS EIR040820170408201704082017V         Novo (previa)          WANDERSON LOURENCO DE OLIVEIRAOOD4159     8AJFY29G7E8561821  SAO FELIX DO XINGU6838000000001020338848   43,50PA
0860746948000112000100004802700000851          AGIL CORRETORA DE SEGUROS LTDA190820172108201721082017V         Novo (previa)               CLEMENTINO COELHO MARINHOQES0770     8AJFY22GXF8022430  SAO FELIX DO XINGU6838000000001020134835   43,50PA
0860746948000112000100004803870000841          MOACIRSEG ASSES COR SEGS S/S L220820172308201723082017V         Novo (previa)              VANDERLEY DA SILVA PEREIRAPHJ9441     9BGKS48G0GG127214            ALTAMIRA6818065600000100386871   43,50PA
0860746948000112000100004803370000835          SEGUROS BR CORRET. DE SEGS LTD160820171608201716082017V         Novo (previa)              ANDERSON APARECIDO DE LIMANLN3940     9BWAA05U49P028679            ALTAMIRA6837108500001020171064   43,50PA
0860746948000112000100048001860000641          J ASSUNCAO ADM E CORRETORA SEG010820170408201704082017V         Novo (previa)               EDUARDO BEZERRA DOS ANJOSQDV2475     8AJJC8DD9H0250256            ALTAMIRA6837609800000400016144   43,50PA
0860746948000112000100005001050000850          NIPPON HASEGAWA COR SG VIDA LT300820173108201731082017V         Novo (previa)            MAYK WESLLEY PIMENTEL FREIRENAB6954     8AJFY22G5C8000556            ALTAMIRA6837508800000100504815   43,50PA
0860746948000112000100004802360000850          NIPPON HASEGAWA COR SG VIDA LT290820173008201731082017V         Novo (previa)                    LUZIA PINTO DA CUNHAJFO5801     8AJFY22G9D8006491            ALTAMIRA6837759000000100504815   43,50PA
0860746948000112000100004803790000849                ADICIONAL CORR SEGS LTDA210820172208201722082017V         Novo (previa)                  ALCIDES DA SILVA SOUSAQDD1776     8AJFY29G6F8590356            ALTAMIRA6837554000000100447161   43,50PA
0860746948000112000100048011010000841          MAIS BRASIL CORR DE SEGS LTDA-080820170808201708082017V         Novo (previa)                      JOAO BATISTA PIRESQDI5571     9BG148MK0FC410205            ALTAMIRA6837105700001020198671   43,50PA
0860746948000112000100048001950000841          ITACAIUNAS ADM E CORR DE SEGS 070820170808201708082017V         Novo (previa)                   VALTER SANTOS BOTELHOOAU1578     93XJRKH8WCCB03885            ALTAMIRA6837100000000100243604   43,50PA
0860746948000112000100005000000000835          SANTA IZABEL ADM COR SEGS LTDA300820173108201731082017V         Novo (previa)EMANUELLE COSTA DE SOUSA FERREIRA LAGAREQDF3686     9BWKB45U4GP048761            ALTAMIRA6837154600000100137413   43,50PA
0860746948000112000100004301400000969          MINUTO CORRETORA DE SEGUROS S 260820172808201728082017V         Novo (previa)              CARLOS ROBERTO PINTO FREZAQDV9909     9BFZB55P7F8550042              PACAJA6848500000000100230758   43,50PA
0860746948000112000100004803310000850          NIPPON HASEGAWA COR SG VIDA LT140820171408201714082017V         Novo (previa)                  JONATAS DA SILVA ROCHAQDO2456     9BD57814UGB102538            ALTAMIRA6814800000000100504815   43,50PA
0860746948000112000100048001970000850          NIPPON HASEGAWA COR SG VIDA LT070820170808201708082017V         Novo (previa)         VITORIA ELLIENE LEITE NICARETTAOIT3107     93XJRKH8WDCC06877        MEDICILANDIA6814500000000100504815   43,50PA
0860746948000112000100005001020000836           GJX CORRETORA DE SEGUROS LTDA300820173108201731082017V         Novo (previa)                       DANIEL GOIS SPERNQEY0132     9BWAH4129HT542749            ALTAMIRA6837116300000100717215   43,50PA
0860746948000112000100005001040000836           GJX CORRETORA DE SEGUROS LTDA300820173108201731082017V         Novo (previa)                       DANIEL GOES SPERNOFA6162     WV1DB22H8GA020212            ALTAMIRA6837116300000100717215   43,50PA
0860746948000112000100004803810000836          D LIFE CORRETORA DE SEGUROS LT230820172308201723082017V         Novo (previa)                   MAICON COSTA DA SILVAQDW4586     9BGKS69V0JG145780    VITORIA DO XINGU6838300000001020017774   43,50PA
0860746948000112000100048001640000841          ITACAIUNAS ADM E CORR DE SEGS 010820170108201701082017V         Novo (previa)                 CLOVIS MARCON PASSARELIOVS1659     8AJFY29GXE8556029            ALTAMIRA6837116300000100243604   43,50PA
0860746948000112000100004802600000850          NIPPON HASEGAWA COR SG VIDA LT170820171808201718082017V         Novo (previa)              ELENKELEM DA ROCHA MACHADOQEN0021     9BHGC813BHP011546            ALTAMIRA6837304500000100504815   43,50PA
0860746948000112000100004802800000845          TAFER ADM E CORR DE SEGS LTDA 230820172408201724082017V         Novo (previa)                RENALDO CAETANO DA SILVANLJ0521     9BM6953049B637081            ALTAMIRA6837659000000100688266   43,50PA
0860746948000112000100004803000000850          NIPPON HASEGAWA COR SG VIDA LT030820170408201704082017V         Novo (previa)             JANDAIRES DE SOUSA FERREIRANSY5179     8ajfr22gxb4546109SENADOR JOSE PORFIRI6836000000000100504815   43,50PA
0860746948000112000100004201150000850          NIPPON HASEGAWA COR SG VIDA LT280820172908201729082017V         Novo (previa)               MANOEL PEREIRA DOS SANTOSOTI1127     9BD27805MD7672112         BRASIL NOVO6814800000000100504815   43,50PA
0860746948000112000100004802620000641          J ASSUNCAO ADM E CORRETORA SEG170820171808201718082017V         Novo (previa)                   DEYWIS JULIANO DANIELOBT6663     94DVDUD40CJ986394        MEDICILANDIA6814500000000400016144   43,50PA
0860746948000112000100004803990000850          NIPPON HASEGAWA COR SG VIDA LT240820172508201725082017V         Novo (previa)              ROSANGELA CRISTINA RIBEIRONBV4997     9BWAB41J4D4005042            ALTAMIRA6837427200000100504815   43,50PA
0860746948000112000100004802610000865          DEL REI ADM E CORRETOR DE SEGU170820171808201718082017V         Novo (previa)     H X R TOPOGRAFIA E HIDROMETRIA LTDAPJF1781     93XLNKB8TFCF11309            ALTAMIRA6837722000001020151004   43,50PA
0860746948000112000100004201160000850           BRADESCOR COR DE SEGUROS LTDA280820172908201729082017V         Novo (previa)              JOSE ROBERTO LIMA MONTEIROQDR1799     9BD19626TG2273929            ALTAMIRA6837116300000100058777   43,50PA
0860746948000112000100048001750000873             VIP PRIME CORR DE SEGS LTDA020820170208201702082017V         Novo (previa)             VIP GESTAO E LOGISTICA LTDAOXR3488     9BFVEADS9EBS62612            ALTAMIRA6837740000001020308280   43,50PA
0860746948000112000100048001740000975           HPE CORRETORA DE SEGUROS LTDA020820170208201702082017V         Novo (previa)           JAIR TARCIO MEDEIROS DE BRITOQDO1024     93XHYKH8WGCG21508            ALTAMIRA6837116300001020076053   43,50PA
0860746948000112000100004802850000835          DINIZ & DINIZ  CORR DE SEGS LT240820172408201724082017V         Novo (previa)                 ADEZUITO TEIXEIRA BRAGAQDZ9470     9BG148RA0GC407838               ANAPU6836500000000100541761   43,50PA
0860746948000112000100048001650000850          NIPPON HASEGAWA COR SG VIDA LT010820170108201701082017V         Novo (previa)               RODRIGO DE OLIVEIRA NUNESOAN3993     VF7KF5FMYES500104    VITORIA DO XINGU6838300000000100504815   43,50PA
0860746948000112000100005001000000842               ATITUDE CORR DE SEGS LTDA300820173108201731082017V         Novo (previa)              RAIMUNDO NONATO PERES DIASQDB8692     9BGCS8030FB191845            ALTAMIRA6837501000001020278411   43,50PA
0860746948000112000100004803330000850          NIPPON HASEGAWA COR SG VIDA LT140820171408201714082017V         Novo (previa)                    SILVANO BOMFIM COSTAPUN3275     9BG144DK0EC464258            ALTAMIRA6837303000000100504815   43,50PA
0860746948000112000100048011050000975           HPE CORRETORA DE SEGUROS LTDA100820171008201710082017V         Novo (previa)                   LUCINEIDE FATIMA PUHLAVI0000     TSMLYE21SJM365753            ALTAMIRA6837127800001020076053   43,50PA
0860746948000112000100048011070000850          NIPPON HASEGAWA COR SG VIDA LT100820171008201711082017V         Novo (previa)            THATIELE FERREIRA MONTENEGROOTB6811     8AGSU19F0DR162782            ALTAMIRA6837144100000100504815   43,50PA
0860746948000112000100048001930000850          NIPPON HASEGAWA COR SG VIDA LT050820170708201707082017V         Novo (previa)            ROSANA MARIA DE SOUSA SANTOSQDR0777     8AJBA3FS4H0236760            ALTAMIRA6837535800000100504815   43,50PA
0860746948000112000100048001840000850          NIPPON HASEGAWA COR SG VIDA LT030820170408201704082017V         Novo (previa)     P GONCALVES DE LIMA COMERCIO EIRELIPQO4512     9UWSHX76AGN018448            ALTAMIRA6837115500000100504815   43,50PA
0860746948000112000100048001830000866                   ITAUA COR. SEGS LTDA.030820170408201704082017V         Novo (previa)             KARLA CRUZ MONTENEGRO RAMOSOHZ8486     9BWAB05Z2D4007283            ALTAMIRA6837219100000100332097   43,50PA
0860746948000112000100048001870000641           BRADESCOR COR DE SEGUROS LTDA040820170508201706082017V         Novo (previa)                    RUICY DA SILVA SOUSAQEA5781     9BD19626TG2273940            ALTAMIRA6837302000000100058777   43,50PA
0860746948000112000100004802900000850          NIPPON HASEGAWA COR SG VIDA LT240820172508201725082017V         Novo (previa)                FERNANDO ANTONIO SALGADOQDI8784     9BGJB75E0GB115432            ALTAMIRA6837411000000100504815   43,50PA
0860746948000112000100004802990000841          PLENUM ADMINISTRADORA E CORRET240820172508201725082017V         Novo (previa)                  JACKGREY FEITOSA GOMESQDJ1595     93XXTGA2WGCF23754            ALTAMIRA6837200500001020263805   43,50PA
0860746948000112000100004416320000835            ANASEG ANAPOLIS CORR DE SEGS170820171708201717082017V                Outros               JOAQUIM VITORINO DA SILVAONT6075     9BD27804MD7711670         PARAUAPEBAS6851500000000100176630   43,50PA
0860746948000112000100004415800000842          PONTUAL UNIVERSO CORRETORA DE 080820170808201708082017V                Outros               NAZARENO DOS SANTOS NEVESNEZ6375     9BD15844AB6547561         PARAUAPEBAS6851500000000100579459   43,50PA
0860746948000112000100004415710000851          SN CORRETORA DE SEGUROS LTDA M030820170308201704082017V                Outros                    NELI GABRIEL MENEZESQDO2349     9BGKT69R0GG120022         PARAUAPEBAS6851500000001020305419   43,50PA
0860746948000112000100004416940000642          IMPORT SEGUROS ADM.E COR.DE SE280820172908201729082017V                Outros            CRISTIANE ZIM CANASSA BORGESACZ4990     8AFAR22F7EJ178277         PARAUAPEBAS6851500000000100186945   43,50PA
0860746948000112000100004642740000840          FROESPRESS CORRETORA DE SEGS L230820172408201726082017V         Novo (previa)                        JOSE ZITO ARAUJOJXU1791     935FCKFVYCB547980              MANAUS6904316000000100673331   43,50AM
0860746948000112000100004642360000840           MARIA DA SAUDE DA SILVA LOPES140820171508201715082017V         Novo (previa)         GUSTAVO ALEX DE QUEIROZ BARBOSAJXB7860     9BSR4X2A0W3507081              MANAUS6904866200001020119941   43,50AM
0860746948000112000100004642370000840           MARIA DA SAUDE DA SILVA LOPES140820171508201715082017V         Novo (previa)         GUSTAVO ALEX DE QUEIROZ BARBOSAJXL8227     9BSP4X2A063581013              MANAUS6904866200001020119941   43,50AM
0860746948000112000100004642540000840           MARIA DA SAUDE DA SILVA LOPES170820171808201718082017V         Novo (previa)         GUSTAVO ALEX DE QUEIROZ BARBOSAOAE2489     9BVASG0A3BE778812              MANAUS6904866200001020119941   43,50AM
0860746948000112000100004642380000840           MARIA DA SAUDE DA SILVA LOPES140820171508201715082017V         Novo (previa)         GUSTAVO ALEX DE QUEIROZ BARBOSAJXA4876     9BSRH4X2ZS3358699              MANAUS6904866200001020119941   43,50AM
0860746948000112000100004642200000969          BIDU CORR DE SEGS E SERV DE IN070820170808201708082017V         Novo (previa)          CRISTIANE PINHEIRO DE OLIVEIRANOK0067     9BHBH41DBEP172618              MANAUS6905044000000100227943   43,50AM
0860746948000112000100004642180000849          ZONA FRANCA DAS AMERICAS-ASSES050820170708201707082017V         Novo (previa)               IVA CRISTIA PERES PEREIRAOAM3423     8AJFY29G6D8539176              MANAUS6905000100000100364789   43,50AM
0860746948000112000100004642150000840           A DE M FEITOZA - EIRELI - EPP050820170708201707082017V         Novo (previa)            ISAAC DANIEL CATIVO DE SOUZAPHC1918     9BHBG51CAFP468475              MANAUS6902942000001020289421   43,50AM
0860746948000112000100004642670000849          ZONA FRANCA DAS AMERICAS-ASSES220820172308201723082017V         Novo (previa)         PUNTO ADRIANOPOLIS COROLLA BLNDPHL6959     9BRBDWHE5H0334089              MANAUS6903700500000100364789   43,50AM
0860746948000112000100004642430000969          MINUTO CORRETORA DE SEGUROS S 140820171508201715082017V         Novo (previa)          NAIZA MENEZES MEDEIROS ABRAHIMNOP8262     9BD197132D3065790              MANAUS6903747300000100230758   43,50AM
0860746948000112000100004642460000849              CRISTIANE SANTANA NOGUEIRA150820171608201716082017V         Novo (previa)                  EDIVALDO LIMA DA SILVAPHL6177     9BGKT69V0JG135249              MANAUS6904739000001020200986   43,50AM
0860746948000112000100004642710000849          MMA CORRETORA DE SEGUROS LTDA 220820172308201723082017V         Novo (previa)            JERONICE PEREIRA DE OLIVEIRAOAI8848     93YBSR7UHCJ364630              MANAUS6904923000001020171420   43,50AM
0860746948000112000100004642440000840          ABBA CORRETORA DE SEGUROS LTDA150820171608201716082017V         Novo (previa)          NAYRA PRISCILA DA SILVA ARAUJOOAF3124     9bd196271d2164092              MANAUS6904323000000100706990   43,50AM
0860746948000112000100004642750000849           BRADESCOR COR DE SEGUROS LTDA230820172408201724082017V         Novo (previa)          TAIZA MARIA DE MESQUITA DANTASPHE6241     9BGKS48G0FG354412              MANAUS6904520000000100058777   43,50AM
0860746948000112000100004642690000840          BALMEK COR DE SEG VIDA LTDA ME220820172308201724082017V         Novo (previa)               ANA ROSA NUNES DE ALMEIDANOY6485     93HGM2610BZ209451              MANAUS6903805000000100651982   43,50AM
0860746948000112000100004642020000849           ABG CORR DE SEGS DE VIDA LTDA010820170208201702082017V         Novo (previa)              ACRAM SALAMEH ISPER JUNIORPHQ0003     9BMTG4DW2GM000534              MANAUS6905465000001020341458   43,50AM
0860746948000112000100004642260000854           BJB CORRETORA DE SEGUROS LTDA090820171008201710082017V         Novo (previa)FORTUNATO FERREIRA DE AZEVEDO E CIA LTDAPHC3648     93XXNKB8TGCF13603PRESIDENTE FIGUEIRED6973500000000100558699   43,50AM
0860746948000112000100004642470000853             PROSEG ADM COR SRGS LTDA ME150820171608201716082017V         Novo (previa)                  JOSE VICENTE DO N NETOOAE4559     9BD118181C1173170              MANAUS6903714400000100110523   43,50AM
0860746948000112000100004642040000840           SEGURAR SERV E COR DE SEGUROS010820170208201702082017V         Novo (previa)               ROSELEIA BANDEIRA BARBARAOAN0757     JMYXTGA2WCZA07991              MANAUS6909341500001020143575   43,50AM
0860746948000112000100004642570000849          LESLEY ADM.COR.DE SEGS S/C LTD180820172108201721082017V         Novo (previa)                    AER RESTAURANTE LTDANOX8061     9536E8246ER427689              MANAUS6905879500000100319252   43,50AM
0860746948000112000100004642520000849          MMA CORRETORA DE SEGUROS LTDA 160820171708201717082017V         Novo (previa)            JERONICE PEREIRA DE OLIVEIRAOAI8848     93YBSR7UHCJ364630              MANAUS6904923000001020171420   43,50AM
0860746948000112000100004642530000840          TM ALBUQUERQUE COR DE SEGS LTD170820171808201722082017V         Novo (previa)           ADALTO CARNEIRO PORTELA FILHOOAO6133     9BG148MH0DC497327              MANAUS6903700000001020088361   43,50AM
0860746948000112000100004642510000840          LESLEY ADM.COR.DE SEGS S/C LTD170820171708201717082017V         Novo (previa)                    TASSIA GAVINHO FROTAPHK4281     988611122GK046016              MANAUS6905702100000100319252   43,50AM
0860746948000112000100004642410000001           BRADESCOR COR DE SEGUROS LTDA140820171508201715082017P         Novo (previa)                  DEBORA SEVALHO BARBOSAPHA1393     9BHBH41DBFP322838              MANAUS6903700000000100058777   27,00AM
0860746948000112000100004642060000849          CARDOSO GUIMARAES COR SEG LTDA020820170308201703082017V         Novo (previa)                     ANA RUTH MAIA VITALPHJ8468     9BGJC75E0GB179701              MANAUS6904007000001020397763   43,50AM
0860746948000112000100004642310000853             PROSEG ADM COR SRGS LTDA ME100820171108201711082017V         Novo (previa)                  ROBSON MARTINS BATISTAKMN4849     9BR72ZEC278664826              MANAUS6904008200000100110523   43,50AM
0860746948000112000100004642390000840           MARIA DA SAUDE DA SILVA LOPES170820171808201718082017V         Novo (previa)         GUSTAVO ALEX DE QUEIROZ BARBOSAJXM9487     9BW7J82416R621803              MANAUS6904866200001020119941   43,50AM
0860746948000112000100004642070000840          A. A DA ROCHA CORRETORA DE SEG020820170308201703082017V         Novo (previa)             ANDRE LUIZ ALBUQUERQUE LIMAOAJ2563     9BWAA05U2ET013082              MANAUS6904033000001020257171   43,50AM
0860746948000112000100004642590000840          A.A.BRAGA JR.ADM.COR.SEGS.LTDA180820172108201721082017V         Novo (previa)ANGELA MARIA ANVERES FERREIRA DA FONSECAOAM0266     8AP372171D6600241              MANAUS6904907000000100340553   43,50AM
0860746948000112000100004642290000840          VILA RICA ADM.E COR.DE SEGS.LT090820171008201710082017V         Novo (previa)                  WENGRID SOUZA DA SILVAOAE9091     9BGJC6920FB111473              MANAUS6904675000000400007072   43,50AM
0860746948000112000100004642080000840          LESLEY ADM.COR.DE SEGS S/C LTD020820170308201703082017V         Novo (previa)          NELCY LILIANE DA COSTA MARTINSOAJ5217     9BFZF54P708370272              MANAUS6903679000000100319252   43,50AM
0860746948000112000100004642300000849          LESLEY ADM.COR.DE SEGS S/C LTD090820171008201710082017V         Novo (previa)              FRANCIMAR DE ARAUJO MORAESPHK8837     9BD11970UG1136365              MANAUS6903307000000100319252   43,50AM
0860746948000112000100004642620000849          JAMF CORRETORA DE SEGUROS LTDA190820172108201721082017V         Novo (previa)           RAUL DE PAULA O E CIA LTDA MENOY3641     9BGJC75Z0EB290430              MANAUS6904317000000100409596   43,50AM
0860746948000112000100004642770000849          LESLEY ADM.COR.DE SEGS S/C LTD240820172408201724082017V         Novo (previa)               JOSE ALINALDO DE OLIVEIRAOAA5069     9bsr6x400b3688493              MANAUS6904439000000100319252   43,50AM
0860746948000112000100004642610000849          ZONA FRANCA DAS AMERICAS-ASSES190820172208201722082017V         Novo (previa)            PUNTO ADRIANOPOLIS AUDI BLNDPHL5591     99ADJ78V2G4003184              MANAUS6903700000000100364789   43,50AM
0860746948000112000100004642120000840          KANDASEG ELMATEK COR.DE SEGS.L040820170408201704082017V         Novo (previa)               DARCY LACERDA ANDRE FILHOOAI8116     93YHSR6P5DJ337962              MANAUS6905005500000100416061   43,50AM
0860746948000112000100004642680000849          ZONA FRANCA DAS AMERICAS-ASSES220820172308201724082017V         Novo (previa)          PUNTO MAS MAN COM A EMP I P LTPHJ8027     94DVDUD40GJ325430              MANAUS6905919000000100364789   43,50AM
0860746948000112000100004642340000849          JAMF CORRETORA DE SEGUROS LTDA120820171408201714082017V         Novo (previa)         ROBERTA MERLY FARIAS DE MENEZESJXX2141     9BRBD48E4D2598584              MANAUS6903700000000100409596   43,50AM
0860746948000112000100004642600000849          JAMF CORRETORA DE SEGUROS LTDA190820172108201721082017V         Novo (previa)           RAIMUNDO NONATO BARBOSA FROTAPHO0918     9BWDB45U2HT096910              MANAUS6909730400000100409596   43,50AM
0860746948000112000100004642320000001           BRADESCOR COR DE SEGUROS LTDA100820171108201711082017P         Novo (previa)           PAULO ROBERTO SILVA DOS ANJOSPHN4377     93Y5SRF84JJ864667              MANAUS6903700000000100058777   27,00AM
0860746948000112000100004643880000840                     JACENIRA LELES DIAS260820172808201728082017V                Outros   RAIMUNDO EXPEDITO DE CARVALHO BEZERRAPHG7472     9BGKS69R0GG144396              MANAUS6906009000001020046707   43,50AM
0860746948000112000100004643320000849          ROSAN E NUNES COR DE SEGS LTDA120820171408201714082017V         Novo (previa)           FERNANDA VALERIA G DE ALMEIDANOZ7043     93YBSR8VKCJ213207              MANAUS6905000100001020185669   43,50AM
0860746948000112000100004648100000010          A R MENEZES JUNIOR COR DE SEGS310820173108201731082017V         Novo (previa)             PAULO RADAMES PINHO DE LIMAPHN5038     9BHBG51CAJP788931              MANAUS6906725000000100116670   43,50AM
0860746948000112000100004643060000840          ANAUE ADM.E COR.DE SEGUROS LTD070820170808201708082017V         Novo (previa)             A M DA S RODRIGUES CIA LTDAPHS1410     9BG148MK0HC451109              MANAUS6906002000000100478636   43,50AM
0860746948000112000100004643390000849          CONSULCOR ADM CORT SEGS  IMOVE150820171608201716082017V         Novo (previa)                    RUTH AGUIAR DA CUNHAPHC4018     9bhbh51dbfp471993              MANAUS6908526500000100398250   43,50AM
0860746948000112000100004643020000849          TATIANE DA S S CORR DE SEG EPP040820170708201707082017V         Novo (previa)               ADEMAR FERREIRA DE FRANCANOZ0125     8ap17206lb2198777              MANAUS6908255100001020330553   43,50AM
0860746948000112000100004643920000653             GEORGECOR CORR DE SEGS LTDA280820172908201729082017V         Novo (previa)              PAULO CEZAR MELO DE ARAUJOPHJ4117     9BD57834UGB096076              MANAUS6908833400001020279914   43,50AM
0860746948000112000100004643940000849           BRADESCOR COR DE SEGUROS LTDA290820173008201730082017V         Novo (previa)                 GERALDO LIMA DE ANDRADEPHO3248     9BFZH55L0J8016496              MANAUS6907584000000100058777   43,50AM
0860746948000112000100004643680000849          M S PINTO CORRETORA DE SEGUROS230820172408201724082017V         Novo (previa)                        IGOR SOUSA ABREUNPA8472     93YBSR7RHEJ960758              MANAUS6909633000001020393911   43,50AM
0860746948000112000100004643950000867                 GRAVATA COR DE SEG LTDA290820173008201730082017V         Novo (previa)         L M A COMERCIO DE PISCINAS LTDAPHP0688     9BWJB45U9JP036799              MANAUS6908223000000100450537   43,50AM
0860746948000112000100004643560000849          JAMF CORRETORA DE SEGUROS LTDA210820172208201722082017V         Novo (previa)ARTHUR VIRGILIO DO CARMO RIBEIRO BISNETOPHQ0450     99JCA2BG5HT201418              MANAUS6906008700000100409596   43,50AM
0860746948000112000100004643620000840          LUIZ CARLOS DA SILVA RODRIGUES220820172308201723082017V         Novo (previa)                       ELZILENE DA SILVAPHF3520     8AJFY29GXF8590134              MANAUS6907852000001020361947   43,50AM
0860746948000112000100004643070000849          ROSAN E NUNES COR DE SEGS LTDA070820170808201708082017V         Novo (previa)                  MARIA DIVINA DE ARAUJOPHE0089     9BHBG41DBFP483649              MANAUS6908813700001020185669   43,50AM
0860746948000112000100004648090000940          SEGURALTA OESTE COR DE SEGS LT300820173108201731082017V         Novo (previa)          NOELE BENCHAYA CASTRO ITALIANONAE8954     KNABX514BFT991321              MANAUS6906070000000100361011   43,50AM
0860746948000112000100004643650000849           BRADESCOR COR DE SEGUROS LTDA220820172308201723082017V         Novo (previa)                   LUCINEIDE SILVA SOUZAOAL3688     3N1DK3CD2DL221722              MANAUS6907314000000100058777   43,50AM
0860746948000112000100004643760000849          MMA CORRETORA DE SEGUROS LTDA 240820172508201725082017V         Novo (previa)         ANTONIO GERLAN MARTINS DA SILVAOAK3784     9BWAB45ZXE4019528              MANAUS6906059000001020171420   43,50AM
0860746948000112000100004643010000840          FROESPRESS CORRETORA DE SEGS L040820170708201707082017V         Novo (previa)                  MARCIA DOS SANTOS PAESOAJ9638     9bd195152d0363843              MANAUS6903751400000100673331   43,50AM
0860746948000112000100004643380000849          M S PINTO CORRETORA DE SEGUROS140820171508201715082017V         Novo (previa)                 EDUARDO SAUNIER BARBOSAOAD3975     93hge6850dz216669              MANAUS6907733000001020393911   43,50AM
0860746948000112000100004643520000849            J.C.NETO COR.E ADM.SEGS LTDA180820172108201721082017V         Novo (previa)               RODRIGO CAVALCANTE XAVIERPHE6592     9BD37211ZF4059150              MANAUS6908312000000100354945   43,50AM
0860746948000112000100004643090000977          PANAMERICANO ADM E CORR DE SEG070820170808201708082017V         Novo (previa)           VITOR ESTEFANY COSTA CARVALHOAWD2173     9BD17164LD5846684              MANAUS6909946500001020056109   43,50AM
0860746948000112000100004643960000840          LESLEY ADM.COR.DE SEGS S/C LTD290820173008201730082017V         Novo (previa)                    BARBARA MAIA ESTEVESPHC4522     9BHBH41DBFP388471              MANAUS6905570000000100319252   43,50AM
0860746948000112000100004643100000849          JAMF CORRETORA DE SEGUROS LTDA080820170908201709082017V         Novo (previa)   PAULO GEORGE FEITOSA ALVES DA C FILHOOAM1194     KNAKU813DD5406605              MANAUS6905836000000100409596   43,50AM
0860746948000112000100004638830000849          JAMF CORRETORA DE SEGUROS LTDA010820170208201702082017V         Novo (previa)              MARCILIO RODRIGUES DE LIMAOAG3282     9BD578241E7738512              MANAUS6909939000000100409596   43,50AM
0860746948000112000100004643430000849          JAMF CORRETORA DE SEGUROS LTDA160820171708201717082017V         Novo (previa)                       ADIRCE DOS SANTOSOXM6629     9BD578341F7885342              MANAUS6901857200000100409596   43,50AM
0860746948000112000100004643110000840          SOLART ADM E CORR DE SEGUROS L080820170908201709082017V         Novo (previa)                   ELTON MARQUES MENEZESPHL0180     9BG148LA0HC423586              MANAUS6904801000001020169400   43,50AM
0860746948000112000100004643720000849          JAMF CORRETORA DE SEGUROS LTDA240820172508201725082017V         Novo (previa)             EDNELSON FERNANDES DE SOUZAOAF2606     9BD195162C0181249              MANAUS6909731000000100409596   43,50AM
0860746948000112000100004638860000854              SIEL ADM CORR DE SEGS LTDA020820170308201703082017V         Novo (previa)             URSULA MARIA ARAUJO CARMINENOZ5996     9BD195152B0060863              MANAUS6906002000000100308811   43,50AM
0860746948000112000100004643440000849          JAMF CORRETORA DE SEGUROS LTDA160820171708201717082017V         Novo (previa)              AULUGELLITON SOARES DANTASNOI4101     9BWDB49N5DP017879              MANAUS6907208000000100409596   43,50AM
0860746948000112000100004643660000840          SOLART ADM E CORR DE SEGUROS L220820172408201724082017V         Novo (previa)                   ELTON MARQUES MENEZESPHL0180     9BG148LA0HC423586              MANAUS6904102500001020169400   43,50AM
0860746948000112000100004638880000849          M S PINTO CORRETORA DE SEGUROS020820170308201703082017V         Novo (previa)              FABRICIO ALBERTO RODRIGUESNOS0794     93HFA6660BZ121298              MANAUS6909377000001020393911   43,50AM
0860746948000112000100004648080000840          L A DE SOUZA COSTA COR.DE SEGS300820173108201731082017V         Novo (previa)               GD PERFURACOES LTDA ME MEPHH5492     9BD19713MG3295311              MANAUS6905001000000100146862   43,50AM
0860746948000112000100004643500000849          ROSAN E NUNES COR DE SEGS LTDA170820171808201718082017V         Novo (previa)                  RINALDO SERRAO DO REGOOAE5699     9BGRP69X0CG221320              MANAUS6908906400001020185669   43,50AM
0860746948000112000100004643470000849              CRISTIANE SANTANA NOGUEIRA170820171808201718082017V         Novo (previa)            JOSE STERCION CUNHA CARNEIROPHH6172     9BWDA45U9GT042103              MANAUS6900700200001020200986   43,50AM
0860746948000112000100004643700000849            J.C.NETO COR.E ADM.SEGS LTDA240820172508201725082017V         Novo (previa)          TIAGO FERNANDO ANDRADE MARTINSNPB4102     9BFZF55A4E8074962              MANAUS6906008100000100354945   43,50AM
0860746948000112000100004643930000001           BRADESCOR COR DE SEGUROS LTDA290820173008201731082017P                Outros             CARLOS HENRIQUE DE OLIVEIRAPHF5974     9BFZH54J6F8209176              MANAUS6903700000000100058777   27,00AM
0860746948000112000100004648120000849          JAMF CORRETORA DE SEGUROS LTDA310820173108201731082017V                Outros                MYDIANE MONTEIRO E SILVAOAI7819     KNABX514BCT198462              MANAUS6905816000000100409596   43,50AM
0860746948000112000100004643740000849          JAMF CORRETORA DE SEGUROS LTDA240820172508201726082017V         Novo (previa)                    MICHELE BEZERRA REISPHD9178     9BHBG51CAHP757991              MANAUS6907766000000100409596   43,50AM
0860746948000112000100004643750000840          NEWLIFE SEG ADM E COR SEG EIRE240820172508201725082017V         Novo (previa)                     SUZI CATARINA BUENOPHL0002     3N8CP5HE9HL460993              MANAUS6906002000001020370245   43,50AM
0860746948000112000100004643530000849          SEGPRO CORRETORA DE SEGUROS LT180820172108201721082017V         Novo (previa)               CLEMILDA FERREIRA DE LIMAOAH9921     9BGKS69B0FG168948              MANAUS6909984300001020399820   43,50AM
0860746948000112000100004638990000849            J.C.NETO COR.E ADM.SEGS LTDA040820170708201707082017V         Novo (previa) Y A EMPREENDIMENTO E PARTICIPACOES LTDAPHC3026     9BG148FK0FC415367              MANAUS6905470000000100354945   43,50AM
0860746948000112000100004638920000854           BJB CORRETORA DE SEGUROS LTDA030820170408201704082017V         Novo (previa)                    LUAN VIEIRA DA CUNHAOAE0751     3VWDJ2166EM045684              MANAUS6902830800000100558699   43,50AM
0860746948000112000100004643890000849            J.C.NETO COR.E ADM.SEGS LTDA260820172808201728082017V         Novo (previa)                ERIZENE LIMA DE CARVALHOJXP5613     935FCKFV88B543472              MANAUS6907301000000100354945   43,50AM
0860746948000112000100004638980000849            J.C.NETO COR.E ADM.SEGS LTDA040820170708201707082017V         Novo (previa) Y A EMPREENDIMENTO E PARTICIPACOES LTDAPHF3246     9BG148FK0FC409382              MANAUS6905470000000100354945   43,50AM
0860746948000112000100004638970000849            J.C.NETO COR.E ADM.SEGS LTDA040820170708201707082017V         Novo (previa) Y A EMPREENDIMENTO E PARTICIPACOES LTDAPHF2007     9BG148EK0FC418763              MANAUS6905470000000100354945   43,50AM
0860746948000112000100004643770000849          JAMF CORRETORA DE SEGUROS LTDA250820172808201728082017V                Outros          ANA NUBIA OLIVEIRA DE MEDEIROSPHC3187     9BD195A4ZF0688030              MANAUS6908644000000100409596   43,50AM
0860746948000112000100004638940000840          L A DE SOUZA COSTA COR.DE SEGS030820170408201704082017V         Novo (previa) MARCIA RACHEL DE CASTRO E COSTA RIZZATOPHL1780     93HRV2850HZ202742              MANAUS6905844800000100146862   43,50AM
0860746948000112000100004643990000849          JAMF CORRETORA DE SEGUROS LTDA290820173008201730082017V         Novo (previa)                    SUZANA LIMA DE SOUZAPHL4607     9BGKL48U0JB112430              MANAUS6908871900000100409596   43,50AM
0860746948000112000100004643250000849           ABG CORR DE SEGS DE VIDA LTDA100820171108201711082017V         Novo (previa)                EVANDRO DE SOUZA PICANCOPHA7832     93HGK5870FZ222700              MANAUS6909827200001020341458   43,50AM
0860746948000112000100004643040000849          JAMF CORRETORA DE SEGUROS LTDA040820170708201707082017V         Novo (previa)        MARIA DAS GRACAS VALENTE AMERICOPHG5395     9bwag45z0g4060237              MANAUS6902912000000100409596   43,50AM
0860746948000112000100004643590000849          JAMF CORRETORA DE SEGUROS LTDA220820172308201723082017V         Novo (previa)                MARCLI VIEIRA DE QUEIROZOAF0451     9bd17122lf5947855              MANAUS6908925000000100409596   43,50AM
0860746948000112000100004643300000640          LUCIANO ROSSI CORR DE SEG LTDA110820171208201712082017V         Novo (previa)                    DAIR PEDRO REBELATTOMAG3170     9BSTH4X2ZT3264459              MANAUS6907501000001020227639   43,50AM
0860746948000112000100004643350000962          MEMK CORRETORA DE SEGUROS LTDA120820171408201714082017V         Novo (previa)                ANTERO DE ANDRADE PASSOSFCH0023     9BWAL45Z4H4006792              MANAUS6907774500000100464228   43,50AM
0860746948000112000100004643290000849          SEGPRO CORRETORA DE SEGUROS LT110820171208201712082017V         Novo (previa)  CENTRAL DE PLACAS DA AMAZONIA LTDA  MEPHD1628     94DBCAN17JB200905              MANAUS6906008500001020399820   43,50AM
0860746948000112000100004643120000840          AJURI CORRETORA DE SEGS LTDA-M090820170908201709082017V         Novo (previa)                 REINALDO CHAVES MONASSAPHE6445     3N1BB7AE8FY208585              MANAUS6909816500001020092393   43,50AM
0860746948000112000100004648010000849          CONSULCOR ADM CORT SEGS  IMOVE260820172908201729082017V         Novo (previa)            MARCO AURELIO MARTINS FARIASOAN1359     9BWDB45U2DT137904          MANACAPURU6940040700000100398250   43,50AM
0860746948000112000100004648030000849          CONSULCOR ADM CORT SEGS  IMOVE260820172908201729082017V         Novo (previa)            FRANCISCO JONAS TELES BASTOSOAG2882     9BGJC69X0EB227376          MANACAPURU6940041900000100398250   43,50AM
0860746948000112000100004416190000635          Y M C ADM E CORR DE SEGUROS EI110820171108201711082017V                Outros                WANDILSON CHAVIER SOARESJHR7163     9BWA452R49R941130              MARABA6851341000001020272413   43,50PA
0860746948000112000100004416430000841          PARASUL ASSES.E COR.DE SEGS.LT180820171908201719082017V                Outros                    JOAO LOPES DE ANGELOOXX2300     93XHYKB8TFCE98198      RONDON DO PARA6863800000000100340545   43,50PA
0860746948000112000100004415600000836          INTERCLASSE CORR DE SEGUROS LT010820170108201701082017V                Outros                        IRACI COSTA NETOPUD9766     9BG144CP0EC457064              MARABA6850902000000100395617   43,50PA
0860746948000112000100004416960000835          SANTA IZABEL ADM COR SEGS LTDA290820173008201731082017V                Outros               JOAO KENNEDY GARRETO LIMAQKH4900     8AJBA3CD8G1564214              MARABA6850153000000100137413   43,50PA
0860746948000112000100004416350000841          PARASUL ASSES.E COR.DE SEGS.LT170820171708201717082017V                Outros                  JOSE IVO DO NASCIMENTOQDC2888     8AJFY29G8F8570688      RONDON DO PARA6863800000000100340545   43,50PA
0860746948000112000100004415610000835            G8 COR.E ADM.DE SEGUROS LTDA010820170108201701082017V                Outros                  RAFAEL EMILIO DE MATOSONM9459     8AJFY29G8E8564307              MARABA6850672100000100062821   43,50PA
0860746948000112000100004416610000853             PROSEG ADM COR SRGS LTDA ME220820172308201723082017V         Novo (previa)         PRISCILLA FERNANDES MAIA BRIOSOOSX1895     93YBSR8VNEJ726426              MARABA6850808000000100110523   43,50PA
0860746948000112000100004416070000609          FIK SEGURO COR DE SEGS LTDA ME100820171008201710082017V                Outros                      A E V EQUIPAMENTOSOLR0957     953658261CR255750              MARABA6850776500000100407763   43,50PA
0860746948000112000100005105050000847           BRADESCOR COR DE SEGUROS LTDA310820173108201731082017V                Outros                   EDSON SENA DOS SANTOSMWK6599     9BFHW21CX8B047984      RONDON DO PARA6863800000000100058777   43,50PA
0860746948000112000100004416880000251          VOLVO COR.DE SEGS.ADM.E SERV.L250820172608201727082017V         Novo (previa)                         JL BATISTA LTDAOTK9505     9BVAG20C7DE805967         MORADA NOVA6851430000000100410098   43,50PA
0860746948000112000100004415680000841          PARASUL ASSES.E COR.DE SEGS.LT010820170208201702082017V                Outros          OLIVIO ASSIS DE OLIVEIRA FILHOQDL9045     93XSNKB8TGCF15557      RONDON DO PARA6863800000000100340545   43,50PA
0860746948000112000100004416950000626          CHEROKEE ADM.E COR.DE SEGS.LTD260820172908201729082017V                Outros                   LEANDRO AVILA RAMALHOHLR5593     9BWAB45U4CT197247              MARABA6850307000000100339041   43,50PA
0860746948000112000100004415780000841          REVEMAR CORRETORA DE SEGUROS L070820170708201707082017V                Outros            ADALBERTO PEREIRA GOMES LEALNOR8798     8AJFZ29G5A6110003              MARABA6850928000001020124406   43,50PA
0860746948000112000100004416440000847          C R S CORRETORA DE SEG EIRELI 180820172108201721082017V                Outros              FRANCISCO ANTONIO DE SOUZAOTQ7164     9BGKS69B0EG354992             JACUNDA6859000000001020299222   43,50PA
0860746948000112000100004415750000841          REVEMAR CORRETORA DE SEGUROS L050820170508201706082017V                Outros             MARCELO ANDREI SIMAO SANTOSQDB4416     3HGRM5830FG500065              MARABA6850143000001020124406   43,50PA
0860746948000112000100004416100000841          PARASUL ASSES.E COR.DE SEGS.LT110820171108201711082017V                Outros                   LINDINE BRASIL COELHOOTV1065     8AJFY29GXE8564633     ABEL FIGUEIREDO6852700000000100340545   43,50PA
0860746948000112000100005105020000841          PARASUL ASSES.E COR.DE SEGS.LT310820173108201731082017V                Outros                     RAFAEL SILVA FERRAZQEX8600     93XXTGA2WFCF19527      RONDON DO PARA6863800000000100340545   43,50PA
0860746948000112000100004416510000850          NIPPON HASEGAWA COR SG VIDA LT210820172108201721082017V                Outros      ANTONIO JOSIVALDO DE AGUIAR RABELOQDL5171     9BWAL45Z9F4026663            ITAITUBA6837263000000100504815   43,50PA
0860746948000112000100004416910000849          MAE DO RIO ADM.E COR.DE SEGS.L240820172908201729082017V                Outros              ROGERIO PORTELA NASCIMENTOOTU5433     9BD373175E5054291            ITAITUBA6818100000000100320897   43,50PA
0860746948000112000100004416900000849          MAE DO RIO ADM.E COR.DE SEGS.L250820173008201730082017V                Outros       ADELSON TAVARES E REPOLHO LTDA MEQDN2684     8AJBA3CD8G1573947            ITAITUBA6818100000000100320897   43,50PA
0860746948000112000100004416480000841           PENALBER ADM E CORR SEGS LTDA210820172108201721082017V                Outros                 LOURDES IGNES RODRIGUESPHN2087     9BG148MK0JC413360            ITAITUBA6818065600000100504181   43,50PA
0860746948000112000100004416170000870           BONSAI NORTE COR DE SEGS LTDA110820171108201711082017V                Outros               OLIVEIRA FAUSTINO FREITASPHD9962     8AJHA8CD6H2591687            ITAITUBA6818900000001020091117   43,50PA
0860746948000112000100004415770000841          MARCORR COR E ADM DE SEGS LTDA070820170708201707082017V                Outros                     HARRY INACIO KONZEMQEI8990     93XHYKB8TGCF12183              TUCUMA6838500000000100374130   43,50PA
0860746948000112000100004415900000851           BRADESCOR COR DE SEGUROS LTDA080820170808201708082017V                Outros                      HELIO DIAS MARQUESNSG6642     9BG138KJ0AC448850              TUCUMA6838500000000100058777   43,50PA
0860746948000112000100004416260000841          MARCORR COR E ADM DE SEGS LTDA140820171408201714082017V                Outros                     HARRY INACIO KONZEMQEI8990     93XHYKB8TGCF12183              TUCUMA6838500000000100374130   43,50PA
0860746948000112000100004415910000851          AGIL CORRETORA DE SEGUROS LTDA080820170808201708082017V                Outros           CLAUDILEIA ARRAIAS DE ALMEIDAQDE5766     9BGJG69E0FB233515              TUCUMA6838500000001020134835   43,50PA
0860746948000112000100004415940000851          AGIL CORRETORA DE SEGUROS LTDA080820170808201708082017V                Outros           JOELMA ALVES DE CASTRO SANTOSPQI3400     8AJBA3CD5G1575025              TUCUMA6838500000001020134835   43,50PA
0860746948000112000100004415930000841          MARIA OLIVA CORR SEGS VIDA LTD080820170808201708082017V                Outros                 ANTONIO ROLDAO MISQUITAPAH4794     8AJFY22G1F8024289              TUCUMA6838500000001020146930   43,50PA
0860746948000112000100004415980000851          AGIL CORRETORA DE SEGUROS LTDA090820170908201709082017V                Outros                          HERMIRO MULLERPAN1770     9BG148PK0GC421834              TUCUMA6838500000001020134835   43,50PA
0860746948000112000100004416710000841          MARCORR COR E ADM DE SEGS LTDA230820172408201724082017V         Novo (previa)                     HARRY INACIO KONZEMQEI8990     93XHYKB8TGCF12183              TUCUMA6838500000000100374130   43,50PA
0860746948000112000100004415650000841          MARCORR COR E ADM DE SEGS LTDA010820170108201701082017V                Outros              MOYSES WOBETO TOSIN JUNIORQDG6516     8AFAR20F9FJ300920              TUCUMA6838500000000100374130   43,50PA
0860746948000112000100004416380000851          AGIL CORRETORA DE SEGUROS LTDA170820171708201717082017V                Outros                    JOAO BATISTA E SILVAOMY9820     9BG148MH0DC488176 OURILANDIA DO NORTE6839000000001020134835   43,50PA
0860746948000112000100004416670000844          EDELWEISS CORR DE SEGUROS LTDA240820172508201725082017V         Novo (previa)               ALBERTO NICACIO DAS NEVESJJU6158     9533A52P5CR216374 OURILANDIA DO NORTE6839000000000100565164   43,50PA
0860746948000112000100004416660000835          MEGACONLIFE CONSULT E CORR SEG240820172508201725082017V         Novo (previa)                    ELYSON MOTA DA SILVAONM1755     WBA3B1101EF941373              TUCUMA6838500000000100638285   43,50PA
0860746948000112000100005108590000851          AGIL CORRETORA DE SEGUROS LTDA310820173108201731082017V         Novo (previa)                    JOAO PEREIRA CARDOSOQEZ3490     8AJFY22G2F8023930  SAO FELIX DO XINGU6838000000001020134835   43,50PA
0860746948000112000100004415760000851          AGIL CORRETORA DE SEGUROS LTDA050820170708201707082017V                Outros                 FRANCISCO NUNES FEITOSAQEW5570     8AJBA3CD7G1574832              TUCUMA6838500000001020134835   43,50PA
0860746948000112000100004416680000851          UNIVERSO CORRETORA DE SEGS LTD240820172508201726082017V         Novo (previa)                 RUBENS DE OLIVEIRA MAIAOTQ6528     8AJFY29G0E8561644              TUCUMA6838500000000100169684   43,50PA
0860746948000112000100004416750000851          AGIL CORRETORA DE SEGUROS LTDA240820172508201725082017V         Novo (previa)                  GASPAR ELEUTERIO PINTOONM5050     93YBSR86KDJ489070              TUCUMA6838500000001020134835   43,50PA
0860746948000112000100004416180000851           BRADESCOR COR DE SEGUROS LTDA110820171108201711082017V                Outros                  JOSE GONCALVES DA CRUZAVI0000     9BD195A6NH0798116              TUCUMA6838500000000100058777   43,50PA
0860746948000112000100004415630000657          KIRTON CORRETORA DE SEGUROS S 310720170108201701082017V                Outros                  YONE CRISTINA CALIFANIOTR8778     9BWAA45U7FP505608            REDENCAO6855001700000100063860   43,50PA
0860746948000112000100004416150000851                ARTORY CORR SEGS LTDA ME090820171008201710082017V         Novo (previa)                ANIBAL DA SILVA OLIVEIRANLS1554     9BWYW82759R922451            REDENCAO6855453500001020323310   43,50PA
0860746948000112000100004416240000977          SCARPA CONSUL CORRE SGRS LTDA 100820171408201714082017V         Novo (previa)              ATAIDE GONCALVES MADUREIRAONI3342     9BGPB69M0DB263824            REDENCAO6855105000001020171226   43,50PA
0860746948000112000100004415810000644          VIP DINAMICA CORR SEGS LTDA ME010820170308201703082017V                Outros               DARCI FRANCISCO CAPELESSOBAG0183     8AJBA3CD1G1564488            REDENCAO6855026500001020317778   43,50PA
0860746948000112000100004416530000851           BRADESCOR COR DE SEGUROS LTDA210820172208201722082017V         Novo (previa)                      ROGER MAGELA ALVESQER4590     9BRBDWHE0F0249268            XINGUARA6855501300000100058777   43,50PA
0860746948000112000100004416250000836          SAGA CORRETORA DE SEGUROS LTDA140820171408201714082017V                Outros                   JOAO CUSTODIO DE LIMAOTR1770     9BD27804MD7709566            XINGUARA6854800000000100138673   43,50PA
0860746948000112000100004415950000851             SCORING COR DE SEGUROS LTDA080820170808201708082017V                Outros         MARCIO EURELIO MARCONDES PIAZZAQEV7379     8AJFA8CB8H2001964            XINGUARA6855548000000100315885   43,50PA
0860746948000112000100044166400000851                ARTORY CORR SEGS LTDA ME220820172308201723082017V         Novo (previa)                             C V CORREIAEOE5191     9535J8277CR213471            XINGUARA6855757600001020323310   43,50PA
0860746948000112000100004416970000851          SN CORRETORA DE SEGUROS LTDA M250820173008201731082017V                Outros                LUZIA DE AZEVEDO CARDOSOQEG2900     9BWAL45Z2G4038834            XINGUARA6855510700001020305419   43,50PA
0860746948000112000100004416370000841          MARCORR COR E ADM DE SEGS LTDA170820171708201717082017V                Outros              GILVAGNER MENEZES FERREIRAQEZ7560     93XHYKB8THCG26236           RIO MARIA6853000000000100374130   43,50PA
0860746948000112000100004416330000841           RAYSEG COR E ADM DE SEGS LTDA170820171808201718082017V                Outros                  VICENTE LOPES SOBRINHOQEU7399     9BG148PK0HC453937            XINGUARA6855533000001020004265   43,50PA
0860746948000112000100004416020000851          SN CORRETORA DE SEGUROS LTDA M090820170908201709082017V                Outros                      DORI BENTO TAVARESQEQ3780     8AJHA8CD0G2577993            XINGUARA6855532000001020305419   43,50PA
0860746948000112000100004416030000851          SN CORRETORA DE SEGUROS LTDA M090820171008201710082017V                Outros                 NICANOR CEZARIO RIBEIROPQY2236     8AJHA8CD7G2578431            XINGUARA6855536000001020305419   43,50PA
0860746948000112000100004416790000851          SN CORRETORA DE SEGUROS LTDA M240820172608201727082017V         Novo (previa)                LUZIA DE AZEVEDO CARDOSOQEG2900     9BWAL45Z2G4038834            XINGUARA6855510700001020305419   43,50PA
0860746948000112000100004415730000841                 VERONA ADM COR SEG LTDA040820170408201704082017V                Outros                    VALDECY JOSE DE LIMAQDK6260     93XHYKB8TFCE04574            XINGUARA6855516100000100144801   43,50PA
0860746948000112000100004416050000851          SN CORRETORA DE SEGUROS LTDA M100820171008201710082017V                Outros             CREUZA MARIA XAVIER ALMEIDAOTR4488     8AJFY29G3E8557362            XINGUARA6855536000001020305419   43,50PA
0860746948000112000100004416210000851          SN CORRETORA DE SEGUROS LTDA M110820171408201714082017V                Outros                   ANTONIO JOSE DA SILVAOTW3210     9BG148MH0DC470753            XINGUARA6855658000001020305419   43,50PA
0860746948000112000100004802940000841          TUMUCUMAQUE CORR E ADM SEGUROS240820172508201725082017V         Novo (previa)                        HG MENDES ME EPPQLO0074     9BD19515ZG0733484              MACAPA6890128100000100598194   43,50AP
0860746948000112000100004802930000841          TUMUCUMAQUE CORR E ADM SEGUROS240820172508201725082017V         Novo (previa)                        HG MENDES ME EPPQLO0004     9BD19515ZG0733608              MACAPA6890128100000100598194   43,50AP
0860746948000112000100004803400000850          J R LEAO DOS SANTOS CORRETORA 140820171608201716082017V         Novo (previa)          VANILDA DA CONCEICAO DE FARIASPXQ9054     94DFFUK13GB202872SANTA ISABEL DO PARA6879000000001020346123   43,50PA
0860746948000112000100005108110000850               JUCA CORR DE SEGS SC LTDA280820172908201729082017V         Novo (previa)                   BRUNA SANTOS DE SOUZAOFK3942     3N1DK3CD7DL200008               BELEM6662327300000100285684   43,50PA
0860746948000112000100005108050000850           BRADESCOR COR DE SEGUROS LTDA280820172908201729082017V         Novo (previa)            KAROLINE TEIXEIRA CAVALCANTEOOE4153     93HGM2620EZ215668               BELEM6663511000000100058777   43,50PA
0860746948000112000100004801830000975           HPE CORRETORA DE SEGUROS LTDA050820170708201707082017V         Novo (previa)          JERONIMO MONTEIRO NORONHA NETOQDE5931     JMYLYV98WFJA00427               BELEM6605519000001020076053   43,50PA
0860746948000112000100004801040000850          J R LEAO DOS SANTOS CORRETORA 040820170508201705082017V         Novo (previa)             VANILDI DA CONCEICAO FARIASPXQ9054     94DFFUK13GB202872SANTA ISABEL DO PARA6879000000001020346123   43,50PA
0860746948000112000100004801690000964               COMPARA ADM. E CORR. LTDA310720170108201701082017V         Novo (previa)                   ADRIELLE PINTO MORAESOTL5193     935SLYFYYEB561636               BELEM6606581000001020169914   43,50PA
0860746948000112000100004801740000251          VOLVO COR.DE SEGS.ADM.E SERV.L310720170108201704082017V         Novo (previa)           VOLVO DO BRASIL VEICULOS LTDABAL1396     9BVRG20C0GE836926            MARITUBA6720000000000100410098   43,50PA
0860746948000112000100004801840000850          NIPPON HASEGAWA COR SG VIDA LT070820170808201708082017V         Novo (previa)                         LUCINDO DAMALIONSZ2481     KNABK514BBT112328               BELEM6608781000000100504815   43,50PA
0860746948000112000100004801670000975           HPE CORRETORA DE SEGUROS LTDA310720170108201701082017V         Novo (previa)          JERONIMO MONTEIRO NORONHA NETOQDE5931     JMYLYV98WFJA00427               BELEM6605519000001020076053   43,50PA
0860746948000112000100004801750000251          VOLVO COR.DE SEGS.ADM.E SERV.L310720170108201701082017V         Novo (previa)           VOLVO DO BRASIL VEICULOS LTDAQIA6111     96AF1473GGJ002025            MARITUBA6720000000000100410098   43,50PA
0860746948000112000100004801810000850          BRONI CORRETORA DE SEGUROS LTD010820170208201702082017V         Novo (previa)                  JOAO PEREIRA DOS ANJOSQDZ6685     93XHYKL1TJCH04020               BELEM6865500000000100419621   43,50PA
0860746948000112000100004803420000641                UNICOOB COR DE SEGS LTDA160820171708201717082017V         Novo (previa)                    PAULO JORGE EHRHARDTNSG0878     935FCKFVYAB517880          ANANINDEUA6703100200000100562670   43,50PA
0860746948000112000100004802640000853             PROSEG ADM COR SRGS LTDA ME170820171808201718082017V         Novo (previa)              ODAIR JOSE PEREIRA SANCHESQDL7336     9BHBG51DAGP604432               BELEM6609549200000100110523   43,50PA
0860746948000112000100004803690000850          BRONI CORRETORA DE SEGUROS LTD220820172308201723082017V         Novo (previa)                    RONALDO LAMEIRA LAGEOBZ7475     9BWAA05UBCP068559               BELEM6609036300000100419621   43,50PA
0860746948000112000100004801720000643              RIO BRANCO COR DE SEG LTDA310720170108201701082017V      Reducao franquia                 LARIFO TRANSPORTES LTDAMMC3046     9BVAG20CXEE822769               BELEM6682301000000400006912   43,50PA
0860746948000112000100004801770000643              RIO BRANCO COR DE SEG LTDA010820170208201702082017V         Novo (previa)                 LARIFO TRANSPORTES LTDAOKG4995     9BVAG20CXEE815233               BELEM6682301000000400006912   43,50PA
0860746948000112000100004803450000853             PROSEG ADM COR SRGS LTDA ME160820171708201717082017V         Novo (previa)                    RAFAEL COSTA MARINHOIVQ3407     3N1BB7AD7EY204677               BELEM6661500500000100110523   43,50PA
0860746948000112000100004802810000841          WPS WALDELICE ASSES.E COR.SEGS230820172408201724082017V         Novo (previa)                       RAFAEL SOUZA GOESQDX5676     9BGKS48V0JG145745               BELEM6606343000000100428728   43,50PA
0860746948000112000100005108630000850          D & D CORRETORA DE SEGS E SERV300820173108201731082017V         Novo (previa)                  LUCIANA BARBOSA GALVAOOTQ4560     KMHSU81EDEU200773               BELEM6604014000001020338015   43,50PA
0860746948000112000100004801520000853             PROSEG ADM COR SRGS LTDA ME080820170908201709082017V         Novo (previa)             JOSE OLEGARIO SALES BARBOSAJIQ2323     9BWDA05U8BT194312               BELEM6611540000000100110523   43,50PA
0860746948000112000100004803040000850          D & D CORRETORA DE SEGS E SERV100820171108201711082017V         Novo (previa)        CARLA SANDRA DA SILVA NASCIMENTOOPU7033     9BD195152E0473209               BELEM6605035000001020338015   43,50PA
0860746948000112000100004801800000843          SALT LAKE CORRET DE SEG S/S LT010820170208201702082017V         Novo (previa)    SILVIA DE CASTRO FIGUEIREDO FERREIRAQDJ9348     WDCTG4DW2FJ146671               BELEM6606349500000100513580   43,50PA
0860746948000112000100004801560000657          KIRTON CORRETORA DE SEGUROS S 090820171008201710082017V         Novo (previa)                  ODERLE MILHOMEM ARAUJOQDU5186     9BGKC48V0JG150745               BELEM6601000000000100063860   43,50PA
0860746948000112000100004801780000869          VALUCI CORRETORA SEGUROS LTDA 010820170208201702082017V         Novo (previa)   MARCOS VALERIO DO NASCIMENTO SOBRINHOOKS7218     9BWLB45U9DP136933               BELEM6661706000000100575976   43,50PA
0860746948000112000100004802820000841          WPS WALDELICE ASSES.E COR.SEGS230820172408201724082017V         Novo (previa)                   ROSA MARIA SOUZA GOESQEU2201     9BRBLWHE6G0031579               BELEM6606343000000100428728   43,50PA
0860746948000112000100004803440000657          KIRTON CORRETORA DE SEGUROS S 160820171708201717082017V         Novo (previa)               ALBERTO CHAVES DOS SANTOSQDS2360     9BRBDWHE7F0236470               BELEM6608742000000100063860   43,50PA
0860746948000112000100004801880000847           BRADESCOR COR DE SEGUROS LTDA020820170308201703082017V         Novo (previa)              JEFERSON DE AZEVEDO LISBOAQDJ3536     9BD17144ZF7525724               BELEM6604002000000100058777   43,50PA
0860746948000112000100004801920000835           SICARA COR DE SEGUROS LTDA ME020820170308201703082017V         Novo (previa)            PAULO EDUARDO SOUZA DA SILVAJVO2932     9BWB172S87R713141          ANANINDEUA6879000000000100638234   43,50PA
0860746948000112000100004803520000850          D & D CORRETORA DE SEGS E SERV180820171908201719082017V         Novo (previa)               ANA LEIDA MONTEIRO MARCALEGR8633     9BHBG51CAEP234702               BELEM6606338800001020338015   43,50PA
0860746948000112000100004801950000944           BARTTICIOTTO COR DE SEGS LTDA040820170508201705082017V         Novo (previa)                RAQUEL ALEXANDRINO BRAGAQDZ9405     93Y5SRF84JJ865815               BELEM6611902000000100194841   43,50PA
0860746948000112000100004803140000850           BRADESCOR COR DE SEGUROS LTDA090820171008201710082017V         Novo (previa)                    CASSIO FONTELES ONCAPXQ3244     93Y5SRD04HJ352282               BELEM6611300000000100058777   43,50PA
0860746948000112000100004803030000847          R.C.C. CORRETAGEM DE SEGS DE V090820171008201710082017V         Novo (previa)     PAULO CESAR NASCIMENTO VIERIA FILHOOXS1989     9BWAA45U7FP001592               BELEM6605000000001020265565   43,50PA
0860746948000112000100004803020000850          NIPPON HASEGAWA COR SG VIDA LT090820171008201710082017V         Novo (previa)                RONDINELI FERREIRA PINTOOSX2916     9BRB29BT5D2020004               BELEM6606006000000100504815   43,50PA
0860746948000112000100004803530000616          CIONCI&ASSOCIADOS ADM ASS COR 180820171908201719082017V         Novo (previa)        ERMELINDA TAVARES DE ALBUQUERQUEOTR1731     8AGCN48X0ER141438               BELEM6609303000000100464015   43,50PA
0860746948000112000100004803670000850                          ZUITH AQUINO C220820172208201722082017V         Novo (previa)                 MARIA VIEIRA DE SANTANAPIF9301     3FA6P0D96FR100276               BELEM6663511000000100634450   43,50PA
0860746948000112000100004803550000841          MEGA NORTE CORR DE SEGS LTDA-E180820171908201719082017V         Novo (previa)            ANA HILDA RODRIGUES DE SOUZAHLP7468     9BD17164LA5500999               BELEM6609030000001020242611   43,50PA
0860746948000112000100004803210000841          NAODAPRAESQUECER CONSULT. & CO110820171208201712082017V         Novo (previa)            JORBIA CAMPOS CASTRO MACHADOOTU4661     8AFAR23N9EJ174849          ANANINDEUA6701571000000100500046   43,50PA
0860746948000112000100004801930000853             PROSEG ADM COR SRGS LTDA ME030820170408201704082017V         Novo (previa)               MARCOS MIRANDA DE FREITASOTN2646     9BHBG51CAEP282976               BELEM6609511000000100110523   43,50PA
0860746948000112000100004803170000280          BRQUALY ADM E CORR DE SEGUROS 120820171408201714082017V         Novo (previa)                 JAIRO DOS SANTOS SEABRAJVX3768     935FCKFV88B527302           BENEVIDES6879500000000100434442   43,50PA
0860746948000112000100004801540000850          NIPPON HASEGAWA COR SG VIDA LT090820170908201709082017V         Novo (previa)                         LUCINDO DAMALIONSZ2481     KNABK514BBT112328          ANANINDEUA6712037000000100504815   43,50PA
0860746948000112000100004803100000854              ARMANPREV COR DE SEGS LTDA100820171108201711082017V         Novo (previa)                 STATUS CONSTRUCOES LTDAOTK9209     95PZBN7KPEB054021               BELEM6603342000001020288697   43,50PA
0860746948000112000100004803090000854              ARMANPREV COR DE SEGS LTDA100820171108201711082017V         Novo (previa)                  STATUS ENGENHARIA LTDAOTR2119     9BWAA05U7EP108732               BELEM6603342000001020288697   43,50PA
0860746948000112000100004801080000838                  VIVABEM CORR SEGS LTDA040820170508201705082017V         Novo (previa)         CARLOS MAURICIO ALMEIDA DE MELONND1264     KNAJT811AA7155566               BELEM6605052500000100542610   43,50PA
0860746948000112000100004803120000850          PARABUCANO COR DE SEGS SS LTDA100820171108201711082017V         Novo (previa)            MARIA LUCIA VIEIRA DE ARAUJOOTG1488     9BFZF55P6E8051042               BELEM6611714000000100377244   43,50PA
0860746948000112000100004803750000841          MRFLSGB 10 CORRETORA SEGUROS L210820172208201722082017V         Novo (previa)                      DANIEL DI GIROLAMONPB4244     8AJFY22G8D8005851           BENEVIDES6879500000000100667862   43,50PA
0860746948000112000100004803590000841          WPS WALDELICE ASSES.E COR.SEGS210820172208201722082017V         Novo (previa)               JUSSIE GONCALVES DE SOUZAJVY5325     3D7KS28769G513073               BELEM6664520000000100428728   43,50PA
0860746948000112000100004803540000850          PARABUCANO COR DE SEGS SS LTDA180820171908201719082017V         Novo (previa)             BK SERVICOS DE REBOQUE LTDAQEU8008     9BRBD3HE7J0363839               BELEM6607738500000100377244   43,50PA
0860746948000112000100004803930000643          SOUTHALLIANCE & RISK SOLUTION 250820172608201727082017V         Novo (previa)            SERGIO GERONIMO DE LIMA - MEMGO1740     9A9FR37635CDB5127           BENEVIDES6879500000000100580040   43,50PA
0860746948000112000100004803840000643          SOUTHALLIANCE & RISK SOLUTION 250820172608201727082017V         Novo (previa)            SERGIO GERONIMO DE LIMA - MEPEH4016     9535W8271BR138413           BENEVIDES6879500000000100580040   43,50PA
0860746948000112000100004801070000835          SANTA IZABEL ADM COR SEGS LTDA050820170708201707082017V         Novo (previa)          MAURILIO MACIEL FREITAS JUNIOROTJ3302     9BWAB45Z6D4189786               BELEM6609511000000100137413   43,50PA
0860746948000112000100004803620000850          D & D CORRETORA DE SEGS E SERV210820172208201722082017V         Novo (previa)            MARCONDES ALLAN GUEDES ALVESQDL3094     WAUBYA8U5GR001310               BELEM6604014000001020338015   43,50PA
0860746948000112000100004801050000969          BIDU CORR DE SEGS E SERV DE IN040820170508201705082017V         Novo (previa)        ANA PAULA PEREIRA DE SALES KAIYANSE8962     9BD118121A1104953          ANANINDEUA6713006500000100227943   43,50PA
0860746948000112000100004801760000850          J R LEAO DOS SANTOS CORRETORA 310720170108201701082017V         Novo (previa)          VANILDI DA CONCEICAO DE FARIASPXQ9054     94DFFUK13GB202872SANTA ISABEL DO PARA6879000000001020346123   43,50PA
0860746948000112000100004803680000841          UNIVERSO CORRETORA DE SEGS LTD220820172308201723082017V         Novo (previa)                MARCONDES ALVES DA SILVAOMW9859     93YHSR6P5FJ532693 OURILANDIA DO NORTE6839000000000100169684   43,50PA
0860746948000112000100004803200000835          GOLDEN MAX CORR DE SEGUROS LTD140820171608201716082017V         Novo (previa)         CARLOS EDUARDO MESQUITA FURTADOQDH6835     9BHBG51CAFP426885               BELEM6602523000001020048440   43,50PA
0860746948000112000100004803630000850          D & D CORRETORA DE SEGS E SERV210820172208201722082017V         Novo (previa)                  LUCIANA BARBOSA GALVAOOTQ4560     KMHSU81EDEU200773               BELEM6604014000001020338015   43,50PA
0860746948000112000100005106020000975           HPE CORRETORA DE SEGUROS LTDA280820172908201729082017V                Outros      GUALTER FERREIRA DE ANDRADE JUNIORQES4432     9BHBG51DAHP733685            SANTAREM6804004000001020076053   43,50PA
0860746948000112000100005106030000980          LAZAM-MDS COR E ADM DE SEGUROS280820172908201729082017V                Outros         MANOEL SOLINALDO PEREIRA FRANCOQDQ8082     9BGKT48R0FG329542            SANTAREM6803030000000100059188   43,50PA
0860746948000112000100037125700000841          MRFLSGB 10 CORRETORA SEGUROS L220820172308201723082017V         Novo (previa)               RENATO BELINI DE OLIVEIRAOTG8043     3GNCJ8EW6EL147348            SANTAREM6804005000000100667862   43,50PA
0860746948000112000100003712550000835          TRIATTO CORRETORA DE SEGUROS L160820172108201721082017V                Outros                  LEONDA DE PAULA MORAESPQP6654     9BD37417SG5082269            SANTAREM6806009000000100566934   43,50PA
0860746948000112000100037125710000841          PARABUCANO COR DE SEGS SS LTDA230820172408201724082017V         Novo (previa)                  ARLENE MAIA RAMALHEIROOTD1747     KMHJU81DBEU726696            SANTAREM6800508000000100377244   43,50PA
0860746948000112000100003712580000835          PEZAO CORRETORA DE SEGUROS LTD230820172408201724082017V         Novo (previa)     GRAZIELE DUARTE NEPOMUCENO E MORAESOGN4280     93XJRKB8TCCC45609            SANTAREM6804040000000100595454   43,50PA
0860746948000112000100003712490000850             AZUNAV CORR DE SEGUROS LTDA020820170208201702082017V                Outros                     JA MORAIS JUNIOR MEQLN3867     9A9P1874FFCDU5014            SANTAREM6804500000000100611611   43,50PA
0860746948000112000100003712500000850             AZUNAV CORR DE SEGUROS LTDA020820170208201702082017V                Outros                     JA MORAIS JUNIOR MEARB0562     9BSG6X40093644749            SANTAREM6804500000000100611611   43,50PA
0860746948000112000100003712520000835            G8 COR.E ADM.DE SEGUROS LTDA090820171008201710082017V                Outros       EXITO SERVICOS E CONSTRUCOES LTDAOMZ9261     9BD15804AD6803629            SANTAREM6802079000000100062821   43,50PA
0860746948000112000100005106010000870           BONSAI NORTE COR DE SEGS LTDA280820172908201729082017V                Outros            MARIELLA RAMALHEIRO LOUREIROQEZ2212     93XFJB43VHC107492            SANTAREM6800507000001020091117   43,50PA
0860746948000112000100003712570000847          CHAVES CAMPOS COR.E ADM.DE SEG180820172108201721082017V                Outros                   R C S CALDAS COMERCIOQDK0445     93XXNKB8TGCF14975            SANTAREM6804043000000100363391   43,50PA
0860746948000112000100003712560000870           BONSAI NORTE COR DE SEGS LTDA180820172108201721082017V                Outros                        S M RODRIGUES MEQDD7509     9BD578141F7900445            SANTAREM6803500000001020091117   43,50PA
0860746948000112000100005002000000940          SEGURALTA OESTE COR DE SEGS LT310820173108201731082017V         Novo (previa)           ALYSSON VINICIUS MELLO SLONGOQDX8556     988611126HK130883             TUCURUI6846400000000100361011   43,50PA
0860746948000112000100004635430000849          JAMF CORRETORA DE SEGUROS LTDA160820171808201718082017V         Novo (previa)                    MISAEL DE SOUZA MELOOAL7571     9BGCA80X0FB116708              MANAUS6910107700000100409596   43,50AM
0860746948000112000100004635480000840          FROESPRESS CORRETORA DE SEGS L290820173008201731082017V         Novo (previa)                 EDIVARD FREITAS RENGIFOPHE8018     93HFB9640GZ211255              MANAUS6909648000000100673331   43,50AM
0860746948000112000100004635470000840          LESLEY ADM.COR.DE SEGS S/C LTD290820173008201731082017V         Novo (previa)                   JONATHAN ALVES MACIELPHJ8939     9BG148LA0HC402413              MANAUS6904072000000100319252   43,50AM
0860746948000112000100004635420000849          ATUANTE CENTER COR.DE SEGS.E G160820171808201718082017V                Outros       MARCO ANTONIO R DOS SANTOS COELHOPHE7598     9BFZH55L4F8260711              MANAUS6904072000000100198528   43,50AM
0860746948000112000100046535390000849          LESLEY ADM.COR.DE SEGS S/C LTD100820171108201711082017V         Novo (previa)             FERNANDO RODRIGUES DONIZETHJXT9591     93XFRKB9TCCB43146              MANAUS6905539000000100319252   43,50AM
0860746948000112000100004635370000849          CONSULCOR ADM CORT SEGS  IMOVE080820170908201709082017V         Novo (previa)          RODINE JUNIOR CARDOSO DA SILVANOM6791     WV1DB42H0EA009326              MANAUS6904866200000100398250   43,50AM
0860746948000112000100004635490000840          FROESPRESS CORRETORA DE SEGS L310820173108201731082017V         Novo (previa)                       CLAUDINEA DECARISNOS4392     3N1CN7AD9EK410758              MANAUS6904101000000100673331   43,50AM
0860746948000112000100004635360000001           BRADESCOR COR DE SEGUROS LTDA080820170908201709082017P                Outros                CLAUDIO EDUARDO OLIVEIRANOR5784     93HGE6730BZ117345              MANAUS6903700000000100058777   27,00AM
0860746948000112000100004635320000849          CONSULCOR ADM CORT SEGS  IMOVE030820170508201706082017V                Outros                 MESSIAS MOREIRA BATISTAPHC1798     9BWJL45U7GP021563              MANAUS6905474300000100398250   43,50AM
0860746948000112000100004635330000849          M S PINTO CORRETORA DE SEGUROS070820170808201708082017V         Novo (previa)                  VIVIANE DA SILVA LOPESNOQ6901     9BRB29BT1E2041708              MANAUS6906340000001020393911   43,50AM
0860746948000112000100004641470000840          VIA EGIDE COR.ADM.E CONSULT.DE110820171208201712082017V         Novo (previa)                 TAPAJOS PERFUMARIA LTDAOAB4652     JTMDF4EV3D5022627              MANAUS6905708000000100614645   43,50AM
0860746948000112000100004641670000849          CARANHA CORR DE SEGS VIDA LTDA150820171608201717082017V         Novo (previa)              ORLANDO JOSE HIGINO BENTESNOS9598     9BD17164LB5662221              MANAUS6909341500001020399235   43,50AM
0860746948000112000100004641360000849          JAMF CORRETORA DE SEGUROS LTDA080820170908201709082017V         Novo (previa)                  LINDALVA NEVES DO VALENOU0534     93YBSR7RHBJ773782              MANAUS6909428000000100409596   43,50AM
0860746948000112000100004647090000849            SSG COR DE SEGS DE VIDA LTDA230820172408201724082017V         Novo (previa)            SSG COR DE SEGS DE VIDA LTDAPHJ1812     93HGK5840HZ210797              MANAUS6901005000001020344899   43,50AM
0860746948000112000100004647510000840          LESLEY ADM.COR.DE SEGS S/C LTD300820173108201731082017V         Novo (previa)     MM REPRESENTANTE DE BRINQUEDOS LTDAOAB7448     9BGRP48F0CG212685              MANAUS6904561000000100319252   43,50AM
0860746948000112000100004641700000840          SOLIMOES ADM E COR DE SEG LTDA160820171708201717082017V         Novo (previa)                   AMANDA NAKAMINE BESSAPHJ6220     98MHS7000H4A47266              MANAUS6905000100000100640565   43,50AM
0860746948000112000100004641330000849          JAMF CORRETORA DE SEGUROS LTDA080820170908201710082017V         Novo (previa)                       ALECIR COSTA LIMAPHM2050     9bgca8030fb194619              MANAUS6905703000000100409596   43,50AM
0860746948000112000100004647010000975           HPE CORRETORA DE SEGUROS LTDA220820172308201723082017V         Novo (previa)          PAULO DE TARSO ROCHA BERNARDESJXQ9206     9BD17140A72927412              MANAUS6907904000001020076053   43,50AM
0860746948000112000100004641400000840          GS CORRETORA DE SEGUROS LTDA M090820171008201710082017V         Novo (previa)          AMAZONORTE CARGAS EXPRESS LTDAPHL8908     9BM958166GB030112              MANAUS6902029000001020321724   43,50AM
0860746948000112000100004641640000849          M S PINTO CORRETORA DE SEGUROS150820171608201716082017V         Novo (previa)                       ANDRE MELO SOARESNOJ4918     9BWAA05U39P001845              MANAUS6906518000001020393911   43,50AM
0860746948000112000100004641680000840          TAUMATURGO E VEIGA COR DE SEGS150820171608201716082017V         Novo (previa)      DULCILENE DE CARVALHO REIS BARBOSAPHA5020     8ajex32g2f4039458              MANAUS6909550800000100678473   43,50AM
0860746948000112000100004647430000849          CONSULCOR ADM CORT SEGS  IMOVE290820173008201730082017V         Novo (previa)            CAMILA MARIA CORREA DA COSTANON2297     9BGRZ0810AG129848              MANAUS6904061300000100398250   43,50AM
0860746948000112000100004641650000849            J.C.NETO COR.E ADM.SEGS LTDA150820171608201716082017V         Novo (previa)                  MARILDA LOUREIRO JACOBPHJ9238     8AJHA8CDXH2580224              MANAUS6902006000000100354945   43,50AM
0860746948000112000100004647490000653             GEORGECOR CORR DE SEGS LTDA300820173108201731082017V         Novo (previa)             REJANE RAMOS DE ARAUJO MELOPHK4163     9BG148EA0HC406186              MANAUS6904477500001020279914   43,50AM
0860746948000112000100004641610000840          GAD CORRETORA E ADM DE SEGS LT150820171608201716082017V         Novo (previa)                  PAULO CESAR LEITE SAIDOAF1862     94DVCUD40EJ914641              MANAUS6905062000001020192436   43,50AM
0860746948000112000100004647120000840          NEWLIFE SEG ADM E COR SEG EIRE230820172408201724082017V         Novo (previa)                      WILSON PIRES LOPESPHG1881     KNABX514AGT110840              MANAUS6905570500001020370245   43,50AM
0860746948000112000100004641140000849              CRISTIANE SANTANA NOGUEIRA010820170208201702082017V         Novo (previa)     DISTREL DISTRIBUIDORA ELETRICA LTDAPHD2175     9BWKB45U7HP124538              MANAUS6902020500001020200986   43,50AM
0860746948000112000100004641710000653             GEORGECOR CORR DE SEGS LTDA160820171708201717082017V         Novo (previa)                ANTONIO MATOS GOMES NETOJXQ4364     9BG138HU08C422583              MANAUS6907000000001020279914   43,50AM
0860746948000112000100004647580000849          CARANHA CORR DE SEGS VIDA LTDA310820173108201731082017V         Novo (previa)          CINTIA SIMONE MOURA FILGUEIRASPHJ7381     9BFZB55P4F8552184              MANAUS6905535000001020399235   43,50AM
0860746948000112000100004641730000854           BJB CORRETORA DE SEGUROS LTDA160820171708201717082017V         Novo (previa)                  RESINA ENGENHARIA LTDAPHI2911     936CMNFN2GB020115              MANAUS6905311000000100558699   43,50AM
0860746948000112000100004647520000849            SSG COR DE SEGS DE VIDA LTDA300820173108201731082017V         Novo (previa)                      ELAINY FARIAS REGOOAE7772     9BHBG51CAEP215987              MANAUS6905469900001020344899   43,50AM
0860746948000112000100004641750000849          G G MOURA CORRETORA DE SEGUROS160820171708201717082017V         Novo (previa)                    HELDER BINDA PIMENTAJXU6781     9BGRP48F0EG261281              MANAUS6909042000000100319783   43,50AM
0860746948000112000100004647530000849           ABG CORR DE SEGS DE VIDA LTDA300820173108201731082017V         Novo (previa)         MAILDES ANTONIA DA SILVA CASADOOAG8838     9BRBD48E9C2541649              MANAUS6904535000001020341458   43,50AM
0860746948000112000100004647100000835          ELLO FORTE ADM E CORR DE SEG L230820172408201724082017V         Novo (previa)              DJALMA DIAS PEREIRA JUNIORNOZ2479     8AJEX32G9A4023024              MANAUS6904354000001020116080   43,50AM
0860746948000112000100004641900000849          LESLEY ADM.COR.DE SEGS S/C LTD180820172108201721082017V         Novo (previa)                    KAREN DIANA MESQUITAPHC6134     9BGKS69G0FG358525              MANAUS6902536000000100319252   43,50AM
0860746948000112000100004641780000849            J.C.NETO COR.E ADM.SEGS LTDA170820171808201718082017V         Novo (previa)      MARIA DE NAZARE PEREIRA DOS SANTOSPHC7213     9BWAG4120FT557091              MANAUS6902501000000100354945   43,50AM
0860746948000112000100004641790000849          TATIANE DA S S CORR DE SEG EPP170820171808201718082017V         Novo (previa)  JOSE CARLOS DE OLIVEIRA MARQUES JUNIORPHD3750     9BRBDWHE6G0269719              MANAUS6900525000001020330553   43,50AM
0860746948000112000100004641110000639           LC MARINHO ADM E CORR SEGS SC010820170208201702082017V         Novo (previa)               FRANCISCO ARAUJO CORDOVILOAN6097     8AJFX29G9D6601880              MANAUS6905000100000100266922   43,50AM
0860746948000112000100004647140000849          JAMF CORRETORA DE SEGUROS LTDA230820172408201724082017V         Novo (previa)                    TOMAZ DE AQUINO LIMANOZ2256     9BRBB42E4B5148718              MANAUS6909349700000100409596   43,50AM
0860746948000112000100004641760000854          MARUAGA CONS.ADM.COR.DE SEGS.L160820171708201717082017V         Novo (previa)          MARIA DE NAZARETH PEGAS CHAVESNPA0004     KNAJH521895032465              MANAUS6905312000000100437999   43,50AM
0860746948000112000100004641690000840          ANAUE ADM.E COR.DE SEGUROS LTD160820171708201717082017V         Novo (previa)              TANIA MARIA DE SOUZA BELEMPHH3815     93HRV2830GZ157569              MANAUS6906000000000100478636   43,50AM
0860746948000112000100004647150000840                     JACENIRA LELES DIAS230820172408201724082017V         Novo (previa)                 CAMILA SILVA NASCIMENTOPHC4118     95PJU81DBGB028597              MANAUS6905844800001020046707   43,50AM
0860746948000112000100004641150000849            J.C.NETO COR.E ADM.SEGS LTDA010820170208201702082017V         Novo (previa)         GISELY CASTRO OLIVEIRA DA SILVAPHM4717     9BHBG51CAHP754770              MANAUS6907031000000100354945   43,50AM
0860746948000112000100004641880000849            J.C.NETO COR.E ADM.SEGS LTDA180820172108201721082017V         Novo (previa)                 MARCELO TRAVESSA GUEDESOAN3324     93YHSR2LAEJ769623              MANAUS6905305000000100354945   43,50AM
0860746948000112000100004641200000613              FTR CORRETORA DE SEGS LTDA020820170308201703082017V         Novo (previa) MARIA GLORIA ANDREZZA DA R A CAVALCANTIPHX2403     JTMDD4EV4FJ014746              MANAUS6905708000001020112696   43,50AM
0860746948000112000100004641180000842           SECURE SELL COR E ADM DE SEGS020820170308201703082017V         Novo (previa)           PABLO HENRIQUE AZENHA FREITASNPA8861     9BG148LP0EC452119              MANAUS6905000000000100396931   43,50AM
0860746948000112000100004641830000854          PROVISA CORRETORA DE SEGURO LT170820171808201718082017V         Novo (previa)        PROVISA CORRETORA DE SEGURO LTDAPHE6498     9BD17122ZG7552606              MANAUS6904027000000100649261   43,50AM
0860746948000112000100004641820000854          PROVISA CORRETORA DE SEGURO LT170820171808201718082017V         Novo (previa)        PROVISA CORRETORA DE SEGURO LTDAOAA5500     WV1DB42H7DA028244              MANAUS6904027000000100649261   43,50AM
0860746948000112000100004647560000849          ROSAN E NUNES COR DE SEGS LTDA310820173108201731082017V         Novo (previa)                    TAYANE SANTOS COELHOPHM6639     9BD341A8XHY443176              MANAUS6905360000001020185669   43,50AM
0860746948000112000100004641960000849          JAMF CORRETORA DE SEGUROS LTDA210820172208201722082017V         Novo (previa)     CRISTIANE R M SOTTO MAYOR FERNANDESPHH9590     WDCGG8EW8FG428379              MANAUS6905311000000100409596   43,50AM
0860746948000112000100004641850000849            J.C.NETO COR.E ADM.SEGS LTDA170820171808201718082017V         Novo (previa)                TIAGO HOUNSELL DE BARROSPHB6082     9BWDA45U3FT076522              MANAUS6908649000000100354945   43,50AM
0860746948000112000100004641300000639           LC MARINHO ADM E CORR SEGS SC050820170708201707082017V         Novo (previa)           MARIA DAS GRACAS LEITE GUEDESPHF1657     93HFB9640GZ215671          MANACAPURU6904000300000100266922   43,50AM
0860746948000112000100004641860000840          F.A. MATIAS BARBOSA COR.DE SEG180820172108201721082017V         Novo (previa)ABRAAO DA S. CARDOSO COMUNICACOES E PRODPHI3638     9BG148EA0HC408916              MANAUS6905707800000100121801   43,50AM
0860746948000112000100004641920000613              FTR CORRETORA DE SEGS LTDA180820172108201721082017V         Novo (previa) MARIA GLORIA ANDREZZA DA R A CAVALCANTIPHO2403     8AJBA3FS4H0240727              MANAUS6905708000001020112696   43,50AM
0860746948000112000100004641250000840          MLVS CORRETORA DE SEGUROS LTDA040820170508201706082017V         Novo (previa)               ELIANE GONCALVES CRAVEIROPHL8571     3N8CP5HE8HL465280              MANAUS6903700100000100558354   43,50AM
0860746948000112000100004641620000849          ROSAN E NUNES COR DE SEGS LTDA150820171608201716082017V         Novo (previa)                 FRANCINEY GOMES BATISTAPHL2188     9bfzh55l6h8431199              MANAUS6903567000001020185669   43,50AM
0860746948000112000100004641930000849          JAMF CORRETORA DE SEGUROS LTDA180820172108201721082017V         Novo (previa)                      FLAVIO SILVA RAMOSNOZ0761     9BHBH41DBEP267787              MANAUS6905041200000100409596   43,50AM
0860746948000112000100004641420000849            J.C.NETO COR.E ADM.SEGS LTDA100820171108201711082017V         Novo (previa)      FABIO ANTONIO AIUB ARAUJO DA SILVAPHK1147     9BG148MK0HC409059              MANAUS6905707000000100354945   43,50AM
0860746948000112000100004641240000840          ALCORR CORRETORES E AGENTES DE030820170408201704082017V         Novo (previa)           JOSE PINHEIRO DE QUEIROZ NETOPHJ7956     9BFZH54J4H8350024              MANAUS6904479400001020057539   43,50AM
0860746948000112000100004641500000613              FTR CORRETORA DE SEGS LTDA110820171208201712082017V         Novo (previa) MARIA GLORIA ANDREZZA DA R A CAVALCANTIPHO2403     8AJBA3FS4H0240727              MANAUS6905708000001020112696   43,50AM
0860746948000112000100004647110000849          JAMF CORRETORA DE SEGUROS LTDA230820172408201724082017V         Novo (previa)  IMPRENSA OFICIAL DO ESTADO DO AMAZONASJXN5837     93YBB8E156J747912              MANAUS6902001500000100409596   43,50AM
0860746948000112000100004647390000849          JAMF CORRETORA DE SEGUROS LTDA280820172908201729082017V         Novo (previa)                     ERIKA SILVA MORETTIPHE1808     94DFFUK13GB101354              MANAUS6905318000000100409596   43,50AM
0860746948000112000100004641230000840          ALCORR CORRETORES E AGENTES DE030820170408201704082017V         Novo (previa)        WLANDEMIR BENVINDO DE FIGUEIREDONOU5050     93HFA66808Z219975              MANAUS6905883300001020057539   43,50AM
0860746948000112000100004641940000849              CRISTIANE SANTANA NOGUEIRA190820172108201721082017V         Novo (previa)     REGIANE GOMES DE OLIVEIRA DE AQUINOPHJ8486     9BHBG41DBGP615368              MANAUS6902016000001020200986   43,50AM
0860746948000112000100004641520000849          MMA CORRETORA DE SEGUROS LTDA 120820171408201714082017V         Novo (previa)                 GISELE DE CASTRO MACIELOAA5318     9BGRP48F0CG194822              MANAUS6906503000001020171420   43,50AM
0860746948000112000100004641270000849                P D A BARROSO E CIA LTDA040820170508201706082017V         Novo (previa)         ARTUNIZIA DOS SANTOS CAVALCANTEPHK4357     9BD341A8NHB425686              MANAUS6907902000001020317140   43,50AM
0860746948000112000100004641260000849          JAMF CORRETORA DE SEGUROS LTDA040820170508201706082017V         Novo (previa)              HELIANE MARIA SAID E SILVAPHI7793     9BRB29BT8G2112485              MANAUS6905325000000100409596   43,50AM
0860746948000112000100064641970000849          JAMF CORRETORA DE SEGUROS LTDA210820172208201722082017V         Novo (previa)            SOLANGE SABINO GOMES CAMARGOOAO3607     9bwaa05zxd4102242              MANAUS6909776000000100409596   43,50AM
0860746948000112000100004647300000849            J.C.NETO COR.E ADM.SEGS LTDA260820172908201729082017V         Novo (previa)            MANOEL CRISTOVAO DE OLIVEIRAPHA6261     9BG148EA0FC404734              MANAUS6904532000000100354945   43,50AM
0860746948000112000100004641490000854           BJB CORRETORA DE SEGUROS LTDA110820171208201712082017V         Novo (previa)                ROMULO TEIXEIRA DA COSTAPHG6697     9BD19515ZG0703542              MANAUS6904069000000100558699   43,50AM
0860746948000112000100004201200000850                          ZUITH AQUINO C280820172908201729082017V         Novo (previa)                  SANDRA DA SILVA ARAUJOQDA5607     94DBCAN17GB105560           BARCARENA6844700000000100634450   43,50PA
0860746948000112000100048001210000841          LOJACORR S A REDE DE COR DE SE120820171408201714082017V         Novo (previa)              DENISON DOS SANTOS MARTINSPXW6833     93Y5SRD04HJ415666           BARCARENA6844500000000100438502   43,50PA
0860746948000112000100048001220000841           UNO COR.E ADM.DE SEGUROS LTDA120820171408201714082017V         Novo (previa)                    THIAGO IWANAGA SOUZAQDA9696     95PJU81DBGB027365           BARCARENA6844700000000100172219   43,50PA
0860746948000112000100004802920000838          ANDRADE-ADM E COR DE SEGS LTDA240820172508201725082017V         Novo (previa)                  GLEISSE SILVA DA SILVAPAO6245     8AJBA3FS2G0221978          ABAETETUBA6844000000000100318663   43,50PA
0860746948000112000100004803850000850                          ZUITH AQUINO C220820172308201723082017V         Novo (previa)               JOSE MARIA ARAUJO BICHARAQDY9704     9BGKL69U0HG233692    VILA DOS CABANOS6844700000000100634450   43,50PA
0860746948000112000100048011030000850                          ZUITH AQUINO C090820171008201710082017V         Novo (previa)               EDERSON SANTOS DOS SANTOSQEV9722     9BWAG45Z1H4018015          ABAETETUBA6844000000000100634450   43,50PA
0860746948000112000100005109010000850                          ZUITH AQUINO C300820173108201731082017V         Novo (previa)             WAGNER ANTONIO ROCHA NAMIASQDD6943     93XVNKB8TGCF12266           BARCARENA6844700000000100634450   43,50PA
0860746948000112000100005109020000838          D S R CORRETORA DE SEGUROS LTD300820173108201731082017V         Novo (previa)   MARIA DA CONCEICAO LODREIRO DE FREITAQEY6980     9BRB29BT2H2125816           BARCARENA6844700000000100306754   43,50PA
0860746948000112000100048001820000850                          ZUITH AQUINO C030820170408201704082017V         Novo (previa)      FRANCISCO ERINALDO VIEIRA DA COSTANST6830     KMHSH81DDAU524435    VILA DOS CABANOS6844700000000100634450   43,50PA
0860746948000112000100048001720000850                          ZUITH AQUINO C020820170208201702082017V         Novo (previa)                RAIMUNDO NONATO DA SILVAOFS4896     94DVCGD40DJ391464           BARCARENA6844700000000100634450   43,50PA
0860746948000112000100048001700000846            ALINE APARECIDA JOSE BATISTA020820170208201702082017V         Novo (previa)              ROBINHO TRANSPORTES EIRELINJB0082     9BVAS02C48E738608           BARCARENA6844597000001020392940   43,50PA
0860746948000112000100048001680000850             AZUNAV CORR DE SEGUROS LTDA010820170108201701082017V         Novo (previa)                    J A MORAES JUNIOR MEQLN4864     953658246FR511626           BARCARENA6844500000000100611611   43,50PA
0860746948000112000100004803910000838          D S R CORRETORA DE SEGUROS LTD230820172408201724082017V         Novo (previa)   MARIA DA CONCEICAO LODREIRO DE FREITAQEY6980     9BRB29BT2H2125816           BARCARENA6844700000000100306754   43,50PA
0860746948000112000100004802710000850                          ZUITH AQUINO C190820172108201721082017V         Novo (previa)                 LUIS GONZAGA DOS SANTOSQDC2470     3N1CN7AD7EK474605          ABAETETUBA6844000000000100634450   43,50PA
0860746948000112000100004803860000850                          ZUITH AQUINO C220820172308201723082017V         Novo (previa)           JOSE DA SILVA FERREIRA JUNIOROFR5209     9BWAA05Z9D4089936    VILA DOS CABANOS6844700000000100634450   43,50PA
0860746948000112000100004802130000850                          ZUITH AQUINO C250820172608201727082017V         Novo (previa)                 MIRIAN RAMOS DE MENEZESIYI1978     3FAHP0JA3CR318095           BARCARENA6844700000000100634450   43,50PA
0860746948000112000100004201190000850                          ZUITH AQUINO C280820172908201729082017V         Novo (previa) CAST CONSULTORIA SERVICOS TECNICOS LTDAOFP9618     95365824XCR243904           BARCARENA6844700000000100634450   43,50PA
0860746948000112000100004415870000847          BGSB CORRETORA DE SEGUROS LTDA040820170508201706082017V         Novo (previa)                 MARIA APARECIDA LUCIANOOTR5575     9bwag4120ft520428               BELEM6604017200000100560171   43,50PA
0860746948000112000100004416550000847          BGSB CORRETORA DE SEGUROS LTDA220820172308201723082017V         Novo (previa)                EVANGELISTA GOMES VIEIRAQEY3402     9BD57824FHY149249         PARAGOMINAS6862546000000100560171   43,50PA
0860746948000112000100004416580000847          VALE CORRETORA DE SEGUROS EIRE220820172308201723082017V         Novo (previa)        SABRYNA NAZARE ALCANTARA RESENDEQEP4050     8AJBA3FSXH0232891         PARAGOMINAS6862597000001020308230   43,50PA
0860746948000112000100004416220000850           BRADESCOR COR DE SEGUROS LTDA110820171408201714082017V         Novo (previa)              LUAN CRISTIAN SOUSA DUARTEQDF6409     9BWAA45Z4E4163353         PARAGOMINAS6862848400000100058777   43,50PA
0860746948000112000100004416820000847           BRADESCOR COR DE SEGUROS LTDA240820172608201727082017V         Novo (previa) SOLANGE LIKAKO LINS TAKANASHI CONTARINIQDV2210     9BRBDWHE3G0288700         PARAGOMINAS6862500500000100058777   43,50PA
0860746948000112000100005101010000847          VALE CORRETORA DE SEGUROS EIRE290820173008201730082017V         Novo (previa)           CARLOS ALBERTO SALES FERREIRANEM7259     9BWLB45U5EP117975         PARAGOMINAS6862547000001020308230   43,50PA
0860746948000112000100004416230000847          VALE CORRETORA DE SEGUROS EIRE110820171408201714082017V         Novo (previa)          OSVALDIRA FERNANDES DE ALMEIDAQDW4013     9BHBH51DBHP754936         PARAGOMINAS6862513000001020308230   43,50PA
0860746948000112000100004415970000866          PARIS DAKAR CORR DE SEGS LTDA 080820170908201709082017V         Novo (previa)            ATAIDE XAVIER DE LIMA JUNIORQEV4020     8AJBA3CD9G1568093         PARAGOMINAS6862854500001020097131   43,50PA
0860746948000112000100004416470000847          BGSB CORRETORA DE SEGUROS LTDA170820172108201721082017V                Outros               CARLOS LOPES DA VERA CRUZQDF5397     9BG148FK0FC432867         PARAGOMINAS6862635100000100560171   43,50PA
0860746948000112000100004416200000847          VALE CORRETORA DE SEGUROS EIRE110820171408201714082017V         Novo (previa)                     TIAGO STEFANNO FACOQDT9996     8AJFA8CB0H2002056         ULIANOPOLIS6863200000001020308230   43,50PA
0860746948000112000100004416830000847          ELISAMA TRAVASSOS SILVA PEIXOT250820172608201727082017V         Novo (previa)                FRANCISCO ALVES DE SOUSAPXM7572     9BD57814UGB085994         PARAGOMINAS6862650900001020390912   43,50PA
0860746948000112000100004416270000850           BRADESCOR COR DE SEGUROS LTDA140820171408201714082017V         Novo (previa)        MICILANDIA NASCIMENTO DOS SANTOSOTH2990     9BRBL42EXD4754062             IRITUIA6865500000000100058777   43,50PA
0860746948000112000100004416460000841          BGSB CORRETORA DE SEGUROS LTDA180820172108201722082017V         Novo (previa)                            IVAN CERETTAQDP4121     93XXNKB8TFCE05292         PARAGOMINAS6862745500000100560171   43,50PA
0860746948000112000100004640580000840          PAULO OMENA ADM COR SEGS LTDA 070820170808201708082017V         Novo (previa)               GABRIEL CORDEIRO DA SILVAPHJ4110     9BHBG41CAHP672571              MANAUS6902016000000100170704   43,50AM
0860746948000112000100004646080000854           BJB CORRETORA DE SEGUROS LTDA190820172108201721082017V         Novo (previa)                   THIAGO LUIS SCHAEDLERPHH0990     9BWJB45U2GP033994              MANAUS6905714000000100558699   43,50AM
0860746948000112000100004646510000849          A R MENEZES JUNIOR COR DE SEGS260820172908201729082017V         Novo (previa)        ALICEIA MONTEIRO DA GAMA E SOUZAPHN9148     9BGKS48V0HG225023              MANAUS6905464100000100116670   43,50AM
0860746948000112000100004640590000849          CARANHA CORR DE SEGS VIDA LTDA070820170808201708082017V         Novo (previa)                 EDNELZA SANTOS DA COSTAJXJ0682     9BGXH75G08C722899              MANAUS6909005000001020399235   43,50AM
0860746948000112000100004640500000854           BJB CORRETORA DE SEGUROS LTDA040820170508201706082017V         Novo (previa)              GIOVANNI OLIVEIRA DE SOUZAPHH2759     94DFFUK13GB102869              MANAUS6905471700000100558699   43,50AM
0860746948000112000100004640870000975            FORTALEZA CORR SEGS S/C LTDA150820171508201715082017V         Novo (previa)                   CREUZA CAMPOS MARQUESPHF5673     93yhsr6p5fj501942              MANAUS6909722200000100202631   43,50AM
0860746948000112000100004640560000639           LC MARINHO ADM E CORR SEGS SC050820170708201707082017V         Novo (previa)                    LEONARDO SOUJI MAEDAJWF8049     9BG148FH0DC499101              MANAUS6905700200000100266922   43,50AM
0860746948000112000100004646670000849          G G MOURA CORRETORA DE SEGUROS300820173108201731082017V         Novo (previa)     LAMONICA CONS E ASSES DE BENEFICIOSPMG2002     SALVA2BE0FH987161              MANAUS6905706000000100319783   43,50AM
0860746948000112000100004646140000966          11PONTO11 COR SEG & PROTECAO E220820172608201727082017V         Novo (previa)              SANDRO ELIMAR ROCHA MENDESNPB7761     9BGKS48B0FG137050              MANAUS6905880000000100731803   43,50AM
0860746948000112000100004640570000840          A.A.BRAGA JR.ADM.COR.SEGS.LTDA070820170808201708082017V         Novo (previa)                     WILSON WOLTER FILHOOAL3003     KMHJU81DBEU709363              MANAUS6905571000000100340553   43,50AM
0860746948000112000100004646550000840          BALMEK COR DE SEG VIDA LTDA ME280820172908201729082017V         Novo (previa)          CARLOS ANDRE NOGUEIRA DA SILVAPHA8481     9BD578377F7901289              MANAUS6905858100000100651982   43,50AM
0860746948000112000100004646780000840          A.A.BRAGA JR.ADM.COR.SEGS.LTDA310820173108201731082017V         Novo (previa)           PAULO AFONSO CERQUEIRA BOMFIMOAC2191     WV1DB42H8EA037603              MANAUS6905820400000100340553   43,50AM
0860746948000112000100004640840000849          JAMF CORRETORA DE SEGUROS LTDA140820171508201715082017V         Novo (previa)                AURICELIA FOGACA MARQUESOAM3602     93YBSR7RHEJ259036              MANAUS6902836000000100409596   43,50AM
0860746948000112000100004640600000840           SEGURAR SERV E COR DE SEGUROS070820170808201708082017V         Novo (previa)                 ADRIANO FARIAS PAMPOLHAOAB5414     9BD196271D2150798              MANAUS6909740500001020143575   43,50AM
0860746948000112000100004640620000849          M S PINTO CORRETORA DE SEGUROS070820170808201708082017V         Novo (previa)               IZALTINO CASTRO GUIMARAESOAN7322     9BD196272E2213089              MANAUS6902832200001020393911   43,50AM
0860746948000112000100004646260000840           SEGURAR SERV E COR DE SEGUROS230820172408201724082017V         Novo (previa)        ANTONIO WISLEY PINHEIRO OLIVEIRAPHC9274     9BHBH41DBFP414660              MANAUS6909617800001020143575   43,50AM
0860746948000112000100004640630000840          GAD CORRETORA E ADM DE SEGS LT080820170908201709082017V         Novo (previa)                  ROSEANE ROCHA DA SILVAPHG7682     9BGKT48R0GG195074              MANAUS6905824000001020192436   43,50AM
0860746948000112000100004640170000849          G G MOURA CORRETORA DE SEGUROS280720172907201701082017V         Novo (previa)           MARCELA BRITO DE CASTRO ALVESNOW6641     9BRB29BT2E2044990              MANAUS6906725000000100319783   43,50AM
0860746948000112000100004646770000840          VIA EGIDE COR.ADM.E CONSULT.DE310820173108201731082017V         Novo (previa)                     FRANCOIS HARB FILHOPHH8862     9BGJC75E0GB107951              MANAUS6905517000000100614645   43,50AM
0860746948000112000100004640660000854           BJB CORRETORA DE SEGUROS LTDA080820170908201709082017V         Novo (previa)FORTUNATO FERREIRA DE AZEVEDO E CIA LTDANPA0156     9533182T9BR115738PRESIDENTE FIGUEIRED6973500000000100558699   43,50AM
0860746948000112000100004640650000854           BJB CORRETORA DE SEGUROS LTDA080820170908201709082017V         Novo (previa)FORTUNATO FERREIRA DE AZEVEDO E CIA LTDAJXJ4175     9BM6953016B472817PRESIDENTE FIGUEIRED6973500000000100558699   43,50AM
0860746948000112000100004640640000854           BJB CORRETORA DE SEGUROS LTDA080820170908201709082017V         Novo (previa)FORTUNATO FERREIRA DE AZEVEDO E CIA LTDAJXK2489     9BM6953012B323450PRESIDENTE FIGUEIRED6973500000000100558699   43,50AM
0860746948000112000100004640670000854           BJB CORRETORA DE SEGUROS LTDA080820170908201709082017V         Novo (previa)FORTUNATO FERREIRA DE AZEVEDO E CIA LTDANAP1266     94DVCUD40BJ765809PRESIDENTE FIGUEIRED6973500000000100558699   43,50AM
0860746948000112000100004646210000840          LESLEY ADM.COR.DE SEGS S/C LTD220820172408201724082017V         Novo (previa)            AURILENE DE CASTILHO BUSSONSOAF3011     9BRBDWHE4F0215687              MANAUS6905469300000100319252   43,50AM
0860746948000112000100004646650000849          ROSAN E NUNES COR DE SEGS LTDA300820173108201731082017V         Novo (previa)          ADISBEL AMAZONAS DISTRIBUIDORAQEI1381     9BGJC69E0GB151703              MANAUS6909301500001020185669   43,50AM
0860746948000112000100004646640000849          ROSAN E NUNES COR DE SEGS LTDA300820173108201731082017V         Novo (previa)              VANESSA CONCEICAO CARVALHOPHN3198     988675116HKH34813              MANAUS6902800000001020185669   43,50AM
0860746948000112000100004646320000849          JAMF CORRETORA DE SEGUROS LTDA240820172508201725082017V         Novo (previa)                IRISNALDA VIANA DA SILVAOAF3675     9BD195193D0419644              MANAUS6909727100000100409596   43,50AM
0860746948000112000100004646700000840          ZONA FRANCA DAS AMERICAS-ASSES300820173108201731082017V         Novo (previa)        MOISES TEIXEIRA TAVARES DE SOUZAPHK7913     8AJHA8CD9H2592770              MANAUS6905546000000100364789   43,50AM
0860746948000112000100004640900000849          A R MENEZES JUNIOR COR DE SEGS160820171708201717082017V         Novo (previa)       MARCIUS FERNANDES DE AZEVEDO MAIAPHK3439     9BGKT69V0HG133183              MANAUS6909845200000100116670   43,50AM
0860746948000112000100004640690000849              WESLANY DE O FERNANDES EPP080820170908201709082017V         Novo (previa) RENATO CESAR VENANCIO DE OLIVERIA SILVAOAI3722     935SLNFNWEB557379              MANAUS6905467200001020347014   43,50AM
