0760746948000112000100004601870000849          CONSULCOR ADM CORT SEGS  IMOVE170720171807201718072017V         Novo (previa)                    TALITA VALE DA SILVAPHK1284     9BGKT48V0HG216995              MANAUS6905000100000100398250   43,50AM
0760746948000112000100004601880000849          CONSULCOR ADM CORT SEGS  IMOVE170720171807201720072017V         Novo (previa)    AUDAX ACESSORIA EMPRESARIAL S S LTDAOAC5274     wv1sd42hxda030832              MANAUS6905706000000100398250   43,50AM
0760746948000112000100004635200000849          CONSULCOR ADM CORT SEGS  IMOVE170720171807201718072017V         Novo (previa)              GABRIEL CARVALHO RODRIGUESPHB6374     94dvcud40fj499012              MANAUS6909902600000100398250   43,50AM
0760746948000112000100004635160000849           BRADESCOR COR DE SEGUROS LTDA120720171307201713072017V         Novo (previa)                       JAMES REIS MACEDONOZ2521     9BG148EP0EC447157              MANAUS6905879600000100058777   43,50AM
0760746948000112000100004635270000001           BRADESCOR COR DE SEGUROS LTDA250720172707201727072017P         Novo (previa)                 RAMOM FELIPE R SIQUEIRAPHX1050     9BWAG45Z8H4015418              MANAUS6903700000000100058777   27,00AM
0760746948000112000100004635230000001           BRADESCOR COR DE SEGUROS LTDA190720172007201720072017P         Novo (previa)                GABRIEL TEIXEIRA ANDRADEPHC4849     9BHBG41CAFP479877              MANAUS6903700000000100058777   27,00AM
0760746948000112000100004802030000851          PRIME RR CORRETORA DE SEGS EIR210720172107201721072017V         Novo (previa)                   VALTER UENER DA SILVAQEQ1340     8AJBA3CD3H1583190  SAO FELIX DO XINGU6838000000001020338848   43,50PA
0760746948000112000100004802020000851          PRIME RR CORRETORA DE SEGS EIR210720172107201721072017V         Novo (previa)                     DIRCEU COSTA CRISTOOFV5230     8AJFY29G0D8514967  SAO FELIX DO XINGU6838000000001020338848   43,50PA
0760746948000112000100004300300000841          UNIVERSO CORRETORA DE SEGS LTD050720170507201705072017V         Novo (previa)                JANIO BRASILINO DOMINGOSONQ8047     9BG148FK0EC407073  SAO FELIX DO XINGU6838000000000100169684   43,50PA
0760746948000112000100004300330000836          EMITE CORRETORA DE SEGUROS LTD060720170607201706072017V         Novo (previa)                        MARCELO DE FARIAFDI3695     8AJFY29G8C8503665  SAO FELIX DO XINGU6838000000000100494577   43,50PA
0760746948000112000100004801250000835          INOVATTA CORRETORA DE SEGUROS 250720172507201725072017V         Novo (previa)                             IURI DUARTEQEL6999     8AJFA8CB0H2001053  SAO FELIX DO XINGU6838000000000100690597   43,50PA
0760746948000112000100004103470000841          MARCORR COR E ADM DE SEGS LTDA070720170707201707072017V         Novo (previa)                  LUCIANO LIRA DE ARAUJOPQT7453     8AJBA3CDXG1573853  SAO FELIX DO XINGU6838000000000100374130   43,50PA
0760746948000112000100048001320000851          PRIME RR CORRETORA DE SEGS EIR260720172607201726072017V         Novo (previa)                 JOSE PEREIRA DOS SANTOSOOB7980     8AJFY29G7D8515632  SAO FELIX DO XINGU6838000000001020338848   43,50PA
0760746948000112000100004103480000841          UNIVERSO CORRETORA DE SEGS LTD070720170707201707072017V         Novo (previa)       CANDIDA DE FATIMA COELHO DE SOUZAQEW3159     93XHYKB8TJCH30484  SAO FELIX DO XINGU6838000000000100169684   43,50PA
0760746948000112000100004300720000847                  CNLO CORR SEGUROS LTDA170720171807201718072017V         Novo (previa)                         L DA S SOUSA MEOVL0936     WV1DB42H0EA001923  SAO FELIX DO XINGU6838000000000100308871   43,50PA
0760746948000112000100004300260000855           TLM CORRETORA DE SEGUROS LTDA030720170407201704072017V         Novo (previa)                JUSLENE MARIANO DA SILVAPFW5101     9BD27804MD7584116  SAO FELIX DO XINGU6838000000001020174802   43,50PA
0760746948000112000100004300700000842          PONTUAL UNIVERSO CORRETORA DE 170720171807201718072017V         Novo (previa)               MAURICIO RODRIGUES DUARTEQKE8900     93XXTGA2WGCF22233  SAO FELIX DO XINGU6838000000000100579459   43,50PA
0760746948000112000100004300710000841          MARCORR COR E ADM DE SEGS LTDA170720171807201718072017V         Novo (previa)                    EDNALVA MARTINS LIMAQEI5169     9BG148LA0HC420416  SAO FELIX DO XINGU6838000000000100374130   43,50PA
0760746948000112000100048001490000870           BONSAI NORTE COR DE SEGS LTDA270720172807201728072017V         Novo (previa)          AURIVANEIDE DA MATA CAVALCANTEQDJ0317     9BGKC48V0HG103386        MEDICILANDIA6814500000001020091117   43,50PA
0760746948000112000100004109930000850          NIPPON HASEGAWA COR SG VIDA LT170720171807201718072017V         Novo (previa)                  CLEMILTON SILVA SANTOSQEZ3562     9BGKS69V0HG194293    VITORIA DO XINGU6838390000000100504815   43,50PA
0760746948000112000100004300820000850          NIPPON HASEGAWA COR SG VIDA LT180720171907201719072017V         Novo (previa)                     ROMILDO SILVA ROCHAOMN5579     8AJFY29GXE8561666               ANAPU6836500000000100504815   43,50PA
0760746948000112000100004109970000850          NIPPON HASEGAWA COR SG VIDA LT180720171907201719072017V         Novo (previa)                DENIS ARAUJO DE MEDEIROSOTX2786     9BD17122LF5942095    VITORIA DO XINGU6838300000000100504815   43,50PA
0760746948000112000100048001460000850          NIPPON HASEGAWA COR SG VIDA LT270720172807201728072017V         Novo (previa)               MANOEL PEREIRA DOS SANTOSOTI1127     9BD27805MD7672112         BRASIL NOVO6814800000000100504815   43,50PA
0760746948000112000100004109700000280          RODOBENS ADM E COR DE SEGS LTD080720171007201710072017V         Novo (previa)      SANTA CRUZ COM E SERVICOS LTDA EPPQEC4951     953658269FR513842               ANAPU6836500000000100204056   43,50PA
0760746948000112000100004109790000850          NIPPON HASEGAWA COR SG VIDA LT120720171207201712072017V         Novo (previa)            VALDOMIRO GONCALVES DA SILVAPHF3877     8AJFY22G5F8023114        MEDICILANDIA6814500000000100504815   43,50PA
0760746948000112000100048001450000850          NIPPON HASEGAWA COR SG VIDA LT270720172807201728072017V         Novo (previa)             JANDAIRES DE SOUSA FERREIRANSY5179     8AJFR22GXB4546109SENADOR JOSE PORFIRI6836000000000100504815   43,50PA
0760746948000112000100004801100000256          MINUTO CORRETORA DE SEGUROS S 190720172107201721072017P         Novo (previa)         JOSE MARCOS DE ARAUJO CONCEICAOOTM3020     9BG148FH0DC432419              MANAUS6903700000000100230758   27,00AM
0760746948000112000100004109770000838                  VIVABEM CORR SEGS LTDA110720171107201711072017V         Novo (previa)               ANDREIA VERCOSA CAVALHERIOGN9009     8AJYZ59G9C3057871            ALTAMIRA6837100000000100542610   43,50PA
0760746948000112000100004109610000641          J ASSUNCAO ADM E CORRETORA SEG060720170607201706072017V         Novo (previa)          DJEIMISSON NASCIMENTO DA ROCHABWV4040     8AJBA3FS7H0233223            ALTAMIRA6814500000000400016144   43,50PA
0760746948000112000100048001200000850          NIPPON HASEGAWA COR SG VIDA LT220720172407201724072017V         Novo (previa)              ELENKELEM DA ROCHA MACHADOQEN0021     9BHGC813BHP011546         BRASIL NOVO6814800000000100504815   43,50PA
0760746948000112000100048001330000641          J ASSUNCAO ADM E CORRETORA SEG260720172707201727072017V         Novo (previa)         LIANICE MAUES DA COSTA NOGUEIRAQDJ8355     9BRK19BT9G2056074            ALTAMIRA6814500000000400016144   43,50PA
0760746948000112000100048001350000850          NIPPON HASEGAWA COR SG VIDA LT260720172707201727072017V         Novo (previa)     P GONCALVES DE LIMA COMERCIO EIRELIMVW0916     9BSR6X4A053564861            ALTAMIRA6837115500000100504815   43,50PA
0760746948000112000100048001360000850          NIPPON HASEGAWA COR SG VIDA LT260720172707201727072017V         Novo (previa)     P GONCALVES DE LIMA COMERCIO EIRELIMWT9204     955R1463CCS351681            ALTAMIRA6837115500000100504815   43,50PA
0760746948000112000100048001340000850          NIPPON HASEGAWA COR SG VIDA LT260720172707201727072017V         Novo (previa)     P GONCALVES DE LIMA COMERCIO EIRELIPQO4512     9UWSHX76AGN018448            ALTAMIRA6837115500000100504815   43,50PA
0760746948000112000100004300830000850          NIPPON HASEGAWA COR SG VIDA LT190720171907201719072017V         Novo (previa)                FRANCISCA AYRES DA SILVAQDT4335     8AJBA3CD6H1578260            ALTAMIRA6837127100000100504815   43,50PA
0760746948000112000100004300980000835          DINIZ & DINIZ  CORR DE SEGS LT200720172107201721072017V         Novo (previa)                ADEZUITO  TEIXEIRA BRAGAQDZ9470     9BG148RA0GC407838               ANAPU6836500000000100541761   43,50PA
0760746948000112000100004109980000850          NIPPON HASEGAWA COR SG VIDA LT180720171907201719072017V         Novo (previa)                   RADSON NVES DE ARAUJOOFQ2176     9BWAB49N9DP002529            ALTAMIRA6837265000000100504815   43,50PA
0760746948000112000100048001230000850          NIPPON HASEGAWA COR SG VIDA LT240720172507201725072017V         Novo (previa)                   ELDIANE MOTA DA SILVAOTM9497     8AJFY22G5F8016857SENADOR JOSE PORFIRI6836000000000100504815   43,50PA
0760746948000112000100048001310000850          NIPPON HASEGAWA COR SG VIDA LT250720172607201726072017V         Novo (previa)                L A DE SOUSA COMERCIO MEOFR3168     9531M52P8CR260691SENADOR JOSE PORFIRI6836000000000100504815   43,50PA
0760746948000112000100004109860000628               PITTA CORRETORA SEGS LTDA140720171707201717072017V         Novo (previa)               HELIO RIBEIRO DE OLIVEIRAQKH8880     8AJFY29G8F8592514            ALTAMIRA6837504900000100100374   43,50PA
0760746948000112000100004300920000280          BRQUALY ADM E CORR DE SEGUROS 190720172007201720072017V         Novo (previa)                         A A DE ASSIS MEQDP9006     9531M62P5GR609107            ALTAMIRA6837631500000100434442   43,50PA
0760746948000112000100041009500000847           BRADESCOR COR DE SEGUROS LTDA030720170307201703072017V         Novo (previa)                  KLEVERY SILVA DE SOUSAOAN0323     93YHSR2LAEJ832922            ALTAMIRA6837673700000100058777   43,50PA
0760746948000112000100004109780000975           HPE CORRETORA DE SEGUROS LTDA110720171107201711072017V         Novo (previa)        EMERSON COSTA DO ESPIRITO SANTOSOFK1512     93XFRH77WCCC67636            ALTAMIRA6837231000001020076053   43,50PA
0760746948000112000100004109800000850          NIPPON HASEGAWA COR SG VIDA LT120720171207201712072017V         Novo (previa)        RAIMUNDO NONATO PEREIRA DE SOUSAOHR8700     9BWDB05U0CT162856    VITORIA DO XINGU6838300000000100504815   43,50PA
0760746948000112000100004300950000847          SLC ADM E COR DE SEG VIDA LTDA200720172107201721072017V         Novo (previa)                FABIO JUNIOR RAMOS PINTOMWS0943     9BFLF47969B067720            ALTAMIRA6814800000001020297246   43,50PA
0760746948000112000100041009450000641          J ASSUNCAO ADM E CORRETORA SEG010720170307201703072017V         Novo (previa)                HIRAM PAES DO NASCIMENTOPHE4667     8AJFY29G3F8588273            ALTAMIRA6837105700000400016144   43,50PA
0760746948000112000100004109940000850          NIPPON HASEGAWA COR SG VIDA LT170720171807201718072017V         Novo (previa)        KLEYTON GEMAQUE MIRANDA DA SILVAQDL5891     9BGKT69R0FG345857            ALTAMIRA6838390000000100504815   43,50PA
0760746948000112000100004109680000850          NIPPON HASEGAWA COR SG VIDA LT070720171007201710072017V         Novo (previa)     FRANCISCO ROBERIO FERREIRA DE SOUSAQEQ5980     8AJHA8CD7G2580101            ALTAMIRA6837256600000100504815   43,50PA
0760746948000112000100004300930000641                UNICOOB COR DE SEGS LTDA200720172107201721072017V         Novo (previa)                  VENANCIO JOSE DA COSTAQER5780     8AJHA8CD9G2576034              PACAJA6848500000000100562670   43,50PA
0760746948000112000100004802500000609          A3MG CORRETORA DE SEGUROS LTDA310720173107201731072017V         Novo (previa)        DETLER JOFFRE NUNES DE ACYPRESTEPJS7246     8AJBA3CD4G1563027            ALTAMIRA6837102500001020063814   43,50PA
0760746948000112000100004300790000836          FIANCA CONSULT.E COR.DE SEGS.L190720171907201719072017V         Novo (previa)        MARIA DE FATIMA FERNANDES BARILEOBU8370     8AJFZ29G0C6146202            ALTAMIRA6837104000000100360252   43,50PA
0760746948000112000100004300800000850          NIPPON HASEGAWA COR SG VIDA LT190720171907201719072017V         Novo (previa)          HELLEN FRANCINA DANTAS DE LIRAQDC2820     9BWAB45Z5F4005019            ALTAMIRA6837427900000100504815   43,50PA
0760746948000112000100004109740000850          NIPPON HASEGAWA COR SG VIDA LT080720171007201710072017V         Novo (previa)               RODRIGO DE OLIVEIRA NUNESOAN3993     VF7KF5FMYES500104    VITORIA DO XINGU6838300000000100504815   43,50PA
0760746948000112000100041009480000849           BRADESCOR COR DE SEGUROS LTDA030720170307201703072017V         Novo (previa)                   WILLIAN CANDIDO FELIXOFW5333     8AGCN48X0DR194360            ALTAMIRA6837538200000100058777   43,50PA
0760746948000112000100004109710000850          FERTY CORRET,ADM DE SEGUROS LT080720171007201710072017V         Novo (previa)                  NEUCLEY FREIRE SARAIVAQDL8352     9BWAA45Z9F4057501              PACAJA6848500000000100689271   43,50PA
0760746948000112000100004109810000868          VIA AGRESTE CONSULT E COR DE S120720171207201712072017V         Novo (previa)                        LUIZ SANDES LIMANBZ0856     9BG148MH0DC480073    VITORIA DO XINGU6838300000000100684007   43,50PA
0760746948000112000100048001390000641          J ASSUNCAO ADM E CORRETORA SEG260720172707201727072017V         Novo (previa)                LUILSON BEZERRA DA SILVAQDG7520     8AJFY22G2F8019733         BRASIL NOVO6814800000000400016144   43,50PA
0760746948000112000100004800990000850          NIPPON HASEGAWA COR SG VIDA LT270720172707201727072017V         Novo (previa)                   ELDIANE MOTA DA SILVAOTM9497     8AJFY22G5F8016857            ALTAMIRA6836000000000100504815   43,50PA
0760746948000112000100004109690000835          DINIZ & DINIZ  CORR DE SEGS LT080720171007201710072017V         Novo (previa)      KATIA MIRELLE DE ARAUJO CAVALCANTEOTV1020     9BRK19BT7D2018032               ANAPU6836500000000100541761   43,50PA
0760746948000112000100004109890000841          PLENUM ADMINISTRADORA E CORRET170720171807201718072017V         Novo (previa)                  JACKGREY FEITOSA GOMESQDJ1595     93XXTGA2WGCF23754            ALTAMIRA6837200500001020263805   43,50PA
0760746948000112000100004109540000641          J ASSUNCAO ADM E CORRETORA SEG040720170507201705072017V         Novo (previa)                           GERALDO GOMESQDP6936     8AJHA8CD0H2581768            ALTAMIRA6837100000000400016144   43,50PA
0760746948000112000100048001480000967          LEGASILVA CORRETORA DE SEGUROS270720172807201728072017V         Novo (previa)               LEANDRO MARIANO GONCALVESOLS8398     93XJNKB8TDCC51421    VITORIA DO XINGU6838300000000100681326   43,50PA
0760746948000112000100004109880000643          SOUTHALLIANCE & RISK SOLUTION 140720171407201714072017V         Novo (previa)          AUTO POSTO VITORIA COM DE COMBOTE0806     9BM693328DB901695            ALTAMIRA6837126200000100580040   43,50PA
0760746948000112000100004109720000850          NIPPON HASEGAWA COR SG VIDA LT080720171007201710072017V         Novo (previa)                KLEBSON ALMEIDA DA SILVAOTU2079     9BRK19BT1E2022868            ALTAMIRA6837536700000100504815   43,50PA
0760746948000112000100041009410000849                   JOSIVAN DE SOUZA MELO030720170307201703072017V         Novo (previa)        KLEYTON GEMAQUE MIRANDA DA SILVAQDL5891     9BGKT69R0FG345857            ALTAMIRA6837285600001020204132   43,50PA
0760746948000112000100048001380000850          NIPPON HASEGAWA COR SG VIDA LT260720172707201727072017V         Novo (previa)              FRANCISCO ANTONIO LINHARESOBW3941     8AJFZ29G9C6154430            ALTAMIRA6837533200000100504815   43,50PA
0760746948000112000100004109580000280          BRQUALY ADM E CORR DE SEGUROS 050720170507201705072017V         Novo (previa)                    MANOEL SANTOS DIVINOQDU4403     988226117HKB13045            ALTAMIRA6837129200000100434442   43,50PA
0760746948000112000100004300970000850          FERTY CORRET,ADM DE SEGUROS LT200720172107201721072017V         Novo (previa)              PAULO CIRQUEIRA DOS SANTOSQEZ5880     8AJHA8CD1G2578067              PACAJA6848500000000100689271   43,50PA
0760746948000112000100004109630000836          EMITE CORRETORA DE SEGUROS LTD060720170607201706072017V         Novo (previa)                 JANICLEUB ALMEIDA CUNHAQDF7680     8AJFY29G6F8577820            ALTAMIRA6814000000000100494577   43,50PA
0760746948000112000100004801010000850          NIPPON HASEGAWA COR SG VIDA LT200720172107201721072017V         Novo (previa)            MARCO AURELIO CASTRO FEITOSANSG0315     9BWAA05W7BP015822         BRASIL NOVO6814800000000100504815   43,50PA
0760746948000112000100004109640000280          RODOBENS ADM E COR DE SEGS LTD060720170607201706072017V         Novo (previa)           MARTA DIAS DE CASTRO SPEROTTOQKF4050     8AJFY29G5F8584323            ALTAMIRA6814800000000100204056   43,50PA
0760746948000112000100048001470000850          NIPPON HASEGAWA COR SG VIDA LT270720172807201728072017V         Novo (previa)FRANKLYN ALBERTO RODRIGUES DO CARMO E SIQKD4256     WV1DB42H8FA028921            ALTAMIRA6837419000000100504815   43,50PA
0760746948000112000100004801170000641          J ASSUNCAO ADM E CORRETORA SEG210720172207201722072017V         Novo (previa)                  ELIANE RODRIGUES ROCHANEM3646     9BWAB45U4ET110403        MEDICILANDIA6814500000000400016144   43,50PA
0760746948000112000100004109550000641          J ASSUNCAO ADM E CORRETORA SEG040720170507201705072017V         Novo (previa)                           NILSON DANIELOMW9718     8AJFY29G0F8578574            ALTAMIRA6814500000000400016144   43,50PA
0760746948000112000100004109850000975           HPE CORRETORA DE SEGUROS LTDA120720171307201713072017V         Novo (previa)             VISCONDE COELHO DE OLIVEIRAJHT9351     8AJFZ29G7B6127368            ALTAMIRA6837222600001020076053   43,50PA
0760746948000112000100004412600000977          INTERNOVA CORRETORA DE SEGS LT300620170107201702072017V         Novo (previa)                   JACKSON ALVES FEITOSAORE7396     9BHBG41DAEP284001         PARAUAPEBAS6851500000000100649490   43,50PA
0760746948000112000100004414070000837          PERSONAE TREIN CONS ASS COR SE210720172207201722072017V                Outros            SEPCO1 CONSTRUCOES DO BRASILOXC1131     WV1DD42H0EA002791         PARAUAPEBAS6851500000000100471348   43,50PA
0760746948000112000100004413830000842                MELCOR CORR DE SEGS LTDA180720171807201718072017V                Outros                    ZAIRA SALETE OLIBONIOLM9763     9BRK19BT0E2031061         PARAUAPEBAS6851500000000100337285   43,50PA
0760746948000112000100004413820000851           MOURA E REBOUCAS CORR DE SEGS180720171807201718072017V                Outros  OMEGA SERVICOS E MONTAGENS INDUSTRIAISOTT7665     9BVAG20C3EE818167         PARAUAPEBAS6851500000001020270100   43,50PA
0760746948000112000100004630880000849          G G MOURA CORRETORA DE SEGUROS100720171107201711072017V         Novo (previa)          MARCOS PAULO DAS CHAGAS SEGURAOTY4050     2G1F91EJ8E9153805              MANAUS6903700000000100319783   43,50AM
0760746948000112000100004635530000840          ATUANTE CENTER COR.DE SEGS.E G150720171707201717072017V         Novo (previa)      MARIA DA CONCEICAO DA SILVA SANTOSPHG4266     9BG148LA0GC404083              MANAUS6904317000000100198528   43,50AM
0760746948000112000100004630730000849            J.C.NETO COR.E ADM.SEGS LTDA050720170607201706072017V         Novo (previa)                   JACKSON MAIA DE SOUSAPHE0275     9BHBH41DBFP411278              MANAUS6909341500000100354945   43,50AM
0760746948000112000100004635680000969          MINUTO CORRETORA DE SEGUROS S 200720172107201721072017V         Novo (previa)        MATHEUS ERI COSTA BARROS MACHADOOAC5921     9BWLL45U9FP019949              MANAUS6904035000000100230758   43,50AM
0760746948000112000100004635940000849          CARANHA CORR DE SEGS VIDA LTDA290720173107201731072017V         Novo (previa)               VICTOR BRENO ALMADA GOMESNOK7341     3FAFP4WJ7EM135130              MANAUS6903551000001020399235   43,50AM
0760746948000112000100004635990000840           CCG CORRETORA DE SEGUROS LTDA310720173107201731072017V         Novo (previa)             ADRIANA LIMA RESENDE ARRUDAPHK7270     988226117HKA82609              MANAUS6904865500001020272790   43,50AM
0760746948000112000100004635650000849          ATUANTE CENTER COR.DE SEGS.E G200720172107201721072017V         Novo (previa)                   POSTO ASA BRANCA LTDANOQ8555     93YBSR8VKAJ474720              MANAUS6903706300000100198528   43,50AM
0760746948000112000100004635790000613          SMARTIA ASSESS E COR DE SEGS S250720172607201726072017V         Novo (previa)      ALINE AGUIAR PARENTE DO NASCIMENTOPHH6621     9BD11818MG1330643              MANAUS6903852000000100677485   43,50AM
0760746948000112000100004635630000975           HPE CORRETORA DE SEGUROS LTDA200720172107201721072017V         Novo (previa)                RITA CINTIA PINTO VIEIRAOAM1723     93XFJB43VDC100916              MANAUS6905000000001020076053   43,50AM
0760746948000112000100004635760000840          SOLIMOES ADM E COR DE SEG LTDA240720172507201725072017V         Novo (previa)                   AMANDA NAKAMINE BESSAPHJ6220     98MHS7000H4A47266              MANAUS6905000100000100640565   43,50AM
0760746948000112000100004635780000840          LESLEY ADM.COR.DE SEGS S/C LTD250720172607201726072017V         Novo (previa)                MARLIZE MELLO DE ANDRADEOAF4418     93HGE6730CZ101187              MANAUS6903700300000100319252   43,50AM
0760746948000112000100004635560000840          LESLEY ADM.COR.DE SEGS S/C LTD180720171907201719072017V         Novo (previa)        MARCIA MANUELA DOS ANTOS TAVARESJXO6982     9BGRX48109G255390              MANAUS6904866200000100319252   43,50AM
0760746948000112000100004630940000840          A.A.BRAGA JR.ADM.COR.SEGS.LTDA130720171407201714072017V         Novo (previa)                 EMERSON AMANCIO PEREIRAPHL0355     94DBCAN17HB117215              MANAUS6904402100000100340553   43,50AM
0760746948000112000100004635980000001           BRADESCOR COR DE SEGUROS LTDA310720173107201731072017P         Novo (previa)    AUDAX ACESSORIA EMPRESARIAL S S LTDAOAC5274     WV1SD42HXDA030832              MANAUS6903700000000100058777   27,00AM
0760746948000112000100004635570000639           LC MARINHO ADM E CORR SEGS SC180720171907201719072017V         Novo (previa)                GLEICIANE PINTO DA SILVAPHD6186     988226117HKB15134              MANAUS6904476000000100266922   43,50AM
0760746948000112000100004635960000849          LESLEY ADM.COR.DE SEGS S/C LTD290720173107201731072017V         Novo (previa)                    AER RESTAURANTE LTDANOX8061     9536E8246ER427689              MANAUS6905879500000100319252   43,50AM
0760746948000112000100004635810000849          MMA CORRETORA DE SEGUROS LTDA 260720172707201727072017V         Novo (previa)                  MARILENE JOSE MANCILHANOO8382     8AGCN48X0DR174666              MANAUS6904300000001020171420   43,50AM
0760746948000112000100004635860000849            J.C.NETO COR.E ADM.SEGS LTDA270720172807201728072017V         Novo (previa)                DEYSE DOS SANTOS MARINHOOAN3622     9BD17122LE5914647              MANAUS6904020000000100354945   43,50AM
0760746948000112000100004630830000849          G G MOURA CORRETORA DE SEGUROS070720170807201709072017V         Novo (previa)                  MANOEL NESTOR DA COSTAOXM8409     94DVDUD40FJ455632              MANAUS6903707100000100319783   43,50AM
0760746948000112000100004635580000849          ATUANTE CENTER COR.DE SEGS.E G190720172007201720072017V         Novo (previa)                  KATIA DE OLIVEIRA LIMANOR1336     8AFER13P4BJ328604              MANAUS6902908000000100198528   43,50AM
0760746948000112000100004630800000840          ALCORR CORRETORES E AGENTES DE070720170807201709072017V         Novo (previa)             CLAUDIA INES GUAQUETA ARIASNOX0772     3N1DK3CD3EL214487              MANAUS6905000100001020057539   43,50AM
0760746948000112000100004630710000849          LESLEY ADM.COR.DE SEGS S/C LTD040720170507201705072017V         Novo (previa)                 GILVAN PEREIRA DE SOUZAPHJ5459     9BD57834UGB099222              MANAUS6904315000000100319252   43,50AM
0760746948000112000100004630720000626          TORGA CORR.DE SEGUROS REPR.LTD040720170507201706072017V         Novo (previa)                    BRUNO MUSSE MEIRELESPHF0364     94DBCAN17GB101719              MANAUS6903706300000100277011   43,50AM
0760746948000112000100004635820000840          AMAZON RIO  S ADM E CORR DE SE260720172707201727072017V         Novo (previa)                  ALTAIZIO DO NASCIMENTOOAD9614     9BD27888RD7667797              MANAUS6904069000000100375004   43,50AM
0760746948000112000100004635840000849            J.C.NETO COR.E ADM.SEGS LTDA260720172707201727072017V         Novo (previa)                  EDWIN MAX PONCE ALONZONOR6982     9BHBH51DBDP045999              MANAUS6904478000000100354945   43,50AM
0760746948000112000100004630700000969          MINUTO CORRETORA DE SEGUROS S 030720170407201704072017V         Novo (previa)              ANTONIO JOSE DO NASCIMENTONPB8247     9BG138GJ0BC417065              MANAUS6904962000000100230758   43,50AM
0760746948000112000100004635520000849          MMA CORRETORA DE SEGUROS LTDA 140720171507201715072017V         Novo (previa)                   ADRIEIDA ANJOS TROVAOPHN5191     9BHBG51CAHP722813              MANAUS6904136000001020171420   43,50AM
0760746948000112000100004635890000849          CONSULCOR ADM CORT SEGS  IMOVE280720172807201728072017V         Novo (previa)              JOSE RICARDOMARTINS PONTESONV3974     9BFZF55A0E8070553              MANAUS6973500000000100398250   43,50AM
0760746948000112000100004630680000849          ZONA FRANCA DAS AMERICAS-ASSES030720170407201704072017V         Novo (previa)                    EMILIO PINTO ANDRADEPHH1354     93HFB9640GZ230888              MANAUS6905005500000100364789   43,50AM
0760746948000112000100004635550000849          M S PINTO CORRETORA DE SEGUROS170720171807201718072017V         Novo (previa)                    CHARLES GOMES AIKAWANOI3092     9BGCS80X0BB241806              MANAUS6904205000001020393911   43,50AM
0760746948000112000100004630690000840          LESLEY ADM.COR.DE SEGS S/C LTD030720170407201704072017V         Novo (previa)            ANTONOI RODRIGUES DOS PASSOSOAB9965     3C4PFABB3CT268100              MANAUS6904576000000100319252   43,50AM
0760746948000112000100004635710000840          A.A.BRAGA JR.ADM.COR.SEGS.LTDA210720172207201722072017V         Novo (previa)      FRANCISCA DAS CHAGAS DA SILVA LIMAPHD9672     94DFCUK13HB102874              MANAUS6903704200000100340553   43,50AM
0760746948000112000100004635870000840          VIA EGIDE COR.ADM.E CONSULT.DE270720172807201728072017V         Novo (previa)               LOREN GISELE LIMA NICACIOOAK0978     3C4PFABB1CT286031              MANAUS6903800400000100614645   43,50AM
0760746948000112000100004630930000840           AMAZON DELTA COR.DE SEGS.LTDA110720171207201713072017V         Novo (previa)                ROBERTO DE PAULA ESTEVAMNOQ7131     8AGSU19F0ER151031              MANAUS6902300300000100575984   43,50AM
0760746948000112000100004630920000849          ZONA FRANCA DAS AMERICAS-ASSES110720171207201712072017V         Novo (previa)OLIVEIRA E SAMPAIO COMERCIO DE VARI LTDAPHA2481     9BHBG51DAFP341486              MANAUS6904000300000100364789   43,50AM
0760746948000112000100004638440000849          M S PINTO CORRETORA DE SEGUROS210720172207201722072017V         Novo (previa)             MAURILIO DAMASCENO DA SILVAOAC8952     9BGKS69L0EG253384              MANAUS6908272000001020393911   43,50AM
0760746948000112000100004631860000849            J.C.NETO COR.E ADM.SEGS LTDA050720170607201706072017V         Novo (previa)          RENATA RAPOSO DA CAMARA VIEIRAPHC1170     935SUNFN2FB541919              MANAUS6906008500000100354945   43,50AM
0760746948000112000100004631870000849          M S PINTO CORRETORA DE SEGUROS050720170607201706072017V         Novo (previa)          MARIA GORETH ANDRADE DE CASTROPWU1970     9BHBG41DAFP516653              MANAUS6906011000001020393911   43,50AM
0760746948000112000100004638510000849          CARANHA CORR DE SEGS VIDA LTDA240720172507201725072017V         Novo (previa)                  EDIVALDO LOPES BARBOSANOY1954     9bgrp48f0cg355633              MANAUS6908260000001020399235   43,50AM
0760746948000112000100004638770000849          JAMF CORRETORA DE SEGUROS LTDA290720173107201731072017V         Novo (previa)     GISELE PATRICIA OLIVEIRA DOS SANTOSOAH5453     9BGRP48F0EG135001              MANAUS6907355000000100409596   43,50AM
0760746948000112000100004638340000849          G G MOURA CORRETORA DE SEGUROS190720172007201720072017V         Novo (previa)            CLEDSON ANDRE SOARES WAUGHANOAM0347     9BGRP69X0CG415078              MANAUS6908824100000100319783   43,50AM
0760746948000112000100004631850000840          SMCS CORRETORA DE SEGUROS LTDA050720170607201710072017V         Novo (previa)         LUCAS NOBRE WANDERLEY MALAGUETAPHZ2110     8AJBA3CD7H1585041              MANAUS6905708400000100677281   43,50AM
0760746948000112000100004638100000849            J.C.NETO COR.E ADM.SEGS LTDA110720171207201712072017V         Novo (previa)               NEIDE RIBEIRO DE MEDEIROSPHE4961     9BHBG41CAFP400405              MANAUS6906302000000100354945   43,50AM
0760746948000112000100004631920000849          CONSULCOR ADM CORT SEGS  IMOVE060720170707201707072017V         Novo (previa)                     FELIPE HADAD JUNIORNPA3388     9BG148EK0EC414103              MANAUS6908300000000100398250   43,50AM
0760746948000112000100004638800000840          PAULO OMENA ADM COR SEGS LTDA 310720173107201731072017V         Novo (previa)                 CHARLES DAMASCENO SILVAOXM8952     9BG148MK0EC434659              MANAUS6906300000000100170704   43,50AM
0760746948000112000100004638290000854           BJB CORRETORA DE SEGUROS LTDA170720171807201719072017V         Novo (previa)    ADALBERTO CERQUEIRA DE CARVALHO NETOOAJ3070     9BFZK53A8CB348050              MANAUS6905470000000100558699   43,50AM
0760746948000112000100004638090000849            J.C.NETO COR.E ADM.SEGS LTDA120720171207201712072017V         Novo (previa)                 ENEIAS FERREIRA FURTADOPHB2252     KNAFZ414BF5321099              MANAUS6906008500000100354945   43,50AM
0760746948000112000100004638210000849            J.C.NETO COR.E ADM.SEGS LTDA140720171507201715072017V         Novo (previa)                 ENEIAS FERREIRA FURTADOPHI6000     988611152GK022313              MANAUS6906008500000100354945   43,50AM
0760746948000112000100004638310000849          ROSAN E NUNES COR DE SEGS LTDA180720171907201719072017V         Novo (previa)                  ZAQUEU DUQUE RODRIGUESOXM1645     9bd17122lf5974975              MANAUS6908663500001020185669   43,50AM
0760746948000112000100004631910000854           BJB CORRETORA DE SEGUROS LTDA060720170707201707072017V         Novo (previa)               ZAQUEU FERNANDES DA SILVAPHA2569     9BG148FK0EC460931              MANAUS6908245000000100558699   43,50AM
0760746948000112000100004632000000840          L A DE SOUZA COSTA COR.DE SEGS070720171007201710072017V         Novo (previa)                    ELTON PINHEIRO SARAHOAN6143     9BWAB45U0ET096659              MANAUS6906008500000100146862   43,50AM
0760746948000112000100004638610000849          G G MOURA CORRETORA DE SEGUROS260720172707201727072017V         Novo (previa)     MARIA DO PERPETUO SOCORRO M ABRAHIMNHL9862     9BWDB09N89P001188              MANAUS6907649000000100319783   43,50AM
0760746948000112000100004638180000849          G G MOURA CORRETORA DE SEGUROS130720171407201714072017V         Novo (previa)               OLGA KARLA SANTOS CARDOSONOR2171     9BGKS48L0EG359810              MANAUS6907901500000100319783   43,50AM
0760746948000112000100004638580000840          LESLEY ADM.COR.DE SEGS S/C LTD260720172707201727072017V         Novo (previa)                   WALLACE NUNES MOREIRAOAL6438     9BGJC69X0DB135932              MANAUS6905548000000100319252   43,50AM
0760746948000112000100004631810000849          M S PINTO CORRETORA DE SEGUROS050720170607201706072017V         Novo (previa)             ADALBERTO PICANCO DE BARROSOAO2591     9BD135019F2275722              MANAUS6906508000001020393911   43,50AM
0760746948000112000100004638010000849          CONSULCOR ADM CORT SEGS  IMOVE070720171007201710072017V         Novo (previa)          EZEQUIAS NASCIMENTO DOS SANTOSPHE3650     8AJFY29G7F8587529              MANAUS6905423400000100398250   43,50AM
0760746948000112000100004638570000849           ABG CORR DE SEGS DE VIDA LTDA260720172707201727072017V         Novo (previa)                       ALLAN SALES GOMESPHJ8843     9BHGB813BHP011660              MANAUS6908301100001020341458   43,50AM
0760746948000112000100004631790000849          G G MOURA CORRETORA DE SEGUROS030720170507201705072017V         Novo (previa)                  NONATO FARIAS DA SILVAPHL2096     9BGKS48V0JG111861              MANAUS6907476000000100319783   43,50AM
0760746948000112000100004631980000849          M S PINTO CORRETORA DE SEGUROS070720171007201710072017V         Novo (previa)                LINCON CARVALHO DA SILVAAUC5561     93ybsr8vacj850634              MANAUS6907840000001020393911   43,50AM
0760746948000112000100004631820000849          CONSULCOR ADM CORT SEGS  IMOVE050720170607201706072017V         Novo (previa)              GLEYSON CANTUARIA FERREIRAJWX3499     9BWDB45U5ET124291              MANAUS6908266100000100398250   43,50AM
0760746948000112000100004631970000849            J.C.NETO COR.E ADM.SEGS LTDA070720171007201710072017V         Novo (previa)                    CITONE LIMA DA SILVAPHL1356     9BGKC48V0JG129853              MANAUS6907756000000100354945   43,50AM
0760746948000112000100004638370000849          CONSULCOR ADM CORT SEGS  IMOVE200720172107201721072017V         Novo (previa)            JOSE TEODORO BOTINELLY BENTONOY5924     9BRBD48E7D2570939              MANAUS6906008100000100398250   43,50AM
0760746948000112000100004631760000849          G G MOURA CORRETORA DE SEGUROS030720170407201704072017V         Novo (previa)            ESTELIO RODRIGUES DE ANDRADEPHK1361     9BD26512MG9052828              MANAUS6903503000000100319783   43,50AM
0760746948000112000100004638350000849          M S PINTO CORRETORA DE SEGUROS190720172007201720072017V         Novo (previa)          ALDO CESAR DE OLIVEIRA LOUZANOOAB9954     9BD196283D2149920              MANAUS6909313400001020393911   43,50AM
0760746948000112000100004638600000840          KANDASEG ELMATEK COR.DE SEGS.L260720172707201727072017V         Novo (previa)              REMILSE MARIA CHAVES GOMESOAA0285     9BGSU19F0CB261421              MANAUS6908501500000100416061   43,50AM
0760746948000112000100004638400000849            J.C.NETO COR.E ADM.SEGS LTDA200720172107201721072017V         Novo (previa)                   J RIVELINO MOREIRA MEPHJ4056     9bwag45u5ht019985              MANAUS6908300000000100354945   43,50AM
0760746948000112000100004638660000849          SUANAM ADM DE CONS E COR DE SE270720172807201728072017V         Novo (previa)              MARIA SILENE FARIAS DUARTEJXS2041     9BD195162C0260912              MANAUS6906315000000100691992   43,50AM
0760746948000112000100004638680000849          G G MOURA CORRETORA DE SEGUROS270720172807201728072017V         Novo (previa)   FRANCISCO DAS CHAGAS FEITOSA DA SILVANPA2117     9BWAA05U7BT148215              MANAUS6908806000000100319783   43,50AM
0760746948000112000100004638710000849            J.C.NETO COR.E ADM.SEGS LTDA280720172907201730072017V         Novo (previa)          MARIA JUCINEILE DA SILVA ABREUOAM6407     9BWAB05Z0D4099445              MANAUS6907783800000100354945   43,50AM
0760746948000112000100004638390000849          M S PINTO CORRETORA DE SEGUROS200720172107201721072017V         Novo (previa)             LORENA LARISSA DUARTE BRAGAOAM2062     3VWDJ2168EM002626              MANAUS6907679000001020393911   43,50AM
0760746948000112000100004638380000849          A R MENEZES JUNIOR COR DE SEGS200720172107201721072017V         Novo (previa)         ITALO VINICIUS BARBOSA DE SOUZAOXM9834     9BD578241F7900829              MANAUS6905500000000100116670   43,50AM
0760746948000112000100004631940000849            J.C.NETO COR.E ADM.SEGS LTDA060720170707201707072017V         Novo (previa) DADOS LIGADOS ANALISES E PROGRAMAS LTDAOAD0924     935SLNFNWDB554277              MANAUS6906002000000100354945   43,50AM
0760746948000112000100004631780000849            J.C.NETO COR.E ADM.SEGS LTDA040720170507201705072017V         Novo (previa)                MILENA SOARES CAVALCANTEJXX9854     9bd15802786114132              MANAUS6907379000000100354945   43,50AM
0760746948000112000100004631800000849          G G MOURA CORRETORA DE SEGUROS040720170507201705072017V         Novo (previa)          WELLINGTON LOPES DA SILVA NETONOT3451     8afar23l3fj273473              MANAUS6908312000000100319783   43,50AM
0760746948000112000100004638420000849              WESLANY DE O FERNANDES EPP210720172207201722072017V         Novo (previa)             EDVANDERSON FERREIRA VIEIRANOR4799     93HFA6630AZ208582              MANAUS6901701000001020347014   43,50AM
0760746948000112000100004638240000849          LESLEY ADM.COR.DE SEGS S/C LTD150720171707201718072017V         Novo (previa)              AGENOR LOPES PIMENTA FILHOPHA4775     9BRBD3HE9F0226957              MANAUS6907747000000100319252   43,50AM
0760746948000112000100004638720000969          BIDU CORR DE SEGS E SERV DE IN280720172907201730072017V         Novo (previa)               SERGIO DA SILVA CERQUEIRAKLQ7803     9BWDB49N89P000985              MANAUS6907680000000100227943   43,50AM
0760746948000112000100004631830000849          JAMF CORRETORA DE SEGUROS LTDA050720170607201706072017V         Novo (previa)               CASEMIRO MONTEIRO EILIFIOPHE5186     94DFFUK13FB103696              MANAUS6908269000000100409596   43,50AM
0760746948000112000100004638260000849           ABG CORR DE SEGS DE VIDA LTDA150720171707201717072017V         Novo (previa)             VALDEIR MARINHO DE CARVALHOPHH1529     8AP37211ZF6120580              MANAUS6909779200001020341458   43,50AM
0760746948000112000100004638750000849            J.C.NETO COR.E ADM.SEGS LTDA290720173107201731072017V         Novo (previa)             JULIO AUGUSTO BARBOSA FILHOPHD0456     9BGKS48V0HG149442              MANAUS6906008100000100354945   43,50AM
0760746948000112000100004638740000849            J.C.NETO COR.E ADM.SEGS LTDA280720172907201730072017V         Novo (previa)                  RONALDO VIEIRA MENEZESOAJ8670     9BWAA05Z1C4077164              MANAUS6908653100000100354945   43,50AM
0760746948000112000100004638300000849          CONSULCOR ADM CORT SEGS  IMOVE180720171807201718072017V         Novo (previa)            CLEVERSON CRISTIANO DE SOUZAPHH8855     9BM979028GS036133              MANAUS6973500000000100398250   43,50AM
0760746948000112000100004414340000835          SANTA IZABEL ADM COR SEGS LTDA280720172807201728072017V                Outros              JANDERVAN PEREIRA DA SILVAPQF6962     9BRB29BT6G2112971              MARABA6850404000000100137413   43,50PA
0760746948000112000100004414290000847          ALEY PATRICIA DOS SANTOS SOUSA270720172807201728072017V                Outros                 ODAIR ANTONIO VENTURINEAVI0000     8AJBA3CD1H1594849      RONDON DO PARA6863800000001020347596   43,50PA
0760746948000112000100004412980000635          Y M C ADM E CORR DE SEGUROS EI050720170607201706072017V                Outros                 CRISTIAN DA SILVA COSTAQEH8990     93XHYKB8TGCF11672              MARABA6851341000001020272413   43,50PA
0760746948000112000100004414200000847           BRADESCOR COR DE SEGUROS LTDA240720172407201724072017V                Outros                  RENILCE DA SILVA PINTOOIS8468     9BWAA05Z4D4071098              MARABA6850776500000100058777   43,50PA
0760746948000112000100004413710000850               JUCA CORR DE SEGS SC LTDA150720171707201717072017V         Novo (previa)               LATICINIO MINEIRO LTDA MEOFU6150     9bm694000cb860626             JACUNDA6859000000000100285684   43,50PA
0760746948000112000100004414210000841          REVEMAR CORRETORA DE SEGUROS L240720172407201724072017V                Outros                  VALDIVINO GARCIA FILHOQDJ4588     3VWDH2165FM052025              MARABA6850403400001020124406   43,50PA
0760746948000112000100004414250000853             PROSEG ADM COR SRGS LTDA ME250720172507201725072017V                Outros                   MIGUEL PEREIRA JUNIORPWY6072     9BRB29BT1G2101957              MARABA6850553000000100110523   43,50PA
0760746948000112000100004412610000841          PARASUL ASSES.E COR.DE SEGS.LT300620170307201703072017V         Novo (previa)             PEDRO JANER GUIMARAES BELEMNTA9383     3CZRE2870BG502356      RONDON DO PARA6863800000000100340545   43,50PA
0760746948000112000100004413720000847          IMPACTUS WORLD CORRET SEGS LTD150720171707201717072017V         Novo (previa)     TRANSPORTADORA GOMES E SAMPAIO LTDAJJK7647     93XJNKB8TCCC48127      RONDON DO PARA6863800000000100688401   43,50PA
0760746948000112000100004413610000853             PROSEG ADM COR SRGS LTDA ME140720171407201714072017V                Outros                   MIGUEL PEREIRA JUNIORPWY6072     9BRB29BT1G2101957              MARABA6850553000000100110523   43,50PA
0760746948000112000100004413370000841          PARASUL ASSES.E COR.DE SEGS.LT100720171107201711072017V         Novo (previa)                    JOSE MARCELO CORREIAQEU4100     9bg148fk0hc402986      RONDON DO PARA6863800000000100340545   43,50PA
0760746948000112000100004413420000841          PARASUL ASSES.E COR.DE SEGS.LT080720171107201711072017V         Novo (previa)               JOSE MARIA COSTA PORTUGALQDH9813     9BD57834UF7963377      RONDON DO PARA6863800000000100340545   43,50PA
0760746948000112000100004413360000641             BENS COR DE SEGUROS LTDA ME100720171107201711072017V         Novo (previa)    TC COMERCIO E TRANSPORTES EIRELLI MEKEL8451     9bm6960901b277105              MARABA6858500000001020214510   43,50PA
0760746948000112000100004412820000841          PARASUL ASSES.E COR.DE SEGS.LT010720170307201703072017V         Novo (previa)                       WAYNE SILVA ROCHAQDY9614     93XXNKB8TJCH31545      RONDON DO PARA6863800000000100340545   43,50PA
0760746948000112000100004413760000841          PARASUL ASSES.E COR.DE SEGS.LT170720171707201717072017V         Novo (previa)                     ELIAS SANTOS AGUIAROIR4630     93XJNKB8TDCC51750     ABEL FIGUEIREDO6852700000000100340545   43,50PA
0760746948000112000100004413730000641                        VALDOMIRO GARCIA150720171707201717072017V         Novo (previa)               ALENIO OSVANDINEI CANASSAOBX7254     8AJYY59G1C6501276              MARABA6850818000000100122262   43,50PA
0760746948000112000100004414150000940          SEGURALTA OESTE COR DE SEGS LT240720172407201724072017V                Outros            ANTONIA NILZA CAJADO MACHADOOMP4899     8AJFY29G1F8567440            ITAITUBA6818025000000100361011   43,50PA
0760746948000112000100004413970000870           BONSAI NORTE COR DE SEGS LTDA190720172007201720072017V         Novo (previa)                SEBASTIAO DE BRITO SILVAQEG0329     8AJHA8CD2H2586714            SANTAREM6803007500001020091117   43,50PA
0760746948000112000100004413460000280          RODOBENS ADM E COR DE SEGS LTD100720171107201711072017V         Novo (previa)            MOTA E MOTA TRANSPORTES LTDAQDI1117     8AJHA8CD6H2581628            ITAITUBA6818020000000100204056   43,50PA
0760746948000112000100004103460000837            ADM CORR SEGS DO FUTURO LTDA070720170707201707072017V         Novo (previa)                 NERI QUELLA DA SILVA MEMVL2825     9BM682023TB087232            ITAITUBA6819270000000100098337   43,50PA
0760746948000112000100004413330000838          LOJACORR S A REDE DE COR DE SE060720171007201710072017V                Outros               FRANCISCO MENDES DA COSTAQEK4650     9BG148MA0GC400559            ITAITUBA6818063500000100438502   43,50PA
0760746948000112000100004413540000280          RODOBENS ADM E COR DE SEGS LTD120720171307201713072017V                Outros            MOTA E MOTA TRANSPORTES LTDAQDU5244     988226175HKA72003            ITAITUBA6818020000000100204056   43,50PA
0760746948000112000100004413980000940          SEGURALTA OESTE COR DE SEGS LT190720172007201720072017V                Outros            ANTONIA NILZA CAJADO MACHADOOMP4899     8AJFY29G1F8567440            ITAITUBA6818025000000100361011   43,50PA
0760746948000112000100004414490000853             PROSEG ADM COR SRGS LTDA ME280720172807201728072017V                Outros         VITOR ROGERIO GONCALVES PEREIRAIOU2631     9BWDB09N59P004355            ITAITUBA6818148000000100110523   43,50PA
0760746948000112000100004413060000870           BONSAI NORTE COR DE SEGS LTDA030720170307201703072017V                Outros              VALERIO MIRANDA DOS SANTOSPHW5480     8AJFA8CB7G2000044            ITAITUBA6818023000001020091117   43,50PA
0760746948000112000100004414520000849          MAE DO RIO ADM.E COR.DE SEGS.L280720173107201731072017V                Outros                NATAL PEREIRA DOS SANTOSQEC3734     9BWAL45Z9J4001139            ITAITUBA6818045000000100320897   43,50PA
0760746948000112000100004413390000851          AGIL CORRETORA DE SEGUROS LTDA100720171107201711072017V         Novo (previa)                ORCIMAR ARANTES DO PRADOOTQ9118     8ajfy29g9e8553588              TUCUMA6838500000001020134835   43,50PA
0760746948000112000100004412970000851          AGIL CORRETORA DE SEGUROS LTDA050720170507201705072017V                Outros                   FABIO FERNANDES GODOINWG2030     KMHDC51EBAU247189 OURILANDIA DO NORTE6839000000001020134835   43,50PA
0760746948000112000100004414100000841          MARCORR COR E ADM DE SEGS LTDA220720172407201724072017V                Outros                     HARRY INACIO KONZEMQEI8990     93XHYKB8TGCF12183              TUCUMA6838500000000100374130   43,50PA
0760746948000112000100004412560000643              RIO BRANCO COR DE SEG LTDA300620170107201702072017V                Outros                    LUIZA MARIA DA SILVAOTV2218     8AJFY29G5E8561834              TUCUMA6838500000000400006912   43,50PA
0760746948000112000100004413780000851          AGIL CORRETORA DE SEGUROS LTDA170720171807201718072017V                Outros                  XINGU SEMENTES EIRELLIQEN4792     9BFLF47P1GB006626              TUCUMA6838500000001020134835   43,50PA
0760746948000112000100004414170000841          AGIL CORRETORA DE SEGUROS LTDA240720172407201724072017V                Outros                     LUIZ TAVARES VIEIRAPSB4979     9BWAA45U7FT103689              TUCUMA6838500000001020134835   43,50PA
0760746948000112000100004413480000841          UNIVERSO CORRETORA DE SEGS LTD110720171207201712072017V         Novo (previa)                      LUIZ MENEZES MATOSOFL6638     8AGCN48X0DR124061              TUCUMA6838500000000100169684   43,50PA
0760746948000112000100004414010000841          MARCORR COR E ADM DE SEGS LTDA200720172007201720072017V                Outros              MOYSES WOBETO TOSIN JUNIORQDG6516     8AFAR20F9FJ300920              TUCUMA6838500000000100374130   43,50PA
0760746948000112000100004413250000280          RODOBENS ADM E COR DE SEGS LTD070720171007201710072017V                Outros             DIST MELO DE TUCUMA LTDA MENST2062     9BM695304AB708091              TUCUMA6838500000000100204056   43,50PA
0760746948000112000100000443150000841              MURILO DE CASTRO VITORIANO060720170707201707072017V         Novo (previa)                    IEDA PELEGRINI ADAMYAUM7583     9BD11812EC1170712              TUCUMA6838500000001020265239   43,50PA
0760746948000112000100004413260000841              MURILO DE CASTRO VITORIANO070720171007201710072017V                Outros                 MARIA NILZA DE OLIVEIRAQBQ0553     9BGKT69R0GG204234              TUCUMA6838500000001020265239   43,50PA
0760746948000112000100004412580000851          AGIL CORRETORA DE SEGUROS LTDA300620170107201702072017V                Outros                  DANIEL OLIVEIRA ARAUJOOTY2070     WV1DB42H9DA004429              TUCUMA6838500000001020134835   43,50PA
0760746948000112000100004413210000851          UNIVERSO CORRETORA DE SEGS LTD070720171007201710072017V                Outros                          MAXIMINO PERINOMV7887     93Y5SRD6GFJ514386              TUCUMA6838500000000100169684   43,50PA
0760746948000112000100004414240000851          AGIL CORRETORA DE SEGUROS LTDA250720172507201725072017V                Outros             ESEQUIAS CAIO DO NASCIMENTOQEW3989     9BGKT69V0JG127243              TUCUMA6838500000001020134835   43,50PA
0760746948000112000100004413950000841              MURILO DE CASTRO VITORIANO190720172007201720072017V                Outros                 ANTONIO ROLDAO MESQUITAAVI0000     8AJKA8CD5H3169023              TUCUMA6838500000001020265239   43,50PA
0760746948000112000100004413900000851          AGIL CORRETORA DE SEGUROS LTDA190720171907201719072017V                Outros                      LUIZ ALVES PEREIRAPQI3801     93XSNKB8TGCF18761              TUCUMA6838500000001020134835   43,50PA
0760746948000112000100004413930000851          AGIL CORRETORA DE SEGUROS LTDA190720172007201720072017V                Outros                   DILSON PINHEIRO POMBONXC7529     8AJFR22G4B4552066              TUCUMA6838500000001020134835   43,50PA
0760746948000112000100004413890000851          AGIL CORRETORA DE SEGUROS LTDA190720171907201719072017V                Outros              ADJAIME BELJAMINO DOS REISQDJ8134     9BWAA45U2GT008068              TUCUMA6838500000001020134835   43,50PA
0760746948000112000100004413630000851          AGIL CORRETORA DE SEGUROS LTDA140720171407201714072017V                Outros                         JOVAIR DOS REISOTQ6614     8AJYY59G2E6518669              TUCUMA6838500000001020134835   43,50PA
0760746948000112000100004412850000841          MARCORR COR E ADM DE SEGS LTDA010720170307201703072017V         Novo (previa)              SAMIA NUBIA DA SILVA SOUZAOMV5038     8AJFY29G9F8577312              TUCUMA6838500000000100374130   43,50PA
0760746948000112000100004413230000851          AGIL CORRETORA DE SEGUROS LTDA070720171007201710072017V                Outros               SEBASTIAO PEREIRA SALGADOPQK7341     9BD19716TG3290246              TUCUMA6838500000001020134835   43,50PA
0760746948000112000100004414380000851          AGIL CORRETORA DE SEGUROS LTDA310720173107201731072017V                Outros               ANDERSON PALMEIRA DA MATAOPT0601     9BG148DH0DC474129              TUCUMA6838500000001020134835   43,50PA
0760746948000112000100004413280000842          SANTOS MACHADO CONS CORR SEG E080720171007201710072017V                Outros                 RICARDO PEREIRA DE MELOOTP4176     WV1DD42H5EA002009              TUCUMA6838500000001020227787   43,50PA
0760746948000112000100004413270000841          MARCORR COR E ADM DE SEGS LTDA080720171007201710072017V                Outros                     HARRY INACIO KONZEMQEI8990     93XHYKB8TGCF12183              TUCUMA6838500000000100374130   43,50PA
0760746948000112000100004414350000851          AGIL CORRETORA DE SEGUROS LTDA280720172807201728072017V                Outros                        UDELICIO BATISTAMWV3680     8AJFZ29G3B6131806              TUCUMA6838500000001020134835   43,50PA
0760746948000112000100004412860000841          UNIVERSO CORRETORA DE SEGS LTD030720170307201703072017V         Novo (previa)                   CARLOS GOMES DA SILVAQDR8541     8AP372171F6111700              TUCUMA6838500000000100169684   43,50PA
0760746948000112000100004413670000851          AGIL CORRETORA DE SEGUROS LTDA140720171407201714072017V                Outros                    FIDENCIO DE OLIVEIRAQDW9500     8AJFY29G4F8588556              TUCUMA6838500000001020134835   43,50PA
0760746948000112000100004414000000837          BETRIA CORRETORA DE SEGUROS LT200720172007201720072017V                Outros                 TANIA KATIA DIAS RABELOQDZ3249     8AJBA3CD6H1582132              TUCUMA6838500000000100544396   43,50PA
0760746948000112000100004413840000851           BRADESCOR COR DE SEGUROS LTDA180720171907201719072017V                Outros                     DELSON AMARAL VIANAQKF8900     8AJBA3CD7G1565032 OURILANDIA DO NORTE6839000000000100058777   43,50PA
0760746948000112000100004413050000841          UNIVERSO CORRETORA DE SEGS LTD300620170307201703072017V         Novo (previa)        MARILZA APARECIDA PIRES DE SOUZAQDI3663     9BWAG4125FT580804            REDENCAO6855223000000100169684   43,50PA
0760746948000112000100004413750000936                JAUSEG CORRETORA SEG. LT150720171707201717072017V         Novo (previa)        PAULO SAMPAIO DO AMARAL CARVALHOEPM0752     9BG124JJ0BC402870            REDENCAO6855239000000100373672   43,50PA
0760746948000112000100004431740000851          MARIA E ELVINA COR SEG VIDA LT170720171707201717072017V         Novo (previa)          FRANCISCO RODRIGUES DOS SANTOSQEQ1009     9BGKT69R0GG179858            REDENCAO6839800000001020397682   43,50PA
0760746948000112000100004413090000841          UNIVERSO CORRETORA DE SEGS LTD030720170407201704072017V         Novo (previa)           MARIA AMELIA SOARES GONCALVESHLX7567     8AP17201MA2061064            REDENCAO6855450500000100169684   43,50PA
0760746948000112000100004412900000841          CVK CORRETORA E ADM SEGUROS LT040720170407201704072017V                Outros                  SANDRO COUTINHO BUHREROFS8080     9BG138SP0BC482189            XINGUARA6855517100000100674702   43,50PA
0760746948000112000100004413770000841                 VERONA ADM COR SEG LTDA170720171707201717072017V         Novo (previa)         LUIZ ALBERTO DA SILVA VILARINHOOMZ7930     8ajfy29g9d8534358            XINGUARA6855751400000100144801   43,50PA
0760746948000112000100004413100000851          SN CORRETORA DE SEGUROS LTDA M050720170607201706072017V                Outros                PAULO VITOR ARAUJO SILVAOTZ8880     9BG148MH0DC465849            XINGUARA6855582000001020305419   43,50PA
0760746948000112000100004413130000851           BRADESCOR COR DE SEGUROS LTDA060720170707201707072017V         Novo (previa)                      ROGER MAGELA ALVESNEJ9195     WV1DD42H0DA031416            XINGUARA6855501300000100058777   43,50PA
0760746948000112000100004413290000851          MARCORR COR E ADM DE SEGS LTDA070720171007201710072017V                Outros                          MARILINE GALONOBM2297     93XJRKH8WDCC08382            XINGUARA6855501100000100374130   43,50PA
0760746948000112000100004412840000841          UNIVERSO CORRETORA DE SEGS LTD010720170307201703072017V         Novo (previa)                  JORGE SILVA DE ALMEIDAQET4690     9BD17144ZG7567904            XINGUARA6855509100000100169684   43,50PA
0760746948000112000100004414230000845          SERRA DA MESA  CORR DE SEGS LT240720172507201725072017V                Outros           CLEUSA MARIA DE OLIVEIRA LIMAOTT9677     93XFNKA5TFCE98626            XINGUARA6855520500000100724076   43,50PA
0760746948000112000100004414270000851           BRADESCOR COR DE SEGUROS LTDA260720172607201726072017V                Outros                   WESLEY MACEDO ANDRADEOMI4745     9BD196272D2089269            XINGUARA6855590500000100058777   43,50PA
0760746948000112000100004414310000851          SN CORRETORA DE SEGUROS LTDA M270720172807201728072017V                Outros              LEMUEL BRAGHNI DE OLIVEIRANSZ0126     8AFDR12A8BJ414216            XINGUARA6855501100001020305419   43,50PA
0760746948000112000100004412910000851          SN CORRETORA DE SEGUROS LTDA M040720170507201705072017V         Novo (previa)                 POSTO CASTANHEIRAS LTDAOFT7883     9BM695304DB904438            XINGUARA6855501100001020305419   43,50PA
0760746948000112000100004412920000851          SN CORRETORA DE SEGUROS LTDA M040720170507201705072017V                Outros                 POSTO CASTANHEIRAS LTDAOTS6288     9BVAG40D9EE819106            XINGUARA6855501100001020305419   43,50PA
0760746948000112000100004412940000851          SN CORRETORA DE SEGUROS LTDA M040720170507201706072017V                Outros                 POSTO CASTANHEIRAS LTDAOTL0474     9ADV0762EEM385812            XINGUARA6855501100001020305419   43,50PA
0760746948000112000100004412930000851          SN CORRETORA DE SEGUROS LTDA M040720170507201706072017V                Outros                 POSTO CASTANHEIRAS LTDAOTL0484     9ADV0962EEM385811            XINGUARA6855501100001020305419   43,50PA
0760746948000112000100004413550000851          VIP SECURITY CORR SEGUROS LTDA110720171307201713072017V                Outros               HELIO DONIZETTI RODRIGUESOLI3173     9BD27855MD7687606            XINGUARA6855715500000100717754   43,50PA
0760746948000112000100004300430000850             AZUNAV CORR DE SEGUROS LTDA110720171207201712072017V         Novo (previa)              CAROLINA MOURAO DOS SANTOSNEZ5325     9BD27804PB7334403              MACAPA6890009700000100611611   43,50AP
0760746948000112000100004300500000853             PROSEG ADM COR SRGS LTDA ME120720171307201713072017V         Novo (previa)  FABIO LUIS FIGUEIREDO FLORINDO MOREIRAQLP1724     94DFCAP15JB102142              MACAPA6890690000000100110523   43,50AP
0760746948000112000100048001500000850             AZUNAV CORR DE SEGUROS LTDA270720172807201728072017V         Novo (previa)                    J A MORAES JUNIOR MEQLN4422     953658247FR511621             SANTANA6892505500000100611611   43,50AP
0760746948000112000100048001510000850             AZUNAV CORR DE SEGUROS LTDA270720172807201728072017V         Novo (previa)                    J A MORAES JUNIOR MEQLO4854     WV1DD42H0GA030822             SANTANA6892505500000100611611   43,50AP
0760746948000112000100004802100000850           BRADESCOR COR DE SEGUROS LTDA210720172207201722072017V         Novo (previa)          ANA CLAUDIA CARDOSO DE AZEVEDONEO8629     8AGSU19F0FR109472             SANTANA6892806900000100058777   43,50AP
0760746948000112000100004300650000969          BIDU CORR DE SEGS E SERV DE IN150720171707201717072017V         Novo (previa)             CAIO JOSE DE OLIVEIRA ALVESQDV0141     988611122GK047594              MACAPA6890003000000100227943   43,50AP
0760746948000112000100004300310000841          PGB ADM E CORRETORA DE SEGUROS040720170507201705072017V         Novo (previa)                ANA CLEIDE DE JESUS SENAQLP0412     93Y5SRF84HJ811199              MACAPA6890812200001020196172   43,50AP
0760746948000112000100004802110000956          SFSJ CORRETORA DE SEGUROS EIRE210720172207201722072017V         Novo (previa)EMANUELLE MORAMAY SALGADO DE OLIVEIRA ALQLO9205     9BD57834FHY156939              MACAPA6890341900001020287224   43,50AP
0760746948000112000100004801140000850          NIPPON HASEGAWA COR SG VIDA LT240720172407201724072017V         Novo (previa)          MARIA RITA DE SOUSA NASCIMENTOOBT0963     KNAPC817BC7256704               BELEM6667026000000100504815   43,50PA
0760746948000112000100048001180000850          NIPPON HASEGAWA COR SG VIDA LT260720172607201726072017V         Novo (previa)          MARIA RITA DE SOUSA NASCIMENTOOTJ9053     9BD15822AD6861888               BELEM6667026000000100504815   43,50PA
0760746948000112000100048000100000850          NIPPON HASEGAWA COR SG VIDA LT130720171407201714072017V         Novo (previa)             MARIA RITA SOUSA NASCIMENTOOBT0963     KNAPC817BC7256704               BELEM6667026000000100504815   43,50PA
0760746948000112000100004103580000841          ALMEIDA E HOUNSELL ADM COR SEG100720171107201711072017V         Novo (previa)                     PAULO YUKIO NOGUCHIJVA3573     9BGTR48W07B261928           BENEVIDES6879500000000100636568   43,50PA
0760746948000112000100004300480000841          UP CORRETORA DE SEGUROS EIRELI120720171307201713072017V         Novo (previa)                 ELIZEU DE SEIXAS BARROSJVH6903     9BWAA05Z494002578               BELEM6682029500001020329415   43,50PA
0760746948000112000100048000140000850          NIPPON HASEGAWA COR SG VIDA LT140720171707201717072017V         Novo (previa)             MARIA RITA SOUSA NASCIMENTOOTJ9053     9BD15822AD6861888               BELEM6667026000000100504815   43,50PA
0760746948000112000100004801220000841          NOSSA CORRETORA E ADM DE SEGUR190720172007201720072017V         Novo (previa)         MARIA DO SOCORRO PROTAZIO ROMAOQDN1795     9BG148MA0HC407582               BELEM6603377000001020362110   43,50PA
0760746948000112000100004801240000850          DAROCHA CORRETORA DE SEGUROS L190720172007201720072017V         Novo (previa)                LUIZ MARIANO RAIOL GOMESQDZ9193     9BGKL48U0HB192879               BELEM6667023000001020163851   43,50PA
0760746948000112000100004801130000853             PROSEG ADM COR SRGS LTDA ME210720172207201722072017V         Novo (previa)            ANTONIO JOSE PEREIRA MEDRADOOFL6977     3FAHP0JG3BR326152               BELEM6682308900000100110523   43,50PA
0760746948000112000100048000400000657          KIRTON CORRETORA DE SEGUROS S 280720172907201730072017V         Novo (previa)                      MARCIA NUNES PINTOOTB1618     9BGKS48L0EG213955               BELEM6604017000000100063860   43,50PA
0760746948000112000100048000310000850           BRADESCOR COR DE SEGUROS LTDA180720171907201719072017V         Novo (previa)              JOSE EDVAL PEREIRA RIBEIRONSN1311     9BWAA05Z3A4117029          ANANINDEUA6713311500000100058777   43,50PA
0760746948000112000100048000060000866               PEDRO VIOT DE ALBUQUERQUE130720171407201717072017V         Novo (previa)          JOSE BARTOLOMEU DA SILVA RAMOSPMF9771     9BHBH51DBGP549785               BELEM6609318000000100128317   43,50PA
0760746948000112000100004801310000871            AJ LISBOA COR DE SEG LTDA-ME200720172107201721072017V         Novo (previa)       MARIA DA NATAIVIDADE MAIA SARAIVAQDT3254     935SLHMZ1HB502739               BELEM6661500500001020234392   43,50PA
0760746948000112000100048001370000850          PARABUCANO COR DE SEGS SS LTDA240720172507201725072017V         Novo (previa)        ANTONIO MARCOS DE JESUS FERREIRAOTW8986     9BD196263F2233902               BELEM6607018000000100377244   43,50PA
0760746948000112000100004103990000954          TOP RISKI CONSUL EM SEG LTDA-M120720171307201713072017V         Novo (previa)                            ILAN PRESSEREZG9694     8AFTZZFHCCJ446844               BELEM6605520000001020168918   43,50PA
0760746948000112000100004300320000850               HINGTON CORR DE SEGS LTDA050720170607201706072017V         Novo (previa)                ANTONIO FELICIO DE SOUZANEV1054     9BWAB45Z3B4150294           MOSQUEIRO6692903000000100666289   43,50PA
0760746948000112000100004103810000969          BIDU CORR DE SEGS E SERV DE IN070720170807201709072017V         Novo (previa)                EDIVANDRO MOTA GUIMARAESJVH5484     93HFA65308Z236185               BELEM6605315000000100227943   43,50PA
0760746948000112000100004103850000841          SANMAX CORR.SEGS.VIDA S/C LTDA070720170807201709072017V         Novo (previa)       EXPEDITO RODRIGUES DA SILVA FILHOQEE2210     9BD57834UGB055802               BELEM6609590300000100511919   43,50PA
0760746948000112000100048000260000850                          ZUITH AQUINO C180720171907201719072017V         Novo (previa)            LEONARDO QUINTAIROS AMAZONASOFW0370     WBA3A5107DF234187               BELEM6605526000000100634450   43,50PA
0760746948000112000100048000070000835          SANTA IZABEL ADM COR SEGS LTDA130720171407201714072017V         Novo (previa)          MAURILIO MACIEL FREITAS JUNIOROTJ3302     9BWAB45Z6D4189786               BELEM6609511000000100137413   43,50PA
0760746948000112000100000480140000969          MINUTO CORRETORA DE SEGUROS S 260720172707201727072017V         Novo (previa)            JOSE NIROND PIMENTEL FREITASQDL2392     8AP37211ZF6115902               BELEM6607783000000100230758   43,50PA
0760746948000112000100004103800000853             PROSEG ADM COR SRGS LTDA ME070720170807201709072017V         Novo (previa)             IGOR CLEMENS PENNA DE FARIAQEG8462     8AFAR20F1FJ341266               BELEM6602363000000100110523   43,50PA
0760746948000112000100048000020000841          BELBRAS CORR DE SEGS LTDA - ME130720171407201714072017V         Novo (previa)             ACRISIO GODINHO GOMES FILHOPXV2972     9BGKS48G0GG269897               BELEM6607908000001020284799   43,50PA
0760746948000112000100004801410000853             PROSEG ADM COR SRGS LTDA ME260720172707201727072017V         Novo (previa)              MARCOS RODRIGUES T MESSIASPYC1549     99ADJ78V0G4003670               BELEM6661301000000100110523   43,50PA
0760746948000112000100048000010000969          MINUTO CORRETORA DE SEGUROS S 130720171407201714072017V         Novo (previa)                    EDIANE CORREA REBELOOSY6105     9BGJB75Z0DB331043          ANANINDEUA6713342500000100230758   43,50PA
0760746948000112000100048000000000847          T I PONTES DE MESQUITA CORR SE130720171407201714072017V         Novo (previa)           KENIA GISELLE SANTOS PINHEIROQDG7986     9BD119409F1124347          ANANINDEUA6703303000001020355890   43,50PA
0760746948000112000100048000330000986          PEIRO CORRETORA DE SEGS SS LTD140720171707201717072017V         Novo (previa)                PRISCILLA PERLATO TOLEDONSS8935     KMHJU81BBBU156774               BELEM6661375000000100140848   43,50PA
0760746948000112000100004104220000969          MINUTO CORRETORA DE SEGUROS S 010720170307201703072017V         Novo (previa)          MARCOS WENDER DOS SANTOS SOUSAPXG3192     9BHBG51CAGP540520SANTA ISABEL DO PARA6879000000000100230758   43,50PA
0760746948000112000100004801600000613          CORRETORA DE SEGUROS ASSURE RI280720172907201729072017V         Novo (previa)               LUCIENE SANTOS DE AZEVEDOQDK5207     8AGSU1920GR155934               BELEM6683309500000100378712   43,50PA
0760746948000112000100004103820000969          BIDU CORR DE SEGS E SERV DE IN070720170807201709072017V         Novo (previa)                 MICHELLE LIMA FONTENELEJVI6127     3VWSH21C49M502779               BELEM6608712600000100227943   43,50PA
0760746948000112000100048000220000850           BRADESCOR COR DE SEGUROS LTDA210720172207201722072017V         Novo (previa)                        RAMON F C CORREAOTX2355     9BRBDWHE4F0215351               BELEM6609034000000100058777   43,50PA
0760746948000112000100048000160000841          MRFLSGB 10 CORRETORA SEGUROS L210720172207201722072017V         Novo (previa)              P DOS S AMARAL DIAS EIRELIOSZ7945     9BD255049D8958191SANTA ISABEL DO PARA6879000000000100667862   43,50PA
0760746948000112000100004801650000850           BRADESCOR COR DE SEGUROS LTDA280720172907201730072017V         Novo (previa)               ANDRIELLE CHAVES DA SILVAQDB1298     93HGM6650FZ101872               BELEM6604025500000100058777   43,50PA
0760746948000112000100004802410000850           BRADESCOR COR DE SEGUROS LTDA290720173107201731072017V         Novo (previa)                    GISELE RAMOS SAMPAIOQDO5171     9BD195A9MF0678227            TOME-ACU6868000000000100058777   43,50PA
0760746948000112000100004103410000853             PROSEG ADM COR SRGS LTDA ME050720170607201706072017V         Novo (previa)               FERNANDO BARBOSA DA SILVAQDY8344     9BGKT69V0JG129583               BELEM6661312000000100110523   43,50PA
0760746948000112000100048000340000251          VOLVO COR.DE SEGS.ADM.E SERV.L140720171707201717072017V         Novo (previa)P H S DA MATA COM VAR DE RESIDUOS LTDA MOTI7749     9BWKB05UXEP099834          ANANINDEUA6711330000000100410098   43,50PA
0760746948000112000100004104250000850          ROSIMEIRE VAZ DO AMARAL MODEST040720170507201705072017V         Novo (previa)                          H L FURTADO MEKDV7780     9BG674NH0YC700121               BELEM6611500000001020296339   43,50PA
0760746948000112000100004103840000850          ROSIMEIRE VAZ DO AMARAL MODEST070720170807201709072017V         Novo (previa)                          H L FURTADO MEHTY5644     9BM682128MB927895               BELEM6611500000001020296339   43,50PA
0760746948000112000100048000240000850           BRADESCOR COR DE SEGUROS LTDA210720172207201722072017V         Novo (previa)                    ELADYR PEREIRA COSTAJUU2204     9BFZF10B878490301          ANANINDEUA6702000000000100058777   43,50PA
0760746948000112000100004801340000617                          THARDIEU CONSU210720172207201722072017V         Novo (previa)              ALAN JOHN ROMAO SOARES EPPOPN2141     9BSR6X400D3825697           BENEVIDES6879500000000100604178   43,50PA
0760746948000112000100004103890000835          INFINITI PRIME CORR.ADM.DE SEG100720171107201711072017V         Novo (previa)                    EDVANO JOAO DE SOUSAPRD8900     8AJBA3CD8H1585694  CACHOEIRA DO PIRIA6861700000000100579793   43,50PA
0760746948000112000100004103930000847           BRADESCOR COR DE SEGUROS LTDA110720171207201712072017V         Novo (previa)         CLAYMARA DOS SANTOS GASPAR LEALPSB7648     9BD195A42F0641745               BELEM6612000000000100058777   43,50PA
0760746948000112000100004103950000850          NIPPON HASEGAWA COR SG VIDA LT110720171207201712072017V         Novo (previa)                       ROSEMARY MAIORANAQDC4818     JMYXLGF4WFZA00703               BELEM6605528000000100504815   43,50PA
0760746948000112000100004103960000850          NIPPON HASEGAWA COR SG VIDA LT120720171207201712072017V         Novo (previa)        JOSE NATALICIO PERREIRA DE SOUZAOFO7481     9BWAA05U9CP176351               BELEM6611000000000100504815   43,50PA
0760746948000112000100003712480000280          RODOBENS ADM E COR DE SEGS LTD310720173107201731072017V                Outros                ANAMIRA DA PAIXAO CALADONYY9410     9534N8248BR139126            SANTAREM6804040000000100204056   43,50PA
0760746948000112000100003712380000849                ADICIONAL CORR SEGS LTDA060720170707201707072017V         Novo (previa)               DI FERRO COMERCIO LTDA MEQDO5886     93HGM6670GZ207540            SANTAREM6804010000000100447161   43,50PA
0760746948000112000100003712450000837          R J C CORRETORA DE SEG LTDA ME270720172807201728072017V                Outros                           SILIANE BENTOKAD0592     9BFHW21C27B038744            SANTAREM6803872500001020147490   43,50PA
0760746948000112000100003712440000940          SEGURALTA OESTE COR DE SEGS LT270720172807201728072017V                Outros               DANIEL TSUYOSHI SHINOZAKIOCA8569     9BG124HP0BC488542            SANTAREM6800553000000100361011   43,50PA
0760746948000112000100003712350000660          TAIRINE DE OLIVEIRA CORR DE SE030720170407201704072017V                Outros                   FLAVIA BUDELON DUARTEBAU1884     9BRK29BT2H0100281            SANTAREM6802065000001020341237   43,50PA
0760746948000112000100003712460000849                ADICIONAL CORR SEGS LTDA270720173107201731072017V                Outros         R E R SIQUEIRA DA PENHA LTDA MEQDW6004     988611156HK102532            SANTAREM6802079000000100447161   43,50PA
0760746948000112000100003712370000849                ADICIONAL CORR SEGS LTDA040720170507201705072017V                Outros  FRANCISCO REGINALDO PRUDENCIO DA SILVAFJY7566     9BWAA05U1ET044291            SANTAREM6800508000000100447161   43,50PA
0760746948000112000100037123900000841          DAROCHA CORRETORA DE SEGUROS L100720171107201711072017V         Novo (previa)       FERNANDO AUGUSTO FERREIRA DO VALEOSZ5549     9BG148LP0DC439295            SANTAREM6802212000001020163851   43,50PA
0760746948000112000100003712400000835          INOVATTA CORRETORA DE SEGUROS 110720171207201712072017V         Novo (previa)         SO FILTROS TAPAJOS COM DE PECASOBE9069     8AJFX29G2D6601560            SANTAREM6803000000000100690597   43,50PA
0760746948000112000100003712470000849                ADICIONAL CORR SEGS LTDA270720172807201728072017V                Outros                IVONEY DE BRITO PALMEIRAQDO2732     9BWAA45UXFP168190            SANTAREM6800508000000100447161   43,50PA
0760746948000112000100004801180000641                UNICOOB COR DE SEGS LTDA240720172407201724072017V         Novo (previa)               RAIMUNDO NONATO ALVARENGAQDK6664     8AJFX29G6F6608143             TUCURUI6845625300000100562670   43,50PA
0760746948000112000100004300400000657          KIRTON CORRETORA DE SEGUROS S 120720171207201712072017V         Novo (previa)                    JOSE GONCALVES MEIRAOTN8986     9BD578341F7852713             TUCURUI6845907200000100063860   43,50PA
0760746948000112000100004103610000850          FERTY CORRET,ADM DE SEGUROS LT100720171107201711072017V         Novo (previa)             RIVANIER DAS DORES OLIVEIRAOFS8238     9BG148MH0DC434171             TUCURUI6845659000000100689271   43,50PA
0760746948000112000100004103600000940          SEGURALTA OESTE COR DE SEGS LT100720171107201711072017V         Novo (previa)                    JOAO CARLOS STEFANESQEA6452     9BG148DK0FC436035   GOIANESIA DO PARA6863900000000100361011   43,50PA
0760746948000112000100004635280000849            J.C.NETO COR.E ADM.SEGS LTDA260720172707201727072017V         Novo (previa)               GIULLIANO DE ARAUJO GOMESPHD1060     9BWAG4129HT540809              MANAUS6903782000000100354945   43,50AM
0760746948000112000100004635290000849          MMA CORRETORA DE SEGUROS LTDA 280720172907201730072017V         Novo (previa)              ALMIR CORREA DO NASCIMENTONOO2636     9BRBD48E6B2506064              MANAUS6904962400001020171420   43,50AM
0760746948000112000100004635250000849          M S PINTO CORRETORA DE SEGUROS190720172007201720072017V         Novo (previa)                    ARINALDO SILVA MONTEOAK8835     9BGJC75Z0DB292202              MANAUS6903382000001020393911   43,50AM
0760746948000112000100004635300000001           BRADESCOR COR DE SEGUROS LTDA310720173107201731072017P         Novo (previa)                       WINNIE MUNIZ BRUMOAE7401     9BHBG51CAEP294356              MANAUS6903700000000100058777   27,00AM
0760746948000112000100004635260000001           BRADESCOR COR DE SEGUROS LTDA240720172607201727072017P         Novo (previa)          KARLA CRISTINA DE LIMA BATISTANPB4367     93HGM2620BZ105066              MANAUS6903700000000100058777   27,00AM
0760746948000112000100004635240000849          M S PINTO CORRETORA DE SEGUROS190720172007201720072017V         Novo (previa)              TERESA AREVALO SALDARRIAGAPHJ6637     9BD57834UGB096829              MANAUS6903382000001020393911   43,50AM
0760746948000112000100004635220000001           BRADESCOR COR DE SEGUROS LTDA180720171907201719072017P                Outros                       WINNIE MUNIZ BRUMPHB6393     JSAJTE54VE4100392              MANAUS6903700000000100058777   27,00AM
0760746948000112000100004635190000840          SMCS CORRETORA DE SEGUROS LTDA150720171507201715072017V                OutrosMARIA DO PERPETUO SOCORRO SILVA DOS SANTOAJ9131     9BWAG4125FT576820              MANAUS6903551000000100677281   43,50AM
0760746948000112000100004639630000849            J.C.NETO COR.E ADM.SEGS LTDA210720172207201722072017V                Outros               ISRAELSON TAVEIRA BATISTAPHF8806     94DBCAN17GB101426              MANAUS6906331000000100354945   43,50AM
0760746948000112000100004639730000849            J.C.NETO COR.E ADM.SEGS LTDA240720172607201726072017V         Novo (previa)                 EVE GUERREIRO DE TOLEDOOAE8151     9BWAB45U9FT024425              MANAUS6901030000000100354945   43,50AM
0760746948000112000100004639660000849            J.C.NETO COR.E ADM.SEGS LTDA220720172407201724072017V         Novo (previa)                IGOR GUERREIRO DE TOLEDOJXO3507     9bwka05z864197164              MANAUS6901030000000100354945   43,50AM
0760746948000112000100004939860000849            J.C.NETO COR.E ADM.SEGS LTDA260720172707201727072017V         Novo (previa)                        LENIO ABREU LIMAOAK0436     9BD197132D3012202              MANAUS6906331000000100354945   43,50AM
0760746948000112000100004636810000849          ZONA FRANCA DAS AMERICAS-ASSES050720170607201706072017V         Novo (previa)                  ZE SAKAMOTO HORTIFRUTIOXM7413     9UWSHX76AFN015989              MANAUS6905700200000100364789   43,50AM
0760746948000112000100004639710000849          G G MOURA CORRETORA DE SEGUROS240720172607201726072017V         Novo (previa)                      ADNA DANTAS FREIREOAD8632     9bgrp48f0eg259194              MANAUS6905830000000100319783   43,50AM
0760746948000112000100004641040000849          ZONA FRANCA DAS AMERICAS-ASSES280720173107201731072017V         Novo (previa)                      RAFAEL MARINHO CHAPHA6020     9BG148LK0FC411380              MANAUS6905749500000100364789   43,50AM
0760746948000112000100004636800000840          SOTTO MAYOR ADM E COR DE SEGS 050720170607201706072017V         Novo (previa)                  BARBARA LEITE SIQUEIRAOXM4926     9BD196283F2243422              MANAUS6900525000000100367842   43,50AM
0760746948000112000100004636610000840          GAD CORRETORA E ADM DE SEGS LT300620170107201702072017V         Novo (previa)              ALDENICE DA SILVA VENANCIOPHI4986     93HGK5860GZ231585              MANAUS6905000000001020192436   43,50AM
0760746948000112000100004639080000639           LC MARINHO ADM E CORR SEGS SC120720171307201713072017V         Novo (previa)                     DAYSE LOPES MARTINSPHK9626     9BFZH55L6J8005812              MANAUS6905010000000100266922   43,50AM
0760746948000112000100004639950000849          ZONA FRANCA DAS AMERICAS-ASSES270720172807201728072017V         Novo (previa)                    BRUNO MARTINS SOARESNOV8462     9bhbg41dbep164437              MANAUS6902710000000100364789   43,50AM
0760746948000112000100004641090000849          G G MOURA CORRETORA DE SEGUROS310720173107201731072017V         Novo (previa)             ELIS REGINA CAMPOS FERREIRAPHI2897     9BGKS69G0GG215397              MANAUS6907314000000100319783   43,50AM
0760746948000112000100004639680000849          CONSULCOR ADM CORT SEGS  IMOVE220720172407201724072017V         Novo (previa)          ELSON CONFIANCA DA SILVA ALVESOAA9377     kmhdc51ebcu324671              MANAUS6904443000000100398250   43,50AM
0760746948000112000100004639090000849          MMA CORRETORA DE SEGUROS LTDA 120720171307201713072017V         Novo (previa)                    TALITA VALE DA SILVAPHJ4500     9bgks69v0hg130222              MANAUS6905000100001020171420   43,50AM
0760746948000112000100004639840000840          FROESPRESS CORRETORA DE SEGS L240720172607201726072017V         Novo (previa)                            RENAN PINTONOAL8609     94DJBAL10DJ425337              MANAUS6905302000000100673331   43,50AM
0760746948000112000100004639340000853             PROSEG ADM COR SRGS LTDA ME180720171907201719072017V         Novo (previa)                  CINTIA CARLAS B JEZININON5421     3N1CN7ADXEK434700              MANAUS6905016100000100110523   43,50AM
0760746948000112000100004641100000866          INOVE INSURANCE CORR DE SEGS L310720173107201731072017V         Novo (previa)                              C S C MELONAV6328     93ZC53C01E8457456              MANAUS6905709000001020304250   43,50AM
0760746948000112000100004639050000849          A R MENEZES JUNIOR COR DE SEGS120720171307201713072017V         Novo (previa)                  RENATA BARBOSA RIBEIROPSG1306     wddwf4aw8fr056569              MANAUS6906002000000100116670   43,50AM
0760746948000112000100004636830000849           ABG CORR DE SEGS DE VIDA LTDA060720170707201707072017V         Novo (previa)              ALEXSSANDRO VALES OLIVEIRAPHC3966     93HFB9680GZ210211              MANAUS6904222400001020341458   43,50AM
0760746948000112000100004639060000849            J.C.NETO COR.E ADM.SEGS LTDA120720171307201713072017V         Novo (previa)                      TULIO GOMES DANTASPHC4006     9BWJL45U6FP180766              MANAUS6905700200000100354945   43,50AM
0760746948000112000100004639310000854           BJB CORRETORA DE SEGUROS LTDA180720171907201719072017V         Novo (previa)               MARIA IVANY VARELA DANTASPHI1220     95pjn81epgb094734              MANAUS6905707000000100558699   43,50AM
0760746948000112000100004639070000849            J.C.NETO COR.E ADM.SEGS LTDA120720171307201713072017V         Novo (previa)                      TULIO GOMES DANTASPHB1988     9BGPB69M0EB309149              MANAUS6905700200000100354945   43,50AM
0760746948000112000100004639830000849          MMA CORRETORA DE SEGUROS LTDA 250720172607201726072017V         Novo (previa)                    REGIANE REBELO COSTAPHH1931     9BGKS69R0GG102015              MANAUS6903751000001020171420   43,50AM
0760746948000112000100004639380000837          AG PLAN CORRETORA DE SEGS LTDA190720172007201720072017V         Novo (previa)QUALITY MATERIAL MEDICO E HOSPITALAR LTDPHD8007     9bd2651jhj9082268              MANAUS6905313500001020271379   43,50AM
0760746948000112000100004639120000840          TM ALBUQUERQUE COR DE SEGS LTD120720171307201713072017V         Novo (previa)            CAMILA BANDEIRA DE OL IVEIRAPHI0608     WAU8CD8T1FA051572              MANAUS6903700000001020088361   43,50AM
0760746948000112000100004639910000849          CARANHA CORR DE SEGS VIDA LTDA260720172707201727072017V         Novo (previa)              ORLANDO JOSE HIGINO BENTESNOS9598     9BD17164LB5662221              MANAUS6904550000001020399235   43,50AM
0760746948000112000100004639750000849          CONSULCOR ADM CORT SEGS  IMOVE250720172607201726072017V         Novo (previa)         SANDREA DOS SANTOS NOVO MENEZESOAI0982     9BHBH41DBEP208839              MANAUS6905777000000100398250   43,50AM
0760746948000112000100004639690000001           BRADESCOR COR DE SEGUROS LTDA220720172407201724072017P         Novo (previa)              SERGIO RODRIGUES DE ARRUDAOAF2334     9BWAA45Z4D4192334              MANAUS6903700000000100058777   27,00AM
0760746948000112000100004636630000849          CONSULCOR ADM CORT SEGS  IMOVE010720170307201703072017V         Novo (previa)               ANA PAULA PICANCO MOREIRANOQ6091     9bgkb48b0eg348711          MANACAPURU6940080600000100398250   43,50AM
0760746948000112000100004639460000849          G G MOURA CORRETORA DE SEGUROS200720172107201721072017V         Novo (previa)                 HUMBERTO LUCIO DE SALESQEW2828     8AGBN69S0HR115314              MANAUS6903700000000100319783   43,50AM
0760746948000112000100004639130000840          ALESSANDRA VALERIA ROCHA SILVA130720171407201714072017V         Novo (previa)      CLAYTON PASCARELLI RESBOLCAS FILHONOS0023     kmhnu81cdau118533              MANAUS6905347000000100632091   43,50AM
0760746948000112000100004639220000840          A.A.BRAGA JR.ADM.COR.SEGS.LTDA170720171807201718072017V         Novo (previa)                     WILSON WOLTER FILHOOAM5212     93HGM2620EZ211377              MANAUS6905002000000100340553   43,50AM
0760746948000112000100004636900000840          FROESPRESS CORRETORA DE SEGS L070720170807201709072017V         Novo (previa)                 ADAEDES AZARIAS PEREIRAOAO7899     8AJFY29G7D8510978              MANAUS6902004000000100673331   43,50AM
0760746948000112000100004636980000849          M S PINTO CORRETORA DE SEGUROS080720171007201710072017V         Novo (previa)      MARIO HENRIQUE DE OLIVEIRA MAGNANINOL0135     9bgsa19109b280331              MANAUS6902907000001020393911   43,50AM
0760746948000112000100004639240000840          TM ALBUQUERQUE COR DE SEGS LTD170720171807201718072017V         Novo (previa)                      JANDER GOMES LOPESPHG5634     9BFZD55P4GB846098              MANAUS6903707100001020088361   43,50AM
0760746948000112000100004636580000840          LESLEY ADM.COR.DE SEGS S/C LTD300620170107201702072017V         Novo (previa)            FRANCISCO EVANGELISTA P NETOPHE5713     9BD19627ZF2252154              MANAUS6908300000000100319252   43,50AM
0760746948000112000100004636720000854           BJB CORRETORA DE SEGUROS LTDA030720170407201704072017V         Novo (previa)             KLEY JANSSEN MINEIRO ARAUJOPWI7178     9BFZH54J1F8263291              MANAUS6902300000000100558699   43,50AM
0760746948000112000100004639450000849          CARANHA CORR DE SEGS VIDA LTDA200720172107201721072017V         Novo (previa)           MARIA DO SOCORRO MELO MOREIRAPHA4320     8AGSU19F0FR123515              MANAUS6903000000001020399235   43,50AM
0760746948000112000100004636640000849          G G MOURA CORRETORA DE SEGUROS030720170407201704072017V         Novo (previa)         NICE ORLANY DOS SANTOS PIMENTELJXX3707     9BWCA05WX7P022229              MANAUS6906807000000100319783   43,50AM
0760746948000112000100004639190000840          ALCORR CORRETORES E AGENTES DE140720171507201715072017V         Novo (previa)        WLANDEMIR BENVINDO DE FIGUEIREDONOU5050     93HFA66808Z219975              MANAUS6905883300001020057539   43,50AM
0760746948000112000100004639780000849          ATUANTE CENTER COR.DE SEGS.E G260720172607201726072017V         Novo (previa)                  KATIA DE OLIVEIRA LIMANOR1336     8AFER13P4BJ328604              MANAUS6902904000000100198528   43,50AM
0760746948000112000100004639020000639           LC MARINHO ADM E CORR SEGS SC110720171207201712072017V         Novo (previa)        ANTONIA DE MARIA PONTES DA COSTAJXN2611     9BD17201MA3545855          MANACAPURU6940084500000100266922   43,50AM
0760746948000112000100004639430000840          LESLEY ADM.COR.DE SEGS S/C LTD190720172007201720072017V         Novo (previa)               CARLOS MATEUS NUNES HAVASJXI5344     9BD27833A72563480              MANAUS6904508000000100319252   43,50AM
0760746948000112000100004636950000840          ANAUE ADM.E COR.DE SEGUROS LTD070720170807201709072017V         Novo (previa)                FRANK QUEIROZ DE AZEVEDOPHH2036     9BWAG45U4HT013529              MANAUS6905508000000100478636   43,50AM
0760746948000112000100004639850000849          G G MOURA CORRETORA DE SEGUROS260720172707201727072017V         Novo (previa)      DEBORAH GHISLANE GAMA MACIEL SOUZAPHB9955     8AJEX32G2F4039718              MANAUS6905812500000100319783   43,50AM
0760746948000112000100004641070000639           LC MARINHO ADM E CORR SEGS SC290720173107201731072017V         Novo (previa)           MARIA DAS GRACAS LEITE GUEDESPHF1657     93HFB9640GZ215671          MANACAPURU6940129600000100266922   43,50AM
0760746948000112000100004639870000613          MAPMA COR DE SEG E CONSULT LTD260720172707201727072017V         Novo (previa)             SHEYLA KELLY DA SILVA RAMOSPHQ0130     94dbfan17gb102898              MANAUS6902531500000100616176   43,50AM
0760746948000112000100004639160000849            J.C.NETO COR.E ADM.SEGS LTDA140720171507201715072017V         Novo (previa)        FERNANDO ANTONIO PORTELLA JUNIORPHE6376     9BGPB68N0FB195340              MANAUS6905875000000100354945   43,50AM
0760746948000112000100004639480000840          DIAFANO ASS ADM E CORR SEGS LT200720172107201721072017V         Novo (previa) ANTONIO INALDO DE AQUINO MEDEIROS FILHOPHJ7857     9BHBG51CAGP625914              MANAUS6902830400000100437123   43,50AM
0760746948000112000100004639610000840          OGG NPRTE ADM.E COR.DE SEGS.LT210720172207201722072017V         Novo (previa)        ANTONIO CARLOS ANDRADE CONCEICAOOAL7954     93XJNKB8TDCD73685              MANAUS6904316000000100332968   43,50AM
0760746948000112000100004639530000611           BRADESCOR COR DE SEGUROS LTDA200720172107201721072017V         Novo (previa)                APARECIDO DONIZETI ALVESOAJ1986     WBAPH1108BA962696              MANAUS6900514000000100058777   43,50AM
0760746948000112000100004639210000849          MMA CORRETORA DE SEGUROS LTDA 140720171507201715072017V         Novo (previa)           JEFFREY DO NASCIMENTO AZEVEDOOAL1959     9BWDB45U4CT201763              MANAUS6901025000001020171420   43,50AM
0760746948000112000100004636750000849          A R MENEZES JUNIOR COR DE SEGS040720170507201705072017V         Novo (previa)             DIEGO ENZO MARINHO IRIGARAYOAA7065     9bfze55p1c8744603              MANAUS6907800000000100116670   43,50AM
0760746948000112000100004639920000639           LC MARINHO ADM E CORR SEGS SC270720172807201728072017V         Novo (previa)               LUCIANA CARVALHO FIGUEIRAOAC3043     3C3AFFAR4DT521903              MANAUS6905304000000100266922   43,50AM
0760746948000112000100004639790000849            J.C.NETO COR.E ADM.SEGS LTDA250720172607201726072017V         Novo (previa)                 MARCELO TRAVESSA GUEDESOAN3324     93YHSR2LAEJ769623              MANAUS6905305000000100354945   43,50AM
0760746948000112000100004639270000849          ATUANTE CENTER COR.DE SEGS.E G170720171807201718072017V         Novo (previa)    LUCIVANE ALVES PIMENTEL DE A PEREIRANOP7341     9bhbg41daep241070              MANAUS6904000000000100198528   43,50AM
0760746948000112000100004639280000849                P D A BARROSO E CIA LTDA170720171807201718072017V         Novo (previa)                 JONES SOLIDADE DA SILVAPHK1876     9BRBD3HE6H0320331              MANAUS6902912000001020317140   43,50AM
0760746948000112000100004639320000849            J.C.NETO COR.E ADM.SEGS LTDA180720171907201719072017V         Novo (previa)         SAMANTHA HARRAQUIAN DE MEDEIROSOAL5014     WV1DB42H0DA019613              MANAUS6906002000000100354945   43,50AM
0760746948000112000100004636620000840          ROSAN E NUNES COR DE SEGS LTDA010720170307201703072017P         Novo (previa)             FRANK LUCIO BADELHA DA MOTANOZ0871     9BD372171F4055033              MANAUS6903700000001020185669   27,00AM
0760746948000112000100004636770000641          MARTINELLI & RODRIGUES COR DE 050720170607201706072017V         Novo (previa)       ALESSANDRA CRISTINA MARCO ANSELMIPHL2729     9BG148FK0HC402557              MANAUS6900525000001020222769   43,50AM
0760746948000112000100004637000000853             PROSEG ADM COR SRGS LTDA ME100720171107201711072017V         Novo (previa)                ROSALDO TORRES DE ARAUJONOU4479     3FAHP0JA7AR174984              MANAUS6907476000000100110523   43,50AM
0760746948000112000100004639700000840          F.A. MATIAS BARBOSA COR.DE SEG240720172607201726072017V         Novo (previa)          ALUISIO JOSE CORDEIRO P JUNIORNPB5545     9bd27844pc7514158              MANAUS6901020000000100121801   43,50AM
0760746948000112000100004300420000850                          ZUITH AQUINO C110720171207201712072017V         Novo (previa)                   JOSE NETO DE OLIVEIRAQEJ6939     8AJHA8CD3H2587158          ABAETETUBA6844000000000100634450   43,50PA
0760746948000112000100004300680000841          WPS WALDELICE ASSES.E COR.SEGS150720171707201717072017V         Novo (previa)       JARDELICE DE MORAIS PINTO BRANDAOOFO6033     9BWPB45Z4D4190364          ABAETETUBA6844000000000100428728   43,50PA
0760746948000112000100004300690000850                          ZUITH AQUINO C150720171707201717072017V         Novo (previa)                 LEANDRO FRANCA DA SILVAQDV2253     9C2KD0810HR434037           BARCARENA6844700000000100634450   43,50PA
0760746948000112000100004802090000641                UNICOOB COR DE SEGS LTDA210720172207201722072017V         Novo (previa)               EDICILENE DA COSTA LOBATOQDU6171     KNAGN419BF5627987          ABAETETUBA6844000000000100562670   43,50PA
0760746948000112000100004300250000841          ALMEIDA E HOUNSELL ADM COR SEG010720170307201703072017V         Novo (previa)                 MARCOS PEREIRA DA COSTAQEG0152     8AJBA3CD2G1568842            TOME-ACU6868200000000100636568   43,50PA
0760746948000112000100004414510000847          BGSB CORRETORA DE SEGUROS LTDA270720173107201731072017V         Novo (previa)            MARCO ANTONIO BARROS DE LIMAOFR3378     8AJFY29GXD8512854         PARAGOMINAS6862628000000100560171   43,50PA
0760746948000112000100004414540000847          VALE CORRETORA DE SEGUROS EIRE280720173107201731072017V         Novo (previa)           CARLOS ALBERTO SALES FERREIRAHKP7631     8AP17241T92028358         PARAGOMINAS6862547000001020308230   43,50PA
0760746948000112000100004413960000657          KIRTON CORRETORA DE SEGUROS S 190720172007201720072017V         Novo (previa)                  GILSON SOARES IBIAPINAQDS0055     988611152GK053222         PARAGOMINAS6862803000000100063860   43,50PA
0760746948000112000100004412830000847          VALE CORRETORA DE SEGUROS EIRE300620170107201702072017V         Novo (previa)          ELVINO ALBUQUERQUE DE OLIVEIRAOTC8816     9BHBH51DAEP136377         PARAGOMINAS6862825000001020308230   43,50PA
0760746948000112000100004414480000847          VALE CORRETORA DE SEGUROS EIRE260720172807201728072017V         Novo (previa)            DIONESTA SANTOS SILVA VIEIRANSV3069     8AJFZ29G1B6120447         PARAGOMINAS6862526000001020308230   43,50PA
0760746948000112000100004414020000847          BGSB CORRETORA DE SEGUROS LTDA190720172107201721072017V                Outros        FRANCISCA ROSANGELA ALVES SANTOSNST9449     9BG138KJ0BC430077         PARAGOMINAS6862745100000100560171   43,50PA
0760746948000112000100004413810000847          VALE CORRETORA DE SEGUROS EIRE170720171807201718072017V         Novo (previa)               WAGNER SIMOES DE OLIVEIRAQDL4748     9BD57814UGB047841         PARAGOMINAS6862825000001020308230   43,50PA
0760746948000112000100004413410000847          BGSB CORRETORA DE SEGUROS LTDA080720171107201711072017V         Novo (previa)                ANTONIA RODRIGUES VIEIRANSX9783     9BFZF54P4B8166123         PARAGOMINAS6862701800000100560171   43,50PA
0760746948000112000100004414080000838                  VIVABEM CORR SEGS LTDA200720172207201722072017V         Novo (previa)       LINDAMA FERREIRA DE SOUZA ANDRADEQDY1154     8AJCC8GS7H0101797         PARAGOMINAS6862848100000100542610   43,50PA
0760746948000112000100004413020000280          RODOBENS ADM E COR DE SEGS LTD010720170307201703072017V         Novo (previa)               JOAO BATISTA BARROSO LIMAOTR6132     8AJYY5967D6509299        CAPITAO POCO6865000000000100204056   43,50PA
0760746948000112000100004414090000847          VALE CORRETORA DE SEGUROS EIRE210720172207201722072017V         Novo (previa)     AE ALVES FERREIRA CONFECCOESLTDA MEOTN6290     93HGM2620DZ116743         PARAGOMINAS6862547000001020308230   43,50PA
0760746948000112000100004637550000840          VILA RICA ADM.E COR.DE SEGS.LT170720171707201717072017V         Novo (previa)       MARIA ANTONIETA DOS SANTOS FREIREPHC7837     9BHBG41DAFP446294              MANAUS6909512000000400007072   43,50AM
0760746948000112000100004637130000957             VEJA ADM E COR DE SEGS LTDA060720170707201707072017V         Novo (previa)                LUIZ FERNANDO DE ANDRADENOZ1631     93YBSR86KEJ412227              MANAUS6907579300000100195448   43,50AM
0760746948000112000100004637320000969          MINUTO CORRETORA DE SEGUROS S 100720171107201711072017V         Novo (previa)                  SIRLENE MARIA DA SILVAPHK0546     9BHBG41CAGP607132              MANAUS6909443000000100230758   43,50AM
0760746948000112000100004637030000875          COTAR CORRETORA DE SEGUROS LTD050720170607201706072017V         Novo (previa)                    CHRISTIAN RAUL FUNESJXG5717     9BWAA01J854038915              MANAUS6904136000001020192878   43,50AM
0760746948000112000100004637330000849              PAIVA E PAIVA CORR DE SEGS110720171207201712072017V         Novo (previa)         RAIMUNDO NONATO SOARES DE MATOSOAJ3856     93YLSR7RHCJ270181              MANAUS6905569000001020283458   43,50AM
0760746948000112000100004637060000849            J.C.NETO COR.E ADM.SEGS LTDA050720170607201706072017V         Novo (previa)             JOAO CRISOSTONO GOMES PINTOOAO8148     9BGRP48F0DG151018              MANAUS6909417000000100354945   43,50AM
0760746948000112000100004637190000849            J.C.NETO COR.E ADM.SEGS LTDA070720170807201709072017V         Novo (previa)           LAURO LUIZ DE ALMEIDA TRENTINOAG0451     3C3AFFDR1ET239425              MANAUS6905701500000100354945   43,50AM
0760746948000112000100004637900000849          JAMF CORRETORA DE SEGUROS LTDA220720172407201724072017V         Novo (previa)                  LUAN FONTINELLE ARAUJOPHJ0912     9BGKT69V0HG194591              MANAUS6909306600000100409596   43,50AM
0760746948000112000100004640010000840          ALCORR CORRETORES E AGENTES DE260720172707201727072017V         Novo (previa)             CLAUDIA INES GUAQUETA ARIASNOX0772     3n1dk3cd3el214487              MANAUS6905000100001020057539   43,50AM
0760746948000112000100004640180000639           LC MARINHO ADM E CORR SEGS SC280720172907201730072017V         Novo (previa)                    LEONARDO SOUJI MAEDAJWF8049     9BG148FH0DC499101              MANAUS6905700200000100266922   43,50AM
0760746948000112000100004640190000849          ZONA FRANCA DAS AMERICAS-ASSES280720172907201730072017V         Novo (previa)             LICIA MARA OMENE B DA CUNHAPHJ2006     9BRB29BT9H2120788              MANAUS6904008000000100364789   43,50AM
0760746948000112000100004637370000969          MINUTO CORRETORA DE SEGUROS S 110720171307201713072017V         Novo (previa)                 FRANCISCO ALBERTO SALESNOW9098     KNAFU411BB5863879              MANAUS6909377000000100230758   43,50AM
0760746948000112000100004640260000849          ZONA FRANCA DAS AMERICAS-ASSES310720173107201731072017V         Novo (previa)           IVANTE DE OLIVEIRA NASCIMENTONOS6972     WV1DD42HXDA058803              MANAUS6905811200000100364789   43,50AM
0760746948000112000100004640210000840          GAD CORRETORA E ADM DE SEGS LT280720172907201730072017V         Novo (previa)                  ROSEANE ROCHA DA SILVAPHG7682     9BGKT48R0GG195074              MANAUS6905824000001020192436   43,50AM
0760746948000112000100004637100000849            J.C.NETO COR.E ADM.SEGS LTDA060720170707201707072017V         Novo (previa)                            ELEMAR WEBERJXU3587     9BSR6X4A063591619              MANAUS6901561300000100354945   43,50AM
0760746948000112000100004638000000840          BALMEK COR DE SEG VIDA LTDA ME250720172607201726072017V         Novo (previa)             JOSE EVERTON SOUZA DA SILVAOXM6469     9BFZH55L0F8136399              MANAUS6909037700000100651982   43,50AM
0760746948000112000100004637360000849          CONSULCOR ADM CORT SEGS  IMOVE120720171307201713072017V         Novo (previa)               ARMSTRONG DE SOUZA CAMPOSPHL5548     9brblwhe9h0091003              MANAUS6902836000000100398250   43,50AM
0760746948000112000100004637700000854          MARUAGA CONS.ADM.COR.DE SEGS.L190720172007201720072017V         Novo (previa)                VALDERLUCIA COELHO LEITENDA6628     9bg138sp0bc472117              MANAUS6905821000000100437999   43,50AM
0760746948000112000100004637070000849          G G MOURA CORRETORA DE SEGUROS060720170607201710072017V         Novo (previa)                   SANDRO DE LIMA CORREAOAC6956     93YLSR7RHBJ839733              MANAUS6909730400000100319783   43,50AM
0760746948000112000100004637460000969          BIDU CORR DE SEGS E SERV DE IN130720171407201714072017V         Novo (previa)                   JOAO BATISTA DO CARMOPHC1007     94DBFAN17GB100757              MANAUS6905522000000100227943   43,50AM
