0860746948000112000100003800080000842          ABSOLUT TOTAL CORR. DE SEG. LT250820162608201626082016V         Novo (previa)H2 IMPRESSAO SERVICOS E COMERCIO LTDA MEOFN4567     9536E7230CR243220         PARAUAPEBAS6851500000000100650994   40,00AM
0860746948000112000100004025370000849          ROSAN E NUNES COR DE SEGS LTDA230820162608201627082016V         Novo (previa)                        BIANCA FIGLIUOLOPHE6625     93HRV2850GZ108178              MANAUS6906008500001020185669   40,00AM
0860746948000112000100004025400000849          MMA CORRETORA DE SEGUROS LTDA 240820162608201626082016V         Novo (previa)       FERNANDO RICARDO FERNANDES COELHOOAN2744     9BGRP48F0EG118690              MANAUS6904479300001020171420   40,00AM
0860746948000112000100004025170000849            J.C.NETO COR.E ADM.SEGS LTDA190820162608201626082016V         Novo (previa)                   PEDRO JORGE LEDO LIMAPHE5868     9BRBLWHE6G0039746              MANAUS6906002000000100354945   40,00AM
0860746948000112000100004025520000975           HPE CORRETORA DE SEGUROS LTDA250820162608201626082016V         Novo (previa)                JOSE NUNES DE PAULO NETOPHE5588     93XHYKB8TGCF12709              MANAUS6905473300001020076053   40,00AM
0860746948000112000100004025470000840          PAULO OMENA ADM COR SEGS LTDA 250820162608201626082016V         Novo (previa)             SUELY PINHEIRO SOARES ONETYPHE6208     93XXTGA2WGCF24047              MANAUS6905702100000100170704   40,00AM
0860746948000112000100004025550000849          G G MOURA CORRETORA DE SEGUROS260820162908201630082016V         Novo (previa)                    SELSON MACHADO COSTAOAI5967     3n1ck3cd4dl213424              MANAUS6904061200000100319783   40,00AM
0860746948000112000100004025570000835           KCL CORRETORA DE SEGUROS LTDA260820162908201630082016V             Renovacao       DEUCILENE MARIA DA SILVA CARVALHOPHG5707     9BD195A9MG0707103              MANAUS6906515000000100623814   40,00AM
0860746948000112000100004025590000854           BJB CORRETORA DE SEGUROS LTDA270820162908201630082016V         Novo (previa)                           KENJI NISHIKIOAJ7771     8AJFY29G1E8564343            IRANDUBA6941500000000100558699   40,00AM
0860746948000112000100004025160000849          CONSULCOR ADM CORT SEGS  IMOVE240820162908201630082016V                Outros       ANDERSON SANTOS DE ALBUQUERQUE MENOK6352     9362MN6AYCB040949              MANAUS6909715900000100398250   40,00AM
0860746948000112000100004022570000840               HELCIO NASCIMENTO MARQUES250820162608201626082016V         Novo (previa)              FLAVIO CARVALHO CAVALCANTEOAJ2861     94DVDUD40EJ258175              MANAUS6907856000000100669474   40,00AM
0860746948000112000100004022510000849          LESLEY ADM.COR.DE SEGS S/C LTD250820162608201626082016V         Novo (previa)                   IVAN CAVALCANTE ALVESNUI1657     8AFAR23L3FJ290256              MANAUS6909307400000100319252   40,00AM
0860746948000112000100004022470000849          G G MOURA CORRETORA DE SEGUROS240820162608201626082016V         Novo (previa)                      F C C G JUNIOR EPPPHF1000     WDDSJ4DW5FN182078              MANAUS6905314000000100319783   40,00AM
0860746948000112000100004022490000849          G G MOURA CORRETORA DE SEGUROS240820162608201626082016V         Novo (previa)             JOAO BATISTA ALVES DA SILVAPHE0428     9BD57834UG7979132              MANAUS6909355300000100319783   40,00AM
0860746948000112000100004022390000849            J.C.NETO COR.E ADM.SEGS LTDA230820162608201626082016V         Novo (previa)                  ISAIAS CORREA DE SOUZANOW8336     9BD195152B0084950              MANAUS6907355000000100354945   40,00AM
0860746948000112000100004022500000849          TAMUZ CORRETORA DE SEGUROS S/S250820162708201627082016V         Novo (previa)                  GUSTAVO ALVES DA SILVANOW6534     9BWLB05U5CP197607              MANAUS6905473400000100580082   40,00AM
0860746948000112000100004022550000853             PROSEG ADM COR SRGS LTDA ME250820162708201627082016V             Renovacao           CELIA CRISTINA DA SILVA MOURANOZ0414     93YLSR7RHCJ196546              MANAUS6908459800000100110523   40,00AM
0860746948000112000100004022610000849            J.C.NETO COR.E ADM.SEGS LTDA260820162908201630082016V             Renovacao          MARIA JUCINEILE DA SILVA ABREUJHF8738     9BGXL75G08C710269              MANAUS6907628000000100354945   40,00AM
0860746948000112000100004022640000849          A R MENEZES JUNIOR COR DE SEGS260820162908201630082016V         Novo (previa)                  RAFAEL BALBY ALBERTINOOAN1895     9BRBD48E7C2559096              MANAUS6909001000000100116670   40,00AM
0860746948000112000100004022690000849            J.C.NETO COR.E ADM.SEGS LTDA290820163008201630082016V          Substituicao                 ENEIAS FERREIRA FURTADOPHI6000     988611152GK022313              MANAUS6906008500000100354945   40,00AM
0860746948000112000100004022790000849            J.C.NETO COR.E ADM.SEGS LTDA310820163108201631082016V         Novo (previa)                 MANASSES DE LIMA CASTROPHH8583     3HGRM6870GG500095              MANAUS6905700200000100354945   40,00AM
0860746948000112000100003800180000842          PONTUAL UNIVERSO CORRETORA DE 240820162608201626082016V         Novo (previa)                    SINVAL NUNES FEITOSAQDT0105     8AGSU1920GR154240   CANAA DOS CARAJAS6853700000000100579459   40,00AM
0860746948000112000100003900450000841          MARIO R CARVALHO COR. ADM SEG 250820162608201626082016V         Novo (previa)                 RAIMUNDO NONATO MOREIRAOBV5216     9BG138XP0BC469966               BELEM6606023000000100408140   40,00AM
0860746948000112000100004022290000849          ROSAN E NUNES COR DE SEGS LTDA220820162308201623082016V         Novo (previa)     MARQUES E OLIVEIRA D D M PECAS LTDAPHG7958     94DVDUD40FJ788690              MANAUS6908800000001020185669   40,00AM
0860746948000112000100004022400000854           J S COR.E ADM.DE SEGUROS LTDA230820162408201625082016V         Novo (previa)                WAGNER CORREA DOS SANTOSJXQ4472     9BG148EK0EC413716              MANAUS6906346000000100099848   40,00AM
0860746948000112000100004022410000840          MONAZITA SERV ADM E CORR DE SE230820162408201625082016V             Renovacao       PETROLEO BRASILEIRO S/A PETROBRASEBB8295     9adf140267s241304              MANAUS6907500500000100421995   40,00AM
0860746948000112000100004022460000849          LESLEY ADM.COR.DE SEGS S/C LTD240820162508201626082016V         Novo (previa)                  ANTONIASOUSA DE ARAUJOPHC7993     8AJFY29GXF8582888              MANAUS6908830100000100319252   40,00AM
0860746948000112000100004021830000849          ZONA FRANCA DAS AMERICAS-ASSES230820162508201626082016V         Novo (previa)              KLEVERSON FERREIRA SANTANAOAG5288     8AFUZZFHCDJ038927              MANAUS6905700200000100364789   40,00AM
0860746948000112000100004027120000840          ABBA CORRETORA DE SEGUROS LTDA250820162808201630082016V         Novo (previa)          MARCIO RICELLE BASTOS FERREIRAOAK9727     9BG148LP0DC423165              MANAUS6904102500000100706990   40,00AM
0860746948000112000100004021760000849           ABG CORR DE SEGS DE VIDA LTDA230820162408201625082016V         Novo (previa)             WAITE KLEBER PROCOPIO VIANANOV6546     9BD17164LB5693250              MANAUS6906501000001020341458   40,00AM
0860746948000112000100004022430000849          ROSAN E NUNES COR DE SEGS LTDA230820162408201625082016V         Novo (previa)        MARIA ANGELITA CARVALHO DA SILVAJXS8691     9BWDB05U6CT167365              MANAUS6908917000001020185669   40,00AM
0860746948000112000100004026120000840              TAKEDA COR.DE SEGS.SC LTDA230820162408201625082016V         Novo (previa)        L K COM DE COMP ELETRONICOS LTDAOAH2027     93HGM2640DZ105713              MANAUS6902840400000100338737   40,00AM
0860746948000112000100003808270000837          BETRIA CORRETORA DE SEGUROS LT130820161508201615082016V         Novo (previa)                 DAMIAO VIEIRA DE MACEDOOTX6844     8AJFY29G4E8561730         BREU BRANCO6848800000000100544396   40,00AM
0860746948000112000100003800160000835            LIFE MOTORS ADMR E CORRETORA170820161808201619082016V         Novo (previa)                   ERICO DA SILVA ARAUJONNE8052     9533782U5AR050912         PARAUAPEBAS6851500000000100625221   40,00AM
0860746948000112000100003808290000838          I P LIMA CORR DE SEGS LTDA - E160820161808201618082016V                Outros              MANOEL ANDRADE DE OLIVEIRANXQ3036     9bd27804md7553840              MARABA6851430000001020194285   40,00AM
0860746948000112000100003809140000010          MAE DO RIO ADM.E COR.DE SEGS.L190820162408201624082016V         Novo (previa)           MARIA DO CARMO XAVIER MIRANDAPHF8261     8AJFY29G6F8585920            ITAITUBA6818135000000100320897   40,00AM
0860746948000112000100003809100000010          MAE DO RIO ADM.E COR.DE SEGS.L190820162408201624082016V         Novo (previa)         ANNY COMERCIO VAREJISTA LTDA MEQDM9772     9BG148MK0FC407951            ITAITUBA6818007000000100320897   40,00AM
0860746948000112000100003801780000852                IG SEG CORR SGRS LTDA ME200820162608201626082016V         Novo (previa)                  MARTA DE REZENDE BUENOOHT0800     93XPNK740CCB83181              TUCUMA6838500000001020202881   40,00AM
0860746948000112000100003801250000851          UNIVERSO CORRETORA DE SEGS LTD250820162708201627082016V         Novo (previa)                 POLIANA SANTOS SANTIAGOQKH8890     8ajha8cd4g2573090  SAO FELIX DO XINGU6838000000000100169684   40,00AM
0860746948000112000100003801850000841          UNIVERSO CORRETORA DE SEGS LTD250820162708201627082016V             Renovacao              JORGIANO ALVES DE OLIVEIRAQEY7210     93XHYKB8THCG22482  SAO FELIX DO XINGU6838000000000100169684   40,00AM
0860746948000112000100003801870000851          UNIVERSO CORRETORA DE SEGS LTD260820162708201627082016V         Novo (previa)          SUELI DO SOCORRO LIMA PRUDENTEQDK7466     9BD11818MG1328002  SAO FELIX DO XINGU6838000000000100169684   40,00AM
0860746948000112000100003801950000851          UNIVERSO CORRETORA DE SEGS LTD250820162908201631082016V         Novo (previa)        OLICIO CASSIMIRO DA SILVA JUNIOROBY6346     9BG138SP0BC448689  SAO FELIX DO XINGU6838000000000100169684   40,00AM
0860746948000112000100003801290000841          AGIL CORRETORA DE SEGUROS LTDA290820163008201630082016V         Novo (previa)                 ALTAMIRO LINO DE ARAUJONEJ9243     wv1dd42h2da031398              TUCUMA6838500000001020134835   40,00AM
0860746948000112000100003801330000851          UNIVERSO CORRETORA DE SEGS LTD300820163108201631082016V         Novo (previa)             GERILENE CRISTINA DAS NEVESNKE8669     8AGSN19908R169054              TUCUMA6838500000000100169684   40,00AM
0860746948000112000100003801320000851          UNIVERSO CORRETORA DE SEGS LTD300820163108201631082016V                Outros     ELE ELA CONFECCOES RC MIRANDA E CIAOFK3935     9BD197173D3012276              TUCUMA6838500000000100169684   40,00AM
0860746948000112000100003806330000835          MELHOR OPCAO ADM E CORRR DE SE130820161708201617082016V         Novo (previa)                   ALEXON PINHEIRO ROCHAOTK9565     WV1DB42H1EA037670            REDENCAO6855414200001020144512   40,00AM
0860746948000112000100003806390000835          RIBEIRO & AIRES COR DE SEGS LT190820162208201622082016V         Novo (previa)              MARANATHA TRANSPORTES LTDAKCW6904     9BWYTAHT2TDB58568CONCEICAO DO ARAGUAI6854000000000100646474   40,00AM
0860746948000112000100003806380000835          RIBEIRO & AIRES COR DE SEGS LT190820162208201622082016V         Novo (previa)              MARANATHA TRANSPORTES LTDAMWB6536     9BW3782T86R625979CONCEICAO DO ARAGUAI6854000000000100646474   40,00AM
0860746948000112000100003806400000841          MARCORR COR E ADM DE SEGS LTDA210820162608201626082016V         Novo (previa)                       NELIO LIMA SOARESOFO2310     93XJRKB8TCCB42475            REDENCAO6855223000000100374130   40,00AM
0860746948000112000100003806440000835          G W S  CORRETORA DE SEGUROS LT250820162608201626082016V                Outros                     JEFFERSON KEHRNNAKDORB9315     9A9B84020D2DF5071BOM JESUS DO TOCANTI6852500000000100237361   40,00AM
0860746948000112000100003806450000835          G W S  CORRETORA DE SEGUROS LT250820162608201627082016V         Novo (previa)                     JEFFERSON KEHRNNAKDORB9320     9A9D60020D2DF5049BOM JESUS DO TOCANTI6852500000000100237361   40,00AM
0860746948000112000100003806430000851          MARCORR COR E ADM DE SEGS LTDA250820162608201626082016V         Novo (previa)               FABIANA OLIVEIRA FERREIRAOTY9300     9BG148LP0EC402300            REDENCAO6855027500000100374130   40,00AM
0860746948000112000100003806460000835          G W S  CORRETORA DE SEGUROS LT250820162608201626082016V         Novo (previa)                     JEFFERSON KEHRNNAKDORB9334     9A9B84020D2DF5070BOM JESUS DO TOCANTI6852500000000100237361   40,00AM
0860746948000112000100003808360000851          UNIVERSO CORRETORA DE SEGS LTD240820162908201630082016V         Novo (previa)               EVANGELY COSTA DOS SANTOSOBX6060     9BGSU19F0CC141163            REDENCAO6855000000000100169684   40,00AM
0860746948000112000100003806470000841          MARCORR COR E ADM DE SEGS LTDA250820162908201630082016V                Outros                     CONSTRUTORA MF LTDAOTY2180     9BG148FH0DC498560            REDENCAO6855223000000100374130   40,00AM
0860746948000112000100003806500000839           HSG CORRETORA DE SEGUROS LTDA300820163108201631082016V                Outros     RIO GRANDE ARMAZENS GERAIS LTDA EPPNRZ2680     9BVAG40D4EE819492 SANTANA DO ARAGUAIA6856000000001020049790   40,00AM
0860746948000112000100003806510000839           HSG CORRETORA DE SEGUROS LTDA300820163108201631082016V                Outros     RIO GRANDE ARMAZENS GERAIS LTDA EPPOOM4806     9EP021120E1006025 SANTANA DO ARAGUAIA6856000000001020049790   40,00AM
0860746948000112000100003806520000839           HSG CORRETORA DE SEGUROS LTDA300820163108201631082016V                Outros     RIO GRANDE ARMAZENS GERAIS LTDA EPPOOM4807     9EP021120E1006026 SANTANA DO ARAGUAIA6856000000001020049790   40,00AM
0860746948000112000100003806530000839           HSG CORRETORA DE SEGUROS LTDA300820163108201631082016V                Outros     RIO GRANDE ARMAZENS GERAIS LTDA EPPNRZ1303     9BVAG40D0EE810865 SANTANA DO ARAGUAIA6856000000001020049790   40,00AM
0860746948000112000100003806560000839           HSG CORRETORA DE SEGUROS LTDA300820163108201631082016V                Outros    RIO GRANDE ARMAZENS GERAIS LTDA- EPPAKO0062     9bsr4x200a3651431 SANTANA DO ARAGUAIA6856000000001020049790   40,00AM
0860746948000112000100003804510000851          MARCORR COR E ADM DE SEGS LTDA190820162308201623082016V             Renovacao        RAIMUNDO NONATO ALMEIDA OLIVEIRANSQ0733     9BWAA05W5BP091779            XINGUARA6855501100000100374130   40,00AM
0860746948000112000100003804520000851          MARCORR COR E ADM DE SEGS LTDA190820162308201623082016V         Novo (previa)                     ANGELO ROCELO GALONFIO2759     8AJFY29G9F8584101            XINGUARA6855501100000100374130   40,00AM
0860746948000112000100003804580000851          UNIVERSO CORRETORA DE SEGS LTD230820162508201626082016V             Renovacao              COMISSAO PASTORAL DA TERRAOFU9088     93xjnkb8tdcc54529            XINGUARA6855534000000100169684   40,00AM
0860746948000112000100003804590000851          MARCORR COR E ADM DE SEGS LTDA240820162508201626082016V         Novo (previa)                ANDERSON VIEIRA DA SILVAPQD1381     9bhbh41dbgp558365            XINGUARA6855501100000100374130   40,00AM
0860746948000112000100003804570000842                                   GOMES220820162608201626082016V         Novo (previa)                   ADISON ALVES DA SILVAMXC9688     9BG148LHODC427221            XINGUARA6855535000000100645532   40,00AM
0860746948000112000100003804620000624          SEGUROCAR ADM.CORR.SEGUROS LTD260820162708201627082016V             Renovacao TRIANGULO EMPREENDIMENTOS AGROPECUARIOSMWS1085     8AJFR22G1B4551800            XINGUARA6855597000000100349801   40,00AM
0860746948000112000100003804680000841          CVK CORRETORA E ADM SEGUROS LT300820163108201631082016V         Novo (previa)                         SEBASTIAO ALVESQDF0747     9BG148RA0GC403739            XINGUARA6855590300000100674702   40,00AM
0860746948000112000100003804660000851          MARCORR COR E ADM DE SEGS LTDA310820163108201631082016V         Novo (previa)               BORGES E CARDOSO LTDA EPPQDA6249     9531m62p5fr504971            XINGUARA6855501100000100374130   40,00AM
0860746948000112000100004027040000280          BRQUALY ADM E CORR DE SEGUROS 220820162308201623082016V                Outros                 NATANAEL ROCHA MONTEIROQLO4543     9BD26512MG9062839             SANTANA6892725700000100434442   40,00AM
0860746948000112000100004027080000841          MAIS BRASIL CORR DE SEGS LTDA-220820162308201623082016V                Outros                    UARA CRISTINA VANCANNEV5951     WV1DB42H5CA077926              MACAPA6890319700001020198671   40,00AM
0860746948000112000100004027430000870           TIROL COR SEG ADM REPRES LTDA250820162608201626082016V         Novo (previa)  MARCUS VINICIUS VASCONCELOS NASCIMENTOQLN6576     9BWJB45U4GP043930              MACAPA6890341900000100528323   40,00AM
0860746948000112000100003900010000854                JGS MAUAN CORR DE SEG SA170820161808201618082016V                Outros           SUELY MARIA ARAGAO D IPPOLITOQDD6536     wauayj8v6f1133705               BELEM6603364000000100067601   40,00AM
0860746948000112000100003900050000850               JUCA CORR DE SEGS SC LTDA190820162208201622082016V         Novo (previa)              ARTUR PALHETA SILVEIRA EPPNSP4282     93HGE6850AZ207785               BELEM6604003600000100285684   40,00AM
0860746948000112000100004027090000850          ORCY ALVES CORRETORA DE SEGURO190820162408201624082016V         Novo (previa)      RAIZA DE NAZARE ASSUNCAO MOCAMBIRANSY6562     9BD13531CB2176246          ANANINDEUA6703000700001020269994   40,00AM
0860746948000112000100003807870000850          BRONI CORRETORA DE SEGUROS LTD260820162908201630082016V         Novo (previa)              SIDNEY SERGINO DE OLIVEIRAOTK5181     9BRBD48E1D2603952               BELEM6608511000000100419621   40,00AM
0860746948000112000100003807850000017          NIPPON HASEGAWA COR.DE SEGS.S/260820162908201630082016V         Novo (previa)                KASSIA MORAES DE ALMEIDAOPM6450     9BD195152D0467396               BELEM6667038000000100504815   40,00AM
0860746948000112000100003806360000643          SOUTHALLIANCE & RISK SOLUTION 170820161808201619082016V                Outros       POLO LOGISTICA E TRANSPORTES LTDAQKF8874     9bd57814ugb110605ELDORADO DOS CARAJAS6852400000000100580040   40,00AM
0860746948000112000100003805880000850          DAROCHA CORRETORA DE SEGUROS L180820162208201622082016V                Outros               ANTONIO MONTEIRO FERREIRAOTZ4185     9BWAA45U1FP025662               BELEM6665225700001020163851   40,00AM
0860746948000112000100003805080000280          BRQUALY ADM E CORR DE SEGUROS 170820161808201618082016V                Outros   SAM OLEOS E GORDURAS DA AMAZONIA LTDAQDQ1770     9bvag20c0ee828027SANTA ISABEL DO PARA6879000000000100434442   40,00AM
0860746948000112000100003805810000975           HPE CORRETORA DE SEGUROS LTDA170820161808201618082016V                Outros                 ANTONIO CASTRO MARTINEZOTF0674     93xhykb8tfce89641               BELEM6691014000001020076053   40,00AM
0860746948000112000100003805850000850          BRONI CORRETORA DE SEGUROS LTD180820162208201622082016V                Outros            ANTONIO CARLOS SOUZA VALENTEOFO8794     9BRBD48E4E2615675               BELEM6682500000000100419621   40,00AM
0860746948000112000100003805870000017          DAROCHA CORRETORA DE SEGUROS L180820162208201622082016V                Outros     DIMAR SEBASTIANA FERREIRA GONCALVESJUI1173     9BFZF10B148182043               BELEM6603069000001020163851   40,00AM
0860746948000112000100003900300000841          ASH CORR E ADM DE SEGUROS S/S 190820162208201622082016V         Novo (previa)            VITOR LUIZ DA SILVA BOARETTOQDA4745     9BRBD3HE0G0271903               BELEM6605509000000100608092   40,00AM
0860746948000112000100003900320000866             PALLADIUM CORR DE SEGS LTDA200820162208201623082016V         Novo (previa)        LUCIO FLAVIO NOBREGA DE OLIVEIRAOTT4762     KNAFZ414BD5039062               BELEM6664500100001020134410   40,00AM
0860746948000112000100003900380000850               JUCA CORR DE SEGS SC LTDA230820162408201625082016V                Outros                  MARCELO PANTOJA RABELOJVV1307     93XPNK7408C736479               BELEM6663316500000100285684   40,00AM
0860746948000112000100003900420000866          EOLICA CORRETORA DE SEGS LTDA 240820162508201626082016V                Outros                MARCELO BRITO DOS SANTOSNSY0008     94DVCGD40BJ596398               BELEM6691000000001020242590   40,00AM
0860746948000112000100003900480000841             PREVIAUTO CORR DE SEGS LTDA260820162708201627082016V         Novo (previa)                   JOSE FRANCISCO LAREDOOTZ4518     8ajyy59g9f6526561          ANANINDEUA6712037000000100452734   40,00AM
0860746948000112000100003900490000911          LT ADM E CORRETORA DE SEGS LTD260820162708201627082016V         Novo (previa)             LUIZ ROBERTO DE PADUA FILHOQEJ5312     9bhbg51dagp589404               BELEM6605000000001020145748   40,00AM
0860746948000112000100003900500000851          UNCAO CORRETORA DE SEGUROS LTD260820162908201630082016V         Novo (previa)                    REJANE XAVIER SOARESOLL0605     9bhbh41dbep141868          ANANINDEUA6701300000000100555053   40,00AM
0860746948000112000100003900460000841          DAROCHA CORRETORA DE SEGUROS L250820162908201630082016V         Novo (previa)           MAURO ELISSON LOBO DE QUEIROZQDI6389     9BWAA45U4FP097651               BELEM6681348000001020163851   40,00AM
0860746948000112000100003900520000850          BRONI CORRETORA DE SEGUROS LTD300820163108201631082016V         Novo (previa)      CASSANDRA CRISSI DA SILVA MONTEIROOFO8794     9BRBD48E4E2615675               BELEM6681203000000100419621   40,00AM
0860746948000112000100003611270000657           HSBC CORRETORA DE SEGUROS S A160820161808201618082016V                Outros              ALAN ALBERTO MACIEL SOARESONH0788     93xxtga2wfcE18050            SANTAREM6804114200000100063860   40,00AM
0860746948000112000100003611280000645                COLIGACAO COR DE SEGUROS170820161808201618082016V                Outros              WARLISSON PEREIRA DOS REISEWK8008     8ajyZ59g883024643            SANTAREM6801062000000100418030   40,00AM
0860746948000112000100003611290000534           HSBC CORRETORA DE SEGUROS S A190820162408201624082016V         Novo (previa)     WIRLAND ANTONIO SILVEIRA DOS SANTOSOFO3925     3FAKP4EK5CM209375            SANTAREM6801018000000100063860   40,00AM
0860746948000112000100003013590000966          FERNANDES &amp; BARROS COR. DE190820162408201624082016V         Novo (previa)                  ALBERTO VILACA DA CRUZNBX8258     8AJFZ29G9B6144821             TUCURUI6845676000000100646661   40,00AM
0860746948000112000100004027110000940          SEGURALTA OESTE COR DE SEGS LT200820162508201626082016V                Outros      JOSE VALDEMAR R SIQUEIRA OS SANTOSQDB1626     8AJYY59GXF6532806             TUCURUI6845945000000100361011   40,00AM
0860746948000112000100004023060000840           A DE M FEITOZA - EIRELI - EPP150820161608201617082016V         Novo (previa)                  JULIO CESAR DINIZ DIASNNB4543     9BWAB01J5B4000311              MANAUS6903300000001020289421   40,00AM
0860746948000112000100004023140000853             PROSEG ADM COR SRGS LTDA ME160820161708201617082016V         Novo (previa)                     JULIO RENO DE SOUSANOL2385     93YLM241H9J251732              MANAUS6903307000000100110523   40,00AM
0860746948000112000100004023150000840                   ARIPUANA COR SEG LTDA160820161708201619082016V             Renovacao                         LORD HOTEL LTDAOAE8257     9BRBL42E0C4710635              MANAUS6902021000000100363600   40,00AM
0860746948000112000100004023100000849          G G MOURA CORRETORA DE SEGUROS160820161708201617082016V         Novo (previa)         ENEAS VICTOR GONCALVES DA COSTAOAG7873     8AD4D5FMYEG012714              MANAUS6903704300000100319783   40,00AM
0860746948000112000100004022150000840          LESLEY ADM.COR.DE SEGS S/C LTD170820161808201619082016V          Substituicao                     FRANKLIN ALVES LINSNOY4163     9BD118181B1153280              MANAUS6907502000000100319252   40,00AM
0860746948000112000100004025010000866          SILVICAR ADM E COR DE SEGS EIR170820161808201619082016V                Outros                 MERCIA BEZERRA DE SOUSAOAJ2131     9BD119707F1123008              MANAUS6902507000001020206046   40,00AM
0860746948000112000100004021550000849          G G MOURA CORRETORA DE SEGUROS180820161908201619082016V                Outros               ANA LUCIA DA SILVA SANTOSOAK0762     9bgks48b0eg315542              MANAUS6903559300000100319783   40,00AM
0860746948000112000100004025060000849          ROSAN E NUNES COR DE SEGS LTDA180820161908201619082016V         Novo (previa)             CYBELLE TRINDADE CARDOSO MEPHA9187     9bwaa45u6fp055904              MANAUS6905700200001020185669   40,00AM
0860746948000112000100004025130000840                     JACENIRA LELES DIAS180820161908201619082016V             Renovacao    A MACIEL DO NASCIMENTO E CIA LTDA MEPHC4118     95pju81dbgb028597              MANAUS6905844800001020046707   40,00AM
0860746948000112000100004025080000849          G G MOURA CORRETORA DE SEGUROS180820161908201619082016V                Outros                  JOAO BOSCO PINTO ROCHAPHB2295     9brbd3he0f0247289              MANAUS6903700000000100319783   40,00AM
0860746948000112000100004022220000849            J.C.NETO COR.E ADM.SEGS LTDA190820162208201622082016V          Substituicao                   REGINA JUREMA BEZERRAPHJ3927     9bwda45uxgt042157              MANAUS6909815400000100354945   40,00AM
0860746948000112000100004026020000849          G G MOURA CORRETORA DE SEGUROS220820162308201623082016V                Outros               FRANCISCO GOES DE FREITASOAI8586     9BD27804MC7503288              MANAUS6909076400000100319783   40,00AM
0860746948000112000100004025180000840          TAMUZ CORRETORA DE SEGUROS S/S190820162308201623082016V         Novo (previa)                  DANIEL VAZ DE SA RORIZNOQ8022     9BD197132D3065505              MANAUS6905311000000100580082   40,00AM
0860746948000112000100004025120000840          TM ALBUQUERQUE COR DE SEGS LTD220820162508201626082016V          Substituicao                   ROBERTO SA DOS SANTOSPHC6258     9BFZB65H2F8550321              MANAUS6906002000001020088361   40,00AM
0860746948000112000100003013600000849            J.C.NETO COR.E ADM.SEGS LTDA220820162508201626082016V         Novo (previa)           EDNEY JORGE CARDOSO DE ARAUJOPHC4026     9BD19515ZF0674141              MANAUS6902023000000100354945   40,00AM
0860746948000112000100004025380000849          LESLEY ADM.COR.DE SEGS S/C LTD240820162508201626082016V      Reducao franquia            ALESSANDRA L R DO NASCIMENTOOAI5683     93ZC70C01D8451974              MANAUS6904360000000100319252   40,00AM
0860746948000112000100004025420000849          LESLEY ADM.COR.DE SEGS S/C LTD240820162508201626082016V             Renovacao            MARIA DANIELE FEIJAO TAVARESNPB3838     8AP196271E4046891              MANAUS6905722000000100319252   40,00AM
0860746948000112000100004025430000849          ATUANTE CENTER COR.DE SEGS.E G240820162508201626082016V             Renovacao            ARY RENATO OLIVEIRA DA SILVAOXM6332     94DVCGD40EJ859776              MANAUS6904478100000100198528   40,00AM
0860746948000112000100004003550000840          A R MENEZES JUNIOR COR DE SEGS210820162608201626082016V         Novo (previa)          EISTEIN REBOUCAS TOME PRACIANOOTL3438     9BWKB05U3EP110155              MANAUS6905858100000100116670   40,00AM
0860746948000112000100004013600000840          VIA EGIDE COR.ADM.E CONSULT.DE240820162808201631082016V         Novo (previa)                         A DO N ROCHA MENOW8473     3CZRE1830BG500961              MANAUS6905883700000100614645   40,00AM
0860746948000112000100004027160000849          MMA CORRETORA DE SEGUROS LTDA 290820163008201631082016V         Novo (previa)           ALLISSON MONTANHA DE OLIVEIRAOAI8813     8AD4C5FMYEG006102              MANAUS6904542000001020171420   40,00AM
0860746948000112000100004027170000849          G G MOURA CORRETORA DE SEGUROS290820163008201631082016V                Outros              ANTONIO DE PADUA GONCALVESOAE8194     9BWMF07X2EP000444              MANAUS6908315000000100319783   40,00AM
0860746948000112000100004027180000849          ROSAN E NUNES COR DE SEGS LTDA300820163108201631082016V         Novo (previa)            MARIA AMAVIA DE SOUZA CAMPOSOAH2173     9BFZF54P2E8495052              MANAUS6904001000001020185669   40,00AM
0860746948000112000100004027210000849          CONSULCOR ADM CORT SEGS  IMOVE310820163108201631082016V                Outros                   ANDRE DA CUNHA BARROSNOW6834     93YHSR2LACJ105597              MANAUS6909500000000100398250   40,00AM
0860746948000112000100004027220000849            J.C.NETO COR.E ADM.SEGS LTDA310820163108201631082016V         Novo (previa)      JC TRANSPORTES E NAVEGACOE LTDA MEOAK0161     9BGKS48L0FG183499              MANAUS6905011000000100354945   40,00AM
0860746948000112000100004021520000657           HSBC CORRETORA DE SEGUROS S A180820161908201619082016V         Novo (previa)             ANTONIO MARCOS LIMA DA CRUZOAI8592     9bfzb55h4e8909922              MANAUS6906503200000100063860   40,00AM
0860746948000112000100004021510000849            J.C.NETO COR.E ADM.SEGS LTDA180820161908201619082016V         Novo (previa)                      JANAINA COSTA LIMAOAI6563     9bhbh41daep119488              MANAUS6908270000000100354945   40,00AM
0860746948000112000100004021590000849          ROSAN E NUNES COR DE SEGS LTDA190820162208201622082016V         Novo (previa)                ARTEMIZA DE SOUZA CASTROPHC0273     9BGKT69L0FG284654              MANAUS6902915000001020185669   40,00AM
0860746948000112000100004021640000010          G G MOURA - CORRETORA DE SEGUR200820162208201623082016V         Novo (previa)             NAVEGACAO ANA CAROLINA LTDANOJ3519     9BM9790488B611387              MANAUS6903535800000100319783   40,00AM
0860746948000112000100004021650000972          RED-SEG CORRETORA DE SEGUROS L200820162208201623082016V         Novo (previa)                  OSVALDO HIROMI KIKUCHIOAG6636     93HFB2680CZ216182              MANAUS6906002000000100216054   40,00AM
0860746948000112000100004021780000849          G G MOURA CORRETORA DE SEGUROS240820162508201626082016V         Novo (previa)              BRENA LUIZE CUNHA FERREIRAOAM9672     93HGE6840EZ122644              MANAUS6906082000000100319783   40,00AM
0860746948000112000100004021790000840          A R MENEZES JUNIOR COR DE SEGS240820162508201626082016V         Novo (previa)                 SACADA PUBLICIDADE LTDANOK4781     WV1DB42H2EA007612              MANAUS6905777000000100116670   40,00AM
0860746948000112000100004021860000849          ROSAN E NUNES COR DE SEGS LTDA250820162608201626082016V         Novo (previa)                    KENNY NASCIMENTO OSTOAF3411     9BD197163F3210883              MANAUS6909778800001020185669   40,00AM
0860746948000112000100004021880000840          GAD CORRETORA E ADM DE SEGS LT250820162608201626082016V         Novo (previa)                MARCIANE PEREIRA DE LIMANOP3546     9BG138HF0BC407098              MANAUS6907331000001020192436   40,00AM
0860746948000112000100004021890000849          ROSAN E NUNES COR DE SEGS LTDA250820162608201626082016V         Novo (previa)              PAULO ANDRESON DANTAS REISOAE0011     9BFZD55P8FB757522              MANAUS6908521000001020185669   40,00AM
0860746948000112000100004021960000849          TAMUZ CORRETORA DE SEGUROS S/S270820162908201630082016V         Novo (previa)         ROSANGELA SANTOS PINHEIRO LOPESPHG1881     knabx514agt110840              MANAUS6902504000000100580082   40,00AM
0860746948000112000100004021990000840          PARVI CORRETORA DE SEGUROS LTD290820163008201631082016V             Renovacao               EMERSON JOSE MORAES PINTOOAI8944     9BRB29BT6D2011943              MANAUS6903714400000100538329   40,00AM
0860746948000112000100004021930000840          PAULO OMENA ADM COR SEGS LTDA 260820163108201631082016V         Novo (previa)       ADRIANE CRISTINE CABRAL MAGALHAESPHZ0608     8AJZX62G7E5007245              MANAUS6905302000000100170704   40,00AM
0860746948000112000100002726940000850           ZUITH AQUINO COR DE SEGS LTDA190820162008201622082016V             Renovacao                    JULIANA MOURAO PEDROOTL9546     9bfzb55pxf8961709           BARCARENA6844800000000100634450   40,00AM
0860746948000112000100002726950000911          R J FONSECA CORRET DE SEGS LTD230820162608201626082016V         Novo (previa)           ANTONIO FLAVIO ALVES DA PENHAPUX7610     9BGKS69L0FG188698           BARCARENA6844500000001020209142   40,00AM
0860746948000112000100002726980000841          ASIA MENOR COR DE SEGUROS LTDA300820163108201631082016V                Outros             ANDRE LUIZ DA SILVA LACERDAGEX4420     8AJBA3FSXH0227724          ABAETETUBA6844000000000100647977   40,00AM
0860746948000112000100003802350000850          BGSB CORRETORA DE SEGUROS LTDA200820162508201626082016V         Novo (previa)                J MARTINS DE HOLANDA EPPNSS1242     9BM695302AB698803             IRITUIA6865500000000100560171   40,00AM
0860746948000112000100003802360000841          MRFLSGB 10 CORRETORA SEGUROS L240820162508201626082016V                Outros                 LINDOMAR RESENDE SOARESNEX6593     8AJYZ59G0A3042754         PARAGOMINAS6862597000000100667862   40,00AM
0860746948000112000100003802390000617           COELHO ADM E COR DE SEGS LTDA250820162708201627082016V          Substituicao                 JOSE LUIZ DO NASCIMENTOOBZ5766     8AJFZ29G1B6135756         PARAGOMINAS6862610000000100604518   40,00AM
0860746948000112000100003802400000558           BRADESCOR COR DE SEGUROS LTDA260820162708201627082016V         Novo (previa)         PEDRO HENRIQUE MACHADO DA COSTAOTT8857     9BRBDWHE4F0230464         PARAGOMINAS6862597000000100058777   40,00AM
0860746948000112000100003802340000850          BGSB CORRETORA DE SEGUROS LTDA180820162908201630082016V         Novo (previa)                   FRANCISCO PIRES PINTOQDE0008     8AJFY29G3F8590041             IRITUIA6865500000000100560171   40,00AM
0860746948000112000100003802420000847          BGSB CORRETORA DE SEGUROS LTDA290820163008201630082016V         Novo (previa)                 JOSE DOMICIANO DE SOUSAOFJ1746     9BWAA05U6CT063979         ULIANOPOLIS6863200000000100560171   40,00AM
0860746948000112000100004020540000932           LINCE CORR DE SEGUROS SS LTDA150820161608201616082016V          Substituicao      SILVA E RODRIGUES FRIGORIFICO LTDANOX9691     9BVAG40D1EE814229              MANAUS6909377000000100058874   40,00AM
0860746948000112000100004020700000849          CONSULCOR ADM CORT SEGS  IMOVE170820161808201619082016V         Novo (previa)                 CHIRLENE DE SOUZA CUNHAOXM7327     9BWJB45U2FP117456              MANAUS6901555000000100398250   40,00AM
0860746948000112000100004020690000840             SMCS CORRETORA DE SEGS LTDA170820161808201619082016V             Renovacao                 ADELSON DE JESUS COELHOPHJ3136     9BWJL45U0HP013645              MANAUS6903564500000100677281   40,00AM
0860746948000112000100004020680000849          CONSULCOR ADM CORT SEGS  IMOVE170820161808201619082016V         Novo (previa)        DIOGENES TAVARES DOS SANTOS NETONOY6291     9BHBG51DBEP248762              MANAUS6904101000000100398250   40,00AM
0860746948000112000100004020720000849          G G MOURA CORRETORA DE SEGUROS180820161908201619082016V                Outros                 ELISSON CARVALHO FRANCOOAB8232     8AP372171E6071871              MANAUS6903827900000100319783   40,00AM
0860746948000112000100004020740000849          JAMF CORRETORA DE SEGUROS LTDA150820161908201619082016V         Novo (previa)                 ALBERTO GIMENEZ NETO MENOR1194     93hfa6560bz118796              MANAUS6905029000000100409596   40,00AM
0860746948000112000100004020780000849          ZONA FRANCA DAS AMERICAS-ASSES180820161908201623082016V         Novo (previa)                    N HEITSU SAKAMATO MENOY1856     9bm695302ab727987              MANAUS6904906000000100364789   40,00AM
0860746948000112000100004020970000849          ZONA FRANCA DAS AMERICAS-ASSES200820162208201623082016V          Substituicao       FREUD VANDEMBERG PAIVA DOS SANTOSOAE0801     9BGKF69B0FG163723              MANAUS6909000100000100364789   40,00AM
0860746948000112000100004021000000840          FROESPRESS CORRETORA DE SEGS L220820162308201623082016V         Novo (previa)                 ROSANGELA BRANDAO RAMOSNOV0071     9BWDA45UXET183002              MANAUS6909776000000100673331   40,00AM
0860746948000112000100004020830000840          ZONA FRANCA DAS AMERICAS-ASSES200820162508201626082016V             Renovacao        MARIA DULCELINA FROTA DE MENEZESNPB2611     8AJFY29G5E8564541              MANAUS6905509000000100364789   40,00AM
0860746948000112000100004020860000849          ZONA FRANCA DAS AMERICAS-ASSES200820162508201626082016V                Outros               GERALDO PIRES DE OLIVEIRAPHA6332     8ajfy29g7f8568656              MANAUS6907800000000100364789   40,00AM
0860746948000112000100004026150000969          MINUTO CORRETORA DE SEGUROS S 240820162508201626082016V         Novo (previa)         RONILSON PEREIRA DE VASCONCELOSOAF9915     JMYXTCW4WDU000555              MANAUS6909522600000100230758   40,00AM
0860746948000112000100004026200000975           HPE CORRETORA DE SEGUROS LTDA250820162608201626082016V                Outros       ILDEANE ARAUJO CANTUARIA DOS REISPHG3874     93XHYKB8TGCF18423              MANAUS6904582000001020076053   40,00AM
0860746948000112000100004026160000975           HPE CORRETORA DE SEGUROS LTDA240820162608201626082016V         Novo (previa)                    J ONO CONFEITARIA MEPHG7667     93XHYKB8TGCF15543              MANAUS6909700000001020076053   40,00AM
0860746948000112000100004026250000849          G G MOURA CORRETORA DE SEGUROS260820162708201627082016V                Outros                    RAFAEL MOYSES AZULAYPHB8137     JSAJTE54VF4100446              MANAUS6903705700000100319783   40,00AM
0860746948000112000100004026260000840          FROESPRESS CORRETORA DE SEGS L260820162708201627082016V         Novo (previa)           ANDRE FERREIRA DE MATOS LOPESPHF0650     9BD57824UF7964075              MANAUS6909744000000100673331   40,00AM
0860746948000112000100004026290000853             PROSEG ADM COR SRGS LTDA ME260820162708201627082016V   Exclusao de avarias                   NICLEDES GOMES CORREANOQ6697     9362MN6AYAB011994              MANAUS6904901000000100110523   40,00AM
0860746948000112000100004026300000840               HELCIO NASCIMENTO MARQUES260820162708201627082016V             Renovacao           RAIMUNDO NONATO SOUZA SAMPAIOPHC4706     9BWJB45U8FP180402              MANAUS6909905700000100669474   40,00AM
0860746948000112000100004026370000290          MERCEDES-BENZ COR DE SEGS LTDA270820162908201630082016V             RenovacaoCORE COMERCIO DE MATERIAIS DE CONSTRUCAOOAJ6841     9BM958208EB972953              MANAUS6909727900000100065803   40,00AM
0860746948000112000100004026310000558           BRADESCOR COR DE SEGUROS LTDA270820162908201630082016V             Renovacao                  DAVID COELHO DE AMORIMNOY7036     KMHDC51EBBU286654              MANAUS6900514000000100058777   40,00AM
0860746948000112000100004026350000849          SUANAM ADM DE CONS E COR DE SE270820162908201630082016V             Renovacao                ANDREIA ANTONIA FERREIRAPHF8295     988611152GK001544              MANAUS6903700000000100691992   40,00AM
0860746948000112000100004026420000840          TAMUZ CORRETORA DE SEGUROS S/S290820163008201631082016V         Novo (previa)        MARIA DO LIVRAMENTO COELHO PRATAOAK4913     9BD195163E0503034              MANAUS6909517000000100580082   40,00AM
0860746948000112000100004026440000849          JAMF CORRETORA DE SEGUROS LTDA290820163008201631082016V         Novo (previa)             ARIEL ALCANTARA DE OLIVEIRANOO8411     9BWAA45Z0E4123223              MANAUS6905879000000100409596   40,00AM
0860746948000112000100004026540000849            J.C.NETO COR.E ADM.SEGS LTDA310820163108201631082016V         Novo (previa)                     ARANY LISBOA CAMPOSOAJ6301     9BD17144LF5943922              MANAUS6905862000000100354945   40,00AM
0860746948000112000100004020450000849          G G MOURA CORRETORA DE SEGUROS130820161508201615082016V         Novo (previa)              PAULO CESAR CAMINHA E LIMAPHG9169     3HGRM6870FG501321              MANAUS6906002000000100319783   40,00AM
0860746948000112000100004020490000941          NOROESTE PAULISTA COR DE SEGS 130820161508201615082016V             Renovacao                SAMUEL NOGUEIRA DA SILVANOM2981     9BGCA80X0FB104961              MANAUS6905467200000100432334   40,00AM
0860746948000112000100004017870000849          S BORGES ALCANTARA COR.DE SEGS160820161808201618082016V         Novo (previa)                  J ISON FREIRE MORAO MEOAD5111     9BG148EK0EC452615           BOA VISTA6931352800000100577685   40,00AM
0860746948000112000100004017990000840          SABIO CORRETORA DE SEGUROS LTD180820161908201619082016V             Renovacao            HUMBERTO JACOB DE B OLIVEIRANAZ8387     8ajba3cd9g1574878           BOA VISTA6930315000000100478300   40,00AM
