0260746948000112000100004501200000850             AZUNAV CORR DE SEGUROS LTDA250220172802201728022017V         Novo (previa)                    JAIR COELHO DA SILVANEZ0223     9BFZC52P0AB895653              MACAPA6890815000000100611611   43,50AP
0260746948000112000100004404870000866          INOVE INSURANCE CORR DE SEGS L230220172402201725022017V         Novo (previa)        MARIA LEONIZIA DE ARAUJO BESERRAORC7738     WV1DD42H9EA007133              MARABA6850909000001020304250   43,50PA
0260746948000112000100004107590000853             PROSEG ADM COR SRGS LTDA ME240220172502201725022017V         Novo (previa)              MANOEL DE JESUS NUNES MELOQEM6121     9BHBG51DAHP687746               BELEM6608306000000100110523   43,50PA
0260746948000112000100004610230000840          FROESPRESS CORRETORA DE SEGS L240220172502201725022017V         Novo (previa)              VALDIVINO CARVALHO MOREIRANOP3122     94DVCGD40DJ540315              MANAUS6903839000000100673331   43,50AM
0260746948000112000100004608660000849            J.C.NETO COR.E ADM.SEGS LTDA240220172502201725022017V         Novo (previa)                       FELIPE CARLOS DONNOM8185     8AGCN48X0AR186545              MANAUS6906002000000100354945   43,50AM
0260746948000112000100004608630000841          AS ASSESSORIA E COR DE SEGS LT240220172502201725022017V         Novo (previa)THAMIRIS MAKAREM NADAF AKEL THOMAZ DE LIOXM9214     3C3AFFDR3ET279392              MANAUS6906002000000100091464   43,50AM
0260746948000112000100004607960000849          JAMF CORRETORA DE SEGUROS LTDA240220172502201725022017V         Novo (previa)                  NEILZA T DE S GOMES MEOAM1993     9BGKT69L0EG162684              MANAUS6909811000000100409596   43,50AM
0260746948000112000100004607950000849          JAMF CORRETORA DE SEGUROS LTDA240220172502201725022017V         Novo (previa)             ROBERTO ALEXANDRE M RIBEIROPHK7760     9BFZH55L3H8419785              MANAUS6909518700000100409596   43,50AM
0260746948000112000100003711860000841          NORTE CORRETORA DE SEGUROS LTD240220172502201725022017V         Novo (previa)           ANA LUCIA FERREIRA DE FREITASPHL5921     8AJFA8CB7H2000515            SANTAREM6801020000000100707368   43,50PA
0260746948000112000100004404960000841          MRFLSGB 10 CORRETORA SEGUROS L230220172502201725022017V         Novo (previa)              PAULO ROGERIO SANTOS COSTAQDK9957     9BD17122ZG7598558              MARABA6850117000000100667862   43,50PA
0260746948000112000100004404970000841          AGIL CORRETORA DE SEGUROS LTDA240220172502201725022017V         Novo (previa)                    DIOMARIO LOPES COSTAPQL8476     8AFAR23L6FJ309513              TUCUMA6838500000001020134835   43,50PA
0260746948000112000100004609320000849          A R MENEZES JUNIOR COR DE SEGS240220172502201725022017V         Novo (previa)                MARINETE BARROSO MARTINSOXM5019     8AGSU19F0FR122316              MANAUS6902300300000100116670   43,50AM
0260746948000112000100004609300000840             SMCS CORRETORA DE SEGS LTDA240220172502201725022017V         Novo (previa)                DULCIRENE BEZERRA CANTELPHG9386     9BFZH55L4F8284314              MANAUS6903355100000100677281   43,50AM
0260746948000112000100004609350000840          A.A.BRAGA JR.ADM.COR.SEGS.LTDA240220172502201725022017V         Novo (previa)            FABRINI VANUSSI AMARAL MESSANAS1357     9BG148FK0HC414905              MANAUS6905015000000100340553   43,50AM
0260746948000112000100004609340000849          CONSULCOR ADM CORT SEGS  IMOVE240220172502201725022017V         Novo (previa)              FERNANDA DOS SANTOS BARROSOAM8751     9BWDA45U9FT061278              MANAUS6903559000000100398250   43,50AM
0260746948000112000100004609310000849          ROSAN E NUNES COR DE SEGS LTDA240220172502201725022017V         Novo (previa)                     PEDRO EDUARDO FILHOPHB6479     9BGKS48L0FG226129              MANAUS6902727000001020185669   43,50AM
0260746948000112000100004609290000849            J.C.NETO COR.E ADM.SEGS LTDA240220172502201725022017V         Novo (previa)            ORLANDO DARIO GOIS DO AMARALOAI0022     WMWSV310xDT646660              MANAUS6905470000000100354945   43,50AM
0260746948000112000100004609380000849          TATIANE DA S S CORR DE SEG EPP250220172502201725022017V         Novo (previa)                   MIGUEL COUTO DA SILVANOQ0728     KMHJM81BAAU098363              MANAUS6905011000001020330553   43,50AM
0260746948000112000100004609360000866          INOVE INSURANCE CORR DE SEGS L240220172502201725022017V         Novo (previa)                              C S C MELONAU5288     9BD265122F9023130              MANAUS6905709000001020304250   43,50AM
0260746948000112000100004609410000854           BJB CORRETORA DE SEGUROS LTDA250220172502201725022017V         Novo (previa)          LUIZ JOSE HOLANDA DOS REIS EPPNOL8000     9BM958260DB890023              MANAUS6903700400000100558699   43,50AM
0260746948000112000100004606680000849          S BORGES ALCANTARA COR.DE SEGS240220172502201725022017V                Outros                 LUCIANO DE SOUSA CASTRONAU7467     8AJBA3FS4H0233132           BOA VISTA6930602500000100577685   43,50RR
0260746948000112000100004608680000849          ROSAN E NUNES COR DE SEGS LTDA250220172502201725022017V         Novo (previa)                  KELLY C GOMES DA COSTAPHF9678     9BGKS69R0FG435304              MANAUS6908841000001020185669   43,50AM
0260746948000112000100004608710000849          CONSULCOR ADM CORT SEGS  IMOVE250220172502201725022017V         Novo (previa)            JERONIMO DE MENEZES MARREIROPHT3050     9BGKS69R0GG194257              MANAUS6904533000000100398250   43,50AM
0260746948000112000100004608700000849          ROSAN E NUNES COR DE SEGS LTDA250220172502201725022017V         Novo (previa)                        RODRIGO DE SOUZAPHH4501     9BWJB45U2GP066221              MANAUS6905503000001020185669   43,50AM
0260746948000112000100004611010000840          GABARITO COR.E ADM.DE SEGS.LTD250220172502201725022017V         Novo (previa)             LEILA DOS SANTOS CAVALCANTEPHK0008     95PJU81DBGN031406              MANAUS6905840400000100375012   43,50AM
0260746948000112000100004405010000851          SN CORRETORA DE SEGUROS LTDA M250220172502201725022017V         Novo (previa)                   IGOR BERNADINO DANTASQKF1371     8AJHA8CD7G2571091            XINGUARA6855500000001020305419   43,50PA
0260746948000112000100004405020000851          UNIVERSO CORRETORA DE SEGS LTD240220172502201725022017V         Novo (previa)           ADILSON GONCALVES DE CARVALHOJKC8652     93YHSR6P5DJ242287 OURILANDIA DO NORTE6839000000000100169684   43,50PA
0260746948000112000100004601110000840          ACAPU SERV E CORR DE SEGS LTDA240220172502201725022017V         Novo (previa)          JOSE AUGUSTO DA SILVA OLIVEIRAPHJ7749     8AJHA8CD0H2581236              MANAUS6901017000000100188638   43,50AM
0260746948000112000100004609400000840          BALMEK COR DE SEG VIDA LTDA ME250220172502201725022017V         Novo (previa)                   ALTAIR DO CARMO SILVANOT8071     9BRBDWHE7F0206658              MANAUS6904520000000100651982   43,50AM
0260746948000112000100004601070000840          FROESPRESS CORRETORA DE SEGS L240220172502201725022017V         Novo (previa)                   ODILIO GALVAO PICANCOOXM7578     93YHSR2LAFJ484935              MANAUS6908032100000100673331   43,50AM
0260746948000112000100004611050000840          TAUMATURGO E VEIGA COR DE SEGS250220172502201725022017V         Novo (previa)            JOSE UBALDO DOS SANTOS FILHOPHL3531     9BD57814UGB102514              MANAUS6909470000000100678473   43,50AM
0260746948000112000100004612010000558           BRADESCOR COR DE SEGUROS LTDA240220172502201725022017P         Novo (previa)               RAFAEL BARREIRA VILARINDOOAM9125     9BD11812ED1257325              MANAUS6903700000000100058777   27,00AM
0260746948000112000100004601310000849          MMA CORRETORA DE SEGUROS LTDA 240220172502201725022017V         Novo (previa)            SEBASTIAO ALVES LAVOR JUNIORNOY2822     93YBSR7RHRJ847643              MANAUS6908027100001020171420   43,50AM
0260746948000112000100004601320000849          CONSULCOR ADM CORT SEGS  IMOVE240220172502201725022017V         Novo (previa)                  ALMIR MENESES DA SILVAJXH8815     9BD17301A74174035              MANAUS6903383000000100398250   43,50AM
0260746948000112000100004107260000850          NIPPON HASEGAWA COR SG VIDA LT230220172402201724022017V         Novo (previa)             JOSE ISMAEL VIANA DE ARAGAOOSZ7969     3C4PFABB8CT286706               BELEM6605519000000100504815   43,50PA
0260746948000112000100004107220000641                UNICOOB COR DE SEGS LTDA240220172402201724022017V         Novo (previa)                    FRANCISCO LIMA PINHOQEP8480     8AJBA3CD7H1582317              PACAJA6848500000000100562670   43,50PA
0260746948000112000100004609270000840             SMCS CORRETORA DE SEGS LTDA230220172402201724022017V         Novo (previa)                      MARLY GOMES CAPOTEOAG4178     3HGRM1830CG502943              MANAUS6903700000000100677281   43,50AM
0260746948000112000100004107110000641                UNICOOB COR DE SEGS LTDA240220172402201724022017V         Novo (previa)                  DERNIVAL DA SILVA LIMAOWL9411     8AJFY29GXE8550148              PACAJA6848500000000100562670   43,50PA
0260746948000112000100004609200000840          ABBA CORRETORA DE SEGUROS LTDA230220172402201724022017V         Novo (previa)           PATRICIA WALDYENE SILVA FROTAPHB9173     9BD11818MF1318380              MANAUS6905883000000100706990   43,50AM
0260746948000112000100004608610000849          MMA CORRETORA DE SEGUROS LTDA 230220172402201724022017V         Novo (previa)              MICHELLE DE ARAUJO PEDRACAOAC6212     93HGE6850EZ117720              MANAUS6903700500001020171420   43,50AM
0260746948000112000100004610180000849          A R MENEZES JUNIOR COR DE SEGS230220172402201724022017V         Novo (previa)            NILDO DE MELO AFFONSO JUNIOROAK5689     WMWSR3104CT289348              MANAUS6905848000000100116670   43,50AM
0260746948000112000100004609280000635              BROKERSUL COR.DE SEGS.LTDA230220172402201724022017V             Renovacao              CINTHIA ORRICHIO DE CASTROOAC2531     9BD11812EE1305026              MANAUS6903364000000100345857   43,50AM
0260746948000112000100004501000000850          NIPPON HASEGAWA COR SG VIDA LT230220172402201724022017V         Novo (previa)                  MARCELO MONTEIRO SILVAOFU9969     9BWAA05U2DP133651         PARAUAPEBAS6851500000000100504815   43,50PA
0260746948000112000100004107410000850               HINGTON CORR DE SEGS LTDA240220172402201724022017V             Renovacao                       RUTH DIAS PALHETANSL8652     8AWPB05Z3AA044627             COLARES6878500000000100666289   43,50PA
0260746948000112000100004107420000641                UNICOOB COR DE SEGS LTDA240220172402201724022017V         Novo (previa)                 ELTON CARVALHO FERREIRAQEP2181     9BWAB45Z7H4015537          ABAETETUBA6844000000000100562670   43,50PA
0260746948000112000100004606560000849          S BORGES ALCANTARA COR.DE SEGS230220172402201724022017V         Novo (previa)               RIVANETE DA SILVA PEREIRANOR5141     9BD578341E7801151           BOA VISTA6931231200000100577685   43,50RR
0260746948000112000100003711850000628            TRANQUILIZA COR DE SEGS LTDA230220172402201724022017V         Novo (previa)       PEDRO HENRIQUE CARVALHO DE CASTROQEH1471     9BGKS48R0GG182192            SANTAREM6804006000000100101397   43,50PA
0260746948000112000100004404990000851          UNIVERSO CORRETORA DE SEGS LTD230220172402201724022017V         Novo (previa)                     XERXES BARBOSA LIMAQEW7080     93XXNKB8TFCE07068            REDENCAO6855223000000100169684   43,50PA
0260746948000112000100004404730000851          UNIVERSO CORRETORA DE SEGS LTD200220172202201723022017V         Novo (previa)    SUPERMERCADO SERVILAR DE TUCUMA LTDAQEV9699     93XTYKL1THCG01950              TUCUMA6838500000000100169684   43,50PA
0260746948000112000100004404780000847          VALE CORRETORA DE SEGUROS EIRE210220172302201723022017V         Novo (previa)           PANIFICADORA CAPIXABA LTDA MEOSZ8018     9BD373175E5044167         PARAGOMINAS6862507000001020308230   43,50PA
0260746948000112000100004404790000847           BRADESCOR COR DE SEGUROS LTDA210220172302201723022017V         Novo (previa)           JOHN LENNON FERREIRA DE SOUZAHHY4370     9BRBL42E0C4720033     IPIXUNA DO PARA6863700000000100058777   43,50PA
0260746948000112000100004610040000849          MMA CORRETORA DE SEGUROS LTDA 220220172302201723022017V         Novo (previa)                 MARIUA CONSTRUCOES LTDAPHI5560     93XXNKB8THCG21483              MANAUS6903650000001020171420   43,50AM
0260746948000112000100004608550000849          LESLEY ADM.COR.DE SEGS S/C LTD220220172302201723022017V             Renovacao       EMINA MARIA GIL SCHAEKEN ROSSETEFJWX8718     9BWAC52R63R308834              MANAUS6905400000000100319252   43,50AM
0260746948000112000100004608520000854           BJB CORRETORA DE SEGUROS LTDA220220172302201723022017V         Novo (previa)     BRUNO THAYGUARA DE OLIVEIRA RIBEIRONOP5549     9BFZK53A1AB142520              MANAUS6906744400000100558699   43,50AM
0260746948000112000100004608530000849            J.C.NETO COR.E ADM.SEGS LTDA220220172302201723022017V         Novo (previa)                 CARLOS AUGUSTO FERREIRAPHG1895     9BGKR48G0GG228921              MANAUS6907452000000100354945   43,50AM
0260746948000112000100004609160000849          TAMUZ CORRETORA DE SEGUROS S/S220220172302201723022017V             Renovacao                  KELLY DE OLIVEIRA MOTAJWV3882     9BFZF16N248177550              MANAUS6907781500000100580082   43,50AM
0260746948000112000100004609170000849          ROSAN E NUNES COR DE SEGS LTDA220220172302201723022017V                Outros    EXCELSA CRISTINA G DO ESPIRITO SANTOPHW4411     9BD195A6MG0750086              MANAUS6901012000001020185669   43,50AM
0260746948000112000100004607870000840          VIA EGIDE COR.ADM.E CONSULT.DE220220172302201723022017V         Novo (previa)            PATRICIA DO NASCIMENTO ROCHAPHZ0628     JMYXTGF2WFZA02888              MANAUS6905844800000100614645   43,50AM
0260746948000112000100004607860000849          A R MENEZES JUNIOR COR DE SEGS220220172302201723022017V         Novo (previa)                    RODRIGO LIMA MARTINSPHW6840     8AGSU1920GR120383              MANAUS6905830100000100116670   43,50AM
0260746948000112000100004607850000840          LESLEY ADM.COR.DE SEGS S/C LTD220220172302201723022017V             Renovacao                 AZEMAR FERREIRA PANTOJANOZ5230     9BD27844DA7205044              MANAUS6909730400000100319252   43,50AM
0260746948000112000100004610130000849          CONSULCOR ADM CORT SEGS  IMOVE220220172302201723022017V         Novo (previa)                JANDER DE ALENCAR BASTOSNOY1750     9BGAC69C0AB171477              MANAUS6904534000000100398250   43,50AM
0260746948000112000100004610110000849          CONSULCOR ADM CORT SEGS  IMOVE220220172302201723022017V         Novo (previa)                JANDER DE ALENCAR BASTOSNOM6488     8AFDR12A48J189351              MANAUS6904534000000100398250   43,50AM
0260746948000112000100004107400000850          BGSB CORRETORA DE SEGUROS LTDA220220172302201723022017V         Novo (previa)           FLAVIO BANDEIRA DO NASCIMENTOQDT7240     9BD57834UF7930938          TRACUATEUA6864700000000100560171   43,50PA
0260746948000112000100004610070000849          A R MENEZES JUNIOR COR DE SEGS220220172302201723022017V         Novo (previa)          THATIANE TUPINAMBA DE CARVALHOPHC1294     8AJEX32G0F4039927              MANAUS6904008000000100116670   43,50AM
0260746948000112000100004107230000850          PARABUCANO COR DE SEGS SS LTDA220220172302201723022017V         Novo (previa)         CAMILA VIRGENS DA ROCHA MARTINSFSW4369     95PJN81EPEB070703               BELEM6663511000000100377244   43,50PA
0260746948000112000100004610060000840          ABBA CORRETORA DE SEGUROS LTDA220220172302201723022017V         Novo (previa)               CARLENE DE AZEVEDO BENTESPHH0037     9BD57834UGB047818              MANAUS6904210000000100706990   43,50AM
0260746948000112000100004607890000840          LESLEY ADM.COR.DE SEGS S/C LTD220220172302201723022017V         Novo (previa)                MICHAEL MOURA DOS SANTOSPHB4643     9BWAA45U9FP549674              MANAUS6909001000000100319252   43,50AM
0260746948000112000100004107380000850           BRADESCOR COR DE SEGUROS LTDA220220172302201723022017V         Novo (previa)                    EDSON BRITO PINHEIROQDR4159     93HRV2870GZ138361          TRACUATEUA6864700000000100058777   43,50PA
0260746948000112000100004107390000850           BRADESCOR COR DE SEGUROS LTDA220220172302201723022017V         Novo (previa)            LUIZ ALEXANDRE DE AVIZ CONDEJVY0867     9BRBB48E095048911          TRACUATEUA6864700000000100058777   43,50PA
0260746948000112000100004500420000850          NIPPON HASEGAWA COR SG VIDA LT220220172302201723022017V         Novo (previa)             EVERALDO JOSE SALES DE LIMAOFQ4628     9BWDB45U7DT139227            ALTAMIRA6836500000000100504815   43,50PA
0260746948000112000100003912990000850          NIPPON HASEGAWA COR SG VIDA LT230220172302201723022017V         Novo (previa)                    REGINALDO SOUZA DIASOSX4013     93XJNKB8TDCD69457            ALTAMIRA6836500000000100504815   43,50PA
0260746948000112000100004404810000851          SN CORRETORA DE SEGUROS LTDA M220220172302201723022017V         Novo (previa)                DIVINO OLIVEIRA DO COUTOQDP5810     8AJFY29G5F8579140            XINGUARA6855501100001020305419   43,50PA
0260746948000112000100004404840000841              MURILO DE CASTRO VITORIANO220220172302201723022017V         Novo (previa)                        FRANCISCO SCHORROTU2050     WV1DB42H9DA047636              TUCUMA6838500000001020265239   43,50PA
0260746948000112000100004500430000850             AZUNAV CORR DE SEGUROS LTDA220220172302201723022017V         Novo (previa)  LUK COMERCIO E REPRESENTACOES LTDA EPPNEK7458     8AJFY29G3C8510054           MACAPA AP6890672000000100611611   43,50AP
0260746948000112000100004601280000616          MONTILHA CONSULT E COR DE SEGS210220172302201723022017P         Novo (previa)            RODRIGO PINHEIRO DE A CASTROOAJ9465     3VWVN6168DM632810              MANAUS6903700000000100706477   27,00AM
0260746948000112000100004607680000840          VIA EGIDE COR.ADM.E CONSULT.DE180220172202201722022017V         Novo (previa)                MARLUCE DE AMORIM FELIPEOAJ1771     9BGKS69L0FG147822              MANAUS6902830400000100614645   43,50AM
0260746948000112000100004609110000840          LESLEY ADM.COR.DE SEGS S/C LTD210220172202201722022017V         Novo (previa)            GILBERTO LUIZ SILVA DE PAULAPHB4083     93HFB9640FZ225847              MANAUS6906008100000100319252   43,50AM
0260746948000112000100004610020000849          G G MOURA CORRETORA DE SEGUROS210220172202201722022017V         Novo (previa)                       M N UCHOA BATISTAJWT1587     9BFLF47G61B060849    RIO PRETO DA EVA6911700000000100319783   43,50AM
0260746948000112000100004608490000849          G G MOURA CORRETORA DE SEGUROS210220172202201722022017V         Novo (previa)                    JORGE UBALDO VICENZIJXY9362     9BGSU19F0BC208217              MANAUS6906008100000100319783   43,50AM
0260746948000112000100004107150000639          SEGSUL ADM. E CORR. SEG. LTDA 210220172202201722022017V         Novo (previa)          LUCIANA CRISTINA BARBOSA GOMESQDZ9651     93XHYKH8WGCF21025               BELEM6681680000001020058144   43,50PA
0260746948000112000100004107160000840          FROESPRESS CORRETORA DE SEGS L210220172202201722022017V         Novo (previa)MOTONORTE MOTORES E MAQUINAS DO NORTE LTJXY4544     9BD27804D87064860               BELEM6602060000000100673331   43,50PA
0260746948000112000100004100900000850           BRADESCOR COR DE SEGUROS LTDA220220172202201722022017V             Renovacao          ELLEM KAIANE RODRIGUES BARBOSAQDU5610     93HGK5860FZ241735           CASTANHAL6874318000000100058777   43,50PA
0260746948000112000100004608480000975           HPE CORRETORA DE SEGUROS LTDA210220172202201722022017V         Novo (previa)              OLIVA PINTO LOGISTICA LTDAPHI7001     JMYLYV98WGJA00843              MANAUS6907511000001020076053   43,50AM
0260746948000112000100004609090000840            NNV COR DE SEGS DE VIDA LTDA210220172202201722022017V             Renovacao                     JOAO GOMES DA SILVANOP6969     9BD197132E3136811              MANAUS6903632000001020282648   43,50AM
0260746948000112000100003912970000641          J ASSUNCAO ADM E CORRETORA SEG210220172202201722022017V         Novo (previa)              VICENTE ANTONIO DE AZEVEDOOXX4385     8AJFY22G1F8019268            ALTAMIRA6836500000000400016144   43,50PA
0260746948000112000100004609100000849          G G MOURA CORRETORA DE SEGUROS210220172202201722022017V         Novo (previa)           ROBERSILDA BACKSMANN FERREIRAPHA6986     WDDBF4DW8EJ283851              MANAUS6905467200000100319783   43,50AM
0260746948000112000100004607840000849          JAMF CORRETORA DE SEGUROS LTDA210220172202201722022017V         Novo (previa)                JANDER DOS SANTOS FARIASOAO1732     93HGM2620EZ212197              MANAUS6904102500000100409596   43,50AM
0260746948000112000100004500390000956          SFSJ CORRETORA DE SEGUROS EIRE220220172202201722022017V         Novo (previa)               LEONICE DA SILVA NOGUEIRANEM2817     JTMZD9EV5DD014236             SANTANA6892518000001020287224   43,50AP
0260746948000112000100004606410000841          MRFLSGB 10 CORRETORA SEGUROS L210220172202201722022017V         Novo (previa)                  HOTEL COLONIAL LTDA MENAX7438     9536E8239ER434563           BOA VISTA6930107000000100667862   43,50RR
0260746948000112000100004404740000851          UNIVERSO CORRETORA DE SEGS LTD210220172202201722022017V         Novo (previa)                  SUELY COSTA DOS SANTOSOTE3033     9BD578341E7783845              TUCUMA6838000000000100169684   43,50PA
0260746948000112000100004404770000841          AGIL CORRETORA DE SEGUROS LTDA210220172202201722022017V         Novo (previa)               WANDERLEY DA COSTA MORAISNEO9777     8AJFY22G8E8016236              TUCUMA6838500000001020134835   43,50PA
0260746948000112000100004404650000850          BGSB CORRETORA DE SEGUROS LTDA170220172102201721022017V         Novo (previa)           ANTONIO SERGIO DA CRUZ CORREAQDN6971     8AJFY29G8F9577687          MAE DO RIO6867500000000100560171   43,50PA
0260746948000112000100004404670000851          UNIVERSO CORRETORA DE SEGS LTD200220172102201721022017V         Novo (previa)                       JOSE ALVES BONFIMOVV4335     8AJFY29G4E8565440              TUCUMA6838500000000100169684   43,50PA
0260746948000112000100004404680000851          SN CORRETORA DE SEGUROS LTDA M200220172102201721022017V         Novo (previa)                  OLAIR DA COSTA CORREIAONP6330     8AJFY29G5D8533143            XINGUARA6855500000001020305419   43,50PA
0260746948000112000100004602980000849            J.C.NETO COR.E ADM.SEGS LTDA200220172102201721022017V         Novo (previa)                   MANOEL GOMES NOGUEIRAPHG0847     94DVDUD40FJ498652              MANAUS6904000000000100354945   43,50AM
0260746948000112000100004607710000849          MMA CORRETORA DE SEGUROS LTDA 200220172102201721022017V             Renovacao             AURIAN MARIA OLIVEIRA SALESOAD7032     9BRB29BT3E2030435              MANAUS6909908200001020171420   43,50AM
0260746948000112000100004107120000850           BRADESCOR COR DE SEGUROS LTDA200220172102201721022017V         Novo (previa)     PAULA REGINA TOBIAS ALMEIDA CORREIAQEG6629     9BGKS69V0HG171169               BELEM6606301000000100058777   43,50PA
0260746948000112000100004607760000849          ATUANTE CENTER COR.DE SEGS.E G200220172102201721022017V          Substituicao        FRANCISCO DE OLIVEIRA DOS SANTOSOAG5752     LKHPF2CG4CAY01417              MANAUS6909700000000100198528   43,50AM
0260746948000112000100004107140000841          PARABUCANO COR DE SEGS SS LTDA200220172102201721022017V         Novo (previa)   ANA CAROLINA CAMPOS CARVALHAES GOUVEAJHB1660     9BD19240RA3096123               BELEM6603317000000100377244   43,50PA
0260746948000112000100004609060000854           BJB CORRETORA DE SEGUROS LTDA200220172102201721022017V         Novo (previa)                    SANDRA MOREIRA COSTANOW1085     9BGRG48F0CG172989              MANAUS6907314000000100558699   43,50AM
0260746948000112000100004603000000849          LESLEY ADM.COR.DE SEGS S/C LTD200220172102201721022017V         Novo (previa)     ANTONIA ALVES BALDOINO DA S MAIA MEOAM5131     9BFWEA7B2EBS61883              MANAUS6904001000000100319252   43,50AM
0260746948000112000100004404620000841           RAYSEG COR E ADM DE SEGS LTDA200220172102201721022017V         Novo (previa)              LUCILENE FERREIRA DA SILVAQDW8839     9BG148MK0FC430003            REDENCAO6854000000001020004265   43,50PA
0260746948000112000100004603970000840          FROESPRESS CORRETORA DE SEGS L170220172002201720022017V             Renovacao                      ODNEIA LOPES SILVAJXV1352     8AJFY29G1E8547915              MANAUS6940097000000100673331   43,50AM
0260746948000112000100004601240000840          FROESPRESS CORRETORA DE SEGS L170220172002201720022017V         Novo (previa)           ELSON VENANCIO DE VASCONCELOSOAH8171     9BD197132F3213456              MANAUS6904555000000100673331   43,50AM
0260746948000112000100004603960000840          M DA C LIBORIO DOS SANTOS COR 170220172002201720022017V         Novo (previa)                       RAAD MOHAMAD RAADNOP3542     9BRBL42E5D4758049              MANAUS6903300000001020337582   43,50AM
0260746948000112000100004601250000840          FROESPRESS CORRETORA DE SEGS L170220172002201720022017V         Novo (previa)      MARIA NAZARETH DAS NEVES DE MORAISOAM9776     9BD196271D2097105              MANAUS6906514000000100673331   43,50AM
0260746948000112000100004607660000849          CONSULCOR ADM CORT SEGS  IMOVE180220172002201720022017V         Novo (previa)                PATRICIA ALMEIDA DE LIMAOAM5426     9bd13572ad2228333              MANAUS6904306000000100398250   43,50AM
0260746948000112000100004607630000849          MMA CORRETORA DE SEGUROS LTDA 180220172002201720022017V             Renovacao        GILBERTO OLAVO COSTA DE OLIVEIRANOT7878     9BFZD55J4EB668640              MANAUS6903551000001020171420   43,50AM
0260746948000112000100004609030000558           BRADESCOR COR DE SEGUROS LTDA180220172002201720022017V         Novo (previa)                     WENDEL LIMA DE MELOOAJ2292     9BGJD69Z0EB232830              MANAUS6905000100000100058777   43,50AM
0260746948000112000100041000840000280          RODOBENS ADM E COR DE SEGS LTD180220172002201720022017V         Novo (previa)             JENUELY FERREIRA DE FREITASQEP4321     8AJHA8CD1H2591046 SANTA LUZIA DO PARA6864400000000100204056   43,50PA
0260746948000112000100004603990000975           HPE CORRETORA DE SEGUROS LTDA180220172002201720022017V         Novo (previa)                ROBERTO FERREIRA BARBOSAPHI7180     93XHYKB8THCG27270              MANAUS6905000000001020076053   43,50AM
0260746948000112000100004404580000851          UNIVERSO CORRETORA DE SEGS LTD170220172002201720022017V         Novo (previa)                     CELIO BATISTA RIBASQEY5400     WV1SD42HXGA007832              TUCUMA6838500000000100169684   43,50PA
0260746948000112000100004404540000969          MINUTO CORRETORA DE SEGUROS S 170220172002201720022017V         Novo (previa)                LUCILEIDE ALVES DA CUNHAPIG9991     9BWAG4127FT563339              TUCUMA6838500000000100230758   43,50PA
0260746948000112000100004404640000841          ITACAIUNAS ADM E CORR DE SEGS 180220172002201720022017V         Novo (previa)                 NUBIA FIALHO DOS SANTOSOTI9298     9BGKS69B0EG221687              MARABA6850506500000100243604   43,50PA
0260746948000112000100004107010000850           BRADESCOR COR DE SEGUROS LTDA170220171802201719022017V         Novo (previa)                MARCELA DOS SANTOS MOURAQDC7078     9BHBG51CAFP320943               BELEM6605000500000100058777   43,50PA
0260746948000112000100004107060000969          BIDU CORR DE SEGS E SERV DE IN170220171802201719022017V         Novo (previa)                 MAURICIO SILVA DA SILVANEO0907     8AWPB05Z8BA502101               BELEM6664500300000100227943   43,50PA
0260746948000112000100004602940000849          G G MOURA CORRETORA DE SEGUROS170220171802201719022017V         Novo (previa)     MARCIA FLORINDA HUSSEIN ROSAS MURADPHN1761     93Y5SRD64HJ481409              MANAUS6905756000000100319783   43,50AM
0260746948000112000100004101480000850          TNNB MONTEIRO CORR DE SEGUROS 170220171802201719022017V         Novo (previa)                  JOSE CARLOS DOS SANTOSQEW4910     9BD19627ZH2295754   CONCORDIA DO PARA6868500000001020336870   43,50PA
0260746948000112000100004101470000842          GET COR CORRETORA DE SEGUROS E170220171802201719022017V         Novo (previa)                  JADILSON SILVA FEITOSAMWV1994     9BWAB05Z0A4060771            TOME-ACU6868097000001020310366   43,50PA
0260746948000112000100004602950000840          BALMEK COR DE SEG VIDA LTDA ME170220171802201719022017V             Renovacao                 STEPHANE MARC HARBONNERNOV1039     9BD118121A1092791              MANAUS6904008000000100651982   43,50AM
0260746948000112000100004607620000840            NNV COR DE SEGS DE VIDA LTDA170220171802201718022017V         Novo (previa)               ZENY MAGALHAES RODRIGUES OAM1511     9BD197132F3236514              MANAUS6903503000001020282648   43,50AM
0260746948000112000100003912930000850           BRADESCOR COR DE SEGUROS LTDA160220171802201718022017V         Novo (previa)              PAULO CIRQUEIRA DOS SANTOSAVI0000     9BD17144ZH7609010              PACAJA6848500000000100058777   43,50PA
0260746948000112000100004603910000840           SEGURAR SERV E COR DE SEGUROS160220171702201717022017V          Substituicao            ANDERSON DE OLIVEIRA MOREIRAAZE4649     9BWAA45U6FP152407              MANAUS6907901500001020143575   43,50AM
0260746948000112000100004602910000849          MMA CORRETORA DE SEGUROS LTDA 160220171702201717022017V         Novo (previa)                 AGEILSON VITAL DA ROCHANOK3926     9BFHW21C89B065515              MANAUS6902145000001020171420   43,50AM
0260746948000112000100004608330000840          FROESPRESS CORRETORA DE SEGS L160220171702201717022017V         Novo (previa)                  REGINA MACHADO DA CRUZPHG9222     9BGKT69R0GG198533              MANAUS6909931700000100673331   43,50AM
0260746948000112000100004602920000639           LC MARINHO ADM E CORR SEGS SC160220171702201717022017V         Novo (previa)            KLIZIA DANNSON LIMA DE PAIVANPB0882     9BD197163E3143777              MANAUS6905000000000100266922   43,50AM
0260746948000112000100004607570000849          TATIANE DA S S CORR DE SEG EPP160220171702201717022017V         Novo (previa)                 ADEMAR MAIA RAMOS FILHOPHH3496     9BRK19BT8H2071991              MANAUS6905472300001020330553   43,50AM
0260746948000112000100004607560000849           BRADESCOR COR DE SEGUROS LTDA160220171702201717022017V         Novo (previa)                     RONNEY SILVA AGUIARPHC8035     93hfb9640gz206053              MANAUS6904301000000100058777   43,50AM
0260746948000112000100004608370000849           ABG CORR DE SEGS DE VIDA LTDA160220171702201717022017V         Novo (previa)                    VALDETE MACIEL ASSADPHE0268     9BGKS48R0FG435228              MANAUS6902830300001020341458   43,50AM
0260746948000112000100004404470000851          UNIVERSO CORRETORA DE SEGS LTD160220171702201717022017V         Novo (previa)                 JOSIVAN SANTOS DA SILVAOBX4756     9BWAA45U5CT068372              TUCUMA6838500000000100169684   43,50PA
0260746948000112000100004404490000836          FAIRES CORRETORA DE SEGUROS LT160220171702201717022017V         Novo (previa)             CARMEM DULCE IRACY DE SOUZAJHN1672     9BD119405A1065060            SAPUCAIA6854800000000100655767   43,50PA
0260746948000112000100003809760000203          TARRAF ADM E COR DE SEGS S/C L160220171702201717022017V         Novo (previa)             FERREIRA COMERCIO EIRELI MEOTR5460     9BFYEALE0DBL42579             TRAIRAO6819800000000100252450   43,50PA
0260746948000112000100004608170000849          MLVS CORRETORA DE SEGUROS LTDA140220171602201716022017V         Novo (previa)                   CLAUDIO GOMES DE LIMAPHG3768     8AFAR23L3FJ339942              MANAUS6908462300000100558354   43,50AM
0260746948000112000100004602870000840          ZONA FRANCA DAS AMERICAS-ASSES150220171602201716022017V                Outros         FELIPE DEMES GONCALVAES BEZERRAPHA4854     KNAPB817BE7618796              MANAUS6904485300000100364789   43,50AM
0260746948000112000100004607550000849          G G MOURA CORRETORA DE SEGUROS150220171602201716022017V         Novo (previa)                  NICOLE GALLASCH CORREANOO2681     9BG156MK0EC434174              MANAUS6905803000000100319783   43,50AM
0260746948000112000100004607540000870          GRANLIDER CONS ADM COR SEG LTD150220171602201716022017V          Substituicao    MARIA ELISA FARIAS BELMONTE DE SOUZAOAG9921     KNAKU811BF5523573              MANAUS6903048000000100447013   43,50AM
0260746948000112000100004607460000849            J.C.NETO COR.E ADM.SEGS LTDA150220171602201716022017V         Novo (previa)             ROBERTO CESAR DINIZ CABRERAJXO5531     KNAKU813BB5107810              MANAUS6901006000000100354945   43,50AM
0260746948000112000100004101540000842          SANTA CATARINA CORR DE SEGS LT150220171602201716022017V         Novo (previa)DISBRAVA DISTRIBUIDORA DE CAMINHOES LTDAGCP1488     9BFYEB5J9HBL94668          ANANINDEUA6701000000001020311168   43,50PA
0260746948000112000100004607480000849          ZONA FRANCA DAS AMERICAS-ASSES150220171602201716022017V          Substituicao    GONCALVES E CASTRO SERV CONS PREDIALNOU3632     9BFZF54P0E8022928              MANAUS6909762900000100364789   43,50AM
0260746948000112000100004101550000842          REAL SOBERANA COR & ADM DE SEG150220171602201716022017V         Novo (previa)          JOSE DE RIBAMAR GOMES DA SILVAJVF7614     MNTVCUD4086002630          ANANINDEUA6703000000000100661490   43,50PA
0260746948000112000100004608240000951           LUI CORRETORA SEGUROS SC LTDA150220171602201716022017V         Novo (previa)         CLEITON RODRIGO SOARES DA SILVAOAA6842     9BGJC69X0DB284826              MANAUS6907515500000100358550   43,50AM
0260746948000112000100004607470000849          A R MENEZES JUNIOR COR DE SEGS150220171602201716022017V         Novo (previa)           JOSE CARLOS GONCALVES TENORIOAVI0000     LVAV2JBB7EJ032599              MANAUS6905050100000100116670   43,50AM
0260746948000112000100041002800000850          PARABUCANO COR DE SEGS SS LTDA150220171602201716022017V         Novo (previa)         CAMILA VIRGENS DA ROCHA MARTINSFSW4369     95PJN81EPEB070703               BELEM6663511000000100377244   43,50PA
0260746948000112000100004101440000850           ZUITH AQUINO COR DE SEGS LTDA150220171602201716022017V         Novo (previa)                ELIEZER BENJO DE FREITASOTV7592     93HFB9640EZ115465               BELEM6609303000000100634450   43,50PA
0260746948000112000100004607410000849          BALMEK COR DE SEG VIDA LTDA ME140220171502201715022017V         Novo (previa)    A F COMERCIO DE PRODUTOS DE INF LTDAPHI2970     9BWAA45U4GT041315              MANAUS6905535000000100651982   43,50AM
0260746948000112000100004607380000840          VIA EGIDE COR.ADM.E CONSULT.DE140220171502201715022017V             Renovacao                 TAPAJOS PERFUMARIA LTDAOXM0506     WBA3B1108EF942469              MANAUS6905700200000100614645   43,50AM
0260746948000112000100004607430000849          ZONA FRANCA DAS AMERICAS-ASSES140220171502201715022017V          Substituicao                PAULO MAG GOMES DER LIMAPHH4185     9BWDA45U2GT058871              MANAUS6905883000000100364789   43,50AM
0260746948000112000100004608180000840          LESLEY ADM.COR.DE SEGS S/C LTD140220171502201715022017V         Novo (previa)              BRENO MENDES MARINHO ISPEROAH6116     9BWLB05U1DP042294              MANAUS6902519000000100319252   43,50AM
0260746948000112000100004603820000849          CONSULCOR ADM CORT SEGS  IMOVE140220171502201715022017V          Substituicao    AIKA COSMETICOS E PERFUMARIA LTDA MEPHN2621     9UWSHX76AGN020131              MANAUS6906500000000100398250   43,50AM
0260746948000112000100004602860000849           ABG CORR DE SEGS DE VIDA LTDA140220171502201715022017V         Novo (previa)         MARCOS ANDRE GUIMARAES DE SOUZAPHI9732     9BG148TA0HC430944              MANAUS6904071000001020341458   43,50AM
0260746948000112000100004603830000840          LESLEY ADM.COR.DE SEGS S/C LTD140220171502201715022017V             RenovacaoELLEN SANDRA PEREIRA DE OLIVEIRA ANDRADEOAH1135     9BD197173D3047751              MANAUS6906348000000100319252   43,50AM
0260746948000112000100004101490000851           SECURE SELL COR E ADM DE SEGS140220171502201715022017V         Novo (previa)                ALEYXO LUIZ ROCHA SANTOSOTY4444     WV1DB42H0DA046942               BELEM6605335500000100396931   43,50PA
0260746948000112000100041001500000657          KIRTON CORRETORA DE SEGUROS S 140220171502201715022017V         Novo (previa)     DANIELLE MESQUITA DE LEMOS FERREIRAATX1525     9BD195183C0150968               BELEM6692110000000100063860   43,50PA
0260746948000112000100003711840000866            VITER COR DE SEGS E ADM LTDA140220171502201715022017V         Novo (previa)            ADILA MARIA DE ALMEIDA MOURAQGG1260     8AFSZZFFCFJ309516            SANTAREM6803301000000100321605   43,50PA
0260746948000112000100004404340000841          MRFLSGB 10 CORRETORA SEGUROS L140220171502201715022017V             Renovacao                 RENATO PRUDENTE PEREIRAQDW2690     93XSNKB8TGCF15751  SAO FELIX DO XINGU6838000000000100667862   43,50PA
0260746948000112000100004404350000841          CVK CORRETORA E ADM SEGUROS LT140220171502201715022017V         Novo (previa)                ARNALDO GOMES DOS SANTOSOTR7685     9BG148LP0EC449274  SAO FELIX DO XINGU6838000000000100674702   43,50PA
0260746948000112000100004500210000002             AZUNAV CORR DE SEGUROS LTDA140220171502201715022017V         Novo (previa)                   ALENE CHAGAS DA SILVAQLO0499     9BD11818MG1335597              MACAPA6890131600000100611611   43,50AP
0260746948000112000100004404360000857          G G MOURA CORRETORA DE SEGUROS140220171502201715022017V             Renovacao          SILVIA REGINA PEREIRA DA SILVAOLN1135     8AJFY29G3D8541256  SAO FELIX DO XINGU6838000000000100319783   43,50PA
0260746948000112000100004404370000835                  LIDER COR DE SEGS LTDA140220171502201715022017V             Renovacao               KENIA CRISTINA SILVA COTAOMI4769     8AJFY29GXE8547959  SAO FELIX DO XINGU6838000000000100145149   43,50PA
0260746948000112000100003912910000849                ADICIONAL CORR SEGS LTDA140220171502201715022017V         Novo (previa)                GEOVAN DE SOUZA OLIVEIRANEK7378     8AJFY29G3C8510216    VITORIA DO XINGU6838300000000100447161   43,50PA
0260746948000112000100004404440000842          ALFA PORTO ADM E COR DE SEGS L140220171502201715022017V         Novo (previa)       GOIANAO COMERCIO DE COMB LTDA EPPOTW2938     9BSR6X400F3866562CONCEICAO DO ARAGUAI6854000000000100631299   43,50PA
0260746948000112000100004101930000630          UNIVACO ADM.E CORR.DE SEGS.LTD130220171402201714022017V                Outros                  ZONARIO DA SILVA SOUSAQDZ3171     9BD19626TG2280539                MOJU6845000000000100443166   43,50PA
0260746948000112000100004607330000854           BJB CORRETORA DE SEGUROS LTDA130220171402201714022017V         Novo (previa)              BONNA VITTA IND E COM LTDAPHH2421     LVAV2JBB9FJ004689              MANAUS6905883000000100558699   43,50AM
0260746948000112000100039128000000617           PERSPECTIVA ADM E COR DE SEGS130220171402201714022017V             Renovacao                  JOEL DE OLIVEIRA ROCHAQDH5211     9BG148MA0FC414506               ANAPU6836500000000100481831   43,50PA
0260746948000112000100003912830000656          MISSOES CORR DE SEGUROS LTDA M130220171402201714022017V         Novo (previa)     JULIO VALDO MIRO HIPPLER E CIA LTDAISR6441     9BFLF4998BB095621               ANAPU6836500000001020208987   43,50PA
0260746948000112000100003912870000867          L G L DE M FERRAZ SEGUROS - ME130220171402201714022017V             Renovacao              JOSEMIR FARIAS CORDEIRO MEHLJ5909     9BM6881599B663076               ANAPU6836500000001020282745   43,50PA
0260746948000112000100004603790000836          CURY CORREA CORR. DE SEGS LTDA130220171402201714022017V         Novo (previa)               FELIPE ROSA RABELLO RAMOSNBA1142     93XJNKB8TDCC58947              MANAUS6905700000001020235178   43,50AM
0260746948000112000100004603800000849            J.C.NETO COR.E ADM.SEGS LTDA130220171402201714022017V         Novo (previa)              ORLAN CAVALCANTE GUIMARAESAVI0000     3C6UR5FL6GG368783              MANAUS6902944000000100354945   43,50AM
0260746948000112000100004607370000849          JAMF CORRETORA DE SEGUROS LTDA130220171402201714022017V         Novo (previa)          GERALDO CARLOS SOARES DA SILVAOAO4951     9BRBDWHE0F0250579              MANAUS6904017000000100409596   43,50AM
0260746948000112000100004101730000874          MAXSEGUR ADM E COR DE SEGS LTD130220171402201714022017V         Novo (previa)             JOAO EVANGELISTA DOS SANTOSOYX8066     9BGPB69M0EB257093   CANAA DOS CARAJAS6853700000000100608874   43,50PA
0260746948000112000100004500100000847            HEBRAICA COR DE SEGUROS LTDA130220171402201714022017V         Novo (previa)                  RAIMUNDO JOSE HORTEGALPSI8162     9BGPN68N0FB237435   CANAA DOS CARAJAS6853700000000100575852   43,50PA
0260746948000112000100004502990000641                UNICOOB COR DE SEGS LTDA130220171402201714022017V         Novo (previa)                   JOAO MIRANDA DE SOUZAFDX2012     1C4RJFBG3CC115244           BARCARENA6844500000000100562670   43,50PA
0260746948000112000100004404420000641             BENS COR DE SEGUROS LTDA ME130220171402201714022017V         Novo (previa)     TC COMERCIO E TRANSPORTES EIRELI MEKEL8451     9BM6960901B277105              MARABA6858500000001020214510   43,50PA
0260746948000112000100004600000000850             AZUNAV CORR DE SEGUROS LTDA140220171402201714022017V         Novo (previa)                WALDENES RODRIGUES ANJOSNEP8388     9BD27804MC7509028              MACAPA6890903300000100611611   43,50AP
0260746948000112000100003711830000866             DECA NATAL COR DE SEGS LTDA130220171402201714022017V         Novo (previa)             HATERAS THIAGO FREITAS DIASQDI3770     8AJFY29G5F8574908            SANTAREM6803301000001020257910   43,50PA
0260746948000112000100004404310000851          UNIVERSO CORRETORA DE SEGS LTD130220171402201714022017V         Novo (previa)             ANTONIO JOSE SILVEIRA DE SAOTJ4611     9BWAB45U1DT258748              TUCUMA6838500000000100169684   43,50PA
0260746948000112000100004404390000841           RAYSEG COR E ADM DE SEGS LTDA130220171402201714022017V         Novo (previa)              FABIO LUIZ COUTINHO BUHRERMVV1316     9BFLF47G858009794            XINGUARA6855500000001020004265   43,50PA
0260746948000112000100004404380000841          MARCORR COR E ADM DE SEGS LTDA130220171402201714022017V         Novo (previa)              ORLANDO BATISTA DE ALMEIDAOTP0692     93YHSR2LADJ594561            XINGUARA6855501100000100374130   43,50PA
0260746948000112000100004607180000975           HPE CORRETORA DE SEGUROS LTDA090220171002201713022017V         Novo (previa)                AFONSO MENDONCA DA SILVAPHF4159     93XXNKB8THCG29394              MANAUS6909043000001020076053   43,50AM
0260746948000112000100004101900000850          NIPPON HASEGAWA COR SG VIDA LT110220171302201713022017V         Novo (previa)                    LAURIEL PIRES MORAESQEA6921     9BRBLWHE2G0052932               BELEM6602516000000100504815   43,50PA
0260746948000112000100004607270000854           BJB CORRETORA DE SEGUROS LTDA110220171302201713022017V         Novo (previa)              BONNA VITTA IND E COM LTDAPHH2411     LVAV2JBB1FJ004783              MANAUS6905883000000100558699   43,50AM
0260746948000112000100004607260000840          LESLEY ADM.COR.DE SEGS S/C LTD100220171302201713022017V      Reducao franquia            EDMILSOM DA SILVA NASCIMENTOPHC9450     9BD11818MG1324290              MANAUS6905503000000100319252   43,50AM
0260746948000112000100004607290000840          FROESPRESS CORRETORA DE SEGS L110220171302201713022017V      Reducao franquia                INES DO SOCORRO DA SILVAOAH6535     9BWAA05UXDT216347              MANAUS6909345100000100673331   43,50AM
0260746948000112000100004602760000849           BRADESCOR COR DE SEGUROS LTDA110220171302201713022017V                Outros              LUIZ PAULO OLANDA DA SILVAJXT8612     9BD17164LA5585869              MANAUS6904311000000100058777   43,50AM
0260746948000112000100004607320000849            J.C.NETO COR.E ADM.SEGS LTDA110220171302201713022017V         Novo (previa)              LETICIA ALENCAR CAVALCANTEOAG7009     93XJRKH8WCCB03036              MANAUS6906021000000100354945   43,50AM
0260746948000112000100004607300000849          ATUANTE CENTER COR.DE SEGS.E G110220171302201713022017V         Novo (previa)                EGLEUSON ARAUJO SANTIAGONVQ3709     WBAFG8109BL286934              MANAUS6903679000000100198528   43,50AM
0260746948000112000100004607280000840          LESLEY ADM.COR.DE SEGS S/C LTD110220171302201713022017V             Renovacao          RAIMUNDA JOSINEIA DE A MOREIRAJXR6361     9BD27804MC7470504              MANAUS6909332400000100319252   43,50AM
0260746948000112000100004608030000835          GODIVA CORRETORA SEGUROS LTDA 110220171302201713022017V         Novo (previa)                  ARNANDO CARVALHO PAIVAJKC0600     9BGPN68M0CB326826              MANAUS6905502100000100553026   43,50AM
0260746948000112000100004602740000849          A R MENEZES JUNIOR COR DE SEGS110220171302201713022017V         Novo (previa)                CATARINA SALDANHA TORRESOAO6121     9BGKS48L0FG244207              MANAUS6904027000000100116670   43,50AM
0260746948000112000100004602750000639           LC MARINHO ADM E CORR SEGS SC110220171302201713022017V         Novo (previa)                        EDUARDO SBARAINIPHA5311     9BHBG51DBFP370393              MANAUS6904222100000100266922   43,50AM
0260746948000112000100004601210000849           BRADESCOR COR DE SEGUROS LTDA110220171302201713022017V             Renovacao                  LEIDIANY FERREIRA FEIOOAL9444     9BD196271D2164349              MANAUS6909535500000100058777   43,50AM
0260746948000112000100004500040000850             AZUNAV CORR DE SEGUROS LTDA100220171102201711022017V         Novo (previa)               MILTON CONCEICAO DA SILVANEK5587     8AGCN48X0DR169692              MACAPA6890235000000100611611   43,50AP
0260746948000112000100004602710000849           BRADESCOR COR DE SEGUROS LTDA100220171102201711022017V         Novo (previa)                ERICLEI CASTRO FERNANDESPHL0681     8AGSU1920GR135047         ITACOATIARA6910400900000100058777   43,50AM
0260746948000112000100003912840000840          BALMEK COR DE SEG VIDA LTDA ME080220171102201711022017V             Renovacao             WALDIRLENE MOTA DE OLIVEIRAOAD7495     9BWAB45Z9D4126553            ALTAMIRA6903805000000100651982   43,50PA
0260746948000112000100004607250000849            J.C.NETO COR.E ADM.SEGS LTDA100220171102201711022017V         Novo (previa)                  JOSE ENIZAM DE AZEVEDONON4142     9BGPB69M0CB231136              MANAUS6902811300000100354945   43,50AM
0260746948000112000100004602730000849          ZONA FRANCA DAS AMERICAS-ASSES100220171102201711022017V                Outros               WANDERSON SOARES MARTINEZPHE7584     9BRBDWHE5G0261160              MANAUS6905702100000100364789   43,50AM
0260746948000112000100004602700000849          G G MOURA CORRETORA DE SEGUROS100220171102201711022017V                Outros                 JOSE MARIA GARCIA GOMESPHK6937     988226175HKA71664         ITACOATIARA6910107700000100319783   43,50AM
0260746948000112000100004604990000951           LUI CORRETORA SEGUROS SC LTDA100220171102201711022017V         Novo (previa)                         MAYKEL DA SILVAOAL2251     9BWDA45U4FT053590              MANAUS6908813000000100358550   43,50AM
0260746948000112000100004605000000849          G G MOURA CORRETORA DE SEGUROS100220171102201711022017V         Novo (previa)           MARIA DE FATIMA CUNHA BENFICAPHI6707     9BG148MK0HC401697              MANAUS6903705700000100319783   43,50AM
0260746948000112000100004607220000849          A R MENEZES JUNIOR COR DE SEGS100220171102201711022017V         Novo (previa)                MARINETE BARROSO MARTINSOXM5019     8AGSU19F0FR122316              MANAUS6902300300000100116670   43,50AM
0260746948000112000100004607230000840          PARVI CORRETORA DE SEGUROS LTD100220171102201711022017V                Outros             MARIA LETICIA MESSIAS ROSASNOR6591     9BD196271E2222105              MANAUS6904000000000100538329   43,50AM
0260746948000112000100004404220000851          UNIVERSO CORRETORA DE SEGS LTD080220170902201710022017V          Substituicao                 RAIMUNDA PEREIRA VILELAAVI0000     93Y9SR3H5HJ667233              TUCUMA6838500000000100169684   43,50PA
0260746948000112000100004603720000840          FIGUEIRA CORRETORA DE SEGS LTD080220171002201710022017V                Outros                     MIRZA DE PAULA LINSPHW3010     WDDSJ4DWXGN308775              MANAUS6905707000001020141700   43,50AM
0260746948000112000100004604950000840          TAUMATURGO E VEIGA COR DE SEGS090220171002201710022017V             Renovacao                MARENILDO BENTES COLARESOXM8527     KNAFZ414BF5294428              MANAUS6906002000000100678473   43,50AM
0260746948000112000100004500000000865                  AUTO CORR DE SEGS LTDA100220171002201710022017V         Novo (previa)              MARCOS JOSE RAMOS FREITAS OTT2705     8AJFY29G9E8563134   CANAA DOS CARAJAS6853700000000100321541   43,50PA
0260746948000112000100004603700000849          A R MENEZES JUNIOR COR DE SEGS090220171002201710022017V         Novo (previa)         JULIAN DE JESUS GIRALDO GIRALDOOXM3844     9BWAB45Z2E4167625              MANAUS6903700000000100116670   43,50AM
0260746948000112000100004603710000849            J.C.NETO COR.E ADM.SEGS LTDA090220171002201710022017V         Novo (previa)    TELMARCIA DAYENE SILVA DO NASCIMENTOPHB8092     9BFZD55P9FB801754              MANAUS6903509000000100354945   43,50AM
0260746948000112000100004602670000966          11PONTO11-COR SEGS & PROTECAO 090220171002201710022017V         Novo (previa)         JENNIFER LOPES REBELLO DE SOUZAPHI7742     9BD19627NH2297990              MANAUS6905001000000100731803   43,50AM
0260746948000112000100004101850000841          PARABUCANO COR DE SEGS SS LTDA090220171002201710022017V         Novo (previa)    ZIRNOLIA DE NAZARE CORDOVAL CARVALHOQEC3551     9BWAB45Z4G4055492               BELEM6606356000000100377244   43,50PA
0260746948000112000100004101840000841          PARABUCANO COR DE SEGS SS LTDA090220171002201710022017V         Novo (previa)   ANA CAROLINA CAMPOS CARVALHAES GOUVEAJHB1660     9BD19240RA3096123               BELEM6603317000000100377244   43,50PA
0260746948000112000100004101810000850           ZUITH AQUINO COR DE SEGS LTDA090220171002201710022017V         Novo (previa)                       ELIZA SOUZA SILVAOTX1102     3N1DK3CD9EL219614               BELEM6663511000000100634450   43,50PA
0260746948000112000100004607190000849          ROSAN E NUNES COR DE SEGS LTDA090220171002201710022017V         Novo (previa)                 FRANCISCO CRUZ DA SILVAPHI3521     9BWJB45U5GP090237              MANAUS6900000000001020185669   43,50AM
0260746948000112000100004500030000661           BRADESCOR COR DE SEGUROS LTDA090220171002201710022017V         Novo (previa)                     LUIS HENRIQUE RAMBONEV0598     9BWAB05Z4A4039471              MACAPA6890341900000100058777   43,50AP
0260746948000112000100004404250000841              MURILO DE CASTRO VITORIANO090220171002201710022017V         Novo (previa)                    CARLOS ROBERTO SILVAJHT1029     8AJFZ29G296069695            XINGUARA6838500000001020265239   43,50PA
0260746948000112000100004404290000847          VALE CORRETORA DE SEGUROS EIRE090220171002201710022017V         Novo (previa)                     JOSE MARIA SCARPATIQEN9371     93XSNKB8THCG26546         PARAGOMINAS6862515000001020308230   43,50PA
0260746948000112000100004404040000835          ANAPOLINA ADM CORR DE SEGS LTD070220170802201709022017V         Novo (previa)                          POLYANA ARPINIAXP1768     3C6UD5FL6CG338241              TUCUMA6834500000000100318647   43,50PA
0260746948000112000100004603660000849            J.C.NETO COR.E ADM.SEGS LTDA080220170902201709022017V         Novo (previa)        MARIO CLODOALDO BATISTA DA COSTAPHK8838     988611156GK069257              MANAUS6909774400000100354945   43,50AM
0260746948000112000100004607040000849          A R MENEZES JUNIOR COR DE SEGS080220170902201709022017V         Novo (previa)                DE BIAZZI DE BIAZZI LTDANPB0099     93HGM2620BZ104776              MANAUS6905522000000100116670   43,50AM
0260746948000112000100004607060000840            VALFREDO RAIMUNDO ALVES PAES080220170902201709022017V         Novo (previa)             JOAQUIM PEDRO MORAIS RETROZPHG3152     8AGSU1920GR129370              MANAUS6905883000000100087181   43,50AM
0260746948000112000100004604870000849          MMA CORRETORA DE SEGUROS LTDA 080220170902201709022017V         Novo (previa)                   J ANDRADE DA COSTA MEPHA4157     9BGKS48B0FG175895              MANAUS6902913000001020171420   43,50AM
0260746948000112000100004101740000850           ZUITH AQUINO COR DE SEGS LTDA080220170902201709022017V         Novo (previa)                  IRINEU CASTRO DE ASSISOSW3238     VF7SA5FMXDW501534               BELEM6607515000000100634450   43,50PA
0260746948000112000100004101760000850           BRADESCOR COR DE SEGUROS LTDA080220170902201709022017V         Novo (previa)          ANTONIA DE NAZARE PINTO MORAESQDB9880     93HGM6690FZ106975               BELEM6661315000000100058777   43,50PA
0260746948000112000100004605850000849          S BORGES ALCANTARA COR.DE SEGS080220170902201709022017V         Novo (previa)                   BRUNO BORGES DA COSTAOAL0160     9BGRP69X0CG264306           BOA VISTA6931871800000100577685   43,50RR
0260746948000112000100004101710000853             PROSEG ADM COR SRGS LTDA ME080220170902201709022017V         Novo (previa)            RUBENS LEVY CAVALCANTE ALVESOFS0290     9BD11818JC1190135               BELEM6663553000000100110523   43,50PA
0260746948000112000100004101790000841          PARABUCANO COR DE SEGS SS LTDA080220170902201709022017V         Novo (previa)   ANA CAROLINA CAMPOS CARVALHAES GOUVEAQDP7540     9BHBG41DBFP373212               BELEM6603317000000100377244   43,50PA
0260746948000112000100004805830000849          S BORGES ALCANTARA COR.DE SEGS090220170902201709022017V         Novo (previa)                  WELBER NOGUEIRA BARROSNUL5008     8AJBA3CD0G1568001           BOA VISTA6930738000000100577685   43,50RR
0260746948000112000100004404200000851          SN CORRETORA DE SEGUROS LTDA M080220170902201709022017V         Novo (previa)          THALLES MATHEUS XAVIER ALMEIDAOTS1650     8AJFY29G9D8543304            XINGUARA6855569000001020305419   43,50PA
0260746948000112000100004404230000851          UNIVERSO CORRETORA DE SEGS LTD080220170902201709022017V         Novo (previa)                        VANDIR FERNANDESOTI1430     8AJEX32G6D4035670              TUCUMA6838500000000100169684   43,50PA
0260746948000112000100003809730000849                ADICIONAL CORR SEGS LTDA080220170902201709022017V         Novo (previa)               CLEBER FERNANDES OLIVEIRANES3091     8AJFY22GXF8017549            ITAITUBA6818047000000100447161   43,50PA
0260746948000112000100004404270000626          CHEROKEE ADM.E COR.DE SEGS.LTD080220170902201709022017V         Novo (previa)                GUSTAVO LONGATTI SANTANAOQM5757     9BFZB55P6E8879393              MARABA6850829000000100339041   43,50PA
0260746948000112000100004604730000849            J.C.NETO COR.E ADM.SEGS LTDA040220170602201708022017V         Novo (previa)        MARIA DE LOURDES DE SOUZA CORREAPHK1406     9BHBG51BAHP630239              MANAUS6904436000000100354945   43,50AM
0260746948000112000100004404110000851          UNIVERSO CORRETORA DE SEGS LTD060220170702201708022017V         Novo (previa)      NAIR FRANCISCA PEREIRA DE CARVALHOOTR8127     93XJYKH8WFCE16442            REDENCAO6855000000000100169684   43,50PA
0260746948000112000100004600960000849          JAMF CORRETORA DE SEGUROS LTDA070220170802201708022017V         Novo (previa)                   ADRIANA LIMA TEIXEIRAOAO5229     9BD27804PD7551020              MANAUS6901558500000100409596   43,50AM
0260746948000112000100004600980000849           BRADESCOR COR DE SEGUROS LTDA070220170802201708022017V             Renovacao                 FLAVIANE GOMES DA SILVAOXM9831     94DTBAL10EJ349523              MANAUS6909510200000100058777   43,50AM
0260746948000112000100004404060000851           SECURE SELL COR E ADM DE SEGS070220170802201708022017V         Novo (previa)                    BOLIVAR JOSE RIBEIROPSQ1281     9BGKT69R0GG201731              TUCUMA6838500000000100396931   43,50PA
0260746948000112000100004600910000849          TAMUZ CORRETORA DE SEGUROS S/S060220170802201708022017V         Novo (previa)DISFRUTA COMERCIO DE HORTIFRUTIGRANJEIROJXU4571     9BD197132E3160470              MANAUS6909349900000100580082   43,50AM
0260746948000112000100004602590000849          MMA CORRETORA DE SEGUROS LTDA 070220170802201708022017V         Novo (previa)         LYCIA FABIOLA SANTOS DE ANDRADEJWF9349     9BGKT69L0EG216648              MANAUS6905714000001020171420   43,50AM
0260746948000112000100004602580000558           BRADESCOR COR DE SEGUROS LTDA070220170802201708022017V         Novo (previa)     MANOEL ARMANDO RETTO DE PAULA COSTAPHB6880     93HFB9640FZ221324              MANAUS6905053000000100058777   43,50AM
0260746948000112000100004602600000840          LESLEY ADM.COR.DE SEGS S/C LTD070220170802201708022017V         Novo (previa)          LUIZ CARLOS RODRIGUES TEIXEIRAOAC0814     9BRK19BT1D2008497              MANAUS6904604000000100319252   43,50AM
0260746948000112000100004602610000840          BALMEK COR DE SEG VIDA LTDA ME070220170802201708022017V         Novo (previa)               KELSON DE ALMEIDA BARROSONOY6485     93HGM2610BZ209451              MANAUS6903805000000100651982   43,50AM
0260746948000112000100004604810000849          ROSAN E NUNES COR DE SEGS LTDA070220170802201708022017V         Novo (previa)                  CLEVES DA SILVA ARAUJOPHH7838     9BD57837SGB037069              MANAUS6908665900001020185669   43,50AM
0260746948000112000100004604840000849          MMA CORRETORA DE SEGUROS LTDA 070220170802201708022017V         Novo (previa)               SAMARA BARBOSA DE MENEZESOAK5046     3FAFP4EK3CM192402              MANAUS6908309000001020171420   43,50AM
0260746948000112000100004403860000643               PATZLAFF COR DE SEGS LTDA060220170802201708022017V         Novo (previa)     SANTA RITA TRANSPORTES LACTEOS LTDAMWK6039     9BM6953048B565665 OURILANDIA DO NORTE6839000000000100415928   43,50PA
0260746948000112000100004100840000280          BRQUALY ADM E CORR DE SEGUROS 070220170802201708022017V         Novo (previa)             MUNDO DO VIDRACEIRO LTDA MEQDJ1727     9531M52P6GR607828               BELEM6608781000000100434442   43,50PA
0260746948000112000100004101610000838          GEDALIS CORRETORA DE SEGUROS L070220170802201708022017V         Novo (previa)                  LUCIANA DE SOUZA RAMOSPUV0848     9BWAA45Z3E4169483               BELEM6606016000000100687391   43,50PA
0260746948000112000100004603640000849          ROSAN E NUNES COR DE SEGS LTDA070220170802201708022017V         Novo (previa)                 EUGENIA OLIMPIO MENEZESPHF5978     1C4RJFBG6FC756716              MANAUS6905000100001020185669   43,50AM
0260746948000112000100004603630000849          G G MOURA CORRETORA DE SEGUROS070220170802201708022017V         Novo (previa)             AMANDA MAMED DE GUSMAO LOBONOY9508     9BWAA05U2BP050511              MANAUS6907924000000100319783   43,50AM
0260746948000112000100004603620000849          G G MOURA CORRETORA DE SEGUROS070220170802201708022017V         Novo (previa)                MANOEL RODRIGUES MACHADOOAO5022     9BGKS69B0EG322841              MANAUS6903053000000100319783   43,50AM
0260746948000112000100004404130000851          SN CORRETORA DE SEGUROS LTDA M070220170802201708022017V         Novo (previa)               RENACIN RODRIGUES DE LIMAPQX8868     9BG148LA0HC401101            XINGUARA6855509500001020305419   43,50PA
0260746948000112000100004404160000847           BRADESCOR COR DE SEGUROS LTDA060220170802201708022017V         Novo (previa)                LEONARDO SILVA DE CASTROOSY4061     9BWAB45Z5D4140286         PARAGOMINAS6862617000000100058777   43,50PA
0260746948000112000100004604770000854          AURECOSTA CORR SEGS VIDA LTDA 060220170702201707022017V         Novo (previa)            CIVILCORP INCORPORACOES LTDAPHM8728     9BMWF4FW2HM002850              MANAUS6906000000001020314973   43,50AM
0260746948000112000100004600900000849          JAMF CORRETORA DE SEGUROS LTDA060220170702201707022017V         Novo (previa)              THOMAS JEFFERSON R PEREIRAPHH8877     95PJU81DBGB029670              MANAUS6905700200000100409596   43,50AM
0260746948000112000100004603590000849            J.C.NETO COR.E ADM.SEGS LTDA060220170702201707022017V         Novo (previa)                       WANDELSON FREITASNOV0622     3VWDJ2160DM090635              MANAUS6903053000000100354945   43,50AM
0260746948000112000100004603580000840          ARTE REAL CORRETORA DE SEGUROS060220170702201707022017V      Reducao franquia             ADRIANO PINTO ANTUNES COSTAPHJ7771     9BD19713MG3286240              MANAUS6905540000000100644226   43,50AM
0260746948000112000100003912820000850          NIPPON HASEGAWA COR SG VIDA LT060220170702201707022017V         Novo (previa)                 NEUZA ALVES DE OLIVEIRAQDS4063     9BGKR48G0GG159222               ANAPU6836500000000100504815   43,50PA
0260746948000112000100004101360000666           BRADESCOR COR DE SEGUROS LTDA060220170702201707022017V         Novo (previa)                 JOAO IVALDO C DE MORAESQDO9089     93HRV2850GZ135681          ANANINDEUA6869000000000100058777   43,50PA
0260746948000112000100004603610000840           SEGURAR SERV E COR DE SEGUROS060220170702201707022017V         Novo (previa)            ANDERSON DE OLIVEIRA MOREIRAAZE4649     9BWAA45U6FP152407              MANAUS6907901500001020143575   43,50AM
0260746948000112000100004502800000969          MINUTO CORRETORA DE SEGUROS S 060220170702201707022017V         Novo (previa)                JANIO CONCEICAO DA SILVANSV4054     8AGCB48X0BR226644             TUCURUI6847300000000100230758   43,50PA
0260746948000112000100004102820000838          IMPERSEG CORRETORA DE SEGUROS 060220170702201707022017V         Novo (previa)             JUSSANE DE OLIVEIRA KESSLERQLO1203     9BD57824UGB060762              MACAPA6890006000000100728543   43,50AP
0260746948000112000100004404090000851          UNIVERSO CORRETORA DE SEGS LTD060220170702201707022017V         Novo (previa)                   RUBENS NUNES DA SILVAJUZ5196     9BG138KJ08C409088            REDENCAO6855000000000100169684   43,50PA
0260746948000112000100004404100000558           BRADESCOR COR DE SEGUROS LTDA060220170702201707022017V         Novo (previa)                 VANDERLEIA SOARES DINIZNSG9279     9BRBB48E3A5101167            REDENCAO6855100000000100058777   43,50PA
0260746948000112000100003711820000838            M & K COR DE SEGUROS LTDA ME060220170702201707022017V         Novo (previa)        ANTONIO WALDOMIRO BUENO DO PRADOQDU1330     9BGKS48B0FG188493            SANTAREM6801000000001020123329   43,50PA
0260746948000112000100003912860000852          GALVAO SOEIRO ADM.E COR.DE SEG040220170602201706022017V         Novo (previa)       MARCOS ROGERIO CACHOEIRA DA SILVAFSL8560     9BGPB69M0EBZ72697            ALTAMIRA6838300000000100591301   43,50PA
0260746948000112000100003912810000850          NIPPON HASEGAWA COR SG VIDA LT030220170602201706022017V             Renovacao                    MARIA PASCOA PEREIRAQDD8861     9BWAG4125FTS55272               ANAPU6836500000000100504815   43,50PA
0260746948000112000100004604640000849          TATIANE DA S S CORR DE SEG EPP030220170602201706022017V         Novo (previa)                 MANAOS TRANSPORTES LTDAOTM3935     93W244F14E2136533              MANAUS6908223000001020330553   43,50AM
0260746948000112000100004604650000849          TATIANE DA S S CORR DE SEG EPP030220170602201706022017V         Novo (previa)                 MANAOS TRANSPORTES LTDAOTC0004     93W245G34E2133367              MANAUS6908223000001020330553   43,50AM
0260746948000112000100004602550000849            J.C.NETO COR.E ADM.SEGS LTDA040220170602201706022017V             Renovacao        A C M TRANSPORTES E TURISMO LTDANOS0381     9BHBG51CAEP242767              MANAUS6908655600000100354945   43,50AM
0260746948000112000100004604710000849          ROSAN E NUNES COR DE SEGS LTDA040220170602201706022017V         Novo (previa)              RAFAEL LUAN ANDRADE SANTOSNPA7562     8AP196272E4058631              MANAUS6906004000001020185669   43,50AM
0260746948000112000100004600850000840          VIA EGIDE COR.ADM.E CONSULT.DE040220170602201706022017V         Novo (previa)               THENNYLLE ANDRADE NAVARRONOV2443     93HGE6830BZ114126              MANAUS6902830600000100614645   43,50AM
0260746948000112000100004600890000849          CONSULCOR ADM CORT SEGS  IMOVE040220170602201706022017V         Novo (previa)                   JULIANA LIMA DE SOUZANOU7821     WV1DB42HXEA028269              MANAUS6902912000000100398250   43,50AM
0260746948000112000100004603550000849          G G MOURA CORRETORA DE SEGUROS040220170602201706022017V         Novo (previa)            JOAO MARCOS NASCIMENTO LOPESPHA4063     3VWL96166EM048631              MANAUS6902011000000100319783   43,50AM
0260746948000112000100004602520000849          CONSULCOR ADM CORT SEGS  IMOVE040220170602201706022017V         Novo (previa)             TAFAREL DOS SANTOS DA COSTAOAO4017     9BGSU19F0DB162658PRESIDENTE FIGUEIRED6973500000000100398250   43,50AM
0260746948000112000100004601200000840           CCG CORRETORA DE SEGUROS LTDA030220170602201706022017V         Novo (previa)                  ROVANDA GUIMARAES SENAPHI4944     99ADJ78V3G4001945              MANAUS6904591300001020272790   43,50AM
0260746948000112000100004101400000958           BRADESCOR COR DE SEGUROS LTDA030220170602201706022017V         Novo (previa)           RENNER ALBERT FERNANDES COSTAQDY6660     93HFB9640GZ227277               BELEM6665031000000100058777   43,50PA
0260746948000112000100004605670000849          S BORGES ALCANTARA COR.DE SEGS040220170602201706022017V         Novo (previa)                 LUCIANO DE SOUSA CASTRONAU7467     8AJBA3FS4H0233132           BOA VISTA6930602500000100577685   43,50RR
0260746948000112000100004101280000850          PARABUCANO COR DE SEGS SS LTDA040220170602201706022017V         Novo (previa)        ANTONIO DIEGO PEREIRA DE FREITASOCA1316     9BWDA05UXCT071421               BELEM6609354300000100377244   43,50PA
0260746948000112000100003809720000644          OESTE CORRETORA DE SEGUROS LTD020220170602201706022017V         Novo (previa)                     PRELAZIA DE ITAIUBAOTA2840     8AJFY22G0D8003849            ITAITUBA6818002000000100109916   43,50PA
0260746948000112000100004403970000841          MARCORR COR E ADM DE SEGS LTDA040220170602201706022017V          Substituicao                ROBERTA MARIA DOS SANTOSOLJ7379     8AJFY29G9D8521612              TUCUMA6838500000000100374130   43,50PA
0260746948000112000100004403980000841          MARCORR COR E ADM DE SEGS LTDA040220170602201706022017V         Novo (previa)                   DENISIA FERREIRA SENANKQ9269     8AWPB45Z5BA544104              TUCUMA6838500000000100374130   43,50PA
0260746948000112000100004403960000847          BGSB CORRETORA DE SEGUROS LTDA040220170602201706022017V         Novo (previa)                ELZIMAR BEZERRA DA SILVAOSW9498     9BGJB69Z0DB335483         PARAGOMINAS6862636200000100560171   43,50PA
0260746948000112000100004404000000841          MARCORR COR E ADM DE SEGS LTDA040220170602201706022017V         Novo (previa)                 MARCOS GOMES DE FREITASQDJ8260     9BWAB45Z5F4003769            XINGUARA6855501100000100374130   43,50PA
0260746948000112000100004101520000850             AZUNAV CORR DE SEGUROS LTDA030220170402201705022017V         Novo (previa)                            FABIO VERCKANEK7664     9BRBD48E3D2587821              MACAPA6890336700000100611611   43,50AP
0260746948000112000100003912790000836          LOJACORR S A REDE DE COR DE SE030220170402201705022017V         Novo (previa)  ROMULO TRANSPORTES RODOVIARIOS LTDA MEJIG7787     9BFYCEJX0BBB64299        MEDICILANDIA6814597000000100438502   43,50PA
0260746948000112000100003912780000850          NIPPON HASEGAWA COR SG VIDA LT020220170402201705022017V         Novo (previa)                EDNALDO COSTA DE ALMEIDAOTX3693     8AJFY29G7E8555856               ANAPU6836500000000100504815   43,50PA
0260746948000112000100004602540000849          ROSAN E NUNES COR DE SEGS LTDA030220170402201705022017V         Novo (previa)                  LIDIANE BARRONCAS GAMAOAE2378     KNAKU811BC5206043              MANAUS6903700000001020185669   43,50AM
0260746948000112000100004101030000850               JUCA CORR DE SEGS SC LTDA030220170402201705022017V         Novo (previa)           CARLOS ALBERTO BERNARDES PENANSH3427     93YBSR7GHAJ306269               BELEM6608719000000100285684   43,50PA
0260746948000112000100004600790000849          CONSULCOR ADM CORT SEGS  IMOVE030220170402201705022017V         Novo (previa)           ELZIMA VASCONCELOS DOS SANTOSOAH5450     8A1LBMC25BL842918              MANAUS6905820500000100398250   43,50AM
0260746948000112000100004600780000849          CONSULCOR ADM CORT SEGS  IMOVE030220170402201705022017V         Novo (previa)MERCURY SISTEMAS INTELIGENTES DE MONITOROAC5872     9BD979028DS019203              MANAUS6903641000000100398250   43,50AM
0260746948000112000100004403880000851          UNIVERSO CORRETORA DE SEGS LTD020220170402201705022017V         Novo (previa)            MARLY RODRIGUES DA CONCEICAOOTN4796     93XHYKB8TFCE93175            REDENCAO6855000500000100169684   43,50PA
0260746948000112000100004101410000850          BRONI CORRETORA DE SEGUROS LTD030220170402201705022017V         Novo (previa)        BENEDITO DO SOCORRO CAMPOS CUNHAQDP9234     9BRB29BT8H2122533          ANANINDEUA6714004000000100419621   43,50PA
0260746948000112000100004600800000849          ROSAN E NUNES COR DE SEGS LTDA030220170402201705022017V                Outros                ESSEMIEL DA SILVA BETCELNOU4024     9533A52P7BR138940              MANAUS6909919000001020185669   43,50AM
0260746948000112000100004604600000840           AMAZON DELTA COR.DE SEGS.LTDA010220170202201703022017V             Renovacao              FRANCILANE RIBEIRO PORTELAOAF5912     9BHBG51DAEP177838              MANAUS6900991900000100575984   43,50AM
0260746948000112000100004603450000849            J.C.NETO COR.E ADM.SEGS LTDA020220170302201703022017V         Novo (previa)               MARIA JOSE DE ARAUJO LIMANOO5248     93HGE68509Z116980              MANAUS6907466000000100354945   43,50AM
0260746948000112000100004603440000849          LESLEY ADM.COR.DE SEGS S/C LTD020220170302201703022017V         Novo (previa)            HELLEN LUIZA MENEZES DE LIMAPHQ1111     WV1DB42H4GA009915              MANAUS6902008000000100319252   43,50AM
0260746948000112000100004603460000840           CSU CORRETORA DE SEGUROS LTDA020220170302201703022017V         Novo (previa)               PAULO CEZAR ARAUJO DUARTEPHI8774     9BHBG51CAGP551043              MANAUS6906002000000100637157   43,50AM
0260746948000112000100004600740000613          CORRETORA DE SEGUROS ASSURE RI020220170302201703022017V         Novo (previa)            ROSANGELA DOS REIS GUIMARAESNOL6301     93XXNKB8TECD84620              MANAUS6905546000000100378712   43,50AM
0260746948000112000100004604620000849          ROSAN E NUNES COR DE SEGS LTDA020220170302201703022017V         Novo (previa)               ELISABETE RUFINO DE JESUSPHF4002     9BG148FK0FC405896              MANAUS6908648500001020185669   43,50AM
0260746948000112000100004403870000851          MARCORR COR E ADM DE SEGS LTDA020220170302201703022017V         Novo (previa)                SAMUEL DOS SANTOS BARROSPGT2555     8AJFY29G7E8551564            XINGUARA6855501100000100374130   43,50PA
0260746948000112000100004403850000851          UNIVERSO CORRETORA DE SEGS LTD020220170302201703022017V         Novo (previa)                 ELIANA FIRMINA FERREIRAPXE7342     9BRBDWHE9G0296042              TUCUMA6838500000000100169684   43,50PA
0260746948000112000100004403810000609          MULTIPROTECAO ADM E CORR DE SE020220170302201703022017V         Novo (previa)                             SHI ZHUOZHIOBW6071     8AP372111C6026775   CANAA DOS CARAJAS6853700000001020157932   43,50PA
0260746948000112000100004603470000840          ATUANTE CENTER COR.DE SEGS.E G020220170302201703022017V          SubstituicaoSERV ESPECIAIS DE TRANS DO AMAZONAS LTDAPHQ1430     9bwag45u3hp057238              MANAUS6909001000000100198528   43,50AM
0260746948000112000100004101180000955           BRADESCOR COR DE SEGUROS LTDA020220170302201703022017V         Novo (previa) SOLANGE LIKAKO LINS TAKANASHI CONTARINIQDZ6921     9BHBH51DBFP508072               BELEM6605300000000100058777   43,50PA
0260746948000112000100004101200000850          BRONI CORRETORA DE SEGUROS LTD020220170302201703022017V         Novo (previa)                       RENATO NERY LOPESOFI9215     93HGM2520DZ102104               BELEM6663551000000100419621   43,50PA
0260746948000112000100004101220000841          SEKEL CORRETORA DE SEGS LTDA M020220170302201703022017V         Novo (previa)            ROSA MARIA CASTELLO DE SOUSAQDT0849     9BD17122ZG7551620               BELEM6662024000001020324227   43,50PA
0260746948000112000100004600760000840          TAUMATURGO E VEIGA COR DE SEGS010220170302201703022017V         Novo (previa)            RITA DE CASSIA CORREA PESSOAPHI4490     3GNCJ8CW6FL245493              MANAUS6905858100000100678473   43,50AM
0260746948000112000100003711810000870           BONSAI NORTE COR DE SEGS LTDA020220170302201703022017V         Novo (previa)           DANIEL BERRETTA MOREIRA ALVESOSY8811     9BGPB69M0CB337432            SANTAREM6804007000001020091117   43,50PA
0260746948000112000100004602450000840          SAN PAUL CORRETORA DE SEGUROS 010220170202201702022017V         Novo (previa)                 PAULINHA IND E COM LTDAOAM0632     935SLNFNWEB561333              MANAUS6904438000000100407674   43,50AM
0260746948000112000100004602480000849          G G MOURA CORRETORA DE SEGUROS010220170202201702022017V         Novo (previa)                      GEISA GOMES MACIELPHI4661     9BGKS48G0GG114510              MANAUS6905776000000100319783   43,50AM
0260746948000112000100004604550000849          MMA CORRETORA DE SEGUROS LTDA 010220170202201702022017V         Novo (previa)               CATIANA MALVEIRA DE SOUZAPHH1640     9BRK19BT7G2061516              MANAUS6906010300001020171420   43,50AM
0260746948000112000100004604560000849          JAMF CORRETORA DE SEGUROS LTDA010220170202201702022017V         Novo (previa)           LUCINEIDE MONTEIRO DOS SANTOSPHI2821     9BHBG51DAGP516584              MANAUS6908000000000100409596   43,50AM
0260746948000112000100004605470000849          S BORGES ALCANTARA COR.DE SEGS010220170202201702022017V         Novo (previa)                     RAMOS E SANTOS LTDANAV4987     8AFAR23L6HJ473850           BOA VISTA6930716000000100577685   43,50RR
0260746948000112000100004604580000840          TAMUZ CORRETORA DE SEGUROS S/S010220170202201702022017V             Renovacao             GILCILENE CARLOS CAVALCANTEOXM2696     jsajte54vf4100441              MANAUS6903679000000100580082   43,50AM
0260746948000112000100004603370000840          ZONA FRANCA DAS AMERICAS-ASSES010220170202201702022017V         Novo (previa)              VALDILENE RODRIGUES VIEIRAOAO9281     9BD19713MF3243562              MANAUS6902224500000100364789   43,50AM
0260746948000112000100004101080000657          KIRTON CORRETORA DE SEGUROS S 010220170202201702022017V         Novo (previa)             OSCARINA ANDRADE DOS SANTOSNSR8429     KNAJT811AB7156605               BELEM6681243000000100063860   43,50PA
0260746948000112000100004101090000850           BRADESCOR COR DE SEGUROS LTDA010220170202201702022017V         Novo (previa)        CLAUDIA CRISTINA DA SILVA SANTOSOFM0129     9BD195152C0246869               BELEM6682059500000100058777   43,50PA
0260746948000112000100004403780000643              RIO BRANCO COR DE SEG LTDA010220170202201702022017V         Novo (previa)          VANESSA APARECIDA HAHN FEITOSAQDM3438     9BWAA45U0GT027458              TUCUMA6838500000000400006912   43,50PA
0260746948000112000100004601190000849          ROSAN E NUNES COR DE SEGS LTDA010220170202201702022017V         Novo (previa)                     JOSE FRANCISCO LIMAOAJ7996     8AJFY29G7C8504676              MANAUS6903679000001020185669   43,50AM
0260746948000112000100004601170000849            J.C.NETO COR.E ADM.SEGS LTDA310120170102201701022017V         Novo (previa)                             H F MOTA MEPHB5005     9BD196263F2245744              MANAUS6900507000000100354945   43,50AM
0260746948000112000100004604490000849          ROSAN E NUNES COR DE SEGS LTDA310120170102201701022017V         Novo (previa)                 VALDEMIR PEREIRA JUNIORPHA4098     9BG148FK0EC448362              MANAUS6908444200001020185669   43,50AM
0260746948000112000100004600650000840          LESLEY ADM.COR.DE SEGS S/C LTD010220170102201701022017V             Renovacao                      VOLMAR RAMOS VIANAOAB7091     9BD578341E7804745              MANAUS6910000000000100319252   43,50AM
0260746948000112000100004600620000849            J.C.NETO COR.E ADM.SEGS LTDA310120170102201701022017V         Novo (previa)         FRANCISCO CARLOS COSTA DA SILVAJXP0012     8AWPB45Z8EA507990              MANAUS6909728800000100354945   43,50AM
0260746948000112000100004603340000849            J.C.NETO COR.E ADM.SEGS LTDA310120170102201701022017V         Novo (previa)            PAULO EUGENIO DO VAL TAVARESOXM9218     KNAGN419BF5524637              MANAUS6905708300000100354945   43,50AM
0260746948000112000100004603350000840          FROESPRESS CORRETORA DE SEGS L310120170102201701022017V         Novo (previa)                    PEDRO LOPES DA SILVAPHD5646     8AJFY22G5F8022173              MANAUS6905361000000100673331   43,50AM
0260746948000112000100004101380000850             AZUNAV CORR DE SEGUROS LTDA310120170102201701022017V         Novo (previa)                ELEN SAVIA MIRA DA SILVAQLN7138     9bgks69g0fg460207              MACAPA6890833000000100611611   43,50AP
0260746948000112000100004101370000850             AZUNAV CORR DE SEGUROS LTDA310120170102201701022017V         Novo (previa)             FRANCISCA DILZA DE OLIVEIRANEI1058     93HGE6750DZ216769             SANTANA6892500000000100611611   43,50AP
0260746948000112000100004403750000851           BRADESCOR COR DE SEGUROS LTDA310120170102201701022017V         Novo (previa)                MARA SILVIA MACEDO SILVAQES8690     9BWAH4128HT503697            REDENCAO6855435900000100058777   43,50PA
0260746948000112000100004403710000847          VALE CORRETORA DE SEGUROS EIRE310120170102201701022017V         Novo (previa)             JOAO MARINHO DA COSTA FILHOQEY9750     9BRBDWHE5H0332245         PARAGOMINAS6862750100001020308230   43,50PA
0260746948000112000100004403720000986          PILON & FABRICIO ADM E CORRETO310120170102201701022017V         Novo (previa)      RENATA MARIA CARDOSO SALATINI 3448HBR0343     9BFHF21C48B052954         PARAGOMINAS6862597000001020144288   43,50PA
0260746948000112000100004403730000841          AGIL CORRETORA DE SEGUROS LTDA310120170102201701022017V         Novo (previa)     ANTONIO JOSIVANIO CARVALHO DA SILVAJVH1156     3VWSH49M79M604540              TUCUMA6838500000001020134835   43,50PA
