0560746948000112000100004601800000849          G G MOURA CORRETORA DE SEGUROS050520170605201707052017V         Novo (previa)             MARIA MIRTS MULLER DA SILVAPHH4946     9BRBDWHEXH0313139              MANAUS6901012000000100319783   43,50AM
0560746948000112000100004601780000001           BRADESCOR COR DE SEGUROS LTDA040520170505201705052017P         Novo (previa)            ADEMIR XAVIER DE LIMA JUNIORNOQ5124     93HGM2660BZ201578              MANAUS6903700000000100058777   27,00AM
0560746948000112000100004601740000001           BRADESCOR COR DE SEGUROS LTDA020520170305201703052017P         Novo (previa)                      MARCIA ALVES PINTOPHE8387     9BHBG51CAFP464443              MANAUS6903700000000100058777   27,00AM
0560746948000112000100004612050000840          LESLEY ADM.COR.DE SEGS S/C LTD150520171605201716052017V                Outros                   JONATHAN ALVES MACIELPHD7732     9BGKS48V0HG218483              MANAUS6904072000000100319252   43,50AM
0560746948000112000100004601820000840          LESLEY ADM.COR.DE SEGS S/C LTD100520171105201711052017V         Novo (previa)                NAZIETE LEVER DOS SANTOSNPA1424     9bd197132d3076191         ITACOATIARA6910097000000100319252   43,50AM
0560746948000112000100004800560000851           BRADESCOR COR DE SEGUROS LTDA250520172605201726052017V         Novo (previa)         EDMUNDO PIRES DE CARVALHO FILHOOTQ4562     8AJFY29G4D8530055  SAO FELIX DO XINGU6838000000000100058777   43,50PA
0560746948000112000100004700980000841           RAYSEG COR E ADM DE SEGS LTDA020520170305201703052017V         Novo (previa)                        JOSE LIMA SOARESPHC3582     93XHYKB8TFCE05919  SAO FELIX DO XINGU6838000000001020004265   43,50PA
0560746948000112000100004120030000851          UNIVERSO CORRETORA DE SEGS LTD050520170805201708052017V         Novo (previa)                 VALDIR RIBEIRO DE SOUSAOTT3551     8AJFY22G5E8012807  SAO FELIX DO XINGU6838000000000100169684   43,50PA
0560746948000112000100004408910000841          AGIL CORRETORA DE SEGUROS LTDA100520171105201711052017V                Outros                      PAULO SAVIO VELOSOPQN6022     8AJBA3CD9G1570961  SAO FELIX DO XINGU6838000000001020134835   43,50PA
0560746948000112000100004800240000841           RAYSEG COR E ADM DE SEGS LTDA150520171605201716052017V         Novo (previa)                        JOSE LIMA SOARESPHC3582     93XHYKB8TFCE05919  SAO FELIX DO XINGU6838000000001020004265   43,50PA
0560746948000112000100004800290000841          LOJACORR S A REDE DE COR DE SE150520171605201716052017V         Novo (previa)         MARIA DO CARMO MANZOLLI CASSINIQEZ3980     8AJBA3CD4H1582002            ALTAMIRA6836500000000100438502   43,50PA
0560746948000112000100004109070000850          NIPPON HASEGAWA COR SG VIDA LT250520172505201725052017V         Novo (previa)            JHONNY MARCOS VIEIRA MIRANDAQDS5426     9BWDB45U4HT021500               ANAPU6836500000000100504815   43,50PA
0560746948000112000100004109030000850          NIPPON HASEGAWA COR SG VIDA LT170520171905201719052017V         Novo (previa)             FRANCISCO ALBERTO DE CASTROQEI3901     93XSNKB8TGCF19254            ALTAMIRA6836500000000100504815   43,50PA
0560746948000112000100004109830000850          NIPPON HASEGAWA COR SG VIDA LT180520171905201719052017V             Renovacao               AFONSO RODRIGUES DE MATOSQDN3194     8AJBA3CD4G1568857            ALTAMIRA6836500000000100504815   43,50PA
0560746948000112000100004800040000850          FERTY CORRET,ADM DE SEGUROS LT040520170505201705052017V         Novo (previa)                   ELISMAR MIRANDA MATOSQDD6889     9BD578377F7880858              PACAJA6848500000000100689271   43,50PA
0560746948000112000100004109050000641                UNICOOB COR DE SEGS LTDA180520171905201719052017V         Novo (previa)                   ISRAEL DE JESUS BRITOQDH8698     9BD57835TGB041778              PACAJA6848500000000100562670   43,50PA
0560746948000112000100004800170000847          CHAVES CAMPOS COR.E ADM.DE SEG090520171005201710052017V             Renovacao            GLEYSON ARAUJO TOMAZ BARROSOOBL8732     9BRBD48E8E2619714    VITORIA DO XINGU6838300000000100363391   43,50PA
0560746948000112000100004800060000850          NIPPON HASEGAWA COR SG VIDA LT040520170505201705052017V             Renovacao                 ADALBERTO NONATO ARANHAQDB3291     8AJFY29G4F8579775               ANAPU6836500000000100504815   43,50PA
0560746948000112000100004109060000850          NIPPON HASEGAWA COR SG VIDA LT230520172405201724052017V             Renovacao          FRANCINELIA BARBOSA DOS SANTOSOAJ9272     8AJFY29G2E8553948            ALTAMIRA6836500000000100504815   43,50PA
0560746948000112000100004109120000850          NIPPON HASEGAWA COR SG VIDA LT290520173005201730052017V         Novo (previa)                     TIAGO GOMES PEREIRAOTJ7014     9BD578341E7808575            ALTAMIRA6836500000000100504815   43,50PA
0560746948000112000100004800050000850          NIPPON HASEGAWA COR SG VIDA LT040520170505201705052017V         Novo (previa)            JHONNY MARCOS VIEIRA MIRANDAOSW2907     9BWAA45Z0E4025597               ANAPU6836500000000100504815   43,50PA
0560746948000112000100004800280000850          NIPPON HASEGAWA COR SG VIDA LT150520171605201716052017V         Novo (previa)               ELISEU DOS SANTOS MENEZESQDR0841     9BWAA45U4FT100894            ALTAMIRA6836500000000100504815   43,50PA
0560746948000112000100004109090000850          NIPPON HASEGAWA COR SG VIDA LT250520172605201726052017V         Novo (previa)                   WILSON GOMES DA SILVAOFI0734     9BG148FH0DC410772               ANAPU6836500000000100504815   43,50PA
0560746948000112000100004408400000835          SAGA CORRETORA DE SEGUROS LTDA290420170205201702052017V                Outros                 JANAINA BATISTA CARDOSOOTK3006     9BWLL45U0FP041810         PARAUAPEBAS6851500000000100138673   43,50PA
0560746948000112000100004408860000851           MOURA E REBOUCAS CORR DE SEGS100520171005201710052017V                Outros              OBEVALDO DE OLIVEIRA MOURAQDF8601     9BWAA45U8FP535068         PARAUAPEBAS6851500000001020270100   43,50PA
0560746948000112000100004409960000835          SANTA IZABEL ADM COR SEGS LTDA300520173005201730052017V                Outros                     TIAGO PRADO MIRANDAOTW4900     JMYLYV48WDJA01178         PARAUAPEBAS6851500000000100137413   43,50PA
0560746948000112000100004625500000849          A R MENEZES JUNIOR COR DE SEGS160520171705201717052017V         Novo (previa)            CARLOS ANDRE SANTOS DA CUNHAPHV7777     9BRBDWHE1G0275458              MANAUS6904008000000100116670   43,50AM
0560746948000112000100004625200000849          LESLEY ADM.COR.DE SEGS S/C LTD050520170605201707052017V             Renovacao                            E ALVES LIMAPHG8613     9BGKT69R0GG200535              MANAUS6904314000000100319252   43,50AM
0560746948000112000100004625680000849          LESLEY ADM.COR.DE SEGS S/C LTD260520172705201727052017V         Novo (previa)     ANTONIA ALVES BALDOINA DA S MAIA MEOAM5131     9BFWEA7B2EBS61883              MANAUS6904001000000100319252   43,50AM
0560746948000112000100004625210000849          ROSAN E NUNES COR DE SEGS LTDA050520170605201707052017V         Novo (previa)                    JURACI MOREIRA ROCHAOAC2995     9BRBD48E2D2573926              MANAUS6904509000001020185669   43,50AM
0560746948000112000100004625230000840          LESLEY ADM.COR.DE SEGS S/C LTD060520170805201708052017V         Novo (previa)       ELLEN DOS REMEDIOS DE VASCONCELOSPHH5285     9BD11970UG1136585              MANAUS6904526000000100319252   43,50AM
0560746948000112000100004625580000849          MMA CORRETORA DE SEGUROS LTDA 240520172505201725052017V         Novo (previa)             PAULA ROBERTA LIMA DE SOUZAPHC7856     93HGK5840FZ259218              MANAUS6904266000001020171420   43,50AM
0560746948000112000100004625520000854           BJB CORRETORA DE SEGUROS LTDA170520171805201718052017V         Novo (previa)              WALDIRENE DIAS DE OLIVEIRAPHF2024     9BFZB55H2F8524909              MANAUS6902300300000100558699   43,50AM
0560746948000112000100004625250000849          LESLEY ADM.COR.DE SEGS S/C LTD060520170805201708052017V         Novo (previa)             GLEICIANE CESAR DE OLIVEIRAOAL7397     9BGPB68M0GB346316              MANAUS6904866200000100319252   43,50AM
0560746948000112000100004625650000635          DC 10 CORRETORA DE SEGUROS LTD260520172705201727052017V         Novo (previa)     TEREZINHA DE JESUS MOREIRA DA COSTAOAI7738     9BGRP48F0DG114720              MANAUS6903706300000100484709   43,50AM
0560746948000112000100004625560000843          CONFIANCA TOTAL COR ADM DE SEG170520171805201718052017V         Novo (previa) MATUPI FABRICACAO DE LATICINIOS LTDA MEPHK6494     9BD2651JHH9072535              MANAUS6928000000000100551422   43,50AM
0560746948000112000100004625600000840          ABBA CORRETORA DE SEGUROS LTDA250520172605201727052017V         Novo (previa)                 ANDRE LUIZ PROENCA CRUZPHL0090     9BRBDWHE9H0327131              MANAUS6904737000000100706990   43,50AM
0560746948000112000100004625380000849          TATIANE DA S S CORR DE SEG EPP090520171005201710052017V         Novo (previa)          ANA CAROLINA DE ALMEIDA BARROSOXM5644     9BHBG51DBFP349676              MANAUS6903700000001020330553   43,50AM
0560746948000112000100004625330000840          LESLEY ADM.COR.DE SEGS S/C LTD090520171005201710052017V         Novo (previa)                   JONATHAN ALVES MACIELPHI1244     9BWAG45U4HT006838              MANAUS6904072000000100319252   43,50AM
0560746948000112000100004625310000849          ZONA FRANCA DAS AMERICAS-ASSES090520171005201710052017V          Substituicao               WANDERSON SOARES MARTINEZPHC4423     9BG148MK0FC419261              MANAUS6905702100000100364789   43,50AM
0560746948000112000100004625400000840          LESLEY ADM.COR.DE SEGS S/C LTD110520171205201712052017V             Renovacao        RAIMUNDO NONATO OLIVEIRA BARRETOOAF5454     93XJNKB8TDCD71645              MANAUS6909310800000100319252   43,50AM
0560746948000112000100004625070000849          CONSULCOR ADM CORT SEGS  IMOVE020520170305201703052017V         Novo (previa)                       JOAO COELHO BRAGAPHD1212     WMWXM7109F2A81149              MANAUS6903705700000100398250   43,50AM
0560746948000112000100004625670000840                   ARIPUANA COR SEG LTDA260520172705201729052017V         Novo (previa)            MARIA VALDETE CHAVES SERIQUEOAN3965     WV1DB42H4DA026497              MANAUS6903303000000100363600   43,50AM
0560746948000112000100004625700000849            SSG COR DE SEGS DE VIDA LTDA290520173005201730052017V         Novo (previa)                     RAFAEL GUEDES CESARPHJ5305     9bgkc48v0jg104749              MANAUS6904513000001020344899   43,50AM
0560746948000112000100004625690000849          MMA CORRETORA DE SEGUROS LTDA 270520172905201729052017V         Novo (previa)               EDIMAR MEDEIROS DE ARAUJOOAC1717     KMHEC41CBBA203837              MANAUS6904475200001020171420   43,50AM
0560746948000112000100004625110000849          ROSAN E NUNES COR DE SEGS LTDA030520170405201704052017V         Novo (previa)           JESSICA NASCIMENTO DE ALMEIDANPB4396     9BGRZ48F0BG233998              MANAUS6904817100001020185669   43,50AM
0560746948000112000100004625730000849          JAMF CORRETORA DE SEGUROS LTDA290520173005201730052017V         Novo (previa)                      RAFAEL TELES ROCHANPA9984     9BWAB41J2D4012233              MANAUS6904000000000100409596   43,50AM
0560746948000112000100004625130000849          CONSULCOR ADM CORT SEGS  IMOVE030520170405201704052017V             Renovacao     ANA CAROLINA LOMAS MARQUES PINHEIRONOQ0644     KMHJM81BBAU190074              MANAUS6905001000000100398250   43,50AM
0560746948000112000100004625750000840          M DA C LIBORIO DOS SANTOS COR 300520173105201731052017V         Novo (previa)                ENELRANY IPUCHIMA CABRALPHC4091     9BWAG4124FT584892              MANAUS6905809000001020337582   43,50AM
0560746948000112000100004625710000849          ATUANTE CENTER COR.DE SEGS.E G290520173005201730052017V         Novo (previa)                  GISELE GUEDES BANDEIRAOAC1814     9BFZF55P0D8480496              MANAUS6903857000000100198528   43,50AM
0560746948000112000100004625240000849            J.C.NETO COR.E ADM.SEGS LTDA060520170805201708052017V         Novo (previa)               ANDRE MATHEUS DE OLIVEIRANPB7258     93hgm2640bz106718              MANAUS6904477000000100354945   43,50AM
0560746948000112000100004625430000969          BIDU CORR DE SEGS E SERV DE IN120520171505201715052017V         Novo (previa)        MARCELO FERNANDES AUGUSTO JUNIORNOV2222     93xxtga2wecd00987              MANAUS6905502100000100227943   43,50AM
0560746948000112000100004625780000849          CONSULCOR ADM CORT SEGS  IMOVE300520173105201731052017V         Novo (previa)                     SERGIO ROBERTO DIASNOL0312     9BGJB69X0CB224350              MANAUS6904936000000100398250   43,50AM
0560746948000112000100004625180000866          INOVE INSURANCE CORR DE SEGS L050520170605201707052017V         Novo (previa)                              C S C MELONUK4370     9BD197163F3227745              MANAUS6905709000001020304250   43,50AM
0560746948000112000100004625740000849          LESLEY ADM.COR.DE SEGS S/C LTD300520173105201731052017V         Novo (previa)                   FRANCISCO ARAUJO LIMAPHA9196     9BG148FK0EC438334              MANAUS6904367000000100319252   43,50AM
0560746948000112000100004625790000639           LC MARINHO ADM E CORR SEGS SC300520173105201731052017V         Novo (previa)                    JOSE AUGUSTO FIRBEDAPHI4916     9BGKT69R0GG264497              MANAUS6905000100000100266922   43,50AM
0560746948000112000100004627110000849          G G MOURA CORRETORA DE SEGUROS240520172505201725052017V         Novo (previa)                PATRICIA DA SILVA CALDASPHJ5116     9brbdwhe7h0318931              MANAUS6904034000000100319783   43,50AM
0560746948000112000100004627260000849          G G MOURA CORRETORA DE SEGUROS260520172705201727052017V         Novo (previa)  TS I DE COMERCIO DE ETIQUETAS LTDA EPPNOU1435     9BGRP48F0CG115532              MANAUS6907842000000100319783   43,50AM
0560746948000112000100004627500000849          A R MENEZES JUNIOR COR DE SEGS310520173105201731052017V         Novo (previa)                ROSEMARY DE MORAES PINTOJXP2371     9BGXH68P0BC177109              MANAUS6904215000000100116670   43,50AM
0560746948000112000100004623630000849          LESLEY ADM.COR.DE SEGS S/C LTD100520171105201711052017V             Renovacao                     IZOLINA SEIXAS CRUZOAB6544     9BRBL42E9E4765510              MANAUS6904039000000100319252   43,50AM
0560746948000112000100004623440000849          TATIANE DA S S CORR DE SEG EPP050520170605201707052017V          Substituicao                RAFAEL DE OLIVEIRA SILVAOAK8028     93YBSR7RHDJ447961              MANAUS6907506000001020330553   43,50AM
0560746948000112000100004623680000840          ANAUE ADM.E COR.DE SEGUROS LTD100520171105201711052017V         Novo (previa)              JOSENEY FRANCO DE OLIVEIRAPHI2404     9BD57834UGB086288              MANAUS6900831000000100478636   43,50AM
0560746948000112000100004623540000849          CONSULCOR ADM CORT SEGS  IMOVE080520170905201709052017V         Novo (previa)               GILBERTO AMARAL DIAS NETOPHF5234     9BF19716TF3245053              MANAUS6905811300000100398250   43,50AM
0560746948000112000100004628060000001           BRADESCOR COR DE SEGUROS LTDA240520172405201724052017P         Novo (previa)                THIAGO ABECASSIS DA CRUZPHD4345     9BGKT69V0HG264101              MANAUS6903700000000100058777   27,00AM
0560746948000112000100004623970000854              SIEL ADM CORR DE SEGS LTDA200520172205201722052017V         Novo (previa)         MARCELLA ALONSO DUARTE TEIXEIRAOAH9813     94DVDUD40EJ653911              MANAUS6906018000000100308811   43,50AM
0560746948000112000100004623910000977            LF  POWER S COR DE SEGS LTDA190520172005201720052017V             Renovacao                LIVIA MARIA VIANEZ COSTAFHK8648     935SLNFNWDB548309              MANAUS6905040800000100464350   43,50AM
0560746948000112000100004623360000840          SOLART ADM E CORR DE SEGUROS L280420170305201703052017V         Novo (previa)                   ELTON MARQUES MENEZESPHM4780     9bg148ea0hc423948              MANAUS6908300000001020169400   43,50AM
0560746948000112000100004623850000840                   ARIPUANA COR SEG LTDA170520171805201718052017V         Novo (previa)             AGOSTINHO DA SILVA SOBRINHOOAO0920     9BWAA05U6CP100358              MANAUS6905561000000100363600   43,50AM
0560746948000112000100004623230000849            J.C.NETO COR.E ADM.SEGS LTDA280420172804201702052017V         Novo (previa)                  DILSON MARCOS KOVALSKIPHH1712     988611116GK042011              MANAUS6906036000000100354945   43,50AM
0560746948000112000100004627200000849            SSG COR DE SEGS DE VIDA LTDA250520172605201727052017V         Novo (previa)               TARIK DE ALBUQUERQUE LIMAPHJ6065     93HGH8840JZ104273              MANAUS6909377000001020344899   43,50AM
0560746948000112000100004623610000849          MLVS CORRETORA DE SEGUROS LTDA090520171005201710052017V         Novo (previa)                EZILENE BATISTA DE SOUZAOAM9046     9BD195152D0411819              MANAUS6908837000000100558354   43,50AM
0560746948000112000100004623890000840              ARANGA CORR SEGS VIDA LTDA180520171905201719052017V                Outros                    FRANCISCO JOSE FILHOJXB6031     9BD27833A72552566              MANAUS6908608100001020157738   43,50AM
0560746948000112000100004627210000849          G G MOURA CORRETORA DE SEGUROS250520172605201726052017V         Novo (previa)                CLAUDIVANIA EVA DA SILVAPHG3667     9brbdwhe1g0274858              MANAUS6908500000000100319783   43,50AM
0560746948000112000100004627190000849              WESLANY DE O FERNANDES EPP250520172605201726052017V         Novo (previa)                         MIN HO SUNG KIMPHH6244     93HFB9680GZ231184              MANAUS6906002000001020347014   43,50AM
0560746948000112000100004623600000849          TATIANE DA S S CORR DE SEG EPP090520171005201710052017V         Novo (previa)                  PAULO FRANCISCO VIEIRAPHI1618     988611116GK029038              MANAUS6906002000001020330553   43,50AM
0560746948000112000100004627360000849           BRADESCOR COR DE SEGUROS LTDA270520172905201729052017V         Novo (previa)             LEANDRO DO NASCIMENTO RAMOSPHD4875     9bfzh55l6j8491327              MANAUS6910134800000100058777   43,50AM
0560746948000112000100004623590000849            J.C.NETO COR.E ADM.SEGS LTDA090520171005201710052017V         Novo (previa)          ERWIN ROMMEL GODINHO RODRIGUESPHN5981     8AJJC8DD7H0250336              MANAUS6907025000000100354945   43,50AM
0560746948000112000100004623620000849            J.C.NETO COR.E ADM.SEGS LTDA100520171105201711052017V         Novo (previa)          MARIA JUCINEILE DA SILVA ABREUOAM6407     9BWAB05Z0D4099445              MANAUS6907783800000100354945   43,50AM
0560746948000112000100004623310000854           BJB CORRETORA DE SEGUROS LTDA020520170305201703052017V         Novo (previa)                     JOSE DE ARAUJO LIMANOO4345     9BFZE55P0B8587841              MANAUS6908500000000100558699   43,50AM
0560746948000112000100004623660000952          AJ SANCHES CORR DE SEGS LTDA M100520171105201711052017V         Novo (previa)          PAULO ROBERTO BERNARDI GALACIONOW4597     93HGE6750AZ211673              MANAUS6902838800001020185340   43,50AM
0560746948000112000100004627380000849          MMA CORRETORA DE SEGUROS LTDA 270520172905201729052017V         Novo (previa)              RAIMUNDO SOARES DE MENEZESPHG7935     9BGKS69G0GG232753              MANAUS6909924000001020171420   43,50AM
0560746948000112000100004623340000849          G G MOURA CORRETORA DE SEGUROS020520170305201703052017V         Novo (previa)TS INDUSTRIA DE COMERCIO DE ETIQUETAS LTNOY7591     8AFAR23L7EJ222380              MANAUS6907842000000100319783   43,50AM
0560746948000112000100004623940000854              SIEL ADM CORR DE SEGS LTDA190520172005201720052017V         Novo (previa)                   FELIPE DA SILVA SOUZANOZ5711     9BG148EP0EC450898              MANAUS6902903000000100308811   43,50AM
0560746948000112000100004623950000639           LC MARINHO ADM E CORR SEGS SC190520172005201720052017V         Novo (previa)                 EDUARDO MELENDEZ ZURITAOAL0218     9BG148LP0DC426389              MANAUS6908339000000100266922   43,50AM
0560746948000112000100004627400000849          G G MOURA CORRETORA DE SEGUROS290520173005201730052017V         Novo (previa)                              HUGO REYESNOR0188     9BWDB09N1AP009914              MANAUS6909816500000100319783   43,50AM
0560746948000112000100004627040000849            J.C.NETO COR.E ADM.SEGS LTDA230520172405201724052017V         Novo (previa)                  RONALDO VIEIRA MENEZESOAJ8670     9BWAA05Z1C4077164              MANAUS6908653100000100354945   43,50AM
0560746948000112000100004627050000849            J.C.NETO COR.E ADM.SEGS LTDA230520172405201724052017V         Novo (previa)                  MARILZA DE SOUZA SILVAOAL3514     9BD197132D3104200              MANAUS6908608300000100354945   43,50AM
0560746948000112000100004627030000849          SUANAM ADM DE CONS E COR DE SE230520172405201724052017V         Novo (previa)     FRANCIELE MARIA SARMENTO DOS SANTOSJXU0384     93HFA66308Z110242              MANAUS6906002000000100691992   43,50AM
0560746948000112000100004627090000849            J.C.NETO COR.E ADM.SEGS LTDA230520172405201724052017V         Novo (previa)          ALEXSUEL DA SILVEIRA RODRIGUESPHF7067     9BGJC69E0FB226940              MANAUS6906002000000100354945   43,50AM
0560746948000112000100004623730000849          G G MOURA CORRETORA DE SEGUROS120520171305201714052017V             Renovacao                NAYARA DA SILVA SILVEIRAOAH7575     93YHSR2L6DJ536707              MANAUS6909914500000100319783   43,50AM
0560746948000112000100004623820000843          CONFIANCA TOTAL COR ADM DE SEG170520171705201717052017V         Novo (previa) MATUPI FABRICACAO DE LATICINIOS LTDA MEPFE7768     9BFXEAEU6CBS86243              MANAUS6928000000000100551422   43,50AM
0560746948000112000100004623380000971          CATURELLI ADM.E COR.SEGUROS LT040520170505201705052017V         Novo (previa)                      CENIRA SOARES LIMANOU8490     9BGRM6910AG191834              MANAUS6907501000000100201081   43,50AM
0560746948000112000100004627410000849          CONSULCOR ADM CORT SEGS  IMOVE290520173005201730052017V         Novo (previa)      GABRIEL PADILHA DE OLIVEIRA GARCIANOP3487     9BGRZ4810AG145166              MANAUS6909519000000100398250   43,50AM
0560746948000112000100004627420000840          KANDASEG ELMATEK COR.DE SEGS.L300520173105201731052017V         Novo (previa)                          KEITOKU TOYODAPHA8267     9BD197163F3215680              MANAUS6904659000000100416061   43,50AM
0560746948000112000100004623550000849          JAMF CORRETORA DE SEGUROS LTDA080520170905201709052017V         Novo (previa)                  DANIEL HENRIQUE BETIOLPHD1664     93Y5SRF84HJ739121              MANAUS6906002000000100409596   43,50AM
0560746948000112000100004623430000840                   ARIPUANA COR SEG LTDA050520170605201707052017V         Novo (previa)       AFONSO LIGORIO DA SILVA FERNANDESOAA8313     9BGJC69X0CB261095              MANAUS6909804000000100363600   43,50AM
0560746948000112000100004623860000854           BJB CORRETORA DE SEGUROS LTDA170520171805201718052017V         Novo (previa)            ANA PRISCILLA GOMES DA SILVAOAB1801     9bhbg41dbep239400              MANAUS6909725700000100558699   43,50AM
0560746948000112000100004601910000840          SAN PAUL CORRETORA DE SEGUROS 300520173105201731052017V         Novo (previa)                   PAULO PEREIRA BATISTANPB0432     9BHBH41DBEP187945              MANAUS6905704000000100407674   43,50AM
0560746948000112000100004624200000849            J.C.NETO COR.E ADM.SEGS LTDA040520170505201705052017V         Novo (previa)        MARCO AURELIO DE OLIVEIRA DANTASOAM9848     94DJBAL10DJ449795              MANAUS6904101000000100354945   43,50AM
0560746948000112000100004411010000841          PARASUL ASSES.E COR.DE SEGS.LT310520173105201731052017V                Outros                 KLEBER PEREIRA NOGUEIRAQDK8286     9BRBDWHE5G0281070      RONDON DO PARA6863800000000100340545   43,50PA
0560746948000112000100004411020000652          SEG FORTE COR DE SEGS LTDA - M310520173105201731052017V                Outros                SULMAIS TRANSPORTES LTDANSX8794     9BSG4X200B3680509              MARABA6850403400000100527416   43,50PA
0560746948000112000100004409760000911          Y M C ADM E CORR DE SEGUROS EI240520172605201726052017V         Novo (previa)                SEBASTIAO GONCALVES DIASQDT3413     93Y5SR3JAHJ697581              MARABA6851341000001020272413   43,50PA
0560746948000112000100004409770000847           BRADESCOR COR DE SEGUROS LTDA260520172605201727052017V         Novo (previa)             ANA CLAUDIA CARVALHO PASSOSOTJ9650     9BGRP48F0DG202864              MARABA6850000500000100058777   43,50PA
0560746948000112000100004408790000841          PARASUL ASSES.E COR.DE SEGS.LT090520170905201709052017V                Outros                    JOAO LOPES DE ANGELOOTE9558     8AJDY22G8D7003465      RONDON DO PARA6863800000000100340545   43,50PA
0560746948000112000100004408810000841          IDENTIDADE CORRETORA SEGUROS L090520170905201709052017V         Novo (previa)                  ROMILDO ARRUDA RIBEIROQDG3564     8AJFY29G1F8587705              MARABA6850906000000100617814   43,50PA
0560746948000112000100004408990000835          SANTA IZABEL ADM COR SEGS LTDA110520171205201712052017V                Outros                    EMERSON PAES FEITOSAQEG3290     9BRBLWHE6G0037706              MARABA6850153000000100137413   43,50PA
0560746948000112000100004408930000635          Y M C ADM E CORR DE SEGUROS EI110520171105201711052017V                Outros               JOSIANE DA SILVA FERREIRAOTN9062     93YBSR86KDJ631541              MARABA6850114000001020272413   43,50PA
0560746948000112000100004408560000841          PARASUL ASSES.E COR.DE SEGS.LT040520170405201704052017V                Outros                   LINDINE BRASIL COELHOOFI9229     8AJFZ29G7B6136555     ABEL FIGUEIREDO6852700000000100340545   43,50PA
0560746948000112000100004408540000841          PARASUL ASSES.E COR.DE SEGS.LT040520170405201704052017V                Outros                  ELENILDE NUNES CORREIAOFV6074     9BG148FH0DC488411      RONDON DO PARA6863800000000100340545   43,50PA
0560746948000112000100004411000000841          PARASUL ASSES.E COR.DE SEGS.LT310520173105201731052017V                Outros              EDILENE BATISTA NANTES EPPJVI1614     9BM68815788592735              MARABA6852700000000100340545   43,50PA
0560746948000112000100004408230000841          PARASUL ASSES.E COR.DE SEGS.LT040520170405201704052017V             Renovacao              JUSSONIA DE ALEMIDA AGUIAROLH4730     9BG148MH0DC496575      RONDON DO PARA6863800000000100340545   43,50PA
0560746948000112000100004408800000853             PROSEG ADM COR SRGS LTDA ME090520170905201711052017V         Novo (previa)                   ILUSA DE SOUSA LOBATOQDY7593     9BG148PK0HC440266              MARABA6850241000000100110523   43,50PA
0560746948000112000100004409570000841          PARASUL ASSES.E COR.DE SEGS.LT240520172405201724052017V         Novo (previa)              ADALBERTO ALVES CAVALCANTEQDC8287     8AJFY29G4F8592509              MARABA6863800000000100340545   43,50PA
0560746948000112000100004408550000841          PARASUL ASSES.E COR.DE SEGS.LT040520170405201704052017V         Novo (previa)                 ANTONIO LOPES DE ANGELOQEN9780     8AJFA8CB5G2000124      RONDON DO PARA6863800000000100340545   43,50PA
0560746948000112000100004409260000849          MAE DO RIO ADM.E COR.DE SEGS.L180520171805201718052017V             Renovacao             ERTEMIZIA PINHEIRO DE SOUSAQDL0723     9BGKT48R0GG219051            ITAITUBA6818021000000100320897   43,50PA
0560746948000112000100004408870000849          MAE DO RIO ADM.E COR.DE SEGS.L100520171005201710052017V             Renovacao             ERTEMISIA PINHEIRO DE SOUZAQDL0723     9BGKT48R0GG219051            ITAITUBA6818021000000100320897   43,50PA
0560746948000112000100004409280000849          MAE DO RIO ADM.E COR.DE SEGS.L180520171805201718052017V             Renovacao            ANTONIO RONALDO SOARES NUNESQEJ2500     93XHYKH8WGCF20002            ITAITUBA6818037000000100320897   43,50PA
0560746948000112000100004409520000841          MARCORR COR E ADM DE SEGS LTDA240520172405201724052017V         Novo (previa)                    JAQUELINE MARIA LOFFOTV1097     93XHYKB8TFCE99704 OURILANDIA DO NORTE6839000000000100374130   43,50PA
0560746948000112000100004408580000841          MARCORR COR E ADM DE SEGS LTDA050520170505201705052017V                Outros                   DERLEIA DIAS DA SILVAQDT6210     8AJFX29G8F6607463 OURILANDIA DO NORTE6839000000000100374130   43,50PA
0560746948000112000100004408610000851          UNIVERSO CORRETORA DE SEGS LTD050520170505201705052017V                Outros                      HELIO DIAS MARQUESQDL6089     9BWJL45U7FP133598              TUCUMA6838500000000100169684   43,50PA
0560746948000112000100004409540000851          UNIVERSO CORRETORA DE SEGS LTD240520172405201725052017V         Novo (previa)                        JOAO LANGUINOTTIPAV3404     95PJ2812GJB000990              TUCUMA6838500000000100169684   43,50PA
0560746948000112000100004409600000841          AGIL CORRETORA DE SEGUROS LTDA240520172405201724052017V         Novo (previa)                   WANDERLEY DIAS VIEIRAOTU7879     93XHYKB8TECD85297              TUCUMA6838500000001020134835   43,50PA
0560746948000112000100004409680000851          UNIVERSO CORRETORA DE SEGS LTD250520172505201725052017V         Novo (previa)              PATRICIA DE CARVALHO SILVAOTU5070     9BD197132D3093264              TUCUMA6838500000000100169684   43,50PA
0560746948000112000100004408710000841              MURILO DE CASTRO VITORIANO080520170805201708052017V                Outros                 ANTONIO ROLDAO MISQUITAPAD4193     8AJFY22G1F8021618              TUCUMA6838500000001020265239   43,50PA
0560746948000112000100004411050000851          UNIVERSO CORRETORA DE SEGS LTD310520173105201731052017V         Novo (previa)                 VALDIR DE SOUSA PEREIRAQEP6490     9BD57834UGB052925              TUCUMA6838500000000100169684   43,50PA
0560746948000112000100004625360000849          ROSAN E NUNES COR DE SEGS LTDA090520171005201710052017V         Novo (previa)                PATRICIA BRASIL PINHIEROPHK3878     93Y9SR3JAHJ433993              MANAUS6901010000001020185669   43,50AM
0560746948000112000100004409790000850          DAROCHA CORRETORA DE SEGUROS L260520172605201727052017V         Novo (previa)       ABRAAO LINCOLN CARIPUNAS FERREIRAOGN2600     8AJYZ59GXB3055786 OURILANDIA DO NORTE6839000000001020163851   43,50PA
0560746948000112000100004409700000851          UNIVERSO CORRETORA DE SEGS LTD250520172605201726052017V         Novo (previa)                    TELVO ANTONIO TECHIOOMI8149     8AJFY29G8E8548284              TUCUMA6838500000000100169684   43,50PA
0560746948000112000100004409310000841              MURILO DE CASTRO VITORIANO190520171905201719052017V         Novo (previa)                 JOSE MAURICIO DE CASTROOMM7289     9BD578354E7817067              TUCUMA6838500000001020265239   43,50PA
0560746948000112000100004409290000841          AGIL CORRETORA DE SEGUROS LTDA180520171905201719052017V                OutrosESTRELA SERVICOS DE TRANSPORTES LTDA EPPQDW0323     9BWAG45U7HP114914              TUCUMA6838500000001020134835   43,50PA
0560746948000112000100004408830000841              MURILO DE CASTRO VITORIANO090520171005201710052017V         Novo (previa)              ANSELMO SOBRAL DE OLIVEIRAQEU6270     8AJHA8CD0G2576309              TUCUMA6838500000001020265239   43,50PA
0560746948000112000100004409780000851          UNIVERSO CORRETORA DE SEGS LTD260520172605201727052017V         Novo (previa)    LUCI REGINA BATISTA VIEIRA MAGALHAESOTX3080     8AJFY29G7D8544791              TUCUMA6838500000000100169684   43,50PA
0560746948000112000100004409490000851          UNIVERSO CORRETORA DE SEGS LTD230520172305201723052017V         Novo (previa)                      JOSE VENTURA ALVESQDS2940     93Y5SRD6GFT688548              TUCUMA6838500000000100169684   43,50PA
0560746948000112000100004408500000841              MURILO DE CASTRO VITORIANO030520170405201704052017V                Outros                PABLO MAURICIO DE CASTROOFP5632     9BG148FH0DC440026              TUCUMA6838500000001020265239   43,50PA
0560746948000112000100004408410000851          UNIVERSO CORRETORA DE SEGS LTD020520170205201702052017V                Outros                   JOAQUINA MARTINS ROSAONK4324     9BD15844AD6861725              TUCUMA6838500000000100169684   43,50PA
0560746948000112000100004409820000851          UNIVERSO CORRETORA DE SEGS LTD260520172705201727052017V         Novo (previa)                ORCIMAR ARANTES DO PRADOOTQ9118     8AJFY29G9E8553588              TUCUMA6838500000000100169684   43,50PA
0560746948000112000100004409410000841          AGIL CORRETORA DE SEGUROS LTDA220520172205201722052017V         Novo (previa)                 JONAS DA SILVA MEDEIROSOTZ5790     8AJFY29G3D8536333              TUCUMA6838500000001020134835   43,50PA
0560746948000112000100004408600000841          AGIL CORRETORA DE SEGUROS LTDA040520170605201706052017V                Outros                 CERAMICA MIILER LTDA MEOBX1344     93XJNKB8TCCC49154              TUCUMA6838500000001020134835   43,50PA
0560746948000112000100004409180000841          AGIL CORRETORA DE SEGUROS LTDA160520171705201717052017V         Novo (previa)                 CERAMICA MIILER LTDA MEOBX1344     93XJNKB8TCCC49154              TUCUMA6838500000001020134835   43,50PA
0560746948000112000100004409870000836          LOJACORR S A REDE DE COR DE SE270520172905201729052017V          Substituicao              LEIDLANNE PAULINO DA CUNHAOYB9347     9BD578341F7882851 SANTANA DO ARAGUAIA6856200000000100438502   43,50PA
0560746948000112000100004409660000859          AJRS CORRETORA DE SEGUROS LTDA240520172505201725052017V             Renovacao      MIGUEL RAYMUNDO DO NASCIMENTO NETOOTR7898     93XXTGA2WFCE10186            REDENCAO6855223000000100667421   43,50PA
0560746948000112000100004409930000851          UNIVERSO CORRETORA DE SEGS LTD290520172905201729052017V         Novo (previa)                   MOTOBRAS MOTORES LTDAOTU1188     9ADG0752EEM383964            REDENCAO6855214000000100169684   43,50PA
0560746948000112000100004408720000851          MARCORR COR E ADM DE SEGS LTDA050520170805201708052017V         Novo (previa)         WALDOMIRO DO NASCIMENTO MACHADOOTL4691     9BWKB05U0DP192893 SANTANA DO ARAGUAIA6856000000000100374130   43,50PA
0560746948000112000100004408730000851          MARCORR COR E ADM DE SEGS LTDA050520170805201708052017V         Novo (previa)             VALDIRENE GONCALVES SANTANAMWY3883     9BWDB45U7ET021518 SANTANA DO ARAGUAIA6856000000000100374130   43,50PA
0560746948000112000100004409220000841                 VERONA ADM COR SEG LTDA170520171705201717052017V         Novo (previa)                GILMAR GARCIA DE FREITASQER0070     9BD578341F7922765            XINGUARA6855501100000100144801   43,50PA
0560746948000112000100004409990000851          MARCORR COR E ADM DE SEGS LTDA300520173005201730052017V         Novo (previa)               LUCILENE PEREIRA DA SILVAOSH8013     9BG156MH0DC480874            XINGUARA6855501100000100374130   43,50PA
0560746948000112000100004409200000851          SN CORRETORA DE SEGUROS LTDA M170520171705201717052017V         Novo (previa)                  VERA LUCIA LAUX HAMANNQEW2070     9BG156MB0FC419697            XINGUARA6855536000001020305419   43,50PA
0560746948000112000100004409630000851          SN CORRETORA DE SEGUROS LTDA M240520172505201725052017V         Novo (previa)                 EDMAR DE OLIVEIRA NEVESOBV5326     93XJRKB8TCCB36380            XINGUARA6855508300001020305419   43,50PA
0560746948000112000100004408670000851          MARCORR COR E ADM DE SEGS LTDA080520170805201708052017V                Outros                          MARILENE GALONQKC6162     8AFAR23L4FJ358418            XINGUARA6855501100000100374130   43,50PA
0560746948000112000100004408690000851          SN CORRETORA DE SEGUROS LTDA M080520170805201708052017V                Outros                     EVERSON JULIO LEITEPQB0280     8AJFY29G9F8585037            XINGUARA6855512700001020305419   43,50PA
0560746948000112000100004409320000851          SN CORRETORA DE SEGUROS LTDA M180520171905201719052017V         Novo (previa)                     EVERSON JULIO LEITEQET3180     8AJBA3CD8H1583587            XINGUARA6855512700001020305419   43,50PA
0560746948000112000100004408480000841          CVK CORRETORA E ADM SEGUROS LT030520170405201704052017V                Outros                     ALINE ALVES LACERDAQDW3400     9BG148FA0FC429219  AGUA AZUL DO NORTE6853300000000100674702   43,50PA
0560746948000112000100004409940000851          SN CORRETORA DE SEGUROS LTDA M290520173005201730052017V                Outros                  VERA LUCIA LAUX HAMANNQEW2070     9BG156MB0FC419697            XINGUARA6855536000001020305419   43,50PA
0560746948000112000100004409830000851          SN CORRETORA DE SEGUROS LTDA M260520172705201727052017V         Novo (previa)                 JOAO BATISTA DUARTE- MEOTK5967     9BSP8X200E3862225            XINGUARA6855531000001020305419   43,50PA
0560746948000112000100004409920000845          SERRA DA MESA  CORR DE SEGS LT290520172905201729052017V                Outros           CLEUSA MARIA DE OLIVEIRA LIMAPQQ5427     8AFAR23L1FJ361390            XINGUARA6855520500000100724076   43,50PA
0560746948000112000100004408970000851          MARCORR COR E ADM DE SEGS LTDA110520171205201712052017V                Outros              ADALGIZA RAIMUNDA DE SOUSAOFT3601     9BWAA05Z4C4117754            XINGUARA6855501100000100374130   43,50PA
0560746948000112000100004409460000851          MARCORR COR E ADM DE SEGS LTDA230520172305201723052017V         Novo (previa)                 RAIMUNDO PIMENTEL SALESPQB0280     8AJFY29G9F8585037            XINGUARA6855501100000100374130   43,50PA
0560746948000112000100004408620000835               CORBREVE COR DE SEGS LTDA050520170605201707052017V                Outros                 MARCONES VIEIRA DE SENAOBU8881     93XJRKB8TCCB43943            XINGUARA6855528000000100627348   43,50PA
0560746948000112000100004800760000850             AZUNAV CORR DE SEGUROS LTDA310520173105201731052017V         Novo (previa)                    CLELIEL GOMES BORGESNEI2633     9BWAA45Z6E4011929              MACAPA6890366000000100611611   43,50AP
0560746948000112000100004800530000850             AZUNAV CORR DE SEGUROS LTDA250520172505201725052017V         Novo (previa)                       Z M L DA SILVA MENEP0679     9BM6881579B626839              MACAPA6890651900000100611611   43,50AP
0560746948000112000100004800380000850             AZUNAV CORR DE SEGUROS LTDA170520171805201718052017V         Novo (previa)                     INTERMAQ EIRELI EPPFSF3644     9536T8274CR236186              MACAPA6890127000000100611611   43,50AP
0560746948000112000100004700860000850           BRADESCOR COR DE SEGUROS LTDA290420170205201702052017V         Novo (previa)         MARLENE QUEIROZ SOARES TILLMANNNEI1561     9BFZK53A6DB475798              MACAPA6890682000000100058777   43,50AP
0560746948000112000100004800510000841          PGB ADM E CORRETORA DE SEGUROS200520172205201722052017V         Novo (previa)               LUCIMAR XIMENES DE FRANCANEQ7542     9BG156MD0EC422518              MACAPA6890837000001020196172   43,50AP
0560746948000112000100004800110000866          HARDY COR.E ADM.DE SEGS.GERAIS050520170605201707052017V         Novo (previa)            ALEXSANDRO FERNANDES PIMENTANEV6246     9BWAB45Z4B4101105              MACAPA6890287100000100344532   43,50AP
0560746948000112000100004106140000850          BRONI CORRETORA DE SEGUROS LTD180520171905201719052017V         Novo (previa) MARIA DAS GRACAS DOS SANTOS DE OLIVEIRAHEO3526     9BD195152C0147726               BELEM6681423000000100419621   43,50PA
0560746948000112000100004106170000874          TENEGE ADM E COR DE SEGUROS LT220520172205201722052017V         Novo (previa)         JOSE AURIMAR DOS SNATOS ANGELIMQEV4332     988226106HKB00895               BELEM6609390200000100415260   43,50PA
0560746948000112000100004106210000850           BRADESCOR COR DE SEGUROS LTDA240520172405201724052017V         Novo (previa)                 LUCAS DOS SANTOS FARIASNSN1031     9BD17201MA3552089               BELEM6865500000000100058777   43,50PA
0560746948000112000100004800520000850               JUCA CORR DE SEGS SC LTDA240520172505201725052017V         Novo (previa)                  IVANDI SANTANA DA CRUZOTT4219     935SLYFYYEB529611               BELEM6663511000000100285684   43,50PA
0560746948000112000100004105370000850          PARABUCANO COR DE SEGS SS LTDA160520171705201717052017V         Novo (previa)                 ANTONIO FARIAS PINHEIROJVZ5959     8AWPB05Z39A311180               BELEM6606534000000100377244   43,50PA
0560746948000112000100004105360000659            SEGCIA CORR DE SEGS S S LTDA160520171705201717052017V         Novo (previa)                ROMEU LUIZ FURLAN JUNIORJVY1282     8AJFZ22G175005001               BELEM6603372800001020069820   43,50PA
0560746948000112000100004106580000850          NIPPON HASEGAWA COR SG VIDA LT290420170205201702052017V         Novo (previa)                           WALBER JUNIORQEY7700     8AJHA8CD9G2572744               BELEM6867442000000100504815   43,50PA
0560746948000112000100004105080000850          PARABUCANO COR DE SEGS SS LTDA080520170905201709052017V         Novo (previa)             MARIO DE ALMEIDA MARQUES JRAVI0000     98RDB12BXGA000764               BELEM6609368200000100377244   43,50PA
0560746948000112000100004105400000838            M & K COR DE SEGUROS LTDA ME190520172505201725052017V             Renovacao              LUCIANO FERNANDES DA SILVANEV7677     8AWPB0577BA533517            MARITUBA6720000000001020123329   43,50PA
0560746948000112000100004106940000280          RODOBENS ADM E COR DE SEGS LTD080520170905201709052017V         Novo (previa)                JOAO BATISTA BRITO SOUSAOLK6800     8AJFY29G9D8521500               BELEM6609052000000100204056   43,50PA
0560746948000112000100004105520000850               JUCA CORR DE SEGS SC LTDA250520172605201726052017V         Novo (previa)              AMARILDO SOARES DOS SANTOSOSW3223     935SUNFNWDB551526               BELEM6664026500000100285684   43,50PA
0560746948000112000100004105250000850           BRADESCOR COR DE SEGUROS LTDA120520171305201713052017V         Novo (previa)ANA CLAUDIA BARBOSA SANTOS DO NASCIMENTOOTC6460     9BD195152D0429866               BELEM6845811000000100058777   43,50PA
0560746948000112000100004106960000657          KIRTON CORRETORA DE SEGUROS S 180520171905201719052017V         Novo (previa)         JOSE M CORREA DE ALMEIDA JUNIOROTV8248     9BRB29BT1F2058123               BELEM6604519700000100063860   43,50PA
0560746948000112000100004105110000964               COMPARA ADM. E CORR. LTDA090520171005201710052017V         Novo (previa)        ARMANDO FREIRE DE OLIVEIRA FILHOOBT2824     9BRBD48E3D2574390               BELEM6611500000001020169914   43,50PA
0560746948000112000100004105570000841          LOJACORR S A REDE DE COR DE SE260520172705201727052017V         Novo (previa)        HELDER SIDNEY DIAS VABRAL JUNIOROEN7311     93YHSR6P5EJ929172          ANANINDEUA6714070900000100438502   43,50PA
0560746948000112000100004105750000850               JUCA CORR DE SEGS SC LTDA260520172705201727052017V         Novo (previa)                ALEXANDRE SILVA DOS REISNSY6133     3CZRE1830BG501221               BELEM6603065000000100285684   43,50PA
0560746948000112000100004106880000850          BRONI CORRETORA DE SEGUROS LTD060520170805201708052017V             Renovacao                 Z S REPRESENTACOES LTDAQDV9140     8AJBA3CD9G1560320           CASTANHAL6874318000000100419621   43,50PA
0560746948000112000100004105830000838          CHAVES CAMPOS COR.E ADM.DE SEG290520173005201730052017V         Novo (previa)                   RENALDO ULIANA JUNIOROTC2980     9BD196272D2119944               BELEM6863200000000100363391   43,50PA
0560746948000112000100004105280000850               JUCA CORR DE SEGS SC LTDA100520171505201715052017V         Novo (previa)               ERNANDA DA CONCEICAO DIASOFP0409     9BD1962A3D2102845               BELEM6601707000000100285684   43,50PA
0560746948000112000100004105420000657          KIRTON CORRETORA DE SEGUROS S 230520172405201724052017V         Novo (previa)                 MARIA DO ROSARIO CHAVESQDY8663     9BGKS48V0HG218637               BELEM6606057500000100063860   43,50PA
0560746948000112000100004105160000850           BRADESCOR COR DE SEGUROS LTDA100520171105201711052017V         Novo (previa)                DEBORA NAZARE REALE DIASOTN6419     93XFRH77WECD85217               BELEM6605035000000100058777   43,50PA
0560746948000112000100004106890000840          TAUMATURGO E VEIGA COR DE SEGS060520170805201708052017V         Novo (previa)                JAINARA TAVARES DE SOUZANSL0210     935FCKFVYAB532245SANTA ISABEL DO PARA6879000000000100678473   43,50PA
0560746948000112000100004105460000940          SEGURALTA OESTE COR DE SEGS LT220520172305201723052017V         Novo (previa)         REAL BORRACHAS BELEM EIRELI EPPQEX6812     9BD2651JHH9076884          ANANINDEUA6701522000000100361011   43,50PA
0560746948000112000100004105920000850           BRADESCOR COR DE SEGUROS LTDA300520173105201731052017V         Novo (previa)               HELOISA FERNANDES BARRETOQDL7664     94DFFUK13GB102742          ANANINDEUA6701000000000100058777   43,50PA
0560746948000112000100004105840000850               JUCA CORR DE SEGS SC LTDA290520173005201730052017V         Novo (previa)      EXPANSAO INDUSTRIA COM E PRESTACAONWD4650     KNAKU811BB5112944               BELEM6612031000000100285684   43,50PA
0560746948000112000100004105040000850               JUCA CORR DE SEGS SC LTDA040520170505201705052017V         Novo (previa)                NATALIA HOLANDA FERREIRAOFM8748     95PJN81BPDB042955               BELEM6606006000000100285684   43,50PA
0560746948000112000100004105310000851           BRADESCOR COR DE SEGUROS LTDA150520171605201716052017V         Novo (previa)          DELENDA MARA MARIA FRANCO GAIAOTM7064     93YHSR2L6EJ961827CONCEICAO DO ARAGUAI6854000000000100058777   43,50PA
0560746948000112000100004105240000850          BRONI CORRETORA DE SEGUROS LTD120520171305201713052017V         Novo (previa)                 JOAO RODRIGUES DE SOUZAQEU0372     9BHGB811BHP014255               BELEM6605010000000100419621   43,50PA
0560746948000112000100004106950000850          PARABUCANO COR DE SEGS SS LTDA130520171505201715052017V         Novo (previa)          SIMONE VALENCA MACEDO CARVALHOQDM9981     9BG148MA0FC411677               BELEM6609303200000100377244   43,50PA
0560746948000112000100004800400000644          B R CORRETORA DE SEGUROS SC LT180520171805201718052017V         Novo (previa)            ANA CLAUDIA ALMEIDA FOLLMANNQDV3529     9BRBDWHE3G0289023               BELEM6609553100000100221431   43,50PA
0560746948000112000100004105740000850                          ZUITH AQUINO C260520172705201727052017V         Novo (previa)                ALEXANDRE BARBOSA LISBOAOSX1196     2C3CCAEG8CH127325               BELEM6609304000000100634450   43,50PA
0560746948000112000100004105550000850                          ZUITH AQUINO C250520172605201727052017V         Novo (previa)MARIA ALICE DE KOS BURLAMAQUI DE MIRANDAOFP2370     KNAPC811BC7221522               BELEM6606338800000100634450   43,50PA
0560746948000112000100004105050000841          PARABUCANO COR DE SEGS SS LTDA040520170505201705052017V         Novo (previa)         FRANCINELI MARIA NOGUEIRA FEIJOOTY5728     9BWAB45Z8E4173008               BELEM6605010000000100377244   43,50PA
0560746948000112000100004105010000850          NIPPON HASEGAWA COR SG VIDA LT040520170505201705052017V             Renovacao    J C MARANHAO COM E REPRES LTDA MACOMQDJ6598     93XSNKB8TGCF18122          ANANINDEUA6701500000000100504815   43,50PA
0560746948000112000100003712220000280          RODOBENS ADM E COR DE SEGS LTD250520172505201725052017V         Novo (previa)MARTINS & SANTOS COMERCIO DE COMBUSTIVELQDB1154     953658240ER432970            SANTAREM6813800000000100204056   43,50PA
0560746948000112000100003712190000841          NORTE CORRETORA DE SEGUROS LTD160520171705201717052017V         Novo (previa)                   RUI MIGUEL DOS SANTOSOTT9071     9BD578141E7754240            SANTAREM6800515000000100707368   43,50PA
0560746948000112000100003712180000841          NORTE CORRETORA DE SEGUROS LTD160520171705201717052017V         Novo (previa)                DOMINGOS SOUSA DE AGUIARQLO2480     8AJBA3FS2G0223066            SANTAREM6800529000000100707368   43,50PA
0560746948000112000100003712140000280          RODOBENS ADM E COR DE SEGS LTD040520170405201704052017V                OutrosMARTINS E SANTOS COM DE COMBUSTIVEL EIREQDB1154     953658240ER432970            SANTAREM6800500000000100204056   43,50PA
0560746948000112000100003712160000849                ADICIONAL CORR SEGS LTDA050520170605201707052017V                Outros           ALBERT SILVANGNER LIRA CORREAQDD6865     9BGKT48R0FG384472            SANTAREM6803046000000100447161   43,50PA
0560746948000112000100004700930000641                UNICOOB COR DE SEGS LTDA020520170305201703052017V             Renovacao                     JOSE GASPAR BARBOSAQDU8564     8AFAR23L0HJ427723             TUCURUI6845609000000100562670   43,50PA
0560746948000112000100004700940000835                CONVIVA COR DE SEGS LTDA020520170305201703052017V         Novo (previa)                     TULIO NAVA DE SOUSAQDF9021     9BFZB55P3F8505390             TUCURUI6845818500000100541672   43,50PA
0560746948000112000100004800270000641                UNICOOB COR DE SEGS LTDA150520171605201716052017V         Novo (previa)               RAIMUNDO NONATO ALVARENGAQDL5263     988226175HKA60926             TUCURUI6845611000000100562670   43,50PA
0560746948000112000100004800260000841          MARCORR COR E ADM DE SEGS LTDA150520171605201716052017V         Novo (previa)               WELLINGTON VITOR DA SILVAQDJ0763     9BWJL45U4GP004722             TUCURUI6848800000000100374130   43,50PA
0560746948000112000100004612060000849          LESLEY ADM.COR.DE SEGS S/C LTD160520171705201717052017V         Novo (previa)               GEOVANA CARVALHO DE SOUSAOAC4044     9BGPB69M0DB283339              MANAUS6905469300000100319252   43,50AM
0560746948000112000100004601900000849          ROSAN E NUNES COR DE SEGS LTDA290520172905201729052017V         Novo (previa)                   TATIANE ROLIM RIBEIRONOX7095     9BD17140LB5747219              MANAUS6902100500001020185669   43,50AM
0560746948000112000100004612030000840             SMCS CORRETORA DE SEGS LTDA100520171105201711052017V         Novo (previa)        MANOEL DE JESUS VIEIRA DE ARAUJOPHB2151     8AJEX39G7F3001302              MANAUS6904701000000100677281   43,50AM
0560746948000112000100004601810000256          BIDU CORR DE SEGS E SERV DE IN090520171005201710052017P         Novo (previa)                   CLELDO MALVEIRA MOURANOW7452     9BG156MK0EC413500              MANAUS6903700000000100227943   27,00AM
0560746948000112000100004601770000849           BRADESCOR COR DE SEGUROS LTDA040520170405201704052017V                Outros                  DANIELE LOPES DE LOPESPHH3934     9BHBG41DBGP576675              MANAUS6902100500000100058777   43,50AM
0560746948000112000100004601830000001           BRADESCOR COR DE SEGUROS LTDA110520171205201712052017P         Novo (previa)                            N M COMERCIOPHG1123     93HGM6670GZ201603              MANAUS6903700000000100058777   27,00AM
0560746948000112000100004601760000840          GAD CORRETORA E ADM DE SEGS LT040520170505201705052017V                Outros             GERALDO FERREIRA DOS SANTOSNOZ8165     9BWDB45U6DT046974              MANAUS6904205000001020192436   43,50AM
0560746948000112000100004601890000001           BRADESCOR COR DE SEGUROS LTDA150520172305201723052017P         Novo (previa)                   EDUARDO ALEXANDRE G COAG2438     KMHTC61CBDU060788              MANAUS6903700000000100058777   27,00AM
0560746948000112000100004626970000849            SSG COR DE SEGS DE VIDA LTDA240520172505201725052017V         Novo (previa)             G F SERVICOS DE ALIMENTACAONOR4801     9BD265122E9007925              MANAUS6905357500001020344899   43,50AM
0560746948000112000100004626630000849            J.C.NETO COR.E ADM.SEGS LTDA160520171705201717052017V         Novo (previa)                    MANOEL LIRA DE SOUSAAXO6654     9BD196271E2189711              MANAUS6902913000000100354945   43,50AM
0560746948000112000100004626650000853             PROSEG ADM COR SRGS LTDA ME160520171705201717052017V                Outros                       APARECIDO RIBEIROPHA8147     94DFDUK13FB103436              MANAUS6904401000000100110523   43,50AM
0560746948000112000100004626680000849          ROSAN E NUNES COR DE SEGS LTDA160520171705201717052017V         Novo (previa)                     KARLA SOUZA BARRETOPHH1971     9BGKS69R0GG101903              MANAUS6905011000001020185669   43,50AM
0560746948000112000100004626770000849          ATUANTE CENTER COR.DE SEGS.E G180520171905201719052017V             Renovacao       MARIA DAS GRACAS MONTEIRO WAUGHANPHA8557     9BHBG41CAEP279680              MANAUS6904000000000100198528   43,50AM
0560746948000112000100004626230000840       AMAZONAS CONFIAN?A CORR DE 080520170905201709052017V             Renovacao        BRUNA BARBOSA DE OLIVEIRA MACEDOPHI0954     93HRV2830GZ156099              MANAUS6903300800001020159307   43,50AM
0560746948000112000100004626830000849          A R MENEZES JUNIOR COR DE SEGS200520172205201722052017V         Novo (previa)          MARTHA REGINA DA SILVA MARTINSPHC1500     9BFZH54L4F8288977              MANAUS6905319000000100116670   43,50AM
0560746948000112000100004626270000849          ROSAN E NUNES COR DE SEGS LTDA080520170905201709052017V         Novo (previa)          NEUSTLAN ALVES DE ASSIS JUNIOROAH4936     9BD196271D2046566              MANAUS6901815000001020185669   43,50AM
0560746948000112000100004626280000849          ROSAN E NUNES COR DE SEGS LTDA080520170905201709052017V         Novo (previa)         RICARDO AUGUSTO SILVA ALCANTARANOZ6495     9BWDB05U0DT044596              MANAUS6907318400001020185669   43,50AM
0560746948000112000100004626250000840          FROESPRESS CORRETORA DE SEGS L080520170905201709052017V         Novo (previa)         CARLOS DANIEL DOS SANTOS ARANHANOS6071     93HFB9640EZ175277              MANAUS6902013000000100673331   43,50AM
0560746948000112000100004626750000849          MMA CORRETORA DE SEGUROS LTDA 180520171905201719052017V          Substituicao          EDUARDO ARAUJO DOS SANTOS NETOAUE5879     9BGTR69J0BB301885              MANAUS6909827000001020171420   43,50AM
0560746948000112000100004626360000840          VILA RICA ADM.E COR.DE SEGS.LT100520171105201711052017V             Renovacao              JOAO GUSTAVO COSTA AVELINOPHI9022     988611126GK077126              MANAUS6905700200000400007072   43,50AM
0560746948000112000100004620990000849          TAMUZ CORRETORA DE SEGUROS S/S020520170305201703052017V         Novo (previa)                   KELLY BEATRIZ RIBEIROOAE5903     KNAKU813DD5310062              MANAUS6905724000000100580082   43,50AM
0560746948000112000100004620980000840          PARVI CORRETORA DE SEGUROS LTD020520170305201703052017V         Novo (previa)                  PAULO CESAR LEITE SAIDOAF1862     94DVCUD40EJ914641              MANAUS6905000100000100538329   43,50AM
0560746948000112000100004629120000849          MMA CORRETORA DE SEGUROS LTDA 270520172905201729052017V         Novo (previa)         LYCIA FABIOLA SANTOS DE ANDRADEJWF9349     9BGKT69L0EG216648              MANAUS6905714000001020171420   43,50AM
0560746948000112000100004626080000849            J.C.NETO COR.E ADM.SEGS LTDA030520170405201704052017V         Novo (previa)             MANOEL MESSIAS DIAS CARDOSOPHE7706     8AGSU1920FR179526              MANAUS6907660000000100354945   43,50AM
0560746948000112000100004626400000840          PAULO OMENA ADM COR SEGS LTDA 100520171105201711052017V         Novo (previa)                 CHARLES DAMASCENO SILVAOXM8952     9BG148MK0EC434659              MANAUS6906300000000100170704   43,50AM
0560746948000112000100004626010000849          ROSAN E NUNES COR DE SEGS LTDA020520170305201703052017V         Novo (previa)                ANTONIO RIBEIRO DA SILVANOW2412     9BD11818LE1281156              MANAUS6906508000001020185669   43,50AM
0560746948000112000100004629080000849            J.C.NETO COR.E ADM.SEGS LTDA260520172905201729052017V         Novo (previa)            POLLYANNA CARDOSO NOVO BRAGAPHE0020     93HFB9640GZ202339              MANAUS6905502100000100354945   43,50AM
0560746948000112000100004629110000849            J.C.NETO COR.E ADM.SEGS LTDA260520172905201729052017V         Novo (previa)               LUIZ ALBERTO BARBOSA LIMAJXE6341     9BWGF07X27P010942              MANAUS6907906000000100354945   43,50AM
0560746948000112000100004626840000840          LESLEY ADM.COR.DE SEGS S/C LTD200520172205201722052017V         Novo (previa)                MANOEL OSMAN DE OLIVEIRAPHD3212     9BGKS69V0HG171250              MANAUS6906313000000100319252   43,50AM
0560746948000112000100004629170000849            J.C.NETO COR.E ADM.SEGS LTDA290520173005201730052017V         Novo (previa)           JOSE FRANCISCO COSTA DA SILVAOAN4663     9BHBH41DBEP133433              MANAUS6908301100000100354945   43,50AM
0560746948000112000100004626460000849          G G MOURA CORRETORA DE SEGUROS120520171505201715052017V         Novo (previa)               MARCIA CASTRO DE OLIVEIRAOAI9632     9BRBD48E2E2644379              MANAUS6903714400000100319783   43,50AM
0560746948000112000100004626170000840          LUIZ CARLOS DA SILVA RODRIGUES050520170605201707052017V             Renovacao            MOISA MARIA SABOIA GUERREIRONPB1209     VF7RDRFJWAL516603              MANAUS6903700000001020361947   43,50AM
0560746948000112000100004626900000840          SOTTO MAYOR ADM E COR DE SEGS 220520172305201723052017V         Novo (previa)        JOSE RAIMUNDO DE AQUINO SIQUEIRAPHD6345     9BD57834FHY159437              MANAUS6904549000000100367842   43,50AM
0560746948000112000100004629200000849            J.C.NETO COR.E ADM.SEGS LTDA290520173005201730052017V         Novo (previa)            GLAUCIENE DE SOUZA BULAMAQUIOAO9061     3N1BB7AD4FY205805              MANAUS6903632000000100354945   43,50AM
0560746948000112000100004626060000849            J.C.NETO COR.E ADM.SEGS LTDA030520170405201704052017V         Novo (previa)           SIDNEILA MATOS CASTELO BRANCOPHF1094     93HFB9640FZ230622              MANAUS6902058000000100354945   43,50AM
0560746948000112000100004626870000840          TAUMATURGO E VEIGA COR DE SEGS220520172305201723052017V         Novo (previa)                     ANDREA VILA BENEYTONOI2301     9BD27855MD7611806              MANAUS6905706500000100678473   43,50AM
0560746948000112000100004629150000840          PAULO OMENA ADM COR SEGS LTDA 270520172905201729052017V         Novo (previa)                             SONIA FLECKOAB7752     9BGKS48L0EG159898              MANAUS6905706000000100170704   43,50AM
0560746948000112000100004626140000849          JAMF CORRETORA DE SEGUROS LTDA040520170505201705052017V         Novo (previa)                 MIRIAN LIMA ALBUQUERQUENOQ0932     93YBSR8VNDJ496225              MANAUS6907328000000100409596   43,50AM
0560746948000112000100004626090000854              SIEL ADM CORR DE SEGS LTDA040520170505201705052017V         Novo (previa)            LUIS CARLOS TOLEDANO PEREIRANOW4584     9BRBD48E902559147              MANAUS6905701500000100308811   43,50AM
0560746948000112000100004626130000849          MLVS CORRETORA DE SEGUROS LTDA040520170505201705052017V         Novo (previa)                   JOAQUIM DE MATOS NETOPHJ9654     9BGKS48U0HG236355              MANAUS6905309000000100558354   43,50AM
0560746948000112000100004626930000849          G G MOURA CORRETORA DE SEGUROS230520172405201724052017V         Novo (previa)          MARCOS PAULO DAS CHAGAS SEGURAOFX6749     2G1F91EJ0D9124040              MANAUS6903700000000100319783   43,50AM
0560746948000112000100004629030000849          ROSAN E NUNES COR DE SEGS LTDA250520172605201726052017V         Novo (previa)          MANAUS TRANSPORTE EXPRESS LTDANOT0834     9BGXM19X0BC228116              MANAUS6907309000001020185669   43,50AM
0560746948000112000100004626150000849          CONSULCOR ADM CORT SEGS  IMOVE040520170505201705052017V         Novo (previa)          ADILIA BALAREZO DE ALBUQUERQUEPHK2161     9BD19713MG3290895              MANAUS6902046300000100398250   43,50AM
0560746948000112000100004626600000849          G G MOURA CORRETORA DE SEGUROS160520171705201717052017V         Novo (previa)        TEREZINHA DE JESUS SILVA E PAULAOAK0852     9BGKS48B0EG294521              MANAUS6903033000000100319783   43,50AM
0560746948000112000100004800080000850          BRONI CORRETORA DE SEGUROS LTD050520170605201707052017V         Novo (previa)        VIANA E VIANA IND DE POLPAS LTDAOCA8172     9BM979026CS000494            TOME-ACU6868200000000100419621   43,50PA
0560746948000112000100004800350000841          ALMEIDA E HOUNSELL ADM COR SEG170520171805201718052017V             Renovacao                       LUZENILDA BARROSOJWE3105     93HGM2540AZ126867            TOME-ACU6868000000000100636568   43,50PA
0560746948000112000100004800720000850                          ZUITH AQUINO C310520173105201731052017V         Novo (previa)              ANTONIO LOPES CAMELO FILHOQDM9456     9BRBDWHE6H0323814    VILA DOS CABANOS6844700000000100634450   43,50PA
0560746948000112000100004800740000641                UNICOOB COR DE SEGS LTDA310520173105201731052017V         Novo (previa)                  FABIO AZEVEDO SOBRINHONTA5216     9BFXEAEU0CBS88408           BARCARENA6844700000000100562670   43,50PA
0560746948000112000100004800360000850          FERTY CORRET,ADM DE SEGUROS LT170520171805201718052017V         Novo (previa)             MARIA DAYELE SILVA DA SILVAOIV7834     9BD15844AD6779840           TAILANDIA6869500000000100689271   43,50PA
0560746948000112000100004700910000850                          ZUITH AQUINO C290420170205201702052017V         Novo (previa)              ELICIO RODRIGUES GONCALVESQEL8831     988226117HKA89110           BARCARENA6844700000000100634450   43,50PA
0560746948000112000100004800340000850                          ZUITH AQUINO C170520171805201718052017V         Novo (previa)                 JEANI DA SILVA FERREIRAPXG4898     8A1LZLH0TGL164331           BARCARENA6844700000000100634450   43,50PA
0560746948000112000100004800410000850                          ZUITH AQUINO C180520171905201719052017V         Novo (previa)              PAULO CEZAR SOUSA DA SILVAOTT1624     0BD197132E3180619    VILA DOS CABANOS6844700000000100634450   43,50PA
0560746948000112000100004700890000841          MEGA NORTE CORR DE SEGS LTDA-E290420170205201702052017V         Novo (previa)HILANA PATRICIA LOPES PINHEIRO DO NASCIMQEP0203     8AJBA3FS4G0220833           BARCARENA6844700000001020242611   43,50PA
0560746948000112000100004700900000850                          ZUITH AQUINO C290420170205201702052017V         Novo (previa)               NECILENE SOUZA DA FONSECAQDE7670     9BG148MK0FC403502    VILA DOS CABANOS6844700000000100634450   43,50PA
0560746948000112000100004800090000841          NORTE CORRETORA DE SEGUROS LTD050520170605201707052017V         Novo (previa)                   MIRIAN GUEDES DE LIMAQEO2070     8AJBA3CD1G1570274            TOME-ACU6868000000000100707368   43,50PA
0560746948000112000100004800710000850                          ZUITH AQUINO C300520173105201731052017V         Novo (previa)                   D S DA SILVA SERVICOSQDP3053     9BD19713MG3303597           BARCARENA6844700000000100634450   43,50PA
0560746948000112000100004800730000850                          ZUITH AQUINO C300520173005201730052017V         Novo (previa)                        PAULO MARCHIOTTOPEU4349     3GNAL7EC9BS663934           BARCARENA6844700000000100634450   43,50PA
0560746948000112000100004409750000850          BGSB CORRETORA DE SEGUROS LTDA250520172605201727052017V         Novo (previa)                ELIZETE LOPES DOS SANTOSQEB3933     9BD57834FHY162983             IRITUIA6867500000000100560171   43,50PA
0560746948000112000100004408370000847          BGSB CORRETORA DE SEGUROS LTDA290420170205201702052017V                Outros                  GENALDO FREIRE RAMALHOQDM4277     9BGKT69R0GG275171     IPIXUNA DO PARA6863700000000100560171   43,50PA
0560746948000112000100004408770000841          BGSB CORRETORA DE SEGUROS LTDA060520170905201710052017V         Novo (previa)                RAILSON OLIVEIRA SANTANAQDU5513     9C2ND1110HR002930         PARAGOMINAS6862819500000100560171   43,50PA
0560746948000112000100004409360000644          CHICO ADM E CORRET DE SEGUROS 190520172205201722052017V         Novo (previa)         PAMELA MARGARIDA BUGNO DE SOUZAATB8819     9BM958461AB735697         PARAGOMINAS6862754200000100691224   43,50PA
0560746948000112000100004408840000866          PARIS DAKAR CORR DE SEGS LTDA 090520170905201709052017V         Novo (previa)            ATAIDE XAVIER DE LIMA JUNIOROTN3631     WV1DB42HXDA006643         PARAGOMINAS6862502000001020097131   43,50PA
0560746948000112000100004409720000850          BGSB CORRETORA DE SEGUROS LTDA250520172605201726052017V         Novo (previa)              ANTONIO SERGIO SILVA GOMESQEL6099     9BHGC813BHP024949          MAE DO RIO6867500000000100560171   43,50PA
0560746948000112000100004409140000847          BGSB CORRETORA DE SEGUROS LTDA150520171605201716052017V         Novo (previa)                   MANOEL SIMAO DA SILVAOTY2498     9BD578341F7883783     IPIXUNA DO PARA6863700000000100560171   43,50PA
0560746948000112000100004408640000850           BRADESCOR COR DE SEGUROS LTDA050520170805201708052017V         Novo (previa)              JOAO RENATO DE PAIVA PERESOTF1313     9BRK19BT1D2003817          MAE DO RIO6867500000000100058777   43,50PA
0560746948000112000100004409730000850          BGSB CORRETORA DE SEGUROS LTDA250520172605201726052017V         Novo (previa)              ALDECIR EUCLIDES DE FRANCAOTV9598     8AJFY29G0F8572578             IRITUIA6867500000000100560171   43,50PA
0560746948000112000100004408950000657           BRADESCOR COR DE SEGUROS LTDA110520171205201712052017V                Outros                  SAGNER MOURA AMERICANONSJ2835     9BWLB05U2BP030328         PARAGOMINAS6862809000000100058777   43,50PA
0560746948000112000100004409400000847          BGSB CORRETORA DE SEGUROS LTDA190520172305201723052017V         Novo (previa)        FRANCISCA ROSANGELA ALVES SANTOSNST9449     9BG138KJ0BC430077         PARAGOMINAS6862745100000100560171   43,50PA
0560746948000112000100004201000000847          VALE CORRETORA DE SEGUROS EIRE050520170805201708052017V         Novo (previa)          RE MOREIRA LATICINIOS LTDA EPPEIY9020     9BM6881589B651243     IPIXUNA DO PARA6863700000001020308230   43,50PA
0560746948000112000100004624230000849          LESLEY ADM.COR.DE SEGS S/C LTD050520170605201707052017V             Renovacao               ALDERLANDIO ALVES BARROSOPHF6447     9BGPB68N0FB186944              MANAUS6904341500000100319252   43,50AM
0560746948000112000100004624380000849          LESLEY ADM.COR.DE SEGS S/C LTD090520171005201710052017V             Renovacao                         IODECIO LANCONIPIE4555     9BM958096EB957427              MANAUS6905834100000100319252   43,50AM
0560746948000112000100004624270000849          ATUANTE CENTER COR.DE SEGS.E G060520170805201708052017V         Novo (previa)             MARIA INEZ PEREIRA DE SOUZAOXM8882     8BWAA45U5ET144143              MANAUS6905563000000100198528   43,50AM
0560746948000112000100004624670000840          ANAUE ADM.E COR.DE SEGUROS LTD160520171705201717052017V         Novo (previa)                  HERIK AUGUSTO MELO LEEJXA8727     93HES16504Z109967              MANAUS6905467200000100478636   43,50AM
0560746948000112000100004624650000849            J.C.NETO COR.E ADM.SEGS LTDA160520171705201717052017V         Novo (previa)               ALEXANDRE DE SOUZA SOARESOAJ5198     9BD27855MD7559614              MANAUS6906746100000100354945   43,50AM
0560746948000112000100004624390000849            SSG COR DE SEGS DE VIDA LTDA090520171005201710052017V         Novo (previa)                    MARK COELHO LAVAREDANOP8602     9BRB29BT6D2003955              MANAUS6905570000001020344899   43,50AM
0560746948000112000100004619980000849           BRADESCOR COR DE SEGUROS LTDA270420172804201703052017V         Novo (previa)                 GERALDO LIMA DE ANDRADEPHG0744     9C2ND1110GR001352              MANAUS6909505000000100058777   43,50AM
0560746948000112000100004628110000849          MMA CORRETORA DE SEGUROS LTDA 240520172505201725052017V         Novo (previa)                     JAMES CASTRO SANTOSPHG8050     9BG148EA0FC423463              MANAUS6908714800001020171420   43,50AM
0560746948000112000100004628220000849          ATUANTE CENTER COR.DE SEGS.E G250520172605201726052017V         Novo (previa)                  FABIANO ANTUNES PASSOSPHL6879     9BG148MK0HC431109              MANAUS6904448000000100198528   43,50AM
0560746948000112000100004624730000840           AMAZON DELTA COR.DE SEGS.LTDA170520171805201719052017V         Novo (previa)                  JOAO ALENCAR FERNANDESILG4802     9BFNSZPPA3B951428              MANAUS6904101000000100575984   43,50AM
0560746948000112000100004624740000849          G G MOURA CORRETORA DE SEGUROS180520171905201719052017V         Novo (previa)          G G MOURA CORRETORA DE SEGUROSNOX6963     9BD13532CB2177730              MANAUS6905003000000100319783   43,50AM
0560746948000112000100004624560000849            J.C.NETO COR.E ADM.SEGS LTDA110520171205201712052017V         Novo (previa)Y A EMPREENDIMENTOS E PARTICIPACOES LTDAPHQ8950     SALLAAAG6FA759823              MANAUS6905470000000100354945   43,50AM
0560746948000112000100004628300000980           WIM CORRETORA DE SEGUROS LTDA290520173005201730052017V         Novo (previa)                 DELIA DE ARAUJO PEIXOTOPHI2876     93HRV2830GZ169492              MANAUS6905508000000100481041   43,50AM
0560746948000112000100004624410000849          ROSAN E NUNES COR DE SEGS LTDA090520171005201710052017V         Novo (previa)                 ROSANGELA GOMES CARDOSOPHJ0344     9BGKS48U0HG252274              MANAUS6905849000001020185669   43,50AM
0560746948000112000100004624520000849          TAMUZ CORRETORA DE SEGUROS S/S100520171105201711052017V         Novo (previa)                   RAIMUNDA EUZA RIBEIRONOP9381     9BWAB45U5ET215015              MANAUS6904101000000100580082   43,50AM
0560746948000112000100004628170000849            J.C.NETO COR.E ADM.SEGS LTDA250520172605201727052017V         Novo (previa)            MANOEL EXPEDITO BASTOS SOUSAOAJ9475     9BD27855MD7618959              MANAUS6901865000000100354945   43,50AM
0560746948000112000100004624400000849          A R MENEZES JUNIOR COR DE SEGS090520171005201710052017V         Novo (previa)         GYOVANNY RICARDO PIRES DE SOUZANDO0325     95PJU81DBGB031104              MANAUS6905820400000100116670   43,50AM
0560746948000112000100004624800000849            J.C.NETO COR.E ADM.SEGS LTDA180520171905201719052017V         Novo (previa)                   DENILSON HIRATA DE SAOXM7681     8AGSU19F0FR100720              MANAUS6908528800000100354945   43,50AM
0560746948000112000100004624440000849          A R MENEZES JUNIOR COR DE SEGS090520171005201710052017V             Renovacao              MARIO JORGE BARROSO FRANCAPHI3890     8AJBA3CD1G1562417              MANAUS6905052000000100116670   43,50AM
0560746948000112000100004624900000966          11PONTO11 COR SEG & PROTECAO E190520172005201720052017V         Novo (previa)               FERNANDA VASCONCELOS BAIAPHF6636     9BFZH55L8F8245550              MANAUS6905858100000100731803   43,50AM
0560746948000112000100004624750000840          ALCORR CORRETORES E AGENTES DE180520171905201719052017V             Renovacao                        JOSE LIMA GALVAOPHI6432     9BHBG51CAGP551757              MANAUS6904419000001020057539   43,50AM
0560746948000112000100004624490000849           BRADESCOR COR DE SEGUROS LTDA100520171105201711052017V         Novo (previa)               OROZINO MICHEIAS SOBRINHONPA0599     9BWAA05U4AT187021              MANAUS6905575500000100058777   43,50AM
0560746948000112000100004624790000962            JS JOELY SOLANO C S - EIRELI180520171905201719052017V         Novo (previa)       METALURGICA SETE DE SETEMBRO LTDAFMX6860     9BGKS48R0GG129630              MANAUS6908302000001020136730   43,50AM
0560746948000112000100004624060000849          CONSULCOR ADM CORT SEGS  IMOVE290420170205201702052017V         Novo (previa)                 ELIAS FERREIRA DA SILVAOXM7514     9BD578341F7895644              MANAUS6901731800000100398250   43,50AM
0560746948000112000100004624160000840          FROESPRESS CORRETORA DE SEGS L030520170405201704052017V         Novo (previa)    ELIZANGELA OLIVEIRA DA SILVA PEREIRAPHI1078     9BD57824UGB088318              MANAUS6905900000000100673331   43,50AM
0560746948000112000100004624940000977                         VANEZA SILVERIO200520172205201722052017V         Novo (previa)                      WAGNO DE SA ALBINOJXS7931     9BFZF55A8C8280024              MANAUS6906747000000100652091   43,50AM
0560746948000112000100004628230000849          JAMF CORRETORA DE SEGUROS LTDA260520172705201727052017V         Novo (previa)                      PAULO PEREIRA PEGOPHD9844     98861110YHK102626              MANAUS6909610500000100409596   43,50AM
0560746948000112000100004624530000849          A R MENEZES JUNIOR COR DE SEGS100520171105201711052017V         Novo (previa)            ANA CAROLINA BENTES C BRANCOOAM6209     KNAFW411BD5968557              MANAUS6905717100000100116670   43,50AM
0560746948000112000100004624870000849          TATIANE DA S S CORR DE SEG EPP190520172005201720052017V         Novo (previa)                  TARIANA RAMOS TEIXEIRAPHK4724     9BHBG41CAHP749583              MANAUS6903856000001020330553   43,50AM
0560746948000112000100004628290000849          G G MOURA CORRETORA DE SEGUROS290520173005201730052017V         Novo (previa)                 WAGNER LIBERAL MICHETTIOAG2597     WV1DB42H6CA043560              MANAUS6905003000000100319783   43,50AM
0560746948000112000100004624080000840          FROESPRESS CORRETORA DE SEGS L020520170305201703052017V         Novo (previa)          JOSE LEONARDO SILVA DOS SANTOSPDL6523     3C3AFFDR7ET292291              MANAUS6905466400000100673331   43,50AM
0560746948000112000100004624860000849          LESLEY ADM.COR.DE SEGS S/C LTD190520172005201720052017V         Novo (previa)                 ISRAEL DE OLIVEIRA LIMAPHB2826     8AJFY22G6F8019153              MANAUS6903755500000100319252   43,50AM
0560746948000112000100004628050000849          LESLEY ADM.COR.DE SEGS S/C LTD230520172405201724052017V         Novo (previa)                         ANDERSON VIEIRANOU0643     9BG138SP0BC449511              MANAUS6909078400000100319252   43,50AM
0560746948000112000100004624580000849          ROSAN E NUNES COR DE SEGS LTDA110520171205201712052017V         Novo (previa)                JORGE ADRIANO CAVALCANTEPHG6447     9BG148FK0FC428276              MANAUS6909605100001020185669   43,50AM
0560746948000112000100004624610000849            J.C.NETO COR.E ADM.SEGS LTDA120520171305201714052017V         Novo (previa)          HELEN SUZANY PEREIRA MAGALHAESPHG0333     93HRV2830GZ146984              MANAUS6905000000000100354945   43,50AM
0560746948000112000100004624850000639           LC MARINHO ADM E CORR SEGS SC190520172205201722052017V         Novo (previa)          WILSON MAIA DE OLIVEIRA JUNIORPHK4564     93HGM6670HZ203075              MANAUS6905524000000100266922   43,50AM
0560746948000112000100004624120000840          ANAUE ADM.E COR.DE SEGUROS LTD030520170405201704052017V             RenovacaoW L COMERCIO DE PRODUTOS FARMACEUTICOS LOAO4002     8AJFY29G5E8556133              MANAUS6905507000000100478636   43,50AM
0560746948000112000100004628380000849            J.C.NETO COR.E ADM.SEGS LTDA300520173105201731052017V         Novo (previa)             TRANSGATAO TRANSPORTES LTDAJXW7133     9BSG6X40083628739              MANAUS6901561300000100354945   43,50AM
0560746948000112000100004628330000849          G G MOURA CORRETORA DE SEGUROS290520173005201730052017V         Novo (previa)                              HUGO REYESPHE8783     9BD195A6ZF0679051              MANAUS6909816500000100319783   43,50AM
0560746948000112000100004624170000849          A R MENEZES JUNIOR COR DE SEGS030520170405201704052017V          Substituicao               PRISCILLA NOGUEIRA FRANCAPHE7088     9BRBLWHE4G0038126              MANAUS6905821000000100116670   43,50AM
0560746948000112000100004628260000840          LESLEY ADM.COR.DE SEGS S/C LTD270520172905201729052017V         Novo (previa)                 JOSE NILO GOMES COIMBRAPHG2555     9BWLB45U8GP116645              MANAUS6902827000000100319252   43,50AM
0560746948000112000100004624130000849          A R MENEZES JUNIOR COR DE SEGS030520170405201704052017V         Novo (previa)            KARLA ROBERTA DA SILVA PINTONOK5612     935FCKFVYCB539844              MANAUS6905469100000100116670   43,50AM
0560746948000112000100004624590000849          ZONA FRANCA DAS AMERICAS-ASSES120520171305201714052017V         Novo (previa)        PUNTO ADRIANOPOLIS AUDI BLINDADOPHL5591     99ADJ78V2G4003184              MANAUS6903700500000100364789   43,50AM
0560746948000112000100004628270000849          JAMF CORRETORA DE SEGUROS LTDA270520172905201729052017V         Novo (previa)               AURELIANO GOMES JUNIOR MEOAI7801     9BGKF69B0FG163785              MANAUS6909051000000100409596   43,50AM
0560746948000112000100004628370000849          JAMF CORRETORA DE SEGUROS LTDA300520173105201731052017V         Novo (previa)                  AURELIANO GOMES JUNIOROAF1825     93XJNKB8TDCC58658              MANAUS6909051000000100409596   43,50AM
0560746948000112000100004624570000849            J.C.NETO COR.E ADM.SEGS LTDA110520171205201712052017V         Novo (previa)          PLINIO HEIDER NUNES DOS SANTOSPHK1674     93HRV2850HZ222553              MANAUS6908528600000100354945   43,50AM
0560746948000112000100004624210000849          ATUANTE CENTER COR.DE SEGS.E G040520170505201705052017V             Renovacao                  FABIANO ANTUNES PASSOSPHL6879     9BG148MK0HC431109              MANAUS6904448000000100198528   43,50AM
0560746948000112000100004624190000840          A.A.BRAGA JR.ADM.COR.SEGS.LTDA040520170505201705052017V         Novo (previa)        MARIA DO SOCORRO DOCE DA FONSECANOW7022     93YHSR6P5EJ919874              MANAUS6905547000000100340553   43,50AM
0560746948000112000100004624620000837            ADM CORR SEGS DO FUTURO LTDA120520171305201714052017V             Renovacao                    MAURO DE BRITO SOUSANJU8212     9BD195102C0165910              MANAUS6905552000000100098337   43,50AM
0560746948000112000100004628010000840          TM ALBUQUERQUE COR DE SEGS LTD220520172305201723052017V         Novo (previa)          LUIS GONZAGA ALBUQUERQUE FILHOOAG8854     8AFAR23J4DJ120855              MANAUS6905881000001020088361   43,50AM
0560746948000112000100004624600000849          ZONA FRANCA DAS AMERICAS-ASSES120520171305201714052017V         Novo (previa)     PUNTO ADRIANOPOLIS COM DE ALIMENTOSPHL6959     9BRBDWHE5H0334089              MANAUS6903700500000100364789   43,50AM
0560746948000112000100004628360000849          G G MOURA CORRETORA DE SEGUROS300520173105201731052017V         Novo (previa)              JULIANA SILVA GUY FERREIRAPHF1784     9BGKT69R0FG384520              MANAUS6905467200000100319783   43,50AM
0560746948000112000100004624340000849          JAMF CORRETORA DE SEGUROS LTDA080520170905201709052017V         Novo (previa)                IOLANDA LIMA DE ASSUNCAOOAL0680     8AFDR12A8CJ478595              MANAUS6909730600000100409596   43,50AM
0560746948000112000100004628100000853             PROSEG ADM COR SRGS LTDA ME240520172505201725052017V         Novo (previa)                   MAURO PAVAO MADUREIRANRP6758     95PJN81BPCB021664              MANAUS6903700000000100110523   43,50AM
0560746948000112000100004628080000849          ROSAN E NUNES COR DE SEGS LTDA240520172505201725052017V         Novo (previa)                JORGE ADRIANO CAVALCANTEPHK5743     9BGKS48V0HG242910              MANAUS6909605100001020185669   43,50AM
0560746948000112000100004628440000849          ZONA FRANCA DAS AMERICAS-ASSES310520173105201731052017V         Novo (previa)        RIPASA COM E REP DE ALIMENTOS LTNOS8084     95pzbn7hpcb032438              MANAUS6905919000000100364789   43,50AM
0560746948000112000100004628410000849          ZONA FRANCA DAS AMERICAS-ASSES310520173105201731052017V         Novo (previa)        RIPASA COM E REP DE ALIMENTOS LTNOV4768     95PZBN7HPBB023808              MANAUS6905919000000100364789   43,50AM
0560746948000112000100004624240000840          AJURI CORRETORA DE SEGS LTDA-M050520170605201707052017V         Novo (previa)                      RONE BARBOSA DE SAPHG3019     3VWDH216XFM054465              MANAUS6905469300001020092393   43,50AM
0560746948000112000100004628430000849          ZONA FRANCA DAS AMERICAS-ASSES310520173105201731052017V         Novo (previa)        RIPASA COM E REP DE ALIMENTOS LTJXO0031     9BM6881589B692826              MANAUS6905919000000100364789   43,50AM
0560746948000112000100004628460000849          ZONA FRANCA DAS AMERICAS-ASSES310520173105201731052017V         Novo (previa)        RIPASA COM E REP DE ALIMENTOS LTOAN7704     9531M52P2DR344894              MANAUS6905919000000100364789   43,50AM
0560746948000112000100004628180000849          ATUANTE CENTER COR.DE SEGS.E G250520172605201726052017V         Novo (previa)             MARIA INEZ PEREIRA DE SOUZAOXM8882     9BWAA45U5ET144143              MANAUS6905563000000100198528   43,50AM
0560746948000112000100004628450000849          ZONA FRANCA DAS AMERICAS-ASSES310520173105201731052017V         Novo (previa)        RIPASA COM E REP DE ALIMENTOS LTOAI7973     9BWNF07X8EP006009              MANAUS6905919000000100364789   43,50AM
0560746948000112000100004628470000849          ZONA FRANCA DAS AMERICAS-ASSES310520173105201731052017V         Novo (previa)        RIPASA COM E REP DE ALIMENTOS LTOAI7993     9BWNF07X5EP005996              MANAUS6905919000000100364789   43,50AM
0560746948000112000100004622120000849          S BORGES ALCANTARA COR.DE SEGS240520172505201725052017V         Novo (previa)               RENY DE ALMEIDA R EIRELLINAP0815     9532AXAZ0GE500437           BOA VISTA6930304500000100577685   43,50RR
0560746948000112000100004621970000836               TRAVELL CORR DE SEGS LTDA190520172205201722052017V         Novo (previa)                           JONES FABIANENAU6216     WV1DB42H1FA016190           BOA VISTA6931227200000100298492   43,50RR
0560746948000112000100004621510000849          S BORGES ALCANTARA COR.DE SEGS100520171105201711052017V                Outros                  EDMIR CORDEIRO DE MELONAP1365     9BGJE6920HB177734           BOA VISTA6930743000000100577685   43,50RR
0560746948000112000100004622300000849          S BORGES ALCANTARA COR.DE SEGS290520173105201731052017V     Parcela em atraso                 OZANIR MAIA DE OLIVEIRANAP9964     9BWKB45U0HP126079           BOA VISTA6930725000000100577685   43,50RR
0560746948000112000100004621300000840          SABIO CORRETORA DE SEGUROS LTD040520170505201705052017V         Novo (previa)                DIMACO DIST E TRANSPORTENAQ9617     9BM958433DB915535           BOA VISTA6930918700000100478300   43,50RR
0560746948000112000100004621630000849          S BORGES ALCANTARA COR.DE SEGS120520171505201715052017V         Novo (previa)                    ELSON PAULO SOBRINHONPB7639     8AJYZ59G7A3044579           BOA VISTA6931339200000100577685   43,50RR
0560746948000112000100004621720000849          S BORGES ALCANTARA COR.DE SEGS120520171505201715052017V         Novo (previa)                 OZANIR MAIA DE OLIVEIRANAP9964     9BWDB45U0HT081578           BOA VISTA6930725000000100577685   43,50RR
0560746948000112000100004621710000840          SABIO CORRETORA DE SEGUROS LTD120520171505201715052017V         Novo (previa)                    ELSON PAULO SOBRINHOOAA8244     8AJFY29GXD8530691           BOA VISTA6931339200000100478300   43,50RR
0560746948000112000100004621470000866          INOVE INSURANCE CORR DE SEGS L090520171005201710052017V                Outros                       C S C MELO EIRELINAN2114     9BFZC52PXAB896194           BOA VISTA6930776200001020304250   43,50RR
