0660746948000112000100036299060000969          BIDU CORR DE SEGS E SERV DE IN280620172806201729062017V         Novo (previa)                        EVERTON DE SOUSAFDU1212     2G1F91EJ6B9154687           SAO PAULO015410100000010022794337.00SP
0660746948000112000100036298980000976          LACIC CORRETORA DE SEGUROS LTD280620172806201729062017V         Novo (previa)           MAYARA CRISTINA TOBIAS MARINSGCZ0174     9BFZB55PXH8591252           SAO PAULO045330100000010047231037.00SP
0660746948000112000900033883190000001           BRADESCOR COR DE SEGUROS LTDA270620172806201729062017P         Novo (previa)                          SIRLEI COSTINIOYI2137     8AJFY29G4E8561002          UBERLANDIA362003360000010005877730.00MG
0660746948000112000100036476540000969          MINUTO CORRETORA DE SEGUROS S 270620172806201729062017V         Novo (previa)LUIZ HENRIQUE TINOCO BARBOSA GOES SANTOSGAX6819     93HRV2850GZ171552     TABOAO DA SERRA067650000000010023075837.00SP
0660746948000112000300036005220000924            PREMIUM CORRETORA DE SEGS SS280620172806201729062017V         Novo (previa)              ANA CAROLINA BORSARI ZANINETA4257     1ZV8P8CF7C5229153          ARARAQUARA148060050000010017133637.00SP
0660746948000112000500034904070000002          SANTA IZABEL ADM COR SEGS LTDA280620172806201729062017V         Novo (previa)                LUCIENE RIBEIRO DA COSTAJGM8461     VF7LARFJ47Y503943             GOIANIA749121500000010013741339.00GO
0660746948000112000500034902350000002          CATALAO PREVINE ADM.COR.SEG.LT280620172806201729062017V         Novo (previa)                 JUAREZ ALVARES DA SILVAJSH8199     JMYLYV98W9JA00329             GOIANIA741400800000010038684739.00GO
0660746948000112000500034648440000002          AGAPP ADM E CORR DE SEGUROS LT280620172806201729062017V         Novo (previa)                PERCILIANA INACIO BORGESPYC2368     9BHBG41DAHP641744APARECIDA DE GOIANIA749162600000102022814739.00GO
0660746948000112000500034647730000002          NOVA POOLCOR COR ADM DE SEG LT270620172806201729062017V         Novo (previa)              WALTERARDA COSTA SZERWINSKNLB2783     9BGSA19908B311930             GOIANIA745933000000102009859639.00GO
0660746948000112000500034646810000002            CICOR COR E ADM DE SEGS LTDA280620172806201729062017V         Novo (previa)         ARSENIO DE SOUZA NOGUEIRA FILHOPQC5160     8AJHA8CD2G2573041            ITABERAI766300000000010013720139.00GO
0660746948000112000500031291030000835          MARINHO CATALAO COR DE SEGS E 280620172806201729062017V         Novo (previa)                     CARLA SILVA MARTINSNKR3539     8AFER12P1AJ272878             CATALAO757058730000010064825639.00GO
0660746948000112000500031293590000835           LDR COR E ADM DE SEGUROS LTDA270620172806201729062017V         Novo (previa)              JOSE ISMAR ALVES DE MORAISHLL4343     WV1DD42H7B8072856  PALMEIRAS DE GOIAS761900000000010038781939.00GO
0660746948000112000100036275620000002             DIEM ADM E COR DE SEGS LTDA280620172806201729062017V         Novo (previa)              JEOVA CERQUEIRA DOS SANTOSENK6106     9BD17164LB5703498           SAO PAULO011280000000010056240837.00SP
0660746948000112000100036275630000002          HOLDEN CORRETORA DE SEGUROS LT280620172806201729062017V         Novo (previa)              MARIZA NASCIMENTO DE SOUZAEET1910     9BGRX48909G224025           SAO PAULO011040000000010020992937.00SP
0660746948000112000200034364110000837          ZE AUGUSTO CORR.ADM.SEGUROS LT270620172806201728062017V         Novo (previa)                 MARIEL ANDREI SCHVINGELQDG2634     988611152GK005126             SORRISO788900000000010034584939.00MT
0660746948000112000200031117580000837          DOMAZI CORRETORA DE SEGUROS LT230620172806201728062017V         Novo (previa)                  L P FORMATURAS LTDA MEQBM5383     9BD57814UGB088447              CUIABA780704400000010032704239.00MT
0660746948000112000300028957490000005               KARINA ARRUDA DE CARVALHO280620172806201728062017P         Novo (previa)               VAGNER APARECIDO DE SOUZAFVG9084     9BFZH54L5F8253705      RIBEIRAO PRETO142000000000010060365131.00SP
0660746948000112000300034288430000926          PERSONAL SCP CORR DE SEGS LTDA260620172806201728062017V         Novo (previa)                     CARLOS ALBERTO BAZOLZS0833     9BM388054WB159357SANTA CRUZ DAS PALME136500000000010015624837.00SP
0660746948000112000100036235610000963          FOCCO & PAVEL CORR DE SEGS LTD270620172806201728062017V         Novo (previa)       SIMONE APARECIDA FACCINA MANIEDRIEJA5681     9BFZK53A99B101516SAO BERNARDO DO CAMP096290200000010052835837.00SP
0660746948000112000800001155660000853             PROSEG ADM COR SRGS LTDA ME280620172806201728062017V                Outros             PAULO ROBERTO LAGO DE ASSISOJQ7711     9BRBLWHE3F0001213               COXIM794000000000010011052339.00MS
0660746948000112000800001186580000002          CASTRO E RESENDE CORR ADMR SEG280620172806201728062017V                Outros                     QUALLIQUINCHOS LTDAOOS4346     9BWAA45U9FP569598        CAMPO GRANDE790041100000010058533539.00MS
0660746948000112000500031291020000835          CATALAO PREVINE ADM.COR.SEG.LT280620172806201728062017V         Novo (previa)                JOAO CARLOS AIRES CAMPOSONE2479     9BG148FK0EC404791             CATALAO757010200000010038684739.00GO
0660746948000112000500034901440000002          REALCONFIANCA COR DE SEGS LTDA280620172806201728062017V         Novo (previa)                GRACE PICCIRILLI MADEIRANKJ5510     8AJFZ29G986060135             GOIANIA748231000000010065449339.00GO
0660746948000112000500034904050000002               FORTCOR CORR DE SEGS LTDA280620172806201728062017V         Novo (previa)                 LEANDRO SELECIONE ABREUJGI1442     8AFER12P17J021223             GOIANIA742100500000010028072139.00GO
0660746948000112000500034646740000002           BRADESCOR COR DE SEGUROS LTDA270620172806201728062017V         Novo (previa)      TEREZINHA LEMES RODRIGUES E SANTOSPRB0952     9BWAB45UXHP052214         GOIANAPOLIS751700000000010005877739.00GO
0660746948000112000500034900920000002          GOLD CORRETORA DE SEGUROS EIRE280620172806201728062017V         Novo (previa)       LUIZ CARLOS TEIXEIRA SILVA JUNIOROGZ6723     9BD27844PC7517551            ANAPOLIS751333000000102029094239.00GO
0660746948000112000500034646800000002           CORASBEG CORRETORA DE SEGUROS280620172806201728062017V         Novo (previa)DIEGO EVERTON DE MELHO RODRIGUES MENDONCNWO3513     8AP17202LB2199246            GOIANIRA753700000000010010263639.00GO
0660746948000112000500034648700000002          ORCA CORRETORA DE SEGUROS LTDA280620172806201728062017V         Novo (previa)MULTI DISTRIBUIDORA DE UTILIDADES DOMESTNRQ4727     1J4RR5GG0BC741449             GOIANIA742300100000010055383239.00GO
0660746948000112000500034647710000002          MELHOR OPCAO ADM E CORRR DE SE270620172806201728062017V         Novo (previa)             SINVALDO GERALDINO MACHADOSOMI8020     WV1DD42HXDA020042             GOIANIA744743160000102014451239.00GO
0660746948000112000500031293610000835           LDR COR E ADM DE SEGUROS LTDA270620172806201728062017V         Novo (previa)          SEBASTIAO EVARISTO DE CARVALHOOMM8407     9BGRP48F0DG196927  PALMEIRAS DE GOIAS761900000000010038781939.00GO
0660746948000112000500034646760000002          LEVITICO CORRETORA DE SEGUROS 270620172806201728062017V         Novo (previa)                     DIOGO SOUZA CAIXETAPQE9311     9BD37417SG5082623          VIANOPOLIS752650000000010060875139.00GO
0660746948000112000500031297120000835          NOVA POOLCOR COR ADM DE SEG LT270620172806201728062017V         Novo (previa)            ANDREA XAVIER NUNES PINHEIROPQV9183     KNAPR817BH7088259             GOIANIA741750200000102009859639.00GO
0660746948000112000100017477590000002             VILA VELHA COR DE SEGS LTDA280620172806201728062017V         Novo (previa)              WANDERLEY JOSE DE OLIVEIRAEYB3116     9BFZE55H2C8681083        PRAIA GRANDE117061000000010019576637.00SP
0660746948000112000200034350350000844              G & G CORR DE SEGS DE LTDA270620172806201728062017V         Novo (previa)                  ADINIR FLORES DA SILVAONN9585     9BWAA45U4EP077589     BARRA DO GARCAS786000000000102031783239.00MT
0660746948000112000100034467320000002           EU E VOCE CORR. DE SEGS. LTDA280620172806201728062017V         Novo (previa)                  JANILDA FERREIRA ADATIASW7189     9BD17164LB5662683              CAJATI119500000000010065744137.00SP
0660746948000112000400032653440000002          PEZAO CORRETORA DE SEGUROS LTD280620172806201728062017V         Novo (previa)       ROSANGELA DIVINA DOS SANTOS SILVANGK0532     9BG138GJ06C423849               IPORA762000000000010059545439.00GO
0660746948000112000900032521170000002                PONTAL CORR DE SEGS LTDA280620172806201728062017V         Novo (previa)              ALESSANDRA VALENTIM SCALONPWC1422     8AFAR22F9FJ326091               PRATA381400000000010016963339.00MG
0660746948000112000100036289110000001           BRADESCOR COR DE SEGUROS LTDA210620172806201728062017P         Novo (previa)          VALDOMIRO OLIVEIRA DOS SANBTOSFLD5983     9BGJB75Z0DB246050            CAMPINAS180356200000010005877731.00SP
0660746948000112000200034300310000837          EXPERTISE CORRETORA DE SEGUROS270620172806201728062017V         Novo (previa)                     E. C. ATANAZIO - MEHFI2693     9BD195152C0161595        RONDONOPOLIS787050250000102036878039.00MT
0660746948000112000400032653430000002            CARMO COSTA COR.DE SEGS.LTDA280620172806201728062017V         Novo (previa)                          D B MACHADO MEFDT8828     9BD15804AD6791891               IPORA762000000000010047917939.00GO
0660746948000112000200028035800000844              UNIVERSAL COR DE SEGS LTDA280620172806201728062017V         Novo (previa)                 MARIA APARECIDA RIBEIROQBA9726     9BD17122LF5947349         NOVA NAZARE786380000000010020680639.00MT
06607469480001120002003436407 0000837          ZE AUGUSTO CORR.ADM.SEGUROS LT260620172806201728062017V         Novo (previa)                          DANIEL TECCHIOQBM8406     8AJYY59GXF6528156             SORRISO788900000000010034584939.00MT
0660746948000112000200031136980000837             MASTERGOLD COR DE SEGS LTDA270620172806201728062017V         Novo (previa)            MARCELA DOURADO M CAPISTRANOOBJ9339     93XFRKB9TDCC60368          DIAMANTINO784000000000010050824139.00MT
0660746948000112000300032641980000002                                BRADESCO280620172806201728062017P         Novo (previa)                  MARIANA EPIFANI PILNIKFAM5995     8AJYY59G8C6502070      RIBEIRAO PRETO053390000000010067754031.00SP
0660746948000112000300034279180000836            CONASA ADM CORR SEGUROS LTDA270620172806201728062017V         Novo (previa)                       NILDO SCHONBERGEROGS8352     9BD27803MC7513661          CRISTALINA738500000000010040639239.00GO
0660746948000112000400035555510000933            SR MARTINS CORR SEGS SC LTDA270620172806201728062017V         Novo (previa)                   DIEGO ROCHA OTSUKA MELPF7082     9BWYW82798R845291           ANDRADINA169006000000010028310037.00SP
0660746948000112000300034279190000836            CONASA ADM CORR SEGUROS LTDA270620172806201728062017V         Novo (previa)                      ELIAS CAIXETA NETONGL5742     9BD15822764843554          CRISTALINA738500000000010040639239.00GO
0660746948000112000100035673270000002                   CHICO PAIVA CORRETORA280620172806201728062017P         Novo (previa)                    SERGIO MITSUO HANGAIEPG3796     93HGM2620CZ205109            CAMPINAS027170000507261058440131.00SP
0660746948000112000800001186560000002             PROSEG ADM COR SRGS LTDA ME270620172806201728062017V         Novo (previa)          ADRIANA GOMES GUEDES GUIMARAESJIX7611     1C4PJMAK5CW113883        CAMPO GRANDE790903000000010011052339.00MS
0660746948000112000800001164490000002                  WALTERARVIEIRA PEREIRA280620172806201728062017V         Novo (previa)                     RENATO SILVA TOLEDOHRG7797     9BWUS72S42R206347        CAMPO GRANDE790064400000010023981039.00MS
0660746948000112000800021165850000848           BRADESCOR COR DE SEGUROS LTDA280620172806201728062017V                Outros         NEIDE RODRIGUES DE ARAUJO PIETOAXQ8894     9BWAA45U0EP128781             CAARAPO799400000000010005877739.00MS
0660746948000112000800001186570000002             PROSEG ADM COR SRGS LTDA ME280620172806201728062017V                Outros                VICTOR DA SILVA F GUSMAOPXP8059     9BFZH54J2H8343315        CAMPO GRANDE790704860000010011052339.00MS
0660746948000112000300034279200000940          SAN MARTIN CORR ADM SEG LTDA E270620172806201728062017V                Outros               DANIEL ANTONIO DE MIRANDAPFF9445     9BWDB45U7DT300871          CRISTALINA738500000000010053349139.00GO
0660746948000112000400031864940000940          PRESTHI MD CORR DE SEGS LTDA M270620172806201728062017V                Outros           IRACI MUNHOS RODRIGUESPEREIRAEPX3164     9BGTR48J0BB316826           CATANDUVA158020400000102026294937.00SP
0660746948000112000300035149010000002          PAUTA CORRETORA DE SEGUROS LTD280620172806201728062017V                Outros                          RODRIGO GHIOTOGEB0999     3C6UR5FL0GG361599      RIBEIRAO PRETO140805400000102014607837.00SP
0660746948000112000400034856110000002               PINI COR DE SEGS S/S LTDA280620172806201728062017V         Novo (previa)                    BRUNO BUENO CARNEIROPYW4424     8AP19627ZH4174692                 JAU172010000000010025289137.00SP
0660746948000112000100034656000000002                                  DANIEL280620172806201728062017P         Novo (previa)          CLAUDIA DAS DORES CHAVES VIERADVR9002     9BFZF30A388203161            CAMPINAS070900000000010019241431.00SP
0660746948000112000100034021890000911          ECO-CAMP CORRETORA DE SEGS.LTD280620172806201728062017V         Novo (previa)             MAERCIO DANIEL RAMOS JUNIORFBQ1148     9BWAA05UXDP015718           SAO PAULO031710600000010041701737.00SP
0660746948000112000100034472840000002               PRO ITA CORR DE SEGS LTDA280620172806201728062017V         Novo (previa)                    DEBORA BOTTI RIBEIROFUA7772     9BWLL45U9FP023211        ITAPETININGA182084700000010044736637.00SP
0660746948000112000900035207870000002                LECAICO COR DE SEGS LTDA280620172806201728062017V         Novo (previa)           CLAUDIA APDA DE FREITAS FARIANGO6472     9BWKB05Z264184729          UBERLANDIA384154440000010057062139.00MG
0660746948000112000100035706690000002          CHICOLI COR.E ADM.DE SEGS.LTDA280620172806201728062017V         Novo (previa)                     DELIO PEREIRA LOPESEVE5448     8AP17206LC2238653SAO BERNARDO DO CAMP096930000000010019328337.00SP
0660746948000112000100035673260000002                     BRADESCO SEGUROS SA280620172806201728062017P         Novo (previa)                      FERNANDO PALMIERISDVB1334     8AJFZ29G276033406            CAMPINAS027170000000010005877731.00SP
0660746948000112000100034070600000002          PRETTENDER COR E ADM DE SEG LT280620172806201728062017V         Novo (previa)                             HYEMIN SONGFXM0330     3C3AFFARXET239802           SAO PAULO057161500000010047210737.00SP
0660746948000112000500031293690000844          VENSER CORRETORA DE SEGUROS LT270620172806201728062017V         Novo (previa)                       JOAO TOBIAS GOMESPDT5131     9BWAA45U4GT061614  PALMEIRAS DE GOIAS761900000000102006912039.00GO
0660746948000112000500031298030000835            GRANDCOR COR DE SEGUROS LTDA270620172806201728062017V         Novo (previa)                    MANOEL VICENTE FILHOOWW1959     9BG148MK0EC434756             GOIANIA742503250000010046085139.00GO
0660746948000112000500034646780000002           BRADESCOR COR DE SEGUROS LTDA270620172806201728062017V         Novo (previa)                 RICARDO RESENDE CAIXETAPQQ4147     9BWAA45U8GP064685          VIANOPOLIS752650000000010005877739.00GO
0660746948000112000300035778350000969          MINUTO CORRETORA DE SEGUROS S 270620172806201728062017V         Novo (previa)                  IZAQUE DE SOUSA SUTEROEAA7893     9BWAA05U09P061436             SERRANA141500000000010023075837.00SP
0660746948000112000100036217310000002          VBAM CORRETORA DE SEGUROS LTDA280620172806201728062017V         Novo (previa)              JUCICLEIDE BEZERRA COIMBRAFZC8206     95PJN81EPFB085667          INDAIATUBA133380100000010043578337.00SP
0660746948000112000900032182680000002          LADF CORRETORA DE SEGUROS EIRE280620172806201728062017V         Novo (previa)         PEDRO RICARDO DE CARVALHO FILHOEMI5197     9BGAB69C0AB248561  CARMO DO RIO CLARO371500000000102034879739.00MG
0660746948000112000500034646770000002          LEVITICO CORRETORA DE SEGUROS 270620172806201728062017V         Novo (previa)            ALANA MARIA CARNEIRO CAIXETAJIC4344     9BD17140MA5437126          VIANOPOLIS752650000000010060875139.00GO
0660746948000112000500031292960000835          NOVA CAMELOT CORR DE SEGS LTDA270620172806201728062017V         Novo (previa)           CARLOS JOSE CARDOSO DE BARROSPHI1115     988611152GK058857             GOIANIA745734010000010058242539.00GO
0660746948000112000500034646750000002          LOJACORR S A REDE DE COR DE SE270620172806201728062017V         Novo (previa)                            CLAUDIO POSTOGV1710     9BG138SP0BC487912            SILVANIA751800000000010043850239.00GO
0660746948000112000500031292950000844          SUPER REAL COR E ADM DE SEGS L270620172806201728062017V         Novo (previa)            THIAGO RIBEIRO SIDNEI VIEIRAOOA3701     9BD17122LE5912157             GOIANIA744635000000010060224839.00GO
0660746948000112000500034634950000835          GALCOR CORRETORA DE SEGUROS LT270620172806201728062017V         Novo (previa)          ERISON FERREIRA MENDONCA FILHOOGV6960     8AGCN48X0BR276299             INHUMAS754000000000010045050239.00GO
0660746948000112000500031255650000835          INFINITI PRIME CORR.ADM.DE SEG270620172806201728062017V         Novo (previa)            RICARDO RODRIGUES DE AZEVEDOOGW2958     JMYXLCW6WCU002245           GOIANESIA763800000000010057979339.00GO
0660746948000112000500031292970000835          JM ANDRADE CONS ASS TREIN CORR270620172806201728062017V         Novo (previa)                 JOEL FERREIRA DE ARAUJOONH3299     9BWJB45UXFP158949             GOIANIA745533800000102017536139.00GO
0660746948000112000500031285610000845           SICARA COR DE SEGUROS LTDA ME270620172806201728062017V         Novo (previa)                  DIVINO SINHO DE MARAESONV9594     9BWDB49N7EP008425             JUSSARA762700000000010063823439.00GO
0660746948000112000100036208870000002             VILA VELHA COR DE SEGS LTDA280620172806201728062017V         Novo (previa)                        MARCOS NISHIMURAEDE9756     3N1CN7ADXCL853542              OSASCO062730900000010019576637.00SP
0660746948000112000400030834190000002                                 BANCO  280620172806201728062017P         Novo (previa)                        EVAIR JOAE GOMESEHX2975     9BFZF55P798410260  SAO JOSE RIO PRETO151900000000102033321831.00SP
0660746948000112000100034655980000002                                BRADESCO280620172806201728062017P         Novo (previa)CEREZO CABRAL TRANSPORTES LOGISTICA LTDAFFN4450     8AC906135DE069015            CAMPINAS070900000000010060990131.00SP
0660746948000112000100034178320000915          CORREA BARROS ASS ADM CORR SEG270620172806201728062017V         Novo (previa)                   MAGNO SANTOS NAZARETHFXP1390     8AP37211ZF6123027             ITUPEVA132950000000102035286737.00SP
0660746948000112000100035708370000963          JULIFER CORRETORA DE SEGS LTDA270620172806201728062017V         Novo (previa)                    ODAIR VILAR DA SILVAPPJ4883     9BRK19BT8G2060147         SANTO ANDRE092804900000010019568537.00SP
0660746948000112000100032619880000002           HPE CORRETORA DE SEGUROS LTDA280620172806201728062017V         Novo (previa)                 LUIZ CARLOS PISCO COSTAFUO8595     JTMDD4EV3EJ002781           SAO PAULO046170070000102007605337.00SP
0660746948000112000300034292040000937          LH DOS SANTOS S COR DE SEGS ME280620172806201728062017V         Novo (previa)   VELOTRANS BMP LOGISTICA E TRANSP LTDAEJV0310     9BSR6X200D3839201            PALMITAL199700000000010073065337.00SP
0660746948000112000100034425160000002          BERTINHO - COR DE SEGUROS LTDA280620172806201728062017V         Novo (previa)     MARCOS VINICIUS MORGADO PEREIRA ECAFYX1807     9BWLL45U9FP041692             PIRAJUI166000000000010072008937.00SP
0660746948000112000500035405560000002            X HOUSE CORR DE SEGUROS LTDA280620172806201728062017V         Novo (previa)                DANIELA TONASSO DA CUNHAHCU5444     9BG138SJ06C409380           IGARAPAVA145400000000010060597237.00SP
0660746948000112000100034154500000002          HQZ INSURANCE COR DE SEGS E BE280620172806201728062017V         Novo (previa)                NADIA APARECIDA DE SOUSAFAO6236     93YHSR6P5CJ192520         SANTO ANDRE091852400000102023670037.00SP
0660746948000112000100017522770000002                  LIDER COR DE SEGS LTDA270620172806201728062017V         Novo (previa)                 CAROLINA FIGUEIREDO DIBFOX8762     8AJCC8GS0H0101821             BARUERI064581600000010014514937.00SP
0660746948000112000300035148960000002          OLIVEIRASEG COR DE SEGS ASS LT280620172806201728062017V         Novo (previa)                FABRICIO BRANDANI CAMILOBDJ1912     9BWLL45U1FP050547      RIBEIRAO PRETO140248000000102025210237.00SP
0660746948000112000300033496920000934                  ABENS COR DE SEGS LTDA270620172806201728062017V         Novo (previa)                    ANTONIO EDIS LUIZETIAAA1111     93YMAF4XEJJ912606                IEPE196400000000010023948837.00SP
0660746948000112000300034269990000845              CIRRUS COR.DE SEGUROS LTDA260620172806201728062017V         Novo (previa)                AMERICO DOURADO DA SILVANOX4456     8AJFR22G2A4544904      PADRE BERNARDO737000000000010058698639.00GO
0660746948000112000300033496910000963            INTERPRIME COR DE SEG EIRELI270620172806201728062017V         Novo (previa)  INTERPRIME CORRETORA DE SEGUROS EIRELIFKX7738     9BGPB68M0EB168924           RANCHARIA196000000000102026993537.00SP
0660746948000112000200031125900000837           VSM COR.DE SEGS DE VIDA LTDA.270620172806201728062017P         Novo (previa)          ALDO JOSE RODRIGUES DE ALMEIDADMO0606     9BGTT75B04C124578              Cuiaba782500000000102021252630.00MT
0660746948000112000500035847580000923          CYGNUS ADMR.E CORR.SEGUROS LTD270620172806201728062017V         Novo (previa)                        ERALDO FERRACINIKPI3430     936CLNFNWDB023765          SAO CARLOS135745100000010020940637.00SP
0660746948000112000100036224800000002          SEGURALFA CORRETORA E ADM DE S280620172806201728062017V         Novo (previa)             OZACY HEITOR DA SILVA FILHOPVX4001     8AFAR23L0FJ301925             LIMEIRA134804700000102020548137.00SP
0660746948000112000200034317770000837          VARIANTE CORRETORA ADM DE SEGS270620172806201728062017V             Renovacao            MARIA APARECIDA VIEIRA LEMESELM9822     8AJFY29G7D8535864     BARRA DO BUGRES783900000000010062358039.00MT
0660746948000112000800001165380000932          NEWCAS CORRETORA DE SEGUROS LT270620172806201728062017V                Outros                   EDSON REGINALDO GESSEQAH2101     8AJBA3FS0H0238893        CAMPO GRANDE790460040000102022225439.00MS
0660746948000112000300033496900000937          MN COR E ADM DE SEGS S/S LTDA 270620172806201728062017V         Novo (previa)                  REGINALDO JOSE CAZARIMCXG1680     9BG244MK01C701399               QUATA197800000000102023580137.00SP
0660746948000112000100036127420000002           TATUI ADM E CORR SEGUROS LTDA280620172806201728062017V         Novo (previa)                       RENNAN DIAS MOURAEJF4340     9BGAJ48C0AB186246               TATUI182723600000010044833837.00SP
0660746948000112000300034279930000845              CIRRUS COR.DE SEGUROS LTDA270620172806201728062017V         Novo (previa)   ADRIANA RODRIGUES RESENDE DE MENDONCAOVN1446     93YHSR6P5EJ781959      PADRE BERNARDO737000000000010058698639.00GO
0660746948000112000100017425000000002          JOSE LUIZ DA CONCEICAO FRANCIS270620172806201728062017V         Novo (previa)      RICHARD PEREIRA LACERDA DOS SANTOSEAF7055     9BD17241T83406998              SANTOS110857550000010054809037.00SP
0660746948000112000300034279950000836          LOJACORR S A REDE DE COR DE SE270620172806201728062017V         Novo (previa)                    RAFAEL JORGE CORSINOPAT7374     8AJBA3FS4H0232921      PADRE BERNARDO737000000000010043850239.00GO
0660746948000112000900033897990000626          CHEROKEE ADM.E COR.DE SEGS.LTD280620172806201728062017V         Novo (previa)           ANGELO JOSE DE OLIVEIRA AVILAHKC6424     JSAJTD54V94500058    SAO JOAO DEL REI363070600000010033904139.00MG
0660746948000112000100034154480000002            PICCAGLI CORR. SEGUROS LTDA.280620172806201728062017V         Novo (previa)               VANDERLEI DE JESUS TELLESFUY1883     9BD11056CF1569305         SANTO ANDRE090612100000010064812437.00SP
0660746948000112000400030834160000002                                   BANCO280620172806201728062017P         Novo (previa)KAMOL INDUSTRIA E COMERCIO DE CONFECCOESEDQ2294     9BD25504998851493  SAO JOSE RIO PRETO151900000000102033321831.00SP
0660746948000112000300033436940000918          SIMAO OLIMPIA COR.DE SEGS.LTDA270620172806201728062017P      Reducao franquia           FRANCISCO PERES DO NASCIMENTODNZ9943     9BWGF07X26P006629      RIBEIRAO PRETO147300000000010058567031.00SP
0660746948000112000100026636530000001           BRADESCOR COR DE SEGUROS LTDA270620172806201728062017P         Novo (previa)                      EVANDRO MANXINELLIFKE1334     9BD223156D2036103            CAMPINAS043760040000010005877731.00SP
0660746948000112000500031293580000835          ESTRADA SEGURA COR DE SEGS LTD270620172806201728062017V         Novo (previa)                CARLOS MARTINS RODRIGUESPQL8800     WV1DB42H8FA006871SAO LUIS DE MONTES B761000000000010064548639.00GO
0660746948000112000500035439050000002          CORMIG CORRETORA DE SEGUROS LT270620172806201728062017V         Novo (previa)               BRUNO HENRIQUE DE ALMEIDAJHL7419     93XPNK7409C852880              FRANCA144030780000102014203037.00SP
0660746948000112000500034240060000921          PROSEGUROS B ADM E COR DE SEG 270620172806201728062017P         Novo (previa)                RIBEIRO DEZEM E CIA LTDAFUF7274     WV1DB42H9EA026349      RIBEIRAO PRETO146000000000010059686831.00SP
0660746948000112000300033787090000931                 ALLYNE A JUSTEN CORR ME260620172806201728062017V         Novo (previa)              BATTLE DO DESTERRO MOREIRAFRX6027     8AJZX62G4E5005579  PARAGUACU PAULISTA197000000000102020864237.00SP
0660746948000112000900033834870000946          ECOSISTEMA GESTAO E COR DE SEG270620172806201728062017V         Novo (previa)       DAIANNA BRASILIO DE ARAUJO POMPEUEER5488     8AJFR22G1A4539774            BAEPENDI374430000000010060218339.00MG
0660746948000112000400033932390000941          EXTRA CORRETORA DE SEGUROS LTD270620172806201728062017V         Novo (previa)              CARLOS ROBERTO POLTRONIERIFNL5751     3FA6P0K95ER124344     SANTA FE DO SUL157750000000010020247937.00SP
0660746948000112000100036224790000002          BARBOSA E SANTANA CORR SEGS VI280620172806201728062017V         Novo (previa)                   ELOISE PANCHON MERICEFMG2997     KMHDH41GBDU757166             LIMEIRA134872200000010062388137.00SP
0660746948000112000900033834860000946          ECOSISTEMA GESTAO E COR DE SEG270620172806201728062017V         Novo (previa)                      CASA ROBERTO NEVESNRC1084     9BD27805MA7269117            BAEPENDI374430000000010060218339.00MG
0660746948000112000700033213310000002              SAG ADM E COR DE SEGS LTDA270620172806201728062017V         Novo (previa)                     JAIRO MARCIO HELENOOLU2684     8AJFY29G5C8507818             JUATUBA356750000000010071987139.00MG
0660746948000112000700033273010000002           PATRIMUS CORRETORA DE SEGUROS270620172806201728062017V         Novo (previa)               ALEXANDRE DE LIMA E SILVAPWD0195     9321LC3J8FD413880      BELO HORIZONTE302202200000010069817239.00MG
0660746948000112000100036217270000002          MULTIGLOBAL COR DE SEGS LTDA -280620172806201728062017V         Novo (previa)                  THAIS OLIVEIRA BRANDAOFDF3225     9BFZK53A7DB401581        ELIAS FAUSTO133500000000010054417537.00SP
0660746948000112000200034315200000837                BARRASEG COR. SEGS LTDA.260620172806201728062017V         Novo (previa)                VALTER SANTOS NEPOMUCENOOMX4630     9BG148LP0DC476966     VALE DOS SONHOS786080000000010024596839.00MT
0660746948000112000100036469850000911               NILTON CESAR COR SEGS LT.260620172806201728062017V         Novo (previa)                    ACACIRA ARAUJO GRILOFQY5672     93HGK5870FZ223009            CAMPINAS130980350000010040672437.00SP
0660746948000112000200034300280000837          BOM RETIRO CORR E ADM DE SEG L270620172806201728062017V         Novo (previa)   PAIOL TRANSPORTES RODOVIARIOS LTDA MENJN6652     9BD578377E7770559        RONDONOPOLIS787104920000010066748039.00MT
0660746948000112000200034359330000846           BRADESCOR COR DE SEGUROS LTDA270620172806201728062017V         Novo (previa)                      SIRLEI DE OLIVEIRANRL4548     9BFZK53AXCB356845              CUIABA780356000000010005877739.00MT
0660746948000112000200034359170000837           SIGMA ADM E CORR DE SEGS LTDA260620172706201728062017V         Novo (previa)                 ANDRESSA SILVA DE JESUSOAR6996     9BG138SJ0BC462499       VARZEA GRANDE781100020000102028861139.00MT
0660746948000112000100036293250000928          NOVA VIDA AUTO/RE COR DE SEGS 270620172706201728062017V         Novo (previa)        MARIA DE LURDES ANTUNUES CARDOSOERH8483     9BGCA80X0BB277226               IPERO185600000000010067883037.00SP
0660746948000112000500034510840000918           LEONEL ADM CORRETORA SEG LTDA270620172706201728062017V         Novo (previa)     MONICA DOMINGUES MONTEIRO DE BARROSDFP6307     9bd17202533031534            BARRETOS147800300000010017995737.00SP
0660746948000112000500033492580000940          PRESTHI MD CORR DE SEGS LTDA M270620172706201728062017V         Novo (previa)      EXCELENTE COMERCIO DE BEBIDAS LTDADCQ1433     9BSR4X2A013522523            IBITINGA149400000000102026294937.00SP
0660746948000112000100034123420000969          MINUTO CORRETORA DE SEGUROS S 280620172806201728062017P         Novo (previa)                     PAULO HENRIQUE LEALFEL5718     9BRB29BT7F2082443            CAMPINAS135005050000010023075831.00SP
0660746948000112000200032837860000002          GOLF CORRETORA DE SEGUROS LTDA270620172706201728062017V         Novo (previa)            SANDRA JUDITH GOMES DA SILVANJO5674     9BWLB05U0AP126425              CUIABA780481500000102024467339.00MT
0660746948000112000800001164630000002           EVG CORRETORA DE SEGUROS LTDA270620172706201728062017V         Novo (previa)              ELIZABETH SALDANHA NOLASCOHTT3788     9BD17164LA5618868        CAMPO GRANDE790359000000010063055139.00MS
0660746948000112000100036275600000002             DIEM ADM E COR DE SEGS LTDA270620172706201728062017V         Novo (previa)            ALCILENE PEREIRA DE OLIVEIRAFSC5143     9BWAB45Z9E4137182           SAO PAULO011310200000010056240837.00SP
0660746948000112000200032837850000002          DISTRITO MT CORRE DE SGRS LTDA270620172706201728062017V         Novo (previa)        A I DE OLIVEIRA TRANSPORTES LTDAQBF5069     2FMDK4KCXEBA59505              CUIABA780758630000102000481839.00MT
0660746948000112000700033221260000002          SADDI CORRETORA DE SEGUROS LTD270620172706201728062017V         Novo (previa)                GERALDO MOREIRA DE SOUZAOWZ0934     9BD578354E7792886             IBIRITE324202150000010021992439.00MG
0660746948000112000700033221330000002          KIRTON CORRETORA DE SEGUROS S 270620172706201728062017V         Novo (previa)                             KIGEMA LTDAPXH2000     WBAHS7107GP893240            CONTAGEM321459000000010006386039.00MG
0660746948000112000100035680450000001           BRADESCOR COR DE SEGUROS LTDA270620172706201728062017P          Substituicao            NDA PARTICIPACOES E EMP LTDAFAM9805     8AGCN48X0CR181052            CAMPINAS123220000000010005877731.00SP
0660746948000112000400032653420000002          PEZAO CORRETORA DE SEGUROS LTD270620172706201728062017V          Substituicao                 CARLOS DOS REIS MOREIRAOMI2790     8AJYY59G7D6505690               IPORA762000000000010059545439.00GO
0660746948000112000100032789480000002          FUCHIDA CORRETORA DE SEGUROS L270620172706201728062017V          Substituicao        MARIA APARECIDA DOS SANTOS SILVAEAQ9476     9BWAA05W09T061896            GETULINA164500000000102034381737.00SP
0660746948000112000900033840010000002          U.C.S.A -CORR. DE SEGS E ASS  270620172706201728062017V          Substituicao                    RODOLFO PEDRO VICTOROLU3421     9BD15844AD6736023              FRUTAL382000000000010058063539.00MG
0660746948000112000100036469890000910            FOSEG ADM E COR DE SEGS LTDA260620172706201728062017V         Novo (previa)             ALERICE MELO DE SOUZA PAIVAOWV4009     9BWAA45U1EP509006            CAMPINAS130402000000010066782037.00SP
0660746948000112000100035688520000915          NOVA VIDA AUTO/RE COR DE SEGS 220620172706201728062017V         Novo (previa)                      GLAUTON DEZAJACOMOFWU8444     9BD11819SF1320264               SALTO133202400000010067883037.00SP
0660746948000112000400033957180000940          PRESTHI MD CORR DE SEGS LTDA M270620172706201728062017V         Novo (previa)          JACUBA COMERCIO DE FRUTAS LTDABXH5881     9BM6953048B579556             ITAJOBI158400000000102026294937.00SP
0660746948000112000500035437500000002               VIA FRANCA COR.SEGS LTDA.270620172706201728062017V         Novo (previa)                      GILSON DIAS ALVINOFRA4785     9BD25504978791935              FRANCA144054630000010037204837.00SP
0660746948000112000500034901910000002          MONTE LIBANO CORR DE SEGS LTDA270620172706201728062017V         Novo (previa)          MARILUCE SPIRANDELLI FERNANDESPQC4058     9BHBH51DBFP490102             GOIANIA746450100000010028073939.00GO
0660746948000112000100036252860000975          SIRIUS CORRETORA DE SEGUROS LT260620172706201728062017V         Novo (previa)ALUMICORTE COM DE ESQUADRIAS DE ALUMINIOPUF0756     9BD17102LF5954198      EMBU DAS ARTES068262800000010035844437.00SP
0660746948000112000300034279160000940          SAN MARTIN CORR ADM SEG LTDA E270620172706201728062017V         Novo (previa)                 CLAUDIO ANTONIO PEREIRAJKL2306     9BD195152C0240185          CRISTALINA738500000000010053349139.00GO
0660746948000112000500034901430000002               FORTCOR CORR DE SEGS LTDA270620172706201728062017V         Novo (previa)          MARCO TULIO SOCRATES DE CASTROONH0080     8AFAR23L0EJ208188             GOIANIA745352700000010028072139.00GO
0660746948000112000500028782470000002          MERCEDES-BENZ COR DE SEGS LTDA260620172706201728062017P         Novo (previa)                   ALUMINIOS PRATIC LTDAONV6691     9BM979026DS016500      RIBEIRAO PRETO763000000000010006580330.00GO
0660746948000112000400032704830000002          SUPORTE PLUS CORRETORA DE SEGU270620172706201728062017P         Novo (previa)              CARLOS ALBERTO DA SILVA MEDAH4001     00037652452877958  SAO JOSE RIO PRETO150500060000010060990131.00SP
0660746948000112000100034765820000002                                  PHAROL270620172706201728062017P         Novo (previa)                       CLAUDIA GUAZZELLIEKQ6060     9BD195152B0025783            CAMPINAS134685900000010036911031.00SP
0660746948000112000300034279150000836              SCAFFER E FERRARI COR SEGS260620172706201728062017V         Novo (previa)              SUELI MOREIRA CANEDO COSTAOWW3221     9BD578141E7785401          CRISTALINA738500000000010061519639.00GO
0660746948000112000100036458520000482          NALIATO ADM E COR DE SEGS LTDA260620172706201728062017P         Novo (previa)        PRISCILA MARA MENDES DE CARVALHOENT0165     8AGCN48P0AR130753            CAMPINAS130707100000010051011431.00SP
0660746948000112000500034901880000002          ONIX EXCELLENCE ADM E COR DE S270620172706201728062017V         Novo (previa)                  CLEITON SOARES QUEIROZJHM9035     9BWXN82407R713023             GOIANIA746350550000010067362539.00GO
0660746948000112000100034472810000002           WGB ADM.E COR.DE SEGS.SS LTDA270620172706201728062017V         Novo (previa)                 LUIZ FERNANDO ANASTACIODHK0945     9BGTT69W05B112609        ITAPETININGA182152000000010006253737.00SP
0660746948000112000300035797500000936          MPL BAURU CORR DE SEGUROS LTDA260620172706201728062017V         Novo (previa)                    RODRIGO D ALESSANDROPXL0826     9BD57814UGB081922               BAURU170126410000010028886137.00SP
0660746948000112000200032837820000002          DOMAZI CORRETORA DE SEGUROS LT270620172706201728062017V         Novo (previa)             SCHUMACHER TRANSPORTES LTDAQBE6018     9BM958453DB936160       VARZEA GRANDE781580100000010032704239.00MT
0660746948000112000100036480490000002               LIVI CORRETORA DE SEGUROS270620172706201728062017V         Novo (previa)                  ROSANGELA ARAUJO ALVESEYN3535     9BGAV48J0BB303124             VINHEDO132800000000102019286037.00SP
0660746948000112000200032837810000002          DOMAZI CORRETORA DE SEGUROS LT270620172706201728062017V         Novo (previa)             SCHUMACHER TRANSPORTES LTDAOAT8966     9BD119409C1087269       VARZEA GRANDE781580100000010032704239.00MT
0660746948000112000100034786820000002          ALLIED CONSULT E COR DE SEGS L270620172706201728062017V         Novo (previa)                    CESAR ANTONIO DUARTEKMT6863     935CHRFN07B532468           SAO PAULO084712600000010069371537.00SP
0660746948000112000100036216170000002          CUBAS CORRETORA DE SEGUROS LTD260620172606201728062017V         Novo (previa)                    LUIZ CORREA DA SILVADQV4295     93HGD17606Z111438            SOROCABA180706500000102017767437.00SP
0660746948000112000900032541280000002          U.C.S.A -CORR. DE SEGS E ASS  230620172306201728062017V         Novo (previa)                   RODRIGO CESAR MARTINSOPT1233     9BD27805MD7660645              FRUTAL382000000000010058063539.00MG
0660746948000112000100036229850000910          DIAS E CATALANO COR SEG VD LTD270620172706201727062017V         Novo (previa)                    MAURO LUIZ FELISBINOEYW3988     9BGJB69X0CB224488          COSMOPOLIS131500000000102030194437.00SP
0660746948000112000100034025630000002                                   MAGGI270620172706201727062017P         Novo (previa)              JOSE ELIAS ALMEIDA E OUTRABXI7873     9BM695014XB194428            CAMPINAS182400000000010020663631.00SP
0660746948000112000900033871180000001           BRADESCOR COR DE SEGUROS LTDA260620172706201727062017P         Novo (previa)                  FABIANO FERRO TEIXEIRAKQR9535     93HFB9640FZ215329          UBERLANDIA360351300000010005877730.00MG
0660746948000112000700033277990000002          2000 ADM.E COR.DE SEGUROS LTDA270620172706201727062017V         Novo (previa)    2000 ADM E CORRETORA DE SEGUROS LTDAGVQ4157     KNCSE211267108855      BELO HORIZONTE318402200000010038484439.00MG
0660746948000112000700033277980000002          2000 ADM.E COR.DE SEGUROS LTDA270620172706201727062017V         Novo (previa)      2000 ADM CORRETORA DE SEGUROS LTDALTG0671     9BM6881575B413231      BELO HORIZONTE318402200000010038484439.00MG
0660746948000112000200034300250000846              UNIVERSAL COR DE SEGS LTDA270620172706201727062017V         Novo (previa)              TANIA MARIA PRATIS OLIVERIQBF8777     9BD378341F7853577        RONDONOPOLIS787503100000010020680639.00MT
0660746948000112000100036459100000911          ECO-CAMP CORRETORA DE SEGS.LTD260620172706201727062017V         Novo (previa)                   RAFAELLA AFONSO SARTIFQB1895     9BD26512HJ9082823            CAMPINAS130733500000010041701737.00SP
0660746948000112000900033835940000625          CORRETEO CORRET SEGS REP COM L270620172706201727062017V         Novo (previa)                  MARILIA NADIA COUTINHOOPT4823     9BFZB55H308816596              BAMBUI389000000000010037410539.00MG
0660746948000112000100036458540000231          NALIATO ADM E COR DE SEGS LTDA260620172706201727062017P         Novo (previa)          ANGELA APARECIDA CORSI PEREIRADXU6315     9BGRZ08908G120741            CAMPINAS130707100000010051011431.00SP
0660746948000112000100036458530000256          MINUTO CORRETORA DE SEGUROS S 260620172706201727062017P         Novo (previa)                      ANTONIO ALVES LIRAFBT1641     3C3AFFAR8CT247233            CAMPINAS130707100000010023075831.00SP
0660746948000112000300034279140000845          CPIOTO CORRETORA DE SEGUROS LT260620172706201727062017V         Novo (previa)                    LEANDRO SANTOS LUZ 6NVQ9705     9BWDA05U1BT082385          CRISTALINA738500000000010049680439.00GO
0660746948000112000300034279170000845          CPIOTO CORRETORA DE SEGUROS LT270620172706201727062017V         Novo (previa)          JAQUELINE FRANCISCO DA SILVA 6JHS8321     3FAHP0JAXBR186712          CRISTALINA738500000000010049680439.00GO
0660746948000112000200031113310000842          MVL CORRETORA DE SEGUROS LTDA 270620172706201727062017V         Novo (previa)                    LAURA ROCHA SPALATTINUC4481     9BRBL42E4C4729110              CUIABA780752200000102014977839.00MT
0660746948000112000500034646440000002          TERRA SANTA CORR. E ADM. DE SE270620172706201727062017V         Novo (previa)               WASHINGTON LUIZ RODRIGUESOGV6610     WV1DB42H5CA039449            TRINDADE753904000000010059402439.00GO
0660746948000112000500034900810000002          ROMA CORRETORA DE SEGUROS LTDA270620172706201727062017V         Novo (previa)                    CARLA DOS REIS ALVESEMN1278     9BGXH68P0BC112965           NEROPOLIS754600000000010012498239.00GO
0660746948000112000500034902270000002          ESTRADA SEGURA COR DE SEGS LTD270620172706201727062017V         Novo (previa)                     JOSE ALVES FERREIRAFOJ6402     9BRBD48E5E2643565             GOIANIA742102600000010064548639.00GO
0660746948000112000500034648370000002          EPOCA CON E COR DE SEG EIRELI 270620172706201727062017V         Novo (previa)                    GERALDO STIVAL LOPESONK9378     8AJFY29G5F8579008     GOIANIA / TERCA748408100000102029404239.00GO
0660746948000112000500034647400000002           BRADESCOR COR DE SEGUROS LTDA270620172706201727062017V         Novo (previa)           VERA LUCIA TAVARES DE MENESESOOD5379     WV1DB42H9EA035682             ANICUNS761700000000010005877739.00GO
0660746948000112000500034901370000002          SAGA CORRETORA DE SEGUROS LTDA270620172706201727062017V         Novo (previa)             ANDRE LUIZ DIAS DE CARVALHOOMO3539     93Y4SRD64EJ382002             GOIANIA742100600000010013867339.00GO
0660746948000112000500034648360000002          EPOCA CON E COR DE SEG EIRELI 270620172706201727062017V         Novo (previa)                     JOELMA STIVAL LOPESPQX7245     9BFZB55P9H8600975     GOIANIA / TERCA748408100000102029404239.00GO
0660746948000112000500034646460000002          NOVA POOLCOR COR ADM DE SEG LT270620172706201727062017V         Novo (previa)               JUVENIL ALVES DE OLIVEIRAOMU6969     8AJFY29G8E8552125            TRINDADE753915350000102009859639.00GO
0660746948000112000500034900830000002          R SIQUEIRA CORR DE SEGS LTDA M270620172706201727062017V         Novo (previa)                  JOSE MAURICIO DO CARMOMWN0617     9BD17307MB4341688            ANAPOLIS750600700000102034712039.00GO
0660746948000112000500034902260000002            G8 COR.E ADM.DE SEGUROS LTDA270620172706201727062017V         Novo (previa)                SONIA DOS SANTOS MACHADOPQN8621     WV1DB22HXGA018252             GOIANIA742650100000010006282139.00GO
0660746948000112000500034902240000002           KCL CORRETORA DE SEGUROS LTDA270620172706201727062017V         Novo (previa)          FELIPE GUSMAO CARVALHO ANDRADEONF9499     9BFZF55A2E8110244             GOIANIA748234300000010062381439.00GO
0660746948000112000500034901890000002          FACTOR CORRETORA DE SEGUROS LT270620172706201727062017V         Novo (previa)     LINAMARA MONTEIRO REZENDE FERNANDESOHA1099     8AJYY59G5C6500177             GOIANIA746530500000102035060039.00GO
0660746948000112000500034901900000002          ROMA CORRETORA DE SEGUROS LTDA270620172706201727062017V         Novo (previa)             CARLA DOS REIS GAIPO GLORIAPQO3872     8AJBA3CD8G1571132             GOIANIA746706300000010012498239.00GO
0660746948000112000500034900850000002          ROMA CORRETORA DE SEGUROS LTDA270620172706201727062017V         Novo (previa)                 DANIELA XAVIER DE MATOSNGY1911     9BGSN19908B109727            ANAPOLIS750966870000010012498239.00GO
0660746948000112000500028782450000835          UNICERRADO CORR DE SEGUROS LTD260620172706201727062017V         Novo (previa)                 ELZA MENDES DE MEDEIROSPQO2048     3VWLV6166GM032301               CERES763000000000010068647639.00GO
0660746948000112000500034634940000835            G8 COR.E ADM.DE SEGUROS LTDA260620172706201727062017V         Novo (previa)                SIRLON DE AQUINO PIEDADENLK6751     9BG138HF09C434474             CATURAI754300000000010006282139.00GO
0660746948000112000700029584240000624          MEU SEGURO CORRETORA DE SEGURO260620172706201727062017V         Novo (previa)                  JACKSON PEREIRA SANTOSHLB7265     9BD11940591061239           NOVA LIMA340013240000102022444339.00MG
0660746948000112000100035743280000002                          MINUTO SEGUROS270620172706201727062017P         Novo (previa)                MARCOS CARDOSO DE ARAUJOEAU3956     93YLSR2VH8J050932            CAMPINAS133301450000010023075831.00SP
0660746948000112000200034350290000837          STRELA SIGMA ADM E CORRET SEG 270620172706201727062017V         Novo (previa)                   ROBERTO BUENO REZENDEOMQ1230     9BRBD48E3D2603905          ARAGARCAS 762400000000010058129139.00GO
0660746948000112000300030148000000002          IDEAL ADM.CORR.SEGUROS S/C LTD270620172706201727062017P         Novo (previa)                CLEONICE A PRATTA COELHOEEQ2423     KMHSH81DDAU486882      RIBEIRAO PRETO136900000000010020300931.00SP
0660746948000112000800001157990000002          KIRTON CORRETORA DE SEGUROS S 270620172706201727062017V         Novo (previa)                  ANA PAULA GARCIA LOPESHRZ6615     9BG138CC01C434297          COSTA RICA795500000000010006386039.00MS
0660746948000112000800001164590000002          CASTRO E RESENDE CORR ADMR SEG270620172706201727062017V         Novo (previa)                     QUALLIQUINCHOS LTDAOOL6584     9BWAA45U0FP032988        CAMPO GRANDE790041100000010058533539.00MS
0660746948000112000800001164580000002          CASTRO E RESENDE CORR ADMR SEG270620172706201727062017V         Novo (previa)                     QUALLIQUINCHOS LTDAOOL6555     9BWAA45U5FP511780        CAMPO GRANDE790041100000010058533539.00MS
0660746948000112000800001164610000002          CASTRO E RESENDE CORR ADMR SEG270620172706201727062017V         Novo (previa)                     QUALLIQUINCHOS LTDANSD0436     9BD255049D8968786        CAMPO GRANDE790041100000010058533539.00MS
0660746948000112000800001164570000002          CASTRO E RESENDE CORR ADMR SEG270620172706201727062017V         Novo (previa)                     QUALLIQUINCHOS LTDAOOL6554     9BWAA45UXFP032707        CAMPO GRANDE790041100000010058533539.00MS
0660746948000112000400034856090000002          CAMARGO PENTEADO COR.SEGS S/C 270620172706201727062017V         Novo (previa)       PAULO SERGIO DE ALMEIDA GONCALVESGEV2410     9BGKT69V0HG188886                 JAU172082700000010039757137.00SP
0660746948000112000300031677440000002           M CASTRO CORR DE SEGS LTDA ME270620172706201727062017V         Novo (previa)             CARMEM JOSINA LOPES RIBEIROGCE7183     9BFZH55L5G8293198          VALPARAISO168800000000102033061837.00SP
0660746948000112000100036208820000002          PONTO FINAL - ADM.E COR.DE SEG270620172706201727062017V         Novo (previa)                     MARCIA BATISTA LIMAFEY2525     8AJYY59G9D6505674           SAO PAULO053140000000010032488437.00SP
0660746948000112000100036208770000002           BRADESCOR COR DE SEGUROS LTDA270620172706201727062017V         Novo (previa)                GUSTAVO ALVES DE AZEVEDOFNI5517     9BFZD55P7EB706866              OSASCO062502700000010005877737.00SP
0660746948000112000100035743270000911               MAGGI COR DE SEGUROS LTDA270620172706201727062017P         Novo (previa)                        VALDEMAR BATISTAGFV9196     8AJBA3FS6G0224933            CAMPINAS133301450000010020663631.00SP
0660746948000112000800001164600000002          CASTRO E RESENDE CORR ADMR SEG270620172706201727062017V         Novo (previa)                     QUALLIQUINCHOS LTDAOOL6557     9BWAA45U2FP032555        CAMPO GRANDE790041100000010058533539.00MS
0660746948000112000300035989480000931            AUGE CORR E ADM DE SEGS LTDA260620172706201727062017V         Novo (previa)                 MICHEL BARBOSA DA SILVADXY8424     9BGAJ48W08B189931           ARACATUBA160505100000010018324537.00SP
0660746948000112000500034648660000002          R SIQUEIRA CORR DE SEGS LTDA M270620172706201727062017V         Novo (previa)          DIOGO CARNEIRO PATRICIO DUARTEOFV9090     1C4RJFAG1CC150057             GOIANIA742301200000102034712039.00GO
0660746948000112000500034900490000002           KERIGMA C A C S REPR COM LTDA270620172706201727062017V         Novo (previa)                          ELITON MARINHOPQH4467     9BD11818MG1329823             GOIANIA748855680000010030781539.00GO
0660746948000112000500034900840000002          PADUA ADMINISTRADORA E CORRETO270620172706201727062017V         Novo (previa)                  KENIA CRISTINA DE MELOOGH7698     94DVCGD40DJ339212  PETROLINA DE GOIAS754800000000102014032039.00GO
0660746948000112000500034904010000002           KDACOR ADM E COR. DE SEG. LTD270620172706201727062017V         Novo (previa)               HENRIQUE FERREIRA TAVARESOLP4545     8AJFY29G5C8504353             GOIANIA741751000000102024465739.00GO
0660746948000112000500034900480000002           LDR COR E ADM DE SEGUROS LTDA270620172706201727062017V         Novo (previa)                     JOSE MAGNO DE LELESOMP3348     93XFNH72WFCE92076             GOIANIA748830650000010038781939.00GO
0660746948000112000500034900820000002          ROMA CORRETORA DE SEGUROS LTDA270620172706201727062017V         Novo (previa)             JOAO PEREIRA CAIXETA JUNIORJKR3731     WV1DB42H2DA065881           NEROPOLIS754600000000010012498239.00GO
0660746948000112000500034647390000002          TERRA SANTA CORR. E ADM. DE SE270620172706201727062017V         Novo (previa)                ELSIONE CANDIDO DA SILVAOMJ2929     9BG148LP0DC456617SANTA BARBARA DE GOI753980000000010059402439.00GO
0660746948000112000500034901380000002          SANTA IZABEL ADM COR SEGS LTDA270620172706201727062017V         Novo (previa)               LUCIO JOSE ELIAS MONTEIROPQQ2404     WDDWF4AW0FR087587             GOIANIA741502000000010013741339.00GO
0660746948000112000100027476390000979               CLAUDIA DE OLIVEIRA CEZAR270620172706201727062017V         Novo (previa)                   JOAO BARBOSA DE SOUZADQA3467     9BFZE12N058645317             GUARUJA114400600000010039932937.00SP
0660746948000112000200031116280000844           CITRO COR DE SEG DE VIDA LTDA240620172706201727062017V         Novo (previa)               NUYAN ALVES DO NASCIMENTOONF2123     9BGKS69L0DG327320MONTES CLAROS DE GOI762550000000102035223939.00GO
0660746948000112000800021173830000848                  DAVI CORR SGRS SS LTDA260620172706201727062017V                Outros                     E G SOINSKI RESINASHRS2236     9AU211230X1033262  RIBAS DO RIO PARDO791800000000102022469939.00MS
0660746948000112000800021173820000839          NATAL PEREIRA CORR DE SEGS LTD270620172706201727062017V                Outros                RODRIGO FERNANDES DUARTENRL7609     9BRBD48E7C2556540         TRES LAGOAS796010500000010073012239.00MS
0660746948000112000800001164440000002           BRADESCOR COR DE SEGUROS LTDA270620172706201727062017V                Outros                 MARCELO RODRIGUES MARINHTJ2617     9BWAA05U3AP016057        CAMPO GRANDE790029490000010005877739.00MS
0660746948000112000800001164430000002          CASTRO E RESENDE CORR ADMR SEG270620172706201727062017V                Outros                          MARCOS YALLOUZQAD3479     936CMNFN2HB014622        CAMPO GRANDE790310100000010058533539.00MS
0660746948000112000300033431780000911                ROSANA PANTAROTO MESIANO270620172706201727062017P                Outros                RAFAEL BERTOLINI MACHADOFSH2672     3N1BB7AE5GY204995      RIBEIRAO PRETO096290000000010050679631.00SP
0660746948000112000300035797540000936           LIMAO COR.DE SEGUROS SC LTDA.260620172706201727062017V         Novo (previa)                     DECIO ROBERTO PEDROFKT1188     8AJFY29G9D8539821               BAURU170247600000010046489937.00SP
0660746948000112000500035437480000002               VIA FRANCA COR.SEGS LTDA.270620172706201727062017V         Novo (previa)                    ROSELI BASTIANINI MEBMQ8451     9BWV2VC13YRY01228              FRANCA144020440000010037204837.00SP
0660746948000112000400034856070000002               PINI COR DE SEGS S/S LTDA270620172706201727062017V         Novo (previa)                     LUIS ANDRE DA SILVAFND3498     9BWDB45U6ET184984                 JAU172086900000010025289137.00SP
0660746948000112000100034714460000002                        MAXXICOM SEGUROS270620172706201727062017P         Novo (previa)                         HERBERT MAZIEROFGF3498     9BWAA05U9DP511142            CAMPINAS094063000000010039298731.00SP
0660746948000112000200034350280000837          STRELA SIGMA ADM E CORRET SEG 270620172706201727062017V         Novo (previa)                 JOELB FERREIRA DE SOUZAPQT3792     988226175HKA62789     BARRA DO GARCAS786000000000010058129139.00MT
0660746948000112000100034758910000972          ACERTI RODRIGUES E SOARES C.S.270620172706201727062017P         Novo (previa)                        BRUNO MARROCHELIFVL9139     9BWAH4120HT504567            CAMPINAS086742400000010040604031.00SP
0660746948000112000500034638690000835           KERIGMA C A C S REPR COM LTDA260620172706201727062017V         Novo (previa)                 LUCILEY FERREIRA ADORNONLH3958     9BG138SF0BC402172     ABADIA DE GOIAS753450000000010030781539.00GO
0660746948000112000500028780470000842          SANTOS MACHADO CONS CORR SEG E260620172706201727062017V         Novo (previa)           ALCEU FERREIRA DA SILVA FILHOOOD1957     9BG148MK0EC437967          ITAPURANGA766800000000102022778739.00GO
0660746948000112000500031292920000835          FABRICIO VIL. CAST. COR. SEG. 260620172706201727062017V         Novo (previa)            JOSE MARTINS DE CASTRO FILHONLO7700     9BD11812181027017             GOIANIA746851500000010070290139.00GO
0660746948000112000100033556150000959          JUSEG CORRETORA DE SEGUROS LTD260620172706201727062017V         Novo (previa)                HENOQUE BATISTA DA SILVADDO9430     9BD17164G85130991    FRANCISCO MORATO079161100000102038472637.00SP
0660746948000112000100033556140000958          RODRIGUES BRITO COR DE SEGS LT260620172706201727062017V         Novo (previa)                  JOSE NILDO DE OLIVEIRAETH7210     9BGTD75C0BC153771    FRANCISCO MORATO079981000000010060689837.00SP
0660746948000112000100036275540000002          CALTABIANO CORR DE SEGUROS LTD270620172706201727062017V         Novo (previa)                   PEDRO COUTO GONCALVESFRE9631     94DFFUK13FB100529           SAO PAULO011330000000010057210137.00SP
0660746948000112000100036275570000002          MINUTO CORRETORA DE SEGUROS S 270620172706201727062017V         Novo (previa)                           JOSE TREVISOLFAI0331     9BWAA45Z6D4137643           SAO PAULO011550400000010023075837.00SP
0660746948000112000200028010350000837          CLEIDERSON QUEIROZ DE OLIVEIRA260620172706201727062017V         Novo (previa)    VANIA SONZA SERVICOS DE PINTURA LTDANUD9595     9BFYEAYX0CBL95971               JUINA780682100000102011819839.00MT
0660746948000112000200031112280000837             M.B. ADM.E COR.DE SEGS.LTDA260620172706201727062017V         Novo (previa)            NELVAIR TOLENTINO DOS SANTOSQBM0628     9BG148FKCHC432054    NOVA MONTE VERDE785930000000010014098839.00MT
0660746948000112000100034773470000002          SEGCOR PRIME CORRETORA DE SEGU270620172706201727062017V         Novo (previa)                 VITOR HUGO JOSE DE LIMADDS7098     9BGRD08Z01G154289             DIADEMA099210400000102009770037.00SP
0660746948000112000100036267730000002          MINUTO CORRETORA DE SEGUROS S 270620172706201727062017V         Novo (previa)          HELIO CARLOS VILACA DOS SANTOSHGV7261     9BD17106G85057610           SAO PAULO048434600000010023075837.00SP
0660746948000112000200034343290000835          ESSEG CORRETORA DE SEGUROS LTD270620172706201727062017V         Novo (previa)                    CLAUDIO NUNES SOARESPWG1329     9BG148MA0FC432253SANTA HELENA DE GOIA759200000000040000203839.00GO
0660746948000112000900033894510000609                           VANIA MARTINS270620172706201727062017V         Novo (previa)                   GERALDO TOMAZ DE MELOPZS0656     93Y9SR3H5JJ870769            JOANESIA351940000000102036129739.00MG
0660746948000112000100035688610000915          NOVA VIDA AUTO/RE COR DE SEGS 260620172706201727062017V         Novo (previa)                ELPIDIO CESAR DOS SANTOSELK5590     3GNCL53749S624830               SALTO133237020000010067883037.00SP
0660746948000112000300036046030000929          DE SANTIS CORRETORA DE SEGUROS260620172706201727062017V         Novo (previa) VINALCO IND. COM. IMPORTACAO E EXP LTDAAAA1111     9BD5781FFHY173549           ANALANDIA135500000000010070165337.00SP
0660746948000112000900033867740000631              VIA DUPLA ADM COR SEG LTDA260620172706201727062017V         Novo (previa)          MONICA DE FATIMA SILVA E SOUSAJHQ8833     9BWDA05U19T234420                UNAI386100000000010042863939.00MG
0660746948000112000900030553610000002          GILBERTO FERREIRA SEG ADM COR 270620172706201727062017V         Novo (previa)              MARIA WILMA ALVES PINHEIRODRF2662     9BR53ZEC488712823             ATALEIA398500000000010044650539.00MG
0660746948000112000400030874450000002          J F ADM E CORR DE SEGUROS LTDA270620172706201727062017V         Novo (previa)                       JOSE PAULO GARCIAELM3877     9BRBB48E6A5089418              BROTAS173800000000010019413137.00SP
0660746948000112000900032113180000627          RACINI ADM E CORR DE SEGS LTDA260620172706201727062017V         Novo (previa)                     ERCIO VILELA AMARALHNB6332     9BD197132D3048843       BOA ESPERANCA371700000000010047477139.00MG
0660746948000112000300035752690000149            CLAGI COR E ADM DE SEGS LTDA240620172706201727062017P         Novo (previa)                        SUCATAS S S LTDANKJ1438     9BSG6X200A3655685      RIBEIRAO PRETO141705800000010047139931.00SP
0660746948000112000900032113190000627          RACINI ADM E CORR DE SEGS LTDA260620172706201727062017V         Novo (previa)            BOA ESPERANCA FERRAGENS LTDAPUZ5349     9BD578141F7905454       BOA ESPERANCA371700000000010047477139.00MG
0660746948000112000900032505740000002          FRANGAO CORRETORA DE SEGUROS L270620172706201727062017V         Novo (previa)                      OSNY SALOMAO FILHOHMF0216     8AJFY29G5D8517153         TUPACIGUARA384800000000010049558139.00MG
0660746948000112000400030874440000002          J F ADM E CORR DE SEGUROS LTDA270620172706201727062017V         Novo (previa)              WANDERLEI ZANFORLIN JUNIORFFO9246     WV1DB42H6EA017222              BROTAS173800000000010019413137.00SP
0660746948000112000100036276430000002             CLAUDIA REGINA F R DA ROCHA270620172706201727062017V         Novo (previa)            SALETE ANTAO FERNANDES COSTAEMH3402     9BFZE55H698559450           SAO PAULO024610110000010068454637.00SP
0660746948000112000900032143300000625          PEDRA NEGRA COR.DE SEGUROS LTD270620172706201727062017P         Novo (previa)                  MARCELO DE SOUZA FILHOHJB1730     kmhjn81bp8u856309          UBERLANDIA354880000000010044857530.00MG
0660746948000112000100036118890000002          JSL CORRETORA E ADM DE SEGS LT270620172706201727062017V         Novo (previa)                 JOAO RIBEIRO DOS SANTOSFYN3890     9BFZD55P1FB748824 SAO JOSE DOS CAMPOS122153800000010037122037.00SP
0660746948000112000100034178300000972          SALIM CORRETORA DE SEGS S C LT260620172706201727062017V         Novo (previa)                 GENILDA TOME DE SANTANAODD6846     SALFA2BD6BH275646             ITUPEVA132950000000010043730137.00SP
0660746948000112000100034123400000001           BRADESCOR COR DE SEGUROS LTDA270620172706201727062017P     Parcela em atraso                   RODRIGO VENTURA SILVAEVG4141     93XFRH77WBCB58864            CAMPINAS135005050000010005877731.00SP
0660746948000112000300035149570000002            SEAC CORR E ADM DE SEGS LTDA270620172706201727062017V     Parcela em atraso                  MARISA STELLA BENEDINIFFQ9060     93XFRKH9WFCE17125      RIBEIRAO PRETO140790000000010046093137.00SP
0660746948000112000100034724620000002          LOPES E MORETTI COR SEG SS LTD270620172706201727062017V     Parcela em atraso                  JOAO ANTONIO DE CASTROFNL5218     9BWAB45Z8E4022587           GUARULHOS072620200000010060845937.00SP
0660746948000112000300033748110000002                  MANDALITI COR SEG LTDA270620172706201727062017V     Parcela em atraso                      JOAO SILVIO ABILIOFEG1957     93XJRKB8TDCD65191            BOTUCATU186077770000010046655737.00SP
0660746948000112000900033806580000630          NIVIA & SILVA ADM COR SEGS VID230620172706201727062017V         Novo (previa)              ROBERTO DOS SANTOS AZEVEDOJRB7257     9BFZE16P888913952      JOAO MONLEVADE359380000000010055733139.00MG
0660746948000112000900033806590000630          NIVIA & SILVA ADM COR SEGS VID230620172706201727062017V         Novo (previa)                 GEOVAN RICARDO FERREIRAOPK4263     9BD119409D1102322      JOAO MONLEVADE359310040000010055733139.00MG
0660746948000112000500035847490000923           S L CORRETORA DE SEGUROS LTDA260620172706201727062017V          Substituicao            ELIANA DE CASSIA SOLER LOPESENY8163     knafu411ba5172343          SAO CARLOS135676600000102005433537.00SP
0660746948000112000300034271570000845          ADRIANA APARECIDA FERRAZ FRAGA260620172706201727062017V          Substituicao          JOSEFA PEREIRA ALVES DE FARIASOMZ9468     9BHBG41CAFP357181    CIDADE OCIDENTAL728852500000010068160139.00GO
0660746948000112000100032914260000977          W7 CORRETORA DE SEGUROS LTDA M230620172706201727062017P         Novo (previa)            HIGOR LUIZ OLIVEIRA DA ISLVaAXU1778     9BGJB69X0EB184718            CAMPINAS021350010000102020736031.00SP
0660746948000112000100034154450000002          RDIAS CORRET DE SEGS E SEV LTD270620172706201727062017V         Novo (previa)                     CELSO DEVANEI BUENOEZR5408     9BWPB45Z9C4155401         SANTO ANDRE090703310000102029984237.00SP
0660746948000112000500031292940000835          MAGALHAES CORR DE SEGS E CONS 260620172706201727062017V         Novo (previa)               MARIA LUCIA DE MELO SOUZANLF7284     9BGAB69C09B285192             GOIANIA745500600000102033290439.00GO
0660746948000112000100034178270000916             TOP GUARD CORR DE SEGS LTDA260620172706201727062017V         Novo (previa)                  DANIELA EDILAINE VOLPIJUI8307     935FCN6A84A000898             JUNDIAI132122400000102032286037.00SP
0660746948000112000300034271510000836          REAL CERBINO CORR E ADM DE SEG240620172706201727062017V         Novo (previa)                JOSE LINS DE ALBUQUERQUEPBC4063     9BFZH55L7J8483558 VALPARAISO DE GOIAS728765700000102023452039.00GO
0660746948000112000100035707690000977          SINERJUNIOR CORRET. SEGS. LTDA260620172706201727062017V                Outros                RUBENS DE MORAES BOTELHOFGL6329     9BD19510ZF0680335      RIBEIRAO PIRES094112400000010051076937.00SP
0660746948000112000300034271580000836          SAGA CORRETORA DE SEGUROS LTDA230620172706201727062017V                Outros    GARDENYA VIRGINIA DE MEDEIROS ARAUJOOVR1698     9BFZF55A1E8085451 VALPARAISO DE GOIAS728700640000010013867339.00GO
0660746948000112000200032837780000002          PENTAGONAL COR.SEGS.E IMOV.LTD270620172706201727062017V                Outros           SERGIO TADASHI ADANIYA JUNIOROBO9986     9BD195152E0480365              CUIABA780088000000010049280939.00MT
0660746948000112000400035466710000940           SEICOM ADM.E COR.DE SEGS.LTDA260620172706201727062017V         Novo (previa)        TERESA PEREIRA DE SOUSA FERREIRAHNF1227     TRUAFB8J6C1004277SAO JOSE DO RIO PRET150615100000010019188437.00SP
0660746948000112000500031295080000835          ATURISEG CORRETORA DE SEGUROS 260620172706201727062017V         Novo (previa)              REGINALDO ROMUALDO PEREIRAAAA1111     988675124HKH28396        CALDAS NOVAS756900000000010043788339.00GO
0660746948000112000900032507680000002          NIVIA E SILVA ADM COR SEGS VID270620172706201727062017V         Novo (previa)                   FLAVIO CESAR CALDEIRAGYX2507     8AGCB48X0BR137615     BARAO DE COCAIS359700000000010055733139.00MG
0660746948000112000300035797470000936           LIMAO COR.DE SEGUROS SC LTDA.240620172706201727062017V          Substituicao                  OSWALDO OLIMPIO VIEIRAEWS4259     KMHJU81BBCU363750               BAURU170268090000010046489937.00SP
0660746948000112000400034856010000002               PINI COR DE SEGS S/S LTDA270620172706201727062017V          Substituicao            VINICIUS FERNANDO CARBO LUIZERP0768     8AGCN48X0BR208R20                 JAU172107100000010025289137.00SP
0660746948000112000100034168680000231                 GROPELO COR. SEGS LTDA.260620172706201727062017P         Novo (previa)                        AILTON PIRATELLIDNZ2987     93HGD17405Z123044            CAMPINAS132022510000010042223131.00SP
0660746948000112000300033451940000921          I9 VISTA ALEGRE CORR DE SEGS S260620172706201727062017V         Novo (previa)                  LUCAS HENRIQUE PEREIRAEKY0876     9BWAA05U0AT031283VISTA ALEGRE DO ALTO159200000000010072881137.00SP
0660746948000112000100036125540000181          TANTRA CORRETORA DE SEGUROS LT260620172706201727062017P         Novo (previa)             DEUSDETE ROSA AMARAL JUNIORFAS1715     93YBSR76HDJ396779            CAMPINAS080700010000010053485431.00SP
0660746948000112000200032837770000002          DOMAZI CORRETORA DE SEGUROS LT270620172706201727062017V         Novo (previa)             SCHUMACHER TRANSPORTES LTDANCU8808     8AJFY29G1E8547400       VARZEA GRANDE781580100000010032704239.00MT
0660746948000112000100034168640000916          FORMAGGIO ADM E COR DE SEGS LT270620172706201727062017V         Novo (previa)                RAFAEL DE OLIVEIRA TROVOFOC4495     936CLYFYYEB057061             JUNDIAI132064800000010042379337.00SP
0660746948000112000400035555480000933            SR MARTINS CORR SEGS SC LTDA260620172706201727062017V         Novo (previa)            DEOCLECIO FERRERIA RODRIGUESFTY2435     9BWLL45U2FP029593       ILHA SOLTEIRA153850000000010028310037.00SP
0660746948000112000700033210190000002          GDL ADM E CORRETORA DE SEGUROS260620172706201727062017V         Novo (previa)       MARIA AUGUSTA DELLARETTI LATALISAPZI0053     9BHBG51CAHP731534      BELO HORIZONTE303106000000010061631139.00MG
0660746948000112000400032653390000002          PEZAO CORRETORA DE SEGUROS LTD270620172706201727062017V         Novo (previa)             BEIJAMIRA MADALENA DE MOURAONC4468     8AJEX32G5F4039597               IPORA762000000000010059545439.00GO
0660746948000112000400031864890000940          PRESTHI MD CORR DE SEGS LTDA M260620172706201727062017V         Novo (previa)                       FLAVIO JOSE BRUNOGWH7658     9BD15804AA6392391           CATANDUVA158020400000102026294937.00SP
0660746948000112000200032841330000002          MINUTO CORRETORA DE SEGUROS S 260620172706201727062017V         Novo (previa)                CRISTIANE DE SOUZA SILVAOBJ8516     8BCLCN6BYEG514026              CUIABA780482950000010023075839.00MT
0660746948000112000100036050210000948          TREVISA COR E ADM DE SEGS LTDA260620172606201727062017V         Novo (previa)                       VALDEMIR DA SILVAFWG2002     3VWDJ2168EM014842VARGEM GRANDE PAULIS067300000000010055450237.00SP
0660746948000112000100036050150000969            EMERSON CAPAZ CONS E COR SEG260620172606201727062017V         Novo (previa)   FOCCO LOCACAO DE MAQUINAS E EQUI LTDAFKG8456     93ZC35B01E8461625           SAO PAULO055370900000010037493837.00SP
0660746948000112000200034359220000837          PROTEGE CORRETORA DE SEGS LTDA260620172606201727062017V         Novo (previa)                      BRAZ ALVES DE LIMANJN2669     935FCKFV88B566005              CUIABA780433750000010023648939.00MT
0660746948000112000900033834840000627          LIMA E FIGUEIREDO COR  SEGS LT260620172606201727062017V         Novo (previa)           SOCRATES JOSE CHAVES VARGINHAPUC2609     8AJFY22GXE8015069            AIURUOCA374500000000010036216639.00MG
0660746948000112000200034359200000837          RESPALDO ASS E CORR DE SEGS LT260620172606201727062017V         Novo (previa)                   THIAGO DE PINHO SILVAQBC3671     94DVCUD40FJ497905              CUIABA780684350000010056603939.00MT
0660746948000112000100036469710000940          PRESTHI MD CORR DE SEGS LTDA M230620172606201727062017V         Novo (previa)       APARECIDA DE FATIMA VATRE PIMENTAERL8291     KMHDC51EBBU308825            CAMPINAS130501210000102026294937.00SP
0660746948000112000100036229770000911                   ERANDI LUCAS DE BRITO260620172606201727062017V         Novo (previa)                          SILVANA MARSONFZB3270     9BWLL45U4FP066726          COSMOPOLIS131500000000010064380737.00SP
0660746948000112000100035680360000001           BRADESCOR COR DE SEGUROS LTDA240620172606201727062017P         Novo (previa)                       JULIANE M P OROZYEDT4306     9BD17350M94230053            CAMPINAS123220000000010005877731.00SP
0660746948000112000100036275520000002                 M.A.S CORR DE SEGS LTDA260620172606201727062017V         Novo (previa)                  WILSON BRIANEZI JUNIOREPS6730     94DVDUD40AJ397233           SAO PAULO012100000000102030989937.00SP
0660746948000112000500034901350000002          LOJACORR S A REDE DE COR DE SE260620172606201727062017V         Novo (previa)           PEDRO HENRIQUE MENDONCA FELIXPQD1639     8AJBU3FS1H0020274             GOIANIA740855800000010043850239.00GO
0660746948000112000500034648310000002           KERIGMA C A C S REPR COM LTDA260620172606201727062017V         Novo (previa)          WANESSA JACQUELINE BERGAMASCHINWQ9838     3VWBJ2162BM105771             GOIANIA743432600000010030781539.00GO
0660746948000112000500031290960000835          ASA ADM COR SEGS ARAGUAIA LTDA260620172606201727062017V         Novo (previa)                JOAO EMIDIO PEREIRA NETOHKF3492     9BGRZ48109G273742             CATALAO757125000000010022025639.00GO
0660746948000112000500034646690000002          MARISTA CORRETORA DE SEGUROS L260620172606201727062017V         Novo (previa)                 EDINEI RICARTE DA SILVANKX5639     8AJFZ29G196084074      SENADOR CANEDO752614110000010041191439.00GO
0660746948000112000500034634930000835          APOIO CORRET DE SEGUROS LTDA M260620172606201727062017V         Novo (previa)                    SUELI SOARES MARTINSOGS6989     WV1DB42H4CA044691             INHUMAS754000000000102016112339.00GO
0660746948000112000500034646730000002            CORRENTE COR.DE SEGUROS LTDA260620172606201727062017V         Novo (previa)                  VALQUES SOUSA NOGUEIRAOMX0674     9BGKS48B0DG321050         HIDROLANDIA753400000000010025560239.00GO
0660746948000112000500034646980000002          NOVADIAMANTINA ADM E COR DE SE260620172606201727062017V         Novo (previa)  ROSIMEIRE PEREIRA DOS SANTOS RODRIGUESNVQ5960     9BWAB45Z6B4117578      SENADOR CANEDO752623070000010072851939.00GO
0660746948000112000500034649480000835          GALCOR CORRETORA DE SEGUROS LT240620172606201727062017V         Novo (previa)                        RALFFE RODRIGUESOML7049     9BG148EP0EC442098             INHUMAS754000000000010045050239.00GO
0660746948000112000500031290930000975           HPE CORRETORA DE SEGUROS LTDA240620172606201727062017V         Novo (previa)                 ANTONY HENRIQUE MARQUESOMJ6006     8AFUZZFHCDJ055292             CATALAO757035100000102007605339.00GO
0660746948000112000700033221210000002             SELTSEG COR DE SEGUROS LTDA260620172606201727062017V         Novo (previa)        EMIFOR INDUSTRIA DE ALIMENTOS SAPVY6315     93XHYKH8WFCE16747            CONTAGEM323415000000010038652939.00MG
0660746948000112000200032844180000002              RIO BRANCO COR DE SEG LTDA260620172606201727062017V         Novo (previa)                 LUCIANO LUIS BRESCOVICIQBY9760     SALCA2BG1GH544981              CUIABA780401700000040000691239.00MT
0660746948000112000100036219680000967          RUSH CORRETORA DE SEGUROS LTDA240620172606201727062017V         Novo (previa)                 MERCADAO TIJOLO E TELHAEZD2409     9BFVEADS9DBS13361           GUARULHOS071811300000010048437737.00SP
0660746948000112000500031292910000835          PORTO BELO CORRETORA E ADM SEG260620172606201727062017V         Novo (previa)              JOSE DIEGO SILVA DE MORAISOND2708     9BD197163F3238763             GOIANIA744533900000102019086739.00GO
0660746948000112000300035951110000940          SEGURALTA OESTE COR DE SEGS LT260620172606201727062017V         Novo (previa)     EDILHERME VIRGINIO DE SOUZA MARTINSBJO9886     9bd11811191067500     RIBEIRAO DO SUL199300000000010036101137.00SP
0660746948000112000900030553600000002          GOMES E SOUZA ADM COR SEG VIDA260620172606201727062017V         Novo (previa)                    CELSO GOMES DA SILVAPVG8475     9BWDB45U5FT063722       CARLOS CHAGAS398640000000010068923839.00MG
0660746948000112000100035743200000002                                   ALOEF260620172606201727062017P         Novo (previa)                      ELIANA AP P CORREADQC0983     9BGXH80G06C104129            CAMPINAS133301450000010044104031.00SP
0660746948000112000300033782110000001           BRADESCOR COR DE SEGUROS LTDA260620172606201727062017P         Novo (previa)              FLAVIO JOSE BRAZ FAIRBANKSDTQ7705     9BWCA05W97T129022      RIBEIRAO PRETO185400000000010005877731.00SP
0660746948000112000100036263530000920          MN COR E ADM DE SEGS S/S LTDA 260620172606201727062017P         Novo (previa)                           CHALANA PNEUSCNZ8039     9BFBTNM6XWDB01441            CAMPINAS163000000000102023580131.00SP
0660746948000112000200028035790000641                UNICOOB COR DE SEGS LTDA260620172606201727062017V         Novo (previa)                      PAULO SERGIO DINIZQBQ4385     8AJYY59G3F6531884            AGUA BOA786350000000010056267039.00MT
0660746948000112000200031117610000837          DOMAZI CORRETORA DE SEGUROS LT240620172606201727062017V         Novo (previa)             SCHUMACHER TRANSPORTES LTDAQBV7538     94DVDUD40FJ454756       VARZEA GRANDE781580100000010032704239.00MT
0660746948000112000100028218480000001           BRADESCOR COR DE SEGUROS LTDA190620172606201727062017P         Novo (previa)                TIAGO RODRIGUES DA SILVAEDT8606     9BGTR48C0BB142290            CAMPINAS137300050000010005877731.00SP
06607469480001120002003434326 0000835          ESSEG CORRETORA DE SEGUROS LTD260620172606201727062017V         Novo (previa)                  ATAIDE BORGES DA SILVAONA6519     93HFB9640FZ213123SANTA HELENA DE GOIA759200000000040000203839.00GO
0660746948000112000200032837730000002          PENTAGONAL COR.SEGS.E IMOV.LTD260620172606201727062017V         Novo (previa)                      ZILDA MARIA JARDIMQBC2065     9UK2A3A23G0390574              CUIABA780483500000010049280939.00MT
0660746948000112000900032591100000002          GALDIANO CORRETORA DE SEGUROS 260620172606201727062017V         Novo (previa)   SSI SOLUCOES EM SISTEMA DE INFORMACAOOWS6139     8BCNDRFJYEG530135          UBERLANDIA384085140000010034161439.00MG
0660746948000112000500034648330000002          ORCA CORRETORA DE SEGUROS LTDA260620172606201727062017V         Novo (previa)WA DO BRASIL IND E COM DE ALIMENTOS LTDAPQE5635     8AFAR23L6FJ316140APARECIDA DE GOIANIA749852250000010055383239.00GO
0660746948000112000500034901760000002          CASDAN CONS E CORR DE SEGS LTD260620172606201727062017V         Novo (previa)                    MAYSA GUIMARAES ROSAONY5735     93XXTGA2WECD01095             GOIANIA746720100000010055136839.00GO
0660746948000112000100036304650000836          SEGURALTA OESTE COR DE SEGS LT260620172606201727062017P         Novo (previa)                      IVO DA SILVA RAMOSFSE0088     KNAKU813DC5268040            CAMPINAS098200000000010036101131.00SP
0660746948000112000500034648600000002          VENTURA HAIKAR COR DE SEGS LTD260620172606201727062017V         Novo (previa)                    HAIKAR VEICULOS LTDAOOB8653     93HGK5840FZ225223             GOIANIA741503000000010064508739.00GO
0660746948000112000500034649670000002          SANTOS MACHADO CONS CORR SEG E240620172606201727062017V         Novo (previa)                       ALEXANDRE RIBEIROONY5129     93XHYKB8TFCE89568             GOIANIA742150500000102022778739.00GO
0660746948000112000500035437410000002          ESTILO SEG-PREV COR DE SEG LTD260620172606201727062017V         Novo (previa)       DISTRIBUIDORA CHOK DOCE DE FRANCACPI0533        30830212454508              FRANCA144011000000102014626437.00SP
0660746948000112000200029297750000645                COLIGACAO COR DE SEGUROS260620172606201727062017V         Novo (previa)                        ROMILDO CHEROBINADM5222     8AJYZ59G273015595             COLIDER785000000000010041803039.00MT
0660746948000112000300033782120000001           BRADESCOR COR DE SEGUROS LTDA270620172706201727062017P         Novo (previa)                   CELSO BENEDITO BARROSERY5479     93HGM2610BZ115381      RIBEIRAO PRETO185400000000010005877731.00SP
0660746948000112000500035437390000002                 G.L COR DE SEGUROS LTDA260620172606201727062017V         Novo (previa)                  GERALDO VENANCIO PINTOJKM4179     8AFAR23L1EJ138913              FRANCA144032310000010019353437.00SP
0660746948000112000100034786790000002          MAXWAY CORRETORA DE SEGUROS LT260620172606201727062017V         Novo (previa)             FLAVIA SANTOS SILVA SFORSIMEEI7031     93HGE57408Z215633           SAO PAULO080807000000010043232637.00SP
0660746948000112000100036235460000002          OLIVER CONCEICAO STOIANOV MARQ260620172606201727062017V         Novo (previa)                    MARIA GORETE SANTANAOWZ4374     9BD195152E0563040SAO BERNARDO DO CAMP097510000000010041571537.00SP
0660746948000112000200032837710000002          DOMAZI CORRETORA DE SEGUROS LT260620172606201727062017V         Novo (previa)             SCHUMACHER TRANSPORTES LTDANJN9474     9BM958461AB702660       VARZEA GRANDE781580100000010032704239.00MT
0660746948000112000100036461100000911           ABITATI ADM CORR SEGUROS LTDA260620172606201727062017V         Novo (previa)                  EDVAL PICCOLO DE MATOSGHL1189     93XFNKA5THCG28779             ITATIBA132562120000010027983837.00SP
0660746948000112000500034649450000002          VITAM CORRETORA E ADM DE SEGUR230620172606201727062017V         Novo (previa)  D E M LOCACAO DE EQUIPAMENTOS LTDA EPPOOD9372     95PZBN7KPEB057061             GOIANIA743331600000102017584139.00GO
0660746948000112000400033970900000097                  AIZZA COR DE SEGS LTDA240620172606201727062017V         Novo (previa)    MARCELO HENRIQUE ROSSETO CIA LTDA MECVP4687     9ADB066277M248563   MINEIROS DO TIETE173200000000010026214537.00SP
0660746948000112000800001183360000002           GTF TOEBE COR.DE SEGS.SC LTDA230620172406201727062017V         Novo (previa)                 ANTONIO DA SILVA BARROSCXA4941     9BWV2VD23YRY08641            DOURADOS798390720000010058921739.00MS
0660746948000112000100032777750000002          CSX CONSULTORIA E CORRETORA DE230620172306201727062017P         Novo (previa)        RODOMAX TRANSPS RODOVIARIOS LTDACPG3087     9BW7682378R812251            CAMPINAS029240000000010067893731.00SP
0660746948000112000100017517620000002              COSTA FORTE CORR SGRS LTDA220620172306201727062017V         Novo (previa)                          ODONTOPREV S AGHT4885     988675126HKH20215             BARUERI064600400000102013530037.00SP
0660746948000112000200034359260000835          ARJ PROTECAO COR DE SEGUROS LT260620172606201726062017V         Novo (previa)               JORGE AUREO PAES DE BARROOBD6183     9BWDB49N1DP022111       VARZEA GRANDE781109030000102024634039.00MT
0660746948000112000200031116260000835          ESSEG CORRETORA DE SEGUROS LTD240620172606201726062017V         Novo (previa)           CAMILA DE OLIVEIRA RESENDE SAOOC9147     9BWAA45Z0F4007716            MINEIROS758300000000040000203839.00GO
0660746948000112000300035965060000919          FORCA INTERIOR CORR DE SEGS LT260620172606201726062017V         Novo (previa)                    R SERVICE EIRELLI MEFSI3610     9BWAB45U6GT007115      RIBEIRAO PRETO140853100000010059099137.00SP
0660746948000112000200027122790000846           BOA CERTA COR DE SEGUROS LTDA260620172606201726062017V         Novo (previa)               VITOR GONCALVES MARCHEZANOHV6499     8AJDY22G6D7000810    MIRASSOL D OESTE782800000000102029545639.00MT
0660746948000112000900033865390000646                JUVENAL COR DE SEGS LTDA240620172606201726062017V         Novo (previa)   MK MONTAGENS E LOCACAO DE STANDS LTDAMJV7775     93ZS2MRH0C8815516       TEOFILO OTONI398044290000010070879839.00MG
0660746948000112000200034300220000837          BOM RETIRO CORR E ADM DE SEG L260620172606201726062017V         Novo (previa)                    MARLI CORREIA GODENYNJC3353     8AJFZ29G196075360        RONDONOPOLIS787254600000010066748039.00MT
0660746948000112000900033883060000836          SEGURALTA OESTE COR DE SEGS LT260620172606201726062017P         Novo (previa)           RENATA MRAD DE OLIVEEIRA FARIPXM2494     9BWJL45U0GP079238          UBERLANDIA362003360000010036101130.00MG
0660746948000112000900033866110000001           BRADESCOR COR DE SEGUROS LTDA260620172606201726062017P         Novo (previa)              LEONARDO GUIMARAES MOREIRaOWW3453     JTMDD4EVXED037008          UBERLANDIA397400000000010005877730.00MG
0660746948000112000400035580110000940          LARES CORRETORA DE SEGUROS LTD240620172606201726062017V         Novo (previa)  CHAMMAS LANCONI CENTRO ODONTOLOGIOCO LHNM4600     JMYXTGA2WCZA04244               JALES157060780000010018094737.00SP
0660746948000112000500034649470000835          MB COR E ADM DE SEGUROS LTDA M230620172606201726062017V         Novo (previa)           ELIZABETH ROSA BANDEIRA LOPESONI2894     9BHBG51CADP102131             INHUMAS754000000000102031075739.00GO
0660746948000112000500034901770000002          LOJACORR S A REDE DE COR DE SE260620172606201726062017V         Novo (previa)          LIMIRIO ANTONIO DA COSTA FILHOONV3889     8AJFY29G7E8573889GOIANIA. FAZER DE MA746430300000010043850239.00GO
0660746948000112000500034901750000002             POPULAR COR. ADM.SEGS.LTDA.260620172606201726062017V         Novo (previa)                ELIAS DOS SANTOS RIBEIROONW2170     KNAFZ414BE5068666             GOIANIA740752900000010045857139.00GO
0660746948000112000500034648580000002          COOPCORSEG COOP TRAB DE CORR S260620172606201726062017V         Novo (previa)         FERNANDA CARVALHO DA ROCHA LIMAOMJ2439     3FA6P0D97ER215063             GOIANIA742300500000010064014039.00GO
0660746948000112000500031290950000835          MARINHO CATALAO COR DE SEGS E 240620172606201726062017V         Novo (previa)                   JOSE CAMARGO DA COSTAOUL3882     9BG148MH0DC491282             CATALAO757055500000010064825639.00GO
0660746948000112000500034901800000002           CORASBEG CORRETORA DE SEGUROS260620172606201726062017V         Novo (previa)                      DENIS ARAUJO DUTRAPQB2924     9BGKT69R0FG396060             GOIANIA740633200000010010263639.00GO
0660746948000112000500003490270000002            G8 COR.E ADM.DE SEGUROS LTDA260620172606201726062017V         Novo (previa)             FERNANDA DE ARAUJO CARNEIROOYP5161     93XJYKH8WFCE17393             GOIANIA741502400000010006282139.00GO
0660746948000112000500034900790000002          SAGA CORRETORA DE SEGUROS LTDA260620172606201726062017V         Novo (previa)             GESSICA LAURY JOSE DA SILVAOQD3375     9BGRP48F0EG115745            ANAPOLIS751355000000010013867339.00GO
0660746948000112000500034901830000002          MELHOR OPCAO ADM E CORRR DE SE260620172606201726062017V         Novo (previa)                MARCOS LOURENCO DA SILVAOVR3888     9BWDA45U5ET195719             GOIANIA746743900000102014451239.00GO
0660746948000112000500034900800000002                  LIDER COR DE SEGS LTDA260620172606201726062017V         Novo (previa)               TATIANE VIEIRA ROSA MATOSOGZ9789     8AJFX29G3D6601602            ANAPOLIS751333300000010014514939.00GO
0660746948000112000100031484820000967             PROVER ADM COR DE SEGS LTDA260620172606201726062017P         Novo (previa)                   RENATO FRANCATI PAULOOPY7144     9BD195152E0485055            CAMPINAS067172100000010007561231.00SP
0660746948000112000100036217210000002          BIDU CORR DE SEGS E SERV DE IN260620172606201726062017V         Novo (previa)    SANDRA PAULA MORAES DOS SANTOS BRITOEPV5915     9BWAA05U8BT033042          INDAIATUBA133482400000010022794337.00SP
0660746948000112000500034510830000002          RICARV ADM E COR DE SEGS SC LT260620172606201726062017V         Novo (previa)           LEODES XAVIER RIBEIRO BOROSKIGDT3627     9BGKS69V0HG238465            BARRETOS147803400000010022365437.00SP
0660746948000112000200034300210000837          FRATELLO R O CORRETORA E ADMIN230620172606201726062017V         Novo (previa)                CARLOS ANTONIO DE MORAISPHE3987     9BG148FK0FC422540        RONDONOPOLIS787107400000102028144739.00MT
0660746948000112000400030834140000002                                     JAS260620172606201726062017P         Novo (previa)       DEBORA CHRISTINA DOS REIS FREITASDOG2679     9BGXF75004C236875  SAO JOSE RIO PRETO151900000000010036003131.00SP
0660746948000112000200034325160000001           BRADESCOR COR DE SEGUROS LTDA230620172606201726062017P         Novo (previa)                  DIOGO FREITAS DE SOUZAOBP2927     9BG148LP0EC435740              Cuiaba785574770000010005877730.00MT
0660746948000112000100035691480000002                           R1 CORRETORA 260620172606201726062017P         Novo (previa)                        IRMAO KUHL LTDA FKV4653     9BD255049D8960502            CAMPINAS134807430000010058435531.00SP
0660746948000112000100035739750000615          SRX CONSULT E   COR DE SEGS LT230620172606201726062017V         Novo (previa)              REGINALDO TASCINARE BARINIFQL3005     SALFA2BA1AH151305SAO BERNARDO DO CAMP097264100000010069167437.00SP
0660746948000112000800011164300000002          GUAICURUS ADM COR DE SEGS LTDA260620172606201726062017V         Novo (previa)             IZABEL SUZANA VILELA MARININRS0768     KNAPB817BC7299414        CAMPO GRANDE790412600000010014242539.00MS
0660746948000112000500034648340000002          RODRIGUES FERNANDES ADM COR SE260620172606201726062017V         Novo (previa)             HUGO LEONARDO BONTEMPO MELOONZ1097     936CLYFYYEB028634APARECIDA DE GOIANIA749145500000010045290439.00GO
0660746948000112000500034646430000002               FORTCOR CORR DE SEGS LTDA260620172606201726062017V         Novo (previa)                CARLOS ALBERTO RODRIGUESOOC8183     9BWAB45Z0E4153433             GOIANIA744932080000010028072139.00GO
0660746948000112000500034901340000002            GRANDCOR COR DE SEGUROS LTDA260620172606201726062017V         Novo (previa)                 JOAO BATISTA DE CAMARGOOOE1800     8AJFY29GXD8521635             GOIANIA742101800000010046085139.00GO
0660746948000112000500031290940000835          CATALAO PREVINE ADM.COR.SEG.LT240620172606201726062017V         Novo (previa)                 ANGELA FUENTES FAGUNDESFHY7505     8AJYY59G8D6509604             CATALAO757110800000010038684739.00GO
0660746948000112000500031256860000001           BRADESCOR COR DE SEGUROS LTDA230620172606201726062017P         Novo (previa)             ALEXSANDRO CARDOSO DA SILVAKLE1423     9BR53ZEC238515955      RIBEIRAO PRETO757040200000010005877730.00GO
0660746948000112000500034649350000835          MB COR E ADM DE SEGUROS LTDA M230620172606201726062017V         Novo (previa)              DURVAL GARCIA SILVA JUNIORONI3120     9BWLB05U1DP169191             INHUMAS754000000000102031075739.00GO
0660746948000112000300034279110000940          SEGURALTA OESTE COR DE SEGS LT220620172606201726062017V         Novo (previa)VITORIA TRANSPORTES E COMERCIO DE CERAISPQT3321     9AA07092GGC138869          CRISTALINA738500000000010036101139.00GO
0660746948000112000200032844170000002          TOPSEGURO CORR DE SEGUROS LTDA260620172606201726062017V         Novo (previa)                MARA NELI PAES DE ARRUDANPD1613     KMHJU81BBCU277808              CUIABA780453500000102004664239.00MT
0660746948000112000800001165310000853             PROSEG ADM COR SRGS LTDA ME240620172606201726062017V         Novo (previa)                 RENATO ALMANSA DA SILVAOOL2734     9BD578241F7881803          BELA VISTA792600000000010011052339.00MS
0660746948000112000500031290890000975           HPE CORRETORA DE SEGUROS LTDA230620172606201726062017V         Novo (previa)               NICOLAU ZACHARIAS ABRAHAOONP4239     JMYLYV98WFJA00612             CATALAO757010300000102007605339.00GO
0660746948000112000500034900400000002               CENARIO CORR DE SEGS LTDA240620172606201726062017V         Novo (previa) ALICE AUGUSTA SEIXO DE BRITO F DE MOURAOMV7379     95PJN81EPGB086777             GOIANIA740932100000010050246439.00GO
0660746948000112000500031290910000975           HPE CORRETORA DE SEGUROS LTDA230620172606201726062017V         Novo (previa)           EDER OSVALDO CANEDO RODRIGUESGYW8914     9BG124HU09C410754             CATALAO757072630000102007605339.00GO
0660746948000112000500034649430000835          GALCOR CORRETORA DE SEGUROS LT230620172606201726062017V         Novo (previa)               JOAO FRANCISCO CARVALHAESNGZ2190     8AJFZ29G666012427              ITAUCU754500000000010045050239.00GO
0660746948000112000500034900760000002              EXCELSEG COR ADM SGRS LTDA240620172606201726062017V         Novo (previa)              GILSON PARRODE M DE ARAUJOKDH0916     9BWZZZ379VT116543             GOIANIA761700000000010031038739.00GO
0660746948000112000500034649260000002          STARLING ADM E COR DE SEGS LTD240620172606201726062017V         Novo (previa)        MARIA SOLANGE RODRIGUES MONTEIROONU0102     9BGPB69M0EB145266             GOIANIA742100500000010061036439.00GO
0660746948000112000300035955420000923          MINHA TERRA ADM E COR DE SEGS 240620172606201726062017V         Novo (previa)       RPB TRANSPORTES DE CARGAS LTDA MENOM0773     9BSG4X20093645518SAO JOSE DO RIO PARD137200000000010035428737.00SP
0660746948000112000800001165360000839          AGILLE CORRETORA DE SEGUROS LT260620172606201726062017V         Novo (previa)      CERRO TRANSPORTES RODOVIARIOS LTDAHTP2747     9BSG6X400A3668499             CAARAPO799400000000102012621239.00MS
0660746948000112000100017429680000002            FM CORRETORA DE SEGUROS LTDA260620172606201726062017V         Novo (previa)                         RAFAEL NAKAMURAFJK7154     9BWAA45Z2E4019591              SANTOS110450020000010007410137.00SP
0660746948000112000100017474650000002          ROSANE PCOM CONS. E COR DE SEG260620172606201726062017V         Novo (previa)              CINTHIA YARA PEREIRA SILVAHMZ4830     9BD119209B1076071         SAO VICENTE113901300000010069175537.00SP
0660746948000112000100036208720000002             SHAYENNE COR. DE SEGS. LTDA260620172606201726062017V         Novo (previa)       ANTONIO FRANCISCO MARQUES FEITOSAHJN7845     9BGRZ48909G237119              OSASCO062882100000102011790637.00SP
0660746948000112000500034510820000002          RICARV ADM E COR DE SEGS SC LT260620172606201726062017V         Novo (previa)         MARIA LUCIANE DA SILVA CARVALHOFZG6466     9BHBG51DBFP435415            BARRETOS147813420000010022365437.00SP
0660746948000112000800001165330000839          AGILLE CORRETORA DE SEGUROS LT260620172606201726062017V         Novo (previa)      CERRO TRANSPORTES RODOVIARIOS LTDANRZ2784     9BSG6X400E3856841             CAARAPO799400000000102012621239.00MS
0660746948000112000800001165350000839          AGILLE CORRETORA DE SEGUROS LT260620172606201726062017V         Novo (previa)      CERRO TRANSPORTES RODOVIARIOS LTDALYQ2223     9BM388054VB119909             CAARAPO799400000000102012621239.00MS
0660746948000112000800001165340000839          AGILLE CORRETORA DE SEGUROS LT260620172606201726062017V         Novo (previa)      CERRO TRANSPORTES RODOVIARIOS LTDANRZ3031     9BSG6X400E3856900             CAARAPO799400000000102012621239.00MS
0660746948000112000800021174670000839           BOOZ ZAZA COR DE SEGUROS LTDA260620172606201726062017V         Novo (previa)                    VALDIR JESUS PAGOTTONPD4444     8AJFZ29G396076431     CHAPADAO DO SUL795600000000010058450939.00MS
0660746948000112000800001165320000839          AGILLE CORRETORA DE SEGUROS LT260620172606201726062017V         Novo (previa)      CERRO TRANSPORTES RODOVIARIOS LTDAHTG3423     9BM9584789B692466             CAARAPO799400000000102012621239.00MS
0660746948000112000200031117500000837          SAGA CORRETORA DE SEGUROS LTDA220620172606201726062017V         Novo (previa)              REGINA MARILIA DE OLIVEIRAPWG4305     93YHSRAF5GJ928759              CUIABA780105000000010013867339.00MT
0660746948000112000400035466340000940           SEICOM ADM.E COR.DE SEGS.LTDA230620172606201726062017V         Novo (previa)            VALTER RODRIGUES DE OLIVEIRAEDX0310     9BFHW21C5BB088739SAO JOSE DO RIO PRET150158200000010019188437.00SP
0660746948000112000100036458490000975          EVORA NEWS CORR DE SEGUROS LTD240620172606201726062017V         Novo (previa)           CMJ COMERCIO DE VEICULOS LTDAFQQ1453     9BD17144LF5937017            CAMPINAS130707100000010060891237.00SP
0660746948000112000400032985690000002          MONTECLA ADMINISTRADORA E COR.260620172606201726062017V         Novo (previa)MARCEL JOSE BRUNO DE CARVALHO TONINI EIRNWJ6825     9BG124HP0BC459323        INACIOLANDIA755500000000010064910439.00GO
0660746948000112000700033277880000002          NOTA MIL ADM E CORR SEGS LTDA 260620172606201726062017V         Novo (previa)                 MARIA DAURA FARIA COURAJFV4321     9BGTU69W06B168685      BELO HORIZONTE311702200000102025389339.00MG
0660746948000112000900032540510000496           BRADESCOR COR DE SEGUROS LTDA260620172606201726062017P         Novo (previa)       SERGIO HENRIQUE FERREIRA DA SILVAHFU6008     93HGD38808Z100423          UBERLANDIA384050880000010005877730.00MG
0660746948000112000400035466480000940            DT CORRETORA DE SEGUROS LTDA230620172606201726062017V         Novo (previa)SIMOES E SIMOES COMERCIO DE COSMETICOS LFFV1786     9BFZK53AXDB419895SAO JOSE DO RIO PRET150100900000040000067137.00SP
0660746948000112000100032241320000002              STAR GOLD COR DE SEGS LTDA260620172606201726062017V         Novo (previa)            RITA DE CASSIA DA SILVA CRUZFFT1093     94DTBAL10EJ946828           SAO PAULO057673500000010041118337.00SP
0660746948000112000900032571290000002           HPE CORRETORA DE SEGUROS LTDA260620172606201726062017V         Novo (previa)                JOSE ANTONIO DE CARVALHODGX4592     9BFJF37925B023306              PASSOS379012150000102007605339.00MG
0660746948000112000100036458440000910            FOSEG ADM E COR DE SEGS LTDA230620172606201726062017V         Novo (previa)                  ALEXANDRE ARAUJO SILVAFBY5958     9BD195152F0620798            CAMPINAS130346730000010066782037.00SP
0660746948000112000100036207210000002              SIDINEI DE JESUS FERNANDES260620172606201726062017V         Novo (previa)                         MILCA CRIORUSKAPVY4719     9BD19515ZF0691178              OSASCO060360000000010034512137.00SP
0660746948000112000100036458510000272          EVORA NEWS CORR DE SEGUROS LTD230620172606201726062017P         Novo (previa)                        CMJ COM VEICULOSFVO6230     988611126GK028941            CAMPINAS130707100000010060891231.00SP
0660746948000112000500035445200000002          COPERCANA CORRETORA DE SEGUROS260620172606201726062017V         Novo (previa)                          SILVIO AVELINOEDJ3398     9BD27803A87068920         MORRO AGUDO146400000000010041799837.00SP
0660746948000112000900032518410000002          TORGA CORR.DE SEGUROS REPR.LTD260620172606201726062017V         Novo (previa)                   JOSE MARILAC DE PAULAHNN2534     9BWKB05U9AP103107        JUIZ DE FORA360376800000010027701139.00MG
0660746948000112000100017560570000002          FERNANDO GONCALVES ADM. COR.SE260620172606201726062017V         Novo (previa)               RAFAEL RODRIGUES DA SILVAEYV5324     WV1DD02H7CA002003           SAO PAULO033370000000010033535537.00SP
0660746948000112000700033272950000002          LRV ADM E CORR DE SEGS LTDA ME260620172606201726062017V         Novo (previa)     TOP TRUCKS COMERCIO DE VEICLOS LTDANYE6753     93KP0R1C1CE133450              SABARA347400000000010061046139.00MG
0660746948000112000200034325170000001           BRADESCOR COR DE SEGUROS LTDA260620172606201726062017P         Novo (previa)              EDILIA EVANGELISTA DA MOTAQBI4855     9BGKL48U0HB205801              Cuiaba785574770000010005877730.00MT
0660746948000112000400030874410000002          APAVERON CORRETORA DE SEGUROS 260620172606201726062017V         Novo (previa)                          GENEROSO SORDIFYZ5650     9BWLL45U0FP049728              BROTAS173800000000010057277237.00SP
0660746948000112000500034902130000002               FORTCOR CORR DE SEGS LTDA240620172606201726062017V         Novo (previa)     GOVIDROS COM GOIANIA DE VIDROS LTDANFF7314     9BFFF25L74B001301             GOIANIA743660220000010028072139.00GO
0660746948000112000500034902150000002          VENTURA HAIKAR COR DE SEGS LTD240620172606201726062017V         Novo (previa)              HEBE MARTINS DO NASCIMENTONWF3880     KNAKU811BB5094902             GOIANIA743570420000010064508739.00GO
0660746948000112000500034649680000002           KCL CORRETORA DE SEGUROS LTDA240620172606201726062017V         Novo (previa)                  GUSTAVO MONTEIRO ALVESPQL6942     9BWAH4128GT553496GOIANIA. AMANHA DE M741200900000010062381439.00GO
0660746948000112000500024689680000835          TENRY KYO COR.DE SEGS.REPR.FIN240620172606201726062017V         Novo (previa)             CLAUDIO SANTANA ROCHA VIDALKEW3112     9BWHB09A63P040335              URUACU764000000000010055508839.00GO
0660746948000112000500031292900000835          GRUPO DEZ CORR E ADMR DE SEGS 240620172606201726062017V         Novo (previa)             DOUGLAS MONTEIRO DOS SANTOSNLP0879     3FAHP0JA4AR167569             GOIANIA745740650000010052553739.00GO
