0860746948000112                                        000900030583920000202BRADESCOR COR DE SEGUROS LTDA           300820163108201631082016VAvalaliação de Bem    GILSON ALMEIDA VILELA JUNIOR            GXM9315KNAFU411AC5928839     BELO HORIZONTE      30220000100058777     00039,00MG
0860746948000112                                        000900030545050000202BRADESCOR COR DE SEGUROS LTDA           290820162908201629082016VAvalaliação de Bem    ROMEU SERGIO DE OLIVEIRA                PVX53779BWAB45U9FT085600     SACRAMENTO          38190000100058777     00039,00MG
0860746948000112                                        000900030531690000002BRADESCOR COR DE SEGUROS LTDA           300820163008201630082016VAvalaliação de Bem    VACIVALDO DIVINO DUTRA SOBRINHO         GWI00409BD11058CB1538261     ITUIUTABA           38307020100058777     00039,00MG
0860746948000112                                        000900030522780000202BRADESCOR COR DE SEGUROS LTDA           290820163008201630082016VSubstituição de Garan.KISSILA MORAIS                          OMA00708AGCN48X0DR119530     IPATINGA            35164160100058777     00039,00MG
0860746948000112                                        000900030517000000202BRADESCOR COR DE SEGUROS LTDA           300820163108201631082016VSubstituição de Garan.LEA CRISTINA DE CARVALHO ABRANCHES DA SIOWW15679BWAB45ZXE4110685     BELO HORIZONTE      31330090100058777     00039,00MG
0860746948000112                                        000900030516950000202BRADESCOR COR DE SEGUROS LTDA           290820162908201630082016VAvalaliação de Bem    BRITAREIA COMERCIO E TRANSPORTE         OQX28389BWKB05U0EP090107     BELO HORIZONTE      31985560100058777     00039,00MG
0860746948000112                                        000900030515410000202BRADESCOR COR DE SEGUROS LTDA           300820163108201631082016VAvalaliação de Bem    GESANO ANTONIO MENDONCA                 MTZ04859BM695053B8776059     BETIM               32670420100058777     00039,00MG
0860746948000112                                        000900030515360000202BRADESCOR COR DE SEGUROS LTDA           300820163108201631082016VAvalaliação de Bem    ANDERSON ARAUJO RAMOS                   PXD50178AFSZZFFCGJ383035     BELO HORIZONTE      30510000100058777     00039,00MG
0860746948000112                                        000900030514380000202BRADESCOR COR DE SEGUROS LTDA           290820162908201630082016VAvalaliação de Bem    JOSE FERREIRA DE SOUZA                  HNY62269BD197132D3056601     BELO HORIZONTE      31950310100058777     00039,00MG
0860746948000112                                        000900029608770000202BRADESCOR COR DE SEGUROS LTDA           290820163008201630082016VSubstituição de Garan.MARLUCE APARECIDA TAVARES DE OLIVEIRA   OQA55278AJYY59G5D6510838     CATAGUASES          36773254100058777     00039,00MG
0860746948000112                                        000900029589120000202BRADESCOR COR DE SEGUROS LTDA           290820162908201629082016VSubstituição de Garan.EDER ALVES MOREIRA                      JIU03009BWAB41J8C4007391     TUPACIGUARA         38430000100058777     00039,00MG
0860746948000112                                        000900029542390000202BRADESCOR COR DE SEGUROS LTDA           300820163108201631082016VAvalaliação de Bem    ADRIANA APARECIDA DA MATA               PWA25439BWAB45U2FP195817     TRES PONTAS         37190000100058777     00039,00MG
0860746948000112                                        000900029369530000202BRADESCOR COR DE SEGUROS LTDA           300820163108201631082016VAvalaliação de Bem    DANIEL GUIMARAES DE FARIA               KQB51009C6KM0030E0023280     BELO HORIZONTE      30441001100058777     00039,00MG
0860746948000112                                        000900029369190000202BRADESCOR COR DE SEGUROS LTDA           300820163108201631082016VAvalaliação de Bem    GLAUCIA DE ARAUJO CORDEIRO              HJZ95049BD196271C2007639     BELO HORIZONTE      30160030100058777     00039,00MG
0860746948000112                                        000200029288020000202BRADESCOR COR DE SEGUROS LTDA           300820163108201631082016VAvalaliação de Bem    JANDIRA VIEIRA DOS SANTOS               OAZ020093XJRKB8TCCB38873     MARCELANDIA         78535000100058777     00039,00MT
0860746948000112                                        000200029274050000202BRADESCOR COR DE SEGUROS LTDA           300820163108201631082016VAvalaliação de Bem    ENI MARIA ALVES                         OBP32819BD57814UF7933256     VARZEA GRANDE       78130010100058777     00039,00MT
0860746948000112                                        000200029274010000202BRADESCOR COR DE SEGUROS LTDA           300820163108201631082016VAvalaliação de Bem    AMILTON GONCALVES                       OQX43289BWAB45U7EP103387     VARZEA GRANDE       78145510100058777     00039,00MT
0860746948000112                                        000200029266740000002BRADESCOR COR DE SEGUROS LTDA           290820163008201630082016VAvalaliação de Bem    ANDERSON MATEUS BUCHS                   NPF823393XJRKB8TCCB35904     RONDONOPOLIS        78710215100058777     00039,00MT
0860746948000112                                        000200029241560000202BRADESCOR COR DE SEGUROS LTDA           290820162908201629082016VAvalaliação de Bem    CLAIR FONTANA  ME                       NPK01669BD15844AD6877940     SORRISO             78890000100058777     00039,00MT
0860746948000112                                        000200029209680000202BRADESCOR COR DE SEGUROS LTDA           300820163008201630082016VAvalaliação de Bem    SILVANA CORREIA ANTUNES                 OBA66999BWLB05U8CP147512     CUIABA              78065300100058777     00039,00MT
0860746948000112                                        000200029209550000202BRADESCOR COR DE SEGUROS LTDA           260820162708201627082016VAvalaliação de Bem    RAIMUNDA NONATA PAULINO                 GCS95609BGKS48R0FG446849     CUIABA              78048425100058777     00039,00MT
0860746948000112                                        000200029209530000202BRADESCOR COR DE SEGUROS LTDA           260820162708201628082016VAvalaliação de Bem    JAKSON NASCIMENTO DE CASTRO             AZC92519BWAA45U2FP146863     CUIABA              78058567100058777     00039,00MT
0860746948000112                                        000200029200400000202BRADESCOR COR DE SEGUROS LTDA           290820163008201630082016VAvalaliação de Bem    ELEPAR TRANSPORTES LTDA ME              QBC109695V0B2502EZ442055     CUIABA              78065400100058777     00039,00MT
0860746948000112                                        000200029200240000202BRADESCOR COR DE SEGUROS LTDA           260820162708201627082016VAvalaliação de Bem    MILTON VIEIRA DE MOURA                  OXI08949BD196271F2231335     VARZEA GRANDE       78110300100058777     00039,00MT
0860746948000112                                        000900028950570000002BRADESCOR COR DE SEGUROS LTDA           300820163008201630082016VAvalaliação de Bem    VINICIUS FERNANDES FERREIRA ALVES       OQM53049BGCA80X0DB346759     UBERLANDIA          38400714100058777     00039,00MG
0860746948000112                                        000500028817090000202BRADESCOR COR DE SEGUROS LTDA           260820162908201629082016VAvalaliação de Bem    BRUNO BRITO BARBOSA                     ONE9040WV1SD42H6DA031623     MINEIROS            75830000100058777     00039,00SP
0860746948000112                                        000500028814910000202BRADESCOR COR DE SEGUROS LTDA           300820163108201631082016VAvalaliação de Bem    VITORIA REGINA SILVA                    ONE84399BD195A6ZF0677566     GOIANIA             74010010100058777     00039,00SP
0860746948000112                                        000500028814830000202BRADESCOR COR DE SEGUROS LTDA           270820163008201630082016VAvalaliação de Bem    DALVENITA PEREIRA BARBOSA FERNANDES     OOA53899BHBG51CAEP264960     GOIANIA             74645010100058777     00039,00SP
0860746948000112                                        000500028813920000202BRADESCOR COR DE SEGUROS LTDA           260820162908201629082016VAvalaliação de Bem    PATRICIA PEREIRA DA SILVA               ETI81129BD1962A3D2040507     GOIANIA             74275060100058777     00039,00SP
0860746948000112                                        000500028812360000202BRADESCOR COR DE SEGUROS LTDA           260820162908201629082016VAvalaliação de Bem    REIS APOLINARIO DE ARAUJO               OMS1978WV1DB42H3EA003892     GOIANIA             74464070100058777     00039,00SP
0860746948000112                                        000500028809100000202BRADESCOR COR DE SEGUROS LTDA           300820163108201631082016VAvalaliação de Bem    WELLINGTON ANTONIO DE MORAIS            OYB49059BWAB45U8FP018429     GOIANIA             74255490100058777     00039,00SP
0860746948000112                                        000500028809070000202BRADESCOR COR DE SEGUROS LTDA           290820163108201631082016VAvalaliação de Bem    JOAQUIM MAMEDIO DA SILVA                OMV38719BD27805MD7630307     GOIANIA             74210300100058777     00039,00SP
0860746948000112                                        000500028809050000202BRADESCOR COR DE SEGUROS LTDA           270820163008201631082016VAvalaliação de Bem    JEISON EDUARDO FAUSTO                   OGS5070KMHDC51EACU343438     GOIANIA             74080150100058777     00039,00SP
0860746948000112                                        000500028808090000202BRADESCOR COR DE SEGUROS LTDA           290820163108201631082016VAvalaliação de Bem    MARCELO MAIA DE ASSIS                   DYN8000JYARN26BXAA000303     JATAI               75803205100058777     00039,00SP
0860746948000112                                        000500028807810000202BRADESCOR COR DE SEGUROS LTDA           290820163108201631082016VAvalaliação de Bem    LEOMAR DE JESUS DA MATA                 OMX50509BGJB69X0DB155725     GOIANIA             74075300100058777     00039,00SP
0860746948000112                                        000500028807740000202BRADESCOR COR DE SEGUROS LTDA           260820162608201626082016VAvalaliação de Bem    GLEIBE DA SILVA FRANCA                  QEL05009BRBDWHE0G0271790     GOIANIA             74815750100058777     00039,00SP
0860746948000112                                        000500028807190000202BRADESCOR COR DE SEGUROS LTDA           300820163108201631082016VAvalaliação de Bem    JAQUELINE MENDES LEAL                   HOF34523FADP4BK8BM139270     GOIANIA             74530020100058777     00039,00SP
0860746948000112                                        000500028806980000202BRADESCOR COR DE SEGUROS LTDA           300820163108201631082016VAvalaliação de Bem    OSIAS DOS SANTOS SILVA JUNIOR           OND33909BGPB68M0DB298603     ANAPOLIS            75020000100058777     00039,00SP
0860746948000112                                        000500028806840000202BRADESCOR COR DE SEGUROS LTDA           290820163108201631082016VAvalaliação de Bem    SERGIO FELICIANO DE ARAUJO              KEZ00429BFJF37G23B083405     ANAPOLIS            75124730100058777     00039,00SP
0860746948000112                                        000500028806790000202BRADESCOR COR DE SEGUROS LTDA           270820163008201630082016VAvalaliação de Bem    LARISSA DE BESSA ARRUDA                 JJL637093HFB2630DZ212844     ANAPOLIS            75123390100058777     00039,00SP
0860746948000112                                        000500028805740000202BRADESCOR COR DE SEGUROS LTDA           260820163008201630082016VAvalaliação de Bem    ANDERSON INACIO DE ALMEIDA              OGN22788AJZX62G2C5001883     RIO VERDE           75909456100058777     00039,00SP
0860746948000112                                        000500028805730000202BRADESCOR COR DE SEGUROS LTDA           260820162908201629082016VAvalaliação de Bem    PEDRO FERREIRA BRASIL FILHO   ME        NLO20399BG138HF0AC404319     RIO VERDE           75908814100058777     00039,00SP
0860746948000112                                        000500028805180000202BRADESCOR COR DE SEGUROS LTDA           300820163108201631082016VAvalaliação de Bem    PAULO HENRIQUE NUNES OLIMPIO            DWR686993HFA65308Z112412     GOIANIA             74075250100058777     00039,00SP
0860746948000112                                        000500028791850000202BRADESCOR COR DE SEGUROS LTDA           260820162908201629082016VAvalaliação de Bem    CARDOSO COMBUSTIVEIS LTDA EPP           FFE180793XBRH77W6C614817     CALDAS NOVAS        75690000100058777     00039,00SP
0860746948000112                                        000300028480810000202BRADESCOR COR DE SEGUROS LTDA           300820163108201631082016VAvalaliação de Bem    MARLEI FATIMAS ZANETTI PIASESKI         JKF41509BD373165D5010918     LUZIANIA            72804240100058777     00039,00SP
0860746948000112                                        000200028058740000202BRADESCOR COR DE SEGUROS LTDA           290820162908201629082016PAvalaliação de Bem    JEOVAN LINS DA SILVA                    OAS48759BD197132E3142077     CUIABA              78360000100058777     00030,00MT
0860746948000112                                        000900027572790000202BRADESCOR COR DE SEGUROS LTDA           300820163008201631082016VAvalaliação de Bem    JONATHAN SALES DE SOUZA                 HNB13929BD195152D0432114     CONTAGEM            32341190100058777     00039,00MG
0860746948000112                                        000900027572780000202BRADESCOR COR DE SEGUROS LTDA           290820162908201629082016VAvalaliação de Bem    GUSTAVO NEVES ROMANO                    GQJ790094DTBAL10CJ779480     BELO HORIZONTE      31230010100058777     00039,00MG
0860746948000112                                        000200027387200000202BRADESCOR COR DE SEGUROS LTDA           290820162908201629082016PAvalaliação de Bem    JOSEDINA PEREIRA BRETAS                 QBJ79879BD578341F7856840     CUIABA              78652000100058777     00030,00MT
0860746948000112                                        000200027360160000202BRADESCOR COR DE SEGUROS LTDA           290820163008201630082016VAvalaliação de Bem    ELIANDRA ALVES DA SILVA                 ASJ87769A9CS4273ALDJ5432     GUARANTA DO NORTE   78520000100058777     00039,00MT
0860746948000112                                        000200027121640000202BRADESCOR COR DE SEGUROS LTDA           300820163008201630082016VAvalaliação de Bem    MARCOS ANTONIO DE ARAUJO MACHADO        FNC76559BWAA05W3EP044996     MIRASSOL DOESTE     78280000100058777     00039,00MT
0860746948000112                                        000900027120880000202BRADESCOR COR DE SEGUROS LTDA           290820162908201629082016VAvalaliação de Bem    ELIEL ARCANJOP DO CARMO                 HHF46319BFZE55PXC8717836     UBERABA             38055530100058777     00039,00MG
0860746948000112                                        000500024664730000202BRADESCOR COR DE SEGUROS LTDA           300820163108201631082016VAvalaliação de Bem    ESCOLA CAMINHO DO SONHO LTDA            ONW74239BD196271E2212918     JARAGUA             76330000100058777     00039,00SP
0860746948000112                                        000800001127280000202BRADESCOR COR DE SEGUROS LTDA           290820163108201631082016VAvalaliação de Bem    EDILSON MARQUES DOS SANTOS              HTV864395PJM81BPBB006124     NOVA ALVORADA DO SUL79140000100058777     00039,00MS
0860746948000112                                        000800001116650000002BRADESCOR COR DE SEGUROS LTDA           300820163108201631082016VAvalaliação de Bem    ROBSON DOS SANTOS                       OON63169BWDB45U5FT049318     CAMPO GRANDE        79006660100058777     00039,00MS
0860746948000112                                        000800001113220000002BRADESCOR COR DE SEGUROS LTDA           290820162908201630082016VAvalaliação de Bem    VALDEMILSON PIMENTEL VIEIRA             OOO47069CDGR7NAAFM100469     CAMPO GRANDE        79009020100058777     00039,00MS
0860746948000112                                        000900011087110000202BRADESCOR COR DE SEGUROS LTDA           290820163108201631082016VAvalaliação de Bem    PAULO ANDRE DUARTE VAZ                  PUG91599BFZB55H8F8964052     FORMIGA             35570000100058777     00039,00MG
0860746948000112                                        000800001104020000002BRADESCOR COR DE SEGUROS LTDA           260820162708201627082016VAvalaliação de Bem    ADRIANA ESTIGARRIBIA MACIEL             NRU61493GNAL7EK7CS591074     ANASTACIO           79210000100058777     00039,00MS
