0860746948000112000500028808040000835          AGRISEG BRASIL COR DE SEGS LTD270820162908201631082016V          Substituicao            EDSON FERREIRA DE FREITAS MEONC4935     9BD27805MD7714526                CACU7581300000000400012106   39,00SP
0860746948000112000900028950600000002             INVICTA COR.DE SEGUROS LTDA300820163008201631082016V          Substituicao                JESSICA CRISTINA RIBEIROOOV1881     9BRBD48E0D2588571          UBERLANDIA3840826800001020232071   39,00MG
0860746948000112000200029293550000558           BRADESCOR COR DE SEGUROS LTDA300820163008201631082016P         Novo (previa)                           UZIEL MARQUESJKJ3875     9BGKT48L0DG169491              Cuiaba7864300000000100058777   30,00MT
0860746948000112000900029604880000002               PRO-SEGUROS COR SEGS LTDA300820163008201631082016V             Renovacao               NAZARETH JUSTINO DA SILVAHXE4687     9BWCB05XX3P044375          UBERLANDIA3840842200000100220485   39,00MG
0860746948000112000900029599930000626          24 HS ADM CORRETORA SEGUROS LT300820163008201631082016V         Novo (previa)                 MARCIO GRILLO DE BRETASHKV1019     1a8fyb8979t508682        JUIZ DE FORA3601647000000100564605   39,00MG
0860746948000112000900028950630000002          UDI MINAS COR. DE SEGS. LTDA M300820163008201631082016V         Novo (previa)            ASSOCIACAO JARDINS BARCELONAHIG9080     9BWAA05W4BP002414          UBERLANDIA3841263900000100692671   39,00MG
0860746948000112000900028950640000002          FUTURISTA CORRETORA DE SEGS LT300820163008201631082016V             Renovacao          ANDREA PALAZZO BORGES SEVERINOPQN5297     988611152GK027365          UBERLANDIA3840825400000100634875   39,00MG
0860746948000112000900029597040000853             PROSEG ADM COR SRGS LTDA ME300820163008201631082016V         Novo (previa)              NELSON CARLOS GOMES ARAUJOOXB4839     9bd13531ce2265040        JUIZ DE FORA3608738000000100110523   39,00MG
0860746948000112000900028950650000002          UAI BRASIL CONSULT E COR DE SE300820163008201631082016V         Novo (previa)                          EMILIO GIARETAPUN8760     94DVDUD40EJ368738          UBERLANDIA3840510500000100264911   39,00MG
0860746948000112000900000908700000002             PREV POCOS ADM COR SEG LTDA270820163008201631082016V             Renovacao                 RALF ANDERSON MATAVELLIPXI3515     93XHYKB8TGCF18697     POCOS DE CALDAS3770106900000100375101   39,00MG
0860746948000112000900030542080000002          ELEGON CORRETORA SEG REPR COM 300820163008201631082016V         Novo (previa)          MATEUS DO NAZARE JULIO BATISTAKUS9862     9BGRZ48908G124321           CONGONHAL3758400000000100430331   39,00MG
0860746948000112000900030542070000002          VRM GENESIS COR DE SEGS SC LTD300820163008201631082016V             Renovacao                      CCK AUTOMACAO LTDAOQU1985     8AP372110E6066476SANTA RITA DO SAPUCA3754000000000100206482   39,00MG
0860746948000112000900029604890000002          UAI BRASIL CONSULT E COR DE SE300820163008201631082016V         Novo (previa)                      LUANA PADUA SOARESHBJ6090     9BG138SP0BC466945          UBERLANDIA3840034400000100264911   39,00MG
0860746948000112000900029623990000625          PALMEIRAS ADM E COR DE SEGS LT300820163008201631082016V         Novo (previa)                      KLEBER JOSE SANTOSHFA2611     9BG138SF0AC449226         DIVINOPOLIS3550043100000100271128   39,00MG
0860746948000112000900029594730000611          VANESSA BORGES CORRETORA DE SE300820163008201631082016V         Novo (previa)          MARIO SERGIO DO VALLE NOGUEIRAJWC8857     9bd17164g95339246              FRUTAL3820000000000100654591   39,00MG
0860746948000112000900029594700000939          EXPLENDORE COR DE SEGUROS LTDA300820163008201631082016V         Novo (previa) TERRA NOVA ORINDIUVA SERV AGRI LTDA EPPFLB2097     9bwmf07x1ep015498              FRUTAL3820000000000100566012   39,00MG
0860746948000112000900030515290000624          LOURDES SEG ASSES CORR SEGS LT290820163008201631082016V         Novo (previa)   DISTRIBUIDORA DE FRUTAS LINHARES LTDAOPC2553     93KP0S1C2CE135232            CONTAGEM3215006000000100441015   39,00MG
0860746948000112000900030515320000969          MINUTO CORRETORA DE SEGUROS S 290820163008201631082016V         Novo (previa)                         ALADIR LIBERATOGUF4636     9bd15822544504381            CONTAGEM3221016000000100230758   39,00MG
0860746948000112000900029542420000011          PEDRA NEGRA COR.DE SEGUROS LTD300820163108201631082016V         Novo (previa)                  LUCAS DE SOUZA DINALLIHNX8090     9bd198221b9004218              LAVRAS3720000000000100448575   39,00MG
0860746948000112000900029542430000610          RENOVE SEGUROS - ADM COR SEG L300820163108201631082016V         Novo (previa)        TRANSPORTADORA ROMANELLI EIRELLIHLT3056     kmhjm81bbau095778       TRES CORACOES3741000000001020141599   39,00MG
0860746948000112000900029542440000616            AGATA COR E ADM DE SEGS LTDA300820163108201631082016V         Novo (previa)                        PEDRO IOVANOVICHONG2110     94dvcgd40dj586188       TRES CORACOES3741000000000100065846   39,00MG
0860746948000112000900029607860000002          DENIO JOSE BUENO COR SEGS EIRE310820163108201631082016V         Novo (previa)                UISMAR FERNANDO DA SILVAHDH2321     9BD25504988834777         ALPINAPOLIS3715000000001020236166   39,00MG
0860746948000112000500028811360000835          GRANN TRIUNPHO CORRETORA DE SE290820163108201631082016V         Novo (previa)       NC TINTAS E MAT P CONST EIRELI MEOGK7628     8AFAR20F8DJ034190  PALMEIRAS DE GOIAS7619000000000100606367   39,00SP
0860746948000112000500028817130000835          JATAI CORRETORA DE SEGUROS LTD290820163108201631082016V             Renovacao            UTILIDADES D MINEIRENSE LTDANVR1439     9BGCA80X0CB146056            MINEIROS7583000000000100315893   39,00SP
0860746948000112000900011026540000607                 MULTICARD CORR SEG LTDA290820163108201631082016V         Novo (previa)                LUCINEI ANTONIO DA SILVAHOH7350     95PJN81BPDB048035            CONTAGEM3201569000000100429627   39,00MG
0860746948000112000500028814860000835          GOVESA ADM.COR.E PLANEJ.DE SEG290820163108201631082016V         Novo (previa)                    THIAGO CASTRO SANTOSJGZ2270     93HFA6530AZ210346             GOIANIA7465006000000100062812   39,00SP
0860746948000112000900028950670000002          ROMAP MASTER B I COR DE SEG LT310820163108201631082016V         Novo (previa)            JOSE BERNARDO DA SILVA FILHOGZJ1821     9BD17834422309090          UBERLANDIA3840232200000100689211   39,00MG
0860746948000112000500028808100000835          ESSEG CORRETORA DE SEGUROS LTD290820163108201631082016V         Novo (previa)                  WALDIR FRANCISCO ALVESOGX8091     9BD27846PC7488933               JATAI7580014000000400002046   39,00SP
0860746948000112000900030517050000609          MPOLO CORRETORA DE SEGUROS LTD300820163108201631082016V         Novo (previa)       JOSIVETE MOREIRA SIMOES DOMINGUESHDW7796     9BWAB05Z1A4057152          VESPASIANO3320000000001020122225   39,00MG
0860746948000112000500028808070000280          RODOBENS ADM E COR DE SEGS LTD290820163108201631082016V         Novo (previa)         TRANSPORTES LOPES E BORGES LTDAHEQ3781     9BM693186BB788842           ITUMBIARA7553614000000100204056   39,00SP
0860746948000112000900030517040000856          ARRUDA CORRETORA DE SEGUROS LT300820163108201631082016V         Novo (previa)                LUIS ALFONSO MOLINA SIZAHKP6225     93HGE67409Z104478      BELO HORIZONTE3071058000000100125083   39,00MG
0860746948000112000900028950680000002          UDIARA CORRETORA DE SEGUROS LT310820163108201631082016V         Novo (previa)              EZEQUIAS FERANDES DA SILVAHBG6538     9BWWF82T35R510303          UBERLANDIA3840157200000100640115   39,00MG
0860746948000112000900030517030000609          MPOLO CORRETORA DE SEGUROS LTD300820163108201631082016V         Novo (previa)                 CELSO DE PAULA FERREIRAGZN8178     9BD17808122308021      BELO HORIZONTE3151042000001020122225   39,00MG
0860746948000112000500028806850000845             ALO BRASIL COR DE SEGS LTDA290820163108201631082016V         Novo (previa)    WALTER ANTONIO STECKELBERG CONSTANTEONY8252     9C2KC1680ER022028            ANAPOLIS7510487900000100446424   39,00SP
0860746948000112000400030815010000839          GRANSEG3L CONSULT E ADM DE SEG290820163108201631082016V             Renovacao               EDVALDO ELIAS DE OLIVEIRAEYQ1810     93XJNKB8TCCB37010         TRES LAGOAS7961014000000100616141   39,00SP
0860746948000112000500028806860000835            ANASEG ANAPOLIS CORR DE SEGS290820163108201631082016V         Novo (previa)        CLEONES MACHADO FAGUNDES SANTANAONY5369     WDDBF4DW6FJ343420            ANAPOLIS7511073000000100176630   39,00SP
0860746948000112000500028806870000845             ALO BRASIL COR DE SEGS LTDA290820163108201631082016V         Novo (previa)    WALTER ANTONIO STECKELBERG CONSTANTENLM0439     9C2JC4120BR734005            ANAPOLIS7512620700000100446424   39,00SP
0860746948000112000900030517020000624             SELTSEG COR DE SEGUROS LTDA300820163108201631082016V         Novo (previa)                 JOSE BATISTA DE ALMEIDAGZF6250     9BD17140212060432      BELO HORIZONTE3157321000000100386529   39,00MG
0860746948000112000500028806880000835             NEW SECURE COR DE SEGS LTDA290820163108201631082016V             Renovacao           FILGUEIRA E FILGUEIRA LTDA MENLK8143     9BM6953049B649467            ANAPOLIS7509313500000100510726   39,00SP
0860746948000112000900000934570000002          AGIL ADM E CORR SGRS PREST LTD290820163108201631082016V         Novo (previa)              MARCOS RIBEIRO DE CARVALHODXP2900     9BFFF22C0BB086810            PITANGUI3565000000000100118796   39,00MG
0860746948000112000900000951500000002          PRISMINAS CARNEIRO E VEIGA ADM290820163108201631082016V             Renovacao              MJ RIBEIRO E COMERCIO LTDAPUU9258     9BD578241F7883715               ARCOS3558800000000100551848   39,00MG
0860746948000112000900000717970000558           BRADESCOR COR DE SEGUROS LTDA290820163108201631082016V          Substituicao                 MARCELO TAVARES MACHADOHHS0009     8AJYZ59G283021141              AREADO3714000000000100058777   39,00MG
0860746948000112000900030517010000607          ESSENCIAL & ESSENCIAL COR SEGU300820163108201631082016V         Novo (previa)           REGINALDO DOS SANTOS FERREIRAOWP4007     9BD13571AE2258285      BELO HORIZONTE3174250000001020149212   39,00MG
0860746948000112000900030696040000631              ACORDO COR DE SEGUROS LTDA290820163108201631082016V         Novo (previa)              MAURICIO VENANCIO DA SILVAPWT1375     9BD17122ZG7561351            PARACATU3860000000000100590673   39,00MG
0860746948000112000800001108370000002                BRITOSEG COR SEG LTDA ME290820163108201631082016V         Novo (previa) DOURADAO MATERIAIS P CONSTRUCAO LTDA MEHQV9784     34403212341712000            DOURADOS7984047500000100574007   39,00MS
0860746948000112000300028480900000836          SCAFFER E FERRARI COR.DE SEGS.290820163108201631082016V         Novo (previa) MB COLHEITAS DE PRODUTOS AGRICOLAS LTDAJJK6424     9BSR4X200B3694550          CRISTALINA7385000000000100615196   39,00SP
0860746948000112000900000865240000607          PEDRA NEGRA COR.DE SEGUROS LTD290820163108201631082016V         Novo (previa)                  JUVILDE BOLZANI ALBERTPWW0972     WV1DB22H0FA055602            ITAGUARA3548800000000100448575   39,00MG
0860746948000112000200029266800000846          TAQUARI CORRETORA DE SEGUROS L300820163108201631082016V         Novo (previa)    NUTRIBEM PRODUTOS AGROPECUARIOS LTDAOOM4896     94BA0712GGV050106        RONDONOPOLIS7940000000000100548634   39,00MT
0860746948000112000900028950690000002          UAI BRASIL CONSULT E COR DE SE310820163108201631082016V             Renovacao         FLAVIUS NAVARRO PACHECO RIBEIROOWV0412     8AFAR23L7EJ182981          UBERLANDIA3840008600000100264911   39,00MG
0860746948000112000900030505720000629          ADILIO TEIXEIRA ADM COR SEGS L290820163108201631082016V          Substituicao         GUILHERMINA MARIA VAUNA BERBERTGSP3811     9BGTR48C0BB201594      MARTINS SOARES3697200000000100215813   39,00MG
0860746948000112000900030505730000629          HDR ADM E CORRET DE SEGUROS LT300820163108201631082016V          Substituicao                        IARA DE OLIVEIRAOQL8004     3VWDJ2161DM086349            MANHUACU3690000000001020170661   39,00MG
0860746948000112000900000869000000612          RIO CASCA ADM.E COR.DE SEGS.LT290820163108201631082016V         Novo (previa)                        MILTON GONCALVESOQL7646     8AJFY29G8D8530186             MARIANA3542000000000100513547   39,00MG
0860746948000112000900011052520000626          RODRIGUES PAES CORR ADM SEGS L300820163108201631082016V         Novo (previa)           ENI LUCAS DE CARVALHO MOREIRAOXB2426     9BD578341E7801748          OURO PRETO3540000000000100673081   39,00MG
0860746948000112000200029266810000846          TAQUARI CORRETORA DE SEGUROS L300820163108201631082016V         Novo (previa)    NUTRIBEM PRODUTOS AGROPECUARIOS LTDAOOM4895     94BA0962GGV050105        RONDONOPOLIS7940000000000100548634   39,00MT
0860746948000112000900030500200000002          RACINI ADM E CORR DE SEGS LTDA310820163108201631082016V         Novo (previa)                     ADAUTO DE LIMA REISELD0130     9BWAA05Z4A4121283       BOA ESPERANCA3717000000000100474771   39,00MG
0860746948000112000200028069100000846          AGROSEG - ADM.COR.DE SEGS.E CO310820163108201631082016V         Novo (previa)                DINON SANTOS VILLAS BOASQBV6906     9BWJB45U2gP016760              Cuiaba        00000100451975   39,00MT
0860746948000112000500028805890000941          SEARA CORRETORA DE SEGUROS LTD310820163108201631082016V         Novo (previa)    IGREJA EVANGELICA ASSEMBLEIA DE DEUSOVT9085     9bg148lp0ec430233            ITAGUARU7666000000000100170241   39,00SP
0860746948000112000500028805800000835          UNICERRADO CORR DE SEGUROS LTD300820163108201631082016V         Novo (previa)                       AGROPECUARIA LIMAMVX9113     9BFJF37G54B007548NOVA IGUACU DE GOIAS7649500000000100686476   39,00SP
0860746948000112000900031026510000624          PRIME SERVICE ADM E COR DE SEG300820163108201631082016V         Novo (previa)             BRUNO ALCANTARA DE OLIVEIRAKQN1410     9bm384009tb084406            CONTAGEM3215024500000100632571   39,00MG
0860746948000112000200029266820000837          SULMAT SUL MATOGROSSENSE COR A300820163108201631082016V         Novo (previa)                  LENOIR BASSOTO BARBOSAQJI0888     SALVA2BE2GH088996        RONDONOPOLIS7874605500000100668397   39,00MT
0860746948000112000900029999420000608           ST PAULA ADM E CORR SGRS LTDA300820163108201631082016V         Novo (previa)                    KENIO CUNHA GOUDINHONMO1008     94DVDUD40CJ922512         SANTA LUZIA3311058000001020212160   39,00MG
0860746948000112000900030500190000002          RACINI ADM E CORR DE SEGS LTDA310820163108201631082016V         Novo (previa)                   ISABEL SILVA MONTEIRODMU2739     9BD15822554657168       BOA ESPERANCA3717000000000100474771   39,00MG
0860746948000112000500028805910000835          ACCORDS COR E ADM DE SEGS S/S 300820163108201631082016V         Novo (previa)              ALANCARDEK FERREIRA BARROSONE5689     8afar22f7ej250241   TAQUARAL DE GOIAS7664000000000100430846   39,00SP
0860746948000112000500028814420000835          SEGURO SGO CORR DE SEGS LTDA-M290820163108201631082016V         Novo (previa)                  TROPICAL SORVETES LTDAONP8040     8AFAR22F4DJ105527APARECIDA DE GOIANIA7491722000001020044704   39,00SP
0860746948000112000500028805860000835          T JOTA COR. DE SEG. S/S LTDA-M270820163108201631082016V         Novo (previa)         SILVESTRE RODRIGUES DE OLIVEIRAPQD4084     9BD57837SF7968749             ITAPACI7636000000001020126069   39,00SP
0860746948000112000500028814450000835               ASSICURARE COR. SEG. LTDA290820163108201631082016V             Renovacao       RG METALURGICA E CONSTRUCOES LTDANWP4871     9BWKB05U3CP084072APARECIDA DE GOIANIA7492322000000100378691   39,00SP
0860746948000112000900030512360000607          MPOLO CORRETORA DE SEGUROS LTD290820163108201631082016V         Novo (previa)                MONICA DUARTE FIGUEIREDOOLV4201     93xfrh72wccc69937      BELO HORIZONTE3013014100001020122225   39,00MG
0860746948000112000500028805760000835          KADYMA COR E ADMR DE SEGS LTDA290820163108201631082016V         Novo (previa)                  JOSE SILVERIO DA SILVAKES0809     9bwaa01jx24022355  PETROLINA DE GOIAS7548000000000100649210   39,00SP
0860746948000112000500028808080000835          ESSEG CORRETORA DE SEGUROS LTD290820163108201631082016V          Substituicao                    DIRCEU ASSIS MARTINSOMS7786     9BG148LP0DC444173               JATAI7580427500000400002046   39,00SP
0860746948000112000500028805870000845          DU VALLE CORRETORA DE SEGURO L300820163108201631082016V         Novo (previa)                   ADONIRO PAULINO FILHOPQX3945     9bwdb45u5gt027109              URUANA7633500000000100714224   39,00SP
0860746948000112000500028808110000835          REZENDE E MESQUITA CORR DE SEG290820163108201631082016V                Outros                EVALDO CLAUDINO DA SILVAPQA6543     8AJFY29G3F8583865               JATAI7580211000000100728268   39,00SP
0860746948000112000500028805810000835          PINAUTO PINHEIROS CORR DE SEG 300820163108201631082016V         Novo (previa)          LUZIA DUARTE DE MORAIS BABUGEMONW1224     9bd197132e3183509             ITAPACI7636000000000100570001   39,00SP
0860746948000112000500028806890000280          RODOBENS ADM E COR DE SEGS LTD290820163108201631082016V         Novo (previa)             EDIELSON CAMPOS DE OLIVEIRANKF2709     9BWXN824X8R811607            ANAPOLIS7512473000000100204056   39,00SP
0860746948000112000500028805830000940          SEGURALTA OESTE COR DE SEGS LT270820163108201631082016V         Novo (previa)                KLEYTON MARTINS DA SILVAONS6081     9bd373175e5053703             ITAPACI7636000000000100361011   39,00SP
0860746948000112000500028791910000835          ATURISEG CORRETORA DE SEGUROS 290820163108201631082016V         Novo (previa)                   GESMAR AMADOR CARRIJOOOC4747     93XHYKB8TFCE02845        CALDAS NOVAS7569000000000100437883   39,00SP
0860746948000112000500028791930000835          ATURISEG CORRETORA DE SEGUROS 290820163108201631082016V         Novo (previa)               JEFFERSON ARAUJO DE SOUZAOGO0831     8AFTZZFFCCJ491442        CALDAS NOVAS7569000000000100437883   39,00SP
0860746948000112000500028814470000835          CASE CORRETORA DE SEGUROS LTDA290820163108201631082016V         Novo (previa)                   JOSE FABIANO DA SILVAONC3274     9bwlb45uxep061399APARECIDA DE GOIANIA7498002000000100288951   39,00SP
0860746948000112000500024686500000835          MAISGARRA ADM E COR DE SEGS LT290820163108201631082016V             Renovacao                 ANTONIA MENDES CARVALHOJIP0914     9bg138kj0ac452076           GOIANESIA7638512700000100529354   39,00SP
0860746948000112000500028814430000835            WC CORRETORA DE SEGUROS LTDA290820163108201631082016V             Renovacao                   ANTONIO CARLOS CHAVESOML2979     3G1J85cd3es505306APARECIDA DE GOIANIA7491940700001020173695   39,00SP
0860746948000112000500028805840000845          DU VALLE CORRETORA DE SEGURO L300820163108201631082016V         Novo (previa)                  ONEIDE GONTIJO RIBEIRONWI1865     9bwda05u4bt228326             ITAPACI7636000000000100714224   39,00SP
0860746948000112000500028805780000836          EMITE CORRETORA DE SEGUROS LTD290820163108201631082016V         Novo (previa)                         APARECIDO PIRESJHJ5222     9535W8271BR103516          BARRO ALTO7639000000000100494577   39,00SP
0860746948000112000900000889520000631                 CORAL ADM COR SGRS LTDA290820163108201631082016V         Novo (previa)                        POSTO ALJIG LTDAPVQ9983     8AJYY59G0F6529753       MONTES CLAROS3940107000000100101826   39,00MG
0860746948000112000200028010640000835                  COMVIDA CORR SEGS LTDA300820163108201631082016V             Renovacao         ANGELITA IRENE SANTOS CREMONESECVN2990     9BD17309TA4270891SANTA RITA DO ARAGUA7584000000000100434132   39,00MT
0860746948000112000500028805770000836          EMITE CORRETORA DE SEGUROS LTD290820163108201631082016V         Novo (previa)                JEAN ROGER MACEDO SANTOSOMK8949     9BVAG20C7EE813526          BARRO ALTO7639000000000100494577   39,00SP
0860746948000112000900030512380000624              WEGMAN COR DE SEGUROS LTDA290820163108201631082016V         Novo (previa)               MATEUS SALZGEBER COUTINHOPYC6028     9324LE2J9GDA38279      BELO HORIZONTE3057516000000100561339   39,00MG
0860746948000112000200029219540000837          XANGAI ADMR E CORRET DE SEGS L290820163108201631082016V             Renovacao                          TIAGO CORTEZIANJT1374     9BSG4X200A3660406          NOVA MUTUM7845000000000100608050   39,00MT
0860746948000112000300029710390000836          BRASAL CORRETORA DE SEGUROS LT300820163108201631082016V             Renovacao                   GISLEY PIRES DE SOUZAONJ5511     9BWDB45U5FT022278          CABECEIRAS7387000000000100063029   39,00SP
0860746948000112000500028814500000844          PONTOTERRA CORR DE SEGUROS LTD300820163108201631082016V                Outros                    ULISSES PEREIRA ROSAOGZ0400     9bwaa05u3ct138041APARECIDA DE GOIANIA7498512500000100520489   39,00SP
0860746948000112000500024686480000835           LDR COR E ADM DE SEGUROS LTDA290820163108201631082016V         Novo (previa)            CLOVIS ARAUJO GODINHO JUNIORPQC8141     8AJYY59G9F6534398           GOIANESIA7678000000000100387819   39,00SP
0860746948000112000500028815040000835          URBS CORRETORA DE SEGUROS LTDA300820163108201631082016V         Novo (previa)            UNIAOLOG TRANSPORTES LTDA MEOMO9529     95pga19fpcb000710APARECIDA DE GOIANIA7491141000000100111376   39,00SP
0860746948000112000900000829200000625          AGIL ADM E CORR SGRS PREST LTD290820163108201631082016V         Novo (previa)             FATIMA FARIA CASTELO BRANCOOGK7029     935SUNFNWDB508974              POMPEU3564000000000100118796   39,00MG
0860746948000112000200029219530000837          XANGAI ADMR E CORRET DE SEGS L290820163108201631082016V             Renovacao                          TIAGO CORTEZIAJZZ2913     9BSR4X2A053561815          NOVA MUTUM7845000000000100608050   39,00MT
0860746948000112000500028815060000844           GOYAZ SEGURO CORR SGRS EIRELI300820163108201631082016V         Novo (previa)                        ADRIANA CALDEIRAPQH1747     93hfb9640gz216158APARECIDA DE GOIANIA7491464600001020185367   39,00SP
0860746948000112000900011069530000624          MINAS CONFIANCE COR DE SEGS LT290820163108201631082016V         Novo (previa)  LOC RESENDE LOCACAO TRANSPORTE LTDA MEOLP1343     9BM979026CS000403         TRES MARIAS3920500000001020156758   39,00MG
0860746948000112000900030512390000611          GALDIANO CORRETORA DE SEGUROS 290820163108201631082016V         Novo (previa)                      MARIA ABADIA LOPESPVG4998     9BWAA45U7FP544926      BELO HORIZONTE3049427000000100341614   39,00MG
0860746948000112000900029858140000626          TONHO CORRETORA DE SEGUROS LTD290820163108201631082016V         Novo (previa)                PANIFICACAO LOUZADA LTDAPUI7230     9BD265122F9018861 SAO JOAO NEPOMUCENO3668000000001020165277   39,00MG
0860746948000112000500028815030000835          URBS CORRETORA DE SEGUROS LTDA300820163108201631082016V         Novo (previa)            UNIAOLOG TRANSPORTES LTDA MEELQ4494     95PZBN7HPBB029680APARECIDA DE GOIANIA7491265100000100111376   39,00SP
0860746948000112000900003100010000609          AMPARAR PREV ADM E COR DE SEGS290820163108201631082016V         Novo (previa)               MURCIO ANDRADE DOS SANTOSHID0453     93xjrke8t8c802299        RIO VERMELHO3917000000001020054777   39,00MG
0860746948000112000500028815070000835          PERMANENCIA COR DE SEGS LTDA M300820163108201631082016V         Novo (previa)                 GEDEON CESARIO DE FARIAOOA4319     9BG148EK0EC447251APARECIDA DE GOIANIA7490000000000100537497   39,00SP
0860746948000112000900030507030000612            OPLEM ADM.E COR.DE SEGS.LTDA300820163108201631082016V         Novo (previa)                      ADAILTON GONCALVESPWZ3426     9BWLB45U8GP085252           BARBACENA3620006800000100577871   39,00MG
0860746948000112000500028809110000835          SAGA CORRETORA DE SEGUROS LTDA300820163108201631082016V             Renovacao          JOAO BATISTA FERREIRA DA SILVAJRO8693     9BWMF07X79P003958APARECIDA DE GOIANIA7497602000000100138673   39,00SP
0860746948000112000500028806930000845          FERNANDES TAVARES ADM COR SEG 300820163108201631082016V         Novo (previa)            VALERIA CAMARGOS SALES SOUZAPQU8736     9BGKS69G0GG214900            ANAPOLIS7504025000000100688266   39,00SP
0860746948000112000500028815050000835          URBS CORRETORA DE SEGUROS LTDA300820163108201631082016V         Novo (previa)            UNIAOLOG TRANSPORTES LTDA MEONU9650     9BSP6X200D3833323APARECIDA DE GOIANIA7491141000000100111376   39,00SP
0860746948000112000900030516990000628          PEIRO & GARCIA CORR DE SEGS LT290820163108201631082016V         Novo (previa)                       IGOR ABRAO TORRESHIF1506     KNAKN812DA5046571      BELO HORIZONTE3127079000000100681229   39,00MG
0860746948000112000500028806970000835                  LIDER COR DE SEGS LTDA300820163108201631082016V             RenovacaoPAFISA PRE MOLDADOS INDUSTRIA E COMERCIOOMR6730     8AJFY29G5D8535829            ANAPOLIS7513214000000100145149   39,00SP
0860746948000112000500028806910000845          FERNANDES TAVARES ADM COR SEG 300820163108201631082016V         Novo (previa)            RAQUEL RAMOS DE SOUSA VIEIRAOMS0579     93XFRKB9TFCE00990            ANAPOLIS7504317500000100688266   39,00SP
0860746948000112000900030507070000454            OPLEM ADM.E COR.DE SEGS.LTDA300820163108201631082016P         Novo (previa)     JOICE PATRICIA DE FREITAS BERTOLINOOLS1979     9BD196283D2059432          UBERLANDIA3620033600000100577871   30,00MG
0860746948000112000900029892380000625          AGIL ADM E CORR SGRS PREST LTD300820163108201631082016V             Renovacao       PEZAO MONTAGENS E CALDERARIA LTDAPYC2504     9BWJL45U3HP041715       PARA DE MINAS3566113600000100118796   39,00MG
0860746948000112000300028482440000836               VOGAL COR DE SEGUROS LTDA290820163108201631082016V             Renovacao                   JOAO BATISTA TEIXEIRANLH1168     8AJFZ29G2A6104353STO ANTONIO DO DESCO7290031800000100622842   39,00SP
0860746948000112000200029209740000837           PRECISA CORR DE SEGS LTDA EPP300820163108201631082016V         Novo (previa)   RT MT TRANSPORTES RODOVIARIOS LTDA MENPP8615     9533172S6BR102995              CUIABA7806000000000100558362   39,00MT
0860746948000112000500028806920000835          DUOSEG C E COR DE SEGS EIRELI 300820163108201631082016V         Novo (previa)                      CLEITON SOUSA LEAOQBB5431     8BCNDRFJYFG509101            ANAPOLIS7506435000001020252510   39,00SP
0860746948000112000900030507950000626            PHG - ADM E COR DE SEGS LTDA300820163108201631082016V         Novo (previa)                     JOSE ROBERTO PASSOSHNL6363     9BWDB49N2CP003579            CARANDAI3628000000000100412139   39,00MG
0860746948000112000500028806940000835          DINIZ & DINIZ  CORR DE SEGS LT300820163108201631082016V         Novo (previa)               RAPHAEL ROCHA DE OLIVEIRAMOO0302     3CZRE18308G503212            ANAPOLIS7508407000000100541761   39,00SP
0860746948000112000300028482450000836          CONCEITUADA COR DE SEGUROS LTD310820163108201631082016V         Novo (previa)                 JOSE WELLINTON DE SOUZAAZQ4283     8A1LZLH06FL649007 VALPARAISO DE GOIAS7287647500000100611549   39,00SP
0860746948000112000500028814490000836          VILLAR & VILLAR COR SEGS DE VD300820163108201631082016V             Renovacao          ELENY RODRIGUES DA SILVA FILHONLR0187     9BD27844DA7235391APARECIDA DE GOIANIA7493567000000100695343   39,00SP
0860746948000112000800001127320000644          BAMESCO ADM E CORR SEGS LTDA E310820163108201631082016V         Novo (previa)                   REGIS ANDRE ALBARELLOOOH6164     9bd578377e7751122NOVA ALVORADA DO SUL7914000000000100114961   39,00MS
0860746948000112000500028807930000835          MULTICONFIANCA ADM.E COR.DE SE300820163108201631082016V          Substituicao                     ROGERIO DIAS GARCIAOGH9928     9BRBD48E0D2582849             GOIANIA7428022000000100140384   39,00SP
0860746948000112000800001094810000002           VCV ADM.E COR.DE SEGUROS LTDA300820163108201631082016V         Novo (previa)               NELSON MACIEL DE OLIVEIRAOOS9921     9BWAA45U3GP103277        CAMPO GRANDE        00000100374041   39,00MS
0860746948000112000900029608820000612          RAFAELA D NOGUEIRA CORR  SGRS 300820163108201631082016V         Novo (previa)                JOSELITA MAGALHAES BEDIMHJU1298     8AFER13P39J210845          LEOPOLDINA3670000000001020228848   39,00MG
0860746948000112000800001108400000002          ADM JFC ADM COR DE SEG EIRELI 300820163108201631082016V         Novo (previa)     LAURENTINA ANTUNES FLORES DE ARAUJOOOH0051     93XJRKB8TDCD76722            DOURADOS7982511500001020313012   39,00MS
0860746948000112000300028480730000845          MATTOS E CARVALHO COR DE SEGS 260820163108201631082016V                Outros                  JOAQUIM AUGUSTO MARCALPVF3251     9BD11819SF1316665            LUZIANIA7280064500001020212348   39,00SP
0860746948000112000900000896800000627          TAVARES & CUNHA COR DE SEG LTD290820163108201631082016V         Novo (previa)                       BRENO NUNES TERRAPXY6466     8AFAR23N5HJ403614             ALFENAS3713000000000100460907   39,00MG
0860746948000112000900030522820000609          MULTIPROTECAO ADM E CORR DE SE300820163108201631082016V         Novo (previa)             IVAN LUIZ GUIMARAES BATISTAOLZ6326     3FADP4BK4CM210174  CORONEL FABRICIANO3517009400001020157932   39,00MG
0860746948000112000300028480750000836          FIANCA CONSULT.E COR.DE SEGS.L310820163108201631082016V          Substituicao              ROBERTO PEREIRA DOS SANTOSJJL5326     93YBSR8VKCJ260485            LUZIANIA7285646900000100360252   39,00SP
0860746948000112000900030542090000002          UNIDADE AGUIA ADM COR SEG V LT310820163108201631082016V             Renovacao           ARISTOTELES KIYOKAZU HAMAMOTOPVM1848     9BRBDWHE9F0251195        POUSO ALEGRE3755000000000100496243   39,00MG
0860746948000112000300028480740000836                   PARSEC CORR SEGS LTDA290820163108201631082016V         Novo (previa)             JONATHAN MARTINS NASCIMENTOOVT6773     9BD17102LE5930039 VALPARAISO DE GOIAS7287845800000100101478   39,00SP
0860746948000112000900030515340000624           RTA MINAS CORRET DE SEGS LTDA300820163108201631082016V         Novo (previa)                DELICIAS DAS GERAIS LTDAOQP1863     9BD255049D8971178      BELO HORIZONTE3052539500001020124260   39,00MG
0860746948000112000900029368760000624             SELTSEG COR DE SEGUROS LTDA300820163108201631082016V         Novo (previa)MARCENARIA PERSEVERANCA SERVICOS E MONTAHKR4574     9BWKB05W3AP002159      BELO HORIZONTE3131020000000100386529   39,00MG
0860746948000112000200028012840000558           BRADESCOR COR DE SEGUROS LTDA310820163108201631082016P         Novo (previa)               ERICO RICARDO DA SILVEIRAOBQ6289     8AFAR23LXEJ150123              Cuiaba7882000000000100058777   30,00MT
0860746948000112000200028020200000853            DELTA ADM E COR DE SEGS LTDA310820163108201631082016P         Novo (previa)         ELAINE CRISTINA BUENO DE MORAESOGI4028     8AJYY59G4C6502275              Cuiaba7860000000000100099236   30,00MT
0860746948000112000900029542460000627          MARTINS & TEIXEIRA COR.DE SEGS310820163108201631082016V             Renovacao        MARIA CONCEICAO FONSECA STOCKLERENO5008     93xprk94wac916687             ALFENAS3713003100000100366790   39,00MG
0860746948000112000900029542470000610          CIRCUITO DOS LAGOS COR DE SEG 310820163108201631082016V             Renovacao                   FABIO SERGIO DA SILVAHHG3272     9bd195162c0270415             ALFENAS3713000000000100424421   39,00MG
0860746948000112000900029368720000624          LOJACORR S A REDE DE COR DE SE300820163108201631082016V          Substituicao               MARCIA PENA MELLO BRANDAOPUK1697     9BFZD55PXFB757795      BELO HORIZONTE3156017000000100438502   39,00MG
0860746948000112000900029368220000613          HIRKUS CORRETORA DE SEGUROS LT300820163108201631082016V         Novo (previa)                   IRENE SILVA RODRIGUESKXW6877     JMYXLGF4WEZA01026      BELO HORIZONTE3117018000001020000570   39,00MG
0860746948000112000900029542480000610          M.B.G.M. ADM.CORR.SEGUROS LTDA310820163108201631082016V         Novo (previa)                 ANTONIO CARLOS FERREIRAHTQ9414     9bg138kj0ac447249          POCO FUNDO3775700000000100454966   39,00MG
0860746948000112000900030515380000624          SILVA E TAVARES CORR DE SEGS L300820163108201631082016V             Renovacao                 ANGELICA CAMILO PEREIRANXX2132     9bwab45z6c4129344      BELO HORIZONTE3064219000001020134428   39,00MG
0860746948000112000800001127300000848                BRITOSEG COR SEG LTDA ME300820163108201631082016V         Novo (previa)                 MARIA EVA VERAO PEREIRAOOJ1403     9BD578377F7832833          PONTA PORA7990458800000100574007   39,00MS
0860746948000112000800001117040000002          VOLVO COR.DE SEGS.ADM.E SERV.L300820163108201631082016V         Novo (previa)              JURACI ANDRADE DA SILVA MENSD3078     9BM958096CB880796        CAMPO GRANDE7904000000000100410098   39,00MS
0860746948000112000800001097220000002           VCV ADM.E COR.DE SEGUROS LTDA300820163108201631082016V         Novo (previa)                          CARLOS CACERESHTN6450     9BG138SJ0AC426456          BELA VISTA7926000000000100374041   39,00MS
0860746948000112000800001108390000002                  J P A BARROS EIRELI ME300820163108201631082016V         Novo (previa)    TIAGO C B VITORINO AGRIC PRECISAO MEOOU0104     9BD57827SGB018820            DOURADOS7982642500001020295421   39,00MS
0860746948000112000800001083150000002          ATHENAS ADM E COR DE SEGS LTDA300820163108201631082016V          Substituicao                    FERNANDO PIANA COSTAOTR1950     94TTT4D23DH001662            IVINHEMA7974000000000100136093   39,00MS
0860746948000112000800001126770000846          VIVO 3 CORR DE SEGUROS LTDA-ME300820163108201631082016V         Novo (previa)HOTEL E RESTAURANTE BOI NA BRASA LTDA MEOOK6101     9BG148LA0FC412487             AV SEIS7956000000000100631132   39,00MS
0860746948000112000900030515390000607          ESSENCIAL & ESSENCIAL COR SEGU300820163108201631082016V         Novo (previa)                     LUIZA MAYRA LUCIANOGOL9859     9BD15822524358789      BELO HORIZONTE3062722200001020149212   39,00MG
0860746948000112000900029583910000624                   JBA CORR DE SEGS LTDA300820163108201631082016V      Reducao franquia               GIVALDO BARROS DOS SANTOSHLX2957     93ZC53B0198411014      BELO HORIZONTE3103013000000100271101   39,00MG
0860746948000112000900030512400000624             COSTAMAR ADM CORR SEGS LTDA300820163108201631082016V         Novo (previa)                         NICOLAS SERAFIMOON6394     SALVA2BG8EH954988      BELO HORIZONTE3011001700000100068187   39,00MG
0860746948000112000900030516930000626            LEME COSTA ADM COR SEGS LTDA270820162908201630082016V         Novo (previa)                          JAIRO DA SILVADPJ8151     9bwcb45x25p118317      BELO HORIZONTE3115072000000100371891   39,00MG
0860746948000112000900030582010000657           HSBC CORRETORA DE SEGUROS S A270820162908201630082016V             Renovacao            GUSTAVO CORREA DOS SANTOS MEEYJ9119     knapb811bc7192077             ITAJUBA3750105600000100063860   39,00MG
0860746948000112000500028813960000940          SEGURALTA OESTE COR DE SEGS LT260820162908201630082016V         Novo (previa)                    GABRIELLA BROM PAIVANLF3140     9bfzf55a298389619             GOIANIA7414006000000100361011   39,00SP
0860746948000112000100031033020000628          CORDIAL COR.DE SEGS.E REPRES.L290820162908201630082016V         Novo (previa)                 MURILO CRUVINEL QUINTASFQW9419     9BG148FK0EC445480          UBERLANDIA3840802600000100110779   39,00SP
0860746948000112000800001108360000002          HARMONIA-SEG ADM E CORR DE SEG290820162908201630082016V             Renovacao                JOAO RODRIGUES DE ARAUJOOOP5620     9BWLL45U5FP121863            DOURADOS7984203000001020107013   39,00MS
0860746948000112000800001114540000002          ROBICAR CORRETORA DE SEGUROS S290820162908201630082016V         Novo (previa)                WILSON PRESOTO JUNIOR MEOOI1940     8AJFY29G0D8534538      NOVA ANDRADINA7975000000001020219830   39,00MS
0860746948000112000900030522770000630          ACORONI E ALVARENGA CORR DE SE260820162908201630082016V         Novo (previa)SOLVERQUIMICA INDUSTRIA OU COMERCIO LTDAOWQ9390     94BA13530EV042212  SANTANA DO PARAISO3516700000001020246021   39,00MG
0860746948000112000900028547170000612          MARIO PAULO ADM.E COR.DE SEGS.290820162908201630082016V             Renovacao             JOAO INACIO SIQUEIRA JUNIORHHR5786     3VWSH49MX8M616941          PONTE NOVA3543022900000100353205   39,00MG
0860746948000112000200029294170000846          BIRK CORRETORA DE SEGS LTDA -M290820162908201630082016V         Novo (previa)                MARCIO EUFRASIO DA SILVANVT7949     8AJYZ59G6B3055025       ALTA FLORESTA7858000000000100685674   39,00MT
0860746948000112000900030500170000002          AGIL ADM E CORR SGRS PREST LTD290820162908201630082016V         Novo (previa)               VALMER MENDONCA JUNQUEIRANIZ5643     8AJFZ29G596075037       BOA ESPERANCA3717000000000100118796   39,00MG
0860746948000112000900030516960000624          COCOON ADM COR DE SEGUROS LTDA290820162908201630082016V         Novo (previa) LEONARDO AUGUSTO MACIEL DE FARIA XAVIEROXK8183     YV1DZ40CDF2654758      BELO HORIZONTE3071001000000100529583   39,00MG
0860746948000112000900030516970000624          EMPLAKAR ADM E COR SEGUROS LTD290820162908201630082016V             Renovacao        MCF EQUIPAMENTOS E SERVICOS LTDAHHG0208     8awpb45z8ba516300      BELO HORIZONTE3113019200001020187041   39,00MG
0860746948000112000900030516980000607          CREDITSEG ADM E COR DE SEGS LT290820162908201630082016V         Novo (previa)                 ARLINDO PASSOS DO CARMOOQT3030     jmystcy4aeu002732            CONTAGEM3237158000001020121474   39,00MG
0860746948000112000900043519230000609          CAMPOS MOURA ADM.E COR.DE SEGS290820162908201630082016V         Novo (previa)              MARIANA MARTIN DE CARVALHONYC0016     3c3affar3ct247124         SETE LAGOAS3570042600000100280755   39,00MG
0860746948000112000900043519250000625                DAMAPI ADM COR SEGS LTDA290820162908201630082016V         Novo (previa)                       RODOSILVA LTDA MEGMV0786     9BWLTH735PDB35389         SETE LAGOAS3570021400000100586978   39,00MG
0860746948000112000200027100120000940          SEGURALTA OESTE COR DE SEGS LT290820162908201630082016V         Novo (previa)                    PEDRO VAZ DOS SANTOSNPL4252     8afar20f5ej198272  PRIMAVERA DO LESTE7885000000000100361011   39,00MT
0860746948000112000900030514390000624          OUROVILLE CONS ADM E CORR SEGS290820162908201630082016V             Renovacao                    ALMIR SILVERIO NUNESPWK0068     93HRV2870GZ120149           NOVA LIMA3400000000000100611531   39,00MG
0860746948000112000900029542360000627                  VIVIANE CRISTINA CUNHA260820163008201630082016V         Novo (previa)                        CLENILTON BORGESHIB4052     9bd27804d97110228           CAMPESTRE3773000000000100685101   39,00MG
0860746948000112000900029542370000627          GOYATA CORRETORA DE SEGUROS LT250820163008201630082016V         Novo (previa)               GILDO ANTONIO DE CARVALHOOPG5462     9bg148lp0dc440126             MACHADO3775000000000100223794   39,00MG
0860746948000112000900029542380000627          CIRCUITO DOS LAGOS COR DE SEG 290820163008201630082016V         Novo (previa)   FLAVIO ANTONIO TAVARES DE OLIVEIRA MEEMG0771     8bclcrfjwag515522         ELOI MENDES3711000000000100424421   39,00MG
0860746948000112000900029024780000280          RODOBENS ADM E COR DE SEGS LTD300820163008201630082016V         Novo (previa)               GM BRAGANTE E CIA LTDA MECLH2712     YS2T4X2A0V1236554CORONEL XAVIER CHAVE3633000000000100204056   39,00MG
0860746948000112000500028805670000839          TOTAL SANTOS CORRETORA DE SEGU290820163008201630082016V         Novo (previa)                   DIRCEU TEIXEIRA BELAIOMQ3674     93xfrh77wecd82357SANTA HELENA DE GOIA7592000000000100591459   39,00SP
0860746948000112000500028767980000911          SOL GOIAS COR DE SEGUROS LTDA 270820163008201630082016V         Novo (previa)                    GILSON NUNES DE MELOJIL0700     9BWDB05W08T091196             CATALAO7570130000001020309724   39,00SP
0860746948000112000200029253300000846          VALE DO JAURU COR ADM SEG LTDA290820163008201630082016V         Novo (previa)               CARLOS ROBERTO R DA SILVANPJ4923     9BD578241E7788973             CACERES7820000000000100674656   39,00MT
0860746948000112000200029226030000846          JUARA CORRETORA SEGUROS LTDA E290820163008201630082016V         Novo (previa)                              S JARSCHELQBG4528     8AJFY29G3F8567052               JUARA7857500000000100720470   39,00MT
0860746948000112000900030531710000002          MONTECLA ADMINISTRADORA E COR.300820163008201630082016V         Novo (previa)                   ETERNO DIVINO ALMEIDAHKU4980     9BG138HJ0AC430433       SANTA VITORIA3832000000000100649104   39,00MG
0860746948000112000900030542050000002          SOBERANA INFINITY COR DE SEGS 300820163008201630082016V         Novo (previa)                  THIAGO DE MELLO MACEDOHJR3435     9BWAB01J394017912           OURO FINO3757000000000100707414   39,00MG
0860746948000112000900027750490000628          BRASIL CONSULT CORR DE SEGS LT290820163008201630082016V         Novo (previa)         MATILDE MARIA DAS GRACAS SANTOSPUT3004     8AJFY22G8F8017551      JOAO MONLEVADE3593117000000100690457   39,00MG
0860746948000112000900030558510000611              DENISE C DRIGOTTE MONTEIRO290820163008201630082016P         Novo (previa)                    FREDSON PEREIRA LIMAOOW0303     9bg148lp0dc436322          UBERLANDIA3818312600001020335784   30,00MG
0860746948000112000200028012800000837          CARRO NOVO ADM E COR DE SEGS L300820163008201630082016V             Renovacao             RICARDO ROBERTO WEISSHEIMERNJJ6551     8AJFZ29GXB6125033             JACIARA7882000000000100646831   39,00MT
0860746948000112000200029297070000975           HPE CORRETORA DE SEGUROS LTDA300820163008201630082016V         Novo (previa)                          SUELEN BARIZONQBU3716     93XXTGA2WGCF25012             COLIDER7850000000001020076053   39,00MT
0860746948000112000900030698950000631                UNAI ADM COR DE SEG LTDA300820163008201630082016V                Outros                         JOAO LUIZ COSTAHJZ3055     9bsg4x200a3653151                UNAI3861000000000100452149   39,00MG
0860746948000112000100030699040000628           JETSEG ADM E COR DE SEGS LTDA290820163008201630082016V         Novo (previa)                  MOISES JUNIOR DA CUNHAPVW0680     9BFZH55L6F8227418          PATROCINIO3874217600000100131890   39,00SP
0860746948000112000200028057020000846          PERSONAE TREIN CON ASS COR SEG300820163008201630082016V         Novo (previa)                  H DE MATOS COMERCIO MEOBC9176     3N1CK3CD6DL215711               SINOP7855032800000100471348   39,00MT
0860746948000112000200029266730000837            AFER BRASIL COR SEG LTDA EPP290820163008201630082016V         Novo (previa)       TEM COMERCIO DE ALIMENTOS LTDA MENUC4601     9BGCA80X0CB200553        RONDONOPOLIS7870516400000100654434   39,00MT
0860746948000112000900029605400000002          PEIRO E GARCIA CORR DE SEGS LT300820163008201630082016V             Renovacao                 GERALDO MAGELA BONTEMPOPUL1702     8AFAR23L6EJ245830      PATOS DE MINAS3870205800000100681229   39,00MG
0860746948000112000900030520550000607          TORRE SUL ADM CORR DE SEGS LTD290820163008201630082016V             Renovacao                      JOEL ANTONIO ELIASNYE8777     9BFZC52PXCB918253            PERDIGAO3551500000001020004923   39,00MG
0860746948000112000900030696020000631          JOPAR ADMR E CORR DE SEGS LTDA290820163008201630082016V         Novo (previa)          ELVIS ARAUJO SOUZA TRANSPORTESJHV0966     9BFXCE2UX7BB95065            PARACATU3860000000000100640689   39,00MG
0860746948000112000500028805660000835          ESSEG CORRETORA DE SEGUROS LTD260820163008201630082016V             RenovacaoCARVALHO E SANTANA COMERCIO E DER DE PETNKJ8210     9BW7J82709R904062SANTA HELENA DE GOIA7592000000000400002038   39,00SP
0860746948000112000200027121630000846           BOA CERTA COR DE SEGUROS LTDA300820163008201630082016V         Novo (previa)         PFP COMERCIO DE BEBIDAS LTDA MEQBM6002     9531M52PXFR507486    MIRASSOL D OESTE7828000000001020295456   39,00MT
0860746948000112000500028793080000844          PADUA CASTRO COR DE SEGUROS LT260820163008201630082016V         Novo (previa)                          EDVALDO DANTASNVO1060     9BWAB41J2B4001309             CATALAO7570945000000100601365   39,00SP
0860746948000112000800001127270000839            VIPER ADM E COR DE SEGS LTDA270820163008201630082016V             Renovacao                   CESAR ANTONIO SCOLARINRL9800     93XFRH77WCCB64108          PONTA PORA7990464000000100148849   39,00MS
0860746948000112000500028793060000835           CORASBEG CORRETORA DE SEGUROS260820163008201630082016V         Novo (previa)                         SAMMA T ES LTDAOMY0862     9BD223153D2030755             CATALAO7570935000000100102636   39,00SP
0860746948000112000800001113210000002          SENECA CORRETORA DE SEGUROS LT270820163008201630082016V         Novo (previa)            DOELER DIST DE VEICULOS LTDABAE0602     8A1LZLH0TGL155300        CAMPO GRANDE7904106000001020096984   39,00MS
0860746948000112000900029999410000624             SELTSEG COR DE SEGUROS LTDA290820163008201630082016V         Novo (previa)FVA LOCACAO E FRETAMENTOS DE VEICULOS LTHDK7580     8AC9036726A935375         SANTA LUZIA3303532000000100386529   39,00MG
0860746948000112000200026696820000837          SAGACE CORR DE SEGUROS LTDA ME300820163008201630082016P         Novo (previa)                         R P SCOLARI EPPQBK9902     8AJHA8CD7H2580519              Cuiaba7839000000001020151489   30,00MT
0860746948000112000900029999450000969          MINUTO CORRETORA DE SEGUROS S 290820163008201630082016V         Novo (previa)                            ARAMIS SILVAPVU7944     93Y5srd64fj864034         SANTA LUZIA3302506000000100230758   39,00MG
0860746948000112000900030507020000454            OPLEM ADM.E COR.DE SEGS.LTDA290820163008201630082016P         Novo (previa)                   REVALDO PELASCO VIANaMQE0930     9BWDB05X75T041335          UBERLANDIA3620500100000100577871   30,00MG
0860746948000112000500028806810000835          J RIBEIRO CORRETORA DE SEGS LT260820163008201630082016V         Novo (previa)                     HELENA CALIXTO HAJEONH0959     3HGRM5830EG500946            ANAPOLIS7510321000001020122993   39,00SP
0860746948000112000400027576470000846          PERSONAE TREIN CON ASS COR SEG290820163008201630082016V         Novo (previa)       ANTONIO RUBENES NOGUEIRA DA SILVAHTP2421     9BVAS02D4BE770927         TRES LAGOAS7961010000000100471348   39,00SP
0860746948000112000200027387230000839           HSG CORRETORA DE SEGUROS LTDA300820163008201630082016V         Novo (previa)    RIO GRANDE ARMAZENS GERAIS LTDA- EPPQAA1632     8ajdy22g2f7009944              Cuiaba        00001020049790   39,00MT
0860746948000112000900030507900000626            AUTOMARAX ADM E CORR DE SEGS290820163008201630082016V         Novo (previa)                  JUAREZ MARCOS PERREIRAFBC0050     9BWAB41J4D4001914             BARROSO3621200000000100573914   39,00MG
0860746948000112000900030522790000609          MULTIPROTECAO ADM E CORR DE SE260820163008201630082016V         Novo (previa)                 RANIERE ARRUDA TEIXEIRAHKH2068     8AGCN48X0BR182657  CORONEL FABRICIANO3517001900001020157932   39,00MG
0860746948000112000500024686740000835          NOVA CAMELOT CORR DE SEGS LTDA260820163008201630082016V             Renovacao               RILDO JOSE SPINDOLA BRAGAJKE9222     9BWAB41J9D4001701         NIQUELANDIA7642000000000100582425   39,00SP
0860746948000112000200029236160000837          AMARAL JUNIOR COR DE SEGUROS L290820163008201630082016V         Novo (previa)                 JOSE FRANCISCO DA SILVAOWV1198     9BD197163E3174467        RONDONOPOLIS7873558500000100591904   39,00MT
0860746948000112000900028699040000626             MCX ADM E CORR DE SEGS LTDA290820163008201630082016V         Novo (previa)                        VICENTE DE PAULAPXL8349     9BD195A9MG0752964           BELO VALE3547300000000100640867   39,00MG
0860746948000112000900028699030000558           BRADESCOR COR DE SEGUROS LTDA290820163008201630082016V         Novo (previa)                 JOAO BATISTA DOS SANTOSNYA1144     9BWAA05U7CP187090           CONGONHAS3641500000000100058777   39,00MG
0860746948000112000100027817510000610          SUL DE MINAS ADM E COR DE SEG 290820163008201630082016V             Renovacao                     JOAQUIM MANOEL MOTAPWJ3538     9BHBG51DAFP422185         PIRANGUINHO3750800000000100710873   39,00SP
0860746948000112000500024664710000613          CORRETORA DE SEGUROS ASSURE RI260820163008201630082016V         Novo (previa)         JOSE LEOPOLDO DE CASTRO RIBEIROMWQ5481     93XGNK7409C958042             JARAGUA7633000000000100378712   39,00SP
0860746948000112000900029999080000624            GCG GERMANA COR.DE SEGS.LTDA290820163008201630082016V         Novo (previa)                    JUSSARA MAGELA NUNESNYB0188     9BWAB05U6DP003627               CAETE3480000000000100372510   39,00MG
0860746948000112000900029998970000607          ESSENCIAL & ESSENCIAL COR SEGU290820163008201630082016V         Novo (previa)                  RONALDO ALVES DE ABREUHMW2905     9BD19230RB3099997           NOVA LIMA3400000000001020149212   39,00MG
0860746948000112000900030698960000631          URUCUIA ADM.E COR.DE SEGS LTDA300820163008201630082016V             Renovacao                         SILVIO NAKAMURAPAZ6498     8ajfy29g2e8562780          UBERLANDIA        00000100381381   39,00MG
0860746948000112000900027120890000922          HILD CORRETORA DE SEGUROS LTDA300820163008201630082016V          Substituicao            ANDREIA CRISTINY DE OLIVEIRAHEU6821     9BD27844PB7308631             UBERABA3803010000000100712604   39,00MG
0860746948000112000500028809040000835          RODRIGUES FERNANDES ADM COR SE270820163008201630082016V         Novo (previa)        ENEC EMP NAC DE ENG E CONST LTDAONX6936     9BD578141F7847964APARECIDA DE GOIANIA7400000000000100452904   39,00SP
0860746948000112000500028793110000844          PADUA CASTRO COR DE SEGUROS LT270820163008201630082016V         Novo (previa)                FABIANO TEODORO DA CUNHAHJK4772     9BG138JJ09C414572             CATALAO7571222500000100601365   39,00SP
0860746948000112000500028806830000835            ANASEG ANAPOLIS CORR DE SEGS270820163008201630082016V         Novo (previa)                RODRIGO GOMES DE MIRANDAJHR1801     9BD27844PB7359793            ANAPOLIS7513482500000100176630   39,00SP
0860746948000112000900001011620000625           CAPITOLIO COR DE SEGUROS LTDA290820163008201630082016V         Novo (previa)                     RONAN GERALDO SILVANYD1950     9BWLB05U0DP026328           CAPITOLIO3793000000001020146523   39,00MG
0860746948000112000500028793100000940          SEGURALTA OESTE COR DE SEGS LT270820163008201630082016V         Novo (previa)     GISELE DA SILVA PEREIRA CATALANA MEOPU9100     8AJFY29G8D8531404             CATALAO7570101000000100361011   39,00SP
0860746948000112000200029266780000837          ANJO AZUL ADM.E COR.DE SEGS.LT300820163008201630082016V         Novo (previa)            VERA LUCIA OLIVEIRA DA SILVANPH5444     93XHYKB8TFCE91041        RONDONOPOLIS7870527600000100435155   39,00MT
0860746948000112000500028806820000845          12R CORRE DE SGRS E PREVI SS L270820163008201630082016V         Novo (previa)                  IRAPUAM AIRES DA SILVAHXU9132     9BGKB05Z274093378            ANAPOLIS7512574000001020295235   39,00SP
0860746948000112000500024686460000835          MAISGARRA ADM E COR DE SEGS LT270820163008201630082016V         Novo (previa)                 ABEL RIBEIRO DOS SANTOSONU2615     93YHSR2LAEJ910539           GOIANESIA7638218100000100529354   39,00SP
0860746948000112000900011047510000629          ROBERTO SEGUROS CORR SEGS LTDA290820163008201630082016V         Novo (previa)GERALDO E FILHO CONSTRUTORA E INCORPORADOWW3690     9bwlb45u2ep134149           CARATINGA3530045000001020122799   39,00MG
0860746948000112000500024686470000835          MAISGARRA ADM E COR DE SEGS LT270820163008201630082016V         Novo (previa)              DIVANIA NOGUEIRA MAGALHAESPQI2551     8AJZX62G2F5011169           GOIANESIA7638000100000100529354   39,00SP
0860746948000112000300028480910000845          ADRIANA APARECIDA FERRAZ FRAGA290820163008201630082016V             Renovacao                ANA MARIA DE BARROS DIASPQB2216     9BWAA45U4FP555897    CIDADE OCIDENTAL7288000100000100681601   39,00SP
0860746948000112000300028480920000836          SMAFF CORRETORA DE SEGUROS LTD260820163008201630082016V             Renovacao               ISMAR BERNARDO DOS SANTOSJHW1791     9BFZK53A6BB286243    CIDADE OCIDENTAL7289900000000100366587   39,00SP
0860746948000112000500028817140000835          ESBRA ADM E COR DE SEGS LTDA M290820163008201630082016V         Novo (previa)        GISLAINE LAURA GOMES DE CARVALHONJO3362     9bd57814ugb094318            MINEIROS7583000000001020260466   39,00SP
0860746948000112000500028799930000835            AMIL ADM E CORR DE SEGS LTDA270820163008201630082016V         Novo (previa)                         FAUSTO TOMAZINIPQC4630     WBAHS7108GP893179             GOIANIA7481017000000100241164   39,00SP
0860746948000112000900001009500000609          GILBERTO FERREIRA SEG ADM COR 290820163008201630082016V         Novo (previa)         TRANSP ESCOLAR C CHAGAS LTD EPPHJF6025     9BWMF07X0CP000617       CARLOS CHAGAS3986400000000100446505   39,00MG
0860746948000112000800001114440000837          SENECA CORRETORA DE SEGUROS LT290820163008201630082016V         Novo (previa)            DOELER DIST DE VEICULOS LTDABAE0355     93yhsrc46gj125993        CAMPO GRANDE7904106000001020096984   39,00MS
0860746948000112000800001114450000837          SENECA CORRETORA DE SEGUROS LT290820163008201630082016V         Novo (previa)            DOELER DIST DE VEICULOS LTDABAC5016     93YMAFELEGJ215842        CAMPO GRANDE7904106000001020096984   39,00MS
0860746948000112000800001099670000839          FERREIRA CORRETORA DE SEGUROS 290820163008201630082016V         Novo (previa)        MOACIR VASCONCELOS DO NASCIMENTOOOG2867     8AFAR23L4EJ172215         CASSILANDIA7954000000000100238155   39,00MS
0860746948000112000200028045060000837             M.B. ADM.E COR.DE SEGS.LTDA300820163008201630082016V         Novo (previa)             CENTAURO MOTO PECAS LTDA MEOBB5990     9BG144EP0DC435932 NOVA CANAA DO NORTE7851500000000100140988   39,00MT
0860746948000112000900029594740000986          I C INSURANCE COMPANY COR ADM 260820163008201630082016V         Novo (previa)     ELAINE CLARO DE OLIVEIRA PERUSSO MEEOM5212     9bd27833mc7504690              FRUTAL3820000000000100412716   39,00MG
0860746948000112000200029204990000251          VOLVO COR.DE SEGS.ADM.E SERV.L230820162408201629082016V         Novo (previa)JUNINZAO TRANSPORTES RODOVIARIOS LTDA MEBAS3353     9BRBLWHE8G0058542              CUIABA7809841000000100410098   39,00MT
0860746948000112000900030698910000836            AUTO BONUS ADM COR SEGS LTDA270820162708201629082016V         Novo (previa)             FLAVIA CELIA DE MATOS SILVAPUL1413     9bwlb45u0fp067312                UNAI3861000000000100480495   39,00MG
0860746948000112000900029594510000986          I C INSURANCE COMPANY COR ADM 260820162808201629082016V         Novo (previa)     ELAINE CLARO DE OLIVEIRA PERUSSO MEOLP3202     9BWAA05W9DP032589              FRUTAL3820000000000100412716   39,00MG
0860746948000112000900029875000000986          I C INSURANCE COMPANY COR ADM 260820162808201629082016V         Novo (previa)     ELAINE CLARO DE OLIVEIRA PERUSSO MECUD9715     9bsg6x400b3682263              FRUTAL3820000000000100412716   39,00MG
0860746948000112000900029874980000986          I C INSURANCE COMPANY COR ADM 260820162808201629082016V         Novo (previa)     ELAINE CLARO DE OLIVEIRA PERUSSO MEPVZ1062     9bm958471fb009207              FRUTAL3820000000000100412716   39,00MG
0860746948000112000900029874990000986          I C INSURANCE COMPANY COR ADM 260820162808201629082016V         Novo (previa)     ELAINE CLARO DE OLIVEIRA PERUSSO MEOXB5391     9bm958471eb955848              FRUTAL3820000000000100412716   39,00MG
0860746948000112000900030516890000624            R E R ADM E COR SEGS LTDA ME260820162808201629082016V         Novo (previa)                   ELZA FELICIANO OTTONEHML6933     9BD27803MA7229784      BELO HORIZONTE3072031000001020297360   39,00MG
0860746948000112000900030516910000624          COCOON ADM COR DE SEGUROS LTDA260820162808201629082016V         Novo (previa)                 RICARDO CIRILO DA SILVAPWN8101     9BWAB45Z3G4010267      BELO HORIZONTE3136033000000100529583   39,00MG
0860746948000112000900030516920000624             SELTSEG COR DE SEGUROS LTDA260820162808201629082016V         Novo (previa)        GABRIELA CRISTINA DE SOUZA LEITEOWN0753     8AJFX29G2E6604847      BELO HORIZONTE3084050000000100386529   39,00MG
0860746948000112000900030512310000624          RESENDE & COIMBRA ADMINISTRADO260820162808201629082016V         Novo (previa)            MARLI ALVES DOS SANTOS SILVAPXL1273     9BWAA45U0GP501143    SAO JOSE DA LAPA3335000000000100625094   39,00MG
0860746948000112000900030512320000558           BRADESCOR COR DE SEGUROS LTDA260820162808201629082016V         Novo (previa)            JUNIOR CESAR OLIVEIRA CAMPOSHMR4632     9BWAA05Z2A4115840      BELO HORIZONTE3151029000000100058777   39,00MG
0860746948000112000900030515260000607          MULTI LOG CORRETAGEM DE SEGURO260820162808201629082016V         Novo (previa)      R & E MONTAGENS E MANUNTENCAO LTDAOWI5789     9BWDA45U0ET131037               BETIM3267839000001020146698   39,00MG
0860746948000112000900030514370000609             RIANE ADM COR SEG VIDA LTDA270820162808201629082016V         Novo (previa)  LATICINIO YOGUEDES IND E COMERCIO LTDAORA4991     9bd578141e7740277      BELO HORIZONTE3045564000000100689602   39,00MG
0860746948000112000900029583870000608          ALPHA STAR CORR.DE SEGUROS LTD270820162808201629082016V         Novo (previa)                   GUSTAVO GRESSI CAMPOSASX8441     9BFZF55A4B8096956      BELO HORIZONTE3117013000000100371882   39,00MG
0860746948000112000900029583880000624          COCOON ADM COR DE SEGUROS LTDA270820162908201629082016V         Novo (previa)                 DANIEL BRESCIA DOS REISOWU5283     9BFZD55P1EB726207      BELO HORIZONTE3114025000000100529583   39,00MG
0860746948000112000100030699020000628          TROPICAL ADM CORR DE SEGS LTDA280820162908201629082016V         Novo (previa)                  ALBERTO PEREIRA COELHOJJL6019     9BRBL42E7D4737770          PATROCINIO3874000000000100111678   39,00SP
0860746948000112000100030699030000628           JETSEG ADM E COR DE SEGS LTDA280820162908201629082016V         Novo (previa)             YOUSSEF ABDALLAH DAURA NETOPWK7771     9BRBDWHE1G0277095          PATROCINIO3874000000000100131890   39,00SP
0860746948000112000900030531670000002          CALIXTO LOPES ASSES E COR DE S290820162908201629082016V         Novo (previa)     DAVID GONCALVES PEREIRA CIA LTDA MEJKD0332     9BWLB45U0DP044013           CANAPOLIS3838000000000100423009   39,00MG
0860746948000112000900029585890000002          FREITAS E VILELA CORR.SEGS PRA290820162908201629082016V          Substituicao           SIMONE APARECIDA TANNUS ROCHAAZI5404     WV1DB22H2FA001556               PRATA3814000000000100684902   39,00MG
0860746948000112000100030699010000836          SHOW DE SEGS CORR DE SEGS LTDA270820162908201629082016V         Novo (previa)                  JOAO NETO LOPES SANTOSJKJ1785     9BD373154D5015566             URUCUIA3931500000001020199031   39,00SP
0860746948000112000900028950500000002                  COMVIDA CORR SEGS LTDA290820162908201629082016V         Novo (previa)       FABIO DE PASSOS DELMONDES MOREIRAHIG6854     9533A62R7AR036791          UBERLANDIA7583000000000100434132   39,00MG
0860746948000112000800001108350000002          GOLDEN SEG ADM E CORR DE SEGS 270820162908201629082016V             Renovacao                   JOAO LINHAREDS JUNIORQAB0018     93XHYKH8WGCF19702            DOURADOS7980503000001020270780   39,00MS
0860746948000112000800001097210000002           VCV ADM.E COR.DE SEGUROS LTDA270820162908201629082016V         Novo (previa)               JOSAYANE RIBEIRO CARVALHOOOK8919     9BD197132F3187424          BELA VISTA7926000000000100374041   39,00MS
0860746948000112000900011033760000607           LUGAR ADM COR DE SEGUROS LTDA250820162908201629082016V         Novo (previa)          MARLENE APARECIDA LOPES COSIMOHHJ2007     9bd27803mb7322779             CAMACHO3555500000001020114338   39,00MG
0860746948000112000900029946800000002            OPLEM ADM.E COR.DE SEGS.LTDA290820162908201629082016V         Novo (previa)           AGROMATA REFLORESTAMENTO LTDAPWP9130     9BD57835TGB037222         ANDRELANDIA3730000000000100577871   39,00MG
0860746948000112000200029202510000940          SEGURALTA OESTE COR DE SEGS LT290820162908201629082016V         Novo (previa)              MANOEL ARAUJO DA CONCEICAOQBC2914     9BGKS69G0FG385509   PLANALTO DA SERRA7885500000000100361011   39,00MT
0860746948000112000900029585880000002          FREITAS E VILELA CORR.SEGS PRA290820162908201629082016V             Renovacao                    LUIZ CARLOS FERREIRAOMB1100     9BG148FH0DC428143               PRATA3814000000000100684902   39,00MG
0860746948000112000900030500150000002          RACINI ADM E CORR DE SEGS LTDA290820162908201629082016V             Renovacao                       JOSE MARIA PELOSOPXM1412     WV1DB22H8GA016936       BOA ESPERANCA3717000000000100474771   39,00MG
0860746948000112000900030500160000002          RACINI ADM E CORR DE SEGS LTDA290820162908201629082016V         Novo (previa)                     ADAO JOSE RODRIGUESDOG7968     8AFCZZFFC4J366903       BOA ESPERANCA3717000000000100474771   39,00MG
0860746948000112000900030698930000609          CPIOTO CORRETORA DE SEGUROS LT290820162908201629082016V         Novo (previa)         ELZA LUCIA ALVES CAMPOS MOURADOFJD0048     9bg156mh0dc451464                UNAI3861000000000100496804   39,00MG
0860746948000112000500028812370000280          RODOBENS ADM E COR DE SEGS LTD260820162908201629082016V         Novo (previa)         TRANSPORTES LOPES E BORGES LTDAMGN0038     9BSG4X200A3650488             GOIANIA7447358500000100204056   39,00SP
0860746948000112000900030698920000631                UNAI ADM COR DE SEG LTDA290820162908201629082016V         Novo (previa)                 ESDROM ANTONIO DE FARIAJKK8252     93xjnkb8tdcd72295                UNAI3861000000000100452149   39,00MG
0860746948000112000500028805150000835          MAXION CORRETORA DE SEGUROS LT260820162908201629082016V         Novo (previa)                 RICARDO ANTONIO DE LIMAPQM9365     9BD19716TG3272523             GOIANIA7443036000000100374296   39,00SP
0860746948000112000500028807690000835           KCL CORRETORA DE SEGUROS LTDA260820162908201629082016V         Novo (previa)           JOSE ROBERTO PEREIRA DA SILVAOMM9449     8afar22f3ej138598             GOIANIA7428033000000100623814   39,00SP
0860746948000112000900028950530000002          SIMAAES E LIMA CORR DE S290820162908201629082016V         Novo (previa)                   JOAO GERALDO DA SILVANLO5903     9BD27833M97153835          UBERLANDIA3840824400000100639478   39,00MG
0860746948000112000500028807720000835             X COR ADM CORR DE SEGS LTDA260820162908201629082016V         Novo (previa)                    SORAYA ARJUNA GUERRAONH3119     94dvdud40ej257471             GOIANIA7423003500000100460761   39,00SP
0860746948000112000300028482340000836          ADMINSEG ADM E COR DE SEG LTDA260820162908201629082016V         Novo (previa)                 MARCOS BARBOSA DE SOUZAJHX7109     8AP17206LB2159061             FORMOSA7381361000000100576476   39,00SP
0860746948000112000900029604870000002          MATTOS E CARVALHO COR DE SEGS 290820162908201629082016V         Novo (previa)                     JORGE CORREIA PERESONT3491     9BD578241E7771699       IRAI DE MINAS3851000000001020212348   39,00MG
0860746948000112000500028807680000835          SANTA IZABEL ADM COR SEGS LTDA260820162908201629082016V             Renovacao        CLAUDIA SANTOS DA SILVA COUTINHOPRR0440     salca2bg4fh535898             GOIANIA7482006500000100137413   39,00SP
0860746948000112000900000919020000002          PALMEIRAS ADM E COR DE SEGS LT260820162908201629082016V         Novo (previa)          GERALDO MAGELA BRASIL DE SOUZAPVA3377     WV1DB42H3EA044572SANTO ANTONIO DO MON3556000000000100271128   39,00MG
0860746948000112000900001003880000625          AGIL ADM E CORR SGRS PREST LTD290820162908201629082016V         Novo (previa)                MARCOS CLEMENTE DA SILVAFHW6497     93W244F24D2111213 CARMOPOLIS DE MINAS3553400000000100118796   39,00MG
0860746948000112000900029999060000624          BONSUCESSO CORR DE SEGUROS LTD270820162908201629082016V         Novo (previa)                     ENZO BRUNO LAZARININXZ6893     9BWMF07X4DP000394  RIBEIRAO DAS NEVES3385835000000100147303   39,00MG
0860746948000112000500028807110000845          VERACRUZ ADM COR DE SEGS LTDA 270820162908201629082016V         Novo (previa)            ANA PAULA TEODORO DE REZENDEPQL3984     9BHBH41DBFP455060            ANAPOLIS7511335000000100625124   39,00SP
0860746948000112000900001003890000625          AGIL ADM E CORR SGRS PREST LTD260820162908201629082016V         Novo (previa)        SAU HENRIQUE AUGUSTO DE OLIVEIRAMPZ2994     9BSR4X2A043551975 CARMOPOLIS DE MINAS3553400000000100118796   39,00MG
0860746948000112000900029999070000624          BONSUCESSO CORR DE SEGUROS LTD270820162908201629082016V         Novo (previa)                     ENZO BRUNO LAZARINIHKJ5947     9BWMF07X59P022895  RIBEIRAO DAS NEVES3385835000000100147303   39,00MG
0860746948000112000500028807670000845          JANHAUSE CORR SEGS DE VIDA LTD260820162908201629082016V         Novo (previa)                RAFAEL QUEIROZ DE MORAISPRF1960     8afar23l5fj307719             GOIANIA7482334000001020226683   39,00SP
0860746948000112000500028807120000835                  LIDER COR DE SEGS LTDA260820162908201629082016V         Novo (previa)            EUNICE FRANCISCA ALEXANDRINONKH0011     9BGSU19F0CB142812            ANAPOLIS7507512000000100145149   39,00SP
0860746948000112000900029605360000002          AVISA CORRETORA DE SEGUROS LTD290820162908201629082016V             Renovacao                JOANA DEOTILDES DA SILVAOPE8473     3VWDJ216XDM038686      PATOS DE MINAS3870102400000100695327   39,00MG
0860746948000112000500028807130000835                  LIDER COR DE SEGS LTDA290820162908201629082016V          Substituicao                    HELIANA ROSA CARDOSOQKG2016     3GNCJ8EW4FL203532            ANAPOLIS7511364500000100145149   39,00SP
0860746948000112000500028806250000844           PCI CORRETORA DE SEGUROS LTDA270820162908201629082016V         Novo (previa)                       GRANJA VITTA LTDAPQV4802     95PGA19FPCB001971APARECIDA DE GOIANIA7491239000000100682888   39,00SP
0860746948000112000900030505710000588           BRADESCOR COR DE SEGUROS LTDA270820162908201629082016V          Substituicao               CRISTIANO DA SILVA SOARESODP0330     9BHBG51CADP068407            MANHUACU3690000000000100058777   39,00MG
0860746948000112000500028807140000835          POOLCOR COR.E ADM.DE SEGS.LTDA260820162908201629082016V         Novo (previa)        THADEU AUGUSTO ASSUMPCAO MARMORIKVP6962     9BWAB49N5CP009167            ANAPOLIS7508344000000100362701   39,00SP
0860746948000112000500028806750000835            PROTEGE CORR DE SEGUROS LTDA260820162908201629082016V         Novo (previa)                    MANOEL CUSTODIO NETOPQJ6894     9BGKT48R0FG401639     CORREGO DO OURO7614500000000100161721   39,00SP
0860746948000112000500028817100000940          SEGURALTA OESTE COR DE SEGS LT260820162908201629082016V         Novo (previa)          NO2 COMERCIO DE ROUPAS LTDA MENWO6970     9BFHF21C9BB080093             CATALAO7570103000000100361011   39,00SP
0860746948000112000500028806220000643          SOUTHALLIANCE & RISK SOLUTION 260820162908201629082016V             Renovacao           TRANSPORTES IMPERADOR LTDA MEOMP1542     95PJU81DBFB006348             GOIANIA7481033000000100580040   39,00SP
0860746948000112000500028808530000844          ARCAMP CORRETORA DE SEGUROS LT260820162908201629082016V         Novo (previa)               GUILHERME VIEIRA MENDONCANCW1326     93hge6850bz119345             GOIANIA7463311000000100544736   39,00SP
0860746948000112000500028814360000835          AMORIM E CARVALHO COR DE SEGS 260820162908201629082016V         Novo (previa)              WELLNA FREITAS DE SIQUEIRANFV3540     9BWKB05Z064173454APARECIDA DE GOIANIA7498213000001020280629   39,00SP
0860746948000112000200029226020000846          JUARA CORRETORA SEGUROS LTDA E290820162908201629082016V         Novo (previa)            MARCIA ROSANA JUNKLAUS FERROQBO7800     9BRB29BT6G2088011               JUARA7857500000000100720470   39,00MT
0860746948000112000500028814370000835          RODRIGUES FERNANDES ADM COR SE260820162908201629082016V          Substituicao                 CELSO CEZARIO RODRIGUESNKS4575     9BWAB05Z094081485APARECIDA DE GOIANIA7498340000000100452904   39,00SP
0860746948000112000900029605390000002          SIMA?ES E LIMA CORR DE SEGS LT290820162908201629082016V                Outros                ELIAS GERALDO DE QUEIROZHFO0774     9BG138SP0BC466272      PATOS DE MINAS3870311000000100639478   39,00MG
0860746948000112000200028050280000159          BRANARA CORR E ADM DE SEGUROS 270820162908201629082016P         Novo (previa)                  CONCRETO VALE DA SERRANPJ5365     9533782T0AR016089              Cuiaba7830000000000100652989   30,00MT
0860746948000112000500028817110000940          SEGURALTA OESTE COR DE SEGS LT270820162908201629082016V          Substituicao                   G3 PNEUS E RODAS LTDANKV0550     8AJFZ29G986055467             CATALAO7571258000000100361011   39,00SP
0860746948000112000500028805710000835          QUINELLI COMELLI COR DE SEG LT260820162908201629082016V          Substituicao                  ELIANA DE FATIMA BRUNONMA9333     9BWAA05W4AP093408         MAURILANDIA7593000000001020277326   39,00SP
0860746948000112000500028817120000940          SEGURALTA OESTE COR DE SEGS LT270820162908201629082016V          Substituicao                       NEIER CARPEGGIANINXY7273     knaku811bcj252158             CATALAO7571078700000100361011   39,00SP
0860746948000112000500028805700000844          ESSEG CORRETORA DE SEGUROS LTD260820162908201629082016V         Novo (previa)            MARCO AURELIO MARIN SALVADEOHIV4567     9BG148EP0EC463892SANTA HELENA DE GOIA7592000000000400002020   39,00SP
0860746948000112000200027387210000837          STRELA SIGMA ADM E CORRET SEG 290820162908201629082016V         Novo (previa)                     CESAR PEREIRA ALVESOBS8264     9BD27844PD7675842              Cuiaba        00000100581291   39,00MT
0860746948000112000200029266710000642          TRANSAMERICA COR.E ADM.DE SEGS290820162908201629082016V         Novo (previa)            PEDRO DA PAZ ROSA DE CAMARGOFKN4776     2FMDK3JC1DBB66954        RONDONOPOLIS7885000000000100271489   39,00MT
0860746948000112000500028805690000835          ESSEG CORRETORA DE SEGUROS LTD260820162908201629082016V         Novo (previa)                   DAMIAO LUCAS DA COSTAFHQ4309     9BWAA45U2EP124876SANTA HELENA DE GOIA7592000000000400002038   39,00SP
0860746948000112000500028808030000835          AGRISEG BRASIL COR DE SEGS LTD270820162908201629082016V          Substituicao            EDSON FERREIRA DE FREITAS MEPQB9313     9BWAA45U8FT105676                CACU7581300000000400012106   39,00SP
0860746948000112000500028800820000844          VENSER CORRETORA DE SEGUROS LT260820162908201629082016V         Novo (previa)                     PAULO JOSE DE FARIAGUW3385     9bg138ac04c412123           ITUMBIARA7553030000001020069120   39,00SP
0860746948000112000900000889510000609          AGAPE ADM E CORR DE SEGUROS LT260820162908201629082016V         Novo (previa)              ANA PAULA TEIXEIRA BARBOSAPVV1566     8AJFY29G3F8581095       MONTES CLAROS3940180100001020122381   39,00MG
0860746948000112000500028807620000835          VENTURA HAIKAR COR DE SEGS LTD260820162708201628082016V         Novo (previa)                   VENTURA VEICULOS LTDAONF7948     9bg148la0fc408512             GOIANIA7423003000000100645087   39,00SP
0860746948000112000500028807650000835          JUSCOR CORRETORA DE SEGUROS LT260820162708201628082016V         Novo (previa)     IMEG INSTITUTO DE MEDICINA DE GOIASOMN4850     9BGPB68M0DB264204             GOIANIA7412002000000100520373   39,00SP
0860746948000112000900030505700000629          ADILIO TEIXEIRA ADM COR SEG LT270820162708201628082016V         Novo (previa)            ILDEBRANDO GOMES DE OLIVEIRAOXH2167     9BWKB45U4FP015984            MANHUACU3690000000000100215813   39,00MG
0860746948000112000900030542040000002          R B ADM E CORRETORA SEGUROS LT270820162708201628082016V             Renovacao                        ATUAL FRIOS LTDAETU8608     9A93STZZZCBEA3613        POUSO ALEGRE3755000000000100157554   39,00MG
0860746948000112000900029623980000625          AGIL ADM E CORR SGRS PREST LTD270820162708201628082016V          Substituicao               LUCAS MENEZES SILVESTRINIPUB9350     WBA1A3100EJ681969            OLIVEIRA3554000000000100118796   39,00MG
0860746948000112000900029594570000628          ALVES E GARCIA ADM COR SEGS LT260820162708201628082016V         Novo (previa)                 FERNANDO BRITO DE SOUSADBW9783     9bfff25l55b017806              FRUTAL3820000000000100440728   39,00MG
0860746948000112000900029594550000628          FRUTALSEG COR E ADM DE SEGS LT270820162708201628082016V         Novo (previa)                 MARIO LUCIO DE OLIVEIRAKAK0667     9bwaa01j824030955              FRUTAL3820000000000100436798   39,00MG
0860746948000112000900029946770000558           BRADESCOR COR DE SEGUROS LTDA260820162708201628082016V         Novo (previa)              ESTEVAO ANDRADE DE FREITASOPX0423     KMHTC61CBDU115527           ITANHANDU3746400000000100058777   39,00MG
0860746948000112000900029594540000933          TOTAL SANTOS CORRETORA DE SEGU260820162708201628082016V         Novo (previa)                       HONORIO GUARDIANOOQY9742     9bwaa05u3ep089838              FRUTAL3820000000000100591459   39,00MG
0860746948000112000900028950430000002          RIMA CORRETORA DE SEGS SC LTDA260820162608201627082016V          Substituicao                         IBM TRANSPORTESHFB9991     93XJRKB8TDCC53848         UMBERLANDIA3840514200000100178136   39,00MG
0860746948000112000300029710380000845          CPIOTO CORRETORA DE SEGUROS LT250820162608201627082016V         Novo (previa)         CLAUDINEI DA SILVEIRA MACHADO 6HKM1904     9BD15844AA6264762          CRISTALINA7385000000000100496804   39,00SP
0860746948000112000500028805590000845             ALO BRASIL COR DE SEGS LTDA250820162608201627082016V         Novo (previa)                              JACOB SAUDPQT9896     9BD57814UGB053089        PIRES DO RIO7520000000000100446424   39,00SP
0860746948000112000900029585870000002          UAI BRASIL CONSULT E COR DE SE260820162608201627082016V          Substituicao                 ANDERSON TEODORO ARAUJOOWU8370     9BD578377E7773873               PRATA3814000000000100264911   39,00MG
0860746948000112000100031033010000642          IMPORT SEGUROS ADM.E COR.DE SE250820162608201627082016V         Novo (previa)            PIZOLATO CONST E INCORP LTDAOQH7483     3FA6P0K94DR300217      PATOS DE MINAS3850000000000100186945   39,00SP
0860746948000112000900030525040000610          OURO MINAS GS ADM COR SEGS LTD250820162608201627082016V         Novo (previa)           ELAINE SALLES DE RIBEIRO MELOPUI0275     9BGJB69X0EB269357      SENADOR AMARAL3761500000001020099495   39,00MG
0860746948000112000100030695580000611          PEIRO & GARCIA CORR DE SEGS LT260820162708201627082016V         Novo (previa)                EDILAMAR MENDES FERREIRAPUN4652     3N1CN7AD0EK467222             FORMOSO3869000000000100681229   39,00SP
0860746948000112000200027116850000846              UNIVERSAL COR DE SEGS LTDA260820162708201627082016V          Substituicao              ESTERLINA MIRANDA LOUREIRONJP0969     9BD11055691500590       ROSARIO OESTE7847000000000100206806   39,00MT
0860746948000112000500028807080000835          FLEXCORCARD CORR DE SEGS LTDA 260820162708201627082016V             Renovacao             GISLENE DE CASSIA RODRIGUESNVP3530     8AJFZ22G2B5014525             GOIANIA7455544000001020078200   39,00SP
0860746948000112000500028812260000835          SANTA IZABEL ADM COR SEGS LTDA250820162708201627082016V         Novo (previa)                    FLAVIO DE JESUS ROSANVW9016     8AJFZ29G5B6118149APARECIDA DE GOIANIA7490536000000100137413   39,00SP
0860746948000112000900029608720000626          OSM CORRETORA DE SEGUROS LTDA-260820162708201627082016V         Novo (previa)                  ANGELO SILVA GONCALVESOVA1967     8AFAR23L7EJ198579          CATAGUASES3677403400000100707520   39,00MG
0860746948000112000200029236140000969          BIDU CORR DE SEGS E SERV DE IN260820162708201627082016V         Novo (previa)                  RAFAEL CAMPOS DA SILVAFAE5040     9BRBD48E9D2567864        RONDONOPOLIS7941500000000100227943   39,00MT
0860746948000112000200027116870000203          TARRAF ADM E COR DE SEGS S/C L270820162708201627082016V         Novo (previa)SERV TRANSPORTADORA E SERVICOS EIRELLI MNUC1564     9BSR6X400G3892402          DIAMANTINO7840000000000100252450   39,00MT
0860746948000112000800001108330000002          SENECA CORRETORA DE SEGUROS LT260820162708201627082016V         Novo (previa)            DOELER DIST DE VEICULOS LTDAAZY3367     93Y9SR546GJ912986            DOURADOS7984100000001020096984   39,00MS
0860746948000112000500028811300000835          CARMO & ALMEIDA CORR DE SEGURO250820162408201626082016V         Novo (previa)          CLEIDIOMAR RODRIGUES DEZIDERIONKD4308     9BG138HF0AC447538            ANAPOLIS7512316000001020210353   39,00SP
0860746948000112000500028800720000835            MOYA CORR DE SEGUROS LTDA ME200820162008201626082016V          Substituicao             JUNIOR CESAR NAVES DE MOURAPQY3695     8AJHA8CD5G2580078SANTO ANTONIO DA BAR7593500000001020311451   39,00SP
0860746948000112000500028806090000835          STOP CORRETORA DE SGRS LTDA ME200820162208201626082016V          Substituicao               LIVIA DE OLIVEIRA RESENDEONE7170     8AJFY29G5D8528508             GOIANIA7415011000000100100960   39,00SP
0860746948000112000200029294140000846          BIRK CORRETORA DE SEGS LTDA -M230820162308201626082016V         Novo (previa)              RAIFRAN SARAIVA DOS SANTOSFKE2067     9BRBDWHE4F0257129       ALTA FLORESTA7858000000000100685674   39,00MT
0860746948000112000900030515100000624             COSTAMAR ADM CORR SEGS LTDA230820162508201626082016V         Novo (previa)                VERTLINE ELEVADORES LTDAOLR7297     9BWKB05U5CP192774               BETIM3268933800000100068187   39,00MG
0860746948000112000500028805540000835          OUROECOELHO CORR ADM SEGS CON 240820162508201626082016V         Novo (previa)                   RENATO DO CARMO SILVANKX1246     9BWAA05U5AT119634             PARAUNA7598000000001020045000   39,00SP
0860746948000112000900030516850000624          BRASILFLEX ADM E COR DE SEGS L240820162508201626082016V         Novo (previa)                     HAROLDO ZAULI FILHOHKO7400     9BGXL80P09C186891      BELO HORIZONTE3113050000000100516066   39,00MG
0860746948000112000200028047850000837          AA GONCALVES CORR E ADM DE SEG240820162508201626082016V         Novo (previa)        ANTONIA EVANDA DE QUEIROZ MORAESOBN0887     9BG148EP0DC456859              CUIABA7805560800001020042795   39,00MT
0860746948000112000900011057570000609          ISSACAR ADM E CORR DE SEGS LTD240820162508201626082016V         Novo (previa)                  SELMA APARECIDA DANTASPVV6209     9BFZH55J4F8134573GOVERNADOR VALADARES3502059000000100433390   39,00MG
0860746948000112000900027120810000611               STIVA COR DE SEGS LTDA ME250820162508201626082016V             RenovacaoZAMPIERI ROCHA MATERIAIS DE CONSTRUCAO LHKE4142     9BM6881589B659145             UBERABA3804508000000100715921   39,00MG
0860746948000112000200028010630000835          ADM CORR SEGS S JUDAS TADEU LT250820162508201626082016V             Renovacao               SONIA VIEIRA GARCIA SILVAOBD7444     8AJDY22G6E7004924    NOVA MONTE VERDE7859300000000100201235   39,00MT
0860746948000112000200028047920000231          CONTROLLER ADMC.E CORG.SEGS.LT240820162508201626082016V         Novo (previa)                   ELTON JONATHAN ERTHALQBA0544     8AJYY59G7E6520370              CUIABA7806500000000100101966   39,00MT
0860746948000112000200028047930000837             CUIABA CORR DE SEGUROS LTDA240820162508201626082016V          Substituicao ANNA CAROLINA DECOR ORG DE EVENTOS LTDAAVI0001     93XFNKA5THCG21678              CUIABA7804818000001020166788   39,00MT
0860746948000112000200029266510000846              UNIVERSAL COR DE SEGS LTDA250820162508201626082016V          Substituicao           SUPERCENTER SUPERMERCADO LTDAOBG4898     9BD255049D8971108        RONDONOPOLIS7870013000000100206806   39,00MT
0860746948000112000200029286120000837           PRECISA CORR DE SEGS LTDA EPP250820162508201626082016V         Novo (previa)              BRUNA BRENTANO DE OLIVEIRAOAZ4588     KMHDH41EBDU451143              Cuiaba        00000100558362   39,00MT
0860746948000112000200028056480000646          FLORES DE ABREU CORRETORA DE S250820162508201626082016V          Substituicao                  NELSON REINOLDO KAEFEROBP8200     8AJFY29G8D8527210              Cuiaba        00001020148720   39,00MT
0860746948000112000800001127510000848          MATRIZ SEG CORRETORA DE SEGURO250820162508201626082016V         Novo (previa)       RAPHAEL FERNANDO MENEZES DE SOUSAEZW5991     9bwlb45uxcp156154            DOURADOS7981105000001020296401   39,00MS
0860746948000112000200028050190000159          TOMAZONI GOLD-ADM E COR DE SEG250820162508201626082016P         Novo (previa)                  DARGITE SBRUZZI PRIETOOBQ2771     9bwab45u6ft077941              Cuiaba7830000000000100453790   30,00MT
0860746948000112000800001116590000002          SENECA CORRETORA DE SEGUROS LT250820162508201626082016V         Novo (previa)            DOELER DIST DE VEICULOS LTDABAC5089     93Y4SRD64GJ213713            DOURADOS7984100000001020096984   39,00MS
0860746948000112000800001116570000002          SENECA CORRETORA DE SEGUROS LT250820162508201626082016V         Novo (previa)            DOELER DIST DE VEICULOS LTDABAE0488     93Y5SRD64GJ217057        CAMPO GRANDE7904106000001020096984   39,00MS
0860746948000112000800001116560000002          SENECA CORRETORA DE SEGUROS LT250820162508201626082016V         Novo (previa)            DOELER DIST DE VEICULOS LTDAAZY3292     93Y9SR546GJ912947        CAMPO GRANDE7904106000001020096984   39,00MS
0860746948000112000900030516830000624          PRIME SERVICE ADM E COR DE SEG240820162508201626082016V             Renovacao   MARIA ELIZABETH ANTUNES ROCHA ESPOLIOPUA1143     9bwlb45u4ep172904      BELO HORIZONTE3117019000000100632571   39,00MG
0860746948000112000900030514350000624              ELO ADM.CORR.SEGUROS LTDA.240820162508201626082016V             Renovacao            COLABORE ADM E SERVICOS LTDAPVY3101     3vwl96168em065737      BELO HORIZONTE3136505000000100069728   39,00MG
0860746948000112000900030512270000624             COSTAMAR ADM CORR SEGS LTDA250820162508201626082016V         Novo (previa)             ELEOMARA MEIRELES GONCALVESOQL4829     936clnfnwed021767      BELO HORIZONTE3027039000000100068187   39,00MG
0860746948000112000900029601230000609             RIANE ADM COR SEG VIDA LTDA250820162608201626082016V             Renovacao                ANTONIO CORREIA TEIXEIRAJSK7001     9bd19241ra3091596       JEQUITINHONHA3996000000000100689602   39,00MG
0860746948000112000900029601240000629          ALMENARA ADM E COR DE SEGS LTD250820162608201626082016V         Novo (previa)               MARILIA DAMSCENA OLIVEIRAPXL5356     9bd195a9mg0728700       JEQUITINHONHA3996000000000100436836   39,00MG
0860746948000112000200029254520000844              UNIVERSAL COR DE SEGS LTDA250820162608201626082016V         Novo (previa)             GLEICIMAR BATISTA GUIMARAESPQR6127     8AJZX62G2F5011379        CAMPINAPOLIS7863000000000100206806   39,00MT
0860746948000112000900028950370000558           BRADESCOR COR DE SEGUROS LTDA260820162608201626082016V         Novo (previa)                   CLENIO ALVES DE SOUZAONB3611     9BD27805MD7633834          UBERLANDIA3840519600000100058777   39,00MG
0860746948000112000900030531650000002          CALIXTO LOPES ASSES E COR DE S260820162608201626082016V         Novo (previa)              LUCIENE ARRUDA DE OLIVEIRAHIH6142     9BRBB48E0A5105418       SANTA VITORIA3832000000000100423009   39,00MG
0860746948000112000200027360150000846          CAVASIN CORR DE SEGUROS LTDA E250820162608201626082016V             Renovacao              NELSON QUIRINO DE OLIVEIRAQBV0966     988611152GK015329              MATUPA7815000000001020149948   39,00MT
0860746948000112000900030516870000624          PRIME BUSINESS ADM COR SEGS LT250820162608201626082016V         Novo (previa)                    PEDRO ERIVAN BEZERRAPVQ0566     9brbdwhe1f0256245      BELO HORIZONTE3155520000001020108958   39,00MG
0860746948000112000200029200140000837          TOPSEGURO CORR DE SEGUROS LTDA250820162608201626082016V             Renovacao                   EDNA BARBOSA DE SOUZAQBI5397     9BD578341F7852384       VARZEA GRANDE7811580000001020046642   39,00MT
0860746948000112000900030515210000624           SOUZA PINTO ADMC E CORRETAGEM250820162608201626082016V         Novo (previa)              WELISON CORREA DE OLIVEIRAHJJ0374     9bd17106095290231               BETIM3267803600000100605492   39,00MG
0860746948000112000200029200150000837          OTIMIS COR E ADM DE SEGS E CON250820162608201626082016V          Substituicao                    MARIA SODRE DE SOUZAAAA1111     9BG148LK0HC416640              CUIABA7806063400000100586285   39,00MT
0860746948000112000200029200210000251          VOLVO COR.DE SEGS.ADM.E SERV.L250820162608201626082016V         Novo (previa)       RONSY COMERCIAL DE FERRAGENS LTDAAYJ1736     9BVAG20C2EE818142              CUIABA7809946100000100410098   39,00MT
0860746948000112000200028050180000159          BRANARA CORR E ADM DE SEGUROS 260820162608201626082016P         Novo (previa)           JOSE ANIBAL ILARIO DOS SANTOSQBH3797     9bg148lp0ec453357              Cuiaba7830000000000100652989   30,00MT
0860746948000112000200028047970000639          GOIS E WIENCI COR.DE SEGS.LTDA260820162608201626082016V         Novo (previa)                   NELSON IVONIR PEDROZOMIF8890     9BSG6X40083626035              CUIABA7807010000000100530395   39,00MT
0860746948000112000300028480950000836          ANTONIO CESAR - ADM E COR DE S250820162608201626082016V         Novo (previa)             MITRA DIOCESANA DE LUZIANIAOMT2221     9BWDA45U9FT039961    CIDADE OCIDENTAL7288053400000100454141   39,00SP
0860746948000112000200029209520000837          MUNDIAL PRIME CORR DE SEG LTDA250820162608201626082016V         Novo (previa)                RICARDO DA SILVA PEREIRAQBL2903     8AJBA3CD6G1568410              CUIABA7805026900001020170858   39,00MT
0860746948000112000200029253230000846          AGROSEG - ADM.COR.DE SEGS.E CO240820162608201626082016V         Novo (previa)            EDCARLOS OLIVEIRA DOS SANTOSOBS5898     9BWAB45U5ET009919      GLORIA D OESTE7829300000000100451975   39,00MT
0860746948000112000900011033770000607          CIRCUITO DOS LAGOS COR DE SEG 250820162608201626082016V         Novo (previa)             SONIA MARILZA CARDOSO ISOLADZW7784     9BWAE41J4A4002984          CAMPO BELO3727000000000100424421   39,00MG
0860746948000112000500028791790000835          BANCORSERG CORR. ADM. SEG. LTD230820162608201626082016V         Novo (previa)                WAINER DA SILVA CARNEIROONB1677     8afar23j8dj083857          CORUMBAIBA7568000000000100371831   39,00SP
0860746948000112000900030531660000002          MONTECLA ADMINISTRADORA E COR.260820162608201626082016V         Novo (previa)                   ALEXES DUARTE RIBEIROHLW9166     9BD27844PC7501351           ITUIUTABA3830200000000100649104   39,00MG
0860746948000112000900027120820000611             FAVORE COR. DE SEGUROS LTDA260820162608201626082016V         Novo (previa)            CLEBER MAURICIO AFONSO MOTAOMXF3609     3HGRM2870CG502031             UBERABA3806152000001020092180   39,00MG
0860746948000112000900027120830000650          MADALOZZO CORRETORA SEGUROS LT260820162608201626082016V             Renovacao             DIMBARRE LOGISTICA LTDA EPPEVO4258     9BSR6X200D3824248             UBERABA3804012000000100143847   39,00MG
0860746948000112000500028807630000844          VENSER CORRETORA DE SEGUROS LT250820162608201626082016V         Novo (previa)                     DELIO ALVES PEREIRAONH1609     9bgpn68m0eb276994             GOIANIA7416001000001020069120   39,00SP
0860746948000112000900030514360000624          PRIME SERVICE ADM E COR DE SEG250820162608201626082016V             Renovacao                JAQUELINE GRISSI CARDOSOHNE1299     9BD17164LA5623565      BELO HORIZONTE3117007000000100632571   39,00MG
0860746948000112000500028799880000835          ASTEROIDE COR DE SEGS LTDA -ME250820162608201626082016V         Novo (previa)          NEUSA VITORIA SIQUEIRA MARTINSJIL7199     YV1DZ475BB2210650             GOIANIA7468022000001020283806   39,00SP
0860746948000112000300028480940000836          ANTONIO CESAR - ADM E COR DE S260820162608201626082016V         Novo (previa)             MITRA DIOCESANA DE LUZIANIANJZ3763     9BWAB05W89T015679    CIDADE OCIDENTAL7288053400000100454141   39,00SP
0860746948000112000500028805640000835             POPULAR COR. ADM.SEGS.LTDA.250820162608201626082016V             Renovacao                    LUIZ ANTONIO CARDOSOOML9444     9BD578241F7853613        PIRES DO RIO7520000000000100458571   39,00SP
0860746948000112000500028807660000835          MAIS VIDA CONS ADM COR SEG LTD250820162608201626082016V             Renovacao          FLAVIA CRISTINA GOMES DE SOUSAONS0860     8AFAR21NXEJ146707  PALMEIRAS DE GOIAS7619000000000100440230   39,00SP
0860746948000112000500028769870000835          TERRA SANTA CORR. E ADM. DE SE250820162608201626082016V         Novo (previa)               SOLEIR DE OLIVEIRA SANTOSONM4149     9BHBH41DBEP289746               GUAPO7535000000000100594024   39,00SP
0860746948000112000500028813880000940          SEGURALTA OESTE COR DE SEGS LT260820162608201626082016V         Novo (previa)                GINA HELENA DA CONCEICAOPAP5858     salca2be0gh561723             GOIANIA7423005000000100361011   39,00SP
0860746948000112000300028480850000836          REAL CERBINO CORR E ADM DE SEG260820162608201626082016V         Novo (previa)          ADRIANA APARECIDA AGUIAR PINTOJIR6043     9BWAB09N3BP021115 VALPARAISO DE GOIAS7287658500001020234520   39,00SP
0860746948000112000900011058260000625          PEDRA NEGRA COR.DE SEGUROS LTD250820162608201626082016V         Novo (previa)HAENDEL GONCALVES NOGUEIRA OLIVEIRA BUSAPAB1605     8AJZX62GXE5006915              ITAUNA3568025600000100448575   39,00MG
0860746948000112000500028805630000835             POPULAR COR. ADM.SEGS.LTDA.250820162608201626082016V             Renovacao               AUGUSTINHO GONCALVES MOTANLU8510     8AJYZ59G583028164        PIRES DO RIO7520000000000100458571   39,00SP
0860746948000112000500028769840000852          GALVAO SOEIRO ADM.E COR.DE SEG250820162608201626082016V         Novo (previa)    MARISLENE FERNANDES DA SILVA MARQUESILQ5234     9BM6930283B360129               ARACU7541000000000100591301   39,00SP
0860746948000112000900028950450000002          UDIARA CORRETORA DE SEGUROS LT260820162608201626082016V         Novo (previa)                 JOSE EUSTAQUIO SILVERIOHLU4475     9BGRJ6940AG175142          UBERLANDIA3840532100000100640115   39,00MG
0860746948000112000500028813870000835            LIFE MOTORS ADMR E CORRETORA250820162608201626082016V         Novo (previa)                    CELSO FARIA DE SOUSAPQI5635     9bgks48g0fg439716             GOIANIA7423004200000100625221   39,00SP
0860746948000112000200028045040000558           BRADESCOR COR DE SEGUROS LTDA260820162608201626082016P         Novo (previa)          MARIA LIDIA SARATE DE MENDONCANPM7654     8AJFZ29G9B6138971              Cuiaba7826000000000100058777   30,00MT
0860746948000112000500028769830000852          GALVAO SOEIRO ADM.E COR.DE SEG250820162608201626082016V         Novo (previa)    MARISLENE FERNANDES DA SILVA MARQUESBTO3447     9BWZR82U74R416677               ARACU7541000000000100591301   39,00SP
0860746948000112000500028805620000002            AMIL ADM E CORR DE SEGS LTDA250820162608201626082016V         Novo (previa)           MARIA ANJOS DE OLIVEIRA COSTANFL0651     9BD27807C52448057        PIRES DO RIO7520000000000100241164   39,00SP
0860746948000112000500028806710000835          ROMA CORRETORA DE SEGUROS LTDA250820162608201626082016V          Substituicao              MARCO AURELIO SOUZA AMORIMPQM7351     9BRK19BT2G2067787            ANAPOLIS7511075000000100124982   39,00SP
0860746948000112000500028806680000835          CONQUISTANDO SPACO CORRETORA D250820162608201626082016V         Novo (previa)                THIAGO DOS SANTOS VILELAJIJ5957     9BGAJ48C0AB278784            ANAPOLIS7504504000000100611573   39,00SP
0860746948000112000500028793040000835          ASA ADM COR SEGS ARAGUAIA LTDA260820162608201626082016V          Substituicao                 JOSE APARECIDO DA SILVAOMW0101     8AFVZZFHCFJ249822             CATALAO7570239000000100220256   39,00SP
0860746948000112000500028805600000835           KCL CORRETORA DE SEGUROS LTDA250820162608201626082016V         Novo (previa)              FRANCISCO ROBERTO TOMAZINIOVV2900     SALLAAAG6EA711359        PIRES DO RIO7520000000000100623814   39,00SP
0860746948000112000500028806720000835          SEGUROS BR CORRET. DE SEGS LTD250820162608201626082016V         Novo (previa)                   HELIO CANDIDO SERAFIMNWI0369     8BCLDRFJZBG541045            ANAPOLIS7504310000001020171064   39,00SP
0860746948000112000500028805610000835          GRAND ESPECIALE CONSULT E CORR250820162608201626082016V          Substituicao                 LUCIANO CAMBREA GOUVEIAPQL3174     9BGKR48G0FG473404        PIRES DO RIO7520000000001020202067   39,00SP
0860746948000112000500028769850000845          MAXION CORRETORA DE SEGUROS LT240820162608201626082016V          Substituicao                 WEDERSON DE JESUS COSTAKEW9190     9BG138FC03C404259             ANICUNS7617000000000100374296   39,00SP
0860746948000112000200028050210000159          ADM E COR DE SEGS SALTO DAS NU260820162608201626082016P         Novo (previa)                         TRAUDI HOFFMANNNJM8843     9BWAA05Z9A4102194              Cuiaba7830000000000100554260   30,00MT
0860746948000112000500028805580000835             SUL GOIANA COR.DE SEGS.LTDA250820162608201626082016V         Novo (previa)                VINICIOS DE PAULA VILELAONI1491     8AJFX29G1E6605150           MORRINHOS7565000000000100153435   39,00SP
0860746948000112000200029297060000558           BRADESCOR COR DE SEGUROS LTDA260820162608201626082016P         Novo (previa)                          FERNANDO GOMESQBJ5805     9BWAB45U2FT075717              Cuiaba7850000000000100058777   30,00MT
0860746948000112000200029222040000846          FAVIPE CORRETORA DE SEGS DE VD250820162608201626082016V             Renovacao         MARCO ANTONIO GARGIULO MARTINEZMIX0175     9BG138KJ0BC471471SAO JOSE DO RIO CLAR7843500000001020092717   39,00MT
0860746948000112000300028480990000836            CONASA ADM CORR SEGUROS LTDA240820162408201625082016V         Novo (previa)                HEVERDAN DE ASSIS XAVIEROGO9176     9BD373165C5005266          CRISTALINA7385000000000100406392   39,00SP
0860746948000112000100030695010000631              ACORDO COR DE SEGUROS LTDA230820162408201625082016V         Novo (previa)    MARIA TERESA OLIVEIRA MELO CAMBRONIOPAD1212     9BD19716TF3252048            PARACATU3860000000000100590673   39,00SP
0860746948000112000500028810910000835          KADYMA COR E ADMR DE SEGS LTDA230820162408201625082016V         Novo (previa)                   LAUREMAR JONAS RAINERONY8300     93yhsr6p5dj631630APARECIDA DE GOIANIA7498102000000100649210   39,00SP
0860746948000112000900011030030000625          AGIL ADM E CORR SGRS PREST LTD230820162408201625082016V         Novo (previa)TRANSPORTE E COMERCIO PADRE LIBERIO LTDAGSW3604     9BM69530468510102        BOM DESPACHO3560000000000100118796   39,00MG
0860746948000112000200029297050000837          CORRETORA DE SEGUROS SENEKI LT240820162408201625082016V         Novo (previa)            ANTENOR ALEXANDRE DE ALMEIDAQBC3034     8AJFY29G1F8584075              Cuiaba        00000100464775   39,00MT
0860746948000112000800001107400000002          PEREIRA E SOUZA COR DE SEGS LT240820162408201625082016V         Novo (previa)                 DALMACIA ALIMENTOS LTDANRN2637     9BWAA05U7CP011219             LADARIO7937000000000100715174   39,00MS
0860746948000112000800001127990000848          DOURAMATOS ADM E COR DE SEG LT240820162408201625082016V         Novo (previa)          FRANKLIN OTTO REITAMAN BATISTAOOP6359     9bfzd55j3fb802538            DOURADOS7982367000000100278459   39,00MS
0860746948000112000200029297040000846          PERSONAE TREIN CON ASS COR SEG240820162408201625082016V         Novo (previa)                      MAURO CLESIO LOPESNJK4621     9BFZF54P5B8158158             COLIDER7850000000000100471348   39,00MT
0860746948000112000800001113120000002          EF GONCALVES CORRET DE SEGS LT240820162408201625082016V         Novo (previa)                      EDER DE SOUZA JARAOOJ4837     9BD265122F9031319        CAMPO GRANDE        00001020215622   39,00MS
0860746948000112000200029236120000837          ANJO AZUL ADM.E COR.DE SEGS.LT240820162408201625082016V         Novo (previa)  SOMA TRANSP E COMERCIO DE CEREAIS LTDAJYU1805     9BW3782T87R718907        RONDONOPOLIS7871810400000100435155   39,00MT
0860746948000112000200028050170000159          TOMAZONI GOLD-ADM E COR DE SEG240820162408201625082016P         Novo (previa)                 SOLANGE FAVERO PATRICIOOBO0889     8AJFY29G4E8549819              Cuiaba7830000000000100453790   30,00MT
