0860746948000112000900000471650000609          CPIOTO CORRETORA DE SEGUROS LT180820161908201623082016V         Novo (previa)                  GLEBSON JOSE LEITE EPPHNS7055     953658245DR312242   SANTA FE DE MINAS3929500000000100496804   39,00MG
0860746948000112000900028950080000002          CARDOSO E CRUVINEL ADM E COR S220820162208201623082016V          Substituicao          JOSE DE ARIMATEIA VERAS AGUIARAAA1111     93XHYKH8WGCG21564          UBERLANDIA3841516500000100534161   39,00MG
0860746948000112000500028806070000835          RODRIGUES FERNANDES ADM COR SE200820162208201623082016V             Renovacao                   GLENDA MARIA DA SILVANGU8096     KMHJM81BP7U660638             GOIANIA74810-9000000100452904   39,00SP
0860746948000112000500028806080000835          REALCONFIANCA COR DE SEGS LTDA200820162208201623082016V             Renovacao         DARREN LEANDRO DE ASSIS SIMIEMAOGJ1820     93XJRKH8WCCB03200             GOIANIA7413001000000100654493   39,00SP
0860746948000112000900030512210000624          LOPES & ALVARENGA ADM.E COR.DE190820162208201623082016V         Novo (previa)                    ANTONIO ALVES VIEIRAGQA4785     9BD195163C0176594      BELO HORIZONTE3051602000000100454231   39,00MG
0860746948000112000900030500090000002          RACINI ADM E CORR DE SEGS LTDA220820162208201623082016V          Substituicao            ROSENICE DE FATIMA A PEREIRAEMQ8878     9BWDA05U8BT201663       BOA ESPERANCA3717000000000100474771   39,00MG
0860746948000112000900030512230000624             COSTAMAR ADM CORR SEGS LTDA190820162208201623082016V         Novo (previa)         CW COMUNICACAO E MARKETING LTDAPWM4600     WDDWF4CM5FR069230           NOVA LIMA3400000000000100068187   39,00MG
0860746948000112000200029259960000837            ADM CORR SEGS DO FUTURO LTDA220820162208201623082016V             Renovacao                 RAPHAEL DE GOIS DALEFFEQBY8955     9BRBLWHE5G0038815             JANGADA7849000000000100098337   39,00MT
0860746948000112000900030518990000607          CREDITSEG ADM E COR DE SEGS LT190820162308201623082016V         Novo (previa)             ARGENTINO DIONIZIO DA SILVAPVW9752     9BD19515ZP0690109               BETIM3260415500001020121474   39,00MG
0860746948000112000900030516780000624          PRADO SANTIAGO ADM. COR. SEGS.190820162308201623082016V          Substituicao             MARCO AURELIO CANDIDO ROCHAHNQ8844     KNAFU411AA5882600            CONTAGEM3214323000000100555193   39,00MG
0860746948000112000500028767900000835          MONTANNA CORRETORA DE SEG LTDA190820162308201623082016V         Novo (previa)           ARMANDO ALBERTO DE ASSIS NETOHLC8342     9BD27803A87055426             CATALAO7570904000000100692409   39,00SP
0860746948000112000500028767910000835               EDAN CORR DE SEGUROS LTDA190820162308201623082016V             Renovacao         INEZ DE OLIVEIRA MELO SOUZA LUZOMO0169     9BRBD3HE0F0212638             CATALAO7570922000000100514969   39,00SP
0860746948000112000500028800750000844          JULIANA CORRETORA DE SEGUROS D200820162308201623082016V         Novo (previa)                   THAYS DE LIMA E SILVANWE9964     9BWAB45Z1B4156403           ITUMBIARA7550338000001020333099   39,00SP
0860746948000112000900030532040000624            MULTISEG COR DE SEGUROS LTDA190820162308201623082016V         Novo (previa)                  BERNARDO FRANCA CHAGASHMQ7777     KMHSH81DDAU503431                IBIA3895000000000100109673   39,00MG
0860746948000112000500028806110000835             POPULAR COR. ADM.SEGS.LTDA.230820162308201623082016V         Novo (previa)             VALDER ALEXANDRE DE ANDRADEPQW6185     8afar23l2hj416724             GOIANIA7414015000000100458571   39,00SP
0860746948000112000500028806530000845          FREITAS SILVA CORR SEGS LTDA E200820162308201623082016V         Novo (previa)            FLAVIO CRISTIANO DE OLIVEIRAOMJ1968     9BGKT69L0FG188642             GOIANIA7437518000001020296681   39,00SP
0860746948000112000900030517560000609          CAMPOS MOURA ADM.E COR.DE SEGS200820162308201623082016V         Novo (previa)                     CARLA JULIANA ALVESHHG2816     9BWDB45U1CT139223         SETE LAGOAS3570207800000100280755   39,00MG
0860746948000112000500028813740000835                CONVIVA COR DE SEGS LTDA230820162308201623082016V         Novo (previa)       FLAVIO MAGALHAES CAMARGO PEDREIRAOND7489     9bgca80x0fb180770             GOIANIA7425013000000100541672   39,00SP
0860746948000112000500028806570000835          DINIZ & DINIZ  CORR DE SEGS LT230820162308201623082016V         Novo (previa)                IVANILDA SANTOS O VIEIRAOGS7220     93hfb2680cz205270            ANAPOLIS7504423000000100541761   39,00SP
0860746948000112000900029585790000002          FREITAS E VILELA CORR.SEGS PRA230820162308201623082016V         Novo (previa)                     LIDEON CAMPOS SILVAPVY2164     9BD195A42F0621629               PRATA3814000000000100684902   39,00MG
0860746948000112000500028806560000835          VERACRUZ ADM COR DE SEGS LTDA 220820162308201623082016V         Novo (previa)        JOAO BATISTA RODRIGUES DE MORAISNGM4279     9bg138kj08c406494            ANAPOLIS7512487800000100625124   39,00SP
0860746948000112000900029585810000002          FREITAS E VILELA CORR.SEGS PRA230820162308201623082016V             Renovacao            CLAUDIO ONESO COSTA DA SILVAPWN8834     9BD57834UGB028878               PRATA3814000000000100684902   39,00MG
0860746948000112000500028811240000844              RIOVERCOR COR DE SEGS LTDA220820162308201623082016V         Novo (previa)               PAULO PACELI PIVETA FILHOPQA0470     9bwlb45u2fp191582             INHUMAS7540000000000100100480   39,00SP
0860746948000112000900030516790000624             SELTSEG COR DE SEGUROS LTDA220820162308201623082016V         Novo (previa)                  MARCO ANTONIO CARNEIROOLY8454     9BD195193D0371599      BELO HORIZONTE3069005000000100386529   39,00MG
0860746948000112000400027576480000839          GUEDES OLIVEIRA ADM COR SEG SS230820162308201623082016V             Renovacao          JOAQUINA PEREIRA SANTOS MARCALQAB9800     94DVDUD40FJ882793         TRES LAGOAS7960301100000100513334   39,00SP
0860746948000112000500028802950000835          ESSEG CORRETORA DE SEGUROS LTD220820162308201623082016V         Novo (previa) RETIFICA DE MOTORES UBERLANDIA LTDA EPPKCC0849     9bfbtnm36rdb56561SANTA HELENA DE GOIA7592000000000400002038   39,00SP
0860746948000112000500028807010000844          MAXION CORRETORA DE SEGUROS LT220820162308201623082016V          Substituicao                ISRAEL A M DE ALMEIDA MEOGK1030     8AJYZ59G1C3058710             GOIANIA7459080000000100374296   39,00SP
0860746948000112000500028805070000835          NOVA POOLCOR COR ADM DE SEG LT220820162308201623082016V          Substituicao         KELLEN CRISTINA MACEDO DA SILVAONN2037     9BWDB45U1ET101672             GOIANIA7442503000001020098596   39,00SP
0860746948000112000500028802940000835          IPE ADM E  CORRET DE SEGUROS L230820162308201623082016V         Novo (previa)         MARCIA JERONYMA DE MORAIS LOPESONY2303     knapb817be7618487             PARAUNA7598000000001020122810   39,00SP
0860746948000112000500028817010000835          S & S CORRETORA DE SEGUROS LTD220820162308201623082016V         Novo (previa)               LAERCIO ONOFRE DOS SANTOSNWK9898     9BG138SJ0BC459227            MINEIROS7583000000000100138495   39,00SP
0860746948000112000300028482200000860          CAMPO FORMOSO COR DE SEG FINAN200820162308201623082016V         Novo (previa)               ERASMO PEREIRA DOS SANTOSPAN7208     9BWDB45U8GT057396AGUAS LINDAS DE GOIA7292030700000100573965   39,00SP
0860746948000112000500024664680000835          RIOS E AMORIM COR DE SEGS LTDA220820162308201623082016V          Substituicao                       JOSE ORLANDO NETONVR9219     8ajfz29gxb6138641             JARAGUA7633000000000100584533   39,00SP
0860746948000112000200028050150000159          BRANARA CORR E ADM DE SEGUROS 230820162308201623082016P     Parcela em atraso                    ANA CRISTINA CAMARGOPUM1815     9BD372171F4058041              Cuiaba7830000000000100652989   30,00MT
0860746948000112000500028767920000835          MARINHO CATALAO COR DE SEGS E 220820162308201623082016V         Novo (previa)                SERGIO FERREIRA DA SILVAMVT1088     9BG138AC01C432067             CATALAO7570925000000100648256   39,00SP
0860746948000112000500028813580000835          REALCONFIANCA COR DE SEGS LTDA220820162308201623082016V             Renovacao              JOAO BATISTA ROSA DA SILVAOOA1654     9BGJC69X0FB112887            MINEIROS7538000000000100654493   39,00SP
0860746948000112000900030505520000629          ALVES & DUTRA ADM E COR DE SEG160820162008201622082016V         Novo (previa)                   JOSE GERALDO DE SOUZAPUV5211     9BGPB68M0EB306237            MANHUACU3690000000000100720062   39,00MG
0860746948000112000200027121600000975           HPE CORRETORA DE SEGUROS LTDA200820162008201622082016V                Outros               EDER BERTOLDO BRASSOLATTIOBS7016     JMYSTCY4AEU000551    MIRASSOL D OESTE7828000000001020076053   39,00MT
0860746948000112000200028010020000837          SEMPRE INSURANCE TECNICA ADM C200820162008201622082016V             Renovacao      ITAMARA GUIMARAES ROSARIO PINHEIROOBM4957     93XJRKB8TDCC57050               JUINA7832000000000100578754   39,00MT
0860746948000112000900028950020000002          UAI BRASIL CONSULT E COR DE SE220820162208201622082016V         Novo (previa)                 FLAVIUS NAVARRO PACHECOOWV0412     8AFAR23L7EJ182981          UBERLANDIA3840008600000100264911   39,00MG
0860746948000112000500024686430000835          MAISGARRA ADM E COR DE SEGS LT190820162208201622082016V         Novo (previa)  WANNESSA DIVINA DUTRA DA SILVA FANTINIOMP8529     95PJU81DBFB013474           GOIANESIA7638000000000100529354   39,00SP
0860746948000112000500028803970000835          GODIVA CORRETORA DE SEGUROS LT190820162208201622082016V         Novo (previa)                     LUIZ CLAUDIO BORGESNLN7989     9BWAB01JXA4005745            ANAPOLIS7512568000000100553026   39,00SP
0860746948000112000900030500080000002          DENIO JOSE BUENO COR SEGS EIRE220820162208201622082016V         Novo (previa)                SIRLEY FRANCISCO MARQUESPWK7930     9BD17102ZG7551225               GUAPE3717700000001020236166   39,00MG
0860746948000112000300028483080000836          FABRICA FORTE COR ADM SEGS LTD200820162208201622082016V         Novo (previa)                  MARCIA MARTINS MOREIRAJIK8807     9BFZK53AXBB214865 VALPARAISO DE GOIAS7287631600000100588130   39,00SP
0860746948000112000900028950030000002          MACHADO E CASTRO ADM E COR SEG220820162208201622082016V         Novo (previa)                    REGIA NUNES NOGUEIRAEPO2400     WV1DB42H9B8001597          UBERLANDIA3840222400000100720194   39,00MG
0860746948000112000500028803980000835          ROMA CORRETORA DE SEGUROS LTDA190820162208201622082016V         Novo (previa)             WALDEMAR RODRIGUES DA SILVAJHQ7321     9BWAB45Z7B4144157            ANAPOLIS7514301700000100124982   39,00SP
0860746948000112000500028806040000836          VILLAR & VILLAR COR SEGS DE VD190820162208201622082016V         Novo (previa)               RODRIGO XAVIER DOS SANTOSJZZ5206     9BFZF16P458323384             GOIANIA7478117500000100695343   39,00SP
0860746948000112000500028802900000835          ESTRADA SEGURA COR DE SEGS LTD190820162208201622082016V         Novo (previa)                WILIAN FERREIRA DA SILVAJHC9447     9BR53ZEC488696481SAO LUIS DE MONTES B7610000000000100645486   39,00SP
0860746948000112000500028812910000835           ATC ADM E CORRETORA LTDA - ME190820162208201622082016V         Novo (previa)               EROIDES PONCIANO DA SILVAPQG9900     93HFB9640GZ209312             GOIANIA7430544000001020297840   39,00SP
0860746948000112000500028805040000841          MRFLSGB 10 CORRETORA SEGUROS L190820162208201622082016V          Substituicao              ELIZABETH MOREIRA DA SILVAPAH9819     988611122GK016967             GOIANIA7433309000000100667862   39,00SP
0860746948000112000500028814530000835                DINAMICA COR. SEGS LTDA.190820162208201622082016V         Novo (previa)             ALEXANDRE FLAUSINO DA SILVANVQ4876     8A1BB8V05AL507119             GOIANIA7480548000000100066516   39,00SP
0860746948000112000100033622390000866          VALDEMAR DA SILVA GONCALVES FI180820162208201622082016P         Novo (previa)                  RENAN LEANDRO DE ROSSIENA4154     KMHDC51EBAU209883            CAMPINAS1143250100000100178781   30,00SP
0860746948000112000900027750270000630          NIVIA & SILVA ADM COR SEGS VID180820162208201622082016V         Novo (previa)   ELIANE APARECIDA MARINHO MIGUEL GOMESPUH0024     KNAPB817BF7635319      JOAO MONLEVADE3593100300000100557331   39,00MG
0860746948000112000500028813550000835          VENTURA HAIKAR COR DE SEGS LTD180820162208201622082016V         Novo (previa)                  ROBSON SOARES DA SILVALRQ5980     9BD578377F7898271            MINEIROS7583000000000100645087   39,00SP
0860746948000112000200029226010000651           CORRETORA DE SEGUROS B M LTDA220820162208201622082016V             Renovacao           ENGEGRAN IND E MONTAGENS LTDAOBF5682     8AJYY59G5D6508894               JUARA7857500000000100146889   39,00MT
0860746948000112000500028810820000835          SACRED CORRETORA DE SEGUROS LT180820162208201622082016V         Novo (previa)                GIUSEPPE ALENCAR DE MELOKZW1709     9BR72ZEC268621351             GOIANIA7430501000001020062796   39,00SP
0860746948000112000500028814550000835          LOJACORR S A REDE DE COR DE SE220820162208201622082016V         Novo (previa)                MARIA INEZ BONTEMPO MELOOLL0431     936clyfyyeb057443             GOIANIA7482025000000100438502   39,00SP
0860746948000112000900029598290000626          HF-SIDE ADM.E COR.DE SEGS.LTDA180820162208201622082016V         Novo (previa)               GILDA MARIA OLIVEIRA REISOXA4962     9BWDB45U0ET182826      MATIAS BARBOSA3612000000000100370053   39,00MG
0860746948000112000900000471640000609          CPIOTO CORRETORA DE SEGUROS LT180820162208201622082016V         Novo (previa)                  GLEBSON JOSE LEITE EPPPWZ1407     9BG148FA0FC426421   SANTA FE DE MINAS3929500000000100496804   39,00MG
0860746948000112000200029204820000837                PENSKE CORR DE SEGS LTDA220820162208201622082016V             Renovacao        GIRO FORTE COM E REP E DIST LTDAOBS2493     93W245G34E2120581              CUIABA7802842000000100611506   39,00MT
0860746948000112000200029204830000837                PENSKE CORR DE SEGS LTDA220820162208201622082016V             Renovacao        GIRO FORTE COM E REP E DIST LTDANJU7296     93W245G34B2055953              CUIABA7802842000000100611506   39,00MT
0860746948000112000200029204840000837                PENSKE CORR DE SEGS LTDA220820162208201622082016V             Renovacao        GIRO FORTE COM E REP E DIST LTDAQBM2065     93ZC70C01F8465217              CUIABA7802842000000100611506   39,00MT
0860746948000112000200028018530000846          ACQUA VIVA ADM.E COR.DE SEGS.L200820162208201622082016V             Renovacao                  JOAQUIM MORAES CAJANGOQBP5506     9BRB29BT0G2086965         ALTO GARCAS7877000000000100582158   39,00MT
0860746948000112000500028813710000835           NOVA SPONDEO COR DE SEGS LTDA200820162208201622082016V         Novo (previa)   JOAQUIM ALVARES CARDOSO CAMPOS JUNIORPQM4390     93y9sr546gj296739             GOIANIA7422318000000100674907   39,00SP
0860746948000112000900027120720000918             CL GUARACI COR.DE SEGS.LTDA220820162208201622082016V         Novo (previa)NW MONTAGENS INDUSTRIAIS LOCACOES E TRANEJZ4762     9ADB0662DEM375585             UBERABA3806470000000100348295   39,00MG
0860746948000112000500028813700000835          PROTENCOR CONS.E CORRETAGEM DE200820162208201622082016V         Novo (previa)       WANDA RODRIGUES DA SILVA MARCILIOOGS2514     9bd195162c0334850             GOIANIA7463503000000100553018   39,00SP
0860746948000112000900027120730000918             CL GUARACI COR.DE SEGS.LTDA220820162208201622082016V         Novo (previa)NW MONTAGENS INDUSTRIAIS LOCACOES E TRANEJZ4761     9ADB0602DEM975584             UBERABA3806470000000100348295   39,00MG
0860746948000112000200028047680000837          COSTA MEIRA CORR DE SEGS LTDA 200820162208201622082016V             Renovacao               PAULO MARCIO UEMURA MEIRAPUC6556     9BWKB45U1FP031169              CUIABA7804330600001020163401   39,00MT
0860746948000112000200026696730000837          ZE AUGUSTO CORR.ADM.SEGUROS LT190820162208201622082016V         Novo (previa)                CARLOS PATRICIO DO CARMOOBC6677     9bd15844ad6894493     BARRA DO BUGRES7839000000000100345849   39,00MT
0860746948000112000200023956890000846           FACHINSEG CORR DE SEG LTDA ME200820162208201622082016P         Novo (previa)            LEONARDO DAL POZ EIRELLI EPPQBT8816     9BD17144ZG7555002              Cuiaba7884000000001020051441   30,00MT
0860746948000112000200029293540000651          ZANELLA CORRETORA DE SEGUROS L220820162208201622082016V         Novo (previa)           OSVALDO VIEIRA DA SILVA FILHOQBA1805     9BD578241E7822366           QUERENCIA7864300000000100169579   39,00MT
0860746948000112000200029297030000842             REGINA CELIA COR E ADM SEGS220820162208201622082016V         Novo (previa)     TOPOS CONSTRUCOES E ENGENHARIA LTDAQKB0349     9BWAB45U8FT066794             COLIDER7850000000000100405299   39,00MT
0860746948000112000500028812930000835            CORRENTE COR.DE SEGUROS LTDA220820162208201622082016V         Novo (previa)                ANSELMO DA SILVA MOREIRAOML3808     8AJZX62G5F5007813             GOIANIA7482333000000100255602   39,00SP
0860746948000112000500028806520000835            AMIL ADM E CORR DE SEGS LTDA180820162208201622082016V         Novo (previa)            FLAVIO CRISTIANO DE OLIVEIRAOMJ1968     9BGKT69L0FG188642             GOIANIA7437518000000100241164   39,00SP
0860746948000112000900001471660000609          CPIOTO CORRETORA DE SEGUROS LT190820162208201622082016V         Novo (previa)                  GLEBSON JOSE LEITE EPPOXE9916     9BG144DK0EC442302   SANTA FE DE MINAS3929500000000100496804   39,00MG
0860746948000112000500028811210000835          PIMENTA CONSULTORIA EM SEGS LT200820162208201622082016V          Substituicao                      JOSE RONALDO LOPESNKY4728     9BD27844DA7258501             GOIANIA7422301000001020265255   39,00SP
0860746948000112000900030544510000002                PONTAL CORR DE SEGS LTDA220820162208201622082016V         Novo (previa)                  ESTEVAO RIBEIRO FRANCONWE9638     9BWAA05W4CP017738       CAMPINA VERDE3827000000000100169633   39,00MG
0860746948000112000800001110560000002          SEGURALTA OESTE COR DE SEGS LT220820162208201622082016V         Novo (previa)             EMERSON APARECIDO VERDEROSIEDM9610     9BFHF21C3BB096922APARECIDA DO TABOADO7957000000000100361011   39,00MS
0860746948000112000500028806510000835               EDAN CORR DE SEGUROS LTDA200820162208201622082016V         Novo (previa)                       JOAO CARLOS SILVAPRH1020     8AFAR23N0FJ355002             GOIANIA7466544000000100514969   39,00SP
0860746948000112000900030508480000267           ESSENCIAL COR DE SEGS SC LTDA180820162208201622082016P         Novo (previa)               MIRANDA E POTROS LTDA EPPPWM8336     9BD26512MG9044341          UBERLANDIA3620033600000100064416   30,00MG
0860746948000112000200028020150000837          STRELA SIGMA ADM E CORRET SEG 200820162008201621082016V          Substituicao              FRANCISCO JOSE DE OLIVEIRANLT6014     9BD15844AA6312129     BARRA DO GARCAS7860000000000100581291   39,00MT
0860746948000112000900029946700000002              LEX ADM.E COR.DE SEGS.LTDA200820162008201621082016V         Novo (previa)      CASTRO PEREIRA TRANSPORTES LTDA MEHCA0999     9BD17140752494285        SAO LOURENCO3747000000000100353213   39,00MG
0860746948000112000900028495950000002             FAVORE COR. DE SEGUROS LTDA190820161908201620082016V         Novo (previa)               NILSON GONCALVES CARNEIROERV3217     9BD15804AB6535658          UBERLANDIA3841415600001020092180   39,00MG
0860746948000112000900030512180000609          CPIOTO CORRETORA DE SEGUROS LT180820161908201620082016V         Novo (previa)                  GLEBSON JOSE LEITE EPPPUL3114     9BD578377E7825516      BELO HORIZONTE3100000000000100496804   39,00MG
0860746948000112000200029293530000558           BRADESCOR COR DE SEGUROS LTDA190820161908201620082016V         Novo (previa)                  LAERCIO TEIXEIRA COSTAOWJ1999     93XXTGA2WECD03567           QUERENCIA7864300000000100058777   39,00MT
0860746948000112000900029606860000002                   SDV ADM CORR SEG LTDA190820161908201620082016V         Novo (previa)             ISABEL CRISTINA DE OLIVEIRAHDY9829     9BD195152C0236330   SAO JOSE DA BARRA3790100800000100583871   39,00MG
0860746948000112000200026698120000837                PENSKE CORR DE SEGS LTDA190820161908201620082016V         Novo (previa)             JOAO JOVELINO ABREU DE LIMAOAS2040     93xjrkh8wccb01105              Cuiaba        00000100611506   39,00MT
0860746948000112000200028029070000837          SAGACE CORR DE SEGUROS LTDA ME190820161908201620082016P         Novo (previa)  ROSANGELA COSTA PROJETOS AMBIENTAIS MEQBQ5918     9BWJL45U7FP140695              Cuiaba7800503000001020151489   30,00MT
0860746948000112000900030518880000624          GPS CORRETAGENS DE SEGUROS LTD180820161908201620082016V         Novo (previa)           MERCEARIA SAMURAI BRASIL LTDAHJN7750     9BD22315592014246      BELO HORIZONTE3064218000000100584339   39,00MG
0860746948000112000900027120710000611            SEVEN GOLD CORR DE SEGS LTDA190820161908201620082016V         Novo (previa) PEDRA BONITA MARMORES GRANITOS E PEDRASHOC1918     94DVCGD40BJ756977             UBERABA3805550000000100497789   39,00MG
0860746948000112000900030505570000612                 JUNIOR GOMES DE LIMA ME180820161908201620082016V         Novo (previa)                   REGIANE MENDES FIALHOPVE8999     9BFJF37P8FB000970              MATIPO3536700000001020301154   39,00MG
0860746948000112000200029259770000837          PANTANAL NORTE CORR DE SEG LTD180820161908201620082016V             RenovacaoRODOFEDERAL TRANSPORTES E LOCACAO LTDA MPHI2246     9bvrg40d6ge838469              CUIABA7804330500000100720909   39,00MT
0860746948000112000900030501950000626          REIS CORRETORA DE SEGUROS LTDA190820162008201620082016V         Novo (previa)                 ANAILTON SANTOS MELGACOFEV1008     9BGPB68M0CB338413           GUIRICEMA3652500000001020072902   39,00MG
0860746948000112000900030501970000612            OPLEM ADM.E COR.DE SEGS.LTDA190820162008201620082016V         Novo (previa)                 JOAO PAULO MUNIZ COELHOLKV1778     93HFA65309Z102443                 UBA3650000000000100577871   39,00MG
0860746948000112000200028056400000835            PROAGIL COR DE SEGUROS SS-ME190820162008201620082016V             Renovacao          JEFFERSON LUIZ GUERREIRO MOURAOMQ5679     8AFAR22F6EJ234483               SINOP7590327000000100687448   39,00MT
0860746948000112000200028047620000837          VIPAR CORRETORA DE SEGUROS LTD190820162008201620082016V         Novo (previa)                    ELTON JOHN LIDONI MENDC2449     9BWMF07X1AP016970              CUIABA7808820000000100161730   39,00MT
0860746948000112000200028047640000056          CORRETA CORR. DE SEGUROS LTDA.190820162008201620082016V         Novo (previa)         ALEXANDRA MARIA GONCALVES VIERAQBN1903     95V0A2106GZ690045              CUIABA7806063400000100165131   39,00MT
0860746948000112000500028800710000845          M ROSA DOS SANTOS CORR DE SEGS190820162008201620082016V             Renovacao         JUNIO SANTOS PORTES DE OLIVEIRAOMI7135     9BGPB69M0CB343003              CRIXAS7651000000001020227450   39,00SP
0860746948000112000900001058050000625          PRISMINAS CARNEIRO E VEIGA ADM190820162008201620082016V             Renovacao          CERAMICA IRMAOS FERNANDES LTDAHGZ9593     9BGAD69W09B208382              ITAUNA3568003700000100551848   39,00MG
0860746948000112000100022866400000627                ACCIONA COR DE SEGS LTDA180820162008201620082016V          Substituicao             LUIZ CARLOS SIQUEIRA JUNIOROPU1405     93w245h34d2114297         BOM REPOUSO3761000000000100719498   39,00SP
0860746948000112000800001127240000640          MALBECC BRASIL CORR SEGS LTDA 190820162008201620082016V         Novo (previa)DULCE HELENA APARECIDA CASEIRO DE MAGALHJDM5557     93XFNKA5TFCE94249            ELDORADO7997000000001020006357   39,00MS
0860746948000112000800001095680000558           BRADESCOR COR DE SEGUROS LTDA190820162008201620082016V         Novo (previa)            SELMA SOUZA MELLO STRADIOTTICTB0543     9BMMF33E6XA007708SAO GABRIEL DO OESTE7949000000000100058777   39,00MS
0860746948000112000900029542260000610              MVL ADM E COR DE SEGS LTDA190820162008201620082016V         Novo (previa)                ROSILENE ISABEL DE SOUZAORB5302     9bgsu19f0eb200599            VARGINHA3700501800000100139106   39,00MG
0860746948000112000500028800730000835          G W S  CORRETORA DE SEGUROS LT190820162008201620082016V         Novo (previa)            PARAISO NUTRICAO ANIMAL LTDAOOC8096     9BFYEAKD8EBS64742               JATAI7580000000000100237361   39,00SP
0860746948000112000900029605270000002          CPIOTO CORRETORA DE SEGUROS LT180820161808201619082016V         Novo (previa)                  GLEBSON JOSE LEITE EPPEQJ6309     9BG148LP0EC424478     PATOS DE MINAS 1234567800000100496804   39,00MG
0860746948000112000900029585770000973          LOJACORR S A REDE DE COR DE SE180820161808201619082016V             Renovacao                      LEANDRO SILVA MAIANKE2329     9BG138HU08C424657               PRATA3814000000000100438502   39,00MG
0860746948000112000200029265700000837          FRATELLO R O CORRETORA E ADMIN180820161808201619082016V         Novo (previa)   ASSOCIACAO DOS PRODUTORES DE SEMENTESQBO4984     9BG148EK0FC409257        RONDONOPOLIS7870000000001020281447   39,00MT
0860746948000112000200028050130000624          TRIUNFO COR E ADM DE SEGS LTDA180820161808201619082016P          Substituicao               FRANCISCO MATIAS SUBRINHOFMY6620     9BWAL45Z7F4023924              Cuiaba7830000000000100107140   30,00MT
0860746948000112000800001124860000002          RODOBENS ADM E COR DE SEGS LTD180820161808201619082016V         Novo (previa)                 OSCAR LOPES DE OLIVEIRAHRD8807     9BM384024RB042463        CAMPO GRANDE7901138000000100204056   39,00MS
0860746948000112000200027100030000837          DAHESA CORR E ADM DE SEGS LTDA180820161808201619082016V         Novo (previa)               TRANSPORTADORA CAIBI LTDAAWT3077     9BWAB45Z1E4082405  PRIMAVERA DO LESTE7885000000000100582107   39,00MT
0860746948000112000500028800690000835          REGIVEL CORRETORA DE SEGUROS L180820161808201619082016V             Renovacao                 RODOLFO CINTRA E CINTRAOMX6999     2FMDK4KC4DBC23183               JATAI7580405300000100681172   39,00SP
0860746948000112000500028800680000628           ROSA TAVARES COR DE SEGS LTDA180820161908201619082016V         Novo (previa)                  JOAO BATISTA RODRIGUESNKT5480     9BG138HF09C432092           ITUMBIARA7550000000000100551058   39,00SP
0860746948000112000900028698950000625          PRISMINAS CARNEIRO E VEIGA ADM190820161908201619082016V         Novo (previa)                   ANTONIO PASCOAL GOMESGYG2909     8AJFZ22G7B5016903CONSELHEIRO LAFAIETE3640000000000100551848   39,00MG
0860746948000112000900030516720000624           PRIMOR GROUP COR DE SEGS LTDA180820161908201619082016V         Novo (previa)                  CLAUDIO ANDRE DA SILVAHIR3562     9BD27804D97111586      BELO HORIZONTE3087018000001020171870   39,00MG
0860746948000112000200028020140000558           BRADESCOR COR DE SEGUROS LTDA180820161908201619082016P             Renovacao                 SIMONE DOS REIS P SILVAOBA7304     9BGRP48F0DG257251              Cuiaba7860000000000100058777   30,00MT
0860746948000112000900001891580000627          FERREIRA & NASCIMENTO ADM COR 180820161908201619082016V         Novo (previa)         ELAINE DE CASSIA LANCA DA SILVAEAY6881     9BWKB05Z584156667              CAMBUI3760000000000100542571   39,00MG
0860746948000112000500028813600000835          SERRA DE CALDAS ADM CORR SEGS 180820161908201619082016V             Renovacao             ROBNEYDSON BRUNO DE ALMEIDANFK3914     9bgtk48f05b230341            ANAPOLIS7506314000000100525588   39,00SP
0860746948000112000200028047570000837          SPOLADOR CORRETORA DE SEGS.LTD180820161908201619082016V         Novo (previa)                EDIMARA ADNE DA C CORTEZOBO9053     8AJEX32G4E4038312              CUIABA7806063400000100559946   39,00MT
0860746948000112000200029222020000933          PORTO GERAL ADM COR SEG SC LTD180820161908201619082016V         Novo (previa)                       ENIO JOAO LEOPOLDQBZ0918     9BWJB45U0FP179230        NOVA MARINGA7844500000000100215490   39,00MT
0860746948000112000900029598200000975           HPE CORRETORA DE SEGUROS LTDA180820161908201619082016V         Novo (previa)             JOAQUIM FIDELIS FRANCO NETOPWZ9700     93xfnka5tgcf19468        JUIZ DE FORA3603763000001020076053   39,00MG
0860746948000112000500028802880000835          MELHOR OPCAO ADM E CORRR DE SE180820161908201619082016V          Substituicao               WANDERLEY JOSE DOS SANTOSOWT0198     8AJFY22G9E8012051 BELA VISTA DE GOIAS7524000000001020144512   39,00SP
0860746948000112000500028803880000835          CENTRALLE CORRETORA DE SEGUROS170820161908201619082016V             Renovacao              MARCOS EVANGELISTA PEREIRAOGS9898     WV1DB42H8CA068041            ANAPOLIS7511082000001020229496   39,00SP
0860746948000112000500028803950000835          MESQUITA E ASSOC COR SEG LTA M190820161908201619082016V             Renovacao                  EDNARDO BRUNO DA SILVAOMU4340     8AJFY29G8D8538160           RIO VERDE7590741000000100703095   39,00SP
0860746948000112000200028014060000657           HSBC CORRETORA DE SEGUROS S A190820161908201619082016V         Novo (previa)       MARCELO ALEXANDRO DE LIMA PAULINOJBH0555     9BWAB45Z0D4039706  LUCAS DO RIO VERDE7845500000000100063860   39,00MT
0860746948000112000500028813660000835               CORBREVE COR DE SEGS LTDA180820161908201619082016V             Renovacao              REGINA APARECIDA FALLEIROSOGQ7109     93XJNKB8TDCC52027             GOIANIA7412512500000100627348   39,00SP
0860746948000112000500028812830000835           KCL CORRETORA DE SEGUROS LTDA180820161908201619082016V         Novo (previa)                MILTON GONCALVES DE MELOONK2318     9BGKS69B0FG292262             GOIANIA7482523000000100623814   39,00SP
0860746948000112000800001114320000839          HABITUAL COR E ADM DE SEGS LTD180820161908201619082016V         Novo (previa)                       ERIS FLORES ROCHANSD5063     8AJDY22G3D7002918           RIO NEGRO7947000000000100449571   39,00MS
0860746948000112000800001094750000589           BRADESCOR COR DE SEGUROS LTDA190820161908201619082016P             Renovacao                   LUIZ ANTONIO SCHELLERERZ5754     9BFZF55P3B8112391        CAMPO GRANDE7924000000000100058777   30,00MS
0860746948000112000800001115200000002          MG9 CORRETORA DE SEGUROS SS LT190820161908201619082016V         Novo (previa)                        ENOCK CANDELORIONSD0121     9BG148DH0DC496383        CAMPO GRANDE7907444000001020256795   39,00MS
0860746948000112000500028812870000835          ORCA CORRETORA DE SEGUROS LTDA180820161908201619082016V         Novo (previa)                   JORGE UILSON DA SILVAOOE3626     9BWAG4122FT542513             GOIANIA7460311000000100553832   39,00SP
0860746948000112000500028812800000845            ARAGUAPREV COR SEG VIDA LTDA180820161908201619082016V         Novo (previa)                OMIR CESAR PEREIRA ALVESOGT4985     9BD197132D3015308             GOIANIA7407013000001020233531   39,00SP
0860746948000112000500028814510000835          FLASHCOR CORRETORA DE SEGUROS 180820161908201619082016V          Substituicao                  MICHELLY STHEFANE DIASNGJ0846     9BWJB09N78P012250             GOIANIA7406335000001020252358   39,00SP
0860746948000112000500028810470000056          CIT COR. ADM. SEGS ITUMB. LTDA180820161908201619082016V         Novo (previa)     ATLANTA ESQUADRIAS DE ALUMINIO LTDAPAB0684     9BD197163F3227731             GOIANIA7446059000000100105147   39,00SP
0860746948000112000500028812890000844          OUROECOELHO COR ADM SEG CON LT180820161908201619082016V         Novo (previa)             DENES ANTONIO NEVES BARBOSANGF2798     9BD17140A72858996             GOIANIA7447760000001020045000   39,00SP
0860746948000112000900030512200000624          CARBEDAN ADM E COR DE SEGS LTD180820161908201619082016V             Renovacao        REALIZE ARQUITETURA E CONSTRUCAOHHB3476     9BD27803A87029269      BELO HORIZONTE3043101200000100540609   39,00MG
0860746948000112000500028813680000835          NOVA POOLCOR COR ADM DE SEG LT180820161908201619082016V          Substituicao        ROBERTA LOPES ARANTES DOS SANTOSONL8780     9BWDB45U5ET051519             GOIANIA7483519000001020098596   39,00SP
0860746948000112000500028802890000835          GRUPO DEZ CORR E ADMR DE SEGS 190820161908201619082016V             Renovacao                        FERNANDES STIVALOML5858     9BG148EA0FC407159             GOIANIA7443511000000100525537   39,00SP
0860746948000112000500028812900000835          POOLCOR COR.E ADM.DE SEGS.LTDA190820161908201619082016V         Novo (previa)                 ALBERTO JOSE DE QUEIROZONS8973     9BRB29BT5E2045924             GOIANIA7482506000000100362701   39,00SP
0860746948000112000500028811140000838           JHB CORRETORA DE SEGUROS LTDA180820161908201619082016V             Renovacao                ANA LIGIA BARROS MARQUESOXZ7659     93y5srd04fj668559            ANAPOLIS7508345000000100563943   39,00SP
0860746948000112000500028811120000835               AGNUS CORRETORA SEG. LTDA180820161908201619082016V         Novo (previa)                          DELMER MIRANDAOMT5284     9BD195162E0487056            ANAPOLIS7506435000000100397750   39,00SP
0860746948000112000200027121570000846           BRADESCOR COR DE SEGUROS LTDA190820161908201619082016V          Substituicao              MAIRALENA BATISTA PINHEIRONCE6550     9BWAA05U1AP066648FIGUEIROPOLIS D OEST7829000000000100058777   39,00MT
0860746948000112000900030512190000624          RACIONAL CORRETORA DE SEGUROS 180820161908201619082016V             Renovacao            ALCIONE CARNEIRO MASCARENHASOLX5696     9BWAB05Z9D4046128      BELO HORIZONTE3035009300000100061387   39,00MG
0860746948000112000500028802850000845          MATTOS E CARVALHO COR DE SEGS 180820161908201619082016V          Substituicao         EDUARDO J M DE BRITO E CIA LTDAPRM4000     2g1f91ej7e9247240          VIANOPOLIS7526500000001020212348   39,00SP
0860746948000112000200028056390000641          VIA SOLLUS CORR DE SEGUROS LTD190820161908201619082016V         Novo (previa)                    ALAN GABRIEL DE MELONUF3964     8AFER13P2BJ451334               SINOP7855000000000100601357   39,00MT
0860746948000112000500028801970000835          PORTO BELO CORRETORA E ADM SEG180820161908201619082016V             Renovacao          GILDA RODRIGUES DE PAULA LOPESJIM0514     93hgm2620az130111             GOIANIA7466560000001020190867   39,00SP
0860746948000112000500028767850000835          ASA ADM COR SEGS ARAGUAIA LTDA180820161908201619082016V         Novo (previa)                    JOSE ELISEU DA SILVANWR2512     9BD27855MC7444864             CATALAO7570730000000100220256   39,00SP
0860746948000112000500028767890000940          SEGURALTA OESTE COR DE SEGS LT190820161908201619082016V             Renovacao             CRISTIANE LOPES PERES ALVESONQ2316     9BFZF54P4E8118559             CATALAO7570923000000100361011   39,00SP
0860746948000112000900030518890000624          2000 ADM.E COR.DE SEGUROS LTDA180820161908201619082016V         Novo (previa)    TRL TRANSPORTADORA RIBEIRO LARA LTDAOQW2580     9BVAG20C2EE809812      BELO HORIZONTE3062644000000100384844   39,00MG
0860746948000112000500028814520000835                NUCLEO CORR DE SEGS LTDA180820161908201619082016V             Renovacao                  LUCILEIA GODOI DE LIMAONQ5177     9BWDB49N2EP005609             GOIANIA7471309000000100156582   39,00SP
0860746948000112000500028767870000940          SEGURALTA OESTE COR DE SEGS LT180820161908201619082016V             Renovacao                  LEONARDO ALVES BRANDAOOMN6103     9bd27844pd7649100             CATALAO7570337000000100361011   39,00SP
0860746948000112000500028802840000835            ANASEG ANAPOLIS CORR DE SEGS180820161908201619082016V         Novo (previa)           REGINA CANDIDA DA SILVA COSTAPQH0587     9BWAA45U3GP038026         GOIANAPOLIS7517000000000100176630   39,00SP
0860746948000112000900000752400000558           BRADESCOR COR DE SEGUROS LTDA170820161908201619082016V         Novo (previa)               MARCO ANTONIO CORREA REISHFE6484     9BWAA05Z7C4065164             PERDOES3726000000000100058777   39,00MG
0860746948000112000900000916840000002          PRISMINAS CARNEIRO E VEIGA ADM170820161708201618082016V         Novo (previa)                        FB DISTRIBUIDORAOQR9255     9BWMF07X3EP011632         DIVINOPOLIS3550128500000100551848   39,00MG
0860746948000112000200028028470000203          TARRAF ADM E COR DE SEGS S/C L170820161708201618082016V             Renovacao                     SIRLEI FANTI MANICAIQJ6770     9BSG4X200A3653728              CUIABA7809828200000100252450   39,00MT
0860746948000112000200026696690000846          WENDERSON B DE O CORR DE SEG E170820161708201618082016V         Novo (previa)            C C DA CUNHA PANIFICADORA MEQBS6309     8ajex32g2f4040321     NOVA MARILANDIA7841500000001020321864   39,00MT
0860746948000112000900030512130000624          INCOSEL INTERCONTINENTAL COR D170820161708201618082016V         Novo (previa)            ALEXANDRE MACHADO DOS SANTOSNYB7309     9BWAA05U9DT021386      BELO HORIZONTE3031070000000100066672   39,00MG
0860746948000112000900029583840000624          MINASVALLE DIST D COR.DE SEGS.170820161708201618082016V         Novo (previa)       VINICIUS RICARDO MARTINS DE MOURAHEV9910     9BD195162C0192256            CONTAGEM3221000200000100231894   39,00MG
0860746948000112000900029583830000608          M & M MASTER ADM E COR SEGS LT170820161708201618082016V         Novo (previa)                    FANNY DE FATIMA MELOPUM4583     9BD195162E0598117              SABARA3450544000001020145438   39,00MG
0860746948000112000200027116790000649          W WEST CORRETORA DE SEGUROS LT170820161808201618082016V         Novo (previa)       IND. E COM. DE COUROS HANSEN LTDAIQW8557     93KP0E0C8AE122187          ARENAPOLIS7842000000000100492604   39,00MT
0860746948000112000200027360130000645                COLIGACAO COR DE SEGUROS180820161808201618082016V          Substituicao                A N DOS SANTOS FILHO EPPOAP7518     9BWAA05W6EP023205   GUARANTA DO NORTE7852000000000100418030   39,00MT
0860746948000112000500028804940000851          GURUPI CORRETORA DE SEGUROS LT170820161808201618082016V          Substituicao                 ABELINA PEREIRA LACERDAOMJ3021     93YBSR86KDJ566107             GOIANIA7445034000000100369373   39,00SP
0860746948000112000200028047530000837          CENTAURUS PRIME COR SEG EIRELI170820161808201618082016V          Substituicao      KELY DA SILVA CARDOSO DE ALCANTARAQBH7628     9UK64ED59F0084777              CUIABA7809067800001020312156   39,00MT
0860746948000112000500024686420000835          MAISGARRA ADM E COR DE SEGS LT170820161808201618082016V          SubstituicaoSOLUCAO COMERCIO SERVICOES E TRANSPORTESDMU0057     8AJFZ29G766000481           GOIANESIA7638200000000100529354   39,00SP
0860746948000112000200029219020000589           BRADESCOR COR DE SEGUROS LTDA170820161808201618082016V          Substituicao               CLEBER WAGNER BORTONCELLOOBB7486     8AJYY59GXC6502071          NOVA MUTUM7845000000000100058777   39,00MT
0860746948000112000800001126700000844               BV CORR DE SEGS EIRELI ME170820161808201618082016V         Novo (previa)                   ALVINO JOAO BINDEWALDNRW6152     9bd27855md7699618     CHAPADAO DO SUL7956000000001020221754   39,00MS
0860746948000112000800001115120000002          NCO CORRETORA DE SEGUROS S/S L170820161808201618082016V         Novo (previa)                BIASIBETTI E CIA LTDA MEOON7425     9BD578341F7886678        CAMPO GRANDE7900567000001020272618   39,00MS
0860746948000112000800001127920000643              RIO BRANCO COR DE SEG LTDA170820161808201618082016V         Novo (previa)         MAGDA REGINA COPPINI DE ALMEIDAMGY7315     9BD27808MA7180302            DOURADOS7983300100000400006912   39,00MS
0860746948000112000800001115140000002          QUALITA MS CORRETORA DE SEGURO170820161808201618082016V         Novo (previa)                PACTUAL CONSTRUCOES LTDAHTS8209     9ADG1243BBM335964        CAMPO GRANDE7904068000001020032838   39,00MS
0860746948000112000200029265650000846              UNIVERSAL COR DE SEGS LTDA170820161808201618082016V         Novo (previa)               AVELINO RODRIGUES DE LIMAOBM5157     9BWDB05U8DT234288        RONDONOPOLIS7870010000000100206806   39,00MT
0860746948000112000200029236050000846              UNIVERSAL COR DE SEGS LTDA170820161808201618082016V          Substituicao                       VILMAR DE OLVEIRANUF9292     9BFZK53A1CB381827        RONDONOPOLIS7874567600000100206806   39,00MT
0860746948000112000200029265690000846              UNIVERSAL COR DE SEGS LTDA180820161808201618082016V          Substituicao                    MARCIA GALON MARTINSFWE5209     9BG148LA0FC404113        RONDONOPOLIS7870000000000100206806   39,00MT
0860746948000112000500028810760000835          G W S  CORRETORA DE SEGUROS LT170820161808201618082016V          Substituicao      SINDICATO TRAB ST PUBLICO AGRIC GONKJ6484     9BWGB05W79T044343             GOIANIA7461015500000100237361   39,00SP
0860746948000112000500028803870000835            ANASEG ANAPOLIS CORR DE SEGS170820161808201618082016V         Novo (previa)A SEMENTEIRA PRODUTOS AGROPECUARIOS LTDANKL8989     9BD27803M97153853            ANAPOLIS7512339000000100176630   39,00SP
0860746948000112000500028813620000835          FLASHCOR CORRETORA DE SEGUROS 170820161808201618082016V          Substituicao                     JULIANO LEAO CABRALOMZ2420     WV1DB42HXDA031655             GOIANIA7413001000001020252358   39,00SP
0860746948000112000500028802830000835          C.I.A GOLD COR DE SEGS LTDA-ME170820161808201618082016V             Renovacao                    ANTONIO TOBIAS LEMESOOE5216     9BGKR48B0FG184326       BURITI ALEGRE7566000000000100709051   39,00SP
0860746948000112000500028805010000835          PASSOFORTE COR.DE SEGUROS LTDA170820161808201618082016V             Renovacao CORAE CENTRO DE ORIENTACAO REAB ASST ENKEO7819     9BWGB07X81P019809             GOIANIA7421024000000100369055   39,00SP
0860746948000112000800001107350000002          SEGURANCA ADM E COR SEGS SC LT170820161808201618082016V             Renovacao                 ORTEGA E ORTEGA LTDA MEOOS7519     9BD26512MG9044762             CORUMBA7933312000000100159905   39,00MS
0860746948000112000500028800670000835          ESSEG CORRETORA DE SEGUROS LTD170820161808201618082016V          Substituicao               SINESIO DE OLIVEIRA SOUZAOGM9432     9BGJC69X0CB253822               JATAI7580005400000400002046   39,00SP
0860746948000112000500028803890000845             ALO BRASIL COR DE SEGS LTDA170820161808201618082016V          Substituicao            AGNALDO DA ANUNCIACAO SANTOSNKP4930     9BG138SF09C441958            ANAPOLIS7513359000000100446424   39,00SP
0860746948000112000500028804930000835          NIGHT AND DAY ADM.CORR.SEGS.LT170820161808201618082016V             Renovacao                   NILSON BATISTA MARCALONY4580     9BWDB05UXDT235703             GOIANIA7439054000000100332046   39,00SP
0860746948000112000500028810420000835            G8 COR.E ADM.DE SEGUROS LTDA170820161808201618082016V             Renovacao                 BRAZ SIMPLICIO DA COSTAPAO0562     9BRBLWHE5G0057462             GOIANIA7407515000000100062821   39,00SP
0860746948000112000500028801920000835          NOVA POOLCOR COR ADM DE SEG LT170820161808201618082016V             Renovacao                CLEUZA DE FATIMA MARTINSPQG2046     9BWAA45U06P502390             GOIANIA7457300000001020098596   39,00SP
0860746948000112000500028802820000835          GILCOR CORRETORA DE SEGUROS LT170820161808201618082016V          Substituicao                 WANDERLEI JOSE DO PRADONKQ8419     KMHSH81GDBU720596            GOIATUBA7560000000000100125199   39,00SP
0860746948000112000500028803900000835          VERACRUZ ADM COR DE SEGS LTDA 170820161808201618082016V         Novo (previa)                 INES BORTONCELIO BUFFETFGJ8995     KNAGN412BE5392777            ANAPOLIS7514010000000100625124   39,00SP
0860746948000112000500028814100000835          PIMENTA CONSULTORIA EM SEGS LT170820161808201618082016V         Novo (previa)           LUAN KESLEY NUNES DE OLIVEIRAPQJ4097     9UK64ED58F0089923APARECIDA DE GOIANIA7491531000001020265255   39,00SP
0860746948000112000500028812130000836           GJX CORRETORA DE SEGUROS LTDA170820161808201618082016V             Renovacao                       IVAN LINS PEIXOTOJGC0059     salltgm941a732949             GOIANIA7481022000000100717215   39,00SP
0860746948000112000500028811110000835           CORASBEG CORRETORA DE SEGUROS170820161808201618082016V         Novo (previa)        MARCIA ELIAS DE OLIVEIRA RIBEIROOMT4763     9BD196271D2159034             ANICUNS7617000000000100102636   39,00SP
0860746948000112000200028050110000616          VIVER CORRETORA DE SEGUROS LTD180820161808201618082016V         Novo (previa)                     ALEX LUCAS DE SOUZAPPE7018     8AJFX29G3F6607659    TANGARA DA SERRA7830000000000100148873   39,00MT
0860746948000112000200029229080000837            DELTA ADM E COR DE SEGS LTDA180820161808201618082016V          Substituicao                  ADILSON ROMANO SAMPAIOOBC5562     9BWAA05W4DP105254              CUIABA7805584800000100099236   39,00MT
0860746948000112000900027120680000835          GOVESA ADM.COR.E PLANEJ.DE SEG180820161808201618082016V          Substituicao                  CARLOS LAZARINE JUNIORGJB1758     94DVDUD40GJ988118             UBERABA3804025000000100062812   39,00MG
0860746948000112000300028483100000836          ADMINSEG ADM E COR DE SEG LTDA180820161808201618082016V             Renovacao                            GILDO SOARESOVT6581     8AGSU19F0ER172820 VALPARAISO DE GOIAS7287860600000100576476   39,00SP
0860746948000112000900027120690000921          L & A LIMA ADM COR SEGS S/S LT180820161808201618082016V             Renovacao COSTA FERREIRA MATERIAS PARA CONSTRUCAOAJG7353     9BM696090YB227617             UBERABA3803014000000100648191   39,00MG
0860746948000112000200028050100000056          CAMINHOS SEGUROS COR.DE SEGS.L180820161808201618082016P         Novo (previa)                     ELIO JOAO CAVAGNOLOQBB0099     salva2bg5eh895267              Cuiaba7830000000000100404047   30,00MT
0860746948000112000800001095670000839           HSG CORRETORA DE SEGUROS LTDA180820161808201618082016V         Novo (previa)           NILSON P PASQUALETTO G JUNIORHTF6511     93XJRKB8T9C911256SAO GABRIEL DO OESTE7949000000001020049790   39,00MS
0860746948000112000900001057520000609          A3MG CORRETORA DE SEGUROS LTDA170820161808201618082016V         Novo (previa)             VALDETE RODRIGUES DE NOVAISHNS1033     9bwaa05u4bt201193GOVERNADOR VALADARES3504376500001020063814   39,00MG
0860746948000112000200029297020000280          RODOBENS ADM E COR DE SEGS LTD180820161808201618082016V      Reducao franquia              ARILSON LEANDRO DOS SANTOSOBN4419     8AJFY29GXD8520176             COLIDER7850000000000100204056   39,00MT
0860746948000112000200029269140000837           PRECISA CORR DE SEGS LTDA EPP160820161608201617082016V          Substituicao                  FABIANO ALIPI DA SILVAQBF3391     9BHBG51CAGP550635             SORRISO7889000000000100558362   39,00MT
0860746948000112000800001096740000839          CORREMAX ADM.E COR.DE SEGS LTD160820161608201617082016V         Novo (previa)                   PAULO ROBERTO STOCKERHTC8308     9BWGB05W29T065553             NAVIRAI7995000000000100231797   39,00MS
0860746948000112000800001095660000848           ALEUNAM CORR DE SEGS S/S LTDA160820161608201617082016V         Novo (previa)                     KATIA DE JESUS MELOHTN2612     8BCLDRFJWAG532278SAO GABRIEL DO OESTE7949000000001020257651   39,00MS
0860746948000112000200029259630000846          EXALTACAO COR ADM SEG CONS LTD160820161608201617082016V         Novo (previa)           FLAVIA PALMENA FERREIRA SOUZAOBJ5704     9BFZB55P4D8839344CUIABÃƒÂƒÃ‚ÂƒÃƒÂ‚Ã‚Â7811548000000100598704   39,00MT
0860746948000112000500028812700000835          T JOTA COR. DE SEG. S/S LTDA-M160820161708201617082016P          Substituicao            SILVESTRE RODRIGUES OLIVEIRAPQD4084     9BD57837SF7968749      RIBEIRAO PRETO7430544000001020126069   30,00SP
0860746948000112000900028495840000002          SALVESEG CORRET DE SEGUROS LTD170820161708201617082016V         Novo (previa)          JOSE HENRIQUE TRANSPORTES LTDAHFO7990     9BWDA05U0BT656826          UBERLANDIA3841446400001020152990   39,00MG
0860746948000112000500024664670000845           JTS CORRETORA DE SEGUROS LTDA170820161708201617082016V         Novo (previa)                  EVA MONICA SOUZA GRANDNLM2211     9bd17202la3516256             JARAGUA7633000000000100530361   39,00SP
0860746948000112000500028802460000835          ROMAX  CORRETORA DE SEGUROS LT160820161708201617082016V         Novo (previa) ITALO ALEXANDRE TORRES DE MIRANDA VERASOMJ9394     3N1CN7AD2EK395245             GOIANIA7433013000001020091460   39,00SP
0860746948000112000200029222520000641          TORRE VERDE COR DE SEGUROS LTD170820161708201617082016V         Novo (previa)                       TRANSVANZELA LTDAAZE2031     9AA02062GFC130951           VILA RICA7864500000000100535923   39,00MT
0860746948000112000500028810340000835             LUMINNA COR DE SEGS LTDA ME160820161708201617082016V          Substituicao                  RENATO RESENDE ANGELIMPQF8188     3VWHJ6AU1FM092419             GOIANIA7481008000001020319002   39,00SP
0860746948000112000200029222510000641          TORRE VERDE COR DE SEGUROS LTD170820161708201617082016V         Novo (previa)                       TRANSVANZELA LTDAAZE2036     9AA02102GFC130937           VILA RICA7864500000000100535923   39,00MT
0860746948000112000500028802500000835          FORTI UM CONSULTORIA E CORRETA160820161708201617082016V             Renovacao             JORDEVAL GONCALVES DA SILVANKT3067     9bwaa05w2ap072444APARECIDA DE GOIANIA7493005000000100577634   39,00SP
0860746948000112000500028803850000845             ALO BRASIL COR DE SEGS LTDA160820161708201617082016V         Novo (previa)          MARCEL HENRIQUE LOPES DA SILVAJHP0474     kpts0b1fs8p076424            ANAPOLIS7507058000000100446424   39,00SP
0860746948000112000500028803860000835          AS AMERICAS COR.DE SEGS.SC.LTD160820161708201617082016V         Novo (previa)             JULIO CESAR BORGES DA SILVAONA4310     8ajfy29gxd8539598            ANAPOLIS7502509000000100065188   39,00SP
0860746948000112000800001113050000160          MANTOVA COR E ADM DE SEGS SC L170820161708201617082016P             Renovacao                   ALCIONE MARIA PEIXOTONRQ3343     3C4PDCFG1CT194330        CAMPO GRANDE7900451000000100301418   30,00MS
0860746948000112000500028803810000835          CONQUISTANDO SPACO CORRETORA D160820161708201617082016V         Novo (previa)                    LETICIA ARANTES JURYJKC3148     KNABX514ADT312176            ANAPOLIS7511075000000100611573   39,00SP
0860746948000112000200029215410000837          SAMARADIB CORRETORA DE SEGUROS160820161708201617082016V          Substituicao               JACQUELINE MIRANDA FORTESQBG0293     9BHBH41DBFP476378              CUIABA7804940000000100547760   39,00MT
0860746948000112000500028812730000835          FERNANDES TAVARES ADM COR SEG 160820161708201617082016V         Novo (previa)          CARLA RODRIGUES CORREA BATISTAPUT6907     93Y4SRD64FJ547790             GOIANIA7421524000000100688266   39,00SP
0860746948000112000500028802780000835          JM ANDRADE CONS ASS TREIN CORR160820161708201617082016V         Novo (previa)              MARCOS JOSE PASSOS RICARDOONN4548     8AFAR23L0FJ299027        PIRES DO RIO7520000000001020175361   39,00SP
0860746948000112000200029259700000837          LA BARCA CORR E ADM DE SEGS PE160820161708201617082016V         Novo (previa)                 ELENICE SCHMIDT BATISTAQBY9880     8ad4d5gvugg003307              CUIABA7807577500000100333476   39,00MT
0860746948000112000500028802750000835          FRUTUOSO E CORREIA CORR DE SEG160820161708201617082016V          Substituicao                   JOSE FILEMON DA SILVANKX5794     9BD27833A97095677             ORIZONA7528000000000100702889   39,00SP
0860746948000112000500028802770000835          PREVINA PIRES DO RIO COR DE SE160820161708201617082016V             Renovacao                       ANTONIO BORTOLETONLI2589     9BRBB48E7A5073096        PIRES DO RIO7520000000000100728390   39,00SP
0860746948000112000500028802760000835          PREVINA PIRES DO RIO COR DE SE160820161708201617082016V         Novo (previa)                     JOAO DIVINO RIBEIROONL7344     9BG148MH0DC485366        PIRES DO RIO7520000000000100728390   39,00SP
0860746948000112000500028802740000845               FORTCOR CORR DE SEGS LTDA160820161708201617082016V         Novo (previa)                         ANTONIO LORENCOOGY3679     94DVCUD40DJ375417             ORIZONA7528000000000100280721   39,00SP
0860746948000112000900030508330000626          ESTAVEL ADM.E COR.DE SEGS.LTDA160820161708201617082016V         Novo (previa)                           NIVALDO ROMANHBR4547     9BD17350EC4363572           BARBACENA3620115600000100375187   39,00MG
0860746948000112000500028802730000835          LEVITICO CORRETORA DE SEGUROS 160820161708201617082016V          Substituicao                  DEUSIMAR LUIZ SIQUEIRANGF8860     9BR53ZEC278653005          VIANOPOLIS7526000000000100608751   39,00SP
0860746948000112000500028814050000835          POOLCOR COR.E ADM.DE SEGS.LTDA160820161708201617082016V         Novo (previa)                 JAIR MIRANDA DOS SANTOSNWF6816     9BWAA05U2BT266673APARECIDA DE GOIANIA7496850300000100362701   39,00SP
0860746948000112000500028814070000835               ASSICURARE COR. SEG. LTDA160820161708201617082016V             Renovacao       RG METALURGICA E CONSTRUCOES LTDANWP4871     9BWKB05U3CP084072APARECIDA DE GOIANIA7492323000000100378691   39,00SP
0860746948000112000500028767770000844          PADUA CASTRO COR DE SEGUROS LT160820161708201617082016V         Novo (previa)         WANDERLEY RODRIGUES DE MENDONCAFHG8120     9BD27846PD7610479             CATALAO7570260000000100601365   39,00SP
0860746948000112000500028767790000835          PADUA CASTRO COR DE SEGUROS LT170820161708201617082016V         Novo (previa)      CATALAO PIRES DO RIO VEICULOS LTDAPQC2017     9bg148mk0hc400344             CATALAO7570143000000100601365   39,00SP
0860746948000112000500028767780000835          ASA ADM COR SEGS ARAGUAIA LTDA160820161708201617082016V         Novo (previa)                  CARLOS ANTONIO PEREIRANLN7277     9BG138SF0AC438126             CATALAO7570148000000100220256   39,00SP
0860746948000112000800001114230000848          GUAVIRAL ADMIN E CORR DE SEGS 160820161708201617082016V             Renovacao          MARCIA DANIELA PEREIRA DRUMONDPWA4860     9531M62P9FR516251        CAMPO GRANDE7905047000000100649678   39,00MS
0860746948000112000800001115100000002          TRES LS ADM E CORR DE SEGS LTD170820161708201617082016V         Novo (previa)   WELLINGTON ROBERTO FERNANDES DA SILVAOOS7362     8AJFY29G5F8586430        CAMPO GRANDE7906028000001020169329   39,00MS
0860746948000112000800001115110000002          QUALITA MS CORRETORA DE SEGURO170820161708201617082016V         Novo (previa)                PACTUAL CONSTRUCOES LTDAHTP0873     9BM958461BB792862        CAMPO GRANDE7904068000001020032838   39,00MS
0860746948000112000500028814090000835          PINAUTO PINHEIROS CORR DE SEG 160820161708201617082016V         Novo (previa)                   MARIA HELENA MESQUITANLC9475     8AP17201MA2036605APARECIDA DE GOIANIA7493601000000100570001   39,00SP
0860746948000112000500028767810000975           HPE CORRETORA DE SEGUROS LTDA170820161708201617082016V         Novo (previa)                 ANA CLAUDIA NEVES ALVIMOOB2812     9brk19bt0e2027463             CATALAO7570000000001020076053   39,00SP
0860746948000112000200029269240000837          ZE AUGUSTO CORR.ADM.SEGUROS LT160820161708201617082016V         Novo (previa)                   LIMPEX LIMP SECO LTDAQBA3257     9BD265122E9015673             SORRISO7889000000000100345849   39,00MT
0860746948000112000200028029970000837          VL GRILLAUD COR E ADM DE SEGS 170820161708201617082016V          Substituicao                    LUIS CARLOS DA SILVANJG4596     9BRBB48E895017082              CUIABA7807045800000100609226   39,00MT
0860746948000112000500028800660000835          ESSEG CORRETORA DE SEGUROS LTD170820161708201617082016V         Novo (previa)  VANIA MANEZES GARCIA FERREIRA DE MOURAPRB1110     93KP0R1F5FE154286               JATAI7580009300000400002046   39,00SP
0860746948000112000900029542220000937          PELEGRINI CORR DE SEGS IMOB LT170820161708201617082016V         Novo (previa)                 FABIO HENRIQUE DE PAIVAFSU9192     9bvj1e1a3ee819578    SAO JOAO DA MATA3756800000000100234061   39,00MG
0860746948000112000200028050040000056          CAMINHOS SEGUROS COR.DE SEGS.L150820161508201616082016P         Novo (previa)                       VANESSA PELEGRINEAAA1111     9BD26512ME9065632              Cuiaba7830000000000100404047   30,00MT
0860746948000112000500028802430000835          SAKURA CORRETORA DE SEGUROS LT160820161608201616082016V             Renovacao               MARCELO SOARES DE SANTANAONQ6856     9BWLL45U5FP037039APARECIDA DE GOIANIA7493223000000100359041   39,00SP
0860746948000112000500028802420000835          SANTA IZABEL ADM COR SEGS LTDA150820161608201616082016V          Substituicao                  ELEIZE ALMEIDA SIPUABAOXD3829     9BG148LP0EC443622             GOIANIA7437518000000100137413   39,00SP
0860746948000112000500028803790000835          GOLDEN MAX CORR DE SEGUROS LTD150820161608201616082016V             Renovacao             GIVALDA FERREIRA DOS SANTOSJIC0373     9BWAA05U7AP095491            ANAPOLIS7513333000001020048440   39,00SP
0860746948000112000500028803770000835          MELHOR OPCAO ADM E CORRR DE SE150820161608201616082016V         Novo (previa)            JOSE QUINTINO DA SILVA FILHOOPO6921     9BD197132D3081499            ANAPOLIS7509527500001020144512   39,00SP
0860746948000112000500028810310000965          PLATINUM AMERICA COR DE SEG LT150820161608201616082016V         Novo (previa)                 MANLOG TRANSPORTES LTDAFQF2046     9BSR6X400E3854816             GOIANIA7467002000000100604143   39,00SP
0860746948000112000500028803820000845            F & S CORR. DE SEGS. LTDA ME150820161608201616082016V         Novo (previa)                   MILTON CARLOS DE LIMAOOC4687     9BHBG41DAFP328778            ANAPOLIS7511342000001020284888   39,00SP
0860746948000112000200029269150000641                UNICOOB COR DE SEGS LTDA120820161608201616082016V          Substituicao           3D TRANSPORTES DE CARGAS LTDAPEL7936     9535W8276BR163078   IPIRANGA DO NORTE7857800000000100562670   39,00MT
0860746948000112000500028803760000835              EXCELSEG COR ADM SGRS LTDA150820161608201616082016V         Novo (previa)                   ANGELO MARCIO PEREIRAOGQ3140     8AJEX32G0C4033492            ANAPOLIS7511033000000100310387   39,00SP
0860746948000112000500028803800000835          AUTOCAR CORRETORA DE SEGUROS L150820161608201616082016V         Novo (previa)                 CAIO SOLLANO MELO GOMESONK9050     WV1DB42H4DA045003            ANAPOLIS7509372500000100326542   39,00SP
0860746948000112000200028020110000837          STRELA SIGMA ADM E CORRET SEG 150820161608201616082016V         Novo (previa)                  HELIO PEREIRA DA SILVANKU7929     9BG138SJ0AC410225     BARRA DO GARCAS7860000000000100581291   39,00MT
0860746948000112000800001113990000002           REALIZA ADM CORR DE SEGS LTDA150820161608201616082016V          Substituicao       CARLOS ALBERTO GARCETE DE ALMEIDAOOL2902     9BG148EK0EC440650        CAMPO GRANDE7905100000000100236420   39,00MS
0860746948000112000800001107330000002          ARAUJO E ALEIXO ADM E CORR DE 160820161608201616082016V         Novo (previa) WANDERSON MATERIAIS DE CONSTRUCOES LTDANRQ9487     93HFB2530CZ214601             CORUMBA7931019000000100185043   39,00MS
0860746948000112000200028000970000558           BRADESCOR COR DE SEGUROS LTDA150820161608201616082016P         Novo (previa)        ISABELLY SANTANA BARROS FERREIRAOBP1484     9BFZB55P1E8856524              Cuiaba7800503000000100058777   30,00MT
0860746948000112000200027387180000644            RONDOPAR COR DE SEGUROS LTDA150820161608201616082016V         Novo (previa)                  VIANEI BALTASAR PERIUSAZU0496     8afar23l6fj262984              Cuiaba        00000100186988   39,00MT
0860746948000112000500028804870000835             POPULAR COR. ADM.SEGS.LTDA.150820161608201616082016V         Novo (previa)                   RUI MONTEIRO DA SILVANKV0318     8AFDR12A1BJ451270             GOIANIA7481578000000100458571   39,00SP
0860746948000112000500028812670000835           KCL CORRETORA DE SEGUROS LTDA150820161608201616082016V         Novo (previa)       UNIAO RENT A CAR DE VEICULOS LTDAOOF0272     9BWAA45U0FP501304             GOIANIA7425515000000100623814   39,00SP
0860746948000112000500028812690000835          FORNAZIER CORR DE SEGUROS LTDA150820161608201616082016V             Renovacao                       GILBERTO CASSIANOCZG4775     93XPRK94WAC915391             GOIANIA7416001000000100505382   39,00SP
0860746948000112000500028812680000835            SOFIARCA COR.SEGUROS SC LTDA150820161608201616082016V          Substituicao                   CELIO AIRES DE ARAUJOOOF0900     8AFAR22F7DJ062253             GOIANIA7427502000000100221104   39,00SP
0860746948000112000800001107320000002          ARAUJO E ALEIXO ADM E CORR DE 160820161608201616082016V         Novo (previa) WANDERSON MATERIAIS DE CONSTRUCOES LTDAQAA8295     9BGJC69E0GB177620             CORUMBA7931019000000100185043   39,00MS
0860746948000112000500028813590000835           JMK CORRETORA DE SEGUROS LTDA150820161608201616082016V         Novo (previa)    VALDECIR DE OLIVEIRA NANTES MEDEIROSPQI0277     93XXTGAZWGCF24409             CATALAO7571001000000100381373   39,00SP
0860746948000112000200029294610000837          FORTE ALIANï¿½?A CORR DE SEG L150820161608201616082016V         Novo (previa)                         ANTENOR CORBARIOAV1988     8AJYZ59GXB3056260             SAPEZAL7836500000001020175116   39,00MT
0860746948000112000200028050060000159          BRANARA CORR E ADM DE SEGUROS 160820161608201616082016P         Novo (previa)                LUCIANO OLIVEIRA RESENDEQBT6416     8AJFY22G2F8023040              Cuiaba7830000000000100652989   30,00MT
0860746948000112000200028020120000835          RODOBRAS ADM E COR DE SEGS LTD160820161608201616082016V          Substituicao                 RICARDO TADACHI NOZAQUIFQF1858     9BRBD3HE7F0202463     BARRA DO GARCAS7860000000000100349836   39,00MT
0860746948000112000800001115050000002             PROSEG ADM COR SRGS LTDA ME160820161608201616082016V                Outros       DOUGLAS ALMEIDA DE OLIVEIRA FILHOOOS5783     98M3B1002F4A07145        CAMPO GRANDE7908037500000100110523   39,00MS
